:100000000C94B4000C94DE000C94DE000C9461019E
:100010000C94DE000C94DE000C9491060C94DE002F
:100020000C94DE000C94DE000C94DE000C94DE00D8
:100030000C94BB020C9403490C94DE000C94DE007B
:100040000C94DE000C94DE000C94DE000C94DE00B8
:100050000C94DE000C94DE000C94DE000C94DE00A8
:100060000C94F3010C94DE000C94DE000C94DE0082
:100070000C94DE000C94DE000C94AB480C94DE0073
:100080000C94DE000C94DE000C94BC060C94DE0094
:100090000C94DE000C94DE000C94DE000C94DE0068
:1000A0000C94DE000C940C370C94DE000C94DE00F3
:1000B0000C94DE000C94DE000C94DE000C94DE0048
:1000C0000C94DE000C94DE000C94DE000C94DE0038
:1000D0000C94DE000C94DE000C94DE000C94DE0028
:1000E0000C94DE000C94DE0005A84CCDB2D44EB9C1
:1000F0003836A9020C50B9918688083CA6AAAA2ACB
:10010000BE000000803F08000000BE922449123E5D
:10011000ABAAAA2ABECDCCCC4C3E00000080BEAB20
:10012000AAAAAA3E00000000BF000000803F000015
:10013000000000084178D3BB4387D1133D190E3C22
:10014000C3BD4282AD2B3E68EC8276BED98FE1A959
:100150003E4C80EFFFBE01C4FF7F3F000000000067
:100160004C12C6135912D31311241FBECFEFCDBFAB
:10017000DFE7DEBF11E4A0E0B0E4E8E7F5EA00E085
:100180000BBF02C007900D92AE31B107D9F723E43F
:10019000AEE1B1E401C01D92AA33B207E1F710E06D
:1001A000C2EBD0E004C02197FE010E94484EC03B44
:1001B000D107C9F70E94D9070C94AF520C940000E4
:1001C0000FB6F89460933643709337438093384367
:1001D000909339430FBE0895FC010FB6F8946091D7
:1001E00036437091374380913843909139430FBE25
:1001F000309721F0608371838283938308958F9376
:100200008FB78F93F894809136438F5F80933643F6
:10021000809137438F4F80933743809138438F4F7E
:1002200080933843809139438F4F809339438F9126
:100230008FBF8F910895CF93DF93CDB7DEB70E9424
:10024000FA1F0000DF91CF910895CF93DF9300D084
:10025000CDB7DEB789836A838A818823B1F080E0D5
:1002600090E0FC018181482F8981282F30E081E0D6
:1002700090E002C0880F991F2A95E2F7242F282BBF
:1002800080E090E0FC01218316C080E090E0FC015A
:100290008181482F8981282F30E081E090E002C0E1
:1002A000880F991F2A95E2F78095242F282380E054
:1002B00090E0FC01218300000F900F90DF91CF911F
:1002C00008951F920F920FB60F9211240BB60F9242
:1002D0002F933F934F935F936F937F938F939F934E
:1002E000AF93BF93EF93FF93CF93DF931F92CDB75D
:1002F000DEB780E491E0FC01838189838981882FC6
:1003000090E081709927892B09F451C00E94FF0069
:10031000809106409091074021E0892B09F420E06C
:10032000222349F0809106409091074001978093E5
:1003300006409093074081E08093924180919341E1
:1003400090919441A0919541B09196410196A11D43
:10035000B11D8093934190939441A0939541B093A4
:1003600096418091934190919441A0919541B09193
:10037000964121E00297A105B10509F020E0222372
:1003800019F081E08093894180919341909194414B
:10039000A0919541B091964121E00597A105B10545
:1003A00009F020E0222319F081E08093974180E456
:1003B00091E023E0FC01238300000F90DF91CF91B7
:1003C000FF91EF91BF91AF919F918F917F916F912D
:1003D0005F914F913F912F910F900BBE0F900FBEE9
:1003E0000F901F9018951F920F920FB60F92112425
:1003F0000BB60F922F933F934F935F936F937F931F
:100400008F939F93AF93BF93EF93FF93CF93DF931C
:10041000CDB7DEB72597CDBFDEBF80E096E0FC010B
:1004200085858B838B81882F90E081709927892B1C
:1004300009F483C080E096E0FC01808991898C8377
:100440009D838C819D8189839A838091FC419091C9
:10045000FD4121E0892B09F420E0222329F180913C
:10046000FF4191E0980F9093FF41882F90E0880F13
:10047000991F86539E4BFC018081918129813A818D
:10048000820F931F89839A838091FF41893111F4F0
:100490001092FF418091FC419091FD410197809322
:1004A000FC419093FD410FC09091FE4181E0992362
:1004B00009F480E0882339F08091FE4181508093D7
:1004C000FE4119821A8280910D4090910E4021E0E8
:1004D000059708F420E0222389F080910D40909147
:1004E0000E409C012450310989819A8102C0880FF5
:1004F000991F2A95E2F789839A8314C080910D4051
:1005000090910E40049799231CF49195819591093F
:100510009C0189819A8102C0969587952A95E2F778
:1005200089839A8389819A810E945C1C8C819D8138
:10053000BC0182E192E40E94AF3380E096E023E0C8
:10054000FC01258700002596CDBFDEBFDF91CF914E
:10055000FF91EF91BF91AF919F918F917F916F919B
:100560005F914F913F912F910F900BBE0F900FBE57
:100570000F901F9018951F920F920FB60F92112493
:100580000BB60F922F933F934F935F936F937F938D
:100590008F939F93AF93BF93EF93FF93CF93DF938B
:1005A000CDB7DEB72E97CDBFDEBF80E09BE0FC016C
:1005B00086818B838B81882F90E081709927892B8E
:1005C00009F491C31C821D8280910F408F5F80933C
:1005D0000F4020910F408BEA289F812D1124982FE6
:1005E00096959695892F880F890F880F922F981BC3
:1005F000992309F0D7C287E18E830E94C517982FEF
:100600008E8189238C830E9479170E94C517982FA9
:100610008E8189238D838C8182708F838C81817000
:1006200088878C81847089878C8180718A8781E03A
:100630009A85992309F080E080938641882331F0E0
:100640008CE390E080930640909307401092914194
:100650008F81882379F48885882361F060E086E0C3
:100660000E94250161E085E00E94250181E08093E0
:100670008F4129C08885882379F48F81882361F090
:1006800060E085E00E94250161E086E00E9425018E
:1006900081E08093904117C060E085E00E942501D1
:1006A00060E086E00E94250110928F4110929041F7
:1006B0008F81882329F48885882311F481E001C083
:1006C00080E0809391418985882321F481E08093A3
:1006D0008E4102C010928E419C818D81981709F441
:1006E000CCC09D818C8189278B8787E090E08093A7
:1006F0000B4090930C408CE390E0809306409093E5
:1007000007408B85082E000C990B82709927892B46
:10071000B1F18F818823A9F08EEB91E40E948D388E
:10072000882361F08091AA419091AB41019680931A
:10073000AA419093AB411092064221C01092104002
:100740001EC088EE93E08093FC419093FD418EEBB8
:1007500091E40E948D38982F81E08927882329F021
:100760008EEB91E40E94073907C010929E411092CF
:100770009F4181E08093064281E0809310408B8509
:10078000082E000C990B81709927892BB1F188856F
:100790008823A9F08EEB91E40E948D38882361F0C4
:1007A0008091AC419091AD4101968093AC41909382
:1007B000AD411092074221C0109211401EC088EE38
:1007C00093E08093FC419093FD418EEB91E40E9475
:1007D0008D38982F81E08927882329F08EEB91E4CA
:1007E0000E94073907C01092A0411092A14181E0F8
:1007F0008093074281E0809311408B85082E000C86
:10080000990B84709927892B09F4C4C089858823A2
:10081000A9F08EEB91E40E948D38882361F08091DD
:10082000AE419091AF4101968093AE419093AF411C
:1008300010920842AFC010921240ACC088EE93E014
:100840008093FC419093FD418EEB91E40E948D38A2
:10085000982F81E08927882329F08EEB91E40E946C
:10086000073907C01092A2411092A34181E0809302
:10087000084281E0809312408DC08F81882361F50A
:100880009091B04181E08927882331F08091104018
:10089000882311F081E001C080E08823E9F0809195
:1008A0009E4190919F41019680939E4190939F41DC
:1008B00021E0883C910508F420E0222369F081E0E2
:1008C0008093B04110929E4110929F411092AA4194
:1008D0001092AB41109210408885882361F5909169
:1008E000B14181E08927882331F08091114088232C
:1008F00011F081E001C080E08823E9F08091A041FF
:100900009091A14101968093A0419093A14121E053
:10091000883C910508F420E0222369F081E080936F
:10092000B1411092A0411092A1411092AC4110929D
:10093000AD41109211408985882361F59091B241B3
:1009400081E08927882331F080911240882311F0BB
:1009500081E001C080E08823E9F08091A24190917C
:10096000A34101968093A2419093A34121E0883C4A
:10097000910508F420E0222369F081E08093B241E0
:100980001092A2411092A3411092AE411092AF4139
:10099000109212408091004290910142892B71F196
:1009A0008091004290910142019780930042909380
:1009B00001428091004290910142892B09F042C08E
:1009C0008091AA419091AB41892B41F08091AA413D
:1009D0009091AB41039710F481E001C080E088233F
:1009E00041F08091AA419091AB418093A4419093B2
:1009F000A5411092AA411092AB4124C08091AA4116
:100A00009091AB41019731F480910642882311F017
:100A100081E001C080E0882339F082E390E0809398
:100A20000042909301420EC08091AA419091AB4147
:100A300021E0039708F420E0222321F01092AA413C
:100A40001092AB418091024290910342892B71F147
:100A500080910242909103420197809302429093C9
:100A600003428091024290910342892B09F042C0D7
:100A70008091AC419091AD41892B41F08091AC4186
:100A80009091AD41039710F481E001C080E088238C
:100A900041F08091AC419091AD418093A6419093FB
:100AA000A7411092AC411092AD4124C08091AC415D
:100AB0009091AD41019731F480910742882311F064
:100AC00081E001C080E0882339F082E390E08093E8
:100AD0000242909303420EC08091AC419091AD418F
:100AE00021E0039708F420E0222321F01092AC418A
:100AF0001092AD418091044290910542892B71F191
:100B00008091044290910542019780930442909312
:100B100005428091044290910542892B09F042C020
:100B20008091AE419091AF41892B41F08091AE41CF
:100B30009091AF41049710F481E001C080E08823D8
:100B400041F08091AE419091AF418093A841909344
:100B5000A9411092AE411092AF4124C08091AE41A4
:100B60009091AF41019731F480910842882311F0B0
:100B700081E001C080E0882339F082E390E0809337
:100B80000442909305420EC08091AE419091AF41D6
:100B900021E0039708F420E0222321F01092AE41D7
:100BA0001092AF4180918C4190918D4121E0892B31
:100BB00009F420E0222309F496C080918C419091A1
:100BC0008D41892F881F8827881F8C8780918C41B1
:100BD00090918D4199231CF4919581959109898378
:100BE0009A832091094230910A4280918C419091E0
:100BF0008D4141E02817390709F040E0442311F105
:100C000080910B4290910C42892B49F080910B42CC
:100C100090910C42019780930B4290930C428091EB
:100C20000B4290910C42892B09F04EC089819A8128
:100C300002972CF084E090E089839A8345C0198262
:100C40001A8242C089819A81959587959595879555
:100C50008D879E878C85882379F020918A413091F9
:100C60008B418D859E85A901481B590BCA01809334
:100C70008A4190938B410CC020918A4130918B41E5
:100C80008D859E85820F931F80938A4190938B411F
:100C90008D859E85880F991F880F991F29813A811C
:100CA000F901E81BF90BCF0189839A838BE490E06B
:100CB00080930B4290930C4280918C4190918D4196
:100CC0008093094290930A428C85882331F0898170
:100CD0009A8191958195910902C089819A81809329
:100CE0008C4190938D4180E09BE023E0FC012683C2
:100CF00000002E96CDBFDEBFDF91CF91FF91EF9127
:100D0000BF91AF919F918F917F916F915F914F9123
:100D10003F912F910F900BBE0F900FBE0F901F9021
:100D200018951F920F920FB60F9211240BB60F92C7
:100D30002F938F939F93EF93FF93CF93DF931F9204
:100D4000CDB7DEB780E090E0FC018381898380E04D
:100D500090E02FEFFC01238300000F90DF91CF91F3
:100D6000FF91EF919F918F912F910F900BBE0F905C
:100D70000FBE0F901F9018951F920F920FB60F92F3
:100D800011240BB60F922F938F939F93AF93BF9322
:100D9000EF93FF93CF93DF9300D01F92CDB7DEB7D1
:100DA00084E190E0FC0183818983809189418823DB
:100DB00009F45BC08981882F90E088719927892B7D
:100DC00009F453C080EA94E0FC018085882F90E00C
:100DD00095958795959587959595879583708A8341
:100DE00080910D42882F90E0880F991F880F991FDE
:100DF000982F8A81892B8B838B81882F90E0092EF5
:100E0000000CAA0BBB0B0197A109B1098E3091050B
:100E1000A105B10538F5805F984FFC010C94484E50
:100E20001E07280732072807320732071E071E074A
:100E3000320732072807320728071E0780918C41A6
:100E400090918D41019680938C4190938D410AC081
:100E500080918C4190918D41019780938C4190932A
:100E60008D4100008A8180930D4280EA94E028E160
:100E7000FC01218700002396CDBFDEBFDF91CF911B
:100E8000FF91EF91BF91AF919F918F912F910F9013
:100E90000BBE0F900FBE0F901F901895CF93DF934E
:100EA000CDB7DEB760E083E00E9425010000DF914E
:100EB000CF910895CF93DF93CDB7DEB761E083E0A4
:100EC0000E9425010000DF91CF9108950F931F9399
:100ED000CF93DF931F92CDB7DEB719828981893115
:100EE00008F051C08981882F90E0092E000CAA0BD0
:100EF000BB0BBC01CD010E94F84BDC01CB012BEDFB
:100F00003FE049EC50E4BC01CD010E94524DDC01B0
:100F1000CB0120E030E048EC51E4BC01CD010E945F
:100F20004E4BDC01CB01BC01CD010E94BF4DDC0169
:100F3000CB0120E030E040E751E4BC01CD010E944C
:100F4000524DDC01CB0120E030E040E751E4BC0130
:100F5000CD010E94D84ADC01CB012981022F10E08B
:100F6000BC01CD010E94C74BDC01CB019C01C80133
:100F7000880F991F86539E4BFC0120833183898102
:100F80008F5F8983ABCF00000F90DF91CF911F91CE
:100F90000F910895CF93DF93CDB7DEB789EC91E43D
:100FA0000E94A1260E944E0760E087E00E94250172
:100FB000FFCFCF93DF93CDB7DEB7C655D109CDBFF5
:100FC000DEBF0E94660719821A821B821C821D8264
:100FD0001E821F82188619861A861B861C868FEF32
:100FE0008D871E861F86188A198A1A8A1B8A81E0B5
:100FF0008C8B1E8A0E941B010E94194680788D8B63
:1010000068EE73E080E090E00E94F047882329F0CA
:101010008D89882311F081E001C080E0882329F0C8
:101020000E94194680788D8BEBCF89EC91E40E9469
:10103000BA2E89EC91E40E94B627809130409091BD
:101040003140A0913240B0913340BC01CD010E94AB
:1010500085498DA39EA38DA19EA1892B49F08091E6
:101060008741909188418260809387419093884125
:1010700080912A4090912B400E94343D60E873E4B7
:101080008DE698E30E94E00080E090E00E94EC0092
:10109000DC01CB018FA398A7A9A7BAA760ED77E0E1
:1010A00080E090E00E94F047882389F080E090E0A3
:1010B0000E94EC009B01AC018FA198A5A9A5BAA53F
:1010C00082179307A407B50711F481E001C080E0FF
:1010D000882309F0E3CF80E090E00E94EC009B01C0
:1010E000AC0161E08FA198A5A9A5BAA582179307C5
:1010F000A407B50709F060E0662359F080918741A5
:1011000090918841816080938741909388410E94AB
:10111000903C62E070E083EB91E40E94D21C8091ED
:1011200087419091884121E0892B09F420E0222316
:1011300091F141E069E070E08EEB91E40E94663944
:1011400064E470E48FEB91E40E943E1B8091874140
:10115000909188418270992721E0892B09F420E041
:10116000222331F06DE470E48FEB91E40E943E1B8A
:1011700080918741909188418170992721E0892B46
:1011800009F420E02223B1F166E570E48FEB91E4ED
:101190000E943E1B2FC060E070E08EEB91E40E9445
:1011A0004D396FE570E48FEB91E40E943E1B68E6D9
:1011B00070E48FEB91E40E943E1B83E790E4892F5B
:1011C0008F9383E790E48F9388E790E4892F8F9340
:1011D00088E790E48F938EE191E4892F8F938EE1DD
:1011E00091E48F930E94D04F0F900F900F900F902B
:1011F0000F900F906EE171E48FEB91E40E943E1B23
:1012000080E096E022E0FC01208780E00E948113CC
:101210000E94661280919741882309F446C28C8906
:101220008823A9F01C8A83EB91E40E94E11D1986B2
:101230001A861B861C868FEF8D878FEF90E08E8736
:101240009F878FEF8C83188A198A1A8A1B8A898153
:101250009A81009721F0019709F44DC120C2809135
:101260002F4290913042892B09F050C0809130403C
:1012700090913140A0913240B091334061E0298596
:101280003A854B855C85281739074A075B0709F4BF
:1012900060E0662309F485C0809130409091314030
:1012A000A0913240B091334089879A87AB87BC8741
:1012B00089859A85AB85BC859E01235C3F4FAC0137
:1012C000BD01C9010E944D4ACE01CD96292F2F9311
:1012D0008F9381E890E4892F8F9381E890E48F9336
:1012E0008EE191E4892F8F938EE191E48F930E9498
:1012F000D04F0F900F900F900F900F900F906EE1C6
:1013000071E48FEB91E40E943E1B4BC09C818B816A
:10131000981709F446C08B818C838091304090915E
:101320003140A0913240B091334089879A87AB8792
:10133000BC8789859A85AB85BC859E01235C3F4F20
:10134000AC01BD01C9010E944D4A8C81882F90E0FB
:1013500001969E01235C3F4F432F4F932F93292FDC
:101360002F938F9386E890E4892F8F9386E890E4FB
:101370008F931F928DE08F938EE191E4892F8F934D
:101380008EE191E48F930E94994F4DB75EB7465F0F
:101390005F4FCDBFDEBF6EE171E48FEB91E40E9441
:1013A0003E1B809108409D85981761F1809108400F
:1013B0008D8780910840882F90E024E630E0F90185
:1013C000E81BF90BCF01292F2F938F9381E990E42C
:1013D000892F8F9381E990E48F938EE191E4892F97
:1013E0008F938EE191E48F930E94D04F0F900F90D6
:1013F0000F900F900F900F906EE171E48FEB91E4DE
:101400000E943E1B80910D4090910E4041E02E8540
:101410003F852817390709F440E0442331F18091D2
:101420000D4090910E408E879F878F858F938E857C
:101430008F938BE990E4892F8F938BE990E48F93BE
:101440008EE191E4892F8F938EE191E48F930E9436
:10145000D04F0F900F900F900F900F900F906EE164
:1014600071E48FEB91E40E943E1B80919A41909130
:101470009B41A0919C41B0919D41288939894A891D
:101480005B89281739074A075B0709F40BC180916C
:101490009A4190919B41A0919C41B0919D41888B34
:1014A000998BAA8BBB8B8B898F938A898F93898920
:1014B0008F9388898F9384EA90E4892F8F9384EAAD
:1014C00090E48F931F9287E08F938EE191E4892FB0
:1014D0008F938EE191E48F930E94994F4DB75EB741
:1014E000465F5F4FCDBFDEBF6EE171E48FEB91E4ED
:1014F0000E943E1BD7C08B81882F90E0880F991FD8
:10150000880F991F8E519D4BFC0180819181A28192
:10151000B3818F8B988FA98FBA8F8F89988DA98D62
:10152000BA8D81309940AD43B10548F48F89988DCB
:10153000A98DBA8D803E9746A543B10590F48B8165
:10154000882F90E0880F991F880F991F8E519D4B0F
:10155000FC0110821182128213821F8A188E198E4A
:101560001A8E9C818B81981771F42D813E814F8159
:1015700058858F89988DA98DBA8D281739074A0704
:101580005B0709F491C08B818C838F89988DA98D1D
:10159000BA8D8D839E83AF83B8878C81882F90E02E
:1015A0000196292F2F938F938BEA90E4892F8F93A5
:1015B0008BEA90E48F931F928DE08F938EE191E4FC
:1015C000892F8F938EE191E48F930E94994F4DB7AD
:1015D0005EB7485F5F4FCDBFDEBF6EE171E48FEB5A
:1015E00091E40E943E1B8C81882F90E0880F991F08
:1015F000880F991F8E519D4BFC0180819181A281A2
:10160000B3818F8B988FA98FBA8F8F89988DA98D71
:10161000BA8D892B8A2B8B2B91F18F89988DA98D6F
:10162000BA8D9E01285B3F4FAC01BD01C9010E94EC
:101630004D4ACE01885B9F4F292F2F938F9389EBC3
:1016400090E4892F8F9389EB90E48F931F928DE024
:101650008F938EE191E4892F8F938EE191E48F93A4
:101660000E94994F4DB75EB7485F5F4FCDBFDEBF59
:101670006EE171E48FEB91E40E943E1B15C08DE09A
:10168000E2ECF0E4AEE1B1E401900D928A95E1F76D
:101690006EE171E48FEB91E40E943E1B05C019825C
:1016A0001A8203C0000001C000008FEB91E40E9489
:1016B0001B1A21E0892B09F420E0222309F44BC0F6
:1016C000CE018D5A9F4FAC016EE171E48FEB91E436
:1016D0000E94A11BCE018D5A9F4FFC0180819181F8
:1016E0000397C8F180911E418BA780911F418CA761
:1016F0008BA580538DA78CA580538EA74EA56DA575
:1017000083EB91E40E94F31DCE018D5A9F4FFC01A3
:10171000808191819C0122503109CE018D5A9F4FC9
:10172000FC0120833183CE018D5A9F4FFC018081C3
:101730009181AC0160E271E483EB91E40E948F1E21
:10174000CE018D5A9F4FAC016EE171E48FEB91E4B5
:101750000E94A11BBFCF809106409091074021E0DD
:10176000892B09F020E0222311F00E94CA07809102
:10177000A4419091A54121E0892B09F420E0222386
:1017800091F08091A4419091A54121E0019709F049
:1017900020E0222321F48091A4419091A541109250
:1017A000A4411092A54180919E4190919F418091CA
:1017B000B041882311F01092B0418091A6419091E0
:1017C000A74121E0892B09F420E0222391F08091A8
:1017D000A6419091A74121E0019709F020E0222342
:1017E00021F48091A6419091A7411092A6411092B8
:1017F000A7418091A0419091A1418091B14188235E
:1018000011F01092B1418091A8419091A94121E03D
:10181000892B09F420E0222309F465C08091A841B6
:101820009091A94121E0019709F020E0222309F0DD
:1018300056C08091A8419091A94121E0029709F0FA
:1018400020E0222309F04BC08091A8419091A9414A
:1018500021E0039709F020E0222309F440C08091A1
:101860002F4290913042892B41F461E08B810E949C
:10187000A7118F3F11F081E001C080E0882349F17A
:1018800081E090E080932F42909330428B81882FAB
:1018900090E0880F991F880F991F8E519D4BFC0176
:1018A00080819181A281B3818093304090933140B7
:1018B000A0933240B09333408091304090913140BA
:1018C000A0913240B0913340BC01CD010E94D44080
:1018D00004C010922F421092304281E08C8B109203
:1018E000A8411092A9418091A2419091A341809179
:1018F000B241882309F4A0C01092B2419E8981E0D0
:101900008927882309F498C089EC91E40E94A126D4
:1019100089819A81892B09F063C081E090E08983F5
:101920009A836AE070E08EEB91E40E944D391B824D
:101930008B81882F90E0880F991F880F991F8E51F7
:101940009D4BFC0180819181A281B3818B8F9C8F03
:10195000AD8FBE8F8B8D9C8DAD8DBE8D81309940AE
:10196000AD43B10548F48B8D9C8DAD8DBE8D803E11
:101970009746A543B10590F48B81882F90E0880F9E
:10198000991F880F991F8E519D4BFC011082118267
:10199000128213821B8E1C8E1D8E1E8E8B8D9C8D33
:1019A000AD8DBE8D892B8A2B8B2B09F443C08B8D7B
:1019B0009C8DAD8DBE8D8093304090933140A0932F
:1019C0003240B09333408091304090913140A091AB
:1019D0003240B0913340BC01CD010E94D4402AC0B6
:1019E0008B81882F90E0880F991F880F991F8E5147
:1019F0009D4BFC0180819181A281B3818093304015
:101A000090933140A0933240B09333408091304066
:101A100090913140A0913240B0913340BC01CD0152
:101A20000E94D44019821A8260E070E08EEB91E44B
:101A30000E944D3981E08C8B80918241909183414D
:101A400021E0892B09F420E0222321F01092824129
:101A500010928341809184419091854121E0892BAE
:101A600009F420E0222321F0109284411092854154
:101A700090918E4181E08927882309F01E8A809108
:101A80008A4190918B4121E0892B09F420E02223A7
:101A900009F448C2809108408FA78CE390E08093BE
:101AA00006409093074080918E418E8B80918A41B1
:101AB00090918B41892F881F8827881F882309F4DC
:101AC00018C189819A81009721F0019709F48AC091
:101AD00006C180918E418823D1F080910D40909174
:101AE0000E4021E00A9708F020E0222309F467C0A5
:101AF00080910D4090910E40019680930D409093FF
:101B00000E408091FE418F5F8093FE4158C08091CE
:101B10009141882309F443C080912F429091304233
:101B2000892BA9F48091304090913140A0913240AE
:101B3000B09133408C599F4FAF4FBF4F809330408F
:101B400090933140A0933240B09333401BC061E08A
:101B50008B810E94A7118B838B81882F90E0880F47
:101B6000991F880F991F8E519D4BFC018081918197
:101B7000A281B3818093304090933140A093324052
:101B8000B09333408091304090913140A0913240E9
:101B9000B0913340BC01CD010E94D44010C08FA54C
:101BA000882369F08FA581508FA78FA5882F90E09B
:101BB0000E941B478091FE418F5F8093FE4180E031
:101BC00090E00E945543DC01CB018093304090931C
:101BD0003140A0933240B09333400E947B478093C2
:101BE00008407DC080918E41882359F1809130401A
:101BF00090913140A0913240B09133408C599F4F29
:101C0000AF4FBF4F8093304090933140A09332400C
:101C1000B09333408B81282F30E0809130409091F9
:101C20003140A0913240B0913340220F331F220F38
:101C3000331F2E513D4BF90180839183A283B383DF
:101C400041C08B818F5F8B838B81843108F01B8235
:101C50008B81882F90E0880F991F880F991F8E51D4
:101C60009D4BFC0180819181A281B3818CAB9DABA6
:101C7000AEABBFAB8CA99DA9AEA9BFA981159940F8
:101C8000AD43B105F8F48CA99DA9AEA9BFA9813EC9
:101C90009746A543B105B0F08B81882F90E0880F5F
:101CA000991F880F991F8E519D4BFC018081918156
:101CB000A281B3818093304090933140A093324011
:101CC000B09333408091304090913140A0913240A8
:101CD000B0913340BC01CD010E94D44000008091FE
:101CE0008A4190918B41019680938A4190938B41D8
:101CF00019C189819A81009721F0019709F48AC05E
:101D000008C180918E418823D1F080910D4090913F
:101D10000E4021E0029708F420E0222309F467C076
:101D200080910D4090910E40019780930D409093CB
:101D30000E408091FE418F5F8093FE4158C080919C
:101D40009141882309F443C080912F429091304201
:101D5000892BA9F48091304090913140A09132407C
:101D6000B091334084569109A109B1098093304064
:101D700090933140A0933240B09333401BC060E059
:101D80008B810E94A7118B838B81882F90E0880F15
:101D9000991F880F991F8E519D4BFC018081918165
:101DA000A281B3818093304090933140A093324020
:101DB000B09333408091304090913140A0913240B7
:101DC000B0913340BC01CD010E94D44010C08FA51A
:101DD000843668F48FA58F5F8FA78FA5882F90E03A
:101DE0000E941B478091FE418F5F8093FE4180E0FF
:101DF00090E00E945543DC01CB01809330409093EA
:101E00003140A0933240B09333400E947B4780938F
:101E100008407FC080918E41882359F180913040E5
:101E200090913140A0913240B09133408456910955
:101E3000A109B1098093304090933140A093324082
:101E4000B09333408B81282F30E0809130409091C7
:101E50003140A0913240B0913340220F331F220F06
:101E6000331F2E513D4BF90180839183A283B383AD
:101E700043C08B81882319F483E18B8303C08B815A
:101E800081508B838B81882F90E0880F991F880F5A
:101E9000991F8E519D4BFC0180819181A281B3815C
:101EA00088AB99ABAAABBBAB88A999A9AAA9BBA9D6
:101EB00081159940AD43B105F8F488A999A9AAA95B
:101EC000BBA9813E9746A543B105B0F08B81882F11
:101ED00090E0880F991F880F991F8E519D4BFC0130
:101EE00080819181A281B381809330409093314071
:101EF000A0933240B0933340809130409091314074
:101F0000A0913240B0913340BC01CD010E94D44039
:101F1000000080918A4190918B41019780938A4182
:101F200090938B4182E192E40E94F833882309F474
:101F3000BCC1CE018B5A9F4FFC011082118280E000
:101F400090E8ABE1B4E4AC01BD0182E192E40E940F
:101F50005332CE018B5A9F4FBC0182E192E40E9422
:101F60000634DC01CB0188AF99AFAAAFBBAFCE017D
:101F70008B5A9F4FFC018081918121E0C3970CF423
:101F800020E02CAF9CAD81E08927882309F48DC126
:101F900080911340882309F443C0809113408150FD
:101FA0008093134080910E4290910F42A091104275
:101FB000B09111429C01AD0168AD79AD8AAD9BAD88
:101FC0000E94F54C181664F488AD99ADAAADBBAD6E
:101FD00080930E4290930F42A0931042B09311420F
:101FE0008091144090911540A0911640B0911740F7
:101FF0009C01AD0168AD79AD8AAD9BAD0E94444BAB
:1020000088230CF052C188AD99ADAAADBBAD8093C9
:10201000144090931540A0931640B093174045C1CB
:102020001BA21CA280910E4290910F42A0911042DF
:10203000B09111429C01AD0168AD79AD8AAD9BAD07
:102040000E94F54C181684F580910E4290910F4233
:10205000A0911042B091114220E030E040EA50E4FB
:10206000BC01CD010E94524DDC01CB0128AD39AD40
:102070004AAD5BADBC01CD010E94D84ADC01CB0169
:1020800020E030E040EC50E4BC01CD010E944E4B1A
:10209000DC01CB0180930E4290930F42A09310423B
:1020A000B093114281E08BA3809114409091154030
:1020B000A0911640B09117409C01AD0168AD79AD7B
:1020C0008AAD9BAD0E94444B882384F580911440D7
:1020D00090911540A0911640B091174020E030E05B
:1020E00040EA50E4BC01CD010E94524DDC01CB011D
:1020F00028AD39AD4AAD5BADBC01CD010E94D84AD7
:10210000DC01CB0120E030E040EC50E4BC01CD012B
:102110000E944E4BDC01CB018093144090931540FC
:10212000A0931640B093174081E08CA39BA181E05F
:102130008927882309F463C09CA181E0892788232B
:1021400009F45DC080910E4290910F42A09110421F
:10215000B091114220E030E048E452E4BC01CD01EE
:102160000E94524DDC01CB0128AD39AD4AAD5BADCB
:10217000BC01CD010E94D84ADC01CB0120E030E057
:102180004CE452E4BC01CD010E944E4BDC01CB017A
:1021900080930E4290930F42A0931042B09311424D
:1021A0008091144090911540A0911640B091174035
:1021B00020E030E048E452E4BC01CD010E94524DE1
:1021C000DC01CB0128AD39AD4AAD5BADBC01CD0121
:1021D0000E94D84ADC01CB0120E030E04CE452E41C
:1021E000BC01CD010E944E4BDC01CB018093144019
:1021F00090931540A0931640B093174024C080914F
:102200000E4290910F42A0911042B0911142209144
:102210001440309115404091164050911740BC0138
:10222000CD010E94D84ADC01CB0120E030E040E043
:1022300050E4BC01CD010E944E4BDC01CB018F8FDD
:1022400098A3A9A3BAA32F8D38A149A15AA168AD1B
:1022500079AD8AAD9BAD0E94F54C181634F580918E
:102260000E4290910F42A0911042B0911142BC01D8
:10227000CD010E94FA4CDC01CB0120E030E040E2CD
:1022800051E4BC01CD010E94524DDC01CB01BC01E7
:10229000CD010E94C74BDC01CB0180939A41909302
:1022A0009B41A0939C41B0939D418091984188238C
:1022B00011F40C940A098EEB91E40E94B2380E944A
:1022C0004E070E94122082E090E00E943E4681E08C
:1022D000809399411092094010920A408091984150
:1022E000882309F180E590E0FC018081897F282F17
:1022F000226080E590E0FC012083F89480E590E086
:10230000FC01208180E590E02160FC01208378942D
:10231000889580E590E0FC01208180E590E02E7FAB
:10232000FC012083DBCF109299410E941B010E9487
:102330005A070E94A3498091094090910A408DEE6E
:1023400090E080938441909385410C940A09CF9347
:10235000DF93CDB7DEB72597CDBFDEBF8C836D830E
:102360008C818B831A8219828D81882321F1898146
:10237000882309F044C08A81843108F040C08B81F1
:102380008F5F8B838B81843108F01B828B81882F38
:1023900090E0880F991F880F991F8E519D4BFC016B
:1023A00080819181A281B381892B8A2B8B2BF9F2B9
:1023B00081E08983DCCF8981882309F58A81843192
:1023C000F0F48B81882321F08B8181508B8302C0B4
:1023D00083E18B838B81882F90E0880F991F880F72
:1023E000991F8E519D4BFC0180819181A281B38107
:1023F000892B8A2B8B2BF9F281E08983DCCF9981A1
:1024000081E08927882311F08FEF8B838B812596BC
:10241000CDBFDEBFDF91CF910895CF93DF9300D082
:1024200000D0CDB7DEB789839A836B837C838981A3
:102430009A810197B1F48B819C81019691F483EB91
:1024400091E40E94B91C8EEB91E40E94F23664E69E
:1024500070E08FEB91E40E947F1989EC91E40E9477
:102460002E2089819A81892B81F48B819C81019610
:1024700061F489EC91E40E943B208FEB91E40E948F
:10248000B3198EEB91E40E94FF3600002496CDBF75
:10249000DEBFDF91CF910895CF93DF93CDB7DEB745
:1024A0006FEF7FEF81E090E00E940D12DF91CF91FE
:1024B0000895CF93DF93CDB7DEB76FEF7FEF80E066
:1024C00090E00E940D12DF91CF910895CF93DF939A
:1024D000CDB7DEB78091134290911442892B29F039
:1024E00080E096E021E0FC0122870000DF91CF919F
:1024F0000895CF93DF93CDB7DEB780E694E0FC017B
:10250000208980E694E0287FFC01208B80E694E01F
:10251000FC01208980E694E02460FC01208B80E6A9
:1025200094E0FC01218980E694E0287FFC01218B66
:1025300080E694E0FC01218980E694E02460FC01BF
:10254000218B80E694E0FC01228980E694E0287FDC
:10255000FC01228B80E694E0FC01228980E694E075
:102560002460FC01228B80E694E0FC01238980E654
:1025700094E0287FFC01238B80E694E0FC01238912
:1025800080E694E02460FC01238B80E694E0FC016B
:10259000248980E694E0287FFC01248B80E694E087
:1025A000FC01248980E694E02460FC01248B80E611
:1025B00094E0FC01258980E694E0287FFC01258BCE
:1025C00080E694E0FC01258980E694E02460FC012B
:1025D000258B80E694E0FC01278980E694E0287F43
:1025E000FC01278B80E694E0FC01278980E694E0DB
:1025F0002460FC01278B80E694E0FC01208980E6C2
:1026000094E0277FFC01208B80E694E0FC01218987
:1026100080E694E0277FFC01218B80E694E0FC01BA
:10262000228980E694E0277FFC01228B80E694E0FB
:10263000FC01238980E694E0277FFC01238B80E660
:1026400094E0FC01248980E694E0277FFC01248B40
:1026500080E694E0FC01258980E694E0277FFC0178
:10266000258B80E694E0FC01278980E694E0277FB3
:10267000FC01278B0000DF91CF910895CF93DF936A
:102680001F92CDB7DEB7898389818823D9F080EA8C
:1026900090E021E8FC01208380E096E02CE0FC0142
:1026A000228380E096E023E0FC01208380E096E036
:1026B00021E0FC01248781E090E080931342909315
:1026C00014421AC080EA90E021E8FC01208380E0F7
:1026D00096E02CE0FC01228380E096E027E0FC01FC
:1026E000208380E096E021E0FC01248781E090E0F7
:1026F000809313429093144200000F90DF91CF918A
:102700000895CF93DF931F92CDB7DEB789830E94E0
:10271000791289810E943E1300000F90DF91CF91C2
:1027200008950F931F93CF93DF9300D000D0CDB7C0
:10273000DEB789839A836B837C8389819A81019731
:1027400081F48B819C81019661F400E014E029E51D
:1027500036E440E050E06AEC72E482E192E40E94E8
:10276000A83189819A81892B41F48B819C810196C2
:1027700021F482E192E40E94403200002496CDBF11
:10278000DEBFDF91CF911F910F910895CF93DF931B
:10279000CDB7DEB76FEF7FEF81E090E00E9491133D
:1027A000DF91CF910895CF93DF93CDB7DEB76FEF71
:1027B0007FEF80E090E00E949113DF91CF91089528
:1027C000CF93DF93CDB7DEB72597CDBFDEBF8B8329
:1027D0006C837D838B81882F90E0805F9B4F898302
:1027E0009A838C819D81019759F489819A81FC019A
:1027F0008081282F286089819A81FC0120830EC066
:102800008C819D81892B51F489819A81FC01808181
:10281000282F277F89819A81FC012083000025963B
:10282000CDBFDEBFDF91CF910895CF93DF9300D06E
:102830001F92CDB7DEB789836A837B838A819B81B0
:1028400081309105E9F08230910581F1892B09F001
:102850003DC080E090E0FC018081482F8981282FD5
:1028600030E081E090E002C0880F991F2A95E2F7DE
:102870008095242F282380E090E0FC01208326C04F
:1028800080E090E0FC018081482F8981282F30E092
:1028900081E090E002C0880F991F2A95E2F7242F6B
:1028A000282B80E090E0FC01208310C08981882FD4
:1028B00090E0805F9B4FFC0120818981882F90E010
:1028C000805F9B4F2860FC0120830000000023965E
:1028D000CDBFDEBFDF91CF910895CF93DF9300D0BE
:1028E000CDB7DEB789836A838A818823B1F080E01F
:1028F00090E0FC018181482F8981282F30E081E020
:1029000090E002C0880F991F2A95E2F7242F282B08
:1029100080E090E0FC01218316C080E090E0FC01A3
:102920008181482F8981282F30E081E090E002C02A
:10293000880F991F2A95E2F78095242F282380E09D
:1029400090E0FC01218300000F900F90DF91CF9168
:102950000895CF93DF93CDB7DEB780E090E0FC0120
:102960008281DF91CF910895CF93DF9300D01F92A2
:10297000CDB7DEB789836A837B838A819B8181306F
:102980009105E9F08230910581F1892B09F03DC074
:1029900084E090E0FC018081482F8981282F30E07D
:1029A00081E090E002C0880F991F2A95E2F7809598
:1029B000242F282384E090E0FC01208326C084E0BB
:1029C00090E0FC018081482F8981282F30E081E050
:1029D00090E002C0880F991F2A95E2F7242F282B38
:1029E00084E090E0FC01208310C08981882F90E072
:1029F000805D9B4FFC0120818981882F90E0805D64
:102A00009B4F2860FC012083000000002396CDBF6F
:102A1000DEBFDF91CF910895CF93DF9300D0CDB784
:102A2000DEB789836A838A818823B1F084E090E0ED
:102A3000FC018181482F8981282F30E081E090E0DE
:102A400002C0880F991F2A95E2F7242F282B84E0D3
:102A500090E0FC01218316C084E090E0FC018181BC
:102A6000482F8981282F30E081E090E002C0880F54
:102A7000991F2A95E2F78095242F282384E090E07F
:102A8000FC01218300000F900F90DF91CF910895FA
:102A9000CF93DF93CDB7DEB72597CDBFDEBF8B8356
:102AA0006C837D838B81882F90E0805B9B4F898333
:102AB0009A838C819D81019759F489819A81FC01C7
:102AC0008081282F286089819A81FC0120830EC093
:102AD0008C819D81892B51F489819A81FC018081AF
:102AE000282F277F89819A81FC0120830000259669
:102AF000CDBFDEBFDF91CF910895CF93DF9300D09C
:102B00001F92CDB7DEB789836A837B838A819B81DD
:102B100081309105E9F08230910581F1892B09F02E
:102B20003DC088E090E0FC018081482F8981282FFA
:102B300030E081E090E002C0880F991F2A95E2F70B
:102B40008095242F282388E090E0FC01208326C074
:102B500088E090E0FC018081482F8981282F30E0B7
:102B600081E090E002C0880F991F2A95E2F7242F98
:102B7000282B88E090E0FC01208310C08981882FF9
:102B800090E0805B9B4FFC0120818981882F90E041
:102B9000805B9B4F2860FC0120830000000023968F
:102BA000CDBFDEBFDF91CF910895CF93DF9300D0EB
:102BB000CDB7DEB789836A838A818823B1F088E044
:102BC00090E0FC018181482F8981282F30E081E04D
:102BD00090E002C0880F991F2A95E2F7242F282B36
:102BE00088E090E0FC01218316C088E090E0FC01C1
:102BF0008181482F8981282F30E081E090E002C058
:102C0000880F991F2A95E2F78095242F282388E0C2
:102C100090E0FC01218300000F900F90DF91CF9195
:102C20000895CF93DF9300D01F92CDB7DEB789838D
:102C30006A837B838A819B8181309105E9F08230B0
:102C4000910581F1892B09F03DC080E190E0FC0104
:102C50008081482F8981282F30E081E090E002C0F8
:102C6000880F991F2A95E2F78095242F282380E169
:102C700090E0FC01208326C080E190E0FC0180818F
:102C8000482F8981282F30E081E090E002C0880F32
:102C9000991F2A95E2F7242F282B80E190E0FC0170
:102CA000208310C08981882F90E080579B4FFC01C2
:102CB00020818981882F90E080579B4F2860FC01FC
:102CC0002083000000002396CDBFDEBFDF91CF91AF
:102CD0000895CF93DF9300D0CDB7DEB789836A83A1
:102CE0008A818823B1F080E190E0FC018181482F46
:102CF0008981282F30E081E090E002C0880F991F81
:102D00002A95E2F7242F282B80E190E0FC01218313
:102D100016C080E190E0FC018181482F8981282F35
:102D200030E081E090E002C0880F991F2A95E2F719
:102D30008095242F282380E190E0FC01218300006E
:102D40000F900F90DF91CF910895CF93DF93CDB780
:102D5000DEB72597CDBFDEBF8B836C837D838B81F0
:102D6000882F90E080559B4F89839A838C819D8129
:102D7000019759F489819A81FC018081282F28606C
:102D800089819A81FC0120830EC08C819D81892BD1
:102D900051F489819A81FC018081282F277F8981C4
:102DA0009A81FC01208300002596CDBFDEBFDF9114
:102DB000CF910895CF93DF9300D01F92CDB7DEB7A8
:102DC00089836A837B838A819B8181309105E9F0C5
:102DD0008230910581F1892B09F03DC084E190E0BA
:102DE000FC018081482F8981282F30E081E090E02C
:102DF00002C0880F991F2A95E2F78095242F282377
:102E000084E190E0FC01208326C084E190E0FC0195
:102E10008081482F8981282F30E081E090E002C036
:102E2000880F991F2A95E2F7242F282B84E190E040
:102E3000FC01208310C08981882F90E080559B4F32
:102E4000FC0120818981882F90E080559B4F28606C
:102E5000FC012083000000002396CDBFDEBFDF9180
:102E6000CF910895CF93DF9300D0CDB7DEB789839C
:102E70006A838A818823B1F084E190E0FC0181813A
:102E8000482F8981282F30E081E090E002C0880F30
:102E9000991F2A95E2F7242F282B84E190E0FC016A
:102EA000218316C084E190E0FC018181482F898153
:102EB000282F30E081E090E002C0880F991F2A950A
:102EC000E2F78095242F282384E190E0FC01218300
:102ED00000000F900F90DF91CF910895CF93DF9373
:102EE000CDB7DEB784E190E0FC018281DF91CF9124
:102EF0000895CF93DF93CDB7DEB7809119428093C9
:102F00001A42809118428093194280911642809310
:102F1000174280911542809316420E94A914809313
:102F200015420E946E17809318429091154280912D
:102F30001B4298272091164280911B42822798239A
:102F40002091174280911B428227982380911B4237
:102F5000892780931B429091184280911C429827A8
:102F60002091194280911C428227982320911A4275
:102F700080911C428227982380911C42892780934C
:102F80001C420000DF91CF910895CF93DF93CDB71E
:102F9000DEB780911B42DF91CF910895CF93DF93ED
:102FA000CDB7DEB760E070E080E00E94151461E00C
:102FB00070E080E00E94E01360E070E081E00E9439
:102FC000151461E070E081E00E94E01360E070E0C1
:102FD00082E00E94151461E070E082E00E94E0133C
:102FE00061E070E083E00E94151461E083E00E94DC
:102FF0006D1460E070E084E00E94151461E070E000
:1030000084E00E94E01361E070E085E00E94151406
:1030100060E085E00E946D1461E070E086E00E944F
:10302000151460E086E00E946D1461E070E087E0B6
:103030000E94151461E087E00E946D1461E070E069
:1030400084E00E94B41461E084E00E940C1560E00A
:1030500070E082E00E947D1561E070E082E00E94F5
:10306000481560E070E083E00E947D1561E070E04B
:1030700083E00E94481561E070E084E00E947D15C5
:1030800060E084E00E94D51561E070E085E00E9478
:103090007D1560E085E00E94D51560E070E080E07D
:1030A0000E94111660E070E081E00E94111661E05C
:1030B00070E082E00E94111660E082E00E946916D2
:1030C00060E070E083E00E94111662E070E080E052
:1030D0000E94DA1662E070E081E00E94DA1660E099
:1030E00070E082E00E94DA1661E070E082E00E9407
:1030F000A51660E070E083E00E94DA1660E070E000
:1031000084E00E94DA1660E070E085E00E94DA1642
:1031100061E070E085E00E94A51662E070E086E064
:103120000E94DA1680EA94E0FC01238980EA94E0A8
:103130002160FC01238B80EA94E0FC01248980EA71
:1031400094E02160FC01248B80EA94E028E1FC01FA
:1031500021870000DF91CF910895CF93DF93CDB702
:10316000DEB760E070E080E00E94151460E070E07F
:1031700080E00E94E01360E070E081E00E9415149E
:1031800060E070E081E00E94E01360E070E082E0C7
:103190000E94151460E070E082E00E94E01361E09C
:1031A00070E083E00E94151460E083E00E946D14DB
:1031B00060E070E084E00E94151460E070E084E05C
:1031C0000E94E01361E070E085E00E94151460E069
:1031D00085E00E946D1461E070E086E00E941514A5
:1031E00060E086E00E946D1461E070E087E00E947C
:1031F000151461E087E00E946D1461E070E084E0E6
:103200000E94B41460E084E00E940C1560E070E05D
:1032100082E00E947D1561E070E082E00E94481526
:1032200060E070E083E00E947D1561E070E083E083
:103230000E94481561E070E084E00E947D1560E026
:1032400084E00E94D51561E070E085E00E947D1564
:1032500060E085E00E94D51560E070E080E00E94AB
:10326000111660E070E081E00E94111661E070E0EC
:1032700082E00E94111660E082E00E94691660E020
:1032800070E083E00E94111662E070E080E00E942E
:10329000DA1662E070E081E00E94DA1661E070E028
:1032A00082E00E94DA1660E082E00E94321760E05D
:1032B00070E083E00E94DA1660E070E084E00E9433
:1032C000DA1661E070E085E00E94DA1660E085E0E1
:1032D0000E94321762E070E086E00E94DA16000079
:1032E000DF91CF910895CF93DF93CDB7DEB780E81C
:1032F00090E0FC01118680E0DF91CF910895CF939B
:10330000DF9300D000D0CDB7DEB789839A836B837B
:103310007C838B819C810E946B4E9C0189819A8168
:10332000FC012583368389819A812B813C81FC01B4
:103330002783308789819A81FC01108211828981DB
:103340009A81FC011282138289819A81FC01148284
:1033500089819A81FC01118600002496CDBFDEBFD1
:10336000DF91CF910895CF93DF9300D0CDB7DEB733
:1033700089839A8389819A81FC01858196810E9443
:10338000074F00000F900F90DF91CF910895CF93DA
:10339000DF9300D0CDB7DEB789839A8389819A8184
:1033A000FC012281338189819A81FC012083318350
:1033B00089819A81FC01148289819A81FC0111869C
:1033C00000000F900F90DF91CF910895CF93DF937E
:1033D00000D0CDB7DEB789839A8389819A81FC01B9
:1033E000948181E08927882379F089819A81FC0181
:1033F0002081318189819A81FC0182819381281702
:10340000390711F481E001C080E00F900F90DF9147
:10341000CF910895CF93DF9300D0CDB7DEB78983E6
:103420009A8389819A81FC01878190850F900F9002
:10343000DF91CF910895CF93DF9300D000D0CDB727
:10344000DEB78B839C838B819C81FC018781908577
:1034500089839A838B819C81FC01948181E08927F7
:10346000882399F18B819C81FC01208131818B81A2
:103470009C81FC0182819381281739078CF08B8114
:103480009C81FC01208131818B819C81FC018281A6
:103490009381A901481B590BCA0189839A8315C0DE
:1034A0008B819C81FC01878190852B813C81F90176
:1034B00020813181820F931F2B813C81F901228170
:1034C0003381821B930B89839A8389819A81249605
:1034D000CDBFDEBFDF91CF9108950F931F93CF93A0
:1034E000DF9300D000D0CDB7DEB78B839C831982E9
:1034F0001A828B819C81FC01948181E08927882339
:1035000079F08B819C810E940A1A8C018B819C81AD
:103510000E941B1A9801281B390BC90189839A83C1
:1035200089819A812496CDBFDEBFDF91CF911F9113
:103530000F910895CF93DF9300D01F92CDB7DEB7E0
:1035400089839A836B8389819A81FC018581968125
:1035500029813A81F90120813181820F931F2B81CA
:10356000FC01208389819A81FC0184818823B1F048
:1035700089819A81FC01828193810196AC018981C4
:103580009A81FC0127813085CA01B9010E94124E3F
:103590009C0189819A81FC012283338389819A81EC
:1035A000FC01808191810196AC0189819A81FC01A5
:1035B00027813085CA01B9010E94124E9C01898180
:1035C0009A81FC012083318389819A81FC012081C9
:1035D000318189819A81FC018281938141E02817A0
:1035E000390709F040E089819A81FC014483000099
:1035F0002396CDBFDEBFDF91CF910895CF93DF93A8
:1036000000D01F92CDB7DEB78A839B838A819B81CE
:103610000E94E619882311F080E02AC08A819B81EC
:10362000FC01858196812A813B81F90122813381C8
:10363000820F931FFC01808189838A819B81FC0119
:1036400014828A819B81FC01828193810196AC0165
:103650008A819B81FC0127813085CA01B9010E94C2
:10366000124E9C018A819B81FC01228333838981D4
:103670002396CDBFDEBFDF91CF910895CF93DF9327
:10368000CDB7DEB72897CDBFDEBF8D839E836F8316
:10369000788781E08C838D819E81FC0184818823E1
:1036A00011F08C8148C08F8198850E94904F8A8349
:1036B0009B838D819E810E946D1A9C0141E08A81CD
:1036C0009B812817390708F040E0442311F08C81D2
:1036D00032C019828981882F90E02A813B8182172C
:1036E0009307C0F48D819E81FC018481882391F42D
:1036F000898191E0980F9983882F90E02F813885F8
:10370000820F931FFC0120818D819E81622F0E9478
:103710009A1AE0CF8D819E81FC01948181E08927F6
:10372000882329F08D819E8160E00E949A1A8D8104
:103730009E81FC0184812896CDBFDEBFDF91CF91B1
:103740000895CF93DF93CDB7DEB72897CDBFDEBF07
:103750008B839C836D837E834F8358878B819C8171
:103760000E94E619882371F08D819E81FC011082F0
:103770008F819885892B79F18F819885FC01108242
:10378000118229C019828B819C810E94FE1A8A8332
:1037900081E09A81992309F480E0882371F089817E
:1037A00091E0980F9983882F90E02D813E81820FC0
:1037B000931F2A81FC012083E6CF8F819885892B76
:1037C00061F08981282F30E08F819885FC0120836A
:1037D0003183000002C0000001C000002896CDBF68
:1037E000DEBFDF91CF910895CF93DF9300D01F927A
:1037F000CDB7DEB789839A836B8389819A814B81A8
:1038000068ED0E94E43B00002396CDBFDEBFDF9150
:10381000CF910895CF93DF93CDB7DEB765E88CE7FE
:1038200090E00E94F41B65E288E690E00E94F41BA1
:1038300080E0DF91CF910895CF93DF93CDB7DEB7CE
:10384000789480E0DF91CF910895CF93DF93CDB747
:10385000DEB780EA90E021E8FC0122830000DF91DE
:10386000CF910895CF93DF93CDB7DEB70E94251C8B
:1038700080E694E0FC01268980E694E0287FFC0144
:10388000268B80E694E0FC01268980E694E02460A3
:10389000FC01268B80E694E0FC01268980E694E01A
:1038A000277FFC01268B80EA96E021E4FC0120833F
:1038B0000000DF91CF910895CF93DF9300D0CDB773
:1038C000DEB789839A83298180EA96E02295220FC8
:1038D000220F207CFC01228389819A819C013695EC
:1038E00027953695279580EA96E0FC012383000012
:1038F0000F900F90DF91CF910895CF93DF9300D079
:10390000CDB7DEB789836A838A818823B1F084E0EA
:1039100090E0FC018181482F8981282F30E081E0EF
:1039200090E002C0880F991F2A95E2F7242F282BD8
:1039300084E090E0FC01218316C084E090E0FC016B
:103940008181482F8981282F30E081E090E002C0FA
:10395000880F991F2A95E2F78095242F282384E069
:1039600090E0FC01218300000F900F90DF91CF9138
:103970000895CF93DF9300D0CDB7DEB789839A83C4
:1039800027E131E489819A81FC0120833183898197
:103990009A8128E7FC01268300000F900F90DF91A9
:1039A000CF910895CF93DF9300D000D0CDB7DEB78D
:1039B00089839A836B837C8389819A812B813C8163
:1039C000FC01228333838B819C818130910581F0BE
:1039D00082309105C1F0892B09F589819A8124E112
:1039E000FC01248389819A8124E0FC01258316C08F
:1039F00089819A8120E1FC01248389819A8124E0D4
:103A0000FC0125830BC089819A812AE0FC01248373
:103A100089819A8124E0FC012583000089819A81B3
:103A200020E8FC01218789819A8124E0FC0122871A
:103A30000E94D53489819A810E943D1D89819A8195
:103A40000E94641D89819A810E94E11D89819A8169
:103A500022E0FC01278389819A81FC018781282F3C
:103A6000246089819A81622F0E944B1E0000249657
:103A7000CDBFDEBFDF91CF910895CF93DF9300D00C
:103A8000CDB7DEB789839A8362E370E080E090E08F
:103A90000E94F04760E084E00E947D1C64E070E0DA
:103AA00080E090E00E94F04761E084E00E947D1C8D
:103AB00064E170E080E090E00E94F04700000F9029
:103AC0000F90DF91CF910895CF93DF9300D0CDB7C2
:103AD000DEB789839A8389819A816AE30E944B1EAB
:103AE00089819A8169E00E944B1E89819A8166E0F2
:103AF0000E944B1E89819A816EE10E944B1E898132
:103B00009A8169E30E944B1E89819A816BE10E9430
:103B10004B1E89819A81FC018281938181309105BC
:103B2000A9F08230910511F1892B81F589819A8163
:103B30006EE60E944B1E89819A8167E50E944B1EAA
:103B400089819A8162E70E944B1E20C089819A81F7
:103B50006CE60E944B1E89819A8166E50E944B1E8D
:103B600089819A816BE60E944B1E10C089819A81DF
:103B70006EE60E944B1E89819A8166E50E944B1E6B
:103B800089819A816AE70E944B1E000089819A818F
:103B900068E30E944B1E89819A8124E0FC01208702
:103BA00089819A81FC018085282F286089819A81EA
:103BB000622F0E944B1E00000F900F90DF91CF915B
:103BC0000895CF93DF9300D0CDB7DEB789839A8372
:103BD00089819A8161E00E944B1E00000F900F9036
:103BE000DF91CF910895CF93DF9300D000D0CDB770
:103BF000DEB789839A836B834C8389819A81FC0128
:103C00008185282F8B81982F9295990F907E8C819A
:103C1000890F822B282F89819A81622F0E944B1E47
:103C200000002496CDBFDEBFDF91CF910895CF93E2
:103C3000DF9300D01F92CDB7DEB789839A836B8361
:103C400089819A816B810E946D1E81E090E02396AC
:103C5000CDBFDEBFDF91CF910895CF93DF93CDB776
:103C6000DEB72697CDBFDEBF89839A836B837C83C3
:103C70004D835E834D815E812B813C8189819A8158
:103C8000B9010E948F1E8D819E812696CDBFDEBF19
:103C9000DF91CF910895CF93DF93CDB7DEB725970E
:103CA000CDBFDEBF8B839C836D838D8189838B81A8
:103CB0009C8121E0AE014F5F5F4F60E00E94B11E2A
:103CC000882319F080EE90E002C080E090E0259615
:103CD000CDBFDEBFDF91CF910895CF93DF93CDB7F6
:103CE000DEB72597CDBFDEBF8B839C836D838D812F
:103CF00089838B819C8121E0AE014F5F5F4F60E43F
:103D00000E94B11E882319F080EE90E002C080E08E
:103D100090E02596CDBFDEBFDF91CF910895CF9380
:103D2000DF93CDB7DEB72697CDBFDEBF89839A83F9
:103D30006B837C834D835E832D814B815C81898184
:103D40009A8160E40E94B11E882319F080EE90E011
:103D500002C080E090E02696CDBFDEBFDF91CF911C
:103D60000895CF93DF93CDB7DEB72897CDBFDEBFE1
:103D70008B839C836D834E835F83288785E0898353
:103D800089819FEF980F99838823C1F08B819C8153
:103D9000FC0136818E819F812885AC016D81832F46
:103DA0000E94A535282F81E09885921709F480E0BC
:103DB0008A838A81882311F081E001C080E0882312
:103DC00009F0DECF8A812896CDBFDEBFDF91CF918B
:103DD0000895CF93DF9300D01F92CDB7DEB78983CC
:103DE0006A837B838A819B8181309105E9F08230EF
:103DF000910581F1892B09F03DC088E090E0FC013C
:103E00008081482F8981282F30E081E090E002C036
:103E1000880F991F2A95E2F78095242F282388E0A0
:103E200090E0FC01208326C088E090E0FC018081C6
:103E3000482F8981282F30E081E090E002C0880F70
:103E4000991F2A95E2F7242F282B88E090E0FC01A7
:103E5000208310C08981882F90E0805B9B4FFC01FC
:103E600020818981882F90E0805B9B4F2860FC0136
:103E70002083000000002396CDBFDEBFDF91CF91ED
:103E80000895CF93DF9300D0CDB7DEB789836A83DF
:103E90008A818823B1F088E090E0FC018181482F7D
:103EA0008981282F30E081E090E002C0880F991FBF
:103EB0002A95E2F7242F282B88E090E0FC0121834B
:103EC00016C088E090E0FC018181482F8981282F6D
:103ED00030E081E090E002C0880F991F2A95E2F758
:103EE0008095242F282388E090E0FC0121830000A6
:103EF0000F900F90DF91CF910895CF93DF9300D073
:103F0000CDB7DEB789839A8389819A81BC0185E028
:103F10000E94E91E00000F900F90DF91CF9108954D
:103F2000CF93DF9300D0CDB7DEB789839A838981A1
:103F30009A81BC0184E00E94E91E00000F900F905E
:103F4000DF91CF910895CF93DF931F92CDB7DEB766
:103F50008983698185E00E94411F00000F90DF91F5
:103F6000CF910895CF93DF931F92CDB7DEB78983AA
:103F7000698184E00E94411F00000F90DF91CF9182
:103F80000895CF93DF9300D0CDB7DEB71982898132
:103F9000883098F48981882F90E0805F9B4FFC01E6
:103FA00020818981882F90E0805F9B4F2860FC01F1
:103FB000208389818F5F8983EACF1A828A81883042
:103FC00098F48A81882F90E0805D9B4FFC012081CE
:103FD0008A81882F90E0805D9B4F2860FC012083C0
:103FE0008A818F5F8A83EACF00000F900F90DF9164
:103FF000CF910895CF93DF93CDB7DEB70E94C11F55
:104000000E940A1C0E94E6460E9486470E94CE1724
:104010000E941C1C0E9432460E9473190000DF910E
:10402000CF910895CF93DF93CDB7DEB70E94C11F24
:104030000E945D490E94AD1881E090E00E947D1FC2
:1040400080E00E94A31F81E090E00E94901F80E02A
:104050000E94B21F0000DF91CF910895CF93DF93AC
:1040600000D0CDB7DEB789839A8300000F900F9000
:10407000DF91CF910895CF93DF9300D0CDB7DEB716
:1040800089839A8300000F900F90DF91CF9108955C
:10409000CF93DF9300D01F92CDB7DEB789839A8389
:1040A0006B8380E090E1FC018281882F90E0827038
:1040B000992721E0892B09F420E0222309F0F1CF90
:1040C0008DE993E184BF9093001089819A819C5E71
:1040D0002B81FC0120838DE990E084BF9093001038
:1040E00000002396CDBFDEBFDF91CF910895CF931F
:1040F000DF9300D000D0CDB7DEB789839A836B837E
:104100007C8380E090E1FC018281882F90E08270C6
:10411000992721E0892B09F420E0222309F0F1CF2F
:104120008DE993E184BF9093001089819A819C5E10
:104130009C018B819C81F901808391838DE990E0C2
:1041400084BF9093001000002496CDBFDEBFDF91A6
:10415000CF910895CF93DF93CDB7DEB72697CDBF2C
:10416000DEBF89839A834B835C836D837E8380E08B
:1041700090E1FC018281882F90E08270992721E0F4
:10418000892B09F420E0222309F0F1CF8DE993E196
:1041900084BF9093001089819A819C5E9C018B81E1
:1041A0009C81AD81BE81F90180839183A283B38319
:1041B0008DE990E084BF9093001000002696CDBF5B
:1041C000DEBFDF91CF910895CF93DF93CDB7DEB7F8
:1041D0002697CDBFDEBF89839A834B835C836D8333
:1041E0007E8380E090E1FC018281882F90E08270E4
:1041F000992721E0892B09F420E0222309F0F1CF4F
:104200008DE993E184BF9093001089819A819C5E2F
:104210009C018B819C81AD81BE81F901808391835A
:10422000A283B3838DE990E084BF909300100000D7
:104230002696CDBFDEBFDF91CF910895CF92DF925A
:10424000EF92FF920F931F93CF93DF93CDB7DEB71B
:10425000E497CDBFDEBF8FA798AB69AB7AAB4BAB12
:104260005CAB8BA99CA9892B09F422C589A99AA9C1
:104270008D3A910509F42CC28E3A91050CF057C085
:104280008837910509F44EC2893791053CF586318E
:10429000910509F427C18731910564F486309105B1
:1042A00009F463C38E30910509F480C3892B09F4A6
:1042B00013C43BC58A34910509F4D0C08B349105F1
:1042C00024F4C09709F452C130C58436910509F42D
:1042D00091C18237910509F410C227C58039910533
:1042E00009F485C3813991056CF48438910509F48A
:1042F00043C28A38910509F454C28E37910509F4F6
:1043000026C213C58D39910509F490C08E399105E7
:104310002CF48539910509F468C007C5833A9105E5
:1043200009F4ACC1883A910509F4BDC1FEC4883EC8
:10433000910509F4D8C2893E91054CF5843C91055C
:1043400009F4B2C3853C91056CF4883B910509F4EE
:104350007BC38E3B910509F48FC3823B910509F421
:104360005BC3E3C4803D910509F45AC2813D9105C8
:104370002CF48A3C910509F43EC2D7C4883D9105CE
:1043800009F46FC2803E910509F48CC2CEC4853019
:1043900021E0920709F4DCC38630E1E09E076CF46B
:1043A000883F910509F412C28D3F910509F4ACC311
:1043B000803F910509F4B8C2B8C48031F1E09F078D
:1043C00009F4F3C3813121E092072CF48B30914042
:1043D00009F4D6C3AAC48231F1E09F0709F4FCC3F3
:1043E0008236914009F44FC4A0C48BA99CA9FC015A
:1043F000C080D180E280F38085E990E00E94A352E2
:10440000DC01CB01C816D906EA06FB0609F452C442
:104410008BA99CA9FC0180819181A281B381AC010F
:10442000BD0185E990E00E94AA2044C48BA99CA903
:10443000FC01008111818DE990E00E94AA520817C9
:10444000190709F439C48BA99CA9FC0180819181C9
:10445000BC018DE990E00E9477202EC419821A8257
:104460008BA99CA98B839C838B819C819C012F5F52
:104470003F4F2B833C83FC0180818D838AE490E055
:104480008E839F838D81882339F189819A81449716
:104490001CF58E819F810E949B528CA79D818CA5CB
:1044A000981729F08E819F816D810E944820898113
:1044B0009A81019689839A838B819C819C012F5FCD
:1044C0003F4F2B833C83FC0180818D838E819F81B4
:1044D00001968E839F83D6CF8E819F8160E00E945C
:1044E000482023C4188619868BA99CA98A879B8794
:1044F0008A859B859C012F5F3F4F2A873B87FC0164
:1045000080818C8786E190E08D879E878C858823CB
:1045100039F18885998544971CF58D859E850E9483
:104520009B528EA79C858EA5981729F08D859E8518
:104530006C850E944820888599850196888799878F
:104540008A859B859C012F5F3F4F2A873B87FC0113
:1045500080818C878D859E8501968D879E87D6CF9D
:104560008D859E8560E00E944820DFC31F86188AE3
:104570008BA99CA9898B9A8B89899A899C012F5F29
:104580003F4F298B3A8BFC0180818B8B80E390E03D
:104590008C8B9D8B8B89882339F18F8598894497E3
:1045A0001CF58C899D890E949B528DA79B898DA5A6
:1045B000981729F08C899D896B890E9448208F85E6
:1045C000988901968F87988B89899A899C012F5F9A
:1045D0003F4F298B3A8BFC0180818B8B8C899D8985
:1045E00001968C8B9D8BD6CF8C899D8960E00E9433
:1045F00048209BC31E8A1F8A8BA99CA9888F998FEC
:10460000888D998D9C012F5F3F4F288F398FFC013A
:1046100080818A8F84E690E08B8F9C8F8A8D88239F
:1046200039F18E899F8908971CF58B8D9C8D0E948E
:104630009B528BA79A8D8BA5981729F08B8D9C8DFB
:104640006A8D0E9448208E899F8901968E8B9F8B50
:104650008B8D9C8D01968B8F9C8F888D998D9C0165
:104660002F5F3F4F288F398FFC0180818A8FD6CFF3
:104670008B8D9C8D60E00E94482057C38BA99CA91C
:10468000FC01108183EA90E00E949B52181709F404
:1046900015C38BA99CA9FC018081682F83EA90E057
:1046A0000E9448200BC38BA99CA9FC01108188EAB9
:1046B00090E00E949B52181709F402C38BA99CA991
:1046C000FC018081682F88EA90E00E944820F8C2AF
:1046D0008BA99CA9FC0110818DEA90E00E949B525D
:1046E000181709F4EFC28BA99CA9FC018081682FDF
:1046F0008DEA90E00E944820E5C28BA99CA9FC01AC
:10470000108182E790E00E949B52181709F4DCC2E6
:104710008BA99CA9FC018081682F82E790E00E9410
:104720004820D2C28BA99CA9FC01108188E790E0A7
:104730000E949B52181709F4C9C28BA99CA9FC01BD
:104740008081682F88E790E00E944820BFC28BA933
:104750009CA9FC0110818EE790E00E949B521817E3
:1047600009F4B6C28BA99CA9FC018081682F8EE751
:1047700090E00E944820ACC28BA99CA9FC0110814A
:1047800084E890E00E949B52181709F4A3C28BA9F9
:104790009CA9FC018081682F84E890E00E94482059
:1047A00099C28BA99CA9FC0110818AE890E00E9423
:1047B0009B52181709F490C28BA99CA9FC01808117
:1047C000682F8AE890E00E94482086C28BA99CA9A5
:1047D000FC01108188EF90E00E949B52181709F4A9
:1047E0007DC28BA99CA9FC018081682F88EF90E095
:1047F0000E94482073C28BA99CA9FC0110818AECFD
:1048000090E00E949B52181709F46AC28BA99CA9D8
:10481000FC018081682F8AEC90E00E94482060C2F1
:104820008BA99CA9FC01C080D180E280F38080ED3F
:1048300090E00E94A352DC01CB01C816D906EA061B
:10484000FB0609F44FC28BA99CA9FC0180819181D0
:10485000A281B381AC01BD0180ED90E00E94AA204D
:1048600041C28BA99CA9FC01C080D180E280F38069
:1048700088ED90E00E94A352DC01CB01C816D90656
:10488000EA06FB0609F430C28BA99CA9FC018081D1
:104890009181A281B381AC01BD0188ED90E00E94BD
:1048A000AA2022C28BA99CA9FC01C080D180E280F1
:1048B000F38080EE90E00E94A352DC01CB01C81689
:1048C000D906EA06FB0609F411C28BA99CA9FC01D2
:1048D00080819181A281B381AC01BD0180EE90E025
:1048E0000E94AA2003C28BA99CA9FC01C080D18090
:1048F000E280F38088EE90E00E94A352DC01CB01BD
:10490000C816D906EA06FB0609F4F2C18BA99CA9D0
:10491000FC0180819181A281B381AC01BD0188EE4F
:1049200090E00E94AA20E4C18BA99CA9FC01C08050
:10493000D180E280F38080EF90E00E94A352DC01FE
:10494000CB01C816D906EA06FB0609F4D3C18BA928
:104950009CA9FC0180819181A281B381AC01BD0140
:1049600080EF90E00E94AA20C5C18BA99CA9FC0100
:10497000C080D180E280F38086E090E00E94A35264
:10498000DC01CB01C816D906EA06FB0609F4B4C15E
:104990008BA99CA9FC0180819181A281B381AC018A
:1049A000BD0186E090E00E94AA20A6C18BA99CA927
:1049B000FC01C080D180E280F3808EE090E00E9414
:1049C000A352DC01CB01C816D906EA06FB0609F49E
:1049D00095C18BA99CA9FC0180819181A281B381A1
:1049E000AC01BD018EE090E00E94AA2087C18BA996
:1049F0009CA9FC01108180E990E00E949B5218174D
:104A000009F47EC18BA99CA9FC018081682F80E9F3
:104A100090E00E94482074C18BA99CA9FC010081F0
:104A2000118182EB90E00E94AA520817190709F43D
:104A300069C18BA99CA9FC0180819181BC0182EB99
:104A400090E00E9477205EC18BA99CA9FC010081A7
:104A5000118188EB90E00E94AA520817190709F407
:104A600053C18BA99CA9FC0180819181BC0188EB79
:104A700090E00E94772048C18BA99CA9FC0100818D
:104A800011818EEB90E00E94AA520817190709F4D1
:104A90003DC18BA99CA9FC0180819181BC018EEB59
:104AA00090E00E94772032C18BA99CA9FC01008173
:104AB000118184EC90E00E94AA520817190709F4AA
:104AC00027C18BA99CA9FC0180819181BC0184EC48
:104AD00090E00E9477201CC18BA99CA9FC01008159
:104AE000118180E090E00E94AA520817190709F48A
:104AF00011C18BA99CA9FC0180819181BC0180E03E
:104B000090E00E94772006C18BA99CA9FC01C0807F
:104B1000D180E280F3808DEF90E00E94A352DC010F
:104B2000CB019C01AD01C701B6010E94444B882313
:104B300009F4FBC08BA99CA9FC0180819181A28111
:104B4000B381AC01BD018DEF90E00E94E420EDC087
:104B50008BA99CA9FC010081118185E091E00E9454
:104B6000AA520817190709F4D7C08BA99CA9FC0100
:104B700080819181BC0185E091E00E947720CCC0CA
:104B80008BA99CA9FC0110818BE091E00E949B52B3
:104B9000181709F4C3C08BA99CA9FC018081682F58
:104BA0008BE091E00E944820B9C08BA99CA9FC0130
:104BB0000081118180E191E00E94AA520817190733
:104BC00009F4AEC08BA99CA9FC018081682F80E10B
:104BD00091E00E944820A4C01D8E1E8E8BA99CA926
:104BE0008F8F98A38F8D98A1FC0180819181A281E4
:104BF000B38189A39AA3ABA3BCA382E191E08DA367
:104C00009EA38D8D9E8D44970CF08CC08DA19EA18E
:104C10000E94A352DC01CB018FA398A7A9A7BAA732
:104C200029A13AA14BA15CA18FA198A5A9A5BAA5DC
:104C3000281739074A075B0759F089A19AA1ABA148
:104C4000BCA12DA13EA1AC01BD01C9010E94AA20B9
:104C50008D8D9E8D01968D8F9E8F8F8D98A1049640
:104C60008F8F98A38F8D98A1FC0180819181A28163
:104C7000B38189A39AA3ABA3BCA38DA19EA10496E3
:104C80008DA39EA3BECF8BA99CA9FC01108182E6B7
:104C900091E00E949B52181709F446C08BA99CA969
:104CA000FC018081682F82E691E00E9448203CC090
:104CB00000003BC0000039C0000037C0000035C014
:104CC000000033C0000031C000002FC000002DC024
:104CD00000002BC0000029C0000027C0000025C034
:104CE000000023C0000021C000001FC000001DC044
:104CF00000001BC0000019C0000017C0000015C054
:104D0000000013C0000011C000000FC000000DC063
:104D100000000BC0000009C0000007C0000005C073
:104D2000000003C0000001C00000E496CDBFDEBF5C
:104D3000DF91CF911F910F91FF90EF90DF90CF9077
:104D40000895CF93DF9300D0CDB7DEB789839A83E0
:104D500089819A814AE752E463EA70E00E941E2149
:104D600089819A8148E150E462E770E00E941E2147
:104D700089819A814AE150E468E770E00E941E212F
:104D800089819A814CE150E46EE770E00E941E2117
:104D900089819A814EE150E464E870E00E941E210E
:104DA00089819A8140E250E46AE870E00E941E2105
:104DB00089819A814DE252E46AEC70E00E941E21E2
:104DC00089819A8140E350E460ED70E00E941E21E9
:104DD00089819A8144E350E468ED70E00E941E21CD
:104DE00089819A8148E350E460EE70E00E941E21C0
:104DF00089819A814CE350E468EE70E00E941E21A4
:104E000089819A8140E450E460EF70E00E941E21A5
:104E100089819A8140E752E466E070E00E941E2199
:104E200089819A8144E752E46EE070E00E941E217D
:104E300089819A814EE152E460E970E00E941E216E
:104E400089819A8141E352E466E170E00E941E216B
:104E500089819A8146E452E460E370E00E941E2159
:104E600089819A814BE552E46AE470E00E941E2138
:104E700089819A814FE152E464E670E00E941E212C
:104E800089819A8149E252E465E970E00E941E211D
:104E900089819A8148E752E46DE970E00E941E2101
:104EA00089819A814BE752E468EA70E00E941E21F2
:104EB00089819A814CE752E46DEA70E00E941E21DC
:104EC00089819A814DE752E462EB70E00E941E21D5
:104ED00089819A814FE752E468EB70E00E941E21BD
:104EE00089819A8141E852E46EEB70E00E941E21B4
:104EF00089819A8143E852E464EC70E00E941E21AB
:104F000089819A8145E852E46DEF70E00E941E218C
:104F100089819A814AE250E465E071E00E941E2195
:104F200089819A8149E852E46BE071E00E941E2178
:104F300089819A814AE852E460E171E00E941E2171
:104F400089819A8142EE52E462E171E00E941E2161
:104F500089819A814FE252E462E671E00E941E214B
:104F600000000F900F90DF91CF9108950F931F9342
:104F7000CF93DF93CDB7DEB7C459D109CDBFDEBF24
:104F80009E012D563F4FF90180839183CE018E56AD
:104F90009F4F21E0FC01208380E090E00E94AA5214
:104FA00088879987888599858930914009F0D4C68A
:104FB00010921D4283EA90E00E949B528A8785E00E
:104FC0008B8784E18C879A858C85891740F09A8538
:104FD0008B85981710F48B8503C08A8501C08C855A
:104FE00080937A428AEC90E00E949B52882F90E056
:104FF00080932D4290932E4280ED90E00E94A35228
:10500000DC01CB018D879E87AF87B88B80EE97E65A
:10501000A5E3B0E0898B9A8BAB8BBC8B80E099E0E9
:10502000ADE3B0E08D8B9E8BAF8BB88F2D853E8529
:105030004F8558898D899E89AF89B88D82179307CE
:10504000A407B507B8F02D853E854F855889898915
:105050009A89AB89BC89281739074A075B0728F466
:1050600089899A89AB89BC8909C08D859E85AF8560
:10507000B88904C08D899E89AF89B88D80933040EE
:1050800090933140A0933240B093334088ED90E04C
:105090000E94A352DC01CB01898F9A8FAB8FBC8F0A
:1050A00080EE97E6A5E3B0E08D8F9E8FAF8FB8A31B
:1050B00080E099E0ADE3B0E089A39AA3ABA3BCA3E1
:1050C000298D3A8D4B8D5C8D89A19AA1ABA1BCA194
:1050D00082179307A407B507B8F0298D3A8D4B8D39
:1050E0005C8D8D8D9E8DAF8DB8A1281739074A072D
:1050F0005B0728F48D8D9E8DAF8DB8A109C0898D79
:105100009A8DAB8DBC8D04C089A19AA1ABA1BCA125
:105110008093344090933540A0933640B09337400D
:1051200080EE90E00E94A352DC01CB018DA39EA3F0
:10513000AFA3B8A780EE97E6A5E3B0E089A79AA74A
:10514000ABA7BCA780E099E0ADE3B0E08DA79EA738
:10515000AFA7B8AB2DA13EA14FA158A58DA59EA587
:10516000AFA5B8A982179307A407B507B8F02DA17A
:105170003EA14FA158A589A59AA5ABA5BCA5281706
:1051800039074A075B0728F489A59AA5ABA5BCA5F2
:1051900009C08DA19EA1AFA1B8A504C08DA59EA5F3
:1051A000AFA5B8A98093384090933940A0933A4076
:1051B000B0933B4088EE90E00E94A352DC01CB010B
:1051C00089AB9AABABABBCAB80EE97E6A5E3B0E0A6
:1051D0008DAB9EABAFABB8AF80E099E0ADE3B0E094
:1051E00089AF9AAFABAFBCAF29A93AA94BA95CA9CB
:1051F00089AD9AADABADBCAD82179307A407B507D7
:10520000B8F029A93AA94BA95CA98DA99EA9AFA973
:10521000B8AD281739074A075B0728F48DA99EA95E
:10522000AFA9B8AD09C089A99AA9ABA9BCA904C006
:1052300089AD9AADABADBCAD80933C4090933D4001
:10524000A0933E40B0933F4080EF90E00E94A35275
:10525000DC01CB019E01235C3F4FF90180839183E8
:10526000A283B3839E012F5B3F4F80EE97E6A5E3B9
:10527000B0E0F90180839183A283B3839E012B5B0D
:105280003F4F80E099E0ADE3B0E0F9018083918386
:10529000A283B383CE018B5B9F4F9E01235C3F4F64
:1052A000F9012081318142815381FC01808191810A
:1052B000A281B38182179307A407B50730F1CE010D
:1052C0008F5B9F4F9E01235C3F4FF901208131810D
:1052D00042815381FC0180819181A281B381281791
:1052E00039074A075B0748F4CE018F5B9F4FFC01EB
:1052F00080819181A281B38110C0CE01CD96FC0145
:1053000080819181A281B38108C0CE018B5B9F4FC8
:10531000FC0180819181A281B38180934040909370
:105320004140A0934240B09343408E01075B1F4F22
:1053300082E790E00E949B52F8018083CE01865B59
:105340009F4FFC0110821182CE01845B9F4F20E1B0
:1053500030E0FC0120833183CE01875B9F4FFC014D
:105360008081282F30E0CE01845B9F4FFC0180813B
:105370009181821793079CF0CE01875B9F4FFC01C0
:105380008081482F50E0CE01865B9F4FFC01208139
:105390003181CA018217930744F4C90106C0CE01C6
:1053A000845B9F4FFC018081918180931840909392
:1053B00019408E01025B1F4F88E790E00E949B52CC
:1053C000F8018083CE01815B9F4FFC011082118226
:1053D000CE018F5A9F4F25E030E0FC0120833183BE
:1053E000CE01825B9F4FFC018081282F30E0CE01EF
:1053F0008F5A9F4FFC0180819181821793079CF007
:10540000CE01825B9F4FFC018081482F50E0CE018E
:10541000815B9F4FFC0120813181CA018217930774
:1054200044F4C90106C0CE018F5A9F4FFC01808110
:10543000918180931A4090931B408E010D5A1F4F0B
:105440008EE790E00E949B52F8018083CE018C5A37
:105450009F4FFC0110821182CE018A5A9F4F20E19A
:1054600030E0FC0120833183CE018D5A9F4FFC0137
:105470008081282F30E0CE018A5A9F4FFC01808125
:105480009181821793079CF0CE018D5A9F4FFC01AA
:105490008081482F50E0CE018C5A9F4FFC01208123
:1054A0003181CA018217930744F4C90106C0CE01B5
:1054B0008A5A9F4FFC018081918180931C40909378
:1054C0001D408E01085A1F4F84E890E00E949B52B5
:1054D000F8018083CE01875A9F4FFC011082118210
:1054E000CE01855A9F4F23E130E0FC0120833183B8
:1054F000CE01885A9F4FFC018081282F30E0CE01D9
:10550000855A9F4FFC0180819181821793079CF0FF
:10551000CE01885A9F4FFC018081482F50E0CE0178
:10552000875A9F4FFC0120813181CA01821793075E
:1055300044F4C90106C0CE01855A9F4FFC01808109
:10554000918180931E4090931F408E01035A1F4FFC
:105550008AE890E00E949B52F8018083CE01825A33
:105560009F4FFC0110821182CE01805A9F4F25E08F
:1055700030E0FC0120833183CE01835A9F4FFC0130
:105580008081282F30E0CE01805A9F4FFC0180811E
:105590009181821793079CF0CE01835A9F4FFC01A3
:1055A0008081482F50E0CE01825A9F4FFC0120811C
:1055B0003181CA018217930744F4C90106C0CE01A4
:1055C000805A9F4FFC01808191818093204090936D
:1055D000214086E090E00E94A352DC01CB01809341
:1055E000704290937142A0937242B09373428EE0E6
:1055F00090E00E94A352DC01CB018093744290930F
:105600007542A0937642B093774280E990E00E9481
:105610009B5280931E4219821A8289819A814497F3
:10562000E8F489819A814696805090400E949B526E
:105630008B838B818F3F09F41B8289819A818F5CD8
:105640009D4B2B81FC0120838B81882331F0898144
:105650009A81019689839A83E0CF000019821A8289
:1056600089819A814497E8F489819A81C096805013
:1056700090400E949B528B838B818F3F09F41B8249
:1056800089819A818A5B9D4B2B81FC0120838B81D0
:10569000882331F089819A81019689839A83E0CFAA
:1056A000000019821A8289819A814497F0F48981D5
:1056B0009A81865B9F4F805090400E949B528B83C3
:1056C0008B818F3F09F41B8289819A81855A9D4B7A
:1056D0002B81FC0120838B81882331F089819A8181
:1056E000019689839A83DFCF000019821A8289810B
:1056F0009A810897F0F489819A818C599F4F805044
:1057000090400E949B528B838B818F3F09F41B82B8
:1057100089819A81815E9D4B2B81FC0120838B8145
:10572000882331F089819A81019689839A83DFCF1A
:10573000000085E990E00E94A352DC01CB01809338
:10574000294290932A42A0932B42B0932C428E017F
:105750000E591F4F8DE990E00E94AA52F8018083F4
:105760009183CE018C599F4FFC0110821182CE0192
:105770008A599F4F28E833E1FC01208331839E0141
:105780002E593F4FCE018A599F4FF9012081318117
:10579000FC018081918182179307E8F09E012E59C8
:1057A0003F4FCE018C599F4FF90120813181FC017F
:1057B000808191812817390738F4CE018C599F4F89
:1057C000FC01808191810DC0CE018E599F4FFC015B
:1057D0008081918106C0CE018A599F4FFC01808152
:1057E000918180937842909379428E0108591F4F9E
:1057F00088EA90E00E949B52F8018083CE0187598D
:105800009F4F25E0FC012083CE0186599F4F24E164
:10581000FC0120839E0128593F4FCE0186599F4F9E
:10582000F9012081FC0180818217C0F09E01285976
:105830003F4FCE0187599F4FF9012081FC018081A4
:10584000281730F4CE0187599F4FFC0180810BC08F
:10585000CE0188599F4FFC01808105C0CE01865939
:105860009F4FFC01808180937B428E0105591F4F21
:105870008DEA90E00E949B52F8018083CE0184590A
:105880009F4F25E0FC012083CE0183599F4F24E1E7
:10589000FC0120839E0125593F4FCE0183599F4F24
:1058A000F9012081FC0180818217C0F09E012559F9
:1058B0003F4FCE0184599F4FF9012081FC01808127
:1058C000281730F4CE0184599F4FFC0180810BC012
:1058D000CE0185599F4FFC01808105C0CE018359BF
:1058E0009F4FFC01808180937C4282EB90E00E947C
:1058F000AA529C01CE0182599F4FFC012083318323
:10590000CE0180599F4FFC0110821182CE018E582A
:105910009F4F20E13EE0FC01208331839E0122590C
:105920003F4FCE018E589F4FF90120813181FC01FC
:105930008081918182179307ECF09E0122593F4F9D
:10594000CE0180599F4FF90120813181FC01808176
:105950009181281739073CF4CE0180599F4FFC01F3
:10596000808191810DC0CE0182599F4FFC018081C1
:10597000918106C0CE018E589F4FFC01808191819C
:1059800080937D4290937E4288EB90E00E94AA52E1
:105990009C01CE018C589F4FFC0120833183CE01A6
:1059A0008A589F4FFC0110821182CE0188589F4F68
:1059B00020E13EE0FC01208331839E012C583F4FC3
:1059C000CE0188589F4FF90120813181FC018081EF
:1059D000918182179307ECF09E012C583F4FCE0126
:1059E0008A589F4FF90120813181FC01808191818A
:1059F000281739073CF4CE018A589F4FFC0180815B
:105A000091810DC0CE018C589F4FFC018081918106
:105A100006C0CE0188589F4FFC0180819181809300
:105A20007F42909380428EEB90E00E94AA529C01AC
:105A3000CE0186589F4FFC0120833183CE018458CC
:105A40009F4FFC0110821182CE0182589F4F20E1AE
:105A50003EE0FC01208331839E0126583F4FCE015A
:105A600082589F4FF90120813181FC018081918111
:105A700082179307ECF09E0126583F4FCE018458C1
:105A80009F4FF90120813181FC018081918128178C
:105A900039073CF4CE0184589F4FFC0180819181ED
:105AA0000DC0CE0186589F4FFC018081918106C0B8
:105AB000CE0182589F4FFC01808191818093814269
:105AC0009093824284EC90E00E94AA529C01CE0105
:105AD00080589F4FFC0120833183CE018E579F4F0A
