:100000000C9431010C945B010C945B010C94DE01A7
:100010000C945B010C945B010C9476080C945B01CE
:100020000C945B010C945B010C945B010C945B01E0
:100030000C945B030C9470580C945B010C945B0162
:100040000C945B010C945B010C945B010C945B01C0
:100050000C945B010C945B010C945B010C945B01B0
:100060000C948D020C945B010C945B010C945B016D
:100070000C945B010C945B010C9418580C945B017C
:100080000C945B010C945B010C94A1080C945B0133
:100090000C945B010C945B010C945B010C945B0170
:1000A0000C945B010C94CA460C945B010C945B01AC
:1000B0000C945B010C945B010C945B010C945B0150
:1000C0000C945B010C945B010C945B010C945B0140
:1000D0000C945B010C945B010C945B010C945B0130
:1000E0000C945B010C945B0105A84CCDB2D44EB9C5
:1000F0003836A9020C50B9918688083CA6AAAA2ACB
:10010000BE000000803F08000000BE922449123E5D
:10011000ABAAAA2ABECDCCCC4C3E00000080BEAB20
:10012000AAAAAA3E00000000BF000000803F000015
:10013000000000084178D3BB4387D1133D190E3C22
:10014000C3BD4282AD2B3E68EC8276BED98FE1A959
:100150003E4C80EFFFBE01C4FF7F3F000000000067
:1001600000407A10F35A00A0724E18090010A5D46E
:10017000E80000E87648170000E40B54020000CACB
:100180009A3B000000E1F505000080969800000011
:1001900040420F000000A086010000001027000070
:1001A0000000E803000000006400000000000A00F6
:1001B000000000000100000000002C76D888DC67F9
:1001C0004F0823DFC1DFAE59E1B1B796E5E3E45351
:1001D000C63AE651997696E8E6C28426EB898C9B6E
:1001E00062ED407C6FFCEFBC9C9F40F2BAA56FA50E
:1001F000F490055A2AF75C936B6CF9676DC11BFC90
:10020000E0E40D47FEF520E6B500D0ED902E0300AA
:10021000943577050080841E080000204E0A0000F7
:1002200000C80C333333330F986E12831141EF8DB6
:100230002114893BE65516CFFEE6DB18D1844B38F6
:100240001BF77C1D901DA4BBE424203284725E2227
:100250008100C9F124ECA1E53D27B71FCD21C41FC2
:10026000DA2111241FBECFEFCDBFDFE7DEBF13E4DD
:10027000A0E0B0E4EAE5F9EC00E00BBF02C00790B3
:100280000D92AA31B107D9F725E4AAE1B3E401C080
:100290001D92AA37B207E1F711E0CFE2D1E004C026
:1002A0002197FE010E94C15DCD32D107C9F70E949E
:1002B000390A0C94A0640C9400000FB6F894609373
:1002C00076457093774580937845909379450FBE36
:1002D0000895FC010FB6F8946091764570917745CA
:1002E00080917845909179450FBE309721F06083D9
:1002F00071838283938308958F938FB78F93F8943C
:10030000809176458F5F80937645809177458F4FBA
:1003100080937745809178458F4F80937845809181
:1003200079458F4F809379458F918FBF8F91089535
:10033000CF93DF93CDB7DEB70E94012E0000DF918F
:10034000CF910895CF93DF9300D0CDB7DEB78983E7
:100350006A838A818823B1F080E090E0FC0181818A
:10036000482F8981282F30E081E090E002C0880F7B
:10037000991F2A95E2F7242F282B80E090E0FC01BA
:10038000218316C080E090E0FC018181482F8981A3
:10039000282F30E081E090E002C0880F991F2A9555
:1003A000E2F78095242F282380E090E0FC01218350
:1003B00000000F900F90DF91CF9108951F920F9240
:1003C0000FB60F9211240BB60F922F933F934F93BA
:1003D0005F936F937F938F939F93AF93BF93EF93AD
:1003E000FF93CF93DF931F92CDB7DEB780E491E008
:1003F000FC01838189838981882F90E0817099270E
:10040000892B09F46EC00E947C0180910640909176
:10041000074021E0892B09F420E0222349F0809154
:1004200006409091074001978093064090930740C3
:100430008091094090910A40A0910B40B0910C40EE
:1004400021E0892B8A2B8B2B09F420E0222399F0C1
:100450008091094090910A40A0910B40B0910C40CE
:100460000197A109B1098093094090930A40A09394
:100470000B40B0930C4081E080939A4380919B4362
:1004800090919C43A0919D43B0919E430196A11DE4
:10049000B11D80939B4390939C43A0939D43B09345
:1004A0009E4380919B4390919C43A0919D43B0912A
:1004B0009E4321E00297A105B10509F020E0222327
:1004C00019F081E08093954390919F4381E09923B7
:1004D00009F480E0882329F080919F438150809324
:1004E0009F4380E491E023E0FC01238300000F9010
:1004F000DF91CF91FF91EF91BF91AF919F918F913C
:100500007F916F915F914F913F912F910F900BBE13
:100510000F900FBE0F901F9018951F920F920FB65D
:100520000F9211240BB60F922F933F934F935F932B
:100530006F937F938F939F93AF93BF93EF93FF93AB
:10054000CF93DF93CDB7DEB72597CDBFDEBF80E079
:1005500096E0FC0185858B838B81882F90E08170EC
:100560009927892B09F489C080E096E0FC018089F5
:1005700091898C839D8319821A82809123408823DC
:1005800021F08C819D8189839A838091114490917F
:10059000124421E0892B09F420E0222329F18091E3
:1005A000144491E0980F90931444882F90E0880FA2
:1005B000991F81529C4BFC018081918129813A8154
:1005C000820F931F89839A8380911444893111F497
:1005D0001092144480911144909112440197809399
:1005E0001144909312440FC09091134481E09923D9
:1005F00009F480E0882339F080911344815080937E
:10060000134419821A82809121409091224021E066
:10061000059708F420E0222389F0809121409091F1
:1006200022409C012450310989819A8102C0880F9F
:10063000991F2A95E2F789839A8314C080912140FB
:1006400090912240049799231CF4919581959109EA
:100650009C0189819A8102C0969587952A95E2F737
:1006600089839A8389819A810E94632A8C819D81E2
:10067000BC0184E594E40E945C4380E096E023E0C2
:10068000FC01258700002596CDBFDEBFDF91CF910D
:10069000FF91EF91BF91AF919F918F917F916F915A
:1006A0005F914F913F912F910F900BBE0F900FBE16
:1006B0000F901F9018951F920F920FB60F92112452
:1006C0000BB60F922F933F934F935F936F937F934C
:1006D0008F939F93AF93BF93EF93FF93CF93DF934A
:1006E000CDB7DEB72F97CDBFDEBF80E09BE0FC012A
:1006F00086818E838E81882F90E081709927892B47
:1007000009F4D6C41F821886809124408F5F80939D
:100710002440209124408BEA289F812D1124982F7A
:1007200096959695892F880F890F880F922F981B81
:10073000992309F0E9C319821A821B8287E189870C
:100740000E94CC25982F898589238F830E9480253C
:100750000E94CC25982F8985892388878885827077
:100760008A87888581708B87888584708C87888547
:1007700080718D8781E09D85992309F080E08093C9
:100780009243882331F08CE390E08093064090936D
:1007900007401B828A85882371F48B85882359F052
:1007A00060E086E00E94A20161E085E00E94A20173
:1007B00081E0898325C08B85882371F48A8588230D
:1007C00059F060E085E00E94A20161E086E00E94AD
:1007D000A20181E08A8314C060E085E00E94A2014A
:1007E00060E086E00E94A20119821A828A8588232D
:1007F00029F48B85882311F481E001C080E08B838C
:1008000081E09C85992309F080E08093C74389812A
:100810008093C4438A818093C5438B818093C64370
:100820009F818885981709F40AC198858F81892747
:100830008E8787E090E080931F40909320408CE368
:1008400090E0809306409093074084E893E0A0E016
:10085000B0E08093094090930A40A0930B40B0937E
:100860000C408E85082E000C990B82709927892BDD
:1008700079F08A85882339F081E090E080932740E1
:10088000909328400BC0109227401092284006C039
:1008900082E090E080932740909328408E85082E38
:1008A000000C990B81709927892B79F08B8588230F
:1008B00039F081E090E08093294090932A400BC06A
:1008C0001092294010922A4006C082E090E0809366
:1008D000294090932A408B818823F1F08091BE4378
:1008E0009091BF4301968093BE439093BF43109273
:1008F000A8431092A9431092B8431092B9431092A2
:10090000AA431092AB431092BA431092BB43109289
:1009100025401092264064C08091AE439091AF4331
:1009200021E0892B09F420E0222389F088EE93E06E
:1009300080931144909312441092AE431092AF43AF
:1009400081E090E0809325409093264049C081E06B
:10095000809330408091274090912840019771F416
:1009600088EE93E080931144909312441092A84330
:100970001092A94381E080932D400FC080912740C1
:1009800090912840892B49F48091B8439091B943C4
:1009900001968093B8439093B943809129409091F8
:1009A0002A40019771F488EE93E08093114490936C
:1009B00012441092AA431092AB4381E080932E40E0
:1009C0000FC08091294090912A40892B49F4809151
:1009D000BA439091BB4301968093BA439093BB4333
:1009E0008E85082E000C990B84709927892B09F4A9
:1009F00023C18091C743882371F08091BC439091BB
:100A0000BD4301968093BC439093BD4310922B400D
:100A100010922C4011C188EE93E080931144909382
:100A200012441092AC431092AD4381E080932F406A
:100A300081E090E080932B4090932C40FDC08B810F
:100A4000882309F441C09091C24381E0892788231B
:100A500031F080913040882311F081E001C080E0C6
:100A6000882309F4ABC08091AE439091AF4321E05D
:100A7000019609F420E0222349F08091AE43909141
:100A8000AF4301968093AE439093AF438091AE43C2
:100A90009091AF4321E08436910508F420E02223B1
:100AA00009F48CC081E08093C2431092AE4310924F
:100AB000AF431092BE431092BF4310923040109249
:100AC0002D4010922E407AC089818823D1F19091D7
:100AD000C04381E08927882331F080912D4088230D
:100AE00011F081E001C080E0882359F18091A84392
:100AF0009091A94321E0019609F420E0222349F0D6
:100B00008091A8439091A94301968093A843909324
:100B1000A9438091A8439091A94321E0843691058F
:100B200008F420E0222369F081E08093C043109212
:100B3000A8431092A9431092B8431092B94310925F
:100B40002D408A818823D1F19091C14381E089278A
:100B5000882331F080912E40882311F081E001C07C
:100B600080E0882359F18091AA439091AB4321E022
:100B7000019609F420E0222349F08091AA43909144
:100B8000AB4301968093AA439093AB438091AA43D1
:100B90009091AB4321E08436910508F420E02223B4
:100BA00069F081E08093C1431092AA431092AB4355
:100BB0001092BA431092BB4310922E408091C743CB
:100BC0008823D1F19091C34381E08927882331F0B4
:100BD00080912F40882311F081E001C080E08823BC
:100BE00059F18091AC439091AD4321E0019609F415
:100BF00020E0222349F08091AC439091AD430196CF
:100C00008093AC439093AD438091AC439091AD43BE
:100C100021E08436910508F420E0222369F081E088
:100C20008093C3431092AC431092AD431092BC43E7
:100C30001092BD4310922F4080911544909116441C
:100C4000892B71F1809115449091164401978093FE
:100C50001544909316448091154490911644892B25
:100C600009F044C08091BE439091BF43892B41F06D
:100C70008091BE439091BF43039710F481E001C07F
:100C800080E0882341F08091BE439091BF438093E0
:100C9000B6439093B7431092BE431092BF4326C011
:100CA0008091BE439091BF43019741F480912540CC
:100CB00090912640019711F481E001C080E08823E3
:100CC00039F082E390E080931544909316440EC06F
:100CD0008091BE439091BF4321E0039708F420E048
:100CE000222321F01092BE431092BF4380911744FB
:100CF00090911844892B71F1809117449091184478
:100D000001978093174490931844809117449091D1
:100D10001844892B09F044C08091B8439091B9439D
:100D2000892B41F08091B8439091B943039710F417
:100D300081E001C080E0882341F08091B843909128
:100D4000B9438093B0439093B1431092B84310924B
:100D5000B94326C08091B8439091B943019741F4BB
:100D60008091274090912840019711F481E001C0C3
:100D700080E0882339F082E390E0809317449093D9
:100D800018440EC08091B8439091B94321E0039775
:100D900008F420E0222321F01092B8431092B943C6
:100DA0008091194490911A44892B71F180911944D2
:100DB00090911A4401978093194490931A4480911A
:100DC000194490911A44892B09F044C08091BA4388
:100DD0009091BB43892B41F08091BA439091BB43E2
:100DE000039710F481E001C080E0882341F08091F6
:100DF000BA439091BB438093B2439093B343109214
:100E0000BA431092BB4326C08091BA439091BB4332
:100E1000019741F48091294090912A40019711F463
:100E200081E001C080E0882339F082E390E0809384
:100E3000194490931A440EC08091BA439091BB43D9
:100E400021E0039708F420E0222321F01092BA4316
:100E50001092BB4380911B4490911C44892B71F1EB
:100E600080911B4490911C44019780931B44909364
:100E70001C4480911B4490911C44892B09F044C070
:100E80008091BC439091BD43892B41F08091BC433C
:100E90009091BD43049710F481E001C080E0882365
:100EA00041F08091BC439091BD438093B4439093B3
:100EB000B5431092BC431092BD4326C08091BC4301
:100EC0009091BD43019741F480912B4090912C402B
:100ED000019711F481E001C080E0882339F082E3BA
:100EE00090E080931B4490931C440EC08091BC43BF
:100EF0009091BD4321E0039708F420E0222321F0E4
:100F00001092BC431092BD438091984390919943B5
:100F100021E0892B09F420E0222309F4C9C0809143
:100F2000984390919943892F881F8827881F8F871E
:100F3000809198439091994399231CF491958195C0
:100F400091098C839D8320911D4430911E44809192
:100F500098439091994341E02817390709F040E000
:100F6000442309F453C080911F4490912044892B5D
:100F700009F49EC080911F44909120440197809372
:100F80001F449093204480911F4490912044892BCA
:100F900009F08EC084E893E0A0E0B0E080930940BF
:100FA00090930A40A0930B40B0930C408C819D819C
:100FB0000297B4F08C819D8103968C839D838C81F4
:100FC0009D8195958795959587958C839D838C813B
:100FD0009D81880F991F880F991F8C839D8302C064
:100FE0001C821D828F85882331F08C819D81919593
:100FF0008195910902C08C819D8180939843909343
:10100000994310921D4410921E4452C080919843FF
:101010009091994380931D4490931E448C819D81AF
:1010200004974CF18091C743882351F010922F40D0
:101030001092AC431092AD431092BC431092BD434A
:101040008F85882351F08091964390919743019723
:10105000809396439093974309C0809196439091D3
:101060009743019680939643909397438C819D81FB
:1010700004978C839D838BE490E080931F4490932E
:1010800020448F85882331F08C819D8191958195B5
:10109000910902C08C819D818093984390939943DC
:1010A0008C819D81892B21F410921D4410921E4445
:1010B00080E09BE023E0FC01268300002F96CDBF5B
:1010C000DEBFDF91CF91FF91EF91BF91AF919F91E3
:1010D0008F917F916F915F914F913F912F910F90E1
:1010E0000BBE0F900FBE0F901F9018951F920F927E
:1010F0000FB60F9211240BB60F922F938F939F93DD
:10110000EF93FF93CF93DF931F92CDB7DEB780E0CD
:1011100090E0FC018381898380E090E02FEFFC0167
:10112000238300000F90DF91CF91FF91EF919F916A
:101130008F912F910F900BBE0F900FBE0F901F90AD
:1011400018951F920F920FB60F9211240BB60F92A3
:101150002F938F939F93AF93BF93EF93FF93CF936F
:10116000DF9300D01F92CDB7DEB784E190E0FC01A1
:101170008381898380919543882309F45BC08981A9
:10118000882F90E088719927892B09F453C080EA51
:1011900094E0FC018085882F90E095958795959542
:1011A00087959595879583708A8380912144882FB0
:1011B00090E0880F991F880F991F982F8A81892B9B
:1011C0008B838B81882F90E0092E000CAA0BBB0B20
:1011D0000197A109B1098E309105A105B10538F536
:1011E0008B50974FFC010C94C15D03090D09170941
:1011F0000D091709170903090309170917090D092B
:1012000017090D090309809198439091994301961C
:1012100080939843909399430AC08091984390910A
:1012200099430197809398439093994300008A8152
:101230008093214480EA94E028E1FC0121870000AA
:101240002396CDBFDEBFDF91CF91FF91EF91BF918C
:10125000AF919F918F912F910F900BBE0F900FBE6A
:101260000F901F9018950F931F93CF93DF931F92AA
:10127000CDB7DEB719828981893108F051C08981E3
:10128000882F90E0092E000CAA0BBB0BBC01CD01EE
:101290000E94715BDC01CB012BED3FE049EC50E497
:1012A000BC01CD010E94CB5CDC01CB0120E030E031
:1012B00048EC51E4BC01CD010E94C75ADC01CB01CE
:1012C000BC01CD010E94385DDC01CB0120E030E0A3
:1012D00040E751E4BC01CD010E94CB5CDC01CB01B5
:1012E00020E030E040E751E4BC01CD010E94515ABA
:1012F000DC01CB012981022F10E0BC01CD010E944D
:10130000405BDC01CB019C01C801880F991F815211
:101310009C4BFC012083318389818F5F8983ABCF14
:1013200000000F90DF91CF911F910F910895CF93FF
:10133000DF9300D0CDB7DEB78EED93E40E94DF35AA
:1013400060E083E00E94A20160E087E00E94A201C9
:1013500084E690E089839A8389819A81892B79F048
:1013600080919243882331F089819A810197898302
:101370009A83F2CF84E690E089839A83EDCF0000D0
:101380000F900F90DF91CF910895CF93DF9300D00E
:10139000CDB7DEB789839A831092244410922544F6
:1013A00089819A810D9761F4809122449091234420
:1013B000880F991F8C5D9B4BFC018081918154C0EB
:1013C00089819A81892B29F4109222441092234416
:1013D00040C089819A810C9781F480912244909138
:1013E0002344892BB1F180912244909123440197A9
:1013F00080932244909323442CC080912244909166
:101400002344880F991F8C5D9B4BFC018081918147
:1014100029813A8128173907E1F08091224490917F
:1014200023444397B4F4809122449091234401963D
:1014300080932244909323448091224490912344AA
:10144000880F991F8C5D9B4B29813A81FC01208379
:1014500031838091224490912344880F991F8C5DA1
:101460009B4BFC01808191810F900F90DF91CF9178
:101470000895CF92DF92EF92FF920F931F93CF9335
:10148000DF93CDB7DEB7CE56D109CDBFDEBF0E9408
:10149000330919821A821B821C821D821E821F82BE
:1014A000188619861A861B861C861D861E861F8630
:1014B000188A198A8FEF8A8B1B8A1C8A1D8A1E8ABA
:1014C0001F8A188E81E0898F1B8ECE01835B9F4F10
:1014D000FC0110821182128213820E9498010E94E4
:1014E000B55580788A8F68EE73E080E090E00E94C6
:1014F0005D57882329F08A8D882311F081E001C08F
:1015000080E0882329F00E94B55580788A8FEBCF40
:101510008EED93E40E944F3E8EED93E40E940C37D3
:101520008091644090916540A0916640B091674081
:10153000BC01CD010E94FE588FA798AB8FA598A93A
:10154000892B49F0809193439091944382608093DA
:1015500093439093944380915E4090915F400E94AA
:10156000774C60E873E48DE698E30E945D0180E0CB
:1015700090E00E946901DC01CB0189AB9AABABAB77
:10158000BCAB60ED77E080E090E00E945D5788237F
:1015900089F080E090E00E9469019B01AC0189A97B
:1015A0009AA9ABA9BCA982179307A407B50711F4A0
:1015B00081E001C080E0882309F0E3CF80E090E083
:1015C0000E9469019B01AC0161E089A99AA9ABA9BC
:1015D000BCA982179307A407B50709F060E066234A
:1015E00059F0809193439091944381608093934309
:1015F000909394430E94D34B62E070E088EC93E4B4
:101600000E94D92A809193439091944321E0892BA1
:1016100009F420E02223A9F141E069E070E083EDC4
:1016200093E40E94924868E770E484ED93E40E949A
:10163000452980919343909194438270992721E0AA
:10164000892B09F420E0222331F061E870E484ED75
:1016500093E40E9445298091934390919443817033
:10166000992721E0892B09F420E0222331F06AE850
:1016700070E484ED93E40E9445298FE080939F43BA
:10168000F9C080E096E027E0FC0120871DAA1EAA91
:1016900060E081E00E944F211C8E1D8E8C8D9D8DFF
:1016A0000A97D4F50E94D11F0E94E41F982F81E071
:1016B0008927882309F0F8CF80E096E0FC01808933
:1016C00091898DAB9EAB8DA99EA9CC01A0E0B0E025
:1016D000BC01CD010E946F5B7B018C01CE01835B5D
:1016E0009F4FFC0180819181A281B3819C01AD015A
:1016F000C801B7010E94515ADC01CB019E01235B56
:101700003F4FF90180839183A283B3838C8D9D8D9C
:1017100001968C8F9D8FC2CFCE01835B9F4FFC01C2
:1017200080819181A281B38120E030E040E251E4E8
:10173000BC01CD010E94C75ADC01CB019E01235B95
:101740003F4FF90180839183A283B383CE01835BF2
:101750009F4FFC0180819181A281B3819E012F5A0C
:101760003F4FA901BC01CD010E94371D809155401A
:10177000882F90E0A0E0B0E0BC01CD010E946F5B3B
:101780007B018C01CE018F5A9F4FFC01808191819A
:10179000A281B381DD24D3949C01AD01C801B701BE
:1017A0000E946E5C88230CF4D12CDD2009F460C00B
:1017B00063E970E484ED93E40E9445296DE970E4E7
:1017C00084ED93E40E944529CE01835B9F4FBC01C9
:1017D00081E00E94B61D292F2F938F938AEA90E40F
:1017E000892F8F938AEA90E48F931F928DE08F93D5
:1017F0008EE293E4892F8F938EE293E48F930E947D
:10180000395F2DB73EB7285F3F4FCDBFDEBF6EE2D9
:1018100073E484ED93E40E944529CE01835B9F4FDE
:101820000E94601C292F2F938F9385EB90E4892FC2
:101830008F9385EB90E48F931F928DE08F938EE2D0
:1018400093E4892F8F938EE293E48F930E94395F04
:101850004DB75EB7485F5F4FCDBFDEBF88E893E10D
:1018600080931144909312448EE180939F4302C071
:1018700010929F4360E070E083ED93E40E9479480A
:101880006EE273E484ED93E40E94452980E096E0E3
:1018900022E0FC01208761E080E00E944F210E944D
:1018A000D11F90919F4381E0992309F080E0882324
:1018B00009F4B6C58DE090E00E94C5098FAB98AFE2
:1018C000898D882341F42FA938AD89819A81281701
:1018D000390709F448C0198E89819A81059741F02A
:1018E00089819A81069721F089819A810797B9F4B5
:1018F0008FA998AD059799F08FA998AD069779F0C3
:101900008FA998AD079759F080E096E022E0FC019E
:10191000208761E080E00E944F210E94D11F8FA9A3
:1019200098AD89839A8388EC93E40E94E82B1E8605
:101930001F86188A198A8FEF8A8B8FEF90E08B8B26
:101940009C8B8FEF8D831D8A1E8A1F8A188E88E0DC
:1019500090E08A879B878FA998AD892B21F48EED23
:1019600093E40E94DF358FA998AD092E000CAA0BD5
:10197000BB0B8B309105A105B10508F04AC58C530E
:10198000934FFC010C94C15DCF0C3E103E103E10F5
:10199000820EED0EED0EED0E0912D911BA118091E5
:1019A0007144882309F05CC0809164409091654047
:1019B000A0916640B091674061E02E853F854889DF
:1019C0005989281739074A075B0709F460E066233D
:1019D00009F4EEC08091644090916540A09166400A
:1019E000B09167408E879F87A88BB98B8E859F8526
:1019F000A889B9899E012B5A3F4FAC01BD01C9018D
:101A00000E94C6598B81882319F081EC90E402C0B2
:101A100083EC90E49E012B5A3F4F432F4F932F931B
:101A2000292F2F938F9385EC90E4892F8F9385EC4A
:101A300090E48F938EE293E4892F8F938EE293E468
:101A40008F930E94705F2DB73EB7285F3F4FCDBF89
:101A5000DEBF6EE273E484ED93E40E944529A8C0E2
:101A60009D818C81981709F4A3C08C818D8380910E
:101A7000644090916540A0916640B09167408E8728
:101A80009F87A88BB98B8C81882F90E0865E9C4BBA
:101A9000FC018081882309F446C08C81882F90E066
:101AA000865E9C4BFC018081282F30E0C901880FA5
:101AB000991F880F991F880F991F821B930BAC01E8
:101AC0004F5A5D4B8B81882319F081EC90E402C062
:101AD00083EC90E42D81222F30E02F5F3F4F652F64
:101AE0006F934F93492F4F938F93832F8F93822F11
:101AF0008F938FEC90E4892F8F938FEC90E48F93EA
:101B00001F928DE08F938EE293E4892F8F938EE264
:101B100093E48F930E94395F2DB73EB7245F3F4F08
:101B2000CDBFDEBF3FC08E859F85A889B9899E0144
:101B30002B5A3F4FAC01BD01C9010E94C6598B8190
:101B4000882319F081EC90E402C083EC90E42D81AD
:101B5000222F30E02F5F3F4FAE014B5A5F4F652F72
:101B60006F934F93492F4F938F93832F8F93822F90
:101B70008F938FEC90E4892F8F938FEC90E48F9369
:101B80001F928DE08F938EE293E4892F8F938EE2E4
:101B900093E48F930E94395F4DB75EB7445F5F4F08
:101BA000CDBFDEBF6EE273E484ED93E40E9445296D
:101BB000809108409A89981761F1809108408A8B3A
:101BC00080910840882F90E02AE030E0F901E81B7E
:101BD000F90BCF01292F2F938F938BED90E4892F51
:101BE0008F938BED90E48F938EE293E4892F8F9304
:101BF0008EE293E48F930E94705F0F900F900F908E
:101C00000F900F900F906EE273E484ED93E40E94C6
:101C10004529809121409091224041E02B893C89C7
:101C20002817390709F440E0442331F1809121401D
:101C3000909122408B8B9C8B8C898F938B898F9377
:101C400085EE90E4892F8F9385EE90E48F938EE25A
:101C500093E4892F8F938EE293E48F930E94705FB9
:101C60000F900F900F900F900F900F906EE273E413
:101C700084ED93E40E9445298091A4439091A5436B
:101C8000A091A643B091A7432D893E894F89588DD5
:101C9000281739074A075B0709F4BDC38091A4439D
:101CA0009091A543A091A643B091A7438D8B9E8BA5
:101CB000AF8BB88F888D8F938F898F938E898F93F9
:101CC0008D898F938EEE90E4892F8F938EEE90E422
:101CD0008F931F9287E08F938EE293E4892F8F93E7
:101CE0008EE293E48F930E94395F2DB73EB7265F53
:101CF0003F4FCDBFDEBF6EE273E484ED93E40E94FC
:101D0000452989C32A853B858C859D8528173907F8
:101D100009F483C38C859D858A879B878CE0E5EFDA
:101D2000F0E4AEE2B3E401900D928A95E1F76EE241
:101D300073E484ED93E40E94452986E492E4892FBC
:101D40008F9386E492E48F9381E091E4892F8F93BF
:101D500081E091E48F938EE293E4892F8F938EE25A
:101D600093E48F930E94705F0F900F900F900F90ED
:101D70000F900F906EE273E484ED93E40E94452986
:101D80002C853D85C901880F991F880F991F820FE7
:101D9000931F880F991F80509E4B292F2F938F934D
:101DA00081E091E4892F8F9381E091E48F938EE21B
:101DB00093E4892F8F938EE293E48F930E94705F58
:101DC0000F900F900F900F900F900F906EE273E4B2
:101DD00084ED93E40E94452920C319AE1AAE0E94F7
:101DE000D11F0E94E41F982F81E08927882309F0E2
:101DF000F8CF80E096E0FC018089918989AF9AAFA5
:101E000080914C4490914D44A0914E44B0914F44E8
:101E100020E030E040E85FE3BC01CD010E94BD5A04
:101E20008823A4F489AD9AADCC01A0E0B0E0BC0158
:101E3000CD010E946F5BDC01CB0180934C449093F9
:101E40004D44A0934E44B0934F442FC080914C44D6
:101E500090914D44A0914E44B0914F4420E030E029
:101E600040E251E4BC01CD010E94CB5CDC01CB011E
:101E70006C017D0189AD9AADCC01A0E0B0E0BC0160
:101E8000CD010E946F5BDC01CB019C01AD01C7015C
:101E9000B6010E94515ADC01CB0180934C449093CF
:101EA0004D44A0934E44B0934F4480914C44909144
:101EB0004D44A0914E44B0914F4420E030E040E3C7
:101EC00051E4BC01CD010E94C75ADC01CB018093D3
:101ED0004C4490934D44A0934E44B0934F446CE4D3
:101EE00074E481E00E94B61D292F2F938F9386E022
:101EF00091E4892F8F9386E091E48F931F928DE078
:101F00008F938EE293E4892F8F938EE293E48F93E5
:101F10000E94395F2DB73EB7285F3F4FCDBFDEBF70
:101F20006EE273E484ED93E40E9445298FA998AD95
:101F3000059709F050C080914C4490914D44A09178
:101F40004E44B0914F4440E050E0BC01CD010E94AE
:101F5000371D292F2F938F9381E191E4892F8F9340
:101F600081E191E48F931F928DE08F938EE293E451
:101F7000892F8F938EE293E48F930E94395F4DB740
:101F80005EB7485F5F4FCDBFDEBF6EE273E484EDA6
:101F900093E40E9445298CE494E40E94601C292F5C
:101FA0002F938F9385EB90E4892F8F9385EB90E4AB
:101FB0008F931F928DE08F938EE293E4892F8F93FE
:101FC0008EE293E48F930E94395F8DB79EB7089697
:101FD000CDBFDEBF4CC08FA998AD069741F580916B
:101FE0005440882F90E0019642E3489F9001499F1A
:101FF000300D1124832F8F93822F8F938EE191E4E4
:10200000892F8F938EE191E48F931F928DE08F93B0
:102010008EE293E4892F8F938EE293E48F930E9454
:10202000395FEDB7FEB73896CDBFDEBF20C08091D7
:102030005540882F90E0292F2F938F938BE291E4C6
:10204000892F8F938BE291E48F931F928DE08F9372
:102050008EE293E4892F8F938EE293E48F930E9414
:10206000395F2DB73EB7285F3F4FCDBFDEBF6EE271
:1020700073E484ED93E40E944529D2C18C818531BB
:1020800008F01C828C81882F90E0880F991F880FA0
:10209000991F8E5D9A4BFC0180819181A281B38151
:1020A0008E8F9F8FA8A3B9A38E8D9F8DA8A1B9A154
:1020B00081309940AD43B10548F48E8D9F8DA8A124
:1020C000B9A1803E9746A543B10590F48C81882F35
:1020D00090E0880F991F880F991F8E5D9A4BFC0125
:1020E00010821182128213821E8E1F8E18A219A2D4
:1020F0009D818C81981771F42E813F814885598587
:102100008E8D9F8DA8A1B9A1281739074A075B07B3
:1021100009F485C18C818D838E8D9F8DA8A1B9A175
:102120008E839F83A887B9878D81882F90E0019641
:10213000292F2F938F938AE391E4892F8F938AE33A
:1021400091E48F931F928DE08F938EE293E4892F19
:102150008F938EE293E48F930E94395F2DB73EB741
:10216000285F3F4FCDBFDEBF6EE273E484ED93E4A2
:102170000E9445298D81882F90E0880F991F880F34
:10218000991F8E5D9A4BFC0180819181A281B38160
:102190008E8F9F8FA8A3B9A38E8D9F8DA8A1B9A163
:1021A000892B8A2B8B2B09F4D5C08E8D9F8DA8A1EE
:1021B000B9A19E01205A3F4FAC01BD01C9010E9447
:1021C000C6598FA998AD019709F069C0CE01805A10
:1021D0009F4F292F2F938F9388E491E4892F8F931A
:1021E00088E491E48F931F928DE08F938EE293E4C5
:1021F000892F8F938EE293E48F930E94395F2DB7DE
:102200003EB7285F3F4FCDBFDEBF6EE273E484ED83
:1022100093E40E9445298C81882F90E0865E9C4B38
:10222000FC018081882389F18C81882F90E0865E73
:102230009C4BFC018081282F30E0C901880F991F39
:10224000880F991F880F991F821B930B8F5A9D4BE4
:10225000292F2F938F9381E591E4892F8F9381E527
:1022600091E48F931F928DE08F938EE293E4892FF8
:102270008F938EE293E48F930E94395F2DB73EB720
:10228000285F3F4FCDBFDEBF5EC08DE0E8E5F1E4E3
:10229000AEE2B3E401900D928A95E1F754C08FA9A4
:1022A00098AD029701F5CE01805A9F4F292F2F93A9
:1022B0008F9385E691E4892F8F9385E691E48F9340
:1022C0001F928DE08F938EE293E4892F8F938EE29D
:1022D00093E48F930E94395F4DB75EB7485F5F4FBD
:1022E000CDBFDEBF30C08C81882F90E0865E9C4BD6
:1022F000FC018081282F30E0C901880F991F880FC9
:10230000991F880F991F821B930B8F5A9D4B292F62
:102310002F938F938EE691E4892F8F938EE691E42D
:102320008F931F928DE08F938EE293E4892F8F938A
:102330008EE293E48F930E94395F2DB73EB7285FFA
:102340003F4FCDBFDEBF6EE273E484ED93E40E94A5
:10235000452965C08DE0E7E7F1E4AEE2B3E4019022
:102360000D928A95E1F76EE273E484ED93E40E94A6
:10237000452955C089E0E4E8F1E4AEE2B3E4019018
:102380000D928A95E1F76EE273E484ED93E40E9486
:1023900045298DE0EDE8F1E4AEE2B3E401900D9261
:1023A0008A95E1F76EE273E484ED93E40E94452997
:1023B00037C06AE971E484ED93E40E94452963EA39
:1023C00071E484ED93E40E9445298EEA91E4892F1B
:1023D0008F938EEA91E48F9383EB91E4892F8F930F
:1023E00083EB91E48F938EE293E4892F8F938EE2B7
:1023F00093E48F930E94705F0F900F900F900F9057
:102400000F900F906EE273E484ED93E40E944529EF
:1024100007C0000005C0000003C0000001C00000AC
:1024200084ED93E40E94222821E0892B09F420E026
:10243000222309F44BC0CE0185599F4FAC016EE2B7
:1024400073E484ED93E40E94A829CE0185599F4F3F
:10245000FC01808191810397C8F180912E438BAF5D
:1024600080912F438CAF8BAD80538DAF8CAD80535B
:102470008EAF4EAD6DAD88EC93E40E94FA2BCE0189
:1024800085599F4FFC01808191819C012250310927
:10249000CE0185599F4FFC0120833183CE018559A0
:1024A0009F4FFC0180819181AC0160E373E488EC73
:1024B00093E40E94962CCE0185599F4FAC016EE2A9
:1024C00073E484ED93E40E94A829BFCF8091094072
:1024D00090910A40A0910B40B0910C4021E0892BD3
:1024E0008A2B8B2B09F020E02223F1F08DE090E085
:1024F0000E94C50921E00A9709F420E0222329F06F
:102500008AE090E00E94C5090FC084ED93E40E9428
:10251000222821E0892B09F020E0222329F00E94C3
:10252000970981E08093A0438091064090910740F5
:1025300021E0892B09F020E0222351F00E94970925
:1025400061E083E00E94A20161E087E00E94A201B5
:102550008091B6439091B74321E0892B09F420E0A4
:10256000222391F08091B6439091B74321E00197E7
:1025700009F020E0222321F48091B6439091B743E3
:102580001092B6431092B7438091C2438823A9F0BA
:102590001092C2438DE090E00E94C50921E0892B92
:1025A00009F020E0222329F084E090E00E94C50990
:1025B00004C080E090E00E94C5098091B0439091F2
:1025C000B14321E0892B09F420E0222309F47BC0E8
:1025D0008091B0439091B14321E0019709F020E050
:1025E000222321F48091B0439091B14390919F4375
:1025F00081E0992309F480E0882311F010929F4331
:102600008DE090E00E94C50921E0892B09F420E0CB
:10261000222309F44EC08B81882319F01B8281E0AC
:10262000898F8C81882F90E0880F991F880F991FC0
:102630008E5D9A4BFC0180819181A281B381892BAF
:102640008A2B8B2B89F561E08C810E940C1F8C8377
:102650008C818F3F19F41092714426C0809171448F
:10266000813011F58C81882F90E0880F991F880F99
:10267000991F8E5D9A4BFC0180819181A281B3816B
:102680008093644090936540A0936640B093674008
:102690008091644090916540A0916640B091674000
:1026A000BC01CD010E9466508CE090E00E94C509FB
:1026B00006C08B81882319F01B8281E0898F1092DC
:1026C000B0431092B1438091A8439091A943809167
:1026D000C043882309F461C08DE090E00E94C509E1
:1026E00021E0892B09F420E0222309F44EC08B81DC
:1026F000882319F01B8281E0898F8C81882F90E0DC
:10270000880F991F880F991F8E5D9A4BFC0180815D
:102710009181A281B381892B8A2B8B2B89F561E072
:102720008C810E940C1F8C838C818F3F19F4109236
:10273000714426C080917144813011F58C81882FBD
:1027400090E0880F991F880F991F8E5D9A4BFC01AE
:1027500080819181A281B381809364409093654090
:10276000A0936640B093674080916440909165402B
:10277000A0916640B0916740BC01CD010E946650B7
:1027800080E090E00E94C50906C08B81882319F083
:102790001B8281E0898F1092C0438091B243909157
:1027A000B34321E0892B09F420E0222309F493C0EC
:1027B0008091B2439091B34321E0019709F020E06A
:1027C000222341F041E060E070E083ED93E40E9459
:1027D000924814C08091B2439091B34321E0029794
:1027E00009F020E0222351F08091C743882331F083
:1027F0009091234081E089278093234090919F43CB
:1028000081E0992309F480E0882311F010929F431E
:102810008DE090E00E94C50921E0892B09F420E0B9
:10282000222309F44EC08B81882319F01B8281E09A
:10283000898F8C81882F90E0880F991F880F991FAE
:102840008E5D9A4BFC0180819181A281B381892B9D
:102850008A2B8B2B89F561E08C810E940C1F8C8365
:102860008C818F3F19F41092714426C0809171447D
:10287000813011F58C81882F90E0880F991F880F87
:10288000991F8E5D9A4BFC0180819181A281B38159
:102890008093644090936540A0936640B0936740F6
:1028A0008091644090916540A0916640B0916740EE
:1028B000BC01CD010E9466508CE090E00E94C509E9
:1028C00006C08B81882319F01B8281E0898F1092CA
:1028D000B2431092B3438091AA439091AB4380914D
:1028E000C143882309F461C08DE090E00E94C509CE
:1028F00021E0892B09F420E0222309F44EC08B81CA
:10290000882319F01B8281E0898F8C81882F90E0C9
:10291000880F991F880F991F8E5D9A4BFC0180814B
:102920009181A281B381892B8A2B8B2B89F561E060
:102930008C810E940C1F8C838C818F3F19F4109224
:10294000714426C080917144813011F58C81882FAB
:1029500090E0880F991F880F991F8E5D9A4BFC019C
:1029600080819181A281B38180936440909365407E
:10297000A0936640B0936740809164409091654019
:10298000A0916640B0916740BC01CD010E946650A5
:1029900080E090E00E94C50906C08B81882319F071
:1029A0001B8281E0898F1092C1438091B443909142
:1029B000B54321E0892B09F420E0222309F43DC12D
:1029C0008091B4439091B54321E0019709F020E054
:1029D0002223D1F180917144882341F461E08C81FC
:1029E0000E940C1F8F3F11F081E001C080E088231E
:1029F00031F181E0809371448C81882F90E0880FC1
:102A0000991F880F991F8E5D9A4BFC0180819181DF
:102A1000A281B3818093644090936540A093664007
:102A2000B09367408091644090916540A09166406A
:102A3000B0916740BC01CD010E94665002C0109267
:102A4000714481E0898FF5C08091B4439091B54382
:102A500021E0029709F020E0222309F4B7C08DE0BD
:102A600090E00E94C509092E000CAA0BBB0B883010
:102A70009105A105B10508F0D7C08E5B9A4EFC0107
:102A80000C94C15D4A158315DC15E1154F157415BD
:102A900079157E1581E08B8381E0898FCAC08C8592
:102AA0009D85892B29F481E090E00E94C509BEC074
:102AB0008C859D85019771F460E081E00E944F2133
:102AC00080E096E027E0FC01208785E090E00E940E
:102AD000C509ACC08C859D85069709F0A7C089E023
:102AE00090E00E94C509A2C086E090E00E94C5095E
:102AF000A0C087E090E00E94C5099BC08CE090E0F8
:102B00000E94C50996C082E090E00E94C5098C81B0
:102B1000882F90E0880F991F880F991F8E5D9A4B20
:102B2000FC0180819181A281B381892B8A2B8B2B1F
:102B300009F07EC08091644090916540A09166400C
:102B4000B091674081309940AD43B10568F4809100
:102B5000644090916540A0916640B0916740803E8E
:102B60009746A543B10510F481E001C080E08823B9
:102B700061F080E39BE2A6E3B0E080936440909331
:102B80006540A0936640B09367408C81282F30E069
:102B90008091644090916540A0916640B0916740FB
:102BA000220F331F220F331F2E5D3A4BF901808312
:102BB0009183A283B3833CC083E090E00E94C50967
:102BC00038C08CE090E00E94C50933C08091B443C6
:102BD0009091B54321E0039709F020E0222349F1C9
:102BE0008DE090E00E94C50921E0029709F020E005
:102BF0002223F9F08C81882F90E0880F991F880F8D
:102C0000991F8E5D9A4BFC011082118212821382F1
:102C10008C81882F90E0865E9C4BFC0110828CE0BA
:102C200090E00E94C50905C0000003C0000001C07B
:102C300000001092B4431092B5438091AC43909140
:102C4000AD438091C343882311F01092C343909108
:102C5000C74381E08927882309F01B8E8091964322
:102C60009091974321E0892B09F420E0222309F475
:102C7000D1C3809108408FAF8CE390E080930640F1
:102C8000909307408091C7438B8F8091964390919A
:102C90009743892F881F8827881F882309F4DFC15D
:102CA0008DE090E00E94C509092E000CAA0BBB0B19
:102CB00088309105A105B10508F0C4C18D59994E20
:102CC000FC010C94C15D6B161F177B17D0171518EC
:102CD0002218F01702188B81882309F472C08091A2
:102CE0007144882309F040C0809164409091654010
:102CF000A0916640B091674021E081159940AD43B5
:102D0000B10508F020E0222309F449C08091C743AF
:102D10008823A9F08091644090916540A09166401D
:102D2000B091674088519C4FAF4FBF4F8093644034
:102D300090936540A0936640B093674030C0809107
:102D4000644090916540A0916640B09167408C5975
:102D50009F4FAF4FBF4F8093644090936540A093C7
:102D60006640B09367401BC061E08C810E940C1FDD
:102D70008C838C81882F90E0880F991F880F991F72
:102D80008E5D9A4BFC0180819181A281B3818093F9
:102D9000644090936540A0936640B09367408091F3
:102DA000644090916540A0916640B0916740BC013D
:102DB000CD010E946650809113448F5F809313442D
:102DC0002BC08091C4438823C9F080912140909109
:102DD000224021E00A9708F020E02223E9F08091C8
:102DE000214090912240019680932140909322406F
:102DF000809113448F5F809313440EC08FAD88235E
:102E000059F08FAD81508FAF8FAD0E94B656809133
:102E100013448F5F8093134480E090E00E94F1524E
:102E2000DC01CB018093644090936540A0936640A1
:102E3000B09367400E94EA568093084006C18C8197
:102E40008F5F8C838C81843108F01C8281E0898FB4
:102E50008C81882F90E09E012C5B3F4F880F991F3B
:102E6000880F991F8E5D9A4BFC0180819181A28110
:102E7000B381F90180839183A283B383CE018C5BFC
:102E80009F4FFC0180819181A281B381811599407E
:102E9000AD43B10518F5CE018C5B9F4FFC018081DD
:102EA0009181A281B381813E9746A543B105B0F0DF
:102EB0008C81882F90E0880F991F880F991F8E5D55
:102EC0009A4BFC0180819181A281B38180936440FF
:102ED00090936540A0936640B093674080916440B2
:102EE00090916540A0916640B0916740BC01CD01D2
:102EF0000E946650AAC08091644090916540A09164
:102F00006640B091674021E081159940AD43B1051D
:102F100008F020E0222369F18091C7438823A9F0BB
:102F20008091644090916540A0916640B091674067
:102F300088519C4FAF4FBF4F809364409093654042
:102F4000A0936640B093674014C080916440909114
:102F50006540A0916640B09167408C599F4FAF4F3C
:102F6000BF4F8093644090936540A0936640B093B8
:102F700067408C81282F30E08091644090916540BB
:102F8000A0916640B0916740220F331F220F331F7C
:102F90002E5D3A4BF90180839183A283B38355C0A0
:102FA0008C81882F90E0865E9C4BFC0180818AA3F7
:102FB0008AA18F5F8AA381E09AA1983108F480E00A
:102FC000882309F01AA28C81882F90E0865E9C4BA2
:102FD0002AA1FC0120831E821F821886198635C013
:102FE000809154408BA38BA18F5F8BA381E09BA129
:102FF000943608F480E0882309F01BA28BA180930B
:10300000544023C0809155408CA38CA18F5F8CA32A
:1030100081E09CA1943608F480E0882311F083E6D7
:103020008CA38CA18093554010C08C85882F90E094
:1030300001968C879D878C859D85079729F41C8632
:103040001D8602C0000001C000008091964390914F
:10305000974301968093964390939743DBC18DE00D
:1030600090E00E94C509092E000CAA0BBB0B88300A
:103070009105A105B10508F0C1C18E5B974EFC0119
:103080000C94C15D4A18FE185C19B219ED19FE19AD
:10309000D019E0198B81882309F472C080917144A2
:1030A000882309F040C08091644090916540A091D0
:1030B0006640B091674021E0813E9746A543B10547
:1030C00008F420E0222309F449C08091C7438823F3
:1030D000A9F08091644090916540A0916640B091C4
:1030E0006740885E9340A109B10980936440909342
:1030F0006540A0936640B093674030C080916440C3
:1031000090916540A0916640B091674084569109C6
:10311000A109B1098093644090936540A0936640F3
:10312000B09367401BC060E08C810E940C1F8C83B1
:103130008C81882F90E0880F991F880F991F8E5DD2
:103140009A4BFC0180819181A281B381809364407C
:1031500090936540A0936640B0936740809164402F
:1031600090916540A0916640B0916740BC01CD014F
:103170000E946650809113448F5F809313442BC04C
:103180008091C4438823C9F08091214090912240CE
:1031900021E0029708F420E02223E9F08091214009
:1031A00090912240019780932140909322408091FA
:1031B00013448F5F809313440EC08FAD8A3058F450
:1031C0008FAD8F5F8FAF8FAD0E94B6568091134445
:1031D0008F5F8093134480E090E00E94F152DC0105
:1031E000CB018093644090936540A0936640B09378
:1031F00067400E94EA568093084003C18C8188236F
:1032000019F483E18C8303C08C8181508C838C8181
:10321000882F90E09E01205C3F4F880F991F880FF8
:10322000991F8E5D9A4BFC0180819181A281B381AF
:10323000F90180839183A283B38381E0898FCE01DA
:10324000805C9F4FFC0180819181A281B3818115B7
:103250009940AD43B10518F5CE01805C9F4FFC014C
:1032600080819181A281B381813E9746A543B105BA
:10327000B0F08C81882F90E0880F991F880F991FDC
:103280008E5D9A4BFC0180819181A281B3818093F4
:10329000644090936540A0936640B09367408091EE
:1032A000644090916540A0916640B0916740BC0138
:1032B000CD010E946650A5C0809164409091654008
:1032C000A0916640B091674021E0813E9746A543BA
:1032D000B10508F420E0222309F492C08091C7438D
:1032E0008823A9F08091644090916540A091664048
:1032F000B0916740885E9340A109B1098093644012
:1033000090936540A0936640B093674014C080914D
:10331000644090916540A0916640B09167408456AA
:103320009109A109B1098093644090936540A093ED
:103330006640B09367408C81282F30E080916440D4
:1033400090916540A0916640B0916740220F331F75
:10335000220F331F2E5D3A4BF90180839183A283A4
:10336000B3834EC08C81882F90E0865E9C4BFC011D
:1033700080818DA38DA1882321F08DA181508DA303
:1033800002C087E18DA38C81882F90E0865E9C4BE4
:103390002DA1FC0120831E821F821886198631C050
:1033A000809154408EA38EA1882321F08EA181505C
:1033B0008EA302C083E68EA38EA18093544021C0C9
:1033C000809155408FA38FA1882319F08FA1815040
:1033D0008FA38FA18093554014C08C8588A788A5A2
:1033E000882321F088A5815088A702C086E088A79D
:1033F00088A5882F90E08C879D8703C0000001C0BE
:103400000000809196439091974301978093964353
:103410009093974384E594E40E94A543882309F49C
:10342000FDC1CE0183599F4FFC011082118280E0C3
:1034300090E8ABE1B4E4AC01BD0184E594E40E9402
:1034400000428E01085B1F4FCE0183599F4FBC0184
:1034500084E594E40E94B343DC01CB01F80180834E
:103460009183A283B383CE0183599F4FFC012081B6
:103470003181CE01845B9F4F41E0233331050CF451
:1034800040E0FC014083CE01845B9F4FFC019081B2
:1034900081E08927882309F4C1C1809131408823C4
:1034A00009F453C080913140815080933140809124
:1034B000504490915144A0915244B0915344BE0164
:1034C000685B7F4F9C01AD01FB016081718182814E
:1034D00093810E946E5C181684F4CE01885B9F4F26
:1034E000FC0180819181A281B381809350449093AB
:1034F0005144A0935244B0935344809132409091F0
:103500003340A0913440B0913540BE01685B7F4F9D
:103510009C01AD01FB0160817181828193810E94D8
:10352000BD5A88230CF07AC1CE01885B9F4FFC0105
:1035300080819181A281B381809332409093334006
:10354000A0933440B093354069C11DA61EA680915A
:10355000504490915144A0915244B0915344BE01C3
:10356000685B7F4F9C01AD01FB01608171818281AD
:1035700093810E946E5C1816B4F58091504490912E
:103580005144A0915244B091534420E030E040EACD
:1035900050E4BC01CD010E94CB5CDC01CB017C017D
:1035A0008D01CE01885B9F4FFC01208131814281DA
:1035B0005381C801B7010E94515ADC01CB0120E0C0
:1035C00030E040EC50E4BC01CD010E94C75ADC0160
:1035D000CB018093504490935144A0935244B093B4
:1035E000534481E08DA78091324090913340A09167
:1035F0003440B0913540BE01685B7F4F9C01AD0106
:10360000FB0160817181828193810E94BD5A882370
:10361000B4F58091324090913340A0913440B09104
:10362000354020E030E040EA50E4BC01CD010E948A
:10363000CB5CDC01CB017C018D01CE01885B9F4F0F
:10364000FC012081318142815381C801B7010E9470
:10365000515ADC01CB0120E030E040EC50E4BC01E9
:10366000CD010E94C75ADC01CB0180933240909378
:103670003340A0933440B093354081E08EA79DA5A0
:1036800081E08927882309F46FC09EA581E08927FE
:10369000882309F469C08091504490915144A091CD
:1036A0005244B091534420E030E048E452E4BC017D
:1036B000CD010E94CB5CDC01CB017C018D01CE01F0
:1036C000885B9F4FFC012081318142815381C80179
:1036D000B7010E94515ADC01CB0120E030E04CE4FC
:1036E00052E4BC01CD010E94C75ADC01CB0180939A
:1036F000504490935144A0935244B09353448091CA
:10370000324090913340A0913440B091354020E058
:1037100030E048E452E4BC01CD010E94CB5CDC0106
:10372000CB017C018D01CE01885B9F4FFC01208184
:10373000318142815381C801B7010E94515ADC0195
:10374000CB0120E030E04CE452E4BC01CD010E940A
:10375000C75ADC01CB018093324090933340A09351
:103760003440B093354024C08091504490915144EE
:10377000A0915244B0915344209132403091334053
:103780004091344050913540BC01CD010E94515AC6
:10379000DC01CB0120E030E040E050E4BC01CD0191
:1037A0000E94C75ADC01CB0189A79AA7ABA7BCA787
:1037B000CE01885B9F4F29A53AA54BA55CA5FC01CE
:1037C00060817181828193810E946E5C181634F54C
:1037D0008091504490915144A0915244B0915344EF
:1037E000BC01CD010E94735CDC01CB0120E030E024
:1037F00040E251E4BC01CD010E94CB5CDC01CB0175
:10380000BC01CD010E94405BDC01CB018093A4434D
:103810009093A543A093A643B093A7438091A04360
:10382000882311F40C94510C83ED93E40E944B48CF
:103830000E94F25860E083E00E94A2010E94192ECB
:1038400082E090E00E94DA5581E08093A1431092DB
:103850000D4010920E408091A043882309F180E52D
:1038600090E0FC018081897F282F226080E590E034
:10387000FC012083F89480E590E0FC01208180E544
:1038800090E02160FC0120837894889580E590E0A9
:10389000FC01208180E590E02E7FFC012083DBCFBE
:1038A0001092A1430E94980161E083E00E94A2016E
:1038B0000E941C5980910D4090910E400C94510C27
:1038C000CF92DF92EF92FF920F931F93CF93DF93EC
:1038D000CDB7DEB72897CDBFDEBF8F83988786E34D
:1038E00090E48D839E838F819885892B61F08F81F1
:1038F0009885FC0180819181A281B38189839A831B
:10390000AB83BC8318C080911D4090911E40880FEE
:10391000991F8E559C4BFC0180819181CC01A0E0C8
:10392000B0E0BC01CD010E946F5BDC01CB0189835B
:103930009A83AB83BC8320E030E84BE554E4698193
:103940007A818B819C810E94BD5A18162CF01982B5
:103950001A821B821C821AC020E030E84BE554E436
:1039600069817A818B819C810E94505ADC01CB0154
:1039700026E636E646E350E4BC01CD010E94C75A74
:10398000DC01CB0189839A83AB83BC8320E030E0E8
:1039900048EC52E469817A818B819C810E946E5C43
:1039A000181644F480E090E0A8ECB2E489839A838E
:1039B000AB83BC8320E030E040E752E469817A8148
:1039C0008B819C810E94CB5CDC01CB016C017D0171
:1039D00080915440882F90E09C012F5F3F4F42E33D
:1039E000429FC001439F900D1124092E000CAA0B89
:1039F000BB0BBC01CD010E94715BDC01CB019C01C2
:103A0000AD01C701B6010E94CB5CDC01CB0120E017
:103A100030E44CE955E4BC01CD010E94C75ADC01F9
:103A2000CB0189839A83AB83BC8389819A81AB81E3
:103A3000BC8106E310E420E043E0BC01CD010E941C
:103A4000E45D10923A4086E390E40E94BC1E8D83B0
:103A50009E838D819E812896CDBFDEBFDF91CF9161
:103A60001F910F91FF90EF90DF90CF9008950F93EB
:103A70001F93CF93DF93CDB7DEB72C97CDBFDEBFBB
:103A80006F83788789879A874B875C878DE390E47B
:103A90008D839E8320E030E84BE554E46F81788588
:103AA00089859A850E94BD5A18162CF019821A82AF
:103AB0001B821C821AC020E030E84BE554E46F8181
:103AC000788589859A850E94505ADC01CB0126E6CB
:103AD00036E646E350E4BC01CD010E94C75ADC0142
:103AE000CB0189839A83AB83BC8320E030E048EC30
:103AF00052E469817A818B819C810E946E5C1816E8
:103B000044F480E090E0A8ECB2E489839A83AB832C
:103B1000BC838B859C85892B59F02B853C858981BD
:103B20009A81AB81BC81F90180839183A283B383A5
:103B300089819A81AB81BC810DE310E420E042E0F1
:103B4000BC01CD010E94E45D109240408DE390E401
:103B50000E94BC1E8D839E838D819E812C96CDBF3D
:103B6000DEBFDF91CF911F910F9108950F931F93A7
:103B7000CF93DF93CDB7DEB72997CDBFDEBF8F835D
:103B80006887798788E490E48D839E83888599850A
:103B9000892B61F088859985FC0180819181A281C2
:103BA000B38189839A83AB83BC8318C080911D4005
:103BB00090911E40880F991F8E559C4BFC0180816F
:103BC0009181CC01A0E0B0E0BC01CD010E946F5B0F
:103BD000DC01CB0189839A83AB83BC8320E030E096
:103BE00040E953E469817A818B819C810E94CB5C9E
:103BF000DC01CB0189839A83AB83BC8320E030E076
:103C000040E855E469817A818B819C810E94C75A82
:103C1000DC01CB0189839A83AB83BC8320E030E055
:103C200040E050E469817A818B819C810E94515AE5
:103C3000DC01CB0189839A83AB83BC83888599851A
:103C4000892B69F089819A81AB81BC818093444042
:103C500090934540A0934640B09347402EC080913A
:103C6000444090914540A0914640B091474020E0AB
:103C700030E040E151E4BC01CD010E94CB5CDC01AD
:103C8000CB0129813A814B815C81BC01CD010E942D
:103C9000515ADC01CB0120E030E040E251E4BC01AC
:103CA000CD010E94C75ADC01CB0180934440909320
:103CB0004540A0934640B093474020E030E0A90142
:103CC00069817A818B819C810E946E5C88230CF4CF
:103CD00049C020E030E044E353E469817A818B817C
:103CE0009C810E94BD5A1816ECF18F81882329F11E
:103CF0008091444090914540A0914640B09147400A
:103D000020E030E040E251E4BC01CD010E94C75AFE
:103D1000DC01CB0108E410E422E045E0BC01CD0168
:103D20000E94E45D10924E4088E490E40E94BC1E24
:103D30008D839E838D819E8117C080914440909198
:103D40004540A0914640B091474008E410E420E08F
:103D500044E0BC01CD010E94E45D10924D4088E436
:103D600090E402C088E490E42996CDBFDEBFDF91E5
:103D7000CF911F910F910895CF93DF9300D000D082
:103D8000CDB7DEB78B839C838B819C81FC018081C6
:103D9000882F90E00E94275F892B31F08B819C81D6
:103DA00001968B839C83F0CF8B819C81FC01808169
:103DB000882319F48B819C8129C08B819C810E946E
:103DC000305F01972B813C81820F931F89839A83F7
:103DD00029813A818B819C818217930780F48981A4
:103DE0009A81FC018081882F90E00E94275F892BB7
:103DF00031F089819A81019789839A83E9CF8981FA
:103E00009A810196FC0110828B819C812496CDBF02
:103E1000DEBFDF91CF910895CF93DF93CDB7DEB7AB
:103E20002597CDBFDEBF8C836D838C818B831982F8
:103E30001A828D81882339F18A81882309F04AC04A
:103E40008981843108F046C089818F5F89838B81A5
:103E50008F5F8B838B81843108F01B828B81882F4D
:103E600090E0880F991F880F991F8E5D9A4BFC0177
:103E700080819181A281B381892B8A2B8B2BE1F2E6
:103E800081E08A83D9CF8A81882321F58981843191
:103E900008F589818F5F89838B81882321F08B814D
:103EA00081508B8302C083E18B838B81882F90E0CC
:103EB000880F991F880F991F8E5D9A4BFC01808196
:103EC0009181A281B381892B8A2B8B2BE1F281E036
:103ED0008A83D9CF9A8181E08927882311F08FEFD7
:103EE0008B838B812596CDBFDEBFDF91CF91089567
:103EF000CF93DF9300D000D0CDB7DEB789839A830C
:103F00006B837C8389819A810197B1F48B819C8139
:103F1000019691F488EC93E40E94C02A83ED93E427
:103F20000E94B04664E670E084ED93E40E94862728
:103F30008EED93E40E94352E89819A81892B81F43C
:103F40008B819C81019661F48EED93E40E94422E58
:103F500084ED93E40E94BA2783ED93E40E94BD466A
:103F600000002496CDBFDEBFDF91CF910895CF939F
:103F7000DF93CDB7DEB76FEF7FEF81E090E00E9477
:103F8000781FDF91CF910895CF93DF93CDB7DEB740
:103F90006FEF7FEF80E090E00E94781FDF91CF917C
:103FA0000895CF93DF93CDB7DEB7809155449091BC
:103FB0005644892B29F080E096E021E0FC0122871D
:103FC0000000DF91CF910895CF93DF93CDB7DEB797
:103FD00080E096E0FC018585882F90E0817099272C
:103FE00021E0892B09F420E0822FDF91CF91089501
:103FF000CF93DF93CDB7DEB780E694E0FC01208954
:1040000080E694E0287FFC01208B80E694E0FC01B0
:10401000208980E694E02460FC01208B80E694E017
:10402000FC01218980E694E0287FFC01218B80E659
:1040300094E0FC01218980E694E02460FC01218B5E
:1040400080E694E0FC01228980E694E0287FFC0170
:10405000228B80E694E0FC01228980E694E02460D3
:10406000FC01228B80E694E0FC01238980E694E049
:10407000287FFC01238B80E694E0FC01238980E605
:1040800094E02460FC01238B80E694E0FC01248909
:1040900080E694E0287FFC01248B80E694E0FC011C
:1040A000248980E694E02460FC01248B80E694E07F
:1040B000FC01258980E694E0287FFC01258B80E6C1
:1040C00094E0FC01258980E694E02460FC01258BC6
:1040D00080E694E0FC01278980E694E0287FFC01DB
:1040E000278B80E694E0FC01278980E694E0246039
:1040F000FC01278B80E694E0FC01208980E694E0B7
:10410000277FFC01208B80E694E0FC01218980E67A
:1041100094E0277FFC01218B80E694E0FC0122895A
:1041200080E694E0277FFC01228B80E694E0FC018E
:10413000238980E694E0277FFC01238B80E694E0CE
:10414000FC01248980E694E0277FFC01248B80E633
:1041500094E0FC01258980E694E0277FFC01258B13
:1041600080E694E0FC01278980E694E0277FFC014B
:10417000278B0000DF91CF910895CF93DF931F929B
:10418000CDB7DEB7898389818823D9F080EA90E0B2
:1041900021E8FC01208380E096E02CE0FC012283F2
:1041A00080E096E023E0FC01208380E096E021E0BF
:1041B000FC01248781E090E080935544909356441D
:1041C0001AC080EA90E021E8FC01208380E096E0BC
:1041D0002CE0FC01228380E096E027E0FC012083B4
:1041E00080E096E021E0FC01248781E090E080936C
:1041F00055449093564400000F90DF91CF9108955D
:10420000CF93DF931F92CDB7DEB78983898188234F
:1042100019F180EA90E021E0FC01208380E096E043
:104220002CE0FC01228380E096E0FC01208180E00C
:1042300096E02160FC01208380E096E0FC0124856B
:1042400080E096E02E7FFC01248782E090E080935E
:104250005544909356441EC080EA90E021E0FC0152
:10426000208380E096E02CE0FC01228380E096E051
:1042700025E0FC01208380E096E0FC01248580E0BD
:1042800096E02E7FFC01248782E090E080935544E5
:104290009093564400000F90DF91CF910895CF93F3
:1042A000DF9300D0CDB7DEB789836A830E94F81F01
:1042B0008A81882321F089810E94BD2033C080E05B
:1042C00096E0FC01248580E096E02E7FFC012487A7
:1042D00080E096E0FC018081882F90E08270992731
:1042E00021E0892B09F420E02223A9F062E070E0AC
:1042F00080E090E00E945D57882349F00E94E41F0F
:10430000982F81E08927882311F081E001C080E0A7
:10431000882309F0EBCF80E096E0FC0110828981D0
:104320000E94002100000F900F90DF91CF9108951F
:104330000F931F93CF93DF9300D000D0CDB7DEB79C
:1043400089839A836B837C8389819A81019781F425
:104350008B819C81019661F400E014E029E536E44C
:1043600040E050E06AEC72E484E594E40E94554138
:1043700089819A81892B41F48B819C81019621F45A
:1043800084E594E40E94ED4100002496CDBFDEBF99
:10439000DF91CF911F910F910895CF93DF93CDB708
:1043A000DEB76FEF7FEF81E090E00E949821DF9110
:1043B000CF910895CF93DF93CDB7DEB76FEF7FEF47
:1043C00080E090E00E949821DF91CF910895CF93F3
:1043D000DF93CDB7DEB72597CDBFDEBF8B836C8370
:1043E0007D838B81882F90E0805F9B4F89839A83A8
:1043F0008C819D81019759F489819A81FC0180818A
:10440000282F286089819A81FC0120830EC08C812D
:104410009D81892B51F489819A81FC018081282F0B
:10442000277F89819A81FC01208300002596CDBFDA
:10443000DEBFDF91CF910895CF93DF9300D01F921D
:10444000CDB7DEB789836A837B838A819B81813084
:104450009105E9F08230910581F1892B09F03DC089
:1044600080E090E0FC018081482F8981282F30E096
:1044700081E090E002C0880F991F2A95E2F78095AD
:10448000242F282380E090E0FC01208326C080E0D8
:1044900090E0FC018081482F8981282F30E081E065
:1044A00090E002C0880F991F2A95E2F7242F282B4D
:1044B00080E090E0FC01208310C08981882F90E08B
:1044C000805F9B4FFC0120818981882F90E0805F75
:1044D0009B4F2860FC012083000000002396CDBF85
:1044E000DEBFDF91CF910895CF93DF9300D0CDB79A
:1044F000DEB789836A838A818823B1F080E090E007
:10450000FC018181482F8981282F30E081E090E0F3
:1045100002C0880F991F2A95E2F7242F282B80E0EC
:1045200090E0FC01218316C080E090E0FC018181D5
:10453000482F8981282F30E081E090E002C0880F69
:10454000991F2A95E2F78095242F282380E090E098
:10455000FC01218300000F900F90DF91CF9108950F
:10456000CF93DF93CDB7DEB780E090E0FC0182818E
:10457000DF91CF910895CF93DF9300D01F92CDB7F5
:10458000DEB789836A837B838A819B818130910531
:10459000E9F08230910581F1892B09F03DC084E07A
:1045A00090E0FC018081482F8981282F30E081E054
:1045B00090E002C0880F991F2A95E2F78095242F7A
:1045C000282384E090E0FC01208326C084E090E072
:1045D000FC018081482F8981282F30E081E090E024
:1045E00002C0880F991F2A95E2F7242F282B84E018
:1045F00090E0FC01208310C08981882F90E0805DCD
:104600009B4FFC0120818981882F90E0805D9B4F2A
:104610002860FC012083000000002396CDBFDEBF90
:10462000DF91CF910895CF93DF9300D0CDB7DEB760
:1046300089836A838A818823B1F084E090E0FC0159
:104640008181482F8981282F30E081E090E002C0ED
:10465000880F991F2A95E2F7242F282B84E090E0F9
:10466000FC01218316C084E090E0FC018181482F89
:104670008981282F30E081E090E002C0880F991FE7
:104680002A95E2F78095242F282384E090E0FC010E
:10469000218300000F900F90DF91CF910895CF9369
:1046A000DF93CDB7DEB72597CDBFDEBF8B836C839D
:1046B0007D838B81882F90E0805B9B4F89839A83D9
:1046C0008C819D81019759F489819A81FC018081B7
:1046D000282F286089819A81FC0120830EC08C815B
:1046E0009D81892B51F489819A81FC018081282F39
:1046F000277F89819A81FC01208300002596CDBF08
:10470000DEBFDF91CF910895CF93DF9300D01F924A
:10471000CDB7DEB789836A837B838A819B818130B1
:104720009105E9F08230910581F1892B09F03DC0B6
:1047300088E090E0FC018081482F8981282F30E0BB
:1047400081E090E002C0880F991F2A95E2F78095DA
:10475000242F282388E090E0FC01208326C088E0F5
:1047600090E0FC018081482F8981282F30E081E092
:1047700090E002C0880F991F2A95E2F7242F282B7A
:1047800088E090E0FC01208310C08981882F90E0B0
:10479000805B9B4FFC0120818981882F90E0805BAA
:1047A0009B4F2860FC012083000000002396CDBFB2
:1047B000DEBFDF91CF910895CF93DF9300D0CDB7C7
:1047C000DEB789836A838A818823B1F088E090E02C
:1047D000FC018181482F8981282F30E081E090E021
:1047E00002C0880F991F2A95E2F7242F282B88E012
:1047F00090E0FC01218316C088E090E0FC018181FB
:10480000482F8981282F30E081E090E002C0880F96
:10481000991F2A95E2F78095242F282388E090E0BD
:10482000FC01218300000F900F90DF91CF9108953C
:10483000CF93DF9300D01F92CDB7DEB789836A8311
:104840007B838A819B8181309105E9F082309105DB
:1048500081F1892B09F03DC080E190E0FC0180816D
:10486000482F8981282F30E081E090E002C0880F36
:10487000991F2A95E2F78095242F282380E190E064
:10488000FC01208326C080E190E0FC018081482F5C
:104890008981282F30E081E090E002C0880F991FC5
:1048A0002A95E2F7242F282B80E190E0FC01208359
:1048B00010C08981882F90E080579B4FFC01208198
:1048C0008981882F90E080579B4F2860FC012083CE
:1048D000000000002396CDBFDEBFDF91CF91089589
:1048E000CF93DF9300D0CDB7DEB789836A838A8107
:1048F0008823B1F080E190E0FC018181482F89811B
:10490000282F30E081E090E002C0880F991F2A959F
:10491000E2F7242F282B80E190E0FC01218316C0D0
:1049200080E190E0FC018181482F8981282F30E0CF
:1049300081E090E002C0880F991F2A95E2F78095E8
:10494000242F282380E190E0FC01218300000F90B8
:104950000F90DF91CF910895CF93DF93CDB7DEB75E
:104960002597CDBFDEBF8B836C837D838B81882FA2
:1049700090E080559B4F89839A838C819D8101971C
:1049800059F489819A81FC018081282F28608981CE
:104990009A81FC0120830EC08C819D81892B51F46A
:1049A00089819A81FC018081282F277F89819A81C2
:1049B000FC01208300002596CDBFDEBFDF91CF91A3
:1049C0000895CF93DF9300D01F92CDB7DEB78983D0
:1049D0006A837B838A819B8181309105E9F08230F3
:1049E000910581F1892B09F03DC084E190E0FC0143
:1049F0008081482F8981282F30E081E090E002C03B
:104A0000880F991F2A95E2F78095242F282384E1A7
:104A100090E0FC01208326C084E190E0FC018081CD
:104A2000482F8981282F30E081E090E002C0880F74
:104A3000991F2A95E2F7242F282B84E190E0FC01AE
:104A4000208310C08981882F90E080559B4FFC0106
:104A500020818981882F90E080559B4F2860FC0140
:104A60002083000000002396CDBFDEBFDF91CF91F1
:104A70000895CF93DF9300D0CDB7DEB789836A83E3
:104A80008A818823B1F084E190E0FC018181482F84
:104A90008981282F30E081E090E002C0880F991FC3
:104AA0002A95E2F7242F282B84E190E0FC01218352
:104AB00016C084E190E0FC018181482F8981282F74
:104AC00030E081E090E002C0880F991F2A95E2F75C
:104AD0008095242F282384E190E0FC0121830000AD
:104AE0000F900F90DF91CF910895CF93DF93CDB7C3
:104AF000DEB784E190E0FC018281DF91CF910895DF
:104B0000CF93DF93CDB7DEB780915B4480935C4455
:104B100080915A4480935B448091584480935944D7
:104B200080915744809358440E94B0228093574408
:104B30000E94752580935A449091574480915D441A
:104B400098272091584480915D4482279823209192
:104B5000594480915D448227982380915D44892740
:104B600080935D4490915A4480915E4498272091AF
:104B70005B4480915E448227982320915C4480911D
:104B80005E448227982380915E44892780935E4407
:104B90000000DF91CF910895CF93DF93CDB7DEB7BB
:104BA00080915D44DF91CF910895CF93DF93CDB78E
:104BB000DEB760E070E080E00E941C2261E070E0FF
:104BC00080E00E94E72160E070E081E00E941C220A
:104BD00061E070E081E00E94E72160E070E082E047
:104BE0000E941C2261E070E082E00E94E72161E007
:104BF00070E083E00E941C2261E083E00E94742246
:104C000060E070E084E00E941C2261E070E084E0DB
:104C10000E94E72161E070E085E00E941C2260E0D4
:104C200085E00E94742261E070E086E00E941C2210
:104C300060E086E00E94742261E070E087E00E94FC
:104C40001C2261E087E00E94742261E070E084E051
:104C50000E94BB2261E084E00E94132360E070E0C8
:104C600082E00E94842361E070E082E00E944F2392
:104C700060E070E083E00E94842361E070E083E004
:104C80000E944F2361E070E084E00E94842360E092
:104C900084E00E94DC2361E070E085E00E948423D0
:104CA00060E085E00E94DC2360E070E080E00E942C
:104CB000182460E070E081E00E94182461E070E058
:104CC00082E00E94182460E082E00E94702460E08C
:104CD00070E083E00E94182462E070E080E00E94AF
:104CE000E12462E070E081E00E94E12460E070E095
:104CF00082E00E94E12461E070E082E00E94AC2446
:104D000060E070E083E00E94E12460E070E084E015
:104D10000E94E12460E070E085E00E94E12461E00F
:104D200070E085E00E94AC2462E070E086E00E94C2
:104D3000E12480EA94E0FC01238980EA94E0216088
:104D4000FC01238B80EA94E0FC01248980EA94E052
:104D50002160FC01248B80EA94E028E1FC0121879A
:104D60000000DF91CF910895CF93DF93CDB7DEB7E9
:104D700060E070E080E00E941C2260E070E080E073
:104D80000E94E72160E070E081E00E941C2260E068
:104D900070E081E00E94E72160E070E082E00E9424
:104DA0001C2260E070E082E00E94E72161E070E098
:104DB00083E00E941C2260E083E00E94742260E095
:104DC00070E084E00E941C2260E070E084E00E94B9
:104DD000E72161E070E085E00E941C2260E085E050
:104DE0000E94742261E070E086E00E941C2260E074
:104DF00086E00E94742261E070E087E00E941C223D
:104E000060E087E00E94742261E070E084E00E942C
:104E1000BB2260E084E00E94132360E070E082E047
:104E20000E94842361E070E082E00E944F2360E0F2
:104E300070E083E00E94842361E070E083E00E94E0
:104E40004F2361E070E084E00E94842360E084E00E
:104E50000E94DC2361E070E085E00E94842360E032
:104E600085E00E94DC2360E070E080E00E9418246E
:104E700060E070E081E00E94182461E070E082E070
:104E80000E94182460E082E00E94702460E070E0DC
:104E900083E00E94182462E070E080E00E94E12438
:104EA00062E070E081E00E94E12461E070E082E075
:104EB0000E94E12460E082E00E94392560E070E019
:104EC00083E00E94E12460E070E084E00E94E1243D
:104ED00061E070E085E00E94E12460E085E00E94EE
:104EE000392562E070E086E00E94E1240000DF9155
:104EF000CF910895CF93DF93CDB7DEB780E890E0F0
:104F0000FC01118680E0DF91CF910895CF93DF936C
:104F100000D000D0CDB7DEB789839A836B837C83C2
:104F20008B819C810E94025E9C0189819A81FC0197
:104F30002583368389819A812B813C81FC012783DB
:104F4000308789819A81FC011082118289819A813E
:104F5000FC011282138289819A81FC011482898169
:104F60009A81FC01118600002496CDBFDEBFDF913F
:104F7000CF910895CF93DF9300D0CDB7DEB789836B
:104F80009A8389819A81FC01858196810E949E5E27
:104F900000000F900F90DF91CF910895CF93DF9392
:104FA00000D0CDB7DEB789839A8389819A81FC01CD
:104FB0002281338189819A81FC0120833183898117
:104FC0009A81FC01148289819A81FC01118600007A
:104FD0000F900F90DF91CF910895CF93DF9300D082
:104FE000CDB7DEB789839A8389819A81FC01948148
:104FF00081E08927882379F089819A81FC012081C9
:10500000318189819A81FC01828193812817390736
:1050100011F481E001C080E00F900F90DF91CF91FB
:105020000895CF93DF9300D0CDB7DEB789839A83FD
:1050300089819A81FC01878190850F900F90DF9183
:10504000CF910895CF93DF9300D000D0CDB7DEB7D6
:105050008B839C838B819C81FC01878190858983D4
:105060009A838B819C81FC01948181E0892788232C
:1050700099F18B819C81FC01208131818B819C8104
:10508000FC0182819381281739078CF08B819C81E8
:10509000FC01208131818B819C81FC018281938183
:1050A000A901481B590BCA0189839A8315C08B81BA
:1050B0009C81FC01878190852B813C81F9012081B5
:1050C0003181820F931F2B813C81F9012281338131
:1050D000821B930B89839A8389819A812496CDBF01
:1050E000DEBFDF91CF9108950F931F93CF93DF938E
:1050F00000D000D0CDB7DEB78B839C8319821A8293
:105100008B819C81FC01948181E08927882379F03F
:105110008B819C810E9411288C018B819C810E9433
:1051200022289801281B390BC90189839A83898118
:105130009A812496CDBFDEBFDF91CF911F910F9151
:105140000895CF93DF9300D01F92CDB7DEB7898348
:105150009A836B8389819A81FC018581968129815B
:105160003A81F90120813181820F931F2B81FC014B
:10517000208389819A81FC0184818823B1F089810F
:105180009A81FC01828193810196AC0189819A8187
:10519000FC0127813085CA01B9010E948B5D9C0109
:1051A00089819A81FC012283338389819A81FC0160
:1051B000808191810196AC0189819A81FC012781CE
:1051C0003085CA01B9010E948B5D9C0189819A8159
:1051D000FC012083318389819A81FC012081318106
:1051E00089819A81FC018281938141E028173907E6
:1051F00009F040E089819A81FC01448300002396F4
:10520000CDBFDEBFDF91CF910895CF93DF9300D064
:105210001F92CDB7DEB78A839B838A819B810E94D0
:10522000ED27882311F080E02AC08A819B81FC0150
:10523000858196812A813B81F90122813381820F08
:10524000931FFC01808189838A819B81FC011482E8
:105250008A819B81FC01828193810196AC018A81C4
:105260009B81FC0127813085CA01B9010E948B5DB9
:105270009C018A819B81FC0122833383898123964F
:10528000CDBFDEBFDF91CF910895CF93DF93CDB730
:10529000DEB72897CDBFDEBF8D839E836F8378876F
:1052A00081E08C838D819E81FC018481882311F0B3
:1052B0008C8148C08F8198850E94305F8A839B8350
:1052C0008D819E810E9474289C0141E08A819B818E
:1052D0002817390708F040E0442311F08C8132C0D0
:1052E00019828981882F90E02A813B818217930758
:1052F000C0F48D819E81FC018481882391F4898191
:1053000091E0980F9983882F90E02F813885820F44
:10531000931FFC0120818D819E81622F0E94A12814
:10532000E0CF8D819E81FC01948181E089278823D3
:1053300029F08D819E8160E00E94A1288D819E814F
:10534000FC0184812896CDBFDEBFDF91CF91089507
:10535000CF93DF93CDB7DEB72897CDBFDEBF8B836A
:105360009C836D837E834F8358878B819C810E94B1
:10537000ED27882371F08D819E81FC0110828F8141
:105380009885892B79F18F819885FC011082118293
:1053900029C019828B819C810E9405298A8381E022
:1053A0009A81992309F480E0882371F0898191E042
:1053B000980F9983882F90E02D813E81820F931F53
:1053C0002A81FC012083E6CF8F819885892B61F0AB
:1053D0008981282F30E08F819885FC0120833183DB
:1053E000000002C0000001C000002896CDBFDEBF53
:1053F000DF91CF910895CF93DF9300D01F92CDB767
:10540000DEB789839A836B8389819A814B8168EDAA
:105410000E94274B00002396CDBFDEBFDF91CF91C6
:105420000895CF93DF93CDB7DEB765E88CE790E0C2
:105430000E94FB2965E288E690E00E94FB2980E05B
:10544000DF91CF910895CF93DF93CDB7DEB77894F6
:1054500080E0DF91CF910895CF93DF93CDB7DEB792
:1054600080EA90E021E8FC0122830000DF91CF91E7
:105470000895CF93DF93CDB7DEB70E942C2A80E644
:1054800094E0FC01268980E694E0287FFC01268BCD
:1054900080E694E0FC01268980E694E02460FC012B
:1054A000268B80E694E0FC01268980E694E0277F45
:1054B000FC01268B80EA96E021E4FC0120830000B9
:1054C000DF91CF910895CF93DF9300D0CDB7DEB7B2
:1054D00089839A83298180EA96E02295220F220F00
:1054E000207CFC01228389819A819C013695279535
:1054F0003695279580EA96E0FC01238300000F9003
:105500000F90DF91CF910895CF93DF9300D0CDB767
:10551000DEB789836A838A818823B1F084E090E0D2
:10552000FC018181482F8981282F30E081E090E0C3
:1055300002C0880F991F2A95E2F7242F282B84E0B8
:1055400090E0FC01218316C084E090E0FC018181A1
:10555000482F8981282F30E081E090E002C0880F39
:10556000991F2A95E2F78095242F282384E090E064
:10557000FC01218300000F900F90DF91CF910895DF
:10558000CF93DF9300D0CDB7DEB789839A832DEF19
:1055900032E489819A81FC012083318389819A8157
:1055A00028E7FC01268300000F900F90DF91CF9138
:1055B0000895CF93DF9300D000D0CDB7DEB78983B5
:1055C0009A836B837C8389819A812B813C81FC0146
:1055D000228333838B819C818130910581F08230DD
:1055E0009105C1F0892B09F589819A8124E1FC019B
:1055F000248389819A8124E0FC01258316C0898156
:105600009A8120E1FC01248389819A8124E0FC01B4
:1056100025830BC089819A812AE0FC01248389813A
:105620009A8124E0FC012583000089819A8120E889
:10563000FC01218789819A8124E0FC0122870E9454
:10564000934489819A810E94442B89819A810E9486
:105650006B2B89819A810E94E82B89819A8122E0B3
:10566000FC01278389819A81FC018781282F24608E
:1056700089819A81622F0E94522C00002496CDBF0E
:10568000DEBFDF91CF910895CF93DF9300D0CDB7E8
:10569000DEB789839A8362E370E080E090E00E9445
:1056A0005D5760E084E00E94842A64E070E080E05E
:1056B00090E00E945D5761E084E00E94842A64E1EA
:1056C00070E080E090E00E945D5700000F900F9026
:1056D000DF91CF910895CF93DF9300D0CDB7DEB7A0
:1056E00089839A8389819A816AE30E94522C8981F5
:1056F0009A8169E00E94522C89819A8166E00E9419
:10570000522C89819A816EE10E94522C89819A8162
:1057100069E30E94522C89819A816BE10E94522C8C
:1057200089819A81FC018281938181309105A9F060
:105730008230910511F1892B81F589819A816EE67C
:105740000E94522C89819A8167E50E94522C89819E
:105750009A8162E70E94522C20C089819A816CE66E
:105760000E94522C89819A8166E50E94522C89817F
:105770009A816BE60E94522C10C089819A816EE654
:105780000E94522C89819A8166E50E94522C89815F
:105790009A816AE70E94522C000089819A8168E30D
:1057A0000E94522C89819A8124E0FC012087898102
:1057B0009A81FC018085282F286089819A81622F37
:1057C0000E94522C00000F900F90DF91CF9108950E
:1057D000CF93DF9300D0CDB7DEB789839A838981D9
:1057E0009A8161E00E94522C00000F900F90DF918F
:1057F000CF910895CF93DF9300D000D0CDB7DEB71F
:1058000089839A836B834C8389819A81FC0181858A
:10581000282F8B81982F9295990F907E8C81890FDC
:10582000822B282F89819A81622F0E94522C00009E
:105830002496CDBFDEBFDF91CF910895CF93DF9344
:1058400000D01F92CDB7DEB789839A836B8389819D
:105850009A816B810E94742C81E090E02396CDBFE9
:10586000DEBFDF91CF910895CF93DF93CDB7DEB741
:105870002697CDBFDEBF89839A836B837C834D835C
:105880005E834D815E812B813C8189819A81B90142
:105890000E94962C8D819E812696CDBFDEBFDF9122
:1058A000CF910895CF93DF93CDB7DEB72597CDBFC6
:1058B000DEBF8B839C836D838D8189838B819C81EB
:1058C00021E0AE014F5F5F4F60E00E94B82C88235B
:1058D00019F080EE90E002C080E090E02596CDBF08
:1058E000DEBFDF91CF910895CF93DF93CDB7DEB7C1
:1058F0002597CDBFDEBF8B839C836D838D8189838C
:105900008B819C8121E0AE014F5F5F4F60E40E947C
:10591000B82C882319F080EE90E002C080E090E07F
:105920002596CDBFDEBFDF91CF910895CF93DF9352
:10593000CDB7DEB72697CDBFDEBF89839A836B8351
:105940007C834D835E832D814B815C8189819A812B
:1059500060E40E94B82C882319F080EE90E002C029
:1059600080E090E02696CDBFDEBFDF91CF91089515
:10597000CF93DF93CDB7DEB72897CDBFDEBF8B8344
:105980009C836D834E835F83288785E0898389812B
:105990009FEF980F99838823C1F08B819C81FC0134
:1059A00036818E819F812885AC016D81832F0E9475
:1059B0006345282F81E09885921709F480E08A8357
:1059C0008A81882311F081E001C080E0882309F0FA
:1059D000DECF8A812896CDBFDEBFDF91CF910895BB
:1059E000CF93DF9300D01F92CDB7DEB789836A8350
:1059F0007B838A819B8181309105E9F0823091051A
:105A000081F1892B09F03DC088E090E0FC018081A4
:105A1000482F8981282F30E081E090E002C0880F74
:105A2000991F2A95E2F78095242F282388E090E09B
:105A3000FC01208326C088E090E0FC018081482F93
:105A40008981282F30E081E090E002C0880F991F03
:105A50002A95E2F7242F282B88E090E0FC01208390
:105A600010C08981882F90E0805B9B4FFC012081D2
:105A70008981882F90E0805B9B4F2860FC01208308
:105A8000000000002396CDBFDEBFDF91CF910895C7
:105A9000CF93DF9300D0CDB7DEB789836A838A8145
:105AA0008823B1F088E090E0FC018181482F898152
:105AB000282F30E081E090E002C0880F991F2A95DE
:105AC000E2F7242F282B88E090E0FC01218316C008
:105AD00088E090E0FC018181482F8981282F30E007
