S01500005369676E616C536E61676765722E73726563EA
S11300000C9431010C945B010C945B010C94DE01A3
S11300100C945B010C945B010C94CE080C945B0172
S11300200C945B010C945B010C945B010C945B01DC
S11300300C94AC030C948A620C945B010C945B01E9
S11300400C945B010C945B010C945B010C945B01BC
S11300500C945B010C945B010C945B010C945B01AC
S11300600C948D020C945B010C945B010C945B0169
S11300700C945B010C945B010C9432620C945B0154
S11300800C945B010C945B010C94F9080C945B01D7
S11300900C945B010C945B010C945B010C945B016C
S11300A00C945B010C94E4500C945B010C945B0184
S11300B00C945B010C945B010C945B010C945B014C
S11300C00C945B010C945B010C945B010C945B013C
S11300D00C945B010C945B010C945B010C945B012C
S11300E00C945B010C945B0105A84CCDB2D44EB9C1
S11300F03836A9020C50B9918688083CA6AAAA2AC7
S1130100BE000000803F08000000BE922449123E59
S1130110ABAAAA2ABECDCCCC4C3E00000080BEAB1C
S1130120AAAAAA3E00000000BF000000803F000011
S1130130000000084178D3BB4387D1133D190E3C1E
S1130140C3BD4282AD2B3E68EC8276BED98FE1A955
S11301503E4C80EFFFBE01C4FF7F3F000000000063
S113016000407A10F35A00A0724E18090010A5D46A
S1130170E80000E87648170000E40B54020000CAC7
S11301809A3B000000E1F50500008096980000000D
S113019040420F000000A08601000000102700006C
S11301A00000E803000000006400000000000A00F2
S11301B0000000000100000000002C76D888DC67F5
S11301C04F0823DFC1DFAE59E1B1B796E5E3E4534D
S11301D0C63AE651997696E8E6C28426EB898C9B6A
S11301E062ED407C6FFCEFBC9C9F40F2BAA56FA50A
S11301F0F490055A2AF75C936B6CF9676DC11BFC8C
S1130200E0E40D47FEF520E6B500D0ED902E0300A6
S1130210943577050080841E080000204E0A0000F3
S113022000C80C333333330F986E12831141EF8DB2
S11302302114893BE65516CFFEE6DB18D1844B38F2
S11302401BF77C1D901DA4BBE424203284725E2223
S11302508100C9F124ECA1E53D2744235A2551230B
S1130260672511241FBECFEFCDBFDFE7DEBF13E448
S1130270A0E0B0E4EEEFFDED00E00BBF02C007909C
S11302800D92A233B107D9F727E4A2E3B3E401C086
S11302901D92AE31B207E1F711E0CFE2D1E004C024
S11302A02197FE010E941368CD32D107C9F70E943D
S11302B0BE0A0C94F26E0C9400000FB6F89460938E
S11302C01A4770931B4780931C4790931D470FBE9A
S11302D00895FC010FB6F89460911A4770911B477A
S11302E080911C4790911D470FBE309721F0608389
S11302F071838283938308958F938FB78F93F89438
S113030080911A478F5F80931A4780911B478F4FC4
S113031080931B4780911C478F4F80931C4780918B
S11303201D478F4F80931D478F918FBF8F910895E5
S1130330CF93DF93CDB7DEB70E94EB370000DF9198
S1130340CF910895CF93DF9300D0CDB7DEB78983E3
S11303506A838A818823B1F080E090E0FC01818186
S1130360482F8981282F30E081E090E002C0880F77
S1130370991F2A95E2F7242F282B80E090E0FC01B6
S1130380218316C080E090E0FC018181482F89819F
S1130390282F30E081E090E002C0880F991F2A9551
S11303A0E2F78095242F282380E090E0FC0121834C
S11303B000000F900F90DF91CF9108951F920F923C
S11303C00FB60F9211240BB60F922F933F934F93B6
S11303D05F936F937F938F939F93AF93BF93EF93A9
S11303E0FF93CF93DF931F92CDB7DEB780E491E004
S11303F0FC01838189838981882F90E0817099270A
S1130400892B09F46EC00E947C0180910640909172
S1130410074021E0892B09F420E0222349F0809150
S113042006409091074001978093064090930740BF
S11304308091094090910A40A0910B40B0910C40EA
S113044021E0892B8A2B8B2B09F420E0222399F0BD
S11304508091094090910A40A0910B40B0910C40CA
S11304600197A109B1098093094090930A40A09390
S11304700B40B0930C4081E08093B2438091B3432E
S11304809091B443A091B543B091B6430196A11D98
S1130490B11D8093B3439093B443A093B543B093F9
S11304A0B6438091B3439091B443A091B543B091C6
S11304B0B64321E00297A105B10509F020E022230B
S11304C019F081E08093AD439091B74381E0992383
S11304D009F480E0882329F08091B7438150809308
S11304E0B74380E491E023E0FC01238300000F90F4
S11304F0DF91CF91FF91EF91BF91AF919F918F9138
S11305007F916F915F914F913F912F910F900BBE0F
S11305100F900FBE0F901F9018951F920F920FB659
S11305200F9211240BB60F922F933F934F935F9327
S11305306F937F938F939F93AF93BF93EF93FF93A7
S1130540CF93DF93CDB7DEB72597CDBFDEBF80E075
S113055096E0FC0185858B838B81882F90E08170E8
S11305609927892B09F4DAC080E096E0FC018089A0
S113057091898C839D8319821A82809123408823D8
S113058021F08C819D8189839A83809113448823EF
S113059009F449C09091264081E0992309F480E050
S11305A0882309F4BBC08091A6459091A74521E01A
S11305B0892B09F420E0222351F18091A94591E08F
S11305C0980F9093A945882F90E0880F991F8C5E0F
S11305D09B4BFC018081918129813A81820F931F79
S11305E089839A832091A9459091264081E0291717
S11305F009F080E0882311F01092A9458091A64566
S11306009091A74501978093A6459093A74589812A
S11306109A810E944D3189819A81BC0187EF95E4CA
S11306200E94764D7BC08091A6459091A74521E01C
S1130630892B09F420E0222359F18091A94591E006
S1130640980F9093A945882F90E0880F991F8C5E8E
S11306509B4BFC018081918129813A81820F931FF8
S113066089839A832091A9459091264081E0291796
S113067009F080E0882311F01092A9458091A645E5
S11306809091A74501978093A6459093A7450FC0E5
S11306909091A84581E0992309F480E0882339F0FA
S11306A08091A84581508093A84519821A8280912F
S11306B021409091224021E0059708F420E0222374
S11306C089F080912140909122409C01245031096D
S11306D089819A8102C0880F991F2A95E2F789833C
S11306E09A8311C0809121409091224024E030E00F
S11306F0281B390B89819A8102C0969587952A9582
S1130700E2F789839A8389819A810E944D318C8191
S11307109D81BC0187EF95E40E94764D80E096E0D0
S113072023E0FC01258700002596CDBFDEBFDF91C5
S1130730CF91FF91EF91BF91AF919F918F917F9155
S11307406F915F914F913F912F910F900BBE0F903E
S11307500FBE0F901F9018951F920F920FB60F9215
S113076011240BB60F922F933F934F935F936F9384
S11307707F938F939F93AF93BF93EF93FF93CF9305
S1130780DF93CDB7DEB72F97CDBFDEBF80E09BE010
S1130790FC0186818E838E81882F90E08170992759
S11307A0892B09F4DDC41F8218868091244090911E
S11307B0254021E0892B09F420E0222349F080918F
S11307C024409091254001978093244090932540A4
S11307D0809127408F5F80932740209127408BEAA8
S11307E0289F812D1124982F96959695892F880FEF
S11307F0890F880F922F981B992309F0DDC3198262
S11308001A821B8287E189870E945929982F89853A
S113081089238F830E940D290E945929982F898545
S113082089238887888582708A87888581708B87E9
S1130830888584708C87888580718D8781E09D850B
S1130840992309F080E08093AA43882331F08CE354
S113085090E080930640909307401B828A8588230A
S113086071F48B85882359F060E086E00E94A20130
S113087061E085E00E94A20181E0898325C08B8527
S1130880882371F48A85882359F060E085E00E940A
S1130890A20161E086E00E94A20181E08A8314C083
S11308A060E085E00E94A20160E086E00E94A2016F
S11308B019821A828A85882329F48B85882311F466
S11308C081E001C080E08B8381E09C85992309F05D
S11308D080E08093DD4389818093DA438A81809329
S11308E0DB438B818093DC439F818885981709F4CF
S11308F00AC198858F8189278E8787E090E080934D
S11309001F40909320408CE390E0809306409093A6
S1130910074084E893E0A0E0B0E08093094090931E
S11309200A40A0930B40B0930C408E85082E000C17
S1130930990B82709927892B79F08A85882339F05D
S113094081E090E080932A4090932B400BC010925A
S11309502A4010922B4006C082E090E080932A4007
S113096090932B408E85082E000C990B817099274B
S1130970892B79F08B85882339F081E090E080938E
S11309802C4090932D400BC010922C4010922D407F
S113099006C082E090E080932C4090932D408B81A0
S11309A08823F1F08091D4439091D54301968093AC
S11309B0D4439093D5431092BE431092BF431092F8
S11309C0CE431092CF431092C0431092C143109271
S11309D0D0431092D143109228401092294064C011
S11309E08091C4439091C54321E0892B09F420E010
S11309F0222389F088EE93E08093A6459093A7453F
S1130A001092C4431092C54381E090E08093284043
S1130A109093294049C081E08093334080912A40DB
S1130A2090912B40019771F488EE93E08093A64552
S1130A309093A7451092BE431092BF4381E08093E8
S1130A4030400FC080912A4090912B40892B49F46B
S1130A508091CE439091CF4301968093CE4390935F
S1130A60CF4380912C4090912D40019771F488EEF2
S1130A7093E08093A6459093A7451092C0431092AB
S1130A80C14381E0809331400FC080912C4090910C
S1130A902D40892B49F48091D0439091D143019604
S1130AA08093D0439093D1438E85082E000C990BEC
S1130AB084709927892B09F417C18091DD43882319
S1130AC071F08091D2439091D34301968093D243A5
S1130AD09093D34310922E4010922F4005C188EE7C
S1130AE093E08093A6459093A7451092C243109239
S1130AF0C34381E08093324081E090E080932E40B4
S1130B0090932F40F1C08B81882309F441C09091C8
S1130B10D84381E08927882331F0809133408823AA
S1130B2011F081E001C080E0882309F4A3C0809122
S1130B30C4439091C54321E0019609F420E02223A7
S1130B4049F08091C4439091C54301968093C44376
S1130B509093C5438091C4439091C54321E084366A
S1130B60910508F420E0222309F484C081E08093F5
S1130B70D8431092C4431092C5431092D4431092A8
S1130B80D54310923340109230401092314072C0DD
S1130B9089818823B1F18091BE439091BF4321E0C4
S1130BA0019609F420E0222349F08091BE439091FC
S1130BB0BF4301968093BE439093BF439091D64325
S1130BC081E08927882331F080913040882311F017
S1130BD081E001C080E08823A1F08091BE43909120
S1130BE0BF4321E08436910508F420E0222349F034
S1130BF081E08093D6431092CE431092CF4310925B
S1130C0030408A818823B1F18091C0439091C143DF
S1130C1021E0019609F420E0222349F08091C043A9
S1130C209091C14301968093C0439093C1439091A6
S1130C30D74381E08927882331F08091314088238C
S1130C4011F081E001C080E08823A1F08091C043CD
S1130C509091C14321E08436910508F420E02223D9
S1130C6049F081E08093D7431092D0431092D1434E
S1130C70109231408091DD438823B1F18091C243C9
S1130C809091C34321E0019609F420E0222349F026
S1130C908091C2439091C34301968093C243909341
S1130CA0C3439091D94381E08927882331F080910F
S1130CB03240882311F081E001C080E08823A1F054
S1130CC08091C2439091C34321E08436910508F496
S1130CD020E0222349F081E08093D9431092D2434B
S1130CE01092D343109232408091AA459091AB4523
S1130CF0892B71F18091AA459091AB45019780931E
S1130D00AA459093AB458091AA459091AB45892B18
S1130D1009F044C08091D4439091D543892B41F08C
S1130D208091D4439091D543039710F481E001C09E
S1130D3080E0882341F08091D4439091D5438093FF
S1130D40CC439093CD431092D4431092D54326C004
S1130D508091D4439091D543019741F480912840E8
S1130D6090912940019711F481E001C080E088232B
S1130D7039F082E390E08093AA459093AB450EC08E
S1130D808091D4439091D54321E0039708F420E067
S1130D90222321F01092D4431092D5438091AC4584
S1130DA09091AD45892B71F18091AC459091AD4501
S1130DB001978093AC459093AD458091AC4590915B
S1130DC0AD45892B09F044C08091CE439091CF4327
S1130DD0892B41F08091CE439091CF43039710F437
S1130DE081E001C080E0882341F08091CE4390915E
S1130DF0CF438093C6439093C7431092CE4310923F
S1130E00CF4326C08091CE439091CF43019741F4C4
S1130E1080912A4090912B40019711F481E001C008
S1130E2080E0882339F082E390E08093AC4590938E
S1130E30AD450EC08091CE439091CF4321E00397FE
S1130E4008F420E0222321F01092CE431092CF43E5
S1130E508091AE459091AF45892B71F18091AE455B
S1130E609091AF4501978093AE459093AF458091A3
S1130E70AE459091AF45892B09F044C08091D04391
S1130E809091D143892B41F08091D0439091D143EB
S1130E90039710F481E001C080E0882341F0809141
S1130EA0D0439091D1438093C8439093C943109207
S1130EB0D0431092D14326C08091D0439091D14326
S1130EC0019741F480912C4090912D40019711F4A9
S1130ED081E001C080E0882339F082E390E08093D0
S1130EE0AE459093AF450EC08091D0439091D143CD
S1130EF021E0039708F420E0222321F01092D0434C
S1130F001092D1438091B0459091B145892B71F1F4
S1130F108091B0459091B14501978093B0459093ED
S1130F20B1458091B0459091B145892B09F044C0F9
S1130F308091D2439091D343892B41F08091D24345
S1130F409091D343049710F481E001C080E088239A
S1130F5041F08091D2439091D3438093CA439093BC
S1130F60CB431092D2431092D34326C08091D243F4
S1130F709091D343019741F480912E4090912F405A
S1130F80019711F481E001C080E0882339F082E305
S1130F9090E08093B0459093B1450EC08091D243C8
S1130FA09091D34321E0039708F420E0222321F019
S1130FB01092D2431092D3438091B0439091B143A5
S1130FC021E0892B09F420E0222309F4C9C080918F
S1130FD0B0439091B143892F881F8827881F8F873A
S1130FE08091B0439091B14399231CF491958195DC
S1130FF091098C839D832091B2453091B3458091B2
S1131000B0439091B14341E02817390709F040E01B
S1131010442309F453C08091B4459091B545892B7C
S113102009F49EC08091B4459091B5450197809391
S1131030B4459093B5458091B4459091B545892BBD
S113104009F08EC084E893E0A0E0B0E0809309400A
S113105090930A40A0930B40B0930C408C819D81E7
S11310600297B4F08C819D8103968C839D838C813F
S11310709D8195958795959587958C839D838C8186
S11310809D81880F991F880F991F8C839D8302C0AF
S11310901C821D828F85882331F08C819D819195DE
S11310A08195910902C08C819D818093B043909376
S11310B0B1431092B2451092B34552C08091B043EF
S11310C09091B1438093B2459093B3458C819D81B7
S11310D004974CF18091DD43882351F01092324003
S11310E01092C2431092C3431092D2431092D3433E
S11310F08F85882351F08091AE439091AF4301973F
S11311008093AE439093AF4309C08091AE439091D6
S1131110AF4301968093AE439093AF438C819D81FE
S113112004978C839D838BE490E08093B4459093E3
S1131130B5458F85882331F08C819D81919581956A
S1131140910902C08C819D818093B0439093B143F7
S11311508C819D81892B21F41092B2451092B34564
S113116080E09BE023E0FC01268300002F96CDBFA6
S1131170DEBFDF91CF91FF91EF91BF91AF919F912E
S11311808F917F916F915F914F913F912F910F902C
S11311900BBE0F900FBE0F901F9018951F920F92C9
S11311A00FB60F9211240BB60F922F938F939F9328
S11311B0EF93FF93CF93DF931F92CDB7DEB780E019
S11311C090E0FC018381898380E090E02FEFFC01B3
S11311D0238300000F90DF91CF91FF91EF919F91B6
S11311E08F912F910F900BBE0F900FBE0F901F90F9
S11311F018951F920F920FB60F9211240BB60F92EF
S11312002F938F939F93AF93BF93EF93FF93CF93BA
S1131210DF9300D01F92CDB7DEB784E190E0FC01EC
S1131220838189838091AD43882309F45BC08981DC
S1131230882F90E088719927892B09F453C080EA9C
S113124094E0FC018085882F90E09595879595958D
S113125087959595879583708A838091B645882F65
S113126090E0880F991F880F991F982F8A81892BE6
S11312708B838B81882F90E0092E000CAA0BBB0B6B
S11312800197A109B1098E309105A105B10538F581
S1131290835B964FFC010C9413685B0965096F0925
S11312A065096F096F095B095B096F096F096509B6
S11312B06F0965095B098091B0439091B143019630
S11312C08093B0439093B1430AC08091B04390910E
S11312D0B14301978093B0439093B14300008A8156
S11312E08093B64580EA94E028E1FC012187000060
S11312F02396CDBFDEBFDF91CF91FF91EF91BF91D8
S1131300AF919F918F912F910F900BBE0F900FBEB5
S11313100F901F901895CF92DF92EF92FF920F9348
S11313201F93CF93DF9300D000D0CDB7DEB78B836C
S11313309C838B819C810B970CF471C08B819C8165
S11313408F3F910511F00CF06AC0809113448A8399
S1131350109213441092264019828981882F90E0BC
S11313602B813C81821793070CF053C08981882F0D
S113137090E0092E000CAA0BBB0BBC01CD010E940E
S1131380C365DC01CB012BED3FE049EC50E4BC012B
S1131390CD010E941D67DC01CB016C017D018B81B5
S11313A09C81092E000CAA0BBB0BBC01CD010E9431
S11313B0C365DC01CB019C01AD01C701B6010E94EC
S11313C01965DC01CB01BC01CD010E948A67DC01F7
S11313D0CB0120E030E040E055E4BC01CD010E94A7
S11313E0A364DC01CB012981022F10E0BC01CD01F3
S11313F00E949265DC01CB019C01C801880F991FF2
S11314008C5E9B4BFC012083318389818F5F8983B0
S1131410A4CF8B81809326408A818093134400005B
S11314202496CDBFDEBFDF91CF911F910F91FF9026
S1131430EF90DF90CF900895CF93DF9300D0CDB796
S1131440DEB782E194E40E94E13F60E083E00E9421
S1131450A20160E087E00E94A20184E690E0898313
S11314609A8389819A81892B79F08091AA43882370
S113147031F089819A81019789839A83F2CF84E636
S113148090E089839A83EDCF00000F900F90DF9155
S1131490CF910895CF93DF9300D0CDB7DEB7898382
S11314A09A831092B9451092BA4589819A810E9710
S11314B061F48091B7459091B845880F991F87547E
S11314C09A4BFC018081918154C089819A81892B36
S11314D029F41092B7451092B84540C089819A8189
S11314E00D9781F48091B7459091B845892BB1F15E
S11314F08091B7459091B84501978093B7459093F3
S1131500B8452CC08091B7459091B845880F991F74
S113151087549A4BFC018081918129813A81281753
S11315203907E1F08091B7459091B8454397B4F4F9
S11315308091B7459091B84501968093B7459093B3
S1131540B8458091B7459091B845880F991F875445
S11315509A4B29813A81FC01208331838091B745DC
S11315609091B845880F991F87549A4BFC0180814C
S113157091810F900F90DF91CF910895CF92DF92D8
S1131580EF92FF920F931F93CF93DF93CDB7DEB704
S1131590C958D109CDBFDEBF89E190E00E948B0913
S11315A019821A821B821C821D821E821F82188647
S11315B019861A861B861C861D861E861F86188A17
S11315C08FEF898B1A8A1B8A1C8A1D8A81E08E8B75
S11315D0188ECE0188599F4FFC011082118212820D
S11315E013820E9498010E94CF5F80788F8B68EEEF
S11315F073E080E090E00E947761882329F08F896E
S1131600882311F081E001C080E0882329F00E9442
S1131610CF5F80788F8BEBCF82E194E40E9469489E
S113162082E194E40E94164180916840909169405F
S1131630A0916A40B0916B40BC01CD010E94186337
S113164089A79AA789A59AA5892B49F08091AB43CC
S11316509091AC4382608093AB439093AC43809170
S11316606240909163400E94915660E873E48DE675
S113167098E30E945D0180E090E00E946901DC0132
S1131680CB018BA79CA7ADA7BEA760ED77E080E058
S113169090E00E947761882389F080E090E00E94C6
S11316A069019B01AC018BA59CA5ADA5BEA58217C4
S11316B09307A407B50711F481E001C080E08823F3
S11316C009F0E3CF80E090E00E9469019B01AC0146
S11316D061E08BA59CA5ADA5BEA582179307A407C1
S11316E0B50709F060E0662359F08091AB4390910F
S11316F0AC4381608093AB439093AC430E94ED551F
S113170062E070E08EED93E40E94C3318091AB43BC
S11317109091AC4321E0892B09F420E02223A9F124
S113172041E069E070E089EE93E40E94AC526CE71A
S113173070E48AEE93E40E948C2E8091AB439091E6
S1131740AC438270992721E0892B09F420E02223FD
S113175031F065E870E48AEE93E40E948C2E809167
S1131760AB439091AC438170992721E0892B09F414
S113177020E0222331F06EE870E48AEE93E40E94C4
S11317808C2E8FE08093B743F9C080E096E027E089
S1131790FC0120871FA618AA60E081E00E94DC24D7
S11317A0198E1A8E898D9A8D0A97D4F50E945E231C
S11317B00E947123982F81E08927882309F0F8CFAC
S11317C080E096E0FC01808991898FA798AB8FA572
S11317D098A9CC01A0E0B0E0BC01CD010E94C16594
S11317E07B018C01CE0188599F4FFC01808191813E
S11317F0A281B3819C01AD01C801B7010E94A36419
S1131800DC01CB019E0128593F4FF901808391836C
S1131810A283B383898D9A8D0196898F9A8FC2CFC3
S1131820CE0188599F4FFC0180819181A281B381AF
S113183020E030E040E251E4BC01CD010E94196592
S1131840DC01CB019E0128593F4FF901808391832C
S1131850A283B383CE0188599F4FFC01808191817B
S1131860A281B3819E0124593F4FA901BC01CD013E
S11318700E94A62080915940882F90E0A0E0B0E01B
S1131880BC01CD010E94C1657B018C01CE0184594C
S11318909F4FFC0180819181A281B381DD24D39487
S11318A09C01AD01C801B7010E94C06688230CF4F5
S11318B0D12CDD2009F460C067E970E48AEE93E47A
S11318C00E948C2E62EA70E48AEE93E40E948C2ECD
S11318D0CE0188599F4FBC0181E00E942521292F08
S11318E02F938F9380EB90E4892F8F9380EB90E478
S11318F08F931F928DE08F9386E493E4892F8F93C7
S113190086E493E48F930E948B692DB73EB7285FDA
S11319103F4FCDBFDEBF66E473E48AEE93E40E94DA
S11319208C2ECE0188599F4F0E94CF1F292F2F93B1
S11319308F938BEB90E4892F8F938BEB90E48F93B1
S11319401F928DE08F9386E493E4892F8F9386E42E
S113195093E48F930E948B694DB75EB7485F5F4FE6
S1131960CDBFDEBF88E893E18093A6459093A74559
S11319708EE18093B74302C01092B74360E070E0F9
S113198089EE93E40E94935266E473E48AEE93E44E
S11319900E948C2E80E096E022E0FC01208761E02A
S11319A081E00E94DC240E945E239091B74381E091
S11319B0992309F080E0882309F4FDC58EE090E0C6
S11319C00E944A0A89AB9AAB8E89882341F429A9DB
S11319D03AA989819A812817390709F44CC01E8ACB
S11319E089819A81059741F089819A81069721F02E
S11319F089819A810797B9F489A99AA9059799F0D9
S1131A0089A99AA9069779F089A99AA9079759F0FB
S1131A1080E096E022E0FC01208761E081E00E9402
S1131A20DC240E945E2389A99AA989839A838EED76
S1131A3093E40E94D2321D861E861F86188A8FEF79
S1131A40898B8FEF90E08A8B9B8B8FEF8C831C8A22
S1131A501D8A88E090E089879A8789A99AA9892BA9
S1131A6051F482E194E40E94E13F61E170E08EED83
S1131A7093E40E94083389A99AA9092E000CAA0BA1
S1131A80BB0B8C309105A105B10508F08BC5845BB7
S1131A90924FFC010C941368580DC710C710C7105F
S1131AA0050F760F760F760FD2129712591278120D
S1131AB080911446882309F05CC08091684090911D
S1131AC06940A0916A40B0916B4061E02D853E85EC
S1131AD04F855889281739074A075B0709F460E0DE
S1131AE0662309F4FAC08091684090916940A091FE
S1131AF06A40B0916B408D879E87AF87B88B8D8588
S1131B009E85AF85B8899E0120593F4FAC01BD0128
S1131B10C9010E9418648B81882319F087EC90E432
S1131B2002C089EC90E49E0120593F4F432F4F930C
S1131B302F93292F2F938F938BEC90E4892F8F93DE
S1131B408BEC90E48F9386E493E4892F8F9386E45F
S1131B5093E48F930E94C2692DB73EB7285F3F4F2D
S1131B60CDBFDEBF66E473E48AEE93E40E948C2E5C
S1131B70B4C09091154681E02C81291709F480E0C6
S1131B80882309F4AAC0809115468C83809168400B
S1131B9090916940A0916A40B0916B408D879E8777
S1131BA0AF87B88B80911546882F90E08E5C9C4B54
S1131BB0FC01908181E0992309F480E0882309F4F1
S1131BC047C080911546882F90E08E5C9C4BFC01A9
S1131BD08081282F30E0C901880F991F880F991F31
S1131BE0880F991F821B930BAC0147595D4B8B8166
S1131BF0882319F087EC90E402C089EC90E42C81EE
S1131C00222F30E02F5F3F4F652F6F934F93492F63
S1131C104F938F93832F8F93822F8F9385ED90E42F
S1131C20892F8F9385ED90E48F931F928DE08F938E
S1131C3086E493E4892F8F9386E493E48F930E9440
S1131C408B692DB73EB7245F3F4FCDBFDEBF3FC08A
S1131C508D859E85AF85B8899E0120593F4FAC0183
S1131C60BD01C9010E9418648B81882319F087EC97
S1131C7090E402C089EC90E42C81222F30E02F5FA5
S1131C803F4FAE0140595F4F652F6F934F93492FDC
S1131C904F938F93832F8F93822F8F9385ED90E4AF
S1131CA0892F8F9385ED90E48F931F928DE08F930E
S1131CB086E493E4892F8F9386E493E48F930E94C0
S1131CC08B694DB75EB7445F5F4FCDBFDEBF66E43F
S1131CD073E48AEE93E40E948C2E809108409989E3
S1131CE0981761F180910840898B80910840882F72
S1131CF090E02AE030E0F901E81BF90BCF01292F2D
S1131D002F938F9381EE90E4892F8F9381EE90E44B
S1131D108F9386E493E4892F8F9386E493E48F93DF
S1131D200E94C2690F900F900F900F900F900F9028
S1131D3066E473E48AEE93E40E948C2E8091214041
S1131D409091224041E02A893B892817390709F4F8
S1131D5040E0442331F180912140909122408A8BCC
S1131D609B8B8B898F938A898F938BEE90E4892F39
S1131D708F938BEE90E48F9386E493E4892F8F9373
S1131D8086E493E48F930E94C2690F900F900F90A2
S1131D900F900F900F9066E473E48AEE93E40E9430
S1131DA08C2E8091BC439091BD432C893D8928178A
S1131DB0390709F4F9C38091BC439091BD438C8BDE
S1131DC09D8B8D898F938C898F9384EF90E4892FD9
S1131DD08F9384EF90E48F931F9287E08F9386E430
S1131DE093E4892F8F9386E493E48F930E948B6905
S1131DF02DB73EB7285F3F4FCDBFDEBF66E473E427
S1131E008AEE93E40E948C2ECFC329853A858B8574
S1131E109C852817390709F4C9C38B859C85898754
S1131E209A8764E170E08EED93E40E9408338CE0BD
S1131E30ECEFF0E4A6E4B3E401900D928A95E1F7A7
S1131E4066E473E48AEE93E40E948C2E8EE592E4B9
S1131E50892F8F938EE592E48F9388E091E4892F04
S1131E608F9388E091E48F9386E493E4892F8F9392
S1131E7086E493E48F930E94C2690F900F900F90B1
S1131E800F900F900F9066E473E48AEE93E40E943F
S1131E908C2E2B853C85C901880F991F880F991FAB
S1131EA0820F931F880F991F885E9D4B292F2F93B4
S1131EB08F9388E091E4892F8F9388E091E48F9346
S1131EC086E493E4892F8F9386E493E48F930E94AE
S1131ED0C2690F900F900F900F900F900F9066E4CF
S1131EE073E48AEE93E40E948C2E60C31BAA1CAA9E
S1131EF00E945E230E947123982F81E08927882302
S1131F0009F0F8CF80E096E0FC01808991898BABE1
S1131F109CAB8091E1459091E245A091E345B0915D
S1131F20E44520E030E040E85FE3BC01CD010E94DD
S1131F300F658823A4F48BA99CA9CC01A0E0B0E090
S1131F40BC01CD010E94C165DC01CB018093E14558
S1131F509093E245A093E345B093E4452FC080916C
S1131F60E1459091E245A091E345B091E44520E03C
S1131F7030E040E251E4BC01CD010E941D67DC0168
S1131F80CB016C017D018BA99CA9CC01A0E0B0E040
S1131F90BC01CD010E94C165DC01CB019C01AD01F6
S1131FA0C701B6010E94A364DC01CB018093E14523
S1131FB09093E245A093E345B093E4458091E145D5
S1131FC09091E245A091E345B091E44520E030E0F2
S1131FD040E351E4BC01CD010E941965DC01CB0151
S1131FE08093E1459093E245A093E345B093E445A3
S1131FF061EE75E481E00E942521292F2F938F93B0
S11320008DE091E4892F8F938DE091E48F931F925B
S11320108DE08F9386E493E4892F8F9386E493E491
S11320208F930E948B692DB73EB7285F3F4FCDBF7A
S1132030DEBF66E473E48AEE93E40E948C2E89A9E1
S11320409AA9059709F050C08091E1459091E24525
S1132050A091E345B091E44540E050E0BC01CD01DE
S11320600E94A620292F2F938F9388E191E4892F32
S11320708F9388E191E48F931F928DE08F9386E490
S113208093E4892F8F9386E493E48F930E948B6962
S11320904DB75EB7485F5F4FCDBFDEBF66E473E404
S11320A08AEE93E40E948C2E81EE95E40E94CF1F69
S11320B0292F2F938F938BEB90E4892F8F938BEBA6
S11320C090E48F931F928DE08F9386E493E4892F9D
S11320D08F9386E493E48F930E948B698DB79EB7A8
S11320E00896CDBFDEBF4CC089A99AA9069741F5D1
S11320F080915840882F90E0019642E3489F9001D8
S1132100499F300D1124832F8F93822F8F9385E263
S113211091E4892F8F9385E291E48F931F928DE050
S11321208F9386E493E4892F8F9386E493E48F93CB
S11321300E948B69EDB7FEB73896CDBFDEBF20C0D5
S113214080915940882F90E0292F2F938F9382E319
S113215091E4892F8F9382E391E48F931F928DE012
S11321608F9386E493E4892F8F9386E493E48F938B
S11321700E948B692DB73EB7285F3F4FCDBFDEBFAE
S113218066E473E48AEE93E40E948C2E14C2909168
S1132190154681E0953108F480E0882311F010920F
S11321A0154680911546882F90E0880F991F880F57
S11321B0991F8A53994BFC0180819181A281B3813B
S11321C08B8F9C8FAD8FBE8F8B8D9C8DAD8DBE8D77
S11321D081309940AD43B10548F48B8D9C8DAD8D14
S11321E0BE8D803E9746A543B10598F4809115466F
S11321F0882F90E0880F991F880F991F8A53994B55
S1132200FC0110821182128213821B8E1C8E1D8E81
S11322101E8E809115469C81981769F42D813E810C
S11322204F8158858B8D9C8DAD8DBE8D28173907B8
S11322304A075B0711F081E001C080E0882309F4BC
S1132240B7C1809115468C838B8D9C8DAD8DBE8DD1
S11322508D839E83AF83B8878C81882F90E001960D
S1132260292F2F938F9381E491E4892F8F9381E415
S113227091E48F931F928DE08F9386E493E4892FEA
S11322808F9386E493E48F930E948B692DB73EB7B6
S1132290285F3F4FCDBFDEBF66E473E48AEE93E46C
S11322A00E948C2E8C81882F90E0880F991F880FB4
S11322B0991F8A53994BFC0180819181A281B3813A
S11322C08B8F9C8FAD8FBE8F8B8D9C8DAD8DBE8D76
S11322D0892B8A2B8B2B09F4DCC08B8D9C8DAD8DC7
S11322E0BE8D9E0125583F4FAC01BD01C9010E941E
S11322F0186489A99AA9019709F06FC0CE0185587D
S11323009F4F292F2F938F938FE491E4892F8F93DD
S11323108FE491E48F931F928DE08F9386E493E48E
S1132320892F8F9386E493E48F930E948B692DB752
S11323303EB7285F3F4FCDBFDEBF66E473E48AEE4D
S113234093E40E948C2E80911546882F90E08E5C39
S11323509C4BFC01908181E0992309F480E088235F
S113236091F180911546882F90E08E5C9C4BFC0186
S11323708081282F30E0C901880F991F880F991F89
S1132380880F991F821B930B87599D4B292F2F93DD
S11323908F9388E591E4892F8F9388E591E48F9357
S11323A01F928DE08F9386E493E4892F8F9386E4C4
S11323B093E48F930E948B692DB73EB7285F3F4FFC
S11323C0CDBFDEBF5FC08DE0EFE5F1E4A6E4B3E48A
S11323D001900D928A95E1F755C089A99AA90297AF
S11323E001F5CE0185589F4F292F2F938F938CE6AB
S11323F091E4892F8F938CE691E48F931F928DE063
S11324008F9386E493E4892F8F9386E493E48F93E8
S11324100E948B694DB75EB7485F5F4FCDBFDEBF8B
S113242031C080911546882F90E08E5C9C4BFC0156
S11324308081282F30E0C901880F991F880F991FC8
S1132440880F991F821B930B87599D4B292F2F931C
S11324508F938CE691E4892F8F938CE691E48F938C
S11324601F928DE08F9386E493E4892F8F9386E403
S113247093E48F930E948B692DB73EB7285F3F4F3B
S1132480CDBFDEBF66E473E48AEE93E40E948C2E33
S11324908FC08DE0E5E7F1E4A6E4B3E401900D928A
S11324A08A95E1F766E473E48AEE93E40E948C2E45
S11324B07FC089E0E2E8F1E4A6E4B3E401900D9280
S11324C08A95E1F766E473E48AEE93E40E948C2E25
S11324D08DE0EBE8F1E4A6E4B3E401900D928A9573
S11324E0E1F766E473E48AEE93E40E948C2E63C001
S11324F08DE0E8E9F1E4A6E4B3E401900D928A9555
S1132500E1F766E473E48AEE93E40E948C2E8DE096
S1132510E5EAF1E4A6E4B3E401900D928A95E1F7CB
S113252066E473E48AEE93E40E948C2E44C0298509
S11325303A858B859C8528173907E1F18B859C8525
S113254089879A8762EB71E48AEE93E40E948C2E69
S11325506BEB71E48AEE93E40E948C2E86EC91E49A
S1132560892F8F9386EC91E48F938BEC91E4892FE0
S11325708F938BEC91E48F9386E493E4892F8F936C
S113258086E493E48F930E94C2690F900F900F909A
S11325900F900F900F9066E473E48AEE93E40E9428
S11325A08C2E08C0000007C0000005C0000003C056
S11325B0000001C000008AEE93E40E94692D21E02E
S11325C0892B09F420E0222309F4CBC0CE018A57D9
S11325D09F4FAC0166E473E48AEE93E40E94EF2E0D
S11325E0CE018A579F4FFC0180819181039708F4A3
S11325F0B8C0809146438DAB809147438EAB8DA983
S1132600882F90E0C0978FAB98AF19AE1AAE83E0D5
S113261090E08BAF9CAF2FA938AD8BAD9CAD8217EA
S113262093076CF02FA938AD89AD9AAD28173907F7
S11326301CF489AD9AAD05C08FA998AD02C08BADCD
S11326409CAD8DAF8EA9882F90E0C0978EAF9FAFC1
S1132650CE01805C9F4FFC0110821182CE018E5B03
S11326609F4F29E030E0FC0120833183CE018E5B53
S11326709F4F2EAD3FADFC0180819181821793075E
S1132680ACF0CE01805C9F4F2EAD3FADFC0180814C
S11326909181281739073CF4CE01805C9F4FFC01DF
S11326A08081918109C08EAD9FAD06C0CE018E5B45
S11326B09F4FFC01808191819E012C5B3F4FF9016A
S11326C08083CE018A579F4FFC0180819181BC0198
S11326D086E493E40E94E0638823C1F1CE018C5B1D
S11326E09F4FFC0140816DAD8EED93E40E94E43276
S11326F0CE018A579F4FFC01808191819C01225019
S11327003109CE018A579F4FFC0120833183CE01CA
S11327108A579F4FFC01808191818E010B5B1F4F73
S1132720AC0168E473E48EED93E40E948036F80112
S113273080839183CE018B5B9F4FFC0180819181CB
S1132740892B21F08EED93E40E942E32CE018A571C
S11327509F4FAC0166E473E48AEE93E40E94EF2E8B
S11327603FCF8091094090910A40A0910B40B091D5
S11327700C4021E0892B8A2B8B2B09F020E02223AB
S113278099F08EE090E00E944A0A21E00A9709F449
S113279020E0222329F08AE090E00E944A0A04C043
S11327A08AEE93E40E94692D80910640909107403F
S11327B021E0892B09F020E0222359F00E941C0A11
S11327C061E083E00E94A20161E087E00E94A2012F
S11327D014C09091AA4381E08927882371F08EE088
S11327E090E00E944A0A21E00B9709F420E022239A
S11327F021F08BE090E00E944A0A8091CC439091B2
S1132800CD4321E0892B09F420E0222391F080912B
S1132810CC439091CD4321E0019709F020E022239D
S113282021F48091CC439091CD431092CC431092EB
S1132830CD438091D8438823A9F01092D8438EE0E9
S113284090E00E944A0A21E0892B09F020E022232B
S113285029F084E090E00E944A0A04C080E090E0FD
S11328600E944A0A8091C6439091C74321E0892B74
S113287009F420E0222309F488C08091C643909192
S1132880C74321E0019709F020E0222321F480913D
S1132890C6439091C7439091B74381E0992309F4CB
S11328A080E0882311F01092B7438EE090E00E94FC
S11328B04A0A21E0892B09F420E0222309F45BC0B1
S11328C08B81882319F01B8281E08E8B80911546C1
S11328D0882F90E0880F991F880F991F8A53994B6E
S11328E0FC0180819181A281B38121E0892B8A2B13
S11328F08B2B09F020E02223C9F18091154661E079
S11329000E947B22809315469091154681E09F3F5B
S113291009F080E0882319F01092144627C08091B2
S11329201446813019F580911546882F90E0880F60
S1132930991F880F991F8A53994BFC0180819181BB
S1132940A281B3818093684090936940A0936A40C8
S1132950B0936B408091684090916940A0916A4027
S1132960B0916B40BC01CD010E94805A8DE090E093
S11329700E944A0A06C08B81882319F01B8281E0D9
S11329808E8B1092C6431092C7438091D6438823FE
S113299009F46EC08EE090E00E944A0A21E0892B7F
S11329A009F420E0222309F45BC08B81882319F009
S11329B01B8281E08E8B80911546882F90E0880FD2
S11329C0991F880F991F8A53994BFC01808191812B
S11329D0A281B38121E0892B8A2B8B2B09F020E083
S11329E02223C9F18091154661E00E947B228093E5
S11329F015469091154681E09F3F09F080E08823B9
S1132A0019F01092144627C080911446813019F5AC
S1132A1080911546882F90E0880F991F880F991F81
S1132A208A53994BFC0180819181A281B381809367
S1132A30684090936940A0936A40B0936B40809142
S1132A40684090916940A0916A40B0916B40BC018C
S1132A50CD010E94805A80E090E00E944A0A06C09C
S1132A608B81882319F01B8281E08E8B1092D643D0
S1132A708091C8439091C94321E0892B09F420E057
S1132A80222309F4A0C08091C8439091C94321E056
S1132A90019709F020E0222341F041E060E070E07A
S1132AA089EE93E40E94AC5214C08091C843909183
S1132AB0C94321E0029709F020E0222351F08091DC
S1132AC0DD43882331F09091234081E0892780936E
S1132AD023409091B74381E0992309F480E088234F
S1132AE011F01092B7438EE090E00E944A0A21E070
S1132AF0892B09F420E0222309F45BC08B8188230D
S1132B0019F01B8281E08E8B80911546882F90E00E
S1132B10880F991F880F991F8A53994BFC01808154
S1132B209181A281B38121E0892B8A2B8B2B09F01F
S1132B3020E02223C9F18091154661E00E947B22A6
S1132B40809315469091154681E09F3F09F080E0FF
S1132B50882319F01092144627C0809114468130BE
S1132B6019F580911546882F90E0880F991F880FDA
S1132B70991F8A53994BFC0180819181A281B38171
S1132B808093684090936940A0936A40B0936B40EF
S1132B908091684090916940A0916A40B0916B40E7
S1132BA0BC01CD010E94805A8DE090E00E944A0A47
S1132BB006C08B81882319F01B8281E08E8B1092D2
S1132BC0C8431092C9438091D743882309F46EC047
S1132BD08EE090E00E944A0A21E0892B09F420E06B
S1132BE0222309F45BC08B81882319F01B8281E0C6
S1132BF08E8B80911546882F90E0880F991F880F3F
S1132C00991F8A53994BFC0180819181A281B381E0
S1132C1021E0892B8A2B8B2B09F020E02223C9F198
S1132C208091154661E00E947B2280931546909125
S1132C30154681E09F3F09F080E0882319F0109247
S1132C40144627C080911446813019F580911546A9
S1132C50882F90E0880F991F880F991F8A53994BEA
S1132C60FC0180819181A281B3818093684090931B
S1132C706940A0936A40B0936B4080916840909102
S1132C806940A0916A40B0916B40BC01CD010E94A3
S1132C90805A80E090E00E944A0A06C08B81882313
S1132CA019F01B8281E08E8B1092D7438091CA4326
S1132CB09091CB4321E0892B09F420E0222309F4ED
S1132CC047C18091CA439091CB4321E0019709F019
S1132CD020E02223E1F180911446882349F4809175
S1132CE0154661E00E947B228F3F11F081E001C014
S1132CF080E0882339F181E0809314468091154661
S1132D00882F90E0880F991F880F991F8A53994B39
S1132D10FC0180819181A281B3818093684090936A
S1132D206940A0936A40B0936B4080916840909151
S1132D306940A0916A40B0916B40BC01CD010E94F2
S1132D40805A02C01092144681E08E8BFDC080919F
S1132D50CA439091CB4321E0029709F020E022235B
S1132D6009F4BDC08EE090E00E944A0A092E000CCE
S1132D70AA0BBB0B88309105A105B10508F0DFC093
S1132D808B53994EFC010C941368CD1606176517E6
S1132D906A17D216F716FC16011781E08B8381E0BF
S1132DA08E8BD2C08B859C85892B29F481E090E0A1
S1132DB00E944A0AC6C08B859C85019771F460E025
S1132DC081E00E94DC2480E096E027E0FC0120877B
S1132DD085E090E00E944A0AB4C08B859C850697E2
S1132DE009F0AFC089E090E00E944A0AAAC086E0D8
S1132DF090E00E944A0AA8C087E090E00E944A0A34
S1132E00A3C08DE090E00E944A0A9EC082E090E058
S1132E100E944A0A80911546882F90E0880F991FD6
S1132E20880F991F8A53994BFC0180819181A2815B
S1132E30B38121E0892B8A2B8B2B09F020E02223FC
S1132E4009F481C08091684090916940A0916A40E2
S1132E50B0916B4081309940AD43B10568F48091E5
S1132E60684090916940A0916A40B0916B40803E67
S1132E709746A543B10510F481E001C080E08823A2
S1132E8061F080E39BE2A6E3B0E080936840909316
S1132E906940A0936A40B0936B4080911546282FF7
S1132EA030E08091684090916940A0916A40B0916F
S1132EB06B40220F331F220F331F2A53394BF90162
S1132EC080839183A283B3833EC083E090E00E9419
S1132ED04A0A3AC08DE090E00E944A0A35C08091C7
S1132EE0CA439091CB4321E0039709F020E02223C9
S1132EF059F18EE090E00E944A0A21E0029709F01D
S1132F0020E0222309F180911546882F90E0880F54
S1132F10991F880F991F8A53994BFC0110821182C3
S1132F201282138280911546882F90E08E5C9C4B10
S1132F30FC0110828DE090E00E944A0A05C0000066
S1132F4003C0000001C000001092CA431092CB439A
S1132F508091C2439091C3438091D943882311F057
S1132F601092D9439091DD4381E08927882309F0A9
S1132F70188E8091AE439091AF4321E0892B09F4E0
S1132F8020E0222309F42DC4CE01895B9F4F2091B8
S1132F900840FC0120838CE390E0809306409093EA
S1132FA007408091DD43888F8091AE439091AF4379
S1132FB0892F881F8827881F882309F40BC28EE075
S1132FC090E00E944A0A092E000CAA0BBB0B883021
S1132FD09105A105B10508F0F0C18E50984EFC0191
S1132FE00C941368FA17CD1833198919D019DD19FF
S1132FF0AB19BD1980911344882341F08091264078
S1133000882F90E005960E948B09B4C08B81882399
S113301009F475C080911446882309F040C080915A
S1133020684090916940A0916A40B0916B4021E062
S113303081159940AD43B10508F020E0222309F43D
S11330404CC08091DD438823A9F080916840909121
S11330506940A0916A40B0916B4088519C4FAF4F3A
S1133060BF4F8093684090936940A0936A40B093A7
S11330706B4033C08091684090916940A0916A4050
S1133080B0916B408C599F4FAF4FBF4F80936840B6
S113309090936940A0936A40B0936B401EC08091A6
S11330A0154661E00E947B22809315468091154667
S11330B0882F90E0880F991F880F991F8A53994B86
S11330C0FC0180819181A281B381809368409093B7
S11330D06940A0936A40B0936B408091684090919E
S11330E06940A0916A40B0916B40BC01CD010E943F
S11330F0805A8091A8458F5F8093A8453BC08091FA
S1133100DA438823C9F0809121409091224021E044
S11331100A9708F020E0222369F1809121409091E0
S11331202240019680932140909322408091A845AB
S11331308F5F8093A8451EC0CE01895B9F4FFC0121
S113314080818823B9F0CE01895B9F4F9E01295B62
S11331503F4FF90120812150FC012083CE01895B7E
S11331609F4FFC0180810E94D0608091A8458F5FB1
S11331708093A84580E090E00E940B5DDC01CB01C8
S11331808093684090936940A0936A40B0936B40E9
S11331900E9404618093084013C1809115468F5F9B
S11331A0809315469091154681E0943108F480E0AF
S11331B0882311F01092154681E08E8B809115467C
S11331C0882F90E09E01245B3F4F880F991F880F42
S11331D0991F8A53994BFC0180819181A281B3810B
S11331E0F90180839183A283B383CE01845B9F4FD3
S11331F0FC0180819181A281B38181159940AD4305
S1133200B10520F5CE01845B9F4FFC018081918143
S1133210A281B381813E9746A543B105B8F0809160
S11332201546882F90E0880F991F880F991F8A539D
S1133230994BFC0180819181A281B3818093684084
S113324090936940A0936A40B0936B40809168402A
S113325090916940A0916A40B0916B40BC01CD014E
S11332600E94805AADC08091684090916940A091BD
S11332706A40B0916B4021E081159940AD43B1059E
S113328008F020E0222369F18091DD438823A9F02E
S11332908091684090916940A0916A40B0916B40E0
S11332A088519C4FAF4FBF4F8093684090936940C3
S11332B0A0936A40B0936B4014C080916840909191
S11332C06940A0916A40B0916B408C599F4FAF4FB9
S11332D0BF4F8093684090936940A0936A40B09335
S11332E06B4080911546282F30E080916840909182
S11332F06940A0916A40B0916B40220F331F220FA6
S1133300331F2A53394BF90180839183A283B383FA
S113331057C080911546882F90E08E5C9C4BFC0131
S113332080818F8F8F8D8F5F8F8F81E09F8D9831FC
S113333008F480E0882309F01F8E80911546882FB9
S113334090E08E5C9C4B2F8DFC0120831D821E829D
S11333501F82188635C08091584088A388A18F5F4A
S113336088A381E098A1943608F480E0882309F0CA
S113337018A288A18093584023C08091594089A302
S113338089A18F5F89A381E099A1943608F480E034
S1133390882311F083E689A389A18093594010C042
S11333A08B85882F90E001968B879C878B859C85E5
S11333B0079729F41B861C8602C0000001C0000088
S11333C08091AE439091AF4301968093AE43909326
S11333D0AF4307C28EE090E00E944A0A092E000C17
S11333E0AA0BBB0B88309105A105B10508F0EDC10E
S11333F08350964EFC010C941368051AD81A401B8E
S1133400971BD41BE51BB71BC71B80911344882350
S113341041F080912640882F90E005970E948B0907
S1133420B4C08B81882309F475C080911446882325
S113343009F040C08091684090916940A0916A4031
S1133440B0916B4021E0813E9746A543B10508F455
S113345020E0222309F44CC08091DD438823A9F0A5
S11334608091684090916940A0916A40B0916B400E
S1133470885E9340A109B1098093684090936940A4
S1133480A0936A40B0936B4033C0809168409091A0
S11334906940A0916A40B0916B4084569109A1099A
S11334A0B1098093684090936940A0936A40B093B7
S11334B06B401EC08091154660E00E947B22809381
S11334C0154680911546882F90E0880F991F880F24
S11334D0991F8A53994BFC0180819181A281B38108
S11334E08093684090936940A0936A40B0936B4086
S11334F08091684090916940A0916A40B0916B407E
S1133500BC01CD010E94805A8091A8458F5F8093B1
S1133510A8453BC08091DA438823C9F080912140BB
S11335209091224021E0029708F420E0222369F1DF
S11335308091214090912240019780932140909363
S113354022408091A8458F5F8093A8451EC0CE017C
S1133550895B9F4FFC0180818A30B8F4CE01895B7E
S11335609F4F9E01295B3F4FF90120812F5FFC0192
S11335702083CE01895B9F4FFC0180810E94D06033
S11335808091A8458F5F8093A84580E090E00E94D9
S11335900B5DDC01CB018093684090936940A0935C
S11335A06A40B0936B400E9404618093084010C14C
S11335B09091154681E0992309F080E0882321F059
S11335C083E18093154605C0809115468150809310
S11335D0154680911546882F90E09E01285B3F4F49
S11335E0880F991F880F991F8A53994BFC0180817A
S11335F09181A281B381F90180839183A283B383F2
S113360081E08E8BCE01885B9F4FFC01808191818C
S1133610A281B38181159940AD43B10520F5CE0156
S1133620885B9F4FFC0180819181A281B381813E9F
S11336309746A543B105B8F080911546882F90E0D0
S1133640880F991F880F991F8A53994BFC01808119
S11336509181A281B3818093684090936940A09343
S11336606A40B0936B408091684090916940A0910A
S11336706A40B0916B40BC01CD010E94805AA8C041
S11336808091684090916940A0916A40B0916B40EC
S113369021E0813E9746A543B10508F420E02223AA
S11336A009F495C08091DD438823A9F08091684096
S11336B090916940A0916A40B0916B40885E9340BC
S11336C0A109B1098093684090936940A0936A402E
S11336D0B0936B4014C08091684090916940A09170
S11336E06A40B0916B4084569109A109B109809355
S11336F0684090936940A0936A40B0936B40809176
S11337001546282F30E08091684090916940A0913F
S11337106A40B0916B40220F331F220F331F2A538C
S1133720394BF90180839183A283B38350C0809184
S11337301546882F90E08E5C9C4BFC0180818AA307
S11337408AA1882321F08AA181508AA302C087E13B
S11337508AA380911546882F90E08E5C9C4B2AA109
S1133760FC0120831D821E821F82188631C0809135
S113377058408BA38BA1882321F08BA181508BA36C
S113378002C083E68BA38BA18093584021C0809113
S113379059408CA38CA1882319F08CA181508CA34F
S11337A08CA18093594014C08B858DA38DA188234F
S11337B021F08DA181508DA302C086E08DA38DA13F
S11337C0882F90E08B879C8703C0000001C0000015
S11337D08091AE439091AF4301978093AE43909311
S11337E0AF4387EF95E40E94BF4D882341F0809159
S11337F0244090912540892B11F481E001C080E0A0
S1133800882309F47AC31EA21FA218A685E090E0BB
S11338108093244090932540CE0188579F4FFC010C
S11338201082118280E090E0A6E1B4E4AC01BD0115
S113383087EF95E40E941A4C8E01005B1F4FCE0166
S113384088579F4FBC0187EF95E40E94CD4DDC0162
S1133850CB01F80180839183A283B38380E090E05D
S1133860AFE2B4E4AC01BD0187EF95E40E941A4CC9
S11338708E010C5A1F4FCE0188579F4FBC0187EF12
S113388095E40E94CD4DDC01CB01F8018083918346
S1133890A283B38380E090E0A8E4B4E4AC01BD016A
S11338A087EF95E40E941A4C8E01085A1F4FCE01EF
S11338B088579F4FBC0187EF95E40E94CD4DDC01F2
S11338C0CB01F80180839183A283B383CE01805B13
S11338D09F4F9E012C5A3F4FF90120813181428133
S11338E05381FC0160817181828193810E94A36470
S11338F0DC01CB019C01AD018E01045A1F4FCE01A6
S1133900885A9F4FFC0160817181828193810E945A
S1133910A364DC01CB01F80180839183A283B38388
S11339200E940461282F9091394081E0291709F4FD
S113393080E0882319F10E94046180933940109239
S1133940ED451092EE451092EF451092F04580EF50
S113395093E2A4E7B9E48093354090933640A09372
S11339603740B09338401092E9451092EA451092DE
S1133970EB451092EC4584E18093344080913440CF
S1133980882309F46EC08091344081508093344080
S11339908091E5459091E645A091E745B091E845D1
S11339A0BE01645A7F4F9C01AD01FB0160817181AE
S11339B0828193810E94C0661816F4F4CE01845A61
S11339C09F4FFC0180819181A281B3818093ED4559
S11339D09093EE45A093EF45B093F045CE01845A01
S11339E09F4FFC0180819181A281B381AC01BD0113
S11339F08EEF93E40E945F2B809135409091364086
S1133A00A0913740B0913840BE01645A7F4F9C0169
S1133A10AD01FB0160817181828193810E940F65F8
S1133A20882384F4CE01845A9F4FFC0180819181C4
S1133A30A281B3818093354090933640A093374060
S1133A40B0933840CE01845A9F4FFC01808191810C
S1133A50A281B381AC01BD0184EF93E40E945F2B8A
S1133A60C6C18091E9459091EA45A091EB45B0919A
S1133A70EC45BE01645A7F4F9C01AD01FB0160819E
S1133A807181828193810E94C06618160CF086C0F1
S1133A908091ED459091EE45A091EF45B091F045B0
S1133AA020E030E040E151E4BC01CD010E941D67FB
S1133AB0DC01CB017C018D01CE01845A9F4FFC01B6
S1133AC02081318142815381C801B7010E94A364DE
S1133AD0DC01CB0120E030E040E251E4BC01CD0147
S1133AE00E941965DC01CB018093ED459093EE456E
S1133AF0A093EF45B093F0458091ED459091EE454C
S1133B00A091EF45B091F045AC01BD018EEF93E477
S1133B100E945F2B8EEF93E40E94D12BDC01CB013A
S1133B2020E030E040E850E4BC01CD010E9419657A
S1133B30DC01CB017C018D018091E9459091EA453E
S1133B40A091EB45B091EC459C01AD01C801B701D2
S1133B500E94A364DC01CB018093E5459093E64584
S1133B60A093E745B093E8458091E5459091E645FB
S1133B70A091E745B091E845BE01645A7F4F11E03A
S1133B809C01AD01FB0160817181828193810E945E
S1133B90C06618160CF010E018A742C0809135409A
S1133BA090913640A0913740B091384020E030E009
S1133BB040E151E4BC01CD010E941D67DC01CB0151
S1133BC07C018D01CE01845A9F4FFC0120813181FB
S1133BD042815381C801B7010E94A364DC01CB0177
S1133BE020E030E040E251E4BC01CD010E941965BF
S1133BF0DC01CB018093354090933640A09337404D
S1133C00B09338408091354090913640A091374030
S1133C10B0913840AC01BD0184EF93E40E945F2B66
S1133C208091E5459091E645A091E745B091E8453E
S1133C30BC01CD010E94C5666B017C018091E94500
S1133C409091EA45A091EB45B091EC4520E030E03D
S1133C5040EA51E4BC01CD010E94A364DC01CB0124
S1133C60BC01CD010E94C566DC01CB019C01AD0104
S1133C70C701B6010E94A264DC01CB0120E030E060
S1133C8048EC52E4BC01CD010E941D67DC01CB016C
S1133C90BC01CD010E949265DC01CB01BC0188E02E
S1133CA094E40E94952F88E094E40E94FE2F8EA352
S1133CB09FA388A5882309F479C08091F145909148
S1133CC0F24501968093F1459093F2458091F14538
S1133CD09091F245029708F48AC08EA19FA10E9795
S1133CE068F041E068E070E089EE93E40E94AC5231
S1133CF061E070E089EE93E40E9493521092F345E0
S1133D001092F4458091DA43882321F48091DB43B7
S1133D10882311F081E001C080E0882309F43FC0CA
S1133D208091BC439091BD432EA13FA1821793077C
S1133D3090F48091BC439091BD4301968093BC4321
S1133D409093BD4310922440109225401092F54563
S1133D501092F6454CC08091BC439091BD432EA176
S1133D603FA12817390708F042C08091F54590918A
S1133D70F64501968093F5459093F6458091F54577
S1133D809091F6458536910590F18091BC439091D0
S1133D90BD4301978093BC439093BD4328C08EA13B
S1133DA09FA18093BC439093BD4321C08091F34570
S1133DB09091F44501968093F3459093F4451092C5
S1133DC0F1451092F2458091F3459091F4450397A3
S1133DD070F041E067E070E089EE93E40E94AC5239
S1133DE041E062E070E089EE93E40E94AC528EA15F
S1133DF09FA1449708F081C08091ED459091EE45D4
S1133E00A091EF45B091F045209135403091364076
S1133E104091374050913840BC01CD010E94A364C9
S1133E20DC01CB018E01005A1F4F20E030E040E05E
S1133E3050E4BC01CD010E941965DC01CB01F801FD
S1133E4080839183A283B3839E012C593F4F809139
S1133E50E5459091E645A091E745B091E845F90123
S1133E6080839183A283B383CE01805A9F4F9E01A6
S1133E702C593F4FF9012081318142815381FC014A
S1133E8060817181828193810E940F6588234CF443
S1133E90CE01805A9F4FFC0180819181A281B38120
S1133EA008C0CE018C599F4FFC0180819181A28171
S1133EB0B3818093E9459093EA45A093EB45B09391
S1133EC0EC458091E9459091EA45A091EB45B0918C
S1133ED0EC45AC01BD0184EF93E40E945F2B84EFB9
S1133EE093E40E94D12BDC01CB018093E9459093AC
S1133EF0EA45A093EB45B093EC458091B843882301
S1133F0011F40C94D50C89EE93E40E9465520E943E
S1133F100C6360E083E00E94A2010E94033882E007
S1133F2090E00E94F45F81E08093B94310920D40C9
S1133F3010920E408091B843882309F180E590E007
S1133F40FC018081897F282F226080E590E0FC01BC
S1133F502083F89480E590E0FC01208180E590E0E6
S1133F602160FC0120837894889580E590E0FC0131
S1133F70208180E590E02E7FFC012083DBCF10922E
S1133F80B9430E94980161E083E00E94A2010E946B
S1133F90366380910D4090910E400C94D50CCF92D5
S1133FA0DF92EF92FF920F931F93CF93DF93CDB7DE
S1133FB0DEB72897CDBFDEBF8F8398878AE390E46E
S1133FC08D839E838F819885892B61F08F8198855D
S1133FD0FC0180819181A281B38189839A83AB831F
S1133FE0BC8318C080911D4090911E40880F991F7A
S1133FF086549C4BFC0180819181CC01A0E0B0E00F
S1134000BC01CD010E94C165DC01CB0189839A8387
S1134010AB83BC8320E030E84BE554E469817A81CA
S11340208B819C810E940F6518162CF019821A82CC
S11340301B821C821AC020E030E84BE554E46981FD
S11340407A818B819C810E94A264DC01CB0126E6EB
S113405036E646E350E4BC01CD010E941965DC015B
S1134060CB0189839A83AB83BC8320E030E048ECA6
S113407052E469817A818B819C810E94C066181602
S113408044F480E090E0A8ECB2E489839A83AB83A3
S1134090BC8320E030E040E752E469817A818B817F
S11340A09C810E941D67DC01CB016C017D01809124
S11340B05840882F90E09C012F5F3F4F42E3429F7E
S11340C0C001439F900D1124092E000CAA0BBB0BB9
S11340D0BC01CD010E94C365DC01CB019C01AD0193
S11340E0C701B6010E941D67DC01CB0120E030E46A
S11340F04CE955E4BC01CD010E941965DC01CB01FA
S113410089839A83AB83BC8389819A81AB81BC8187
S11341100AE310E420E043E0BC01CD010E943668CC
S113412010923E408AE390E40E942B228D839E836A
S11341308D819E812896CDBFDEBFDF91CF911F91E7
S11341400F91FF90EF90DF90CF9008950F931F93FE
S1134150CF93DF93CDB7DEB72C97CDBFDEBF6F8390
S1134160788789879A874B875C8781E490E48D837D
S11341709E8320E030E84BE554E46F81788589859F
S11341809A850E940F6518162CF019821A821B82D8
S11341901C821AC020E030E84BE554E46F81788536
S11341A089859A850E94A264DC01CB0126E636E665
S11341B046E350E4BC01CD010E941965DC01CB014A
S11341C089839A83AB83BC8320E030E048EC52E4DB
S11341D069817A818B819C810E94C066181644F49F
S11341E080E090E0A8ECB2E489839A83AB83BC833B
S11341F08B859C85892B59F02B853C8589819A81F7
S1134200AB81BC81F90180839183A283B3838981CB
S11342109A81AB81BC8101E410E420E042E0BC015E
S1134220CD010E9436681092444081E490E40E94DB
S11342302B228D839E838D819E812C96CDBFDEBFE4
S1134240DF91CF911F910F9108950F931F93CF93F7
S1134250DF93CDB7DEB72997CDBFDEBF8F836887E5
S113426079878CE490E48D839E8388859985892B56
S113427061F088859985FC0180819181A281B38157
S113428089839A83AB83BC8318C080911D4090912D
S11342901E40880F991F86549C4BFC01808191819C
S11342A0CC01A0E0B0E0BC01CD010E94C165DC01FD
S11342B0CB0189839A83AB83BC8320E030E040E95F
S11342C053E469817A818B819C810E941D67DC01A2
S11342D0CB0189839A83AB83BC8320E030E040E840
S11342E055E469817A818B819C810E941965DC0186
S11342F0CB0189839A83AB83BC8320E030E040E028
S113430050E469817A818B819C810E94A364DC01E1
S1134310CB0189839A83AB83BC8388859985892B58
S113432069F089819A81AB81BC81809348409093E4
S11343304940A0934A40B0934B402EC080914840DE
S113434090914940A0914A40B0914B4020E030E028
S113435040E151E4BC01CD010E941D67DC01CB01A9
S113436029813A814B815C81BC01CD010E94A36407
S1134370DC01CB0120E030E040E251E4BC01CD019E
S11343800E941965DC01CB01809348409093494019
S1134390A0934A40B0934B4020E030E0A9016981EA
S11343A07A818B819C810E94C06688230CF449C069
S11343B020E030E044E353E469817A818B819C817D
S11343C00E940F651816ECF18F81882329F18091E2
S11343D0484090914940A0914A40B0914B4020E020
S11343E030E040E251E4BC01CD010E941965DC01DA
S11343F0CB010CE410E422E045E0BC01CD010E94B5
S11344003668109252408CE490E40E942B228D83F3
S11344109E838D819E8117C0809148409091494030
S1134420A0914A40B0914B400CE410E420E044E0F9
S1134430BC01CD010E943668109251408CE490E496
S113444002C08CE490E42996CDBFDEBFDF91CF910A
S11344501F910F910895CF93DF9300D000D0CDB773
S1134460DEB78B839C838B819C81FC018081882FA8
S113447090E00E947969892B31F08B819C810196AF
S11344808B839C83F0CF8B819C81FC01808188236A
S113449019F48B819C8129C08B819C810E94826943
S11344A001972B813C81820F931F89839A832981F1
S11344B03A818B819C818217930780F489819A8148
S11344C0FC018081882F90E00E947969892B31F06A
S11344D089819A81019789839A83E9CF89819A8115
S11344E00196FC0110828B819C812496CDBFDEBF96
S11344F0DF91CF910895CF93DF93CDB7DEB72597A2
S1134500CDBFDEBF8C836D838C818B8319821A822D
S11345108D81882339F18A81882309F04AC08981F1
S1134520843108F046C089818F5F89838B818F5FD6
S11345308B838B81843108F01B828B81882F90E0E0
S1134540880F991F880F991F8A53994BFC0180810A
S11345509181A281B381892B8A2B8B2BE1F281E09B
S11345608A83D9CF8A81882321F58981843108F50A
S113457089818F5F89838B81882321F08B8181508E
S11345808B8302C083E18B838B81882F90E0880F1B
S1134590991F880F991F8A53994BFC01808191813F
S11345A0A281B381892B8A2B8B2BE1F281E08A8350
S11345B0D9CF9A8181E08927882311F08FEF8B83EB
S11345C08B812596CDBFDEBFDF91CF910895CF9328
S11345D0DF9300D000D0CDB7DEB789839A836B8395
S11345E07C8389819A81019741F58B819C81019615
S11345F021F58EED93E40E94AA3189EE93E40E94A2
S1134600CA5064E670E08AEE93E40E94CD2C6EE119
S113461070E084EF93E40E94132B6AE070E08EEF65
S113462093E40E94132B6AE070E088E094E40E9413
S11346304B2F82E194E40E941F3889819A81892B4F
S1134640E1F48B819C810196C1F482E194E40E949F
S11346502C3888E094E40E94812F8EEF93E40E942A
S11346604B2B84EF93E40E944B2B8AEE93E40E943D
S1134670012D89EE93E40E94D75000002496CDBF0B
S1134680DEBFDF91CF910895CF93DF93CDB7DEB72F
S11346906FEF7FEF81E090E00E94E722DF91CF91FE
S11346A00895CF93DF93CDB7DEB76FEF7FEF80E050
S11346B090E00E94E722DF91CF910895CF93DF939A
S11346C0CDB7DEB78091F8459091F945892B29F053
S11346D080E096E021E0FC0122870000DF91CF9189
S11346E00895CF93DF93CDB7DEB780E096E0FC0169
S11346F08585882F90E08170992721E0892B09F422
S113470020E0822FDF91CF910895CF93DF93CDB72F
S1134710DEB780E694E0FC01208980E694E0287FFF
S1134720FC01208B80E694E0FC01208980E694E083
S11347302460FC01208B80E694E0FC01218980E662
S113474094E0287FFC01218B80E694E0FC01218920
S113475080E694E02460FC01218B80E694E0FC0177
S1134760228980E694E0287FFC01228B80E694E095
S1134770FC01228980E694E02460FC01228B80E61F
S113478094E0FC01238980E694E0287FFC01238BDC
S113479080E694E0FC01238980E694E02460FC0137
S11347A0238B80E694E0FC01248980E694E0287F52
S11347B0FC01248B80E694E0FC01248980E694E0EB
S11347C02460FC01248B80E694E0FC01258980E6CA
S11347D094E0287FFC01258B80E694E0FC01258988
S11347E080E694E02460FC01258B80E694E0FC01E3
S11347F0278980E694E0287FFC01278B80E694E0FB
S1134800FC01278980E694E02460FC01278B80E684
S113481094E0FC01208980E694E0277FFC01208B52
S113482080E694E0FC01218980E694E0277FFC0186
S1134830218B80E694E0FC01228980E694E0277FC6
S1134840FC01228B80E694E0FC01238980E694E05D
S1134850277FFC01238B80E694E0FC01248980E619
S113486094E0277FFC01248B80E694E0FC012589F9
S113487080E694E0277FFC01258B80E694E0FC0130
S1134880278980E694E0277FFC01278B0000DF91D5
S1134890CF910895CF93DF931F92CDB7DEB789836D
S11348A089818823D9F080EA90E021E8FC01208303
S11348B080E096E02CE0FC01228380E096E023E097
S11348C0FC01208380E096E021E0FC01248781E064
S11348D090E08093F8459093F9451AC080EA90E0FF
S11348E021E8FC01208380E096E02CE0FC01228397
S11348F080E096E027E0FC01208380E096E021E060
S1134900FC01248781E090E08093F8459093F94579
S113491000000F90DF91CF910895CF93DF931F9202
S1134920CDB7DEB789838981882319F180EA90E0C5
S113493021E0FC01208380E096E02CE0FC0122834E
S113494080E096E0FC01208180E096E02160FC019B
S1134950208380E096E0FC01248580E096E02E7FB1
S1134960FC01248782E090E08093F8459093F94518
S11349701EC080EA90E021E0FC01208380E096E004
S11349802CE0FC01228380E096E025E0FC012083FA
S113499080E096E0FC01248580E096E02E7FFC0117
S11349A0248782E090E08093F8459093F9450000D5
S11349B00F90DF91CF910895CF93DF9300D0CDB7BF
S11349C0DEB789836A830E9485238A81882321F044
S11349D089810E944A2433C080E096E0FC0124854A
S11349E080E096E02E7FFC01248780E096E0FC01C5
S11349F08081882F90E08270992721E0892B09F427
S1134A0020E02223A9F062E070E080E090E00E94C0
S1134A107761882349F00E947123982F81E08927C8
S1134A20882311F081E001C080E0882309F0EBCFF6
S1134A3080E096E0FC01108289810E948D240000B0
S1134A400F900F90DF91CF9108950F931F93CF9301
S1134A50DF9300D000D0CDB7DEB789839A836B8310
S1134A607C8389819A81019781F48B819C81019651
S1134A7061F400E014E029E536E440E050E06AEC3B
S1134A8072E487EF95E40E946F4B89819A81892BA8
S1134A9041F48B819C81019621F487EF95E40E9477
S1134AA0074C00002496CDBFDEBFDF91CF911F914C
S1134AB00F910895CF93DF93CDB7DEB76FEF7FEFFC
S1134AC081E090E00E942525DF91CF910895CF9356
S1134AD0DF93CDB7DEB76FEF7FEF80E090E00E9409
S1134AE02525DF91CF910895CF93DF93CDB7DEB71E
S1134AF02597CDBFDEBF8B836C837D838B81882F0D
S1134B0090E0805F9B4F89839A838C819D8101977C
S1134B1059F489819A81FC018081282F2860898138
S1134B209A81FC0120830EC08C819D81892B51F4D4
S1134B3089819A81FC018081282F277F89819A812C
S1134B40FC01208300002596CDBFDEBFDF91CF910D
S1134B500895CF93DF9300D01F92CDB7DEB789833A
S1134B606A837B838A819B8181309105E9F082305D
S1134B70910581F1892B09F03DC080E090E0FC01B2
S1134B808081482F8981282F30E081E090E002C0A5
S1134B90880F991F2A95E2F78095242F282380E017
S1134BA090E0FC01208326C080E090E0FC0180813D
S1134BB0482F8981282F30E081E090E002C0880FDF
S1134BC0991F2A95E2F7242F282B80E090E0FC011E
S1134BD0208310C08981882F90E0805F9B4FFC0167
S1134BE020818981882F90E0805F9B4F2860FC01A1
S1134BF02083000000002396CDBFDEBFDF91CF915C
S1134C000895CF93DF9300D0CDB7DEB789836A834D
S1134C108A818823B1F080E090E0FC018181482FF3
S1134C208981282F30E081E090E002C0880F991F2D
S1134C302A95E2F7242F282B80E090E0FC012183C1
S1134C4016C080E090E0FC018181482F8981282FE3
S1134C5030E081E090E002C0880F991F2A95E2F7C6
S1134C608095242F282380E090E0FC01218300001C
S1134C700F900F90DF91CF910895CF93DF93CDB72D
S1134C80DEB780E090E0FC018281DF91CF9108954E
S1134C90CF93DF9300D01F92CDB7DEB789836A83A9
S1134CA07B838A819B8181309105E9F08230910573
S1134CB081F1892B09F03DC084E090E0FC01808102
S1134CC0482F8981282F30E081E090E002C0880FCE
S1134CD0991F2A95E2F78095242F282384E090E0F9
S1134CE0FC01208326C084E090E0FC018081482FF1
S1134CF08981282F30E081E090E002C0880F991F5D
S1134D002A95E2F7242F282B84E090E0FC012083ED
S1134D1010C08981882F90E0805D9B4FFC01208129
S1134D208981882F90E0805D9B4F2860FC0120835F
S1134D30000000002396CDBFDEBFDF91CF91089520
S1134D40CF93DF9300D0CDB7DEB789836A838A819E
S1134D508823B1F084E090E0FC018181482F8981AF
S1134D60282F30E081E090E002C0880F991F2A9537
S1134D70E2F7242F282B84E090E0FC01218316C065
S1134D8084E090E0FC018181482F8981282F30E064
S1134D9081E090E002C0880F991F2A95E2F7809580
S1134DA0242F282384E090E0FC01218300000F904D
S1134DB00F90DF91CF910895CF93DF93CDB7DEB7F6
S1134DC02597CDBFDEBF8B836C837D838B81882F3A
S1134DD090E0805B9B4F89839A838C819D810197AE
S1134DE059F489819A81FC018081282F2860898166
S1134DF09A81FC0120830EC08C819D81892B51F402
S1134E0089819A81FC018081282F277F89819A8159
S1134E10FC01208300002596CDBFDEBFDF91CF913A
S1134E200895CF93DF9300D01F92CDB7DEB7898367
S1134E306A837B838A819B8181309105E9F082308A
S1134E40910581F1892B09F03DC088E090E0FC01D7
S1134E508081482F8981282F30E081E090E002C0D2
S1134E60880F991F2A95E2F78095242F282388E03C
S1134E7090E0FC01208326C088E090E0FC01808162
S1134E80482F8981282F30E081E090E002C0880F0C
S1134E90991F2A95E2F7242F282B88E090E0FC0143
S1134EA0208310C08981882F90E0805B9B4FFC0198
S1134EB020818981882F90E0805B9B4F2860FC01D2
S1134EC02083000000002396CDBFDEBFDF91CF9189
S1134ED00895CF93DF9300D0CDB7DEB789836A837B
S1134EE08A818823B1F088E090E0FC018181482F19
S1134EF08981282F30E081E090E002C0880F991F5B
S1134F002A95E2F7242F282B88E090E0FC012183E6
S1134F1016C088E090E0FC018181482F8981282F08
S1134F2030E081E090E002C0880F991F2A95E2F7F3
S1134F308095242F282388E090E0FC012183000041
S1134F400F900F90DF91CF910895CF93DF9300D00E
S1134F501F92CDB7DEB789836A837B838A819B8165
S1134F6081309105E9F08230910581F1892B09F0B6
S1134F703DC080E190E0FC018081482F8981282F89
S1134F8030E081E090E002C0880F991F2A95E2F793
S1134F908095242F282380E190E0FC01208326C003
S1134FA080E190E0FC018081482F8981282F30E046
S1134FB081E090E002C0880F991F2A95E2F7242F20
S1134FC0282B80E190E0FC01208310C08981882F88
S1134FD090E080579B4FFC0120818981882F90E0CD
S1134FE080579B4F2860FC0120830000000023961B
S1134FF0CDBFDEBFDF91CF910895CF93DF9300D073
S1135000CDB7DEB789836A838A818823B1F080E1D2
S113501090E0FC018181482F8981282F30E081E0D4
S113502090E002C0880F991F2A95E2F7242F282BBD
S113503080E190E0FC01218316C080E190E0FC0156
S11350408181482F8981282F30E081E090E002C0DF
S1135050880F991F2A95E2F78095242F282380E151
S113506090E0FC01218300000F900F90DF91CF911D
S11350700895CF93DF93CDB7DEB72597CDBFDEBFBD
S11350808B836C837D838B81882F90E080559B4F2D
S113509089839A838C819D81019759F489819A81AE
S11350A0FC018081282F286089819A81FC0120835A
S11350B00EC08C819D81892B51F489819A81FC01D8
S11350C08081282F277F89819A81FC012083000019
S11350D02596CDBFDEBFDF91CF910895CF93DF93A7
S11350E000D01F92CDB7DEB789836A837B838A8120
S11350F09B8181309105E9F08230910581F1892B02
S113510009F03DC084E190E0FC018081482F898151
S1135110282F30E081E090E002C0880F991F2A9583
S1135120E2F78095242F282384E190E0FC0120837A
S113513026C084E190E0FC018081482F8981282FDA
S113514030E081E090E002C0880F991F2A95E2F7D1
S1135150242F282B84E190E0FC01208310C0898156
S1135160882F90E080559B4FFC0120818981882FF6
S113517090E080559B4F2860FC01208300000000D4
S11351802396CDBFDEBFDF91CF910895CF93DF93F8
S113519000D0CDB7DEB789836A838A818823B1F0D2
S11351A084E190E0FC018181482F8981282F30E03F
S11351B081E090E002C0880F991F2A95E2F7242F1E
S11351C0282B84E190E0FC01218316C084E190E067
S11351D0FC018181482F8981282F30E081E090E013
S11351E002C0880F991F2A95E2F78095242F28235F
S11351F084E190E0FC01218300000F900F90DF9187
S1135200CF910895CF93DF93CDB7DEB784E190E0DB
S1135210FC018281DF91CF910895CF93DF93CDB7C5
S1135220DEB78091FE458093FF458091FD458093D4
S1135230FE458091FB458093FC458091FA4580931F
S1135240FB450E943D268093FA450E9402298093E3
S1135250FD459091FA458091004698272091FB45A1
S113526080910046822798232091FC458091004636
S11352708227982380910046892780930046909145
S1135280FD458091014698272091FE458091014675
S1135290822798232091FF458091014682279823F5
S11352A0809101468927809301460000DF91CF91C8
S11352B00895CF93DF93CDB7DEB780910046DF9199
S11352C0CF910895CF93DF93CDB7DEB760E070E060
S11352D080E00E94A92561E070E080E00E947425CE
S11352E060E070E081E00E94A92561E070E081E067
S11352F00E94742560E070E082E00E94A92561E0CC
S113530070E082E00E94742561E070E083E00E9416
S1135310A92561E083E00E94012660E070E084E05A
S11353200E94A92561E070E084E00E94742561E098
S113533070E085E00E94A92560E085E00E940126D6
S113534061E070E086E00E94A92560E086E00E94AA
S1135350012661E070E087E00E94A92561E087E012
S11353600E94012661E070E084E00E94482661E02A
S113537084E00E94A02660E070E082E00E94112791
S113538061E070E082E00E94DC2660E070E083E08F
S11353900E94112761E070E083E00E94DC2661E056
S11353A070E084E00E94112760E084E00E94692795
S11353B061E070E085E00E94112760E085E00E94D2
S11353C0692760E070E080E00E94A52760E070E05B
S11353D081E00E94A52761E070E082E00E94A52799
S11353E060E082E00E94FD2760E070E083E00E94BC
S11353F0A52762E070E080E00E946E2862E070E021
S113540081E00E946E2860E070E082E00E946E28D5
S113541061E070E082E00E94392860E070E083E09F
S11354200E946E2860E070E084E00E946E2860E0D4
S113543070E085E00E946E2861E070E085E00E94E3
S1135440392862E070E086E00E946E2880EA94E0E9
S1135450FC01238980EA94E02160FC01238B80EA2B
S113546094E0FC01248980EA94E02160FC01248B0F
S113547080EA94E028E1FC0121870000DF91CF91CC
S11354800895CF93DF93CDB7DEB760E070E080E09E
S11354900E94A92560E070E080E00E94742560E02D
S11354A070E081E00E94A92560E070E081E00E9444
S11354B0742560E070E082E00E94A92560E070E05D
S11354C082E00E94742561E070E083E00E94A925D7
S11354D060E083E00E94012660E070E084E00E94C6
S11354E0A92560E070E084E00E94742561E070E02A
S11354F085E00E94A92560E085E00E94012661E024
S113550070E086E00E94A92560E086E00E94012602
S113551061E070E087E00E94A92560E087E00E94D6
S1135520012661E070E084E00E94482660E084E0A7
S11355300E94A02660E070E082E00E94112761E0F2
S113554070E082E00E94DC2660E070E083E00E946C
S1135550112761E070E083E00E94DC2661E070E0E6
S113556084E00E94112760E084E00E94692761E0E2
S113557070E085E00E94112760E085E00E946927C1
S113558060E070E080E00E94A52760E070E081E0C8
S11355900E94A52761E070E082E00E94A52760E0F8
S11355A082E00E94FD2760E070E083E00E94A5276E
S11355B062E070E080E00E946E2862E070E081E0CA
S11355C00E946E2861E070E082E00E946E2860E034
S11355D082E00E94C62860E070E083E00E946E28AA
S11355E060E070E084E00E946E2861E070E085E095
S11355F00E946E2860E085E00E94C62862E070E0A8
S113560086E00E946E280000DF91CF910895CF9329
S1135610DF93CDB7DEB780E890E0FC01118680E02F
S1135620DF91CF910895CF93DF9300D000D0CDB711
S1135630DEB789839A836B837C838B819C81880FFB
S1135640991F880F991F0E9454689C0189819A812F
S1135650FC012583368389819A812B813C81FC015D
S11356602783308789819A81FC0110821182898184
S11356709A81FC011282138289819A81FC0114822D
S113568089819A81FC01118600002496CDBFDEBF7A
S1135690DF91CF910895CF93DF9300D0CDB7DEB7DC
S11356A089839A8389819A81FC01858196810E94EC
S11356B0F06800000F900F90DF91CF910895CF9381
S11356C0DF93CDB7DEB72697CDBFDEBF89839A833C
S11356D04B835C836D837E8389819A81FC01258160
S11356E0368189819A81FC0180819181880F991F7B
S11356F0880F991F280F391F8B819C81AD81BE8132
S1135700F90180839183A283B38389819A81FC0107
S113571084818823B1F089819A81FC0182819381FB
S11357200196AC0189819A81FC0127813085CA01E7
S1135730B9010E94DD679C0189819A81FC01228361
S1135740338389819A81FC01808191810196AC0126
S113575089819A81FC0127813085CA01B9010E949F
S1135760DD679C0189819A81FC01208331838981D1
S11357709A81FC012081318189819A81FC01828195
S1135780938141E02817390709F040E089819A8123
S1135790FC01448300002696CDBFDEBFDF91CF918C
S11357A00895CF93DF93CDB7DEB76F97CDBFDEBF3C
S11357B08E8F9F8F19821A821B821C821E8A1F8AD7
S11357C0188E198E1A8E1B8E1C8E1D8E1D828D8135
S11357D0282F30E08E8D9F8DFC01878190852817BE
S11357E0390708F095C08E8D9F8DFC012581368187
S11357F08D81882F90E0880F991F880F991F820F41
S1135800931FFC0180819181A281B3819C01AD0130
S113581069817A818B819C810E94A364DC01CB0124
S113582089839A83AB83BC838E8D9F8DFC012581F4
S113583036818D81882F90E0880F991F880F991FDA
S1135840820F931FFC0180819181A281B3818E8399
S11358509F83A887B9878A8D9B8DAC8DBD8D8A87E0
S11358609B87AC87BD872A853B854C855D856E818A
S11358707F81888599850E940F6588232CF48E8109
S11358809F81A885B98504C08A859B85AC85BD8523
S11358908A8F9B8FAC8FBD8F8E8D9F8DFC01258150
S11358A036818D81882F90E0880F991F880F991F6A
S11358B0820F931FFC0180819181A281B3818E8725
S11358C09F87A88BB98B8E899F89A88DB98D8A8B68
S11358D09B8BAC8BBD8B2A893B894C895D896E85FA
S11358E07F85888999890E940F6588232CF48A8989
S11358F09B89AC89BD8904C08E859F85A889B98997
S11359008E8B9F8BA88FB98F8D818F5F8D835FCF97
S11359108A8D9B8DAC8DBD8D9C01AD0169817A8191
S11359208B819C810E94A264DC01CB0189839A83D0
S1135930AB83BC838E899F89A88DB98D9C01AD01F1
S113594069817A818B819C810E94A264DC01CB01F4
S113595089839A83AB83BC838E8D9F8DFC01878161
S113596090850297CC01A0E0B0E0BC01CD010E947B
S1135970C165DC01CB019C01AD0169817A818B8118
S11359809C810E941965DC01CB01BC01CD016F969D
S1135990CDBFDEBFDF91CF910895CF93DF9300D0C9
S11359A000D0CDB7DEB789839A836B837C838B81E8
S11359B09C810E9454689C0189819A81FC01258301
S11359C0368389819A812B813C81FC01278330872E
S11359D089819A81FC011082118289819A81FC015A
S11359E01282138289819A81FC01148289819A81AD
S11359F0FC01118600002496CDBFDEBFDF91CF915C
S1135A000895CF93DF9300D0CDB7DEB789839A830F
S1135A1089819A81FC01858196810E94F068000049
S1135A200F900F90DF91CF910895CF93DF9300D023
S1135A30CDB7DEB789839A8389819A81FC0122815B
S1135A40338189819A81FC012083318389819A8100
S1135A50FC01148289819A81FC01118600000F9057
S1135A600F90DF91CF910895CF93DF9300D0CDB7FE
S1135A70DEB789839A8389819A81FC01948181E0CC
S1135A808927882379F089819A81FC0120813181D9
S1135A9089819A81FC01828193812817390711F445
S1135AA081E001C080E00F900F90DF91CF910895C5
S1135AB0CF93DF9300D0CDB7DEB789839A838981F2
S1135AC09A81FC01878190850F900F90DF91CF918F
S1135AD00895CF93DF9300D000D0CDB7DEB78B838A
S1135AE09C838B819C81FC018781908589839A8327
S1135AF08B819C81FC01948181E08927882399F121
S1135B008B819C81FC01208131818B819C81FC01F2
S1135B1082819381281739078CF08B819C81FC0149
S1135B20208131818B819C81FC0182819381A90137
S1135B30481B590BCA0189839A8315C08B819C81A8
S1135B40FC01878190852B813C81F9012081318181
S1135B50820F931F2B813C81F90122813381821BA7
S1135B60930B89839A8389819A812496CDBFDEBF62
S1135B70DF91CF9108950F931F93CF93DF9300D0BC
S1135B8000D0CDB7DEB78B839C8319821A828B81B8
S1135B909C81FC01948181E08927882379F08B81A1
S1135BA09C810E94582D8C018B819C810E94692DBF
S1135BB09801281B390BC90189839A8389819A81A9
S1135BC02496CDBFDEBFDF91CF911F910F91089531
S1135BD0CF93DF9300D01F92CDB7DEB789839A832A
S1135BE06B8389819A81FC018581968129813A811F
S1135BF0F90120813181820F931F2B81FC012083C5
S1135C0089819A81FC0184818823B1F089819A81F8
S1135C10FC01828193810196AC0189819A81FC0106
S1135C2027813085CA01B9010E94DD679C01898101
S1135C309A81FC012283338389819A81FC018081CA
S1135C4091810196AC0189819A81FC01278130857B
S1135C50CA01B9010E94DD679C0189819A81FC0116
S1135C602083318389819A81FC012081318189815A
S1135C709A81FC018281938141E02817390709F058
S1135C8040E089819A81FC01448300002396CDBFC2
S1135C90DEBFDF91CF910895CF93DF9300D01F92A1
S1135CA0CDB7DEB78A839B838A819B810E94342D82
S1135CB0882311F080E02AC08A819B81FC018581C0
S1135CC096812A813B81F90122813381820F931FBE
S1135CD0FC01808189838A819B81FC0114828A81F1
S1135CE09B81FC01828193810196AC018A819B8115
