S01500005369676E616C536E61676765722E73726563EA
S11300000C9431010C945B010C945B010C94DE01A3
S11300100C945B010C945B010C94B7080C945B0189
S11300200C945B010C945B010C945B010C945B01DC
S11300300C9489030C94A9620C945B010C945B01ED
S11300400C945B010C945B010C945B010C945B01BC
S11300500C945B010C945B010C945B010C945B01AC
S11300600C946A020C945B010C945B010C945B018C
S11300700C945B010C945B010C9451620C945B0135
S11300800C945B010C945B010C94E2080C945B01EE
S11300900C945B010C945B010C945B010C945B016C
S11300A00C945B010C9403510C945B010C945B0164
S11300B00C945B010C945B010C945B010C945B014C
S11300C00C945B010C945B010C945B010C945B013C
S11300D00C945B010C945B010C945B010C945B012C
S11300E00C945B010C945B0105A84CCDB2D44EB9C1
S11300F03836A9020C50B9918688083CA6AAAA2AC7
S1130100BE000000803F08000000BE922449123E59
S1130110ABAAAA2ABECDCCCC4C3E00000080BEAB1C
S1130120AAAAAA3E00000000BF000000803F000011
S1130130000000084178D3BB4387D1133D190E3C1E
S1130140C3BD4282AD2B3E68EC8276BED98FE1A955
S11301503E4C80EFFFBE01C4FF7F3F000000000063
S113016000407A10F35A00A0724E18090010A5D46A
S1130170E80000E87648170000E40B54020000CAC7
S11301809A3B000000E1F50500008096980000000D
S113019040420F000000A08601000000102700006C
S11301A00000E803000000006400000000000A00F2
S11301B0000000000100000000002C76D888DC67F5
S11301C04F0823DFC1DFAE59E1B1B796E5E3E4534D
S11301D0C63AE651997696E8E6C28426EB898C9B6A
S11301E062ED407C6FFCEFBC9C9F40F2BAA56FA50A
S11301F0F490055A2AF75C936B6CF9676DC11BFC8C
S1130200E0E40D47FEF520E6B500D0ED902E0300A6
S1130210943577050080841E080000204E0A0000F3
S113022000C80C333333330F986E12831141EF8DB2
S11302302114893BE65516CFFEE6DB18D1844B38F2
S11302401BF77C1D901DA4BBE424203284725E2223
S11302508100C9F124ECA1E53D27632379257023AE
S1130260862511241FBECFEFCDBFDFE7DEBF13E429
S1130270A0E0B0E4ECE3FEED00E00BBF02C00790A9
S11302800D92AC32B107D9F727E4ACE2B3E401C074
S11302901D92A631B207E1F711E0CFE2D1E004C02C
S11302A02197FE010E943268CD32D107C9F70E941E
S11302B0A70A0C94116F0C9400000FB6F894609385
S11302C012477093134780931447909315470FBEBA
S11302D00895FC010FB6F89460911247709113478A
S11302E080911447909115470FBE309721F0608399
S11302F071838283938308958F938FB78F93F89438
S1130300809112478F5F80931247809113478F4FDC
S113031080931347809114478F4F809314478091A3
S113032015478F4F809315478F918FBF8F910895F5
S1130330CF93DF93CDB7DEB70E940A380000DF9178
S1130340CF910895CF93DF9300D0CDB7DEB78983E3
S11303506A838A818823B1F080E090E0FC01818186
S1130360482F8981282F30E081E090E002C0880F77
S1130370991F2A95E2F7242F282B80E090E0FC01B6
S1130380218316C080E090E0FC018181482F89819F
S1130390282F30E081E090E002C0880F991F2A9551
S11303A0E2F78095242F282380E090E0FC0121834C
S11303B000000F900F90DF91CF9108951F920F923C
S11303C00FB60F9211240BB60F922F933F934F93B6
S11303D05F936F937F938F939F93AF93BF93EF93A9
S11303E0FF93CF93DF931F92CDB7DEB780E491E004
S11303F0FC01838189838981882F90E0817099270A
S1130400892B09F44BC00E947C0180910640909195
S1130410074021E0892B09F420E0222349F0809150
S113042006409091074001978093064090930740BF
S113043081E08093AC438091AD439091AE43A09111
S1130440AF43B091B0430196A11DB11D8093AD435C
S11304509093AE43A093AF43B093B0438091AD4328
S11304609091AE43A091AF43B091B04321E0029785
S1130470A105B10509F020E0222319F081E0809361
S1130480A7439091B14381E0992309F480E0882344
S113049029F08091B14381508093B14380E491E08D
S11304A023E0FC01238300000F90DF91CF91FF91A3
S11304B0EF91BF91AF919F918F917F916F915F91D8
S11304C04F913F912F910F900BBE0F900FBE0F9045
S11304D01F9018951F920F920FB60F9211240BB60E
S11304E00F922F933F934F935F936F937F938F93C9
S11304F09F93AF93BF93EF93FF93CF93DF93CDB7C6
S1130500DEB72597CDBFDEBF80E096E0FC01858590
S11305108B838B81882F90E081709927892B09F434
S1130520DAC080E096E0FC01808991898C839D8308
S113053019821A8280911F40882321F08C819D8129
S113054089839A8380910D44882309F449C090914A
S1130550224081E0992309F480E0882309F4BBC098
S11305608091A0459091A14521E0892B09F420E0D8
S1130570222351F18091A34591E0980F9093A345D4
S1130580882F90E0880F991F825F9B4BFC0180812C
S1130590918129813A81820F931F89839A832091C3
S11305A0A3459091224081E0291709F080E0882337
S11305B011F01092A3458091A0459091A145019717
S11305C08093A0459093A14589819A810E946C31C2
S11305D089819A81BC018FEE95E40E94954D7BC080
S11305E08091A0459091A14521E0892B09F420E058
S11305F0222359F18091A34591E0980F9093A3454C
S1130600882F90E0880F991F825F9B4BFC018081AB
S1130610918129813A81820F931F89839A83209142
S1130620A3459091224081E0291709F080E08823B6
S113063011F01092A3458091A0459091A145019796
S11306408093A0459093A1450FC09091A24581E06D
S1130650992309F480E0882339F08091A2458150E0
S11306608093A24519821A8280911D4090911E4068
S113067021E0059708F420E0222389F080911D40B1
S113068090911E409C012450310989819A8102C0B5
S1130690880F991F2A95E2F789839A8311C0809164
S11306A01D4090911E4024E030E0281B390B8981C5
S11306B09A8102C0969587952A95E2F789839A8351
S11306C089819A810E946C318C819D81BC018FEE5D
S11306D095E40E94954D80E096E023E0FC01258797
S11306E000002596CDBFDEBFDF91CF91FF91EF9142
S11306F0BF91AF919F918F917F916F915F914F9136
S11307003F912F910F900BBE0F900FBE0F901F9033
S113071018951F920F920FB60F9211240BB60F92D9
S11307202F933F934F935F936F937F938F939F93F5
S1130730AF93BF93EF93FF93CF93DF93CDB7DEB720
S11307402F97CDBFDEBF80E09BE0FC0186818E83C6
S11307508E81882F90E081709927892B09F4E9C450
S11307601F821886809120409091214021E0892B9E
S113077009F420E0222349F0809120409091214007
S113078001978093204090932140809123408F5F74
S113079080932340209123408BEA289F812D1124AC
S11307A0982F96959695892F880F890F880F922FE9
S11307B0981B992309F0F5C319821A821B8287E1D9
S11307C089870E947829982F898589238F830E949D
S11307D02C290E947829982F8985892388878885E0
S11307E082708A87888581708B87888584708C87DE
S11307F0888580718D878091A443282F30E081E023
S11308009D85992309F080E0882F90E041E0281726
S1130810390709F440E04423D1F08091244088232F
S113082029F0809124408150809324408091244079
S1130830882381F48D85882319F01092A44303C082
S113084081E08093A44382E38093244003C082E345
S1130850809324401B828A85882371F48B858823A6
S113086059F060E086E00E94A20161E085E00E9408
S1130870A20181E0898325C08B85882371F48A8550
S1130880882359F060E085E00E94A20161E086E0DF
S11308900E94A20181E08A8314C060E085E00E9486
S11308A0A20160E086E00E94A20119821A828A8570
S11308B0882329F48B85882311F481E001C080E02A
S11308C08B8381E09C85992309F080E08093D74352
S11308D089818093D4438A818093D5438B8180938B
S11308E0D6439F818885981709F402C198858F8122
S11308F089278E8787E090E080931B4090931C406B
S11309008091A443882331F088E097E080930640E7
S1130910909307408E85082E000C990B82709927BE
S1130920892B79F08A85882339F081E090E08093DF
S11309302740909328400BC01092274010922840E3
S113094006C082E090E080932740909328408E85F3
S1130950082E000C990B81709927892B79F08B85CF
S1130960882339F081E090E08093294090932A40D5
S11309700BC01092294010922A4006C082E090E0F9
S11309808093294090932A408B818823F1F08091B1
S1130990CE439091CF4301968093CE439093CF431F
S11309A01092B8431092B9431092C8431092C943AD
S11309B01092BA431092BB431092CA431092CB4395
S11309C0109225401092264064C08091BE439091BD
S11309D0BF4321E0892B09F420E0222389F088EE2B
S11309E093E08093A0459093A1451092BE4310924A
S11309F0BF4381E090E0809325409093264049C016
S1130A0081E0809330408091274090912840019765
S1130A1071F488EE93E08093A0459093A1451092E1
S1130A20B8431092B94381E080932D400FC0809168
S1130A30274090912840892B49F48091C843909194
S1130A40C94301968093C8439093C9438091294038
S1130A5090912A40019771F488EE93E08093A04529
S1130A609093A1451092BA431092BB4381E08093C6
S1130A702E400FC08091294090912A40892B49F43F
S1130A808091CA439091CB4301968093CA4390933B
S1130A90CB438E85082E000C990B84709927892BE3
S1130AA009F417C18091D743882371F08091CC4316
S1130AB09091CD4301968093CC439093CD43109273
S1130AC02B4010922C4005C188EE93E08093A04502
S1130AD09093A1451092BC431092BD4381E0809352
S1130AE02F4081E090E080932B4090932C40F1C004
S1130AF08B81882309F441C09091D24381E08927F6
S1130B00882331F080913040882311F081E001C0C6
S1130B1080E0882309F4A3C08091BE439091BF4331
S1130B2021E0019609F420E0222349F08091BE439C
S1130B309091BF4301968093BE439093BF438091AD
S1130B40BE439091BF4321E08436910508F420E030
S1130B50222309F484C081E08093D2431092BE43DF
S1130B601092BF431092CE431092CF431092304064
S1130B7010922D4010922E4072C089818823B1F1C9
S1130B808091B8439091B94321E0019609F420E0A3
S1130B90222349F08091B8439091B9430196809300
S1130BA0B8439093B9439091D04381E08927882337
S1130BB031F080912D40882311F081E001C080E064
S1130BC08823A1F08091B8439091B94321E0843601
S1130BD0910508F420E0222349F081E08093D0437A
S1130BE01092C8431092C94310922D408A818823E1
S1130BF0B1F18091BA439091BB4321E0019609F48D
S1130C0020E0222349F08091BA439091BB4301969E
S1130C108093BA439093BB439091D14381E0892759
S1130C20882331F080912E40882311F081E001C0A7
S1130C3080E08823A1F08091BA439091BB4321E0E6
S1130C408436910508F420E0222349F081E0809362
S1130C50D1431092CA431092CB4310922E408091FC
S1130C60D7438823B1F18091BC439091BD4321E0E7
S1130C70019609F420E0222349F08091BC4390912D
S1130C80BD4301968093BC439093BD439091D3435D
S1130C9081E08927882331F080912F40882311F047
S1130CA081E001C080E08823A1F08091BC43909151
S1130CB0BD4321E08436910508F420E0222349F065
S1130CC081E08093D3431092CC431092CD43109291
S1130CD02F408091A4459091A545892B71F1809175
S1130CE0A4459091A54501978093A4459093A5456B
S1130CF08091A4459091A545892B09F044C0809129
S1130D00CE439091CF43892B41F08091CE43909173
S1130D10CF43039710F481E001C080E0882341F0C1
S1130D208091CE439091CF438093C6439093C74321
S1130D301092CE431092CF4326C08091CE4390911F
S1130D40CF43019741F4809125409091264001972B
S1130D5011F481E001C080E0882339F082E390E05F
S1130D608093A4459093A5450EC08091CE43909165
S1130D70CF4321E0039708F420E0222321F01092CE
S1130D80CE431092CF438091A6459091A745892BDD
S1130D9071F18091A6459091A74501978093A6454E
S1130DA09093A7458091A6459091A745892B09F07A
S1130DB044C08091C8439091C943892B41F08091EC
S1130DC0C8439091C943039710F481E001C080E0C7
S1130DD0882341F08091C8439091C9438093C043D4
S1130DE09093C1431092C8431092C94326C0809186
S1130DF0C8439091C943019741F480912740909151
S1130E002840019711F481E001C080E0882339F083
S1130E1082E390E08093A6459093A7450EC080910D
S1130E20C8439091C94321E0039708F420E02223AA
S1130E3021F01092C8431092C9438091A845909123
S1130E40A945892B71F18091A8459091A9450197F5
S1130E508093A8459093A9458091A8459091A94570
S1130E60892B09F044C08091CA439091CB43892BCC
S1130E7041F08091CA439091CB43039710F481E0F1
S1130E8001C080E0882341F08091CA439091CB4314
S1130E908093C2439093C3431092CA431092CB43AE
S1130EA026C08091CA439091CB43019741F480912D
S1130EB0294090912A40019711F481E001C080E01B
S1130EC0882339F082E390E08093A8459093A94564
S1130ED00EC08091CA439091CB4321E0039708F45C
S1130EE020E0222321F01092CA431092CB43809138
S1130EF0AA459091AB45892B71F18091AA459091B7
S1130F00AB4501978093AA459093AB458091AA4540
S1130F109091AB45892B09F044C08091CC439091CA
S1130F20CD43892B41F08091CC439091CD430497DC
S1130F3010F481E001C080E0882341F08091CC432B
S1130F409091CD438093C4439093C5431092CC4376
S1130F501092CD4326C08091CC439091CD4301970C
S1130F6041F480912B4090912C40019711F481E041
S1130F7001C080E0882339F082E390E08093AA45A1
S1130F809093AB450EC08091CC439091CD4321E02A
S1130F90039708F420E0222321F01092CC4310920E
S1130FA0CD438091AA439091AB4321E0892B09F46E
S1130FB020E0222309F4BDC08091AA439091AB4361
S1130FC0892F881F8827881F8F878091AA43909133
S1130FD0AB4399231CF49195819591098C839D834E
S1130FE02091AC453091AD458091AA439091AB439B
S1130FF041E02817390709F040E0442309F447C0C9
S11310008091AE459091AF45892B09F492C08091AF
S1131010AE459091AF4501978093AE459093AF450F
S11310208091AE459091AF45892B09F082C08C81A7
S11310309D810297B4F08C819D8103968C839D835E
S11310408C819D8195958795959587958C839D83B6
S11310508C819D81880F991F880F991F8C839D8394
S113106002C01C821D828F85882331F08C819D8172
S113107091958195910902C08C819D818093AA43A9
S11310809093AB431092AC451092AD4552C0809101
S1131090AA439091AB438093AC459093AD458C812A
S11310A09D8104974CF18091D743882351F010928D
S11310B02F401092BC431092BD431092CC43109227
S11310C0CD438F85882351F08091A8439091A94303
S11310D001978093A8439093A94309C08091A843A2
S11310E09091A94301968093A8439093A9438C813E
S11310F09D8104978C839D838BE490E08093AE451F
S11311009093AF458F85882331F08C819D81919593
S11311108195910902C08C819D818093AA4390930B
S1131120AB438C819D81892B21F41092AC451092A4
S1131130AD4580E09BE023E0FC01268300002F9670
S1131140CDBFDEBFDF91CF91FF91EF91BF91AF9102
S11311509F918F917F916F915F914F913F912F91CB
S11311600F900BBE0F900FBE0F901F9018951F92FB
S11311700F920FB60F9211240BB60F922F938F93E9
S11311809F93EF93FF93CF93DF931F92CDB7DEB777
S113119080E090E0FC018381898380E090E02FEF80
S11311A0FC01238300000F90DF91CF91FF91EF9119
S11311B09F918F912F910F900BBE0F900FBE0F90A8
S11311C01F9018951F920F920FB60F9211240BB611
S11311D00F922F938F939F93AF93BF93EF93FF93AC
S11311E0CF93DF9300D01F92CDB7DEB784E190E0B8
S11311F0FC01838189838091A743882309F45BC020
S11312008981882F90E088719927892B09F453C02C
S113121080EA94E0FC018085882F90E0959587957D
S1131220959587959595879583708A838091B04528
S1131230882F90E0880F991F880F991F982F8A8113
S1131240892B8B838B81882F90E0092E000CAA0BAD
S1131250BB0B0197A109B1098E309105A105B10518
S113126038F58A5C964FFC010C94326844094E09A7
S113127058094E0958095809440944095809580994
S11312804E0958094E0944098091AA439091AB43F1
S113129001968093AA439093AB430AC08091AA43DA
S11312A09091AB4301978093AA439093AB43000082
S11312B08A818093B04580EA94E028E1FC0121878B
S11312C000002396CDBFDEBFDF91CF91FF91EF9158
S11312D0BF91AF919F918F912F910F900BBE0F9063
S11312E00FBE0F901F901895CF92DF92EF92FF924E
S11312F00F931F93CF93DF9300D000D0CDB7DEB709
S11313008B839C838B819C810B970CF471C08B81A4
S11313109C818F3F910511F00CF06AC080910D44BF
S11313208A8310920D441092224019828981882F59
S113133090E02B813C81821793070CF053C0898184
S1131340882F90E0092E000CAA0BBB0BBC01CD0129
S11313500E94E265DC01CB012BED3FE049EC50E457
S1131360BC01CD010E943C67DC01CB016C017D0115
S11313708B819C81092E000CAA0BBB0BBC01CD01F7
S11313800E94E265DC01CB019C01AD01C701B601FD
S11313900E943865DC01CB01BC01CD010E94A96724
S11313A0DC01CB0120E030E040E055E4BC01CD019C
S11313B00E94C264DC01CB012981022F10E0BC0130
S11313C0CD010E94B165DC01CB019C01C801880FED
S11313D0991F825F9B4BFC012083318389818F5F3E
S11313E08983A4CF8B81809322408A8180930D448A
S11313F000002496CDBFDEBFDF91CF911F910F91E6
S1131400FF90EF90DF90CF900895CF93DF9300D0BB
S1131410CDB7DEB78CE094E40E94004060E083E046
S11314200E94A20160E087E00E94A20184E690E0AD
S113143089839A8389819A81892B79F08091A44345
S1131440882331F089819A81019789839A83F2CF25
S113145084E690E089839A83EDCF00000F900F908B
S1131460DF91CF910895CF93DF9300D0CDB7DEB74E
S113147089839A831092B3451092B44589819A81E5
S11314800E9761F48091B1459091B245880F991FF0
S11314908D549A4BFC018081918154C089819A8139
S11314A0892B29F41092B1451092B24540C089812C
S11314B09A810D9781F48091B1459091B245892B21
S11314C0B1F18091B1459091B24501978093B145B6
S11314D09093B2452CC08091B1459091B245880F4C
S11314E0991F8D549A4BFC018081918129813A8105
S11314F028173907E1F08091B1459091B24543979F
S1131500B4F48091B1459091B24501968093B14570
S11315109093B2458091B1459091B245880F991F3F
S11315208D549A4B29813A81FC0120833183809127
S1131530B1459091B245880F991F8D549A4BFC0187
S1131540808191810F900F90DF91CF910895CF9278
S1131550DF92EF92FF920F931F93CF93DF93CDB758
S1131560DEB7CA58D109CDBFDEBF89E190E00E9441
S1131570740919821A821B821C821D821E821F8298
S1131580188619861A861B861C861D861E861F864B
S1131590188A8FEF898B1A8A1B8A1C8A1D8A81E01C
S11315A08E8B81E08F8B198ECE0187599F4FFC0162
S11315B010821182128213820E9498010E94EE5FAF
S11315C08078888F68EE73E080E090E00E949661F6
S11315D0882329F0888D882311F081E001C080E000
S11315E0882329F00E94EE5F8078888FEBCF8CE00F
S11315F094E40E9488488CE094E40E9435418091F0
S1131600654090916640A0916740B0916840BC01EC
S1131610CD010E9437638AA79BA78AA59BA5892B26
S113162049F08091A5439091A64382608093A5439D
S11316309093A64380915F40909160400E94B05681
S113164060E873E48DE698E30E945D0180E090E039
S11316500E946901DC01CB018CA79DA7AEA7BFA79F
S113166060ED77E080E090E00E949661882389F045
S113167080E090E00E9469019B01AC018CA59DA5CE
S1131680AEA5BFA582179307A407B50711F481E09F
S113169001C080E0882309F0E3CF80E090E00E945D
S11316A069019B01AC0161E08CA59DA5AEA5BFA518
S11316B082179307A407B50709F060E0662359F081
S11316C08091A5439091A64381608093A543909314
S11316D0A6430E940C5662E070E088ED93E40E94F9
S11316E0E2318091A5439091A64321E0892B09F42E
S11316F020E02223A9F141E069E070E083EE93E465
S11317000E94CB5269E770E484EE93E40E94AB2E0E
S11317108091A5439091A6438270992721E0892B5B
S113172009F420E0222331F062E870E484EE93E4CB
S11317300E94AB2E8091A5439091A6438170992776
S113174021E0892B09F420E0222331F06BE870E4D6
S113175084EE93E40E94AB2E8FE08093B143F9C0F2
S113176080E096E027E0FC01208718AA19AA60E02F
S113177081E00E94FB241A8E1B8E8A8D9B8D0A9712
S1131780D4F50E947D230E949023982F81E089271D
S1131790882309F0F8CF80E096E0FC0180899189E4
S11317A088AB99AB88A999A9CC01A0E0B0E0BC01B1
S11317B0CD010E94E0657B018C01CE0187599F4FCA
S11317C0FC0180819181A281B3819C01AD01C8019A
S11317D0B7010E94C264DC01CB019E0127593F4F2F
S11317E0F90180839183A283B3838A8D9B8D0196B3
S11317F08A8F9B8FC2CFCE0187599F4FFC01808176
S11318009181A281B38120E030E040E251E4BC0147
S1131810CD010E943865DC01CB019E0127593F4F61
S1131820F90180839183A283B383CE0187599F4FAB
S1131830FC0180819181A281B3819E0123593F4F94
S1131840A901BC01CD010E94C52080915640882F7A
S113185090E0A0E0B0E0BC01CD010E94E0657B0116
S11318608C01CE0183599F4FFC0180819181A2811B
S1131870B381DD24D3949C01AD01C801B7010E945A
S1131880DF6688230CF4D12CDD2009F460C064E900
S113189070E484EE93E40E94AB2E6FE970E484EE6E
S11318A093E40E94AB2ECE0187599F4FBC0181E087
S11318B00E944421292F2F938F938DEA90E4892F3E
S11318C08F938DEA90E48F931F928DE08F9380E441
S11318D093E4892F8F9380E493E48F930E94AA6901
S11318E02DB73EB7285F3F4FCDBFDEBF60E473E442
S11318F084EE93E40E94AB2ECE0187599F4F0E9441
S1131900EE1F292F2F938F9388EB90E4892F8F93C9
S113191088EB90E48F931F928DE08F9380E493E49F
S1131920892F8F9380E493E48F930E94AA694DB723
S11319305EB7485F5F4FCDBFDEBF88E893E1809319
S1131940A0459093A1458EE18093B14302C01092CB
S1131950B14360E070E083EE93E40E94B25260E42D
S113196073E484EE93E40E94AB2E80E096E022E0E0
S1131970FC01208761E081E00E94FB240E947D231A
S11319809091B14381E0992309F080E0882309F420
S11319901CC68EE090E00E94330A8AAB9BAB8F8911
S11319A0882341F42AA93BA989819A8128173907F8
S11319B009F457C01F8A89819A81059741F089816A
S11319C09A81069721F089819A810797B9F48AA9A7
S11319D09BA9059799F08AA99BA9069779F08AA9EA
S11319E09BA9079759F080E096E022E0FC0120874C
S11319F061E081E00E94FB240E947D238AA99BA9C7
S1131A0089839A8388ED93E40E94F1321D861E86B1
S1131A101F86188A8FEF898B8FEF90E08A8B9B8BC0
S1131A208FEF8C831C8A1D8A88E090E089879A87CF
S1131A308AA99BA9892B59F48CE094E40E94004064
S1131A4061E170E088ED93E40E9427330AC08AA91B
S1131A509BA90B9731F465E170E088ED93E40E9453
S1131A6027338AA99BA9092E000CAA0BBB0B8C3027
S1131A709105A105B10508F09FC58E5B924FFC014D
S1131A800C9432684E0DBD10BD10BD10FB0E6C0FD2
S1131A906C0F6C0FDC12A1124F126E1280910C4667
S1131AA0882309F05CC08091654090916640A091C4
S1131AB06740B091684061E02D853E854F85588927
S1131AC0281739074A075B0709F460E0662309F41D
S1131AD0FAC08091654090916640A0916740B091B2
S1131AE068408D879E87AF87B88B8D859E85AF852F
S1131AF0B8899E012F583F4FAC01BD01C9010E9416
S1131B0037648B81882319F084EC90E402C086EC5E
S1131B1090E49E012F583F4F432F4F932F93292F2B
S1131B202F938F9388EC90E4892F8F9388EC90E423
S1131B308F9380E493E4892F8F9380E493E48F93CD
S1131B400E94E1692DB73EB7285F3F4FCDBFDEBF8E
S1131B5060E473E484EE93E40E94AB2EB4C09091ED
S1131B600D4681E02C81291709F480E0882309F4CB
S1131B70AAC080910D468C83809165409091664007
S1131B80A0916740B09168408D879E87AF87B88BDE
S1131B9080910D46882F90E0845D9C4BFC019081E0
S1131BA081E0992309F480E0882309F447C08091F7
S1131BB00D46882F90E0845D9C4BFC018081282F8A
S1131BC030E0C901880F991F880F991F880F991F4A
S1131BD0821B930BAC014D595D4B8B81882319F00B
S1131BE084EC90E402C086EC90E42C81222F30E057
S1131BF02F5F3F4F652F6F934F93492F4F938F93D1
S1131C00832F8F93822F8F9382ED90E4892F8F936C
S1131C1082ED90E48F931F928DE08F9380E493E4A0
S1131C20892F8F9380E493E48F930E94AA692DB740
S1131C303EB7245F3F4FCDBFDEBF3FC08D859E853D
S1131C40AF85B8899E012F583F4FAC01BD01C90132
S1131C500E9437648B81882319F084EC90E402C0DD
S1131C6086EC90E42C81222F30E02F5F3F4FAE01B1
S1131C704F585F4F652F6F934F93492F4F938F9317
S1131C80832F8F93822F8F9382ED90E4892F8F93EC
S1131C9082ED90E48F931F928DE08F9380E493E420
S1131CA0892F8F9380E493E48F930E94AA694DB7A0
S1131CB05EB7445F5F4FCDBFDEBF60E473E484EE84
S1131CC093E40E94AB2E809108409989981761F1A2
S1131CD080910840898B80910840882F90E02AE009
S1131CE030E0F901E81BF90BCF01292F2F938F93D3
S1131CF08EED90E4892F8F938EED90E48F9380E4A2
S1131D0093E4892F8F9380E493E48F930E94E16995
S1131D100F900F900F900F900F900F9060E473E46A
S1131D2084EE93E40E94AB2E80911D4090911E405E
S1131D3041E02A893B892817390709F440E0442304
S1131D4031F180911D4090911E408A8B9B8B8B8931
S1131D508F938A898F9388EE90E4892F8F9388EEEE
S1131D6090E48F9380E493E4892F8F9380E493E449
S1131D708F930E94E1690F900F900F900F900F9036
S1131D800F9060E473E484EE93E40E94AB2E8091A0
S1131D90B6439091B7432C893D892817390709F434
S1131DA00DC48091B6439091B7438C8B9D8B8D89E4
S1131DB08F938C898F9381EF90E4892F8F9381EF98
S1131DC090E48F931F9287E08F9380E493E4892FAC
S1131DD08F9380E493E48F930E94AA692DB73EB752
S1131DE0285F3F4FCDBFDEBF60E473E484EE93E42D
S1131DF00E94AB2EE3C329853A858B859C852817E1
S1131E00390709F4DDC38B859C8589879A8764E14A
S1131E1070E088ED93E40E9427338CE0E9EFF0E46E
S1131E20A0E4B3E401900D928A95E1F760E473E4D1
S1131E3084EE93E40E94AB2E88E592E4892F8F937D
S1131E4088E592E48F9385E091E4892F8F9385E070
S1131E5091E48F9380E493E4892F8F9380E493E457
S1131E608F930E94E1690F900F900F900F900F9045
S1131E700F9060E473E484EE93E40E94AB2E2B8510
S1131E803C85C901880F991F880F991F820F931FE2
S1131E90880F991F8E5E9D4B292F2F938F9385E07A
S1131EA091E4892F8F9385E091E48F9380E493E408
S1131EB0892F8F9380E493E48F930E94E1690F90BC
S1131EC00F900F900F900F900F9060E473E484EEE6
S1131ED093E40E94AB2E74C31CAA1DAA0E947D2306
S1131EE00E949023982F81E08927882309F0F8CF56
S1131EF080E096E0FC01808991898CAB9DAB809158
S1131F00DB459091DC45A091DD45B091DE4520E0B4
S1131F1030E040E85FE3BC01CD010E942E658823D8
S1131F20A4F48CA99DA9CC01A0E0B0E0BC01CD0132
S1131F300E94E065DC01CB018093DB459093DC4596
S1131F40A093DD45B093DE452FC08091DB45909191
S1131F50DC45A091DD45B091DE4520E030E040E273
S1131F6051E4BC01CD010E943C67DC01CB016C0152
S1131F707D018CA99DA9CC01A0E0B0E0BC01CD01FC
S1131F800E94E065DC01CB019C01AD01C701B601F3
S1131F900E94C264DC01CB018093DB459093DC4555
S1131FA0A093DD45B093DE458091DB459091DC45FF
S1131FB0A091DD45B091DE4520E030E040E351E4FE
S1131FC0BC01CD010E943865DC01CB018093DB4567
S1131FD09093DC45A093DD45B093DE456BED75E44D
S1131FE081E00E944421292F2F938F938AE091E46A
S1131FF0892F8F938AE091E48F931F928DE08F93C2
S113200080E493E4892F8F9380E493E48F930E9478
S1132010AA692DB73EB7285F3F4FCDBFDEBF60E44E
S113202073E484EE93E40E94AB2E8AA99BA90597DE
S113203009F050C08091DB459091DC45A091DD45CD
S1132040B091DE4540E050E0BC01CD010E94C520C6
S1132050292F2F938F9385E191E4892F8F9385E125
S113206091E48F931F928DE08F9380E493E4892F02
S11320708F9380E493E48F930E94AA694DB75EB76F
S1132080485F5F4FCDBFDEBF60E473E484EE93E44A
S11320900E94AB2E8BED95E40E94EE1F292F2F9307
S11320A08F9388EB90E4892F8F9388EB90E48F9340
S11320B01F928DE08F9380E493E4892F8F9380E4C3
S11320C093E48F930E94AA698DB79EB70896CDBFFB
S11320D0DEBF4CC08AA99BA9069741F58091554063
S11320E0882F90E0019642E3489F9001499F300D6C
S11320F01124832F8F93822F8F9382E291E4892F6F
S11321008F9382E291E48F931F928DE08F9380E40A
S113211093E4892F8F9380E493E48F930E94AA69B8
S1132120EDB7FEB73896CDBFDEBF20C080915640D4
S1132130882F90E0292F2F938F938FE291E4892F9A
S11321408F938FE291E48F931F928DE08F9380E4BD
S113215093E4892F8F9380E493E48F930E94AA6978
S11321602DB73EB7285F3F4FCDBFDEBF60E473E4B9
S113217084EE93E40E94AB2E28C290910D4681E038
S1132180953108F480E0882311F010920D46809177
S11321900D46882F90E0880F991F880F991F82544D
S11321A0994BFC0180819181A281B3818C8F9D8F99
S11321B0AE8FBF8F8C8D9D8DAE8DBF8D813099403C
S11321C0AD43B10548F48C8D9D8DAE8DBF8D803EA1
S11321D09746A543B10598F480910D46882F90E069
S11321E0880F991F880F991F8254994BFC01108204
S11321F01182128213821C8E1D8E1E8E1F8E809160
S11322000D469C81981769F42D813E814F81588534
S11322108C8D9D8DAE8DBF8D281739074A075B07BE
S113222011F081E001C080E0882309F4CBC18091E2
S11322300D468C838C8D9D8DAE8DBF8D8D839E833D
S1132240AF83B8878C81882F90E00196292F2F9334
S11322508F938EE391E4892F8F938EE391E48F9390
S11322601F928DE08F9380E493E4892F8F9380E411
S113227093E48F930E94AA692DB73EB7285F3F4F1E
S1132280CDBFDEBF60E473E484EE93E40E94AB2E22
S11322908C81882F90E0880F991F880F991F825492
S11322A0994BFC0180819181A281B3818C8F9D8F98
S11322B0AE8FBF8F8C8D9D8DAE8DBF8D892B8A2B5C
S11322C08B2B09F4DCC08C8D9D8DAE8DBF8D9E0152
S11322D024583F4FAC01BD01C9010E9437648AA94B
S11322E09BA9019709F06FC0CE0184589F4F292FF5
S11322F02F938F938CE491E4892F8F938CE491E452
S11323008F931F928DE08F9380E493E4892F8F93B2
S113231080E493E48F930E94AA692DB73EB7285FA7
S11323203F4FCDBFDEBF60E473E484EE93E40E94CC
S1132330AB2E80910D46882F90E0845D9C4BFC0170
S1132340908181E0992309F480E0882391F18091C0
S11323500D46882F90E0845D9C4BFC018081282FE2
S113236030E0C901880F991F880F991F880F991FA2
S1132370821B930B8D599D4B292F2F938F9385E5AA
S113238091E4892F8F9385E591E48F931F928DE0DB
S11323908F9380E493E4892F8F9380E493E48F9365
S11323A00E94AA692DB73EB7285F3F4FCDBFDEBF5D
S11323B05FC08DE0ECE5F1E4A0E4B3E401900D929C
S11323C08A95E1F755C08AA99BA9029701F5CE0128
S11323D084589F4F292F2F938F9389E691E4892F57
S11323E08F9389E691E48F931F928DE08F9380E41D
S11323F093E4892F8F9380E493E48F930E94AA69D6
S11324004DB75EB7485F5F4FCDBFDEBF31C080912F
S11324100D46882F90E0845D9C4BFC018081282F21
S113242030E0C901880F991F880F991F880F991FE1
S1132430821B930B8D599D4B292F2F938F9389E6E4
S113244091E4892F8F9389E691E48F931F928DE015
S11324508F9380E493E4892F8F9380E493E48F93A4
S11324600E94AA692DB73EB7285F3F4FCDBFDEBF9C
S113247060E473E484EE93E40E94AB2EA3C08DE089
S1132480E2E7F1E4A0E4B3E401900D928A95E1F768
S113249060E473E484EE93E40E94AB2E93C089E07D
S11324A0EFE7F1E4A0E4B3E401900D928A95E1F73B
S11324B060E473E484EE93E40E94AB2E8DE0E8E8DC
S11324C0F1E4A0E4B3E401900D928A95E1F760E4AD
S11324D073E484EE93E40E94AB2E77C08DE0E5E9CB
S11324E0F1E4A0E4B3E401900D928A95E1F760E48D
S11324F073E484EE93E40E94AB2E809106409091A5
S11325000740292F2F938F9382EA91E4892F8F9389
S113251082EA91E48F9380E493E4892F8F9380E49B
S113252093E48F930E94E1690F900F900F900F90A6
S11325300F900F9060E473E484EE93E40E94AB2E5A
S113254044C029853A858B859C8528173907E1F194
S11325508B859C8589879A876CEA71E484EE93E481
S11325600E94AB2E65EB71E484EE93E40E94AB2EE3
S113257080EC91E4892F8F9380EC91E48F9385EC28
S113258091E4892F8F9385EC91E48F9380E493E415
S1132590892F8F9380E493E48F930E94E1690F90D5
S11325A00F900F900F900F900F9060E473E484EEFF
S11325B093E40E94AB2E08C0000007C0000005C0D1
S11325C0000003C0000001C0000084EE93E40E94F8
S11325D0882D21E0892B09F420E0222309F4DBC0B3
S11325E0CE0189579F4FAC0160E473E484EE93E419
S11325F00E940E2FCE0189579F4FFC01808191814B
S1132600039708F4C8C0809140438EAB8091414346
S11326108FAB8EA9882F90E0C09788AF99AF1AAE80
S11326201BAE83E090E08CAF9DAF28AD39AD8CAD8F
S11326309DAD821793076CF028AD39AD8AAD9BAD83
S1132640281739071CF48AAD9BAD05C088AD99AD38
S113265002C08CAD9DAD8EAF8FA9882F90E09C01F8
S113266020533109CE01CF96FC0120833183CE0162
S11326708F5B9F4FFC0110821182CE018D5B9F4FB7
S113268029E030E0FC0120833183CE018D5B9F4F34
S11326909E01215C3F4FF90120813181FC01808141
S11326A0918182179307E4F0CE018F5B9F4F9E01C7
S11326B0215C3F4FF90120813181FC0180819181AE
S11326C0281739073CF4CE018F5B9F4FFC018081B2
S11326D091810CC0CE01CF96FC018081918106C00E
S11326E0CE018D5B9F4FFC01808191819E012B5B0C
S11326F03F4FF9018083CE0189579F4FFC018081B0
S11327009181BC0180E493E40E94FF638823C1F1BA
S1132710CE018B5B9F4FFC0140816EAD88ED93E44D
S11327200E940333CE0189579F4FFC018081918120
S11327309C0122503109CE0189579F4FFC0120830F
S11327403183CE0189579F4FFC01808191818E0195
S11327500A5B1F4FAC0162E473E488ED93E40E94CA
S11327609F36F80180839183CE018A5B9F4FFC01E1
S113277080819181892B21F088ED93E40E944D3270
S1132780CE0189579F4FAC0160E473E484EE93E477
S11327900E940E2F2FCF9091A44381E02E892917F8
S11327A009F480E0882389F18091A4438E8B9E896B
S11327B081E089278823A9F08EE090E00E94330A03
S11327C021E00B9709F420E0222321F08BE090E034
S11327D00E94330A8CE390E0809306409093074074
S11327E014C08EE090E00E94330A21E0892B09F4A2
S11327F020E0222321F080E090E00E94330A88E068
S113280097E0809306409093074080910640909112
S1132810074021E0892B09F020E0222389F18091EF
S1132820A4438823F9F08EE090E00E94330A21E06B
S11328300A9709F420E0222329F08AE090E00E941C
S1132840330A1EC084EE93E40E94882D21E0892B74
S113285009F020E02223A1F00E94050A81E0809380
S1132860B2430EC00E94050A8091A443882341F01C
S113287061E083E00E94A20161E087E00E94A2017E
S11328808E89882311F40C94391C8091C64390914D
S1132890C74321E0892B09F420E0222391F08091A1
S11328A0C6439091C74321E0019709F020E0222319
S11328B021F48091C6439091C7431092C64310926D
S11328C0C7438091D2438823A9F01092D2438EE06B
S11328D090E00E94330A21E0892B09F020E02223B2
S11328E029F084E090E00E94330A04C080E090E084
S11328F00E94330A8091C0439091C14321E0892B07
S113290009F420E0222309F488C08091C043909107
S1132910C14321E0019709F020E0222321F48091B2
S1132920C0439091C1439091B14381E0992309F44C
S113293080E0882311F01092B1438EE090E00E9471
S1132940330A21E0892B09F420E0222309F45BC037
S11329508B81882319F01B8281E08F8B80910D4637
S1132960882F90E0880F991F880F991F8254994BE4
S1132970FC0180819181A281B38121E0892B8A2B82
S11329808B2B09F020E02223C9F180910D4661E0F0
S11329900E949A2280930D4690910D4681E09F3FBC
S11329A009F080E0882319F010920C4627C080912A
S11329B00C46813019F580910D46882F90E0880FE0
S11329C0991F880F991F8254994BFC018081918132
S11329D0A281B3818093654090936640A093674041
S11329E0B09368408091654090916640A0916740A3
S11329F0B0916840BC01CD010E949F5A8DE090E0E7
S1132A000E94330A06C08B81882319F01B8281E05F
S1132A108F8B1092C0431092C1438091D04388237E
S1132A2009F46EC08EE090E00E94330A21E0892B05
S1132A3009F420E0222309F45BC08B81882319F078
S1132A401B8281E08F8B80910D46882F90E0880F48
S1132A50991F880F991F8254994BFC0180819181A1
S1132A60A281B38121E0892B8A2B8B2B09F020E0F2
S1132A702223C9F180910D4661E00E949A2280933D
S1132A800D4690910D4681E09F3F09F080E0882338
S1132A9019F010920C4627C080910C46813019F52C
S1132AA080910D46882F90E0880F991F880F991FF9
S1132AB08254994BFC0180819181A281B3818093DE
S1132AC0654090936640A0936740B09368408091BE
S1132AD0654090916640A0916740B0916840BC0108
S1132AE0CD010E949F5A80E090E00E94330A06C004
S1132AF08B81882319F01B8281E08F8B1092D04345
S1132B008091C2439091C34321E0892B09F420E0D2
S1132B10222309F4A0C08091C2439091C34321E0D1
S1132B20019709F020E0222341F041E060E070E0E9
S1132B3083EE93E40E94CB5214C08091C2439091DF
S1132B40C34321E0029709F020E0222351F0809151
S1132B50D743882331F090911F4081E089278093E7
S1132B601F409091B14381E0992309F480E08823C8
S1132B7011F01092B1438EE090E00E94330A21E0FC
S1132B80892B09F420E0222309F45BC08B8188237C
S1132B9019F01B8281E08F8B80910D46882F90E085
S1132BA0880F991F880F991F8254994BFC018081CB
S1132BB09181A281B38121E0892B8A2B8B2B09F08F
S1132BC020E02223C9F180910D4661E00E949A22FF
S1132BD080930D4690910D4681E09F3F09F080E07F
S1132BE0882319F010920C4627C080910C4681303E
S1132BF019F580910D46882F90E0880F991F880F52
S1132C00991F8254994BFC0180819181A281B381E7
S1132C108093654090936640A0936740B09368406A
S1132C208091654090916640A0916740B091684062
S1132C30BC01CD010E949F5A8DE090E00E94330AAE
S1132C4006C08B81882319F01B8281E08F8B109240
S1132C50C2431092C3438091D143882309F46EC0C8
S1132C608EE090E00E94330A21E0892B09F420E0F1
S1132C70222309F45BC08B81882319F01B8281E035
S1132C808F8B80910D46882F90E0880F991F880FB5
S1132C90991F8254994BFC0180819181A281B38157
S1132CA021E0892B8A2B8B2B09F020E02223C9F108
S1132CB080910D4661E00E949A2280930D46909186
S1132CC00D4681E09F3F09F080E0882319F01092BF
S1132CD00C4627C080910C46813019F580910D4631
S1132CE0882F90E0880F991F880F991F8254994B61
S1132CF0FC0180819181A281B3818093654090938E
S1132D006640A0936740B09368408091654090917D
S1132D106640A0916740B0916840BC01CD010E941B
S1132D209F5A80E090E00E94330A06C08B8188237A
S1132D3019F01B8281E08F8B1092D1438091C443A0
S1132D409091C54321E0892B09F420E0222309F462
S1132D5047C18091C4439091C54321E0019709F094
S1132D6020E02223E1F180910C46882349F48091EC
S1132D700D4661E00E949A228F3F11F081E001C06C
S1132D8080E0882339F181E080930C4680910D46E0
S1132D90882F90E0880F991F880F991F8254994BB0
S1132DA0FC0180819181A281B381809365409093DD
S1132DB06640A0936740B0936840809165409091CD
S1132DC06640A0916740B0916840BC01CD010E946B
S1132DD09F5A02C010920C4681E08F8BFDC08091F7
S1132DE0C4439091C54321E0029709F020E02223D7
S1132DF009F4BDC08EE090E00E94330A092E000C55
S1132E00AA0BBB0B88309105A105B10508F0DFC002
S1132E10835F984EFC010C94326815174E17AD175A
S1132E20B2171A173F174417491781E08B8381E0C3
S1132E308F8BD2C08B859C85892B29F481E090E00F
S1132E400E94330AC6C08B859C85019771F460E0AB
S1132E5081E00E94FB2480E096E027E0FC012087CB
S1132E6085E090E00E94330AB4C08B859C85069768
S1132E7009F0AFC089E090E00E94330AAAC086E05E
S1132E8090E00E94330AA8C087E090E00E94330AD1
S1132E90A3C08DE090E00E94330A9EC082E090E0DF
S1132EA00E94330A80910D46882F90E0880F991F65
S1132EB0880F991F8254994BFC0180819181A281D2
S1132EC0B38121E0892B8A2B8B2B09F020E022236C
S1132ED009F481C08091654090916640A09167405B
S1132EE0B091684081309940AD43B10568F4809158
S1132EF0654090916640A0916740B0916840803EE3
S1132F009746A543B10510F481E001C080E0882311
S1132F1061F080E39BE2A6E3B0E080936540909388
S1132F206640A0936740B093684080910D46282F77
S1132F3030E08091654090916640A0916740B091E7
S1132F406840220F331F220F331F2254394BF901DB
S1132F5080839183A283B3833EC083E090E00E9488
S1132F60330A3AC08DE090E00E94330A35C0809164
S1132F70C4439091C54321E0039709F020E0222344
S1132F8059F18EE090E00E94330A21E0029709F0A3
S1132F9020E0222309F180910D46882F90E0880FCC
S1132FA0991F880F991F8254994BFC01108211823A
S1132FB01282138280910D46882F90E0845D9C4B91
S1132FC0FC0110828DE090E00E94330A05C00000ED
S1132FD003C0000001C000001092C4431092C54316
S1132FE08091BC439091BD438091D343882311F0D9
S1132FF01092D3439091D74381E08927882309F025
S1133000198E8091A8439091A94321E0892B09F45A
S113301020E0222309F42DC4CE01885B9F4F209128
S11330200840FC01208388E097E080930640909359
S113303007408091D743898F8091A8439091A943F9
S1133040892F881F8827881F882309F40BC28EE0E4
S113305090E00E94330A092E000CAA0BBB0B8830A7
S11330609105A105B10508F0F0C1865C974EFC01FD
S11330700C943268421815197B19D119181A251A9B
S1133080F319051A80910D44882341F08091224060
S1133090882F90E005960E947409B4C08B81882320
S11330A009F475C080910C46882309F040C08091D2
S11330B0654090916640A0916740B091684021E0DE
S11330C081159940AD43B10508F020E0222309F4AD
S11330D04CC08091D7438823A9F08091654090919A
S11330E06640A0916740B091684088519C4FAF4FB3
S11330F0BF4F8093654090936640A0936740B09320
S1133100684033C08091654090916640A0916740CB
S1133110B09168408C599F4FAF4FBF4F809365402B
S113312090936640A0936740B09368401EC080911E
S11331300D4661E00E949A2280930D4680910D46CF
S1133140882F90E0880F991F880F991F8254994BFC
S1133150FC0180819181A281B38180936540909329
S11331606640A0936740B093684080916540909119
S11331706640A0916740B0916840BC01CD010E94B7
S11331809F5A8091A2458F5F8093A2453BC0809156
S1133190D4438823C9F080911D4090911E4021E0C2
S11331A00A9708F020E0222369F180911D40909154
S11331B01E40019680931D4090931E408091A2452D
S11331C08F5F8093A2451EC0CE01885B9F4FFC0198
S11331D080818823B9F0CE01885B9F4F9E01285BD4
S11331E03F4FF90120812150FC012083CE01885BEF
S11331F09F4FFC0180810E94EF608091A2458F5F08
S11332008093A24580E090E00E942A5DDC01CB011E
S11332108093654090936640A0936740B093684064
S11332200E9423618093084013C180910D468F5FF3
S113323080930D4690910D4681E0943108F480E02E
S1133240882311F010920D4681E08F8B80910D46FA
S1133250882F90E09E01235B3F4F880F991F880FB2
S1133260991F8254994BFC0180819181A281B38181
S1133270F90180839183A283B383CE01835B9F4F43
S1133280FC0180819181A281B38181159940AD4374
S1133290B10520F5CE01835B9F4FFC0180819181B4
S11332A0A281B381813E9746A543B105B8F08091D0
S11332B00D46882F90E0880F991F880F991F82541C
S11332C0994BFC0180819181A281B38180936540F7
S11332D090936640A0936740B093684080916540A6
S11332E090916640A0916740B0916840BC01CD01C7
S11332F00E949F5AADC08091654090916640A09114
S11333006740B091684021E081159940AD43B10513
S113331008F020E0222369F18091D7438823A9F0A3
S11333208091654090916640A0916740B09168405B
S113333088519C4FAF4FBF4F809365409093664038
S1133340A0936740B093684014C080916540909109
S11333506640A0916740B09168408C599F4FAF4F31
S1133360BF4F8093654090936640A0936740B093AD
S1133370684080910D46282F30E0809165409091FF
S11333806640A0916740B0916840220F331F220F1E
S1133390331F2254394BF90180839183A283B38371
S11333A057C080910D46882F90E0845D9C4BFC01B2
S11333B0808188A388A18F5F88A381E098A1983138
S11333C008F480E0882309F018A280910D46882F24
S11333D090E0845D9C4B28A1FC0120831D821E8209
S11333E01F82188635C08091554089A389A18F5FBB
S11333F089A381E099A1943608F480E0882309F038
S113340019A289A18093554023C0809156408AA374
S11334108AA18F5F8AA381E09AA1943608F480E0A0
S1133420882311F083E68AA38AA18093564010C0B2
S11334308B85882F90E001968B879C878B859C8554
S1133440079729F41B861C8602C0000001C00000F7
S11334508091A8439091A94301968093A8439093A7
S1133460A94307C28EE090E00E94330A092E000CA3
S1133470AA0BBB0B88309105A105B10508F0EDC17D
S11334808B5B954EFC010C9432684D1A201B881BF3
S1133490DF1B1C1C2D1CFF1B0F1C80910D4488235B
S11334A041F080912240882F90E005970E94740992
S11334B0B4C08B81882309F475C080910C4688239D
S11334C009F040C08091654090916640A0916740AA
S11334D0B091684021E0813E9746A543B10508F4C8
S11334E020E0222309F44CC08091D7438823A9F01B
S11334F08091654090916640A0916740B09168408A
S1133500885E9340A109B109809365409093664019
S1133510A0936740B093684033C080916540909118
S11335206640A0916740B091684084569109A10912
S1133530B1098093654090936640A0936740B0932F
S113354068401EC080910D4660E00E949A228093DC
S11335500D4680910D46882F90E0880F991F880FA3
S1133560991F8254994BFC0180819181A281B3817E
S11335708093654090936640A0936740B093684001
S11335808091654090916640A0916740B0916840F9
S1133590BC01CD010E949F5A8091A2458F5F809308
S11335A0A2453BC08091D4438823C9F080911D403B
S11335B090911E4021E0029708F420E0222369F153
S11335C080911D4090911E40019780931D409093DF
S11335D01E408091A2458F5F8093A2451EC0CE01FC
S11335E0885B9F4FFC0180818A30B8F4CE01885BF0
S11335F09F4F9E01285B3F4FF90120812F5FFC0103
S11336002083CE01885B9F4FFC0180810E94EF6084
S11336108091A2458F5F8093A24580E090E00E9454
S11336202A5DDC01CB018093654090936640A093B2
S11336306740B09368400E9423618093084010C1A2
S113364090910D4681E0992309F080E0882321F0D0
S113365083E180930D4605C080910D46815080938F
S11336600D4680910D46882F90E09E01275B3F4FC9
S1133670880F991F880F991F8254994BFC018081F0
S11336809181A281B381F90180839183A283B38361
S113369081E08F8BCE01875B9F4FFC0180819181FC
S11336A0A281B38181159940AD43B10520F5CE01C6
S11336B0875B9F4FFC0180819181A281B381813E10
S11336C09746A543B105B8F080910D46882F90E048
S11336D0880F991F880F991F8254994BFC01808190
S11336E09181A281B3818093654090936640A093B9
S11336F06740B09368408091654090916640A09186
S11337006740B0916840BC01CD010E949F5AA8C097
S11337108091654090916640A0916740B091684067
S113372021E0813E9746A543B10508F420E0222319
S113373009F495C08091D7438823A9F0809165400E
S113374090916640A0916740B0916840885E934034
S1133750A109B1098093654090936640A0936740A6
S1133760B093684014C08091654090916640A091E8
S11337706740B091684084569109A109B1098093CA
S1133780654090936640A0936740B09368408091F1
S11337900D46282F30E08091654090916640A091BD
S11337A06740B0916840220F331F220F331F225409
S11337B0394BF90180839183A283B38350C08091F4
S11337C00D46882F90E0845D9C4BFC0180818BA387
S11337D08BA1882321F08BA181508BA302C087E1A8
S11337E08BA380910D46882F90E0845D9C4B2BA188
S11337F0FC0120831D821E821F82188631C08091A5
S113380055408CA38CA1882321F08CA181508CA3DA
S113381002C083E68CA38CA18093554021C0809183
S113382056408DA38DA1882319F08DA181508DA3BD
S11338308DA18093564014C08B858EA38EA18823BE
S113384021F08EA181508EA302C086E08EA38EA1AA
S1133850882F90E08B879C8703C0000001C0000084
S11338608091A8439091A94301978093A843909392
S1133870A9438FEE95E40E94DE4D882341F08091A8
S1133880204090912140892B11F481E001C080E017
S1133890882309F451C31FA218A619A685E090E055
S11338A08093204090932140CE0187579F4FFC0185
S11338B01082118280E090E0A6E1B4E4AC01BD0185
S11338C08FEE95E40E94394C8E010F5A1F4FCE01A2
S11338D087579F4FBC018FEE95E40E94EC4DDC01AD
S11338E0CB01F80180839183A283B38380E090E0CD
S11338F0AFE2B4E4AC01BD018FEE95E40E94394C13
S11339008E010B5A1F4FCE0187579F4FBC018FEE7C
S113391095E40E94EC4DDC01CB01F8018083918396
S1133920A283B38380E090E0A8E4B4E4AC01BD01D9
S11339308FEE95E40E94394C8E01075A1F4FCE0139
S113394087579F4FBC018FEE95E40E94EC4DDC013C
S1133950CB01F80180839183A283B383CE018F5A74
S11339609F4F9E012B5A3F4FF901208131814281A3
S11339705381FC0160817181828193810E94C264C0
S1133980DC01CB019C01AD018E01035A1F4FCE0116
S1133990875A9F4FFC0160817181828193810E94CB
S11339A0C264DC01CB01F80180839183A283B383D9
S11339B00E942361282F9091364081E0291709F451
S11339C080E0882319F10E9423618093364010928D
S11339D0E7451092E8451092E9451092EA4580EFD8
S11339E093E2A4E7B9E48093324090933340A093E8
S11339F03440B09335401092E3451092E445109260
S1133A00E5451092E64584E1809331408091314050
S1133A10882309F46EC080913140815080933140F5
S1133A208091DF459091E045A091E145B091E24558
S1133A30BE01635A7F4F9C01AD01FB01608171811E
S1133A40828193810E94DF661816F4F4CE01835AB2
S1133A509F4FFC0180819181A281B3818093E745CE
S1133A609093E845A093E945B093EA45CE01835A83
S1133A709F4FFC0180819181A281B381AC01BD0182
S1133A8088EF93E40E947E2B8091324090913340E2
S1133A90A0913440B0913540BE01635A7F4F9C01E0
S1133AA0AD01FB0160817181828193810E942E6549
S1133AB0882384F4CE01835A9F4FFC018081918135
S1133AC0A281B3818093324090933340A0933440D9
S1133AD0B0933540CE01835A9F4FFC018081918180
S1133AE0A281B381AC01BD018EEE93E40E947E2BD2
S1133AF09DC18091E3459091E445A091E545B09145
S1133B00E645BE01635A7F4F9C01AD01FB01608114
S1133B107181828193810E94DF6618160CF086C041
S1133B208091E7459091E845A091E945B091EA4537
S1133B3020E030E040E151E4BC01CD010E943C674B
S1133B40DC01CB017C018D01CE01835A9F4FFC0126
S1133B502081318142815381C801B7010E94C2642E
S1133B60DC01CB0120E030E040E251E4BC01CD01B6
S1133B700E943865DC01CB018093E7459093E845CA
S1133B80A093E945B093EA458091E7459091E845D3
S1133B90A091E945B091EA45AC01BD0188EF93E4F9
S1133BA00E947E2B88EF93E40E94F02BDC01CB0172
S1133BB020E030E040E850E4BC01CD010E943865CB
S1133BC0DC01CB017C018D018091E3459091E445BA
S1133BD0A091E545B091E6459C01AD01C801B7014E
S1133BE00E94C264DC01CB018093DF459093E045E1
S1133BF0A093E145B093E2458091DF459091E04583
S1133C00A091E145B091E245BE01635A7F4F11E0B6
S1133C109C01AD01FB0160817181828193810E94CD
S1133C20DF6618160CF010E019A742C080913240EC
S1133C3090913340A0913440B091354020E030E081
S1133C4040E151E4BC01CD010E943C67DC01CB01A1
S1133C507C018D01CE01835A9F4FFC01208131816B
S1133C6042815381C801B7010E94C264DC01CB01C7
S1133C7020E030E040E251E4BC01CD010E9438650F
S1133C80DC01CB018093324090933340A0933440C5
S1133C90B09335408091324090913340A0913440AC
S1133CA0B0913540AC01BD018EEE93E40E947E2BB1
S1133CB08091DF459091E045A091E145B091E245C6
S1133CC0BC01CD010E94E4666B017C018091E34557
S1133CD09091E445A091E545B091E64520E030E0BF
S1133CE040EA51E4BC01CD010E94C264DC01CB0175
S1133CF0BC01CD010E94E466DC01CB019C01AD0155
S1133D00C701B6010E94C164DC01CB0120E030E0B0
S1133D1048EC52E4BC01CD010E943C67DC01CB01BC
S1133D20BC01CD010E94B165DC01CB01BC0182E084
S1133D3094E40E94B42F82E094E40E941D308FA387
S1133D4098A789A5882309F450C08091EB459091E8
S1133D50EC4501968093EB459093EC458091EB45BF
S1133D609091EC45029708F461C08FA198A50E9735
S1133D7068F041E068E070E083EE93E40E94CB5287
S1133D8061E070E083EE93E40E94B2521092ED453C
S1133D901092EE458091D443882321F48091D54339
S1133DA0882311F081E001C080E08823B9F080917C
S1133DB0B6439091B7432FA138A582179307B0F566
S1133DC08091B6439091B74301968093B643909304
S1133DD0B743109220401092214028C08FA198A58B
S1133DE08093B6439093B74321C08091ED45909161
S1133DF0EE4501968093ED459093EE451092EB4588
S1133E001092EC458091ED459091EE45039770F04A
S1133E1041E067E070E083EE93E40E94CB5241E01E
S1133E2062E070E083EE93E40E94CB528FA198A5E8
S1133E30449708F081C08091E7459091E845A091AE
S1133E40E945B091EA4520913240309133404091A8
S1133E50344050913540BC01CD010E94C264DC0164
S1133E60CB018E010F591F4F20E030E040E050E4B9
S1133E70BC01CD010E943865DC01CB01F8018083CF
S1133E809183A283B3839E012B593F4F8091DF45D9
S1133E909091E045A091E145B091E245F90180831C
S1133EA09183A283B383CE018F599F4F9E012B59D7
S1133EB03F4FF9012081318142815381FC016081AE
S1133EC07181828193810E942E6588234CF4CE01F6
S1133ED08F599F4FFC0180819181A281B38108C0D9
S1133EE0CE018B599F4FFC0180819181A281B381C6
S1133EF08093E3459093E445A093E545B093E6456C
S1133F008091E3459091E445A091E545B091E64563
S1133F10AC01BD018EEE93E40E947E2B8EEE93E401
S1133F200E94F02BDC01CB018093E3459093E445A0
S1133F30A093E545B093E6458091B243882311F4FC
S1133F400C94C00C83EE93E40E9484520E942B6371
S1133F5060E083E00E94A2010E94223882E090E0A7
S1133F600E94136081E08093B34310920940109241
S1133F700A408091B243882309F180E590E0FC0176
S1133F808081897F282F226080E590E0FC012083D6
S1133F90F89480E590E0FC01208180E590E02160C8
S1133FA0FC0120837894889580E590E0FC012081D1
S1133FB080E590E02E7FFC012083DBCF1092B34399
S1133FC00E94980161E083E00E94A2010E9455636F
S1133FD08091094090910A400C94C00CCF92DF92DA
S1133FE0EF92FF920F931F93CF93DF93CDB7DEB77A
S1133FF02897CDBFDEBF8F83988787E390E48D83B6
S11340009E838F819885892B61F08F819885FC012F
S113401080819181A281B38189839A83AB83BC839C
S113402018C08091194090911A40880F991F8C54A0
S11340309C4BFC0180819181CC01A0E0B0E0BC01EB
S1134040CD010E94E065DC01CB0189839A83AB83B7
S1134050BC8320E030E84BE554E469817A818B81AC
S11340609C810E942E6518162CF019821A821B82DC
S11340701C821AC020E030E84BE554E469817A815F
S11340808B819C810E94C164DC01CB0126E636E66B
S113409046E350E4BC01CD010E943865DC01CB014C
S11340A089839A83AB83BC8320E030E048EC52E4FC
S11340B069817A818B819C810E94DF66181644F4A1
S11340C080E090E0A8ECB2E489839A83AB83BC835C
S11340D020E030E040E752E469817A818B819C8161
S11340E00E943C67DC01CB016C017D01809155404D
S11340F0882F90E09C012F5F3F4F42E3429FC00115
S1134100439F900D1124092E000CAA0BBB0BBC017C
S1134110CD010E94E265DC01CB019C01AD01C70128
S1134120B6010E943C67DC01CB0120E030E44CE99D
S113413055E4BC01CD010E943865DC01CB018983C3
S11341409A83AB83BC8389819A81AB81BC8107E369
S113415010E420E043E0BC01CD010E9455681092B8
S11341603B4087E390E40E944A228D839E838D81A5
S11341709E812896CDBFDEBFDF91CF911F910F9115
S1134180FF90EF90DF90CF9008950F931F93CF93FC
S1134190DF93CDB7DEB72C97CDBFDEBF6F837887B3
S11341A089879A874B875C878EE390E48D839E830F
S11341B020E030E84BE554E46F81788589859A8561
S11341C00E942E6518162CF019821A821B821C82FA
S11341D01AC020E030E84BE554E46F817885898586
S11341E09A850E94C164DC01CB0126E636E646E3EB
S11341F050E4BC01CD010E943865DC01CB01898308
S11342009A83AB83BC8320E030E048EC52E46981BC
S11342107A818B819C810E94DF66181644F480E0C9
S113422090E0A8ECB2E489839A83AB83BC838B854A
S11342309C85892B59F02B853C8589819A81AB819A
S1134240BC81F90180839183A283B38389819A819C
S1134250AB81BC810EE310E420E042E0BC01CD015F
S11342600E945568109241408EE390E40E944A22D5
S11342708D839E838D819E812C96CDBFDEBFDF9181
S1134280CF911F910F9108950F931F93CF93DF93B5
S1134290CDB7DEB72997CDBFDEBF8F836887798717
S11342A089E490E48D839E8388859985892B61F0C8
S11342B088859985FC0180819181A281B38189835C
S11342C09A83AB83BC8318C08091194090911A40A3
S11342D0880F991F8C549C4BFC0180819181CC01E7
S11342E0A0E0B0E0BC01CD010E94E065DC01CB019F
S11342F089839A83AB83BC8320E030E040E953E4B4
S113430069817A818B819C810E943C67DC01CB01AD
S113431089839A83AB83BC8320E030E040E855E492
S113432069817A818B819C810E943865DC01CB0193
S113433089839A83AB83BC8320E030E040E050E47F
S113434069817A818B819C810E94C264DC01CB01EA
S113435089839A83AB83BC8388859985892B69F08B
S113436089819A81AB81BC8180934540909346407A
S1134370A0934740B09348402EC08091454090910F
S11343804640A0914740B091484020E030E040E1F1
S113439051E4BC01CD010E943C67DC01CB012981C1
S11343A03A814B815C81BC01CD010E94C264DC0175
S11343B0CB0120E030E040E251E4BC01CD010E9499
S11343C03865DC01CB018093454090934640A0932F
S11343D04740B093484020E030E0A90169817A81E8
S11343E08B819C810E94DF6688230CF449C020E005
S11343F030E044E353E469817A818B819C810E949B
S11344002E651816ECF18F81882329F1809145409F
S113441090914640A0914740B091484020E030E060
S113442040E251E4BC01CD010E943865DC01CB01BE
S113443009E410E422E045E0BC01CD010E94556886
S113444010924F4089E490E40E944A228D839E8317
S11344508D819E8117C08091454090914640A091E6
S11344604740B091484009E410E420E044E0BC0136
S1134470CD010E94556810924E4089E490E402C038
S113448089E490E42996CDBFDEBFDF91CF911F91DF
S11344900F910895CF93DF9300D000D0CDB7DEB74E
S11344A08B839C838B819C81FC018081882F90E08D
S11344B00E949869892B31F08B819C8101968B83B2
S11344C09C83F0CF8B819C81FC018081882319F42B
S11344D08B819C8129C08B819C810E94A169019759
S11344E02B813C81820F931F89839A8329813A818E
S11344F08B819C818217930780F489819A81FC01C6
S11345008081882F90E00E949869892B31F08981FD
S11345109A81019789839A83E9CF89819A81019647
S1134520FC0110828B819C812496CDBFDEBFDF917C
S1134530CF910895CF93DF93CDB7DEB72597CDBF45
S1134540DEBF8C836D838C818B8319821A828D816B
S1134550882339F18A81882309F04AC0898184310A
S113456008F046C089818F5F89838B818F5F8B833D
S11345708B81843108F01B828B81882F90E0880F17
S1134580991F880F991F8254994BFC018081918156
S1134590A281B381892B8A2B8B2BE1F281E08A8360
S11345A0D9CF8A81882321F58981843108F58981CD
S11345B08F5F89838B81882321F08B8181508B834A
S11345C002C083E18B838B81882F90E0880F991F31
S11345D0880F991F8254994BFC0180819181A2819B
S11345E0B381892B8A2B8B2BE1F281E08A83D9CF8B
S11345F09A8181E08927882311F08FEF8B838B8147
S11346002596CDBFDEBFDF91CF910895CF93DF9381
S113461000D000D0CDB7DEB789839A836B837C83C7
S113462089819A81019741F58B819C81019621F5BD
S113463088ED93E40E94C93183EE93E40E94E9502B
S113464064E670E084EE93E40E94EC2C6EE170E08A
S11346508EEE93E40E94322B6AE070E088EF93E4DC
S11346600E94322B6AE070E082E094E40E946A2F98
S11346708CE094E40E943E3889819A81892BE1F48C
S11346808B819C810196C1F48CE094E40E944B38A8
S113469082E094E40E94A02F88EF93E40E946A2BA6
S11346A08EEE93E40E946A2B84EE93E40E94202D04
S11346B083EE93E40E94F65000002496CDBFDEBF43
S11346C0DF91CF910895CF93DF93CDB7DEB76FEF2E
S11346D07FEF81E090E00E940623DF91CF9108955F
S11346E0CF93DF93CDB7DEB76FEF7FEF80E090E03D
S11346F00E940623DF91CF910895CF93DF93CDB726
S1134700DEB78091F0459091F145892B29F080E046
S113471096E021E0FC0122870000DF91CF9108950B
S1134720CF93DF93CDB7DEB780E096E0FC018585BB
S1134730882F90E08170992721E0892B09F420E0EB
S1134740822FDF91CF910895CF93DF93CDB7DEB75A
S113475080E694E0FC01208980E694E0287FFC0157
S1134760208B80E694E0FC01208980E694E02460BC
S1134770FC01208B80E694E0FC01218980E694E032
S1134780287FFC01218B80E694E0FC01218980E6EE
S113479094E02460FC01218B80E694E0FC012289F2
S11347A080E694E0287FFC01228B80E694E0FC0103
S11347B0228980E694E02460FC01228B80E694E068
S11347C0FC01238980E694E0287FFC01238B80E6AA
S11347D094E0FC01238980E694E02460FC01238BAF
S11347E080E694E0FC01248980E694E0287FFC01C3
S11347F0248B80E694E0FC01248980E694E0246024
S1134800FC01248B80E694E0FC01258980E694E099
S1134810287FFC01258B80E694E0FC01258980E655
S113482094E02460FC01258B80E694E0FC01278958
S113483080E694E0287FFC01278B80E694E0FC016D
S1134840278980E694E02460FC01278B80E694E0CD
S1134850FC01208980E694E0277FFC01208B80E620
S113486094E0FC01218980E694E0277FFC01218B00
S113487080E694E0FC01228980E694E0277FFC0135
S1134880228B80E694E0FC01238980E694E0277F74
S1134890FC01238B80E694E0FC01248980E694E00B
S11348A0277FFC01248B80E694E0FC01258980E6C7
S11348B094E0277FFC01258B80E694E0FC012789A6
S11348C080E694E0277FFC01278B0000DF91CF91E5
S11348D00895CF93DF931F92CDB7DEB78983898183
S11348E08823D9F080EA90E021E8FC01208380E06D
S11348F096E028E0FC01228380E096E023E0FC01BE
S1134900208380E096E021E0FC01248781E090E0B0
S11349108093F0459093F1451AC080EA90E021E835
S1134920FC01208380E096E02CE0FC01228380E0FF
S113493096E027E0FC01208380E096E021E0FC0182
S1134940248781E090E08093F0459093F145000046
S11349500F90DF91CF910895CF93DF931F92CDB73E
S1134960DEB789838981882319F180EA90E021E008
S1134970FC01208380E096E02CE0FC01228380E0AF
S113498096E0FC01208180E096E02160FC01208318
S113499080E096E0FC01248580E096E02E7FFC0117
S11349A0248782E090E08093F0459093F1451EC007
S11349B080EA90E021E0FC01208380E096E02CE096
S11349C0FC01228380E096E025E0FC01208380E066
S11349D096E0FC01248580E096E02E7FFC0124878C
S11349E082E090E08093F0459093F14500000F90B1
S11349F0DF91CF910895CF93DF9300D0CDB7DEB789
S1134A0089836A830E94A4238A81882321F089816F
S1134A100E94692433C080E096E0FC01248580E094
S1134A2096E02E7FFC01248780E096E0FC018081E3
S1134A30882F90E08270992721E0892B09F420E0E7
S1134A402223A9F062E070E080E090E00E94966189
S1134A50882349F00E949023982F81E08927882396
S1134A6011F081E001C080E0882309F0EBCF80E001
S1134A7096E0FC01108289810E94AC2400000F9012
S1134A800F90DF91CF9108950F931F93CF93DF93EE
S1134A9000D000D0CDB7DEB789839A836B837C8343
S1134AA089819A81019781F48B819C81019661F4BB
S1134AB000E014E029E536E440E050E06AEC72E4FA
S1134AC08FEE95E40E948E4B89819A81892B41F463
S1134AD08B819C81019621F48FEE95E40E94264CF3
S1134AE000002496CDBFDEBFDF91CF911F910F91BF
S1134AF00895CF93DF93CDB7DEB76FEF7FEF81E0FB
S1134B0090E00E944425DF91CF910895CF93DF93E5
S1134B10CDB7DEB76FEF7FEF80E090E00E944425D1
S1134B20DF91CF910895CF93DF93CDB7DEB725976B
S1134B30CDBFDEBF8B836C837D838B81882F90E018
S1134B40805F9B4F89839A838C819D81019759F45F
S1134B5089819A81FC018081282F286089819A812A
S1134B60FC0120830EC08C819D81892B51F48981A5
S1134B709A81FC018081282F277F89819A81FC01F9
S1134B80208300002596CDBFDEBFDF91CF9108952D
S1134B90CF93DF9300D01F92CDB7DEB789836A83AA
S1134BA07B838A819B8181309105E9F08230910574
S1134BB081F1892B09F03DC080E090E0FC01808107
S1134BC0482F8981282F30E081E090E002C0880FCF
S1134BD0991F2A95E2F78095242F282380E090E0FE
S1134BE0FC01208326C080E090E0FC018081482FF6
S1134BF08981282F30E081E090E002C0880F991F5E
S1134C002A95E2F7242F282B80E090E0FC012083F2
S1134C1010C08981882F90E0805F9B4FFC01208128
S1134C208981882F90E0805F9B4F2860FC0120835E
S1134C30000000002396CDBFDEBFDF91CF91089521
S1134C40CF93DF9300D0CDB7DEB789836A838A819F
S1134C508823B1F080E090E0FC018181482F8981B4
S1134C60282F30E081E090E002C0880F991F2A9538
S1134C70E2F7242F282B80E090E0FC01218316C06A
S1134C8080E090E0FC018181482F8981282F30E069
S1134C9081E090E002C0880F991F2A95E2F7809581
S1134CA0242F282380E090E0FC01218300000F9052
S1134CB00F90DF91CF910895CF93DF93CDB7DEB7F7
S1134CC080E090E0FC018281DF91CF910895CF9341
S1134CD0DF9300D01F92CDB7DEB789836A837B83CD
S1134CE08A819B8181309105E9F08230910581F1BF
S1134CF0892B09F03DC084E090E0FC018081482FBD
S1134D008981282F30E081E090E002C0880F991F4C
S1134D102A95E2F78095242F282384E090E0FC0173
S1134D20208326C084E090E0FC018081482F8981A3
S1134D30282F30E081E090E002C0880F991F2A9567
S1134D40E2F7242F282B84E090E0FC01208310C09C
S1134D508981882F90E0805D9B4FFC0120818981AF
S1134D60882F90E0805D9B4F2860FC012083000029
S1134D7000002396CDBFDEBFDF91CF910895CF937E
S1134D80DF9300D0CDB7DEB789836A838A81882315
S1134D90B1F084E090E0FC018181482F8981282FC3
S1134DA030E081E090E002C0880F991F2A95E2F775
S1134DB0242F282B84E090E0FC01218316C084E09A
S1134DC090E0FC018181482F8981282F30E081E027
S1134DD090E002C0880F991F2A95E2F78095242F4E
S1134DE0282384E090E0FC01218300000F900F90C1
S1134DF0DF91CF910895CF93DF93CDB7DEB7259799
S1134E00CDBFDEBF8B836C837D838B81882F90E045
S1134E10805B9B4F89839A838C819D81019759F490
S1134E2089819A81FC018081282F286089819A8157
S1134E30FC0120830EC08C819D81892B51F48981D2
S1134E409A81FC018081282F277F89819A81FC0126
S1134E50208300002596CDBFDEBFDF91CF9108955A
S1134E60CF93DF9300D01F92CDB7DEB789836A83D7
S1134E707B838A819B8181309105E9F082309105A1
S1134E8081F1892B09F03DC088E090E0FC0180812C
S1134E90482F8981282F30E081E090E002C0880FFC
S1134EA0991F2A95E2F78095242F282388E090E023
S1134EB0FC01208326C088E090E0FC018081482F1B
S1134EC08981282F30E081E090E002C0880F991F8B
S1134ED02A95E2F7242F282B88E090E0FC01208318
S1134EE010C08981882F90E0805B9B4FFC0120815A
S1134EF08981882F90E0805B9B4F2860FC01208390
S1134F00000000002396CDBFDEBFDF91CF9108954E
S1134F10CF93DF9300D0CDB7DEB789836A838A81CC
S1134F208823B1F088E090E0FC018181482F8981D9
S1134F30282F30E081E090E002C0880F991F2A9565
S1134F40E2F7242F282B88E090E0FC01218316C08F
S1134F5088E090E0FC018181482F8981282F30E08E
S1134F6081E090E002C0880F991F2A95E2F78095AE
S1134F70242F282388E090E0FC01218300000F9077
S1134F800F90DF91CF910895CF93DF9300D01F92BC
S1134F90CDB7DEB789836A837B838A819B81813025
S1134FA09105E9F08230910581F1892B09F03DC02A
S1134FB080E190E0FC018081482F8981282F30E036
S1134FC081E090E002C0880F991F2A95E2F780954E
S1134FD0242F282380E190E0FC01208326C080E177
S1134FE090E0FC018081482F8981282F30E081E006
S1134FF090E002C0880F991F2A95E2F7242F282BEE
S113500080E190E0FC01208310C08981882F90E02A
S113501080579B4FFC0120818981882F90E0805725
S11350209B4F2860FC012083000000002396CDBF25
S1135030DEBFDF91CF910895CF93DF9300D0CDB73A
S1135040DEB789836A838A818823B1F080E190E0A6
S1135050FC018181482F8981282F30E081E090E094
S113506002C0880F991F2A95E2F7242F282B80E18C
S113507090E0FC01218316C080E190E0FC01818175
S1135080482F8981282F30E081E090E002C0880F0A
S1135090991F2A95E2F78095242F282380E190E038
S11350A0FC01218300000F900F90DF91CF910895B0
S11350B0CF93DF93CDB7DEB72597CDBFDEBF8B830C
S11350C06C837D838B81882F90E080559B4F8983EF
S11350D09A838C819D81019759F489819A81FC017D
S11350E08081282F286089819A81FC0120830EC049
S11350F08C819D81892B51F489819A81FC01808165
S1135100282F277F89819A81FC012083000025961E
S1135110CDBFDEBFDF91CF910895CF93DF9300D051
S11351201F92CDB7DEB789836A837B838A819B8193
S113513081309105E9F08230910581F1892B09F0E4
S11351403DC084E190E0FC018081482F8981282FB3
S113515030E081E090E002C0880F991F2A95E2F7C1
S11351608095242F282384E190E0FC01208326C02D
S113517084E190E0FC018081482F8981282F30E070
S113518081E090E002C0880F991F2A95E2F7242F4E
S1135190282B84E190E0FC01208310C08981882FB2
S11351A090E080559B4FFC0120818981882F90E0FD
S11351B080559B4F2860FC0120830000000023964B
S11351C0CDBFDEBFDF91CF910895CF93DF9300D0A1
S11351D0CDB7DEB789836A838A818823B1F084E1FD
S11351E090E0FC018181482F8981282F30E081E003
S11351F090E002C0880F991F2A95E2F7242F282BEC
S113520084E190E0FC01218316C084E190E0FC017C
S11352108181482F8981282F30E081E090E002C00D
S1135220880F991F2A95E2F78095242F282384E17B
S113523090E0FC01218300000F900F90DF91CF914B
S11352400895CF93DF93CDB7DEB784E190E0FC01FE
S11352508281DF91CF910895CF93DF93CDB7DEB7ED
S11352608091F6458093F7458091F5458093F64506
S11352708091F3458093F4458091F2458093F34502
S11352800E945C268093F2450E9421298093F54573
S11352909091F2458091F84598272091F3458091AB
S11352A0F845822798232091F4458091F845822778
S11352B098238091F84589278093F8459091F54586
S11352C08091F94598272091F6458091F9458227E8
S11352D098232091F7458091F9458227982380915E
S11352E0F94589278093F9450000DF91CF9108950E
S11352F0CF93DF93CDB7DEB78091F845DF91CF919F
S11353000895CF93DF93CDB7DEB760E070E080E01F
S11353100E94C82561E070E080E00E94932560E06F
S113532070E081E00E94C82561E070E081E00E94A5
S1135330932560E070E082E00E94C82561E070E09F
S113534082E00E94932561E070E083E00E94C8251A
S113535061E083E00E94202660E070E084E00E9427
S1135360C82561E070E084E00E94932561E070E06C
S113537085E00E94C82560E085E00E94202661E067
S113538070E086E00E94C82560E086E00E94202646
S113539061E070E087E00E94C82561E087E00E9438
S11353A0202661E070E084E00E94672661E084E0EA
S11353B00E94BF2660E070E082E00E94302761E036
S11353C070E082E00E94FB2660E070E083E00E94CF
S11353D0302761E070E083E00E94FB2661E070E02A
S11353E084E00E94302760E084E00E94882761E026
S11353F070E085E00E94302760E085E00E94882705
S113540060E070E080E00E94C42760E070E081E02A
S11354100E94C42761E070E082E00E94C42760E03B
S113542082E00E941C2860E070E083E00E94C427B0
S113543062E070E080E00E948D2862E070E081E02C
S11354400E948D2860E070E082E00E948D2861E077
S113545070E082E00E94582860E070E083E00E94DF
S11354608D2860E070E084E00E948D2860E070E0A8
S113547085E00E948D2861E070E085E00E94582854
S113548062E070E086E00E948D2880EA94E0FC01EE
S1135490238980EA94E02160FC01238B80EA94E074
S11354A0FC01248980EA94E02160FC01248B80EAD9
S11354B094E028E1FC0121870000DF91CF91089559
S11354C0CF93DF93CDB7DEB760E070E080E00E9459
S11354D0C82560E070E080E00E94932560E070E001
S11354E081E00E94C82560E070E081E00E9493257D
S11354F060E070E082E00E94C82560E070E082E035
S11355000E94932561E070E083E00E94C82560E07A
S113551083E00E94202660E070E084E00E94C825B9
S113552060E070E084E00E94932561E070E085E033
S11355300E94C82560E085E00E94202661E070E0BA
S113554086E00E94C82560E086E00E94202661E093
S113555070E087E00E94C82560E087E00E94202672
S113556061E070E084E00E94672660E084E00E94CD
S1135570BF2660E070E082E00E94302761E070E0C6
S113558082E00E94FB2660E070E083E00E94302706
S113559061E070E083E00E94FB2661E070E084E05B
S11355A00E94302760E084E00E94882761E070E078
S11355B085E00E94302760E085E00E94882760E053
S11355C070E080E00E94C42760E070E081E00E9407
S11355D0C42761E070E082E00E94C42760E082E0BA
S11355E00E941C2860E070E083E00E94C42762E00F
S11355F070E080E00E948D2862E070E081E00E940B
S11356008D2861E070E082E00E948D2860E082E0F5
S11356100E94E52860E070E083E00E948D2860E04D
S113562070E084E00E948D2861E070E085E00E94D3
S11356308D2860E085E00E94E52862E070E086E065
S11356400E948D280000DF91CF910895CF93DF93BE
S1135650CDB7DEB780E890E0FC01118680E0DF91F1
S1135660CF910895CF93DF9300D000D0CDB7DEB7AC
S113567089839A836B837C838B819C81880F991F98
S1135680880F991F0E9473689C0189819A81FC018B
S11356902583368389819A812B813C81FC01278370
S11356A0308789819A81FC011082118289819A81D3
S11356B0FC011282138289819A81FC0114828981FE
S11356C09A81FC01118600002496CDBFDEBFDF91D4
S11356D0CF910895CF93DF9300D0CDB7DEB7898300
S11356E09A8389819A81FC01858196810E940F6940
S11356F000000F900F90DF91CF910895CF93DF9327
S1135700CDB7DEB72697CDBFDEBF89839A834B839F
S11357105C836D837E8389819A81FC012581368136
S113572089819A81FC0180819181880F991F880F5A
S1135730991F280F391F8B819C81AD81BE81F9018E
S113574080839183A283B38389819A81FC018481BC
S11357508823B1F089819A81FC0182819381019629
S1135760AC0189819A81FC0127813085CA01B90184
S11357700E94FC679C0189819A81FC012283338306
S113578089819A81FC01808191810196AC01898192
S11357909A81FC0127813085CA01B9010E94FC6706
S11357A09C0189819A81FC012083318389819A81BA
S11357B0FC012081318189819A81FC01828193815C
S11357C041E02817390709F040E089819A81FC01FA
S11357D0448300002696CDBFDEBFDF91CF910895AC
S11357E0CF93DF93CDB7DEB76F97CDBFDEBF8E8F7C
S11357F09F8F19821A821B821C821E8A1F8A188E0E
S1135800198E1A8E1B8E1C8E1D8E1D828D81282F43
S113581030E08E8D9F8DFC01878190852817390794
S113582008F095C08E8D9F8DFC01258136818D8178
S1135830882F90E0880F991F880F991F820F931F5C
S1135840FC0180819181A281B3819C01AD016981B8
S11358507A818B819C810E94C264DC01CB018983A3
S11358609A83AB83BC838E8D9F8DFC012581368109
S11358708D81882F90E0880F991F880F991F820FC0
S1135880931FFC0180819181A281B3818E839F83C8
S1135890A887B9878A8D9B8DAC8DBD8D8A879B87A0
S11358A0AC87BD872A853B854C855D856E817F816C
S11358B0888599850E942E6588232CF48E819F818A
S11358C0A885B98504C08A859B85AC85BD858A8FEA
S11358D09B8FAC8FBD8F8E8D9F8DFC012581368172
S11358E08D81882F90E0880F991F880F991F820F50
S11358F0931FFC0180819181A281B3818E879F8750
S1135900A88BB98B8E899F89A88DB98D8A8B9B8B27
S1135910AC8BBD8B2A893B894C895D896E857F85DB
S1135920888999890E942E6588232CF48A899B8909
S1135930AC89BD8904C08E859F85A889B9898E8B61
S11359409F8BA88FB98F8D818F5F8D835FCF8A8D59
S11359509B8DAC8DBD8D9C01AD0169817A818B815C
S11359609C810E94C164DC01CB0189839A83AB834F
S1135970BC838E899F89A88DB98D9C01AD016981F5
S11359807A818B819C810E94C164DC01CB01898373
S11359909A83AB83BC838E8D9F8DFC018781908518
S11359A00297CC01A0E0B0E0BC01CD010E94E0650B
S11359B0DC01CB019C01AD0169817A818B819C81E1
S11359C00E943865DC01CB01BC01CD016F96CDBFCF
S11359D0DEBFDF91CF910895CF93DF9300D000D045
S11359E0CDB7DEB789839A836B837C838B819C815B
S11359F00E9473689C0189819A81FC012583368306
S1135A0089819A812B813C81FC012783308789819C
S1135A109A81FC011082118289819A81FC0112828F
S1135A20138289819A81FC01148289819A81FC0103
S1135A30118600002496CDBFDEBFDF91CF9108957B
S1135A40CF93DF9300D0CDB7DEB789839A83898162
S1135A509A81FC01858196810E940F6900000F9054
S1135A600F90DF91CF910895CF93DF9300D0CDB7FE
S1135A70DEB789839A8389819A81FC0122813381EB
S1135A8089819A81FC012083318389819A81FC0177
S1135A90148289819A81FC01118600000F900F9075
S1135AA0DF91CF910895CF93DF9300D0CDB7DEB7C8
S1135AB089839A8389819A81FC01948181E0892771
S1135AC0882379F089819A81FC012081318189813F
S1135AD09A81FC01828193812817390711F481E0AE
S1135AE001C080E00F900F90DF91CF910895CF9384
S1135AF0DF9300D0CDB7DEB789839A8389819A81F9
S1135B00FC01878190850F900F90DF91CF910895CC
S1135B10CF93DF9300D000D0CDB7DEB78B839C83C7
S1135B208B819C81FC018781908589839A838B81F9
S1135B309C81FC01948181E08927882399F18B81E0
S1135B409C81FC01208131818B819C81FC018281BB
S1135B509381281739078CF08B819C81FC0120816B
S1135B6031818B819C81FC0182819381A901481B35
S1135B70590BCA0189839A8315C08B819C81FC01CE
S1135B80878190852B813C81F90120813181820FAD
S1135B90931F2B813C81F90122813381821B930B5A
S1135BA089839A8389819A812496CDBFDEBFDF9150
S1135BB0CF9108950F931F93CF93DF9300D000D01C
S1135BC0CDB7DEB78B839C8319821A828B819C812B
S1135BD0FC01948181E08927882379F08B819C8161
S1135BE00E94772D8C018B819C810E94882D9801C5
S1135BF0281B390BC90189839A8389819A81249648
S1135C00CDBFDEBFDF91CF911F910F910895CF9348
S1135C10DF9300D01F92CDB7DEB789839A836B835D
S1135C2089819A81FC018581968129813A81F901D2
S1135C3020813181820F931F2B81FC012083898174
S1135C409A81FC0184818823B1F089819A81FC01C5
S1135C50828193810196AC0189819A81FC0127811B
S1135C603085CA01B9010E94FC679C0189819A812F
S1135C70FC012283338389819A81FC018081918193
S1135C800196AC0189819A81FC0127813085CA0182
S1135C90B9010E94FC679C0189819A81FC012083DF
S1135CA0318389819A81FC012081318189819A81A2
S1135CB0FC018281938141E02817390709F040E013
S1135CC089819A81FC01448300002396CDBFDEBF05
S1135CD0DF91CF910895CF93DF9300D01F92CDB77A
S1135CE0DEB78A839B838A819B810E94532D8823FC
