S01500005369676E616C536E61676765722E73726563EA
S11300000C94B4000C94DE000C94DE000C9461019A
S11300100C94DE000C94DE000C94C2070C94DE00F9
S11300200C94DE000C94DE000C94DE000C94DE00D4
S11300300C94E4020C94AB4B0C94DE000C94DE00A4
S11300400C94DE000C94DE000C94DE000C94DE00B4
S11300500C94DE000C94DE000C94DE000C94DE00A4
S11300600C9416020C94DE000C94DE000C94DE005A
S11300700C94DE000C94DE000C94534B0C94DE00C4
S11300800C94DE000C94DE000C94ED070C94DE005E
S11300900C94DE000C94DE000C94DE000C94DE0064
S11300A00C94DE000C942F3A0C94DE000C94DE00C9
S11300B00C94DE000C94DE000C94DE000C94DE0044
S11300C00C94DE000C94DE000C94DE000C94DE0034
S11300D00C94DE000C94DE000C94DE000C94DE0024
S11300E00C94DE000C94DE0005A84CCDB2D44EB9BD
S11300F03836A9020C50B9918688083CA6AAAA2AC7
S1130100BE000000803F08000000BE922449123E59
S1130110ABAAAA2ABECDCCCC4C3E00000080BEAB1C
S1130120AAAAAA3E00000000BF000000803F000011
S1130130000000084178D3BB4387D1133D190E3C1E
S1130140C3BD4282AD2B3E68EC8276BED98FE1A955
S11301503E4C80EFFFBE01C4FF7F3F000000000063
S11301606F15E9167C15F61611241FBECFEFCDBF0F
S1130170DFE7DEBF11E4A0E0B0E4E8ECFAEA00E077
S11301800BBF02C007900D92A839B107D9F723E439
S1130190A8E9B1E401C01D92A43EB207E1F710E062
S11301A0C2EBD0E004C02197FE010E94F050C03B96
S11301B0D107C9F70E94AD090C9457550C9400005F
S11301C00FB6F8946093E0437093E1438093E24365
S11301D09093E3430FBE0895FC010FB6F894609129
S11301E0E0437091E1438091E2439091E3430FBE79
S11301F0309721F0608371838283938308958F9372
S11302008FB78F93F8948091E0438F5F8093E0439E
S11302108091E1438F4F8093E1438091E2438F4F7C
S11302208093E2438091E3438F4F8093E3438F9124
S11302308FBF8F910895CF93DF93CDB7DEB70E9420
S11302401D230000DF91CF910895CF93DF9300D059
S1130250CDB7DEB789836A838A818823B1F080E0D1
S113026090E0FC018181482F8981282F30E081E0D2
S113027090E002C0880F991F2A95E2F7242F282BBB
S113028080E090E0FC01218316C080E090E0FC0156
S11302908181482F8981282F30E081E090E002C0DD
S11302A0880F991F2A95E2F78095242F282380E050
S11302B090E0FC01218300000F900F90DF91CF911B
S11302C008951F920F920FB60F9211240BB60F923E
S11302D02F933F934F935F936F937F938F939F934A
S11302E0AF93BF93EF93FF93CF93DF931F92CDB759
S11302F0DEB780E491E0FC01838189838981882FC2
S113030090E081709927892B09F474C00E94FF0042
S1130310809106409091074021E0892B09F420E068
S1130320222349F0809106409091074001978093E1
S11303300640909307408091094090910A40A09113
S11303400B40B0910C4021E0892B8A2B8B2B09F4B4
S113035020E0222399F08091094090910A40A091D5
S11303600B40B0910C400197A109B1098093094059
S113037090930A40A0930B40B0930C4081E080938B
S113038008428091094290910A42A0910B42B09197
S11303900C420196A11DB11D8093094290930A421B
S11303A0A0930B42B0930C428091094290910A426F
S11303B0A0910B42B0910C4221E00297A105B10536
S11303C009F020E0222319F081E080930342809118
S11303D0094290910A42A0910B42B0910C4221E053
S11303E00597A105B10509F020E0222319F081E069
S11303F080930D4280E491E023E0FC01238300001C
S11304000F90DF91CF91FF91EF91BF91AF919F91A9
S11304108F917F916F915F914F913F912F910F90A9
S11304200BBE0F900FBE0F901F9018951F920F9246
S11304300FB60F9211240BB60F922F933F934F9345
S11304405F936F937F938F939F93AF93BF93EF9338
S1130450FF93CF93DF93CDB7DEB72597CDBFDEBF34
S113046080E096E0FC0185858B838B81882F90E06A
S113047081709927892B09F489C080E096E0FC01FA
S1130480808991898C839D8319821A82809113407B
S1130490882321F08C819D8189839A8380917D4278
S11304A090917E4221E0892B09F420E0222329F156
S11304B08091804291E0980F90938042882F90E041
S11304C0880F991F855B9D4BFC0180819181298157
S11304D03A81820F931F89839A8380918042893164
S11304E011F41092804280917D4290917E42019756
S11304F080937D4290937E420FC090917F4281E031
S1130500992309F480E0882339F080917F42815057
S113051080937F4219821A828091114090911240F7
S113052021E0059708F420E0222389F0809111400E
S1130530909112409C012450310989819A8102C012
S1130540880F991F2A95E2F789839A8314C08091B2
S1130550114090911240049799231CF49195819530
S113056091099C0189819A8102C0969587952A9563
S1130570E2F789839A8389819A810E947F1F8C8103
S11305809D81BC018CEB92E40E94D23680E096E01F
S113059023E0FC01258700002596CDBFDEBFDF9157
S11305A0CF91FF91EF91BF91AF919F918F917F91E7
S11305B06F915F914F913F912F910F900BBE0F90D0
S11305C00FBE0F901F9018951F920F920FB60F92A7
S11305D011240BB60F922F933F934F935F936F9316
S11305E07F938F939F93AF93BF93EF93FF93CF9397
S11305F0DF93CDB7DEB72F97CDBFDEBF80E09BE0A2
S1130600FC0186818E838E81882F90E081709927EA
S1130610892B09F499C41F821886809114408F5F36
S113062080931440209114408BEA289F812D11243B
S1130630982F96959695892F880F890F880F922F5A
S1130640981B992309F0E9C319821A821B8287E156
S113065089870E94E81A982F898589238F830E94AD
S11306609C1A0E94E81A982F89858923888788858F
S113067082708A87888581708B87888584708C874F
S1130680888580718D8781E09D85992309F080E0BC
S113069080930042882331F08CE390E080930640FD
S11306A0909307401B828A85882371F48B85882365
S11306B059F060E086E00E94250161E085E00E9437
S11306C0250181E0898325C08B85882371F48A857F
S11306D0882359F060E085E00E94250161E086E00E
S11306E00E94250181E08A8314C060E085E00E94B5
S11306F0250160E086E00E94250119821A828A851C
S1130700882329F48B85882311F481E001C080E0DB
S11307108B8381E09C85992309F080E080933342A8
S11307208981809330428A81809331428B81809386
S113073032429F818885981709F40AC198858F8170
S113074089278E8787E090E080930F409093104034
S11307508CE390E0809306409093074084E893E014
S1130760A0E0B0E08093094090930A40A0930B402E
S1130770B0930C408E85082E000C990B827099273B
S1130780892B79F08A85882339F081E090E0809381
S11307901740909318400BC01092174010921840C5
S11307A006C082E090E080931740909318408E85B5
S11307B0082E000C990B81709927892B79F08B8571
S11307C0882339F081E090E08093194090931A4097
S11307D00BC01092194010921A4006C082E090E0BB
S11307E08093194090931A408B818823F1F0809173
S11307F02A4290912B42019680932A4290932B4255
S113080010921442109215421092244210922542E2
S113081010921642109217421092264210922742CA
S1130820109215401092164064C080911A42909123
S11308301B4221E0892B09F420E0222389F088EE71
S113084093E080937D4290937E4210921A421092DC
S11308501B4281E090E0809315409093164049C07C
S113086081E0809320408091174090911840019737
S113087071F488EE93E080937D4290937E421092CF
S113088014421092154281E080931D400FC0809164
S1130890174090911840892B49F4809124429091FB
S11308A025420196809324429093254280911940D9
S11308B090911A40019771F488EE93E080937D4201
S11308C090937E42109216421092174281E08093D8
S11308D01E400FC08091194090911A40892B49F411
S11308E080912642909127420196809326429093CC
S11308F027428E85082E000C990B84709927892B2A
S113090009F423C180913342882371F080912842F5
S11309109091294201968093284290932942109203
S11309201B4010921C4011C188EE93E080937D42DD
S113093090937E42109218421092194281E0809363
S11309401F4081E090E080931B4090931C40FDC0C9
S11309508B81882309F441C090912E4281E089273C
S1130960882331F080912040882311F081E001C078
S113097080E0882309F4ABC080911A4290911B4215
S113098021E0019609F420E0222349F080911A42E3
S113099090911B42019680931A4290931B4280913E
S11309A01A4290911B4221E08436910508F420E01C
S11309B0222309F48CC081E080932E4210921A42C3
S11309C010921B4210922A4210922B421092204005
S11309D010921D4010921E407AC089818823D1F163
S11309E090912C4281E08927882331F080911D4029
S11309F0882311F081E001C080E0882359F18091BF
S1130A0014429091154221E0019609F420E022233A
S1130A1049F08091144290911542019680931442BA
S1130A2090931542809114429091154221E0883CA4
S1130A30910508F420E0222369F081E080932C42A0
S1130A4010921442109215421092244210922542A0
S1130A5010921D408A818823D1F190912D4281E02A
S1130A608927882331F080911E40882311F081E08A
S1130A7001C080E0882359F1809116429091174279
S1130A8021E0019609F420E0222349F080911642E6
S1130A909091174201968093164290931742809149
S1130AA016429091174221E0883C910508F420E019
S1130AB0222369F081E080932D4210921642109215
S1130AC01742109226421092274210921E408091A3
S1130AD033428823D1F190912F4281E089278823E2
S1130AE031F080911F40882311F081E001C080E043
S1130AF0882359F1809118429091194221E001967E
S1130B0009F420E0222349F080911842909119427F
S1130B1001968093184290931942809118429091C3
S1130B20194221E0883C910508F420E0222369F071
S1130B3081E080932F421092184210921942109231
S1130B4028421092294210921F4080918142909134
S1130B508242892B71F18091814290918242019766
S1130B60809381429093824280918142909182420B
S1130B70892B09F044C080912A4290912B42892B01
S1130B8041F080912A4290912B42039710F481E026
S1130B9001C080E0882341F080912A4290912B4249
S1130BA0809322429093234210922A4210922B4225
S1130BB026C080912A4290912B42019741F4809162
S1130BC0154090911640019711F481E001C080E036
S1130BD0882339F082E390E08093814290938242AB
S1130BE00EC080912A4290912B4221E0039708F491
S1130BF020E0222321F010922A4210922B4280916D
S1130C00834290918442892B71F180918342909127
S1130C1084420197809383429093844280918342DB
S1130C2090918442892B09F044C080912442909190
S1130C302542892B41F080912442909125420397CB
S1130C4010F481E001C080E0882341F080912442C7
S1130C509091254280931C4290931D42109224420D
S1130C601092254226C080912442909125420197FA
S1130C7041F48091174090911840019711F481E05C
S1130C8001C080E0882339F082E390E080938342BE
S1130C90909384420EC0809124429091254221E099
S1130CA0039708F420E0222321F0109224421092AA
S1130CB025428091854290918642892B71F18091E1
S1130CC08542909186420197809385429093864213
S1130CD08091854290918642892B09F044C080918D
S1130CE0264290912742892B41F08091264290918F
S1130CF02742039710F481E001C080E0882341F08B
S1130D00809126429091274280931E4290931F42E5
S1130D10109226421092274226C08091264290913A
S1130D202742019741F48091194090911A4001970C
S1130D3011F481E001C080E0882339F082E390E07F
S1130D4080938542909386420EC080912642909172
S1130D50274221E0039708F420E0222321F0109297
S1130D602642109227428091874290918842892B93
S1130D7071F18091874290918842019780938742D4
S1130D80909388428091874290918842892B09F000
S1130D9044C08091284290912942892B41F080914E
S1130DA0284290912942049710F481E001C080E028
S1130DB0882341F0809128429091294280932042D7
S1130DC090932142109228421092294226C0809189
S1130DD0284290912942019741F480911B409091BF
S1130DE01C40019711F481E001C080E0882339F0B0
S1130DF082E390E080938742909388420EC0809172
S1130E0028429091294221E0039708F420E022230C
S1130E1021F010922842109229428091064290912A
S1130E20074221E0892B09F420E0222309F48CC035
S1130E308091064290910742892F881F8827881F36
S1130E408F87809106429091074299231CF49195D3
S1130E50819591098C839D832091894230918A42A6
S1130E60809106429091074241E02817390709F022
S1130E7040E0442369F180918B4290918C42892B0C
S1130E8049F080918B4290918C42019780938B42E0
S1130E9090938C4280918B4290918C42892BE9F5FE
S1130EA084E893E0A0E0B0E08093094090930A4086
S1130EB0A0930B40B0930C408C819D8102972CF041
S1130EC084E090E08C839D8328C01C821D8225C011
S1130ED08C819D810497DCF08F85882351F080916B
S1130EE004429091054201978093044290930542F5
S1130EF009C0809104429091054201968093044276
S1130F00909305428C819D8104978C839D838BE40F
S1130F1090E080938B4290938C428F85882331F0AC
S1130F208C819D8191958195910902C08C819D81CF
S1130F308093064290930742809106429091074223
S1130F408093894290938A4280E09BE023E0FC01F5
S1130F50268300002F96CDBFDEBFDF91CF91FF9196
S1130F60EF91BF91AF919F918F917F916F915F911D
S1130F704F913F912F910F900BBE0F900FBE0F908A
S1130F801F9018951F920F920FB60F9211240BB653
S1130F900F922F938F939F93EF93FF93CF93DF93AE
S1130FA01F92CDB7DEB780E090E0FC018381898396
S1130FB080E090E02FEFFC01238300000F90DF918D
S1130FC0CF91FF91EF919F918F912F910F900BBE35
S1130FD00F900FBE0F901F9018951F920F920FB68F
S1130FE00F9211240BB60F922F938F939F93AF936D
S1130FF0BF93EF93FF93CF93DF9300D01F92CDB7AE
S1131000DEB784E190E0FC0183818983809103420F
S1131010882309F45BC08981882F90E0887199271F
S1131020892B09F453C080EA94E0FC018085882F61
S113103090E0959587959595879595958795837077
S11310408A8380918D42882F90E0880F991F880FA2
S1131050991F982F8A81892B8B838B81882F90E00D
S1131060092E000CAA0BBB0B0197A109B1098E3004
S11310709105A105B10538F58F5B974FFC010C94E0
S1131080F0504F08590863085908630863084F086B
S11310904F08630863085908630859084F0880918A
S11310A0064290910742019680930642909307422C
S11310B00AC08091064290910742019780930642AC
S11310C09093074200008A8180938D4280EA94E0E5
S11310D028E1FC01218700002396CDBFDEBFDF910C
S11310E0CF91FF91EF91BF91AF919F918F912F91EC
S11310F00F900BBE0F900FBE0F901F901895CF93BB
S1131100DF93CDB7DEB760E083E00E9425010000E5
S1131110DF91CF910895CF93DF93CDB7DEB761E030
S113112083E00E9425010000DF91CF9108950F9381
S11311301F93CF93DF931F92CDB7DEB719828981B6
S1131140893108F051C08981882F90E0092E000C64
S1131150AA0BBB0BBC01CD010E94A04EDC01CB014C
S11311602BED3FE049EC50E4BC01CD010E94FA4F65
S1131170DC01CB0120E030E048EC51E4BC01CD01BE
S11311800E94F64DDC01CB01BC01CD010E946750E9
S1131190DC01CB0120E030E040E751E4BC01CD01AB
S11311A00E94FA4FDC01CB0120E030E040E751E43B
S11311B0BC01CD010E94804DDC01CB012981022FAD
S11311C010E0BC01CD010E946F4EDC01CB019C01FB
S11311D0C801880F991F855B9D4BFC0120833183D7
S11311E089818F5F8983ABCF00000F90DF91CF910E
S11311F01F910F910895CF93DF9300D0CDB7DEB741
S11312008AE492E40E94C4290E947F0860E087E097
S11312100E94250184E690E089839A8389819A81DA
S1131220892B79F080910042882331F089819A8159
S1131230019789839A83F2CF84E690E089839A8325
S1131240EDCF61E087E00E94250161E083E00E9428
S1131250250100000F900F90DF91CF910895CF9357
S1131260DF9300D0CDB7DEB789839A831092904282
S11312701092914289819A81079761F480918E42FC
S113128090918F42880F991F80579D4BFC0180815C
S113129091815EC089819A81892B29F410928E42B2
S11312A010928F424AC089819A810697D1F4809125
S11312B08E4290918F42892B49F080918E42909179
S11312C08F42019780938E4290938F4280918E42F9
S11312D090918F42892B89F58AE492E40E94C42973
S11312E02CC080918E4290918F42880F991F805715
S11312F09D4BFC018081918129813A81281739070E
S1131300E1F080918E4290918F424397B4F48091A2
S11313108E4290918F42019680938E4290938F4299
S113132080918E4290918F42880F991F80579D4BD8
S113133029813A81FC012083318380918E429091EE
S11313408F42880F991F80579D4BFC0180819181AA
S11313500F900F90DF91CF910895CF93DF93CDB786
S1131360DEB7C755D109CDBFDEBF0E9497081982E9
S11313701A821B821C821D821E821F821886198675
S11313801A861B861C861D861E861F868FEF888BF9
S1131390198A1A8A1B8A1C8A1D8A1E8A81E08F8BED
S11313A0198E0E941B010E94C1488078888F68EEC4
S11313B073E080E090E00E94984A882329F0888DA9
S11313C0882311F081E001C080E0882329F00E9485
S11313D0C1488078888FEBCF8AE492E40E94DD31A3
S11313E08AE492E40E94D92A80913E4090913F4041
S11313F0A0914040B0914140BC01CD010E942D4CD0
S11314008CA39DA38CA19DA1892B49F080910142BD
S113141090910242826080930142909302428091B3
S11314203840909139400E94DC3F60E873E48DE6D7
S113143098E30E94E00080E090E00E94EC00DC0170
S1131440CB018EA39FA3A8A7B9A760ED77E080E0A6
S113145090E00E94984A882389F080E090E00E94FE
S1131460EC009B01AC018EA19FA1A8A5B9A5821790
S11314709307A407B50711F481E001C080E0882335
S113148009F0E3CF80E090E00E94EC009B01AC0106
S113149061E08EA19FA1A8A5B9A582179307A4070F
S11314A0B50709F060E0662359F0809101429091FC
S11314B00242816080930142909302420E94383F2D
S11314C062E070E084E392E40E94F51F809101429F
S11314D09091024221E0892B09F420E0222391F12A
S11314E041E069E070E08FE392E40E94F73B62E53B
S11314F070E480E492E40E94611E80910142909124
S113150002428270992721E0892B09F420E02223EA
S113151031F06BE570E480E492E40E94611E8091F6
S11315200142909102428170992721E0892B09F4AC
S113153020E02223B1F164E670E480E492E40E94A6
S1131540611E2FC060E070E08FE392E40E94DE3BF6
S11315506DE670E480E492E40E94611E66E770E444
S113156080E492E40E94611E81E890E4892F8F93C5
S113157081E890E48F9386E890E4892F8F9386E83E
S113158090E48F9388E991E4892F8F9388E991E41B
S11315908F930E9478520F900F900F900F900F909E
S11315A00F9068E971E480E492E40E94611E80E097
S11315B096E022E0FC01208780E00E94A4160E94AD
S11315C0891580910D42882309F40EC387E090E0C9
S11315D00E942F098AA79BA78F89882339F42AA5FB
S11315E03BA589819A8128173907D9F01F8A8AA5D2
S11315F09BA589839A8384E392E40E9404211C8638
S11316001D861E861F868FEF888B8FEF90E0898B57
S11316109A8B8FEF8D831B8A1C8A1D8A1E8A8FEFFB
S11316208A878AA59BA5833091053CF48130910576
S11316300CF0BDC1892B49F0D7C28330910509F460
S11316404FC1049709F4ACC2CFC28091D9429091A2
S1131650DA42892B09F050C080913E4090913F407E
S1131660A0914040B091414061E02C853D854E857C
S11316705F85281739074A075B0709F460E066238A
S113168009F485C080913E4090913F40A091404034
S1131690B09141408C879D87AE87BF878C859D859F
S11316A0AE85BF859E01225C3F4FAC01BD01C901DF
S11316B00E94F54CCE01CE96292F2F938F938FE85D
S11316C090E4892F8F938FE890E48F9388E991E4D5
S11316D0892F8F9388E991E48F930E9478520F9019
S11316E00F900F900F900F900F9068E971E480E4D1
S11316F092E40E94611E4BC09D818C81981709F46D
S113170046C08C818D8380913E4090913F40A09152
S11317104040B09141408C879D87AE87BF878C85C0
S11317209D85AE85BF859E01225C3F4FAC01BD0106
S1131730C9010E94F54C8D81882F90E001969E018D
S1131740225C3F4F432F4F932F93292F2F938F9337
S113175084E990E4892F8F9384E990E48F931F9216
S11317608DE08F9388E991E4892F8F9388E991E440
S11317708F930E9441522DB73EB7265F3F4FCDBF96
S1131780DEBF68E971E480E492E40E94611E809106
S113179008409889981761F180910840888B80915E
S11317A00840882F90E024E630E0A901481B590B3B
S11317B0CA01292F2F938F938FE990E4892F8F9358
S11317C08FE990E48F9388E991E4892F8F9388E9D6
S11317D091E48F930E9478520F900F900F900F9086
S11317E00F900F9068E971E480E492E40E94611E16
S11317F0809111409091124041E029893A8928173B
S1131800390709F440E0442331F18091114090916B
S11318101240898B9A8B8A898F9389898F9389EA5D
S113182090E4892F8F9389EA90E48F9388E991E477
S1131830892F8F9388E991E48F930E9478520F90B7
S11318400F900F900F900F900F9068E971E480E46F
S113185092E40E94611E8091104290911142A091E5
S11318601242B09113422B893C894D895E89281715
S113187039074A075B0709F4B2C18091104290917D
S11318801142A0911242B09113428B8B9C8BAD8B71
S1131890BE8B8E898F938D898F938C898F938B893F
S11318A08F9382EB90E4892F8F9382EB90E48F9354
S11318B01F9287E08F9388E991E4892F8F9388E9B9
S11318C091E48F930E9441528DB79EB70A96CDBF83
S11318D0DEBF68E971E480E492E40E94611E7FC186
S11318E09A858B85981709F47CC18B858A878CE04F
S11318F0E9EBF0E4A8E9B1E401900D928A95E1F7EF
S113190068E971E480E492E40E94611E83E891E452
S1131910892F8F9383E891E48F9385EC90E4892F4A
S11319208F9385EC90E48F9388E991E4892F8F93CA
S113193088E991E48F930E9478520F900F900F9052
S11319400F900F900F9068E971E480E492E40E9494
S1131950611E8B85282F30E0C901880F991F880FDD
S1131960991F820F931F880F991F8F5A9E4B292FFF
S11319702F938F9385EC90E4892F8F9385EC90E4DB
S11319808F9388E991E4892F8F9388E991E48F9369
S11319900E9478520F900F900F900F900F900F901D
S11319A068E971E480E492E40E94611E1AC18C81AA
S11319B0882F90E0880F991F880F991F84579C4B9C
S11319C0FC0180819181A281B3818A8F9B8FAC8F2E
S11319D0BD8F8A8D9B8DAC8DBD8D81309940AD437B
S11319E0B10548F48A8D9B8DAC8DBD8D803E9746A4
S11319F0A543B10590F48C81882F90E0880F991F3E
S1131A00880F991F84579C4BFC011082118212820B
S1131A1013821A8E1B8E1C8E1D8E9D818C819817AD
S1131A2071F42E813F81488559858A8D9B8DAC8DBB
S1131A30BD8D281739074A075B0709F4D4C08C8188
S1131A408D838A8D9B8DAC8DBD8D8E839F83A8875E
S1131A50B9878D81882F90E00196292F2F938F933A
S1131A608AEC90E4892F8F938AEC90E48F931F92F1
S1131A708DE08F9388E991E4892F8F9388E991E42D
S1131A808F930E9441522DB73EB7285F3F4FCDBF81
S1131A90DEBF68E971E480E492E40E94611E8D81F6
S1131AA0882F90E0880F991F880F991F84579C4BAB
S1131AB0FC0180819181A281B3818A8F9B8FAC8F3D
S1131AC0BD8F8A8D9B8DAC8DBD8D892B8A2B8B2BE5
S1131AD009F456C08A8D9B8DAC8DBD8D9E01275B0C
S1131AE03F4FAC01BD01C9010E94F54C8AA59BA5DD
S1131AF0019701F5CE01875B9F4F292F2F938F9379
S1131B0088ED90E4892F8F9388ED90E48F931F9252
S1131B108DE08F9388E991E4892F8F9388E991E48C
S1131B208F930E9441522DB73EB7285F3F4FCDBFE0
S1131B30DEBF1FC0CE01875B9F4F292F2F938F934A
S1131B4081EE90E4892F8F9381EE90E48F931F921E
S1131B508DE08F9388E991E4892F8F9388E991E44C
S1131B608F930E9441524DB75EB7485F5F4FCDBF20
S1131B70DEBF68E971E480E492E40E94611E33C030
S1131B808DE0EAEEF0E4A8E9B1E401900D928A95C3
S1131B90E1F768E971E480E492E40E94611E23C0E5
S1131BA089E0E7EFF0E4A8E9B1E401900D928A95A9
S1131BB0E1F768E971E480E492E40E94611E8DE03B
S1131BC0E0E0F1E4A8E9B1E401900D928A95E1F72F
S1131BD068E971E480E492E40E94611E05C000009B
S1131BE003C0000001C0000080E492E40E943E1D96
S1131BF021E0892B09F420E0222309F44CC0CE0112
S1131C008C5A9F4FAC0168E971E480E492E40E942D
S1131C10C41ECE018C5A9F4FFC0180819181039791
S1131C2008F45BC0809198418CA7809199418DA75D
S1131C308CA580538EA78DA580538FA74FA56EA525
S1131C4084E392E40E941621CE018C5A9F4FFC013A
S1131C50808191819C0122503109CE018C5A9F4F81
S1131C60FC0120833183CE018C5A9F4FFC0180817B
S1131C709181AC016AE971E484E392E40E94B221A7
S1131C80CE018C5A9F4FAC0168E971E480E492E480
S1131C900E94C41EBECF8091094090910A40A09139
S1131CA00B40B0910C4021E0892B8A2B8B2B09F03F
S1131CB020E0222391F087E090E00E942F0921E0A8
S1131CC0049709F420E0222329F084E090E00E94A4
S1131CD02F0903C00E94FB08FFCF8091064090911A
S1131CE0074021E0892B09F020E0222311F00E9413
S1131CF0FB08809122429091234221E0892B09F430
S1131D0020E0222391F0809122429091234221E00D
S1131D10019709F020E0222321F48091224290913E
S1131D202342109222421092234280912E42882311
S1131D3081F010922E4287E090E00E942F0921E06A
S1131D40892B09F020E0222321F083E090E00E9417
S1131D502F0980911C4290911D4221E0892B09F4A6
S1131D6020E02223F9F080911C4290911D4221E051
S1131D70019709F020E0222341F041E060E070E0A7
S1131D808FE392E40E94F73B04C080911C4290913F
S1131D901D4286E090E00E942F091B8210921C4293
S1131DA010921D42809114429091154280912C42D0
S1131DB0882331F080E090E00E942F0910922C4299
S1131DC080911E4290911F4221E0892B09F420E06A
S1131DD0222359F180911E4290911F4221E00197E4
S1131DE009F020E0222341F041E060E070E08FE35D
S1131DF092E40E94F73B10C080911E4290911F42D2
S1131E0021E0029709F020E0222331F09091134061
S1131E1081E089278093134086E090E00E942F0997
S1131E201B8210921E4210921F4280911642909182
S1131E30174280912D42882331F080E090E00E9487
S1131E402F0910922D42809120429091214221E04D
S1131E50892B09F420E0222309F485C080912042D3
S1131E609091214221E0019709F020E0222309F416
S1131E7041C08091D9429091DA42892B41F461E0CA
S1131E808C810E94CA148F3F11F081E001C080E070
S1131E90882349F181E090E08093D9429093DA421B
S1131EA08C81882F90E0880F991F880F991F845781
S1131EB09C4BFC0180819181A281B38180933E403F
S1131EC090933F40A0934040B093414080913E4066
S1131ED090913F40A0914040B0914140BC01CD0160
S1131EE00E947C4304C01092D9421092DA4281E0ED
S1131EF08F8B35C0809120429091214221E002973E
S1131F0009F020E0222319F187E090E00E942F09D4
S1131F1081309105B9F0823091051CF4892B39F098
S1131F201EC082309105C1F0039721F018C081E0F2
S1131F308B8315C08B85882389F481E090E00E940F
S1131F402F090CC082E090E00E942F0908C0809104
S1131F5020429091214203C0000001C00000109271
S1131F60204210922142809118429091194280910E
S1131F702F42882311F010922F428091FC419091BE
S1131F80FD4121E0892B09F420E0222321F0109265
S1131F90FC411092FD418091FE419091FF4121E06E
S1131FA0892B09F420E0222321F01092FE411092A3
S1131FB0FF419091334281E08927882309F0198EEB
S1131FC0809104429091054221E0892B09F420E09C
S1131FD0222309F4CAC28091084088AB8CE390E0C4
S1131FE0809306409093074080913342898F80917B
S1131FF0044290910542892F881F8827881F8823CF
S113200009F457C187E090E00E942F0981309105BF
S113201009F49AC0823091051CF4892B49F03FC120
S11320208230910509F4DEC0039709F430C137C149
S11320308B81882309F448C08091D9429091DA4277
S1132040892BA9F480913E4090913F40A09140405B
S1132050B09141408C599F4FAF4FBF4F80933E404A
S113206090933F40A0934040B09341401BC061E037
S11320708C810E94CA148C838C81882F90E0880FF5
S1132080991F880F991F84579C4BFC018081918173
S1132090A281B38180933E4090933F40A0934040FF
S11320A0B093414080913E4090913F40A091404088
S11320B0B0914140BC01CD010E947C4380917F429C
S11320C08F5F80937F422DC0809130428823C9F076
S11320D0809111409091124021E00A9708F020E08D
S11320E02223F9F08091114090911240019680933F
S11320F011409093124080917F428F5F80937F4282
S113210010C088A9882369F088A9815088AB88A960
S1132110882F90E00E94C34980917F428F5F809313
S11321207F4280E090E00E94FD45DC01CB0180937A
S11321303E4090933F40A0934040B09341400E9462
S1132140234A80930840ABC08C818F5F8C838C8141
S1132150843108F01C828C81882F90E0880F991FAD
S1132160880F991F84579C4BFC0180819181A28127
S1132170B3818DAB9EABAFABB8AF8DA99EA9AFA910
S1132180B8AD81159940AD43B105F8F48DA99EA968
S1132190AFA9B8AD813E9746A543B105B0F08C8197
S11321A0882F90E0880F991F880F991F84579C4BA4
S11321B0FC0180819181A281B38180933E40909300
S11321C03F40A0934040B093414080913E40909165
S11321D03F40A0914040B0914140BC01CD010E94DC
S11321E07C435DC080913E4090913F40A09140402F
S11321F0B091414021E081159940AD43B10508F00B
S113220020E0222369F1809133428823A9F0809150
S11322103E4090913F40A0914040B0914140885150
S11322209C4FAF4FBF4F80933E4090933F40A0934D
S11322304040B093414014C080913E4090913F4053
S1132240A0914040B09141408C599F4FAF4FBF4F38
S113225080933E4090933F40A0934040B0934140D0
S11322608C81282F30E080913E4090913F40A09196
S11322704040B0914140220F331F220F331F245797
S11322803C4BF90180839183A283B38308C08B857F
S11322908F5F8B878B85853009F41B8600008091C6
S11322A00442909105420196809304429093054222
S11322B05CC187E090E00E942F098130910509F408
S11322C09AC0823091051CF4892B49F045C18230B3
S11322D0910509F4E0C0039709F433C13DC18B8132
S11322E0882309F448C08091D9429091DA42892B1D
S11322F0A9F480913E4090913F40A0914040B0911C
S1132300414084569109A109B10980933E409093BC
S11323103F40A0934040B09341401BC060E08C819B
S11323200E94CA148C838C81882F90E0880F991F97
S1132330880F991F84579C4BFC0180819181A28155
S1132340B38180933E4090933F40A0934040B0932C
S1132350414080913E4090913F40A0914040B091D7
S11323604140BC01CD010E947C4380917F428F5F3C
S113237080937F422DC0809130428823C9F08091A0
S113238011409091124021E0029708F420E02223AA
S1132390F9F080911140909112400197809311407F
S11323A09093124080917F428F5F80937F4210C050
S11323B088A9843668F488A98F5F88AB88A9882F98
S11323C090E00E94C34980917F428F5F80937F4257
S11323D080E090E00E94FD45DC01CB0180933E400B
S11323E090933F40A0934040B09341400E94234AC1
S11323F080930840B1C08C81882319F483E18C83D5
S113240003C08C8181508C838C81882F90E0880F4D
S1132410991F880F991F84579C4BFC0180819181DF
S1132420A281B38189AB9AABABABBCAB89A99AA9A6
S1132430ABA9BCA981159940AD43B105F8F489A9AC
S11324409AA9ABA9BCA9813E9746A543B105B0F0B2
S11324508C81882F90E0880F991F880F991F8457CB
S11324609C4BFC0180819181A281B38180933E4089
S113247090933F40A0934040B093414080913E40B0
S113248090913F40A0914040B0914140BC01CD01AA
S11324900E947C4361C080913E4090913F40A09156
S11324A04040B091414021E0813E9746A543B105AB
S11324B008F420E0222309F44EC08091334288239B
S11324C0A9F080913E4090913F40A0914040B0914E
S11324D04140885E9340A109B10980933E409093A6
S11324E03F40A0934040B093414014C080913E408F
S11324F090913F40A0914040B09141408456910951
S1132500A109B10980933E4090933F40A09340407D
S1132510B09341408C81282F30E080913E409091CF
S11325203F40A0914040B0914140220F331F220F01
S1132530331F24573C4BF90180839183A283B383D7
S11325400AC08B85882321F08B8581508B8704C03A
S113255084E08B8701C00000809104429091054281
S1132560019780930442909305428CEB92E40E947D
S11325701B37882309F4BCC1CE018A5A9F4FFC0142
S11325801082118280E090E8ABE1B4E4AC01BD01BB
S11325908CEB92E40E947635CE018A5A9F4FBC019F
S11325A08CEB92E40E942937DC01CB0189AF9AAF0E
S11325B0ABAFBCAFCE018A5A9F4FFC0180819181A1
S11325C021E0C3970CF420E02DAF9DAD81E0892775
S11325D0882309F48DC180912140882309F443C0E4
S11325E0809121408150809321408091B842909104
S11325F0B942A091BA42B091BB429C01AD0169AD10
S11326007AAD8BAD9CAD0E949D4F181664F489ADD4
S11326109AADABADBCAD8093B8429093B942A09350
S1132620BA42B093BB428091224090912340A09142
S11326302440B09125409C01AD0169AD7AAD8BADCC
S11326409CAD0E94EC4D88230CF052C189AD9AAD2B
S1132650ABADBCAD8093224090932340A093244023
S1132660B093254045C11AA21BA28091B842909113
S1132670B942A091BA42B091BB429C01AD0169AD8F
S11326807AAD8BAD9CAD0E949D4F181684F5809158
S1132690B8429091B942A091BA42B091BB4220E0B5
S11326A030E040EA50E4BC01CD010E94FA4FDC0165
S11326B0CB0129AD3AAD4BAD5CADBC01CD010E945F
S11326C0804DDC01CB0120E030E040EC50E4BC0163
S11326D0CD010E94F64DDC01CB018093B84290936A
S11326E0B942A093BA42B093BB4281E08AA38091DD
S11326F0224090912340A0912440B09125409C0118
S1132700AD0169AD7AAD8BAD9CAD0E94EC4D8823D3
S113271084F58091224090912340A0912440B0916F
S1132720254020E030E040EA50E4BC01CD010E94A5
S1132730FA4FDC01CB0129AD3AAD4BAD5CADBC0128
S1132740CD010E94804DDC01CB0120E030E040EC63
S113275050E4BC01CD010E94F64DDC01CB01809315
S1132760224090932340A0932440B093254081E0DD
S11327708BA39AA181E08927882309F463C09BA1D4
S113278081E08927882309F45DC08091B842909143
S1132790B942A091BA42B091BB4220E030E048E493
S11327A052E4BC01CD010E94FA4FDC01CB0129ADFA
S11327B03AAD4BAD5CADBC01CD010E94804DDC0156
S11327C0CB0120E030E04CE452E4BC01CD010E9496
S11327D0F64DDC01CB018093B8429093B942A093AB
S11327E0BA42B093BB428091224090912340A09181
S11327F02440B091254020E030E048E452E4BC019C
S1132800CD010E94FA4FDC01CB0129AD3AAD4BADAD
S11328105CADBC01CD010E94804DDC01CB0120E008
S113282030E04CE452E4BC01CD010E94F64DDC01E1
S1132830CB018093224090932340A0932440B093F3
S1132840254024C08091B8429091B942A091BA42E7
S1132850B091BB42209122403091234040912440CA
S113286050912540BC01CD010E94804DDC01CB017B
S113287020E030E040E050E4BC01CD010E94F64D80
S1132880DC01CB018E8F9F8FA8A3B9A32E8D3F8D22
S113289048A159A169AD7AAD8BAD9CAD0E949D4F05
S11328A0181634F58091B8429091B942A091BA4279
S11328B0B091BB42BC01CD010E94A24FDC01CB010F
S11328C020E030E040E251E4BC01CD010E94FA4F27
S11328D0DC01CB01BC01CD010E946F4EDC01CB01B8
S11328E08093104290931142A0931242B0931342EA
S11328F080910E42882311F40C94E10A8FE392E450
S11329000E94B03B0E947F080E94352382E090E041
S11329100E94E64881E080930F4210920D4010928D
S11329200E4080910E42882309F180E590E0FC017D
S11329308081897F282F226080E590E0FC0120833C
S1132940F89480E590E0FC01208180E590E021602E
S1132950FC0120837894889580E590E0FC01208137
S113296080E590E02E7FFC012083DBCF10920F42A4
S11329700E941B010E948B080E944B4C80910D40C9
S113298090910E408DEE90E08093FE419093FF4134
S11329900C94E10ACF93DF93CDB7DEB72597CDBF73
S11329A0DEBF8C836D838C818B831A8219828D8127
S11329B0882321F18981882309F044C08A818431E4
S11329C008F040C08B818F5F8B838B81843108F04A
S11329D01B828B81882F90E0880F991F880F991F85
S11329E084579C4BFC0180819181A281B381892B06
S11329F08A2B8B2BF9F281E08983DCCF89818823B0
S1132A0009F58A818431F0F48B81882321F08B814C
S1132A1081508B8302C083E18B838B81882F90E06C
S1132A20880F991F880F991F84579C4BFC01808144
S1132A309181A281B381892B8A2B8B2BF9F281E0BE
S1132A408983DCCF998181E08927882311F08FEF76
S1132A508B838B812596CDBFDEBFDF91CF91089507
S1132A60CF93DF9300D000D0CDB7DEB789839A83AC
S1132A706B837C8389819A810197B1F48B819C81DA
S1132A80019691F484E392E40E94DC1F8FE392E4C4
S1132A900E94153A64E670E080E492E40E94A21C6D
S1132AA08AE492E40E94512389819A81892B81F4DA
S1132AB08B819C81019661F48AE492E40E945E23F6
S1132AC080E492E40E94D61C8FE392E40E94223AAE
S1132AD000002496CDBFDEBFDF91CF910895CF9340
S1132AE0DF93CDB7DEB76FEF7FEF81E090E00E9418
S1132AF03015DF91CF910895CF93DF93CDB7DEB733
S1132B006FEF7FEF80E090E00E943015DF91CF916E
S1132B100895CF93DF93CDB7DEB78091BD429091F6
S1132B20BE42892B29F080E096E021E0FC01228757
S1132B300000DF91CF910895CF93DF93CDB7DEB737
S1132B4080E694E0FC01208980E694E0287FFC0183
S1132B50208B80E694E0FC01208980E694E02460E8
S1132B60FC01208B80E694E0FC01218980E694E05E
S1132B70287FFC01218B80E694E0FC01218980E61A
S1132B8094E02460FC01218B80E694E0FC0122891E
S1132B9080E694E0287FFC01228B80E694E0FC012F
S1132BA0228980E694E02460FC01228B80E694E094
S1132BB0FC01238980E694E0287FFC01238B80E6D6
S1132BC094E0FC01238980E694E02460FC01238BDB
S1132BD080E694E0FC01248980E694E0287FFC01EF
S1132BE0248B80E694E0FC01248980E694E0246050
S1132BF0FC01248B80E694E0FC01258980E694E0C6
S1132C00287FFC01258B80E694E0FC01258980E681
S1132C1094E02460FC01258B80E694E0FC01278984
S1132C2080E694E0287FFC01278B80E694E0FC0199
S1132C30278980E694E02460FC01278B80E694E0F9
S1132C40FC01208980E694E0277FFC01208B80E64C
S1132C5094E0FC01218980E694E0277FFC01218B2C
S1132C6080E694E0FC01228980E694E0277FFC0161
S1132C70228B80E694E0FC01238980E694E0277FA0
S1132C80FC01238B80E694E0FC01248980E694E037
S1132C90277FFC01248B80E694E0FC01258980E6F3
S1132CA094E0277FFC01258B80E694E0FC012789D2
S1132CB080E694E0277FFC01278B0000DF91CF9111
S1132CC00895CF93DF931F92CDB7DEB789838981AF
S1132CD08823D9F080EA90E021E8FC01208380E099
S1132CE096E02CE0FC01228380E096E023E0FC01E6
S1132CF0208380E096E021E0FC01248781E090E0DD
S1132D008093BD429093BE421AC080EA90E021E8CD
S1132D10FC01208380E096E02CE0FC01228380E02B
S1132D2096E027E0FC01208380E096E021E0FC01AE
S1132D30248781E090E08093BD429093BE420000DE
S1132D400F90DF91CF910895CF93DF931F92CDB76A
S1132D50DEB789830E949C1589810E946116000058
S1132D600F90DF91CF9108950F931F93CF93DF932B
S1132D7000D000D0CDB7DEB789839A836B837C8380
S1132D8089819A81019781F48B819C81019661F4F8
S1132D9000E014E029E536E440E050E06AEC72E437
S1132DA08CEB92E40E94CB3489819A81892B41F483
S1132DB08B819C81019621F48CEB92E40E94633513
S1132DC000002496CDBFDEBFDF91CF911F910F91FC
S1132DD00895CF93DF93CDB7DEB76FEF7FEF81E038
S1132DE090E00E94B416DF91CF910895CF93DF93C2
S1132DF0CDB7DEB76FEF7FEF80E090E00E94B416AE
S1132E00DF91CF910895CF93DF93CDB7DEB72597A8
S1132E10CDBFDEBF8B836C837D838B81882F90E055
S1132E20805F9B4F89839A838C819D81019759F49C
S1132E3089819A81FC018081282F286089819A8167
S1132E40FC0120830EC08C819D81892B51F48981E2
S1132E509A81FC018081282F277F89819A81FC0136
S1132E60208300002596CDBFDEBFDF91CF9108956A
S1132E70CF93DF9300D01F92CDB7DEB789836A83E7
S1132E807B838A819B8181309105E9F082309105B1
S1132E9081F1892B09F03DC080E090E0FC01808144
S1132EA0482F8981282F30E081E090E002C0880F0C
S1132EB0991F2A95E2F78095242F282380E090E03B
S1132EC0FC01208326C080E090E0FC018081482F33
S1132ED08981282F30E081E090E002C0880F991F9B
S1132EE02A95E2F7242F282B80E090E0FC01208330
S1132EF010C08981882F90E0805F9B4FFC01208166
S1132F008981882F90E0805F9B4F2860FC0120839B
S1132F10000000002396CDBFDEBFDF91CF9108955E
S1132F20CF93DF9300D0CDB7DEB789836A838A81DC
S1132F308823B1F080E090E0FC018181482F8981F1
S1132F40282F30E081E090E002C0880F991F2A9575
S1132F50E2F7242F282B80E090E0FC01218316C0A7
S1132F6080E090E0FC018181482F8981282F30E0A6
S1132F7081E090E002C0880F991F2A95E2F78095BE
S1132F80242F282380E090E0FC01218300000F908F
S1132F900F90DF91CF910895CF93DF93CDB7DEB734
S1132FA080E090E0FC018281DF91CF910895CF937E
S1132FB0DF9300D01F92CDB7DEB789836A837B830A
S1132FC08A819B8181309105E9F08230910581F1FC
S1132FD0892B09F03DC084E090E0FC018081482FFA
S1132FE08981282F30E081E090E002C0880F991F8A
S1132FF02A95E2F78095242F282384E090E0FC01B1
S1133000208326C084E090E0FC018081482F8981E0
S1133010282F30E081E090E002C0880F991F2A95A4
S1133020E2F7242F282B84E090E0FC01208310C0D9
S11330308981882F90E0805D9B4FFC0120818981EC
S1133040882F90E0805D9B4F2860FC012083000066
S113305000002396CDBFDEBFDF91CF910895CF93BB
S1133060DF9300D0CDB7DEB789836A838A81882352
S1133070B1F084E090E0FC018181482F8981282F00
S113308030E081E090E002C0880F991F2A95E2F7B2
S1133090242F282B84E090E0FC01218316C084E0D7
S11330A090E0FC018181482F8981282F30E081E064
S11330B090E002C0880F991F2A95E2F78095242F8B
S11330C0282384E090E0FC01218300000F900F90FE
S11330D0DF91CF910895CF93DF93CDB7DEB72597D6
S11330E0CDBFDEBF8B836C837D838B81882F90E083
S11330F0805B9B4F89839A838C819D81019759F4CE
S113310089819A81FC018081282F286089819A8194
S1133110FC0120830EC08C819D81892B51F489810F
S11331209A81FC018081282F277F89819A81FC0163
S1133130208300002596CDBFDEBFDF91CF91089597
S1133140CF93DF9300D01F92CDB7DEB789836A8314
S11331507B838A819B8181309105E9F082309105DE
S113316081F1892B09F03DC088E090E0FC01808169
S1133170482F8981282F30E081E090E002C0880F39
S1133180991F2A95E2F78095242F282388E090E060
S1133190FC01208326C088E090E0FC018081482F58
S11331A08981282F30E081E090E002C0880F991FC8
S11331B02A95E2F7242F282B88E090E0FC01208355
S11331C010C08981882F90E0805B9B4FFC01208197
S11331D08981882F90E0805B9B4F2860FC012083CD
S11331E0000000002396CDBFDEBFDF91CF9108958C
S11331F0CF93DF9300D0CDB7DEB789836A838A810A
S11332008823B1F088E090E0FC018181482F898116
S1133210282F30E081E090E002C0880F991F2A95A2
S1133220E2F7242F282B88E090E0FC01218316C0CC
S113323088E090E0FC018181482F8981282F30E0CB
S113324081E090E002C0880F991F2A95E2F78095EB
S1133250242F282388E090E0FC01218300000F90B4
S11332600F90DF91CF910895CF93DF9300D01F92F9
S1133270CDB7DEB789836A837B838A819B81813062
S11332809105E9F08230910581F1892B09F03DC067
S113329080E190E0FC018081482F8981282F30E073
S11332A081E090E002C0880F991F2A95E2F780958B
S11332B0242F282380E190E0FC01208326C080E1B4
S11332C090E0FC018081482F8981282F30E081E043
S11332D090E002C0880F991F2A95E2F7242F282B2B
S11332E080E190E0FC01208310C08981882F90E068
S11332F080579B4FFC0120818981882F90E0805763
S11333009B4F2860FC012083000000002396CDBF62
S1133310DEBFDF91CF910895CF93DF9300D0CDB777
S1133320DEB789836A838A818823B1F080E190E0E3
S1133330FC018181482F8981282F30E081E090E0D1
S113334002C0880F991F2A95E2F7242F282B80E1C9
S113335090E0FC01218316C080E190E0FC018181B2
S1133360482F8981282F30E081E090E002C0880F47
S1133370991F2A95E2F78095242F282380E190E075
S1133380FC01218300000F900F90DF91CF910895ED
S1133390CF93DF93CDB7DEB72597CDBFDEBF8B8349
S11333A06C837D838B81882F90E080559B4F89832C
S11333B09A838C819D81019759F489819A81FC01BA
S11333C08081282F286089819A81FC0120830EC086
S11333D08C819D81892B51F489819A81FC018081A2
S11333E0282F277F89819A81FC012083000025965C
S11333F0CDBFDEBFDF91CF910895CF93DF9300D08F
S11334001F92CDB7DEB789836A837B838A819B81D0
S113341081309105E9F08230910581F1892B09F021
S11334203DC084E190E0FC018081482F8981282FF0
S113343030E081E090E002C0880F991F2A95E2F7FE
S11334408095242F282384E190E0FC01208326C06A
S113345084E190E0FC018081482F8981282F30E0AD
S113346081E090E002C0880F991F2A95E2F7242F8B
S1133470282B84E190E0FC01208310C08981882FEF
S113348090E080559B4FFC0120818981882F90E03A
S113349080559B4F2860FC01208300000000239688
S11334A0CDBFDEBFDF91CF910895CF93DF9300D0DE
S11334B0CDB7DEB789836A838A818823B1F084E13A
S11334C090E0FC018181482F8981282F30E081E040
S11334D090E002C0880F991F2A95E2F7242F282B29
S11334E084E190E0FC01218316C084E190E0FC01BA
S11334F08181482F8981282F30E081E090E002C04B
S1133500880F991F2A95E2F78095242F282384E1B8
S113351090E0FC01218300000F900F90DF91CF9188
S11335200895CF93DF93CDB7DEB784E190E0FC013B
S11335308281DF91CF910895CF93DF93CDB7DEB72A
S11335408091C3428093C4428091C2428093C3421B
S11335508091C0428093C1428091BF428093C04217
S11335600E94CC178093BF420E94911A8093C2425A
S11335709091BF428091C54298272091C04280918A
S1133580C542822798232091C1428091C542822757
S113359098238091C54289278093C5429091C24265
S11335A08091C64298272091C3428091C6428227C7
S11335B098232091C4428091C64282279823809107
S11335C0C64289278093C6420000DF91CF910895B7
S11335D0CF93DF93CDB7DEB78091C542DF91CF9112
S11335E00895CF93DF93CDB7DEB760E070E080E05D
S11335F00E94381761E070E080E00E94031760E0E9
S113360070E081E00E94381761E070E081E00E9480
S1133610031760E070E082E00E94381761E070E018
S113362082E00E94031761E070E083E00E94381793
S113363061E083E00E94901760E070E084E00E9403
S1133640381761E070E084E00E94031761E070E0E5
S113365085E00E94381760E085E00E94901761E0E1
S113366070E086E00E94381760E086E00E949017C0
S113367061E070E087E00E94381761E087E00E9413
S1133680901761E070E084E00E94D71761E084E065
S11336900E942F1860E070E082E00E94A01861E0B0
S11336A070E082E00E946B1860E070E083E00E94AA
S11336B0A01861E070E083E00E946B1861E070E0A4
S11336C084E00E94A01860E084E00E94F81861E0A1
S11336D070E085E00E94A01860E085E00E94F81880
S11336E060E070E080E00E94341960E070E081E006
S11336F00E94341961E070E082E00E94341960E0B5
S113370082E00E948C1960E070E083E00E9434192A
S113371062E070E080E00E94FD1962E070E081E008
S11337200E94FD1960E070E082E00E94FD1961E0F2
S113373070E082E00E94C81960E070E083E00E94BB
S1133740FD1960E070E084E00E94FD1960E070E023
S113375085E00E94FD1961E070E085E00E94C819CF
S113376062E070E086E00E94FD1980EA94E0FC01CA
S1133770238980EA94E02160FC01238B80EA94E0B1
S1133780FC01248980EA94E02160FC01248B80EA16
S113379094E028E1FC0121870000DF91CF91089596
S11337A0CF93DF93CDB7DEB760E070E080E00E9496
S11337B0381760E070E080E00E94031760E070E07A
S11337C081E00E94381760E070E081E00E940317F6
S11337D060E070E082E00E94381760E070E082E010
S11337E00E94031761E070E083E00E94381760E0F4
S11337F083E00E94901760E070E084E00E94381734
S113380060E070E084E00E94031761E070E085E00E
S11338100E94381760E085E00E94901761E070E034
S113382086E00E94381760E086E00E94901761E00D
S113383070E087E00E94381761E087E00E949017EB
S113384061E070E084E00E94D71760E084E00E94A9
S11338502F1860E070E082E00E94A01861E070E040
S113386082E00E946B1860E070E083E00E94A01880
S113387061E070E083E00E946B1861E070E084E036
S11338800E94A01860E084E00E94F81861E070E0F3
S113389085E00E94A01860E085E00E94F81860E0CE
S11338A070E080E00E94341960E070E081E00E94E2
S11338B0341961E070E082E00E94341960E082E033
S11338C00E948C1960E070E083E00E94341962E089
S11338D070E080E00E94FD1962E070E081E00E94E7
S11338E0FD1961E070E082E00E94FD1960E082E071
S11338F00E94551A60E070E083E00E94FD1960E0C8
S113390070E084E00E94FD1961E070E085E00E94AF
S1133910FD1960E085E00E94551A62E070E086E0DF
S11339200E94FD190000DF91CF910895CF93DF939A
S1133930CDB7DEB780E890E0FC01118680E0DF912E
S1133940CF910895CF93DF9300D000D0CDB7DEB7E9
S113395089839A836B837C838B819C810E9413511E
S11339609C0189819A81FC012583368389819A810E
S11339702B813C81FC012783308789819A81FC015A
S11339801082118289819A81FC01128213828981B9
S11339909A81FC01148289819A81FC0111860000BC
S11339A02496CDBFDEBFDF91CF910895CF93DF93EF
S11339B000D0CDB7DEB789839A8389819A81FC01CF
S11339C0858196810E94AF5100000F900F90DF9186
S11339D0CF910895CF93DF9300D0CDB7DEB789831D
S11339E09A8389819A81FC012281338189819A8118
S11339F0FC012083318389819A81FC0114828981AD
S1133A009A81FC01118600000F900F90DF91CF91F5
S1133A100895CF93DF9300D0CDB7DEB789839A831F
S1133A2089819A81FC01948181E08927882379F036
S1133A3089819A81FC012081318189819A81FC01EB
S1133A40828193812817390711F481E001C080E055
S1133A500F900F90DF91CF910895CF93DF9300D013
S1133A60CDB7DEB789839A8389819A81FC018781E6
S1133A7090850F900F90DF91CF910895CF93DF93AE
S1133A8000D000D0CDB7DEB78B839C838B819C8123
S1133A90FC018781908589839A838B819C81FC01B9
S1133AA0948181E08927882399F18B819C81FC0191
S1133AB0208131818B819C81FC0182819381281733
S1133AC039078CF08B819C81FC01208131818B81B1
S1133AD09C81FC0182819381A901481B590BCA0175
S1133AE089839A8315C08B819C81FC018781908591
S1133AF02B813C81F90120813181820F931F2B811D
S1133B003C81F90122813381821B930B89839A833F
S1133B1089819A812496CDBFDEBFDF91CF9108952C
S1133B200F931F93CF93DF9300D000D0CDB7DEB7B0
S1133B308B839C8319821A828B819C81FC019481E2
S1133B4081E08927882379F08B819C810E942D1D37
S1133B508C018B819C810E943E1D9801281B390B8E
S1133B60C90189839A8389819A812496CDBFDEBF56
S1133B70DF91CF911F910F910895CF93DF9300D0E0
S1133B801F92CDB7DEB789839A836B8389819A812B
S1133B90FC018581968129813A81F9012081318155
S1133BA0820F931F2B81FC01208389819A81FC0160
S1133BB084818823B1F089819A81FC018281938177
S1133BC00196AC0189819A81FC0127813085CA0163
S1133BD0B9010E94BA509C0189819A81FC01228317
S1133BE0338389819A81FC01808191810196AC01A2
S1133BF089819A81FC0127813085CA01B9010E941B
S1133C00BA509C0189819A81FC0120833183898186
S1133C109A81FC012081318189819A81FC01828110
S1133C20938141E02817390709F040E089819A819E
S1133C30FC01448300002396CDBFDEBFDF91CF910A
S1133C400895CF93DF9300D01F92CDB7DEB78A8358
S1133C509B838A819B810E94091D882311F080E047
S1133C602AC08A819B81FC01858196812A813B81BE
S1133C70F90122813381820F931FFC0180818983A2
S1133C808A819B81FC0114828A819B81FC0182814F
S1133C9093810196AC018A819B81FC012781308547
S1133CA0CA01B9010E94BA509C018A819B81FC011E
S1133CB02283338389812396CDBFDEBFDF91CF91E9
S1133CC00895CF93DF93CDB7DEB72897CDBFDEBF7E
S1133CD08D839E836F83788781E08C838D819E8121
S1133CE0FC018481882311F08C8148C08F819885E0
S1133CF00E9438528A839B838D819E810E94901DED
S1133D009C0141E08A819B812817390708F040E033
S1133D10442311F08C8132C019828981882F90E06C
S1133D202A813B8182179307C0F48D819E81FC0117
S1133D308481882391F4898191E0980F9983882F55
S1133D4090E02F813885820F931FFC0120818D81A3
S1133D509E81622F0E94BD1DE0CF8D819E81FC015A
S1133D60948181E08927882329F08D819E8160E0F8
S1133D700E94BD1D8D819E81FC0184812896CDBF4A
S1133D80DEBFDF91CF910895CF93DF93CDB7DEB738
S1133D902897CDBFDEBF8B839C836D837E834F8347
S1133DA058878B819C810E94091D882371F08D8125
S1133DB09E81FC0110828F819885892B79F18F81F6
S1133DC09885FC011082118229C019828B819C8103
S1133DD00E94211E8A8381E09A81992309F480E05C
S1133DE0882371F0898191E0980F9983882F90E05E
S1133DF02D813E81820F931F2A81FC012083E6CF0F
S1133E008F819885892B61F08981282F30E08F81FB
S1133E109885FC0120833183000002C0000001C0AA
S1133E2000002896CDBFDEBFDF91CF910895CF93D8
S1133E30DF9300D01F92CDB7DEB789839A836B835B
S1133E4089819A814B8168ED0E948C3E0000239603
S1133E50CDBFDEBFDF91CF910895CF93DF93CDB770
S1133E60DEB765E88CE790E00E94171F65E288E6FC
S1133E7090E00E94171F80E0DF91CF910895CF93C7
S1133E80DF93CDB7DEB7789480E0DF91CF910895CA
S1133E90CF93DF93CDB7DEB780EA90E021E8FC0151
S1133EA022830000DF91CF910895CF93DF93CDB7A4
S1133EB0DEB70E94481F80E694E0FC01268980E674
S1133EC094E0287FFC01268B80E694E0FC0126899F
S1133ED080E694E02460FC01268B80E694E0FC01FB
S1133EE0268980E694E0277FFC01268B80EA96E011
S1133EF021E4FC0120830000DF91CF910895CF934A
S1133F00DF9300D0CDB7DEB789839A83298180EA15
S1133F1096E02295220F220F207CFC0122838981C6
S1133F209A819C01369527953695279580EA96E0E7
S1133F30FC01238300000F900F90DF91CF9108952F
S1133F40CF93DF9300D0CDB7DEB789836A838A81AC
S1133F508823B1F084E090E0FC018181482F8981BD
S1133F60282F30E081E090E002C0880F991F2A9545
S1133F70E2F7242F282B84E090E0FC01218316C073
S1133F8084E090E0FC018181482F8981282F30E072
S1133F9081E090E002C0880F991F2A95E2F780958E
S1133FA0242F282384E090E0FC01218300000F905B
S1133FB00F90DF91CF910895CF93DF9300D0CDB7C9
S1133FC0DEB789839A8322E931E489819A81FC01ED
S1133FD02083318389819A8128E7FC0126830000AC
S1133FE00F900F90DF91CF910895CF93DF9300D07E
S1133FF000D0CDB7DEB789839A836B837C838981B4
S11340009A812B813C81FC01228333838B819C81A7
S11340108130910581F082309105C1F0892B09F539
S113402089819A8124E1FC01248389819A8124E095
S1134030FC01258316C089819A8120E1FC01248337
S113404089819A8124E0FC0125830BC089819A81AE
S11340502AE0FC01248389819A8124E0FC012583E0
S1134060000089819A8120E8FC01218789819A8155
S113407024E0FC0122870E94F83789819A810E94FA
S1134080602089819A810E94872089819A810E9477
S1134090042189819A8122E0FC01278389819A8104
S11340A0FC018781282F246089819A81622F0E94D4
S11340B06E2100002496CDBFDEBFDF91CF9108951D
S11340C0CF93DF9300D0CDB7DEB789839A8362E3C1
S11340D070E080E090E00E94984A60E084E00E94F2
S11340E0A01F64E070E080E090E00E94984A61E0E4
S11340F084E00E94A01F64E170E080E090E00E94F0
S1134100984A00000F900F90DF91CF910895CF93BC
S1134110DF9300D0CDB7DEB789839A8389819A81F2
S11341206AE30E946E2189819A8169E00E946E216E
S113413089819A8166E00E946E2189819A816EE16B
S11341400E946E2189819A8169E30E946E2189818E
S11341509A816BE10E946E2189819A81FC0182819E
S1134160938181309105A9F08230910511F1892B59
S113417081F589819A816EE60E946E2189819A81F6
S113418067E50E946E2189819A8162E70E946E210F
S113419020C089819A816CE60E946E2189819A816E
S11341A066E50E946E2189819A816BE60E946E21E8
S11341B010C089819A816EE60E946E2189819A815C
S11341C066E50E946E2189819A816AE70E946E21C8
S11341D0000089819A8168E30E946E2189819A8115
S11341E024E0FC01208789819A81FC018085282FA5
S11341F0286089819A81622F0E946E2100000F90AD
S11342000F90DF91CF910895CF93DF9300D0CDB776
S1134210DEB789839A8389819A8161E00E946E2145
S113422000000F900F90DF91CF910895CF93DF930B
S113423000D000D0CDB7DEB789839A836B834C83DB
S113424089819A81FC018185282F8B81982F9295F1
S1134250990F907E8C81890F822B282F89819A81D6
S1134260622F0E946E2100002496CDBFDEBFDF9135
S1134270CF910895CF93DF9300D01F92CDB7DEB7CF
S113428089839A836B8389819A816B810E949021AF
S113429081E090E02396CDBFDEBFDF91CF910895FA
S11342A0CF93DF93CDB7DEB72697CDBFDEBF89832B
S11342B09A836B837C834D835E834D815E812B81E6
S11342C03C8189819A81B9010E94B2218D819E81AC
S11342D02696CDBFDEBFDF91CF910895CF93DF93B4
S11342E0CDB7DEB72597CDBFDEBF8B839C836D83AF
S11342F08D8189838B819C8121E0AE014F5F5F4F6B
S113430060E00E94D421882319F080EE90E002C07E
S113431080E090E02596CDBFDEBFDF91CF91089578
S1134320CF93DF93CDB7DEB72597CDBFDEBF8B83A9
S11343309C836D838D8189838B819C8121E0AE0177
S11343404F5F5F4F60E40E94D421882319F080EE10
S113435090E002C080E090E02596CDBFDEBFDF9103
S1134360CF910895CF93DF93CDB7DEB72697CDBF16
S1134370DEBF89839A836B837C834D835E832D8127
S11343804B815C8189819A8160E40E94D4218823D5
S113439019F080EE90E002C080E090E02696CDBF58
S11343A0DEBFDF91CF910895CF93DF93CDB7DEB712
S11343B02897CDBFDEBF8B839C836D834E835F8341
S11343C0288785E0898389819FEF980F99838823C3
S11343D0C1F08B819C81FC0136818E819F8128856F
S11343E0AC016D81832F0E94C838282F81E0988505
S11343F0921709F480E08A838A81882311F081E08E
S113440001C080E0882309F0DECF8A812896CDBFE1
S1134410DEBFDF91CF910895CF93DF9300D01F9239
S1134420CDB7DEB789836A837B838A819B818130A0
S11344309105E9F08230910581F1892B09F03DC0A5
S113444088E090E0FC018081482F8981282F30E0AA
S113445081E090E002C0880F991F2A95E2F78095C9
S1134460242F282388E090E0FC01208326C088E0E4
S113447090E0FC018081482F8981282F30E081E081
S113448090E002C0880F991F2A95E2F7242F282B69
S113449088E090E0FC01208310C08981882F90E09F
S11344A0805B9B4FFC0120818981882F90E0805B99
S11344B09B4F2860FC012083000000002396CDBFA1
S11344C0DEBFDF91CF910895CF93DF9300D0CDB7B6
S11344D0DEB789836A838A818823B1F088E090E01B
S11344E0FC018181482F8981282F30E081E090E010
S11344F002C0880F991F2A95E2F7242F282B88E001
S113450090E0FC01218316C088E090E0FC018181E9
S1134510482F8981282F30E081E090E002C0880F85
S1134520991F2A95E2F78095242F282388E090E0AC
S1134530FC01218300000F900F90DF91CF9108952B
S1134540CF93DF9300D0CDB7DEB789839A83898177
S11345509A81BC0185E00E940C2200000F900F900C
S1134560DF91CF910895CF93DF9300D0CDB7DEB71D
S113457089839A8389819A81BC0184E00E940C22F8
S113458000000F900F90DF91CF910895CF93DF93A8
S11345901F92CDB7DEB78983698185E00E946422CA
S11345A000000F90DF91CF910895CF93DF931F9276
S11345B0CDB7DEB78983698184E00E94642200005C
S11345C00F90DF91CF910895CF93DF9300D0CDB7B3
S11345D0DEB719828981883098F48981882F90E028
S11345E0805F9B4FFC0120818981882F90E0805F50
S11345F09B4F2860FC01208389818F5F8983EACFE8
S11346001A828A81883098F48A81882F90E0805DAC
S11346109B4FFC0120818A81882F90E0805D9B4F15
S11346202860FC0120838A818F5F8A83EACF00009F
S11346300F900F90DF91CF910895CF93DF93CDB773
S1134640DEB70E94E4220E942D1F0E948E490E9420
S11346502E4A0E94F11A0E943F1F0E94DA480E94CB
S1134660961C0000DF91CF910895CF93DF93CDB7CF
S1134670DEB70E94E4220E94054C0E94D01B81E018
S113468090E00E94A02280E00E94C62281E090E097
S11346900E94B32280E00E94D5220000DF91CF91D6
S11346A00895CF93DF9300D0CDB7DEB789839A8383
S11346B000000F900F90DF91CF910895CF93DF9377
S11346C000D0CDB7DEB789839A8300000F900F9096
S11346D0DF91CF910895CF93DF9300D01F92CDB790
S11346E0DEB789839A836B8380E090E1FC01828149
S11346F0882F90E08270992721E0892B09F420E02B
S1134700222309F0F1CF8DE993E184BF9093001047
S113471089819A819C5E2B81FC0120838DE990E044
S113472084BF9093001000002396CDBFDEBFDF91BD
S1134730CF910895CF93DF9300D000D0CDB7DEB7EB
S113474089839A836B837C8380E090E1FC0182817E
S1134750882F90E08270992721E0892B09F420E0CA
S1134760222309F0F1CF8DE993E184BF90930010E7
S113477089819A819C5E9C018B819C81F901808353
S113478091838DE990E084BF9093001000002496FB
S1134790CDBFDEBFDF91CF910895CF93DF93CDB727
S11347A0DEB72697CDBFDEBF89839A834B835C83B4
S11347B06D837E8380E090E1FC018281882F90E00C
S11347C08270992721E0892B09F420E0222309F043
S11347D0F1CF8DE993E184BF9093001089819A8190
S11347E09C5E9C018B819C81AD81BE81F90180839B
S11347F09183A283B3838DE990E084BF90930010EA
S113480000002696CDBFDEBFDF91CF910895CF93F0
S1134810DF93CDB7DEB72697CDBFDEBF89839A83FA
S11348204B835C836D837E8380E090E1FC01828115
S1134830882F90E08270992721E0892B09F420E0E9
S1134840222309F0F1CF8DE993E184BF9093001006
S113485089819A819C5E9C018B819C81AD81BE8102
S1134860F90180839183A283B3838DE990E084BFAF
S11348709093001000002696CDBFDEBFDF91CF914C
S11348800895CF92DF92EF92FF920F931F93CF93ED
S1134890DF93CDB7DEB7E497CDBFDEBF8FA798AB6C
S11348A069AB7AAB4BAB5CAB8BA99CA9892B09F4A4
S11348B022C589A99AA98D3A910509F42CC28E3A88
S11348C091050CF057C08837910509F44EC2893719
S11348D091053CF58631910509F427C1873191058D
S11348E064F48630910509F463C38E30910509F4AC
S11348F080C3892B09F413C43BC58A34910509F498
S1134900D0C08B34910524F4C09709F452C130C54A
S11349108436910509F491C18237910509F410C2D6
S113492027C58039910509F485C3813991056CF453
S11349308438910509F443C28A38910509F454C2B4
S11349408E37910509F426C213C58D39910509F4F2
S113495090C08E3991052CF48539910509F468C00D
S113496007C5833A910509F4ACC1883A910509F465
S1134970BDC1FEC4883E910509F4D8C2893E9105A3
S11349804CF5843C910509F4B2C3853C91056CF463
S1134990883B910509F47BC38E3B910509F48FC3D1
S11349A0823B910509F45BC3E3C4803D910509F49E
S11349B05AC2813D91052CF48A3C910509F43EC20A
S11349C0D7C4883D910509F46FC2803E910509F46E
S11349D08CC2CEC4853021E0920709F4DCC3863052
S11349E0E1E09E076CF4883F910509F412C28D3F03
S11349F0910509F4ACC3803F910509F4B8C2B8C469
S1134A008031F1E09F0709F4F3C3813121E092077B
S1134A102CF48B30914009F4D6C3AAC48231F1E05E
S1134A209F0709F4FCC38236914009F44FC4A0C423
S1134A308BA99CA9FC01C080D180E280F38085E928
S1134A4090E00E944B55DC01CB01C816D906EA065A
S1134A50FB0609F452C48BA99CA9FC0180819181B5
S1134A60A281B381AC01BD0185E990E00E94CD2310
S1134A7044C48BA99CA9FC01008111818DE990E0BB
S1134A800E9452550817190709F439C48BA99CA927
S1134A90FC0180819181BC018DE990E00E949A2300
S1134AA02EC419821A828BA99CA98B839C838B8127
S1134AB09C819C012F5F3F4F2B833C83FC018081B1
S1134AC08D838AE490E08E839F838D81882339F1DE
S1134AD089819A8144971CF58E819F810E94435558
S1134AE08CA79D818CA5981729F08E819F816D815B
S1134AF00E946B2389819A81019689839A838B8191
S1134B009C819C012F5F3F4F2B833C83FC01808160
S1134B108D838E819F8101968E839F83D6CF8E81D4
S1134B209F8160E00E946B2323C4188619868BA999
S1134B309CA98A879B878A859B859C012F5F3F4F11
S1134B402A873B87FC0180818C8786E190E08D87F2
S1134B509E878C85882339F18885998544971CF52F
S1134B608D859E850E9443558EA79C858EA598179A
S1134B7029F08D859E856C850E946B238885998597
S1134B800196888799878A859B859C012F5F3F4F73
S1134B902A873B87FC0180818C878D859E850196C1
S1134BA08D879E87D6CF8D859E8560E00E946B237E
S1134BB0DFC31F86188A8BA99CA9898B9A8B898944
S1134BC09A899C012F5F3F4F298B3A8BFC0180818E
S1134BD08B8B80E390E08C8B9D8B8B89882339F1C0
S1134BE08F85988944971CF58C899D890E9443552B
S1134BF08DA79B898DA5981729F08C899D896B8930
S1134C000E946B238F85988901968F87988B898959
S1134C109A899C012F5F3F4F298B3A8BFC0180813D
S1134C208B8B8C899D8901968C8B9D8BD6CF8C899F
S1134C309D8960E00E946B239BC31E8A1F8A8BA9F7
S1134C409CA9888F998F888D998D9C012F5F3F4FE8
S1134C50288F398FFC0180818A8F84E690E08B8FC6
S1134C609C8F8A8D882339F18E899F8908971CF53A
S1134C708B8D9C8D0E9443558BA79A8D8BA598177D
S1134C8029F08B8D9C8D6A8D0E946B238E899F8960
S1134C9001968E8B9F8B8B8D9C8D01968B8F9C8F19
S1134CA0888D998D9C012F5F3F4F288F398FFC0190
S1134CB080818A8FD6CF8B8D9C8D60E00E946B2380
S1134CC057C38BA99CA9FC01108183EA90E00E9440
S1134CD04355181709F415C38BA99CA9FC018081BD
S1134CE0682F83EA90E00E946B230BC38BA99CA9D5
S1134CF0FC01108188EA90E00E944355181709F4DA
S1134D0002C38BA99CA9FC018081682F88EA90E0EA
S1134D100E946B23F8C28BA99CA9FC0110818DEA27
S1134D2090E00E944355181709F4EFC28BA99CA97F
S1134D30FC018081682F8DEA90E00E946B23E5C21C
S1134D408BA99CA9FC01108182E790E00E94435545
S1134D50181709F4DCC28BA99CA9FC018081682F77
S1134D6082E790E00E946B23D2C28BA99CA9FC012C
S1134D70108188E790E00E944355181709F4C9C2CE
S1134D808BA99CA9FC018081682F88E790E00E9490
S1134D906B23BFC28BA99CA9FC0110818EE790E014
S1134DA00E944355181709F4B6C28BA99CA9FC01AB
S1134DB08081682F8EE790E00E946B23ACC28BA9A0
S1134DC09CA9FC01108184E890E00E9443551817C7
S1134DD009F4A3C28BA99CA9FC018081682F84E8F3
S1134DE090E00E946B2399C28BA99CA9FC011081BD
S1134DF08AE890E00E944355181709F490C28BA9E1
S1134E009CA9FC018081682F8AE890E00E946B23B2
S1134E1086C28BA99CA9FC01108188EF90E00E94B6
S1134E204355181709F47DC28BA99CA9FC01808104
S1134E30682F88EF90E00E946B2373C28BA99CA912
S1134E40FC0110818AEC90E00E944355181709F484
S1134E506AC28BA99CA9FC018081682F8AEC90E02E
S1134E600E946B2360C28BA99CA9FC01C080D180E5
S1134E70E280F38080ED90E00E944B55DC01CB0191
S1134E80C816D906EA06FB0609F44FC28BA99CA9E9
S1134E90FC0180819181A281B381AC01BD0180EDCF
S1134EA090E00E94CD2341C28BA99CA9FC01C08043
S1134EB0D180E280F38088ED90E00E944B55DC01C4
S1134EC0CB01C816D906EA06FB0609F430C28BA941
S1134ED09CA9FC0180819181A281B381AC01BD01B7
S1134EE088ED90E00E94CD2322C28BA99CA9FC01ED
S1134EF0C080D180E280F38080EE90E00E944B5528
S1134F00DC01CB01C816D906EA06FB0609F411C276
S1134F108BA99CA9FC0180819181A281B381AC0100
S1134F20BD0180EE90E00E94CD2303C28BA99CA911
S1134F30FC01C080D180E280F38088EE90E00E9482
S1134F404B55DC01CB01C816D906EA06FB0609F469
S1134F50F2C18BA99CA9FC0180819181A281B381BA
S1134F60AC01BD0188EE90E00E94CD23E4C18BA981
S1134F709CA9FC01C080D180E280F38080EF90E0A6
S1134F800E944B55DC01CB01C816D906EA06FB0684
S1134F9009F4D3C18BA99CA9FC0180819181A281D0
S1134FA0B381AC01BD0180EF90E00E94CD23C5C167
S1134FB08BA99CA9FC01C080D180E280F38086E0AB
S1134FC090E00E944B55DC01CB01C816D906EA06D5
S1134FD0FB0609F4B4C18BA99CA9FC0180819181D1
S1134FE0A281B381AC01BD0186E090E00E94CD2393
S1134FF0A6C18BA99CA9FC01C080D180E280F3806A
S11350008EE090E00E944B55DC01CB01C816D90616
S1135010EA06FB0609F495C18BA99CA9FC018081D1
S11350209181A281B381AC01BD018EE090E00E9428
S1135030CD2387C18BA99CA9FC01108180E990E054
S11350400E944355181709F47EC18BA99CA9FC0141
S11350508081682F80E990E00E946B2374C18BA942
S11350609CA9FC010081118182EB90E00E945255C1
S11350700817190709F469C18BA99CA9FC0180814F
S11350809181BC0182EB90E00E949A235EC18BA9BE
S11350909CA9FC010081118188EB90E00E9452558B
S11350A00817190709F453C18BA99CA9FC01808135
S11350B09181BC0188EB90E00E949A2348C18BA99E
S11350C09CA9FC01008111818EEB90E00E94525555
S11350D00817190709F43DC18BA99CA9FC0180811B
S11350E09181BC018EEB90E00E949A2332C18BA97E
S11350F09CA9FC010081118184EC90E00E9452552E
S11351000817190709F427C18BA99CA9FC01808100
S11351109181BC0184EC90E00E949A231CC18BA96C
S11351209CA9FC010081118180E090E00E9452550D
S11351300817190709F411C18BA99CA9FC018081E6
S11351409181BC0180E090E00E949A2306C18BA962
S11351509CA9FC01C080D180E280F3808DEF90E0B7
S11351600E944B55DC01CB019C01AD01C701B60186
S11351700E94EC4D882309F4FBC08BA99CA9FC0177
S113518080819181A281B381AC01BD018DEF90E05A
S11351900E940724EDC08BA99CA9FC010081118108
S11351A085E091E00E9452550817190709F4D7C009
S11351B08BA99CA9FC0180819181BC0185E091E0CF
S11351C00E949A23CCC08BA99CA9FC0110818BE07E
S11351D091E00E944355181709F4C3C08BA99CA9F8
S11351E0FC018081682F8BE091E00E946B23B9C0A1
S11351F08BA99CA9FC010081118180E191E00E94AE
S113520052550817190709F4AEC08BA99CA9FC01D3
S11352108081682F80E191E00E946B23A4C01D8EE1
S11352201E8E8BA99CA98F8F98A38F8D98A1FC01AA
S113523080819181A281B38189A39AA3ABA3BCA3EA
S113524082E191E08DA39EA38D8D9E8D44970CF0F9
S11352508CC08DA19EA10E944B55DC01CB018FA374
S113526098A7A9A7BAA729A13AA14BA15CA18FA18C
S113527098A5A9A5BAA5281739074A075B0759F0C5
S113528089A19AA1ABA1BCA12DA13EA1AC01BD01F4
S1135290C9010E94CD238D8D9E8D01968D8F9E8F89
S11352A08F8D98A104968F8F98A38F8D98A1FC0160
S11352B080819181A281B38189A39AA3ABA3BCA36A
S11352C08DA19EA104968DA39EA3BECF8BA99CA95C
S11352D0FC01108182E691E00E944355181709F4FD
S11352E046C08BA99CA9FC018081682F82E691E0CD
S11352F00E946B233CC000003BC0000039C000008A
S113530037C0000035C0000033C0000031C00000C9
S11353102FC000002DC000002BC0000029C00000D9
S113532027C0000025C0000023C0000021C00000E9
S11353301FC000001DC000001BC0000019C00000F9
S113534017C0000015C0000013C0000011C0000009
S11353500FC000000DC000000BC0000009C0000019
S113536007C0000005C0000003C0000001C0000029
S1135370E496CDBFDEBFDF91CF911F910F91FF90D7
S1135380EF90DF90CF900895CF93DF9300D0CDB707
S1135390DEB789839A8389819A8144E253E463EA7C
S11353A070E00E94412489819A8146E250E462E7D8
S11353B070E00E94412489819A8148E250E468E7C0
S11353C070E00E94412489819A814AE250E46EE7A8
S11353D070E00E94412489819A814CE250E464E89F
S11353E070E00E94412489819A814EE250E46AE887
S11353F070E00E94412489819A8147ED52E46AEC6D
S113540070E00E94412489819A814EE350E460ED6A
S113541070E00E94412489819A8142E450E468ED5D
S113542070E00E94412489819A8146E450E460EE50
S113543070E00E94412489819A814AE450E468EE34
S113544070E00E94412489819A814EE450E460EF27
S113545070E00E94412489819A814AE153E466E024
S113546070E00E94412489819A814EE153E46EE008
S113547070E00E94412489819A8148EC52E460E9F9
S113548070E00E94412489819A814BED52E466E1E7
S113549070E00E94412489819A8140EF52E460E3E4
S11354A070E00E94412489819A8145E053E46AE4D2
S11354B070E00E94412489819A8149EC52E464E6B7
S11354C070E00E94412489819A8143ED52E465E9A8
S11354D070E00E94412489819A8142E253E46DE99B
S11354E070E00E94412489819A8145E253E468EA8C
S11354F070E00E94412489819A8146E253E46DEA76
S113550070E00E94412489819A8147E253E462EB6E
S113551070E00E94412489819A8149E253E468EB56
S113552070E00E94412489819A814BE253E46EEB3E
S113553070E00E94412489819A814DE253E464EC35
S113554070E00E94412489819A814FE253E46DEF17
S113555070E00E94412489819A8148E350E465E027
S113556071E00E94412489819A8143E353E46BE012
S113557071E00E94412489819A8144E353E460E10B
S113558071E00E94412489819A814CE853E462E1EC
S113559071E00E94412489819A8149ED52E462E6D6
S11355A071E00E94412400000F900F90DF91CF9191
S11355B008950F931F93CF93DF93CDB7DEB7C459EC
S11355C0D109CDBFDEBF9E012D563F4FF901808327
S11355D09183CE018E569F4F21E0FC01208380E011
S11355E090E00E94525588879987888599858930EB
S11355F0914009F0D4C61092C74283EA90E00E9419
S113560043558A8785E08B8784E18C879A858C85CE
S1135610891740F09A858B85981710F48B8503C001
S11356208A8501C08C85809324438AEC90E00E9493
S11356304355882F90E08093D7429093D84280EDD1
S113564090E00E944B55DC01CB018D879E87AF878C
S1135650B88B80EE97E6A5E3B0E0898B9A8BAB8B91
S1135660BC8B80E099E0ADE3B0E08D8B9E8BAF8B7B
S1135670B88F2D853E854F8558898D899E89AF8940
S1135680B88D82179307A407B507B8F02D853E851A
S11356904F85588989899A89AB89BC892817390724
S11356A04A075B0728F489899A89AB89BC8909C0B0
S11356B08D859E85AF85B88904C08D899E89AF8903
S11356C0B88D80933E4090933F40A0934040B09368
S11356D0414088ED90E00E944B55DC01CB01898F5D
S11356E09A8FAB8FBC8F80EE97E6A5E3B0E08D8FE9
S11356F09E8FAF8FB8A380E099E0ADE3B0E089A3BB
S11357009AA3ABA3BCA3298D3A8D4B8D5C8D89A143
S11357109AA1ABA1BCA182179307A407B507B8F05F
S1135720298D3A8D4B8D5C8D8D8D9E8DAF8DB8A15D
S1135730281739074A075B0728F48D8D9E8DAF8D96
S1135740B8A109C0898D9A8DAB8DBC8D04C089A187
S11357509AA1ABA1BCA18093424090934340A093F3
S11357604440B093454080EE90E00E944B55DC01EC
S1135770CB018DA39EA3AFA3B8A780EE97E6A5E3C4
S1135780B0E089A79AA7ABA7BCA780E099E0ADE3F6
S1135790B0E08DA79EA7AFA7B8AB2DA13EA14FA1A6
S11357A058A58DA59EA5AFA5B8A982179307A407F0
S11357B0B507B8F02DA13EA14FA158A589A59AA57A
S11357C0ABA5BCA5281739074A075B0728F489A5A8
S11357D09AA5ABA5BCA509C08DA19EA1AFA1B8A5F2
S11357E004C08DA59EA5AFA5B8A98093464090930B
S11357F04740A0934840B093494088EE90E00E940F
S11358004B55DC01CB0189AB9AABABABBCAB80EEA7
S113581097E6A5E3B0E08DAB9EABAFABB8AF80E04D
S113582099E0ADE3B0E089AF9AAFABAFBCAF29A9C3
S11358303AA94BA95CA989AD9AADABADBCAD8217B1
S11358409307A407B507B8F029A93AA94BA95CA9FD
S11358508DA99EA9AFA9B8AD281739074A075B07D8
S113586028F48DA99EA9AFA9B8AD09C089A99AA9A0
S1135870ABA9BCA904C089AD9AADABADBCAD809356
S11358804A4090934B40A0934C40B0934D4080EFDE
S113589090E00E944B55DC01CB019E01235C3F4FFD
S11358A0F90180839183A283B3839E012F5B3F4FD1
S11358B080EE97E6A5E3B0E0F90180839183A283AB
S11358C0B3839E012B5B3F4F80E099E0ADE3B0E0F2
S11358D0F90180839183A283B383CE018B5B9F4FB5
S11358E09E01235C3F4FF901208131814281538124
S11358F0FC0180819181A281B38182179307A4075F
S1135900B50730F1CE018F5B9F4F9E01235C3F4F63
S1135910F9012081318142815381FC01808191818F
S1135920A281B381281739074A075B0748F4CE01DF
S11359308F5B9F4FFC0180819181A281B38110C054
S1135940CE01CD96FC0180819181A281B38108C0F2
S1135950CE018B5B9F4FFC0180819181A281B38139
S113596080934E4090934F40A0935040B093514049
S11359708E01075B1F4F82E790E00E944355F801B8
S11359808083CE01865B9F4FFC0110821182CE0181
S1135990845B9F4F20E130E0FC0120833183CE0102
S11359A0875B9F4FFC018081282F30E0CE01845B10
S11359B09F4FFC0180819181821793079CF0CE0157
S11359C0875B9F4FFC018081482F50E0CE01865BAE
S11359D09F4FFC0120813181CA018217930744F44F
S11359E0C90106C0CE01845B9F4FFC018081918177
S11359F080932640909327408E01025B1F4F88E7D7
S1135A0090E00E944355F8018083CE01815B9F4F53
S1135A10FC0110821182CE018F5A9F4F25E030E0A5
S1135A20FC0120833183CE01825B9F4FFC01808186
S1135A30282F30E0CE018F5A9F4FFC018081918145
S1135A40821793079CF0CE01825B9F4FFC018081FB
S1135A50482F50E0CE01815B9F4FFC0120813181B2
S1135A60CA018217930744F4C90106C0CE018F5AB4
S1135A709F4FFC018081918180932840909329401D
S1135A808E010D5A1F4F8EE790E00E944355F80196
S1135A908083CE018C5A9F4FFC0110821182CE016B
S1135AA08A5A9F4F20E130E0FC0120833183CE01EC
S1135AB08D5A9F4FFC018081282F30E0CE018A5AF5
S1135AC09F4FFC0180819181821793079CF0CE0146
S1135AD08D5A9F4FFC018081482F50E0CE018C5A93
S1135AE09F4FFC0120813181CA018217930744F43E
S1135AF0C90106C0CE018A5A9F4FFC018081918161
S1135B0080932A4090932B408E01085A1F4F84E8BB
S1135B1090E00E944355F8018083CE01875A9F4F3D
S1135B20FC0110821182CE01855A9F4F23E130E09F
S1135B30FC0120833183CE01885A9F4FFC01808170
S1135B40282F30E0CE01855A9F4FFC01808191813E
S1135B50821793079CF0CE01885A9F4FFC018081E5
S1135B60482F50E0CE01875A9F4FFC01208131819C
S1135B70CA018217930744F4C90106C0CE01855AAD
S1135B809F4FFC018081918180932C4090932D4004
S1135B908E01035A1F4F8AE890E00E944355F80192
S1135BA08083CE01825A9F4FFC0110821182CE0164
S1135BB0805A9F4F25E030E0FC0120833183CE01E1
S1135BC0835A9F4FFC018081282F30E0CE01805AF8
S1135BD09F4FFC0180819181821793079CF0CE0135
S1135BE0835A9F4FFC018081482F50E0CE01825A96
S1135BF09F4FFC0120813181CA018217930744F42D
S1135C00C90106C0CE01805A9F4FFC018081918159
S1135C1080932E4090932F4086E090E00E944B5555
S1135C20DC01CB0180931A4390931B43A0931C4344
S1135C30B0931D438EE090E00E944B55DC01CB01F4
S1135C4080931E4390931F43A0932043B09321431A
S1135C5080E990E00E9443558093C84219821A82D9
S1135C6089819A814497E8F489819A814696805083
S1135C7090400E9443558B838B818F3F09F41B8294
S1135C8089819A8185529D4B2B81FC0120838B81D4
S1135C90882331F089819A81019689839A83E0CFA0
S1135CA0000019821A8289819A814497E8F48981D3
S1135CB09A81C096805090400E9443558B838B817B
S1135CC08F3F09F41B8289819A8180519D4B2B81DE
S1135CD0FC0120838B81882331F089819A8101968C
S1135CE089839A83E0CF000019821A8289819A817C
