:100000000C9478000C94A2000C94A2000C94A20012
:100010000C94A2000C94A2000C94CA030C94A200AD
:100020000C94A2000C94A2000C94A2000C94A200C8
:100030000C94C6000C9422160C94A2000C94A200FE
:100040000C94A2000C94A2000C94A2000C94A200A8
:100050000C94A2000C94A2000C94A2000C94A20098
:100060000C9422070C94A2000C94A2000C94A20001
:100070000C94A2000C94A2000C94EF150C94A20016
:100080000C94A2000C94A2000C94D9030C94A2002E
:100090000C94A2000C94A2000C94A2000C94A20058
:1000A0000C94A2000C943A0A0C94A2000C94A200A6
:1000B0000C94A2000C94A2000C94A2000C94A20038
:1000C0000C94A2000C94A2000C94A2000C94A20028
:1000D0000C94A2000C94A2000C94A2000C94A20018
:1000E0000C94A2000C94A20027065307360664075E
:1000F00011241FBECFEFCDBFDFE7DEBF10E4A0E0CD
:10010000B0E4E8EDF7E300E00BBF02C007900D920A
:10011000A233B107D9F721E4A2E3B0E401C01D92F4
:10012000A433B207E1F710E0C6E7D0E004C021979E
:10013000FE010E94CC17C437D107C9F70E943C04C6
:100140000C94DF1B0C9400000FB6F89460933041C0
:100150007093314180933241909333410FBE0895A3
:10016000FC010FB6F894609130417091314180915B
:100170003241909133410FBE309721F060837183FB
:100180008283938308950E94BB0808951F920F9263
:100190000FB60F9211240BB60F920F931F932F934C
:1001A0003F934F935F936F937F938F939F93AF93FF
:1001B000BF93CF93DF93EF93FF938091060B80FF64
:1001C0008AC2209109402F5F209309408BEA289F23
:1001D000812D112486958695982F990F890F880F68
:1001E000281709F452C08091724090917340892B76
:1001F00009F440C040917240509173408091724028
:100200009091734099230CF419C29C016091724043
:1002100070917340E0913940F0913A40E617F7074A
:1002200009F410C2959587959595879555230CF4FB
:100230001BC26091744070917540860F971F809328
:100240007440909375402370332786E990E0809343
:1002500037409093384080917240909173408093E2
:10026000394090933A4055230CF409C220937240D0
:100270003093734080914540811161C28FEF80932C
:10028000444090E080E02FEF02C20E949407C82F04
:10029000D82FD7700E9469070E9494072C2F2270D4
:1002A0000C2F01701C2F1470982F9770D91709F418
:1002B00002C1C827DC2FD770C1FF27C02223A9F0B5
:1002C00081E590E40E944F0B882361F080915940B2
:1002D00090915A4001968093594090935A401092C1
:1002E0003D4013C01092084010C081E590E40E9488
:1002F0004F0B882301F1109265401092664081E017
:1003000080933D4081E080930840D0FF2CC00023C3
:10031000D1F081E590E40E944F0B882389F0809111
:100320005740909158400196809357409093584081
:1003300010923C4018C081E590E40E94EB0DE2CFA2
:100340001092074010C081E590E40E944F0B882373
:1003500001F1109263401092644081E080933C4030
:1003600081E080930740D47069F11123D1F081E5D9
:1003700090E40E944F0B882389F080915540909122
:1003800056400196809355409093564010923B40C2
:1003900019C081E590E40E94EB0DE2CF1092064077
:1003A00011C081E590E40E944F0B882309F47EC0C0
:1003B000109261401092624081E080933B4081E066
:1003C000809306408091424090914340009709F409
:1003D000DEC001978093424090934340892BC1F443
:1003E0008091594090915A40892B71F080915940E9
:1003F00090915A40039740F48091594090915A400F
:1004000080935F40909360401092594010925A4000
:100410008091404090914140009709F4D5C00197E8
:100420008093404090934140892BC1F48091574084
:1004300090915840892B71F080915740909158408D
:10044000039740F4809157409091584080935D40CD
:1004500090935E40109257401092584080913E40D9
:1004600090913F40009709F4CCC0019780933E40A3
:1004700090933F40892B09F0B6CE809155409091E2
:100480005640892B71F080915540909156400397CA
:1004900040F4809155409091564080935B409093FA
:1004A0005C4010925540109256409DCE81E590E4FC
:1004B0000E94EB0D84CF211121C080915440811105
:1004C0001DC0809108408823C9F0809165409091BB
:1004D000664001968093654090936640883C910504
:1004E00068F081E08093544010926540109266401D
:1004F0001092594010925A4010920840011121C0A8
:100500008091534081111DC0809107408823C9F01C
:1005100080916340909164400196809363409093F2
:100520006440883C910568F081E0809353401092CC
:1005300063401092644010925740109258401092BD
:10054000074011113FCF8091524081113BCF8091E4
:100550000640882309F436CF809161409091624033
:1005600001968093614090936240883C910508F425
:1005700029CF81E0809352401092614010926240F6
:100580001092554010925640109206401BCF809119
:10059000594090915A40019761F080915940909153
:1005A0005A40039708F434CF1092594010925A40A1
:1005B0002FCF80913D40882381F382E390E08093A8
:1005C00042409093434024CF8091574090915840AF
:1005D000019761F08091574090915840039708F43B
:1005E0003DCF109257401092584038CF80913C40F8
:1005F000882381F382E390E08093404090934140D0
:100600002DCF8091554090915640019761F0809197
:10061000554090915640039708F4E5CD109255400F
:1006200010925640E0CD80913B40882381F382E3D5
:1006300090E080933E4090933F40D5CD9195819539
:100640009109E3CD8091374090913840009741F077
:1006500001978093374090933840892B09F003CE5F
:100660002D5F3F4F2C7FFFCD60917440709175409E
:10067000681B790B6093744070937540E4CD31959D
:1006800021953109F3CD01968330910501F1FC01EB
:10069000DC01AA0FBB1FA65FBF4B4D915C91452BA0
:1006A00061F0DC01AA0FBB1FA65FBF4B4D915C91AF
:1006B0001197415051094D935C93EE0FFF1FE65F78
:1006C000FF4B40815181452BF1F6282FDCCF209341
:1006D00044402223D4F483E08093060BFF91EF91F2
:1006E000DF91CF91BF91AF919F918F917F916F914A
:1006F0005F914F913F912F911F910F910F900BBEE2
:100700000F900FBE0F901F901895822F880F990B96
:10071000FC01EB5DFF4B20813181FC01E65FFF4B6B
:1007200020833183855D9F4BDC018D919C910E94DC
:100730008B060E940D0781E080934540CCCF0E943C
:100740001907882341F20E941D079C012B50310993
:100750002F3E3F40B0F420914440022E000C330B5A
:10076000F901EE0FFF1FE959FF4B408151812359D9
:100770003F4B41E0D9014C938083918310924540D7
:10078000AACFE0914440EE0FFF0BE959FF4B808167
:100790009181F4CF1F920F920FB60F9211248F9375
:1007A00083B18FEF83B98F910F900FBE0F901F9081
:1007B00018951F920F920FB60F9211240BB60F923D
:1007C0002F933F938F939F93EF93FF9387B38871FA
:1007D00009F433C08091A80490E09595879595958C
:1007E0008795959587958370E0913640EE0FEE0FD3
:1007F000E82BE150EE30F8F40E2E000CFF0BED5F0D
:10080000FB4F0C94CC1711042D041B042D041B0466
:100810001B04110411041B041B042D041B042D04D0
:10082000110420917240309173402F5F3F4F20930D
:100830007240309373408093364088E18093A904DE
:10084000FF91EF919F918F913F912F910F900BBE50
:100850000F900FBE0F901F9018952091724030910D
:100860007340215031092093724030937340E3CF9D
:100870000B9808950B9A08950E94C30064E47BE7E7
:1008800086E390E00E94C21660E873E48DE698E388
:100890000E94A40090E080E00E94B0006B017C0107
:1008A00060ED77E080E090E00E946515882349F0D4
:1008B00090E080E00E94B0006C157D058E059F05DC
:1008C00079F390E080E00E94B0006C157D058E0504
:1008D0009F0549F4809176409091774081608093A4
:1008E0007640909377400F2EF2E2EF2EF0E4FF2E49
:1008F000F02D0CE710E4C0E5D0E00F2EFDEECF2E7A
:10090000D12CF02D9EC041E064E070E081E590E4E0
:100910000E947A0BAAC061E070E081E590E40E9439
:10092000AB0DA3C068E070E081E590E40E94AB0DE0
:1009300067E070E081E590E40E94AB0DA2C01092E8
:1009400054406CE070E081E590E40E94C80D9DC0C9
:1009500041E066E070E081E590E40E947A0BA9C076
:1009600062E070E081E590E40E94AB0DA2C068E017
:1009700070E081E590E40E94AB0D67E070E081E5F6
:1009800090E40E94AB0DA1C0109253406BE070E068
:1009900081E590E40E94C80D9CC069E070E081E5AB
:1009A00090E40E94AB0D10925B4010925C408091ED
:1009B000614090916240883E934008F0A6C08091CB
:1009C00052408111AFC080917A4090917B40892B39
:1009D00009F0B7C08091784090917940892B09F057
:1009E000C7C08091744090917540892B31F18091FE
:1009F000744090917540181619060CF0D0C063E051
:100A000070E081E590E40E94AB0D68E070E081E564
:100A100090E40E94AB0D8091344090913540019656
:100A2000809334409093354080917440909175400C
:100A3000019780937440909375408091714081112B
:100A4000CDC080915F4090916040892B91F0809162
:100A50005F4090916040019709F455CF80915F40CD
:100A600090916040029709F456CF10925F40109227
:100A700060408091654090916640883E934008F0C8
:100A800051CF8091544081115ACF80915D40909117
:100A90005E40892B91F080915D4090915E4001977E
:100AA00009F456CF80915D4090915E40029709F421
:100AB00057CF10925D4010925E40809163409091BC
:100AC0006440883E934008F052CF8091534081119A
:100AD0005BCF80915B4090915C40892B09F467CF9C
:100AE00080915B4090915C40019709F456CF8091D2
:100AF0005B4090915C40029709F055CF6AE070E04E
:100B000081E590E40E94AB0D4ECF68E070E081E596
:100B100090E40E94AB0D67E070E081E590E40E94F4
:100B2000AB0D4DCF1092524068E070E081E590E44B
:100B30000E94C80D67E070E081E590E40E94AB0D73
:100B400042CF80917A4090917B409F938F93FF9208
:100B5000EF921F930F930E94141910927A401092F3
:100B60007B400F900F900F900F900F900F9032CF0F
:100B700080917840909179409F938F93FF92EF926C
:100B80001F930F930E94141910927840109279408D
:100B90000F900F900F900F900F900F9022CF65E065
:100BA00070E081E590E40E94AB0D67E070E081E5C4
:100BB00090E40E94AB0D80913240909133400196B9
:100BC000809332409093334080917440909175406F
:100BD000019680937440909375402FCF81E590E407
:100BE0000E94610B0E9438040E94CE0882E090E0CF
:100BF0000E94171581E0809370401092104010926F
:100C0000114080917140882389F08881897F8260BA
:100C10008883F89488818160888378948895888116
:100C20008E7F8883809171408111EFCF1092704048
:100C30000E94C3000E943A040E94CD168091104089
:100C400090911140C0927840D0927940FACE81E5DF
:100C500090E40E94380A64E670E087E490E40E9421
:100C60005F0886E490E40E94D908089586E490E441
:100C70000E94DA0887E490E40E94770881E590E416
:100C80000E94390A0895E0E6F4E09289987F928BF9
:100C900092899460928B9389987F938B93899460C7
:100CA000938B9489987F948B94899460948B958985
:100CB000987F958B95899460958B9289977F928B7D
:100CC0009389977F938B9489977F948B9589977F4E
:100CD000958B91E09093A0009AE090930206811189
:100CE0000CC0E0E0F6E081E08083148682E090E0D2
:100CF0008093E0409093E1400895E0E0F6E083E0E7
:100D0000808381E08487828781E090E08093E04067
:100D10009093E14008958930910508F075C0FC0179
:100D2000EC56F94F0C94CC179D06A906B606C306DF
:100D3000D006DD060407EA06F7068091E0409091B0
:100D4000E140019719F081E00E94430610920806E5
:100D500008958091E0409091E140019719F081E081
:100D60000E94430681E08093080608958091E04048
:100D70009091E140019719F081E00E94430682E0E2
:100D80008093080608958091E0409091E14001979A
:100D900019F081E00E94430683E0809308060895DD
:100DA0008091E0409091E140029719F080E00E942C
:100DB000430684E08093080608958091E040909176
:100DC000E140029719F080E00E94430685E080939D
:100DD000080608958091E0409091E140029719F053
:100DE00080E00E94430687E0809308060895809182
:100DF000E0409091E140029719F080E00E944306A4
:100E000082E4809308060895E0E0F6E014861082FC
:100E10001092E0401092E14008958091E04090915E
:100E2000E140892B29F0E0E0F6E0148681E082873A
:100E3000089580910D06817008958091100690911B
:100E4000110608951F920F920FB60F9211240BB640
:100E50000F922F933F934F935F936F937F938F9353
:100E60009F93AF93BF93EF93FF93609110067091A0
:100E7000110682EE90E40E943209811110920C0654
:100E8000FF91EF91BF91AF919F918F917F916F9162
:100E90005F914F913F912F910F900BBE0F900FBE1E
:100EA0000F901F9018950F931F9300E010E42CEB08
:100EB00036E440E050E069E473E482EE90E40E949E
:100EC000DB081F910F91089582EE90E40E942B0998
:100ED0000895E5EEF0E42181228330813183A8EE8C
:100EE000B0E411965C91119712965C9312976C91F5
:100EF00011966C93119792B19C9386B38083409125
:100F0000E4409427642796235427952394279093AD
:100F1000E4409091E34089273927832329278223BE
:100F200089278093E34008958091E44008950098D4
:100F3000E0E1F4E08081886080830198E1E1F4E001
:100F40008081886080830298E2E1F4E0808188609B
:100F50008083039A0B9A0498E4E1F4E0808188602E
:100F60008083059A0D98069A0E98079A0F9A249AEC
:100F70002C9A4298E2E5F4E080818860808343986F
:100F8000E3E5F4E0808188608083449A4C9A459A36
:100F90004D9AE0E9F4E0808188608083E1E9F4E043
:100FA000808188608083E2E9F4E0808188608083CA
:100FB000839A8B98E0EBF4E0808188608083E1EB9A
:100FC000F4E0808188608083A298E2EBF4E0808185
:100FD00088608083A398A498A598E5EBF4E08081CD
:100FE00088608083E6EBF4E0808188608083E0EABB
:100FF000F4E083898160838B84898160848B88E1BC
:10100000818708950098E0E1F4E08081877F808304
:101010000198E1E1F4E08081877F80830298E2E13A
:10102000F4E08081877F8083039A0B980498E4E141
:10103000F4E08081877F8083059A0D98069A0E9848
:10104000079A0F9A249A2C984298E2E5F4E080815E
:10105000886080834398E3E5F4E080818860808342
:10106000449A4C98459A4D98E0E9F4E08081886074
:101070008083E1E9F4E0808188608083E2E9F4E044
:10108000808188608083839A8B98E0EBF4E0808194
:1010900088608083E1EBF4E0808188608083A29A9D
:1010A000AA98A398A498A59AAD98E6EBF4E080815D
:1010B0008860808308951092890080E008950F93DE
:1010C0001F93CF93DF93EC018B01CB010E94EF17AD
:1010D0008D839E830F831887188219821A821B8240
:1010E0001C821986DF91CF911F910F910895FC0109
:1010F000858196810E948B180895FC0182819381DD
:101100008083918314821186089545E868ED8CE709
:1011100090E00E94F00D45E268ED88E690E00E94C4
:10112000F00D80E00895789480E0089583E0809346
:10113000A200E0E6F4E08689887F868B8689846059
:10114000868B8689877F868B81EC8093A0060895A5
:10115000E0E1F4E0808188608193E83184E0F80781
:10116000C9F7E0E3F4E0808188608193E83384E0AC
:10117000F807C9F708950E94A8080E9485080E94F0
:101180001F150E9437150E9497070E9493080E941E
:1011900013150E9496080E945B0808950E94A808F3
:1011A0000E9455160E940208459A4D98449A4C9800
:1011B000089508950895CF92DF92EF92FF920F93D2
:1011C0001F936A017B010093F2401093F340209338
:1011D000F4403093F54020E030E041E553E4CB01AA
:1011E000B6010E94951718169CF020E030E048ECFC
:1011F00052E4C701B6010E940D1788238CF40F2E0C
:10120000C12CD12CF8ECEF2EF2E4FF2EF02D08C00B
:101210000F2EC12CD12CF1E5EF2EF3E4FF2EF02D93
:10122000C701B6010E9412176093F0407093F1401D
:101230008091F0409091F140880F991F0E94EF1724
:101240008093EB409093EC401F910F91FF90EF90B3
:10125000DF90CF9008958091EB409091EC400E94F8
:101260008B1808958091ED4081112CC08091EE4043
:101270009091EF40880F991FE091EB40F091EC4086
:10128000E80FF91F608371838091EE409091EF40E9
:1012900001968093EE409093EF402091EE40309184
:1012A000EF408091F0409091F140281739073CF0D1
:1012B0001092EE401092EF4081E08093ED408091DB
:1012C000ED4008958091ED40089582E390E0809391
:1012D000144090931540E0E0F9E08581807C59F45A
:1012E00085818C7081F48091144090911540892BF8
:1012F000A1F780E009C08091050984FF02C082E067
:1013000003C081E001C084E0209114403091154079
:10131000232B09F0089584E0FDCFE0EEF5E0858110
:101320008A708583858182608583E0E0F9E083E7C8
:10133000868381E083831782108685830895CF9208
:10134000DF92FF920F931F93CF93DF93162FEA0143
:10135000F22E809307090E946509813051F0CFEF8A
:101360008C2FDF91CF911F910F91FF90DF90CF9045
:101370000895109308090E946509813001F5FF2046
:1013800001F12097B9F08E01C0E00F2EC12CF9E0D9
:10139000DF2EF02DD3E0F80181918F01F6018087D7
:1013A0000E9465098130E1F6CF5FFC1629F0FC123E
:1013B000F2CFD6CFC0E0D4CFF601D483F8CFCFEFB1
:1013C000CFCFCF2DCDCFEF92FF921F93CF93DF934F
:1013D000C82FD62F7A01122F809307090E94650922
:1013E000813039F08FEFDF91CF911F91FF90EF9017
:1013F0000895D09308090E946509813011F08FEF9C
:10140000F2CFC160C09307090E946509813001F5E0
:10141000812F112341F380E0E114F10421F36FEFF8
:10142000610F80E042E350E0E0E0F9E072E04093D9
:101430001440509315409581907C61F495819C7087
:1014400091F62091144030911540232BA1F7CBCF7A
:101450008FEFC9CF9085D7019D937D01681305C09B
:1014600087E080930409812FBECF74838F5FDFCF25
:10147000089508951F920F920FB60F9211242F9383
:101480008F939F93AF93BF938091360B80FF8CC057
:101490008091164090911740A0911840B09119404A
:1014A000892B8A2B8B2B09F1809116409091174044
:1014B000A0911840B09119400197A109B1098093FA
:1014C000164090931740A0931840B0931940809114
:1014D000164090911740A0911840B0911940892B67
:1014E0008A2B8B2B11F44D984C988091164090913B
:1014F0001740A0911840B0911940892B8A2B8B2B53
:1015000009F452C08091FD409091FE40892B19F161
:1015100080910E4181111FC08091FD409091FE404D
:1015200002970CF44EC04D9A8091FD409091FE4080
:1015300001978093FD409093FE408091FD409091F3
:10154000FE40019709F450C08091FD409091FE400B
:10155000019609F464C08091FB409091FC40892B76
:1015600019F180910D4181111FC08091FB40909134
:10157000FC4002970CF45CC04C9A8091FB40909127
:10158000FC4001978093FB409093FC408091FB408E
:101590009091FC40019709F45EC08091FB409091CE
:1015A000FC40019609F472C083E08093360BBF9132
:1015B000AF919F918F912F910F900FBE0F901F9021
:1015C00018958091FD409091FE408F3F9F4F0CF009
:1015D000B4CF4D988091FD409091FE40019680934C
:1015E000FD409093FE40A9CF80910341909104412A
:1015F000892B61F0809103419091044191958195EF
:1016000091098093FD409093FE40A5CF80910541C4
:10161000909106418093FD409093FE409CCF809135
:101620000541909106418093FD409093FE4093CFF9
:101630008091FB409091FC408F3F9F4F0CF0A6CFD4
:101640004C988091FB409091FC4001968093FB4028
:101650009093FC409BCF8091FF4090910041892B5B
:1016600061F08091FF4090910041919581959109A1
:101670008093FB409093FC4097CF809101419091E3
:1016800002418093FB409093FC408ECF80910141BA
:10169000909102418093FB409093FC4085CF8091D4
:1016A000164090911740A0911840B0911940892B95
:1016B0008A2B8B2B21F08091350B8170089580E06F
:1016C0000895E0E3FBE085818E7F85834D984C98FB
:1016D00087E490E40E947D0881E080930D4180932F
:1016E0000E4110921640109217401092184010921E
:1016F00019400895442361F080E69AEEA0E0B0E03E
:101700008093164090931740A0931840B0931940CF
:101710008091164090911740A0911840B0911940C7
:10172000892B8A2B8B2B79F56115710559F581E091
:101730006730710509F080E08093F8409B012550E7
:1017400031092230310508F460C091E0683071053C
:1017500009F090E09093F7408111F7C1683071056E
:1017600009F4F0C191E09093F64020910741309147
:101770000841982F2617370711F56093074170939A
:101780000841089508956130710521F0CB01039758
:10179000029780F581E08093F84091E06830710510
:1017A00009F090E09093F7401092F64081E020918C
:1017B0000B4130910C412617370781F181E0E0E3BE
:1017C000FBE025812E7F25836D30710508F043C035
:1017D000FB01E351F44F0C94CC171D0C380C400C5A
:1017E000480C7C0C620C960C6A0D820D3E0D100D9F
:1017F000E10CB00C81E06730710509F080E0809366
:10180000F8406230710509F099CF91E09093F7406C
:101810001092F640982F8111CACF03C0992309F482
:1018200097C12091094130910A4191E0261737076D
:1018300009F0C5CF811117C080C11092FD401092F0
:10184000FE401092FB401092FC404D984C98109234
:10185000FA401092F940E0E3FBE025812160258306
:10186000882309F467C160930B4170930C4108957C
:101870004D981092FD401092FE401092FA40EBCF2E
:101880004C981092FB401092FC401092F940E3CF2C
:101890002FE030E0209305413093064122E330E011
:1018A000209303413093044120910541309106413A
:1018B0002093FD403093FE4021E02093FA401092A7
:1018C0000E41C9CF2FE030E0209301413093024117
:1018D00022E330E02093FF4030930041209101410A
:1018E000309102412093FB403093FC4021E0209353
:1018F000F94010920D41AFCF29E130E0209305412E
:101900003093064124EF31E02093034130930441AA
:1019100020910541309106412093FD403093FE40D7
:1019200021E02093FA4010920E4195CF29E130E05A
:10193000209301413093024124EF31E02093FF4096
:101940003093004120910141309102412093FB40AE
:101950003093FC4021E02093F94010920D417BCF61
:10196000E9E1F0E0E0930141F093024144EF51E0FE
:101970004093FF405093004120910141309102413A
:101980003195219531092093FB403093FC40E09341
:101990000541F09306414093034150930441209147
:1019A0000541309106412093FD403093FE4021E0F7
:1019B0002093FA402093F94010920D4110920E416D
:1019C0004ACF29E130E02093014130930241209336
:1019D000FF403093004140910141509102415195A7
:1019E000419551094093FB405093FC4020930541A1
:1019F00030930641209303413093044120910541E7
:101A0000309106412093FD403093FE4021E0209329
:101A1000FA402093F94010920D4110920E411BCFD5
:101A200049E150E0409301415093024124EF31E0FD
:101A30002093FF4030930041E0910141F091024139
:101A4000E093FB40F093FC404093054150930641E6
:101A50002093034130930441209105413091064188
:101A60002093FD403093FE4021E02093FA402093E4
:101A7000F94010920D4110920E41EDCE29E130E077
:101A800020930141309302412093FF403093004165
:101A900040910141509102414093FB405093FC40E2
:101AA0002093054130930641209303413093044134
:101AB00020910541309106412093FD403093FE4036
:101AC00021E02093FA402093F94010920D411092AA
:101AD0000E41C1CE29E130E020930541309306410B
:101AE000109203411092044120910541309106412A
:101AF0002093FD403093FE4021E02093FA40109265
:101B00000E41A9CE29E130E02093014130930241FA
:101B10001092FF401092004120910141309102410A
:101B20002093FB403093FC4021E02093F940109239
:101B30000D4191CE992309F420CE60930941709311
:101B40000A4108951092F6406CCE1092F6402FCEC6
:101B5000811189CE12CE40E00E947A0B089570E088
:101B600060E00E94AB0D87E490E40E947D08109233
:101B70000D4110920E4180E69AEEA0E0B0E0809315
:101B8000164090931740A0931840B09319400895C1
:101B9000EF92FF920F931F93CF93DF938C017B0102
:101BA000C0E3DBE08D818E7F8D83C8010E94AF0D85
:101BB0008D8181608D83E114F10439F4DF91CF913F
:101BC0001F910F91FF90EF90089541E0B701C80178
:101BD0000E947A0BF3CF70E060E00E94C80D089578
:101BE0001BBEFC0164BF408308954F925F926F92C9
:101BF0007F928F929F92AF92BF92CF92DF92EF929D
:101C0000FF920F931F93CF93DF93EC018B014880DA
:101C100059806A807B80411451046104710409F485
:101C200047C0FB0180809180A280B3808114910421
:101C3000A104B104E9F1C301B201A50194010E941C
:101C4000AA176B017C01C114D104E104F10429F449
:101C5000750164010FC06B017C01C501B401A701CE
:101C600096010E94AA174601570161157105810569
:101C7000910589F7F2E0CF16D104E104F104C0F038
:101C8000C301B201A70196010E94AA1728833983D4
:101C90004A835B83F8016081718182819381A7010E
:101CA00096010E94AA17F80120833183428353834F
:101CB000DF91CF911F910F91FF90EF90DF90CF9028
:101CC000BF90AF909F908F907F906F905F904F905C
:101CD00008958F929F92AF92BF92CF92DF92EF9230
:101CE000FF920F931F93CF93DF93CDB7DEB7289763
:101CF000CDBFDEBF8A0180901A4090901B40A0901B
:101D00001C40B0901D40A50194010E94AA176901D2
:101D10007A0169837A838B839C838D829E82AF82D2
:101D2000B886BE016B5F7F4FCE0101960E94F50D14
:101D300069817A818B819C81660F771F881F991F2B
:101D4000660F771F881F991F660F771F881F991FBF
:101D5000660F771F881F991F660F771F881F991FAF
:101D6000660F771F881F991F660F771F881F991F9F
:101D70008D809E80AF80B884A50194010E94AA172F
:101D8000325041095109CC0CDD1CEE1CFF1CCC0C5F
:101D9000DD1CEE1CFF1CCC0CDD1CEE1CFF1CCC0C57
:101DA000DD1CEE1CFF1CCC0CDD1CEE1CFF1CCC0C47
:101DB000DD1CEE1CFF1CCC0CDD1CEE1CFF1CC20E3F
:101DC000D31EE41EF51EF801C082D182E282F382A6
:101DD000648375838683978380869186A286B38683
:101DE00080E02896CDBFDEBFDF91CF911F910F918C
:101DF000FF90EF90DF90CF90BF90AF909F908F902B
:101E000008953F924F925F926F927F928F929F922E
:101E1000AF92BF92CF92DF92EF92FF920F931F93F8
:101E2000CF93DF934B015C01EA0181E0F9018083EC
:101E3000F0E88F16F1ED9F06F0EFAF06F8E0BF0671
:101E400008F087C06894332431F860E079EE84EAC2
:101E500095E30F2E412CF9EE5F2EF4EA6F2EF5E399
:101E60007F2EF02DA50194010E94AA1769017A0125
:101E700044E0C416D104E104F10408F079C0A32DB4
:101E8000B0E0A50194010E94E417A3019201261B72
:101E9000370B480B590BCA01B901339433946115C0
:101EA00036E4730733EC830733E29307D8F660E038
:101EB00070E0CB01C12CD12C760121E054E0C51695
:101EC000D104E104F10409F020E0F8012083CC0CF6
:101ED000DD1CEE1CFF1CCC0CDD1CEE1CFF1CCC0C16
:101EE000DD1CEE1CFF1CCC0CDD1CEE1CFF1CCC0C06
:101EF000DD1CEE1CFF1CCC0CDD1CEE1CFF1CCC0CF6
:101F0000DD1CEE1CFF1CF2E0DF1AE108F108C882BC
:101F1000D982EA82FB821C821D821E821F8201E01E
:101F200010E020E030E0088719872A873B87DF919F
:101F3000CF911F910F91FF90EF90DF90CF90BF90C6
:101F4000AF909F908F907F906F905F904F903F9059
:101F50000895C501660F771F881F991F660F771FA9
:101F6000881F991FC12CD12C76016894C2F8A5CF87
:101F7000A5019401C701B6010E949A179ECF2F9226
:101F80003F924F925F926F927F928F929F92AF9209
:101F9000BF92CF92DF92EF92FF920F931F93CF9356
:101FA000DF93CDB7DEB76297CDBFDEBF4B015C01DB
:101FB0001A012D873E8780911E4190911F41A0916B
:101FC0002041B091214189879A87AB87BC87BC01AA
:101FD000CD01A50194010E94AA1769017A01CF865B
:101FE000D88AE98AFA8A69837A838B839C838D8273
:101FF0009E82AF82B886BE016B5F7F4FCE01019695
:102000000E94F50D4D805E806F80788489809A8073
:10201000AB80BC80A3019201C701B6010E949A1750
:102020009B01AC01280D391D4A1D5B1D69857A8510
:102030008B859C850E94AA17C301B2010E949A1742
:1020400069877A878B879C8781149104A104B104E6
:1020500011F4C0FE71C0AD85BE851C92D8011C92E2
:10206000880C991CAA1CBB1C880C991CAA1CBB1CA4
:10207000C501B401660F771F881F991F660F771F70
:10208000881F991F660F771F881F991F660F771F7C
:10209000881F991F660F771F881F991FA301920140
:1020A0000E94AA17325041095109CC0CDD1CEE1CCC
:1020B000FF1CCC0CDD1CEE1CFF1CCC0CDD1CEE1C34
:1020C000FF1CCC0CDD1CEE1CFF1CCC0CDD1CEE1C24
:1020D000FF1CCC0CDD1CEE1CFF1CCC0CDD1CEE1C14
:1020E000FF1CC20ED31EE41EF51EF101C082D18278
:1020F000E282F38264837583868397834086518668
:102100006286738669857A858B859C856296CDBF4C
:10211000DEBFDF91CF911F910F91FF90EF90DF9085
:10212000CF90BF90AF909F908F907F906F905F9077
:102130004F903F902F90089581E0AD85BE858C93A0
:102140008F859889A989BA890497A105B10509F0F5
:1021500085CF81E0D8018C93F10110821182128227
:102160001382148215821682178281E090E0A0E02B
:10217000B0E080879187A287B387C4CFFF920F9387
:102180001F93CF93DF93F82E8B01D42FC5E02D2F13
:10219000A8016F2D80EC0E949F098D1749F0C15056
:1021A000B1F781E0DF91CF911F910F91FF900895DA
:1021B00080E0F8CFCF93DF9300D0CDB7DEB76F7755
:1021C000698341E0BE016F5F7F4F805F0E94BE1058
:1021D000811107C090E080E00F900F90DF91CF91C8
:1021E00008958BEF90E0F8CF0F931F93CF93DF9379
:1021F000CDB7DEB76697CDBFDEBF8A01AE014F5FB8
:102200005F4F0E94690E811120C08A858D87898564
:102210008E878B8183708F878A81888B8981898B58
:102220008B858295807F9F819F70890F8A8B8E819D
:102230008B8B8D818C8B0130110579F048E0BE01CC
:10224000635F7F4F82E20E94BE106696CDBFDEBF05
:10225000DF91CF911F910F91089548E0BE01635F18
:102260007F4F8AE10E94BE10F0CFFF920F931F9321
:10227000CF93DF93F82E8B01D42FC5E02D2FA8012B
:102280006F2D80EC0E94E3098D1749F0C150B1F722
:1022900081E0DF91CF911F910F91FF90089580E031
:1022A000F8CFCF92DF92EF92FF921F93CF93DF93FD
:1022B00000D0CDB7DEB7182F6A017B010E948D09CF
:1022C00010921E4110921F41109220411092214104
:1022D00080E498E7ADE7B1E080931A4090931B400B
:1022E000A0931C40B0931D4010921D418FEF898335
:1022F00041E0BE016F5F7F4F83E00E94BE1080937C
:102300000F41882351F00F900F90DF91CF911F91D3
:10231000FF90EF90DF90CF9008958CEC898341E09F
:10232000BE016F5F7F4F80E10E94BE1090910F4110
:10233000892B80930F4141E0BE016F5F7F4F81E1A8
:102340000E94BE1090910F41892B80930F4141E074
:10235000BE016F5F7F4F82E10E94BE1090910F41DE
:10236000892B80930F411261198341E0BE016F5F99
:102370007F4F87EB0E94BE1090910F41892B809375
:102380000F41C114D104E104F10451F40F2EF0E423
:10239000CF2EF8E7DF2EFDE7EF2EFF24F394F02D8C
:1023A00080911A4090911B40A0911C40B0911D401B
:1023B0008C159D05AE05BF0539F480910F4191E064
:1023C0009827909310419FCF41E0BE016F5F7F4FF0
:1023D0008FE00E943511811196CF8981C0921A40F9
:1023E000D0921B40E0921C40F0921D408F73898375
:1023F00041E0BE016F5F7F4F8FE00E94BE10909161
:102400000F41892B80930F41D8CF0F931F93CF9308
:10241000DF9300D0CDB7DEB7182F062F41E0BE0105
:102420006F5F7F4F83E00E943511811128C0898141
:102430000023E1F021E030E002C0220F331F1A95A3
:10244000E2F720958223898341E0BE016F5F7F4FD1
:1024500083E00E94BE10811115C090E080E00F90D3
:102460000F90DF91CF911F910F91089521E030E0FF
:1024700002C0220F331F1A95E2F7822BE4CF8CEFB4
:1024800090E0EDCF8CEF90E0EACFFF920F931F9397
:10249000CF93DF9300D0CDB7DEB78B016894FF24D4
:1024A000F4F8F80E41E0BE016F5F7F4F8F2D0E9460
:1024B0003511811129C0898101301105E9F0D0F071
:1024C00002301105E1F003301105E1F0898341E0AC
:1024D000BE016F5F7F4F8F2D0E94BE10811117C00C
:1024E00090E080E00F900F90DF91CF911F910F91BE
:1024F000FF9008958C7FEACF8C7F8160E7CF8C7F3F
:102500008260E4CF8360E2CF8BEF90E0EBCF8BEF84
:1025100090E0E8CFEF92FF921F93CF93DF9300D02C
:10252000CDB7DEB77B0110E1180F41E0BE016F5F50
:102530007F4F812F0E943511811111C0898191E057
:10254000E916F104A1F092E0E916F10491F0898313
:1025500041E0BE016F5F7F4F812F0E94BE100F9040
:102560000F90DF91CF911F91FF90EF9008958F7D95
:10257000EECF8062ECCF0F931F93CF93DF9300D009
:10258000CDB7DEB7062F10E1180F41E0BE016F5F37
:102590007F4F812F0E94351181110CC0898100234A
:1025A00081F08064898341E0BE016F5F7F4F812F9E
:1025B0000E94BE100F900F90DF91CF911F910F914D
:1025C00008958F7BEFCFFF920F931F93CF93DF93ED
:1025D00000D0CDB7DEB78130910529F088F10297A0
:1025E00051F181E020C00F2EF4E3FF2EF02D042FD7
:1025F000162F41E0BE016F5F7F4F8F2D0E94351176
:10260000811111C08981837801118C6090E1199F3B
:10261000B0011124682B698341E0BE016F5F7F4FD9
:102620008F2D0E94BE100F900F90DF91CF911F91C0
:102630000F91FF9008950F2EFCE3FF2EF02DD7CFC2
:102640000F2EFCE2FF2EF02DD2CF6F927F928F9251
:10265000AF92CF92DF92EF92FF920F931F93CF939F
:10266000DF93CDB7DEB76997CDBFDEBF3C01CE8625
:10267000DF86E88A0A8B1B8B2C8B688F59834A83F1
:10268000880F880F880F41E0BE01645F7F4F845D33
:102690000E943511811124C09C85888983709C7F9C
:1026A000892B8B838F858C838E858D83888D8295F6
:1026B000807F9C899F70890F8E838B898F838A8905
:1026C000888781E06816710429F1D0F082E06816ED
:1026D000710451F16A2DC3010E94BB12882371F16C
:1026E0006996CDBFDEBFDF91CF911F910F91FF9013
:1026F000EF90DF90CF90AF908F907F906F90089584
:1027000048E0BE016F5F7F4F8AE20E94BE108823BF
:1027100009F3E6CF48E0BE016F5F7F4F82E30E947E
:10272000BE108823B9F2DCCF48E0BE016F5F7F4F57
:102730008AE30E94BE10882369F2D2CF48A5682D93
:10274000C3010E94E312CCCF4F925F926F927F92AF
:102750008F929F92AF92BF92CF92DF92EF92FF92B1
:102760000F931F93CF93DF93CDB7DEB76597CDBFA0
:10277000DEBF6B017C013A01922EB02E1D861E86B3
:1027800010911041112309F434C180E4C81682E489
:10279000D8068FE0E806F10468F0C70124E630E0CF
:1027A00040E050E00E94AA17A4E6B0E00E94E417BF
:1027B0006B017C0191E06916710409F4A3C010F16A
:1027C000B2E06B16710409F015C180911D4184605F
:1027D00080931D4180958C6F8F8741E0BE01615FC2
:1027E0007F4F83E00E94BE10182F811103C1C09259
:1027F0001941D0921A41E0921B41F0921C41A2E192
:10280000AD8B9CC080911D41816080931D41C09221
:102810001141D0921241E0921341F092144180E1B3
:102820008D8B44244394512C8E01025F1F4F9E01D7
:10283000235F3F4FAE014F5F5F4FC701B6010E945C
:10284000010F698B7A8B8B8B9C8BB201C3010E9429
:102850008A12182F8111CEC08E858F93812CAD8462
:10286000C980DA80EB80FC800D811E812F81388544
:1028700049855A856B857C85C3010E942513182FD5
:102880000F908111B7C089899A89AB89BC8900975B
:10289000A105B10509F079C0B1107DC0992009F4F6
:1028A0007FC080911D418F8741E0BE01615F7F4FF6
:1028B00083E00E94BE108111B2C04A94452809F4F9
:1028C0007FC08D85882309F486C08CE68F8741E020
:1028D000BE01615F7F4F8D890E94BE108111A1C032
:1028E00089899A89AB89BC890097A105B10509F44A
:1028F00081C080931E4190931F41A0932041B093CB
:10290000214178C080911D41826080931D41809556
:102910008A6F8F8741E0BE01615F7F4F83E00E9435
:10292000BE10182F811166C0C0921541D092164179
:10293000E0921741F092184191E19D8B80911E41E8
:1029400090911F41A0912041B0912141892B8A2B68
:102950008B2B29F46894442441F8512C65CF8E01C7
:10296000025F1F4F9E01235F3F4FAE014F5F5F4FDE
:10297000C701B6010E94BF0F6894442441F8512C4E
:10298000198A1A8A1B8A1C8A60CFA201BC01CD0158
:102990000E94F41081CF6B2DC3010E94DA107ECF0C
:1029A00080911D4180958F8741E0BE01615F7F4F1F
:1029B00083E00E94BE10882309F47FCF182F1AC02D
:1029C0008CE48F8741E0BE01615F7F4F8D890E945B
:1029D000BE10182F0FC08CE28F8741E0BE01615FEF
:1029E0007F4F8D890E94BE10882309F479CF182F5C
:1029F00001C011E0812F6596CDBFDEBFDF91CF9181
:102A00001F910F91FF90EF90DF90CF90BF90AF900C
:102A10009F908F907F906F905F904F900895182FA8
:102A2000E9CF182FE7CF1092500080E00895E0E53D
:102A3000F0E09081997F8670982B90830895E0E074
:102A4000FAE08FE599E086A397A384E08093E605FA
:102A500083E0818386A197A19695879580A791A70A
:102A60008181806181838081816080830895E0E03D
:102A7000FBE081E0858320E43CE92487358793E00F
:102A800090839683E0E1FBE0858340EC5DE544873D
:102A9000558780838683A0E1B1E04EE113964C9385
:102AA0001397E0E2FBE085836FEF7FEF6487758724
:102AB0009083868313964C93E0E3FBE08583248721
:102AC00035879083868380E008950F931F93611567
:102AD00071058105910509F46AC0209122412223E4
:102AE000F1F1009127411091284120912941309125
:102AF0002A41012B022B032B21F10091234110913C
:102B000024412091254130912641061717072807B7
:102B1000390709F448C010921A0B10921B0B6093EE
:102B200023417093244180932541909326416093E3
:102B30002741709328418093294190932A4180E056
:102B40004BC01092150B109222411092234110920B
:102B50002441109225411092264180E03DC0009111
:102B6000234110912441209125413091264106179F
:102B7000170728073907B9F010921A0B10921B0B90
:102B80006093234170932441809325419093264183
:102B900060932741709328418093294190932A4163
:102BA00081E08093224181E08093150B15C0109243
:102BB000150B109222411092234110922441109241
:102BC00025411092264110922741109228411092DF
:102BD000294110922A4180E01F910F9108951F9280
:102BE0000F920FB60F9211248F939F938091260B13
:102BF00080FF1EC08091124090911340892B49F0B4
:102C000080911240909113400197809312409093CD
:102C100013408091144090911540892B49F0809188
:102C20001440909115400197809314409093154063
:102C300083E08093260B9F918F910F900FBE0F9092
:102C40001F9018951F920F920FB60F9211248F9319
:102C50009F93AF93BF938091160B80FF0EC080911E
:102C6000274190912841A0912941B0912A41009794
:102C7000A105B10571F41092150B83E08093160B3A
:102C8000BF91AF919F918F910F900FBE0F901F90AA
:102C900018950197A109B109809327419093284184
:102CA000A0932941B0932A41E8CFE0E0FBE01582F0
:102CB0001082E0E1FBE015821082E0E2FBE0158289
:102CC0001082E0E3FBE01582108280E00895BF925D
:102CD000CF92DF92EF92FF920F931F93CF93DF93E8
:102CE000B62E11E0009789F0FC01C080D180E2800F
:102CF000F380B701A601415E57466543710911E0B3
:102D00004F31514A6740710558F0812FDF91CF91C3
:102D10001F910F91FF90EF90DF90CF90BF9008959B
:102D2000EC0100E02B2D50E040E0C701B6010E940D
:102D3000A413182F81110CC088819981AA81BB81AD
:102D400080931E4090931F40A0932040B093214059
:102D5000688179818A819B8102E32B2D41E050E0DB
:102D60000E94A4138111D1CF488159816A817B814E
:102D700040931E4050931F40609320407093214029
:102D8000182FC3CF60931E4070931F408093204044
:102D9000909321400E94CD160895CF93DF930E9417
:102DA000960840E050E0BA0180E490E00E945111A2
:102DB000C2EDD0E0811109C063E070E090E080E0F6
:102DC0000E944512EC01892B21F0CE01DF91CF91B9
:102DD000089560E090E080E00E940512EC01892BEC
:102DE000A1F763E070E081E090E00E944512EC0101
:102DF000892B59F760E081E090E00E940512EC0118
:102E0000892B19F760E08EE190E40E94671681112A
:102E1000DCCF81E080932B41D8CF0E94481708F483
:102E200081E008950E9419176894B1110C948F17CE
:102E300008950E94741788F09F5798F0B92F99272A
:102E4000B751B0F0E1F0660F771F881F991F1AF095
:102E5000BA95C9F714C0B13091F00E948E17B1E055
:102E600008950C948E17672F782F8827B85F39F054
:102E7000B93FCCF3869577956795B395D9F73EF42E
:102E800090958095709561957F4F8F4F9F4F0895D6
:102E9000990F0008550FAA0BE0E8FEEF161617066B
:102EA000E807F907C0F012161306E407F50798F0D3
:102EB000621B730B840B950B39F40A2661F0232BEC
:102EC000242B252B21F408950A2609F4A140A69568
:102ED0008FEF811D811D089557FD9058440F551F98
:102EE00059F05F3F71F04795880F97FB991F61F08C
:102EF0009F3F79F087950895121613061406551F03
:102F0000F2CF4695F1DF08C0161617061806991F6E
:102F1000F1CF86957105610508940895E894BB2763
:102F200066277727CB0197F908950E94481708F480
:102F30008FEF0895DB018F939F930E94E417BF9159
:102F4000AF91A29F800D911DA39F900DB29F900DF8
:102F500011240895A1E21A2EAA1BBB1BFD010DC06E
:102F6000AA1FBB1FEE1FFF1FA217B307E407F50739
:102F700020F0A21BB30BE40BF50B661F771F881F15
:102F8000991F1A9469F760957095809590959B01AB
:102F9000AC01BD01CF010895EE0FFF1F0024001CFE
:102FA0000BBE0790F691E02D0994A29FB001B39F4C
:102FB000C001A39F700D811D1124911DB29F700D42
:102FC000811D1124911D08950E94D517A59F900D74
:102FD000B49F900DA49F800D911D112408950F930F
:102FE0001F93CF93DF938230910510F482E090E03D
:102FF000E0912E41F0912F4130E020E0B0E0A0E0E0
:10300000309799F42115310509F44AC0281B390B72
:1030100024303105D8F58A819B816115710589F1CC
:10302000FB0182839383FE0111C0408151810281A3
:10303000138148175907E0F04817590799F410977A
:1030400061F012960C93129713961C933296CF014F
:10305000DF91CF911F910F91089500932E4110930E
:103060002F41F4CF2115310551F04217530738F0A5
:10307000A901DB019A01BD01DF01F801C1CFEF0118
:10308000F9CF80932E4190932F41CDCFFE01E20FD7
:10309000F31F819391932250310928833983D7CF2D
:1030A00020912C4130912D41232B41F4209102405D
:1030B0003091034020932C4130932D4120910040CA
:1030C000309101402115310541F42DB73EB74091B3
:1030D000044050910540241B350BE0912C41F091A8
:1030E0002D41E217F307A0F42E1B3F0B28173907D9
:1030F00078F0AC014E5F5F4F2417350748F04E0F54
:103100005F1F40932C4150932D41819391939FCF0A
:10311000F0E0E0E09CCFCF93DF930097E9F0FC0173
:10312000329712821382A0912E41B0912F41ED016E
:1031300030E020E01097A1F420813181820F931FAD
:1031400020912C4130912D412817390709F061C099
:10315000E0932C41F0932D41DF91CF910895EA0146
:10316000CE17DF07E8F54A815B819E0141155105C5
:10317000B1F7E901EA83FB8349915991C40FD51F47
:10318000EC17FD0761F4808191810296840F951FF1
:10319000E90188839983828193818A839B83F0E00C
:1031A000E0E012968D919C9113970097B9F52D91BF
:1031B0003C911197CD010296820F931F20912C41D3
:1031C00030912D412817390739F6309751F5109273
:1031D0002E4110922F41A0932C41B0932D41BCCF92
:1031E000C283D38340815181840F951FC817D907AB
:1031F00061F44E5F5F4F88819981480F591F40836A
:1032000051838A819B81828393832115310509F043
:10321000B0CFE0932E41F0932F419ECFFD01DC0112
:10322000C0CF12821382D7CF0F931F93CF93DF9318
:10323000CDB7DEB72E97CDBFDEBF0D891E8986E0E4
:103240008C8309831A838FEF9FE78D839E83AE0162
:10325000475E5F4F6F89788DCE0101960E943E19BF
:103260002F813885020F131FF80110822E96CDBFD3
:10327000DEBFDF91CF911F910F9108952F923F9262
:103280004F925F926F927F928F929F92AF92BF9276
:10329000CF92DF92EF92FF920F931F93CF93DF9322
:1032A000CDB7DEB72B97CDBFDEBF7C013B018A01D6
:1032B000FC0116821782838181FFDAC1CE0101965B
:1032C0005C01F7019381F30193FD859193FF819157
:1032D0003F01882309F453C1853239F493FD859168
:1032E00093FF81913F01853229F4B70190E00E945C
:1032F000511BE7CF912C212C312CFFE1F31538F035
:103300008B3211F190F4803209F1833229F137FCCC
:103310003CC020ED280F2A3050F536FE20C08AE050
:10332000989E200D1124922E06C08D3291F080338C
:1033300071F7689430F8F30193FD859193FF8191C3
:103340003F018111DACF21C0689431F8689432F8D6
:10335000F2CF689433F8EFCF689434F8ECCFEAE01A
:103360002E9E200D1124222E689435F8E4CF8E3243
:1033700029F436FC04C1689436F8DDCF8C3619F494
:10338000689437F8D8CF8836B1F2982F9F7D95543E
:103390009330E0F08336A1F18337C1F1833509F032
:1033A00063C02801F2E04F0E511CF801C080D180AB
:1033B000692D70E036FC02C06FEF7FEFC6010E94FE
:1033C0003B1B4C01689437F882010AC00C5F1F4F09
:1033D000FFE3F98388248394912C6501E89437F8FE
:1033E00033FE2DC0522C8114910471F5552009F43F
:1033F00068CFB70180E290E00E94511B5A94F6CF4B
:10340000F801808189830E5F1F4FE4CF2801F2E02D
:103410004F0E511CF801C080D180692D70E036FC40
:1034200002C06FEF7FEFC6010E94461B4C01820174
:10343000D5CFB70180E290E00E94511B2A94281456
:10344000190409F0B0F7CECFF60137FC859137FEAD
:1034500081916F01B70190E00E94511B51105A9465
:10346000F1E08F1A9108BFCF843619F0893609F040
:1034700077C0F80137FE6BC06081718182819381D2
:103480000C5F1F4FF32DFF763F2E97FF09C09095DD
:103490008095709561957F4F8F4F9F4F689437F857
:1034A0002AE030E0A5010E94811BC82ECA188C2C8E
:1034B000432C36FE0CC0E89440F8C91440F434FEA6
:1034C00005C032FC03C0F32DFE7E4F2E892C44FE36
:1034D000A7C0FE01EC0DF11D8081803309F099C079
:1034E000242D297E422E842D8870582E43FCA7C09F
:1034F00040FEA1C09C2C821418F42C0C922C98181D
:1035000044FEA3C0B70180E390E00E94511B42FE3D
:1035100009C088E790E041FE02C088E590E0B7016D
:103520000E94511BC91408F49CC0CA94D12C9FEF6F
:10353000C91AD90ACA0CDB1CF60182916F01B701C6
:1035400090E00E94511BAC14BD04B1F74FCF6081D5
:103550007181072E000C880B990B0E5F1F4F92CFC5
:10356000D32CE894D4F82AE030E08537C9F1232D34
:10357000297FD22E8F3691F1D8F4883539F1F701B1
:10358000868197812B96CDBFDEBFDF91CF911F91B2
:103590000F91FF90EF90DF90CF90BF90AF909F90F2
:1035A0008F907F906F905F904F903F902F900895F5
:1035B000803749F0883719F7D4FE02C06894D2F8F2
:1035C00020E130E00DC06894D4F8F6CF34FE03C09B
:1035D000822F8660D82E20E132E002C028E030E061
:1035E000F801D7FE0FC060817181828193810C5FE9
:1035F0001F4FA5010E94811BC82ECA183D2CE894BC
:1036000037F855CF6081718190E080E00E5F1F4FE9
:10361000F0CF42FC02C0839466CF8394839463CF3F
:10362000842D867809F45FCFF6CFB70180E290E071
:103630000E94511B83948214C0F3512C61CF522CF1
:103640005818821408F45CCFF8CF842D867809F4DA
:1036500069CF8BE241FE80E247FC8DE2B70190E04A
:103660005FCFB70180E390E00E94511B9A945ACF3C
:103670008FEF9FEF87CFFC010590615070400110E4
:10368000D8F7809590958E0F9F1F0895FC0161508B
:10369000704001900110D8F7809590958E0F9F1F74
:1036A00008950F931F93CF93DF93182F092FEB01EA
:1036B0008B8181FD09C01FEF0FEF812F902FDF91CC
:1036C000CF911F910F91089582FF14C02E813F81E9
:1036D0008C819D81281739073CF4E881F981CF015D
:1036E00001968883998310838E819F8101968E83B2
:1036F0009F83E3CFE885F985812F0995892BA1F375
:10370000DACFFA01AA27283051F1203181F1E8946B
:103710006F936E7F6E5F7F4F8F4F9F4FAF4FB1E0C4
:103720003ED0B4E03CD0670F781F891F9A1FA11DBF
:10373000680F791F8A1F911DA11D6A0F711D811DC0
:10374000911DA11D20D009F468943F912AE0269F85
:1037500011243019305D3193DEF6CF010895462FE4
:103760004770405D4193B3E00FD0C9F7F6CF462FC5
:103770004F70405D4A3318F0495D31FD405241932E
:1037800002D0A9F7EACFB4E0A695979587957795EB
:103790006795BA95C9F700976105710508959B0172
:1037A000AC010A2E06945795479537952795BA95FB
:1037B000C9F7620F731F841F951FA01D089510E0A5
:1037C000C6E7D0E004C0FE010E94CC172196C8379E
:0837D000D107C9F7F894FFCFFF
:1037D800000034412000010101066400E803D0071D
:1037E8000100C800C80060EA000040787D0120049C
:1037F8003600257500F0006009600904000500071F
:023808000000BE
:00000001FF
