:100000000C9431010C945B010C945B010C94DE01A7
:100010000C945B010C945B010C944E080C945B01F6
:100020000C945B010C945B010C945B010C945B01E0
:100030000C9461030C940F510C945B010C945B01C4
:100040000C945B010C945B010C945B010C945B01C0
:100050000C945B010C945B010C945B010C945B01B0
:100060000C9493020C945B010C945B010C945B0167
:100070000C945B010C945B010C94B7500C945B01E5
:100080000C945B010C945B010C9479080C945B015B
:100090000C945B010C945B010C945B010C945B0170
:1000A0000C945B010C94693F0C945B010C945B0114
:1000B0000C945B010C945B010C945B010C945B0150
:1000C0000C945B010C945B010C945B010C945B0140
:1000D0000C945B010C945B010C945B010C945B0130
:1000E0000C945B010C945B0105A84CCDB2D44EB9C5
:1000F0003836A9020C50B9918688083CA6AAAA2ACB
:10010000BE000000803F08000000BE922449123E5D
:10011000ABAAAA2ABECDCCCC4C3E00000080BEAB20
:10012000AAAAAA3E00000000BF000000803F000015
:10013000000000084178D3BB4387D1133D190E3C22
:10014000C3BD4282AD2B3E68EC8276BED98FE1A959
:100150003E4C80EFFFBE01C4FF7F3F000000000067
:1001600000407A10F35A00A0724E18090010A5D46E
:10017000E80000E87648170000E40B54020000CACB
:100180009A3B000000E1F505000080969800000011
:1001900040420F000000A086010000001027000070
:1001A0000000E803000000006400000000000A00F6
:1001B000000000000100000000002C76D888DC67F9
:1001C0004F0823DFC1DFAE59E1B1B796E5E3E45351
:1001D000C63AE651997696E8E6C28426EB898C9B6E
:1001E00062ED407C6FFCEFBC9C9F40F2BAA56FA50E
:1001F000F490055A2AF75C936B6CF9676DC11BFC90
:10020000E0E40D47FEF520E6B500D0ED902E0300AA
:10021000943577050080841E080000204E0A0000F7
:1002200000C80C333333330F986E12831141EF8DB6
:100230002114893BE65516CFFEE6DB18D1844B38F6
:100240001BF77C1D901DA4BBE424203284725E2227
:100250008100C9F124ECA1E53D272C1A121C391AA2
:100260001F1C11241FBECFEFCDBFDFE7DEBF11E49F
:10027000A0E0B0E4E8E9FAEB00E00BBF02C00790B1
:100280000D92A83DB107D9F724E4A8EDB1E401C06F
:100290001D92A132B207E1F711E0CFE2D1E004C034
:1002A0002197FE010E946056CD32D107C9F70E9406
:1002B000110A0C943F5D0C9400000FB6F894609303
:1002C0001D4470931E4480931F44909320440FBE9E
:1002D0000895FC010FB6F89460911D4470911E447E
:1002E00080911F44909120440FBE309721F060838D
:1002F00071838283938308958F938FB78F93F8943C
:1003000080911D448F5F80931D4480911E448F4FC8
:1003100080931E4480911F448F4F80931F4480918F
:1003200020448F4F809320448F918FBF8F910895E9
:10033000CF93DF93CDB7DEB70E9446280000DF9150
:10034000CF910895CF93DF9300D0CDB7DEB78983E7
:100350006A838A818823B1F080E090E0FC0181818A
:10036000482F8981282F30E081E090E002C0880F7B
:10037000991F2A95E2F7242F282B80E090E0FC01BA
:10038000218316C080E090E0FC018181482F8981A3
:10039000282F30E081E090E002C0880F991F2A9555
:1003A000E2F78095242F282380E090E0FC01218350
:1003B00000000F900F90DF91CF9108951F920F9240
:1003C0000FB60F9211240BB60F922F933F934F93BA
:1003D0005F936F937F938F939F93AF93BF93EF93AD
:1003E000FF93CF93DF931F92CDB7DEB780E491E008
:1003F000FC01838189838981882F90E0817099270E
:10040000892B09F474C00E947C0180910640909170
:10041000074021E0892B09F420E0222349F0809154
:1004200006409091074001978093064090930740C3
:100430008091094090910A40A0910B40B0910C40EE
:1004400021E0892B8A2B8B2B09F420E0222399F0C1
:100450008091094090910A40A0910B40B0910C40CE
:100460000197A109B1098093094090930A40A09394
:100470000B40B0930C4081E0809344428091454210
:1004800090914642A0914742B09148420196A11DE9
:10049000B11D8093454290934642A0934742B0934A
:1004A00048428091454290914642A0914742B09186
:1004B000484221E00297A105B10509F020E022237E
:1004C00019F081E080933F428091454290914642ED
:1004D000A0914742B091484221E00597A105B1059E
:1004E00009F020E0222319F081E08093494280E462
:1004F00091E023E0FC01238300000F90DF91CF9176
:10050000FF91EF91BF91AF919F918F917F916F91EB
:100510005F914F913F912F910F900BBE0F900FBEA7
:100520000F901F9018951F920F920FB60F921124E3
:100530000BB60F922F933F934F935F936F937F93DD
:100540008F939F93AF93BF93EF93FF93CF93DF93DB
:10055000CDB7DEB72597CDBFDEBF80E096E0FC01CA
:1005600085858B838B81882F90E081709927892BDB
:1005700009F489C080E096E0FC01808991898C8330
:100580009D8319821A8280912340882321F08C81D7
:100590009D8189839A838091BB429091BC4221E0E6
:1005A000892B09F420E0222329F18091BE4291E0B9
:1005B000980F9093BE42882F90E0880F991F87571D
:1005C0009D4BFC018081918129813A81820F931F8B
:1005D00089839A838091BE42893111F41092BE4280
:1005E0008091BB429091BC4201978093BB42909313
:1005F000BC420FC09091BD4281E0992309F480E094
:10060000882339F08091BD4281508093BD42198288
:100610001A82809121409091224021E0059708F4B0
:1006200020E0222389F080912140909122409C017A
:100630002450310989819A8102C0880F991F2A9517
:10064000E2F789839A8314C08091214090912240DF
:10065000049799231CF49195819591099C018981B6
:100660009A8102C0969587952A95E2F789839A83A5
:1006700089819A810E94A8248C819D81BC018AEF86
:1006800092E40E94FB3B80E096E023E0FC0125879A
:1006900000002596CDBFDEBFDF91CF91FF91EF9196
:1006A000BF91AF919F918F917F916F915F914F918A
:1006B0003F912F910F900BBE0F900FBE0F901F9088
:1006C00018951F920F920FB60F9211240BB60F922E
:1006D0002F933F934F935F936F937F938F939F934A
:1006E000AF93BF93EF93FF93CF93DF93CDB7DEB775
:1006F0002F97CDBFDEBF80E09BE0FC0186818E831B
:100700008E81882F90E081709927892B09F4A8C4E5
:100710001F821886809124408F5F8093244020910F
:1007200024408BEA289F812D1124982F9695969529
:10073000892F880F890F880F922F981B992309F012
:10074000E9C319821A821B8287E189870E941120DE
:10075000982F898589238F830E94C51F0E941120AD
:10076000982F898589238887888582708A878885DC
:1007700081708B87888584708C87888580718D8750
:1007800081E09D85992309F080E080933C42882395
:1007900031F08CE390E080930640909307401B82F9
:1007A0008A85882371F48B85882359F060E086E080
:1007B0000E94A20161E085E00E94A20181E089839C
:1007C00025C08B85882371F48A85882359F060E0E1
:1007D00085E00E94A20161E086E00E94A20181E022
:1007E0008A8314C060E085E00E94A20160E086E098
:1007F0000E94A20119821A828A85882329F48B8596
:10080000882311F481E001C080E08B8381E09C8526
:10081000992309F080E080937142898180936E4230
:100820008A8180936F428B81809370429F818885FB
:10083000981709F40AC198858F8189278E8787E0E8
:1008400090E080931F40909320408CE390E0809351
:1008500006409093074084E893E0A0E0B0E08093E6
:10086000094090930A40A0930B40B0930C408E85B2
:10087000082E000C990B82709927892B79F08A85B4
:10088000882339F081E090E08093274090932840BE
:100890000BC0109227401092284006C082E090E0E2
:1008A00080932740909328408E85082E000C990B4A
:1008B00081709927892B79F08B85882339F081E025
:1008C00090E08093294090932A400BC010922940D9
:1008D00010922A4006C082E090E0809329409093D5
:1008E0002A408B818823F1F080916842909169427F
:1008F00001968093684290936942109252421092FE
:1009000053421092624210926342109254421092EB
:100910005542109264421092654210922540109206
:10092000264064C0809158429091594221E0892B21
:1009300009F420E0222389F088EE93E08093BB4203
:100940009093BC42109258421092594281E090E03C
:10095000809325409093264049C081E080933040A9
:100960008091274090912840019771F488EE93E0A0
:100970008093BB429093BC421092524210925342D9
:1009800081E080932D400FC08091274090912840B6
:10099000892B49F480916242909163420196809341
:1009A0006242909363428091294090912A4001973E
:1009B00071F488EE93E08093BB429093BC42109216
:1009C00054421092554281E080932E400FC0809196
:1009D000294090912A40892B49F48091644290915A
:1009E0006542019680936442909365428E85082EFD
:1009F000000C990B84709927892B09F423C18091ED
:100A00007142882371F0809166429091674201960D
:100A1000809366429093674210922B4010922C4034
:100A200011C188EE93E08093BB429093BC42109238
:100A300056421092574281E080932F4081E090E02F
:100A400080932B4090932C40FDC08B81882309F428
:100A500041C090916C4281E08927882331F08091D8
:100A60003040882311F081E001C080E0882309F440
:100A7000ABC0809158429091594221E0019609F40F
:100A800020E0222349F080915842909159420196EA
:100A90008093584290935942809158429091594284
:100AA00021E08436910508F420E0222309F48CC06B
:100AB00081E080936C4210925842109259421092F9
:100AC0006842109269421092304010922D4010926C
:100AD0002E407AC089818823D1F190916A4281E0C9
:100AE0008927882331F080912D40882311F081E0FF
:100AF00001C080E0882359F1809152429091534285
:100B000021E0019609F420E0222349F0809152422D
:100B10009091534201968093524290935342809118
:100B200052429091534221E08436910508F420E02E
:100B3000222369F081E080936A421092524210921F
:100B40005342109262421092634210922D408A8169
:100B50008823D1F190916B4281E08927882331F07D
:100B600080912E40882311F081E001C080E088232D
:100B700059F1809154429091554221E0019609F437
:100B800020E0222349F080915442909155420196F1
:100B90008093544290935542809154429091554293
:100BA00021E08436910508F420E0222369F081E0F9
:100BB00080936B42109254421092554210926442BC
:100BC0001092654210922E40809171428823D1F19B
:100BD00090916D4281E08927882331F080912F40E8
:100BE000882311F081E001C080E0882359F18091D1
:100BF00056429091574221E0019609F420E02223C9
:100C000049F0809156429091574201968093564206
:100C100090935742809156429091574221E08436FA
:100C2000910508F420E0222369F081E080936D4271
:100C300010925642109257421092664210926742AA
:100C400010922F408091BF429091C042892B71F148
:100C50008091BF429091C04201978093BF42909390
:100C6000C0428091BF429091C042892B09F044C09C
:100C70008091684290916942892B41F0809168424D
:100C800090916942039710F481E001C080E08823CD
:100C900041F08091684290916942809360429093C4
:100CA0006142109268421092694226C08091684267
:100CB00090916942019741F480912540909126409E
:100CC000019711F481E001C080E0882339F082E3CC
:100CD00090E08093BF429093C0420EC080916842E2
:100CE0009091694221E0039708F420E0222321F04B
:100CF00010926842109269428091C1429091C24222
:100D0000892B71F18091C1429091C24201978093E9
:100D1000C1429093C2428091C1429091C242892BBC
:100D200009F044C08091624290916342892B41F066
:100D30008091624290916342039710F481E001C078
:100D400080E0882341F080916242909163428093D9
:100D50005A4290935B42109262421092634226C0C4
:100D60008091624290916342019741F480912740C3
:100D700090912840019711F481E001C080E0882320
:100D800039F082E390E08093C1429093C2420EC05A
:100D9000809162429091634221E0039708F420E041
:100DA000222321F010926242109263428091C3424A
:100DB0009091C442892B71F18091C3429091C442B9
:100DC00001978093C3429093C4428091C342909113
:100DD000C442892B09F044C08091644290916542DD
:100DE000892B41F08091644290916542039710F401
:100DF00081E001C080E0882341F0809164429091BD
:100E0000654280935C4290935D42109264421092DE
:100E1000654226C08091644290916542019741F4F9
:100E20008091294090912A40019711F481E001C0FE
:100E300080E0882339F082E390E08093C34290936E
:100E4000C4420EC0809164429091654221E00397B4
:100E500008F420E0222321F01092644210926542AF
:100E60008091C5429091C642892B71F18091C54213
:100E70009091C64201978093C5429093C64280915B
:100E8000C5429091C642892B09F044C080916642C8
:100E900090916742892B41F0809166429091674220
:100EA000049710F481E001C080E0882341F0809134
:100EB00066429091674280935E4290935F421092A7
:100EC00066421092674226C08091664290916742C6
:100ED000019741F480912B4090912C40019711F49F
:100EE00081E001C080E0882339F082E390E08093C4
:100EF000C5429093C6420EC080916642909167426F
:100F000021E0039708F420E0222321F010926642AA
:100F100010926742809142429091434221E0892B96
:100F200009F420E0222309F49BC080914242909171
:100F30004342892F881F8827881F8F8780914242CC
:100F40009091434299231CF49195819591098C834A
:100F50009D832091C7423091C84280914242909136
:100F6000434241E02817390709F040E0442371F17A
:100F70008091C9429091CA42892B49F08091C9421F
:100F80009091CA4201978093C9429093CA4280913E
:100F9000C9429091CA42892B09F04BC084E893E082
:100FA000A0E0B0E08093094090930A40A0930B40EA
:100FB000B0930C408C819D8102972CF084E090E0EE
:100FC0008C839D8336C01C821D8233C08C819D81A1
:100FD00004974CF180917142882351F010922F4078
:100FE00010925642109257421092664210926742F7
:100FF0008F85882351F08091404290914142019722
:10100000809340429093414209C080914042909128
:101010004142019680934042909341428C819D8150
:1010200004978C839D838BE490E08093C9429093D6
:10103000CA428F85882331F08C819D81919581955D
:10104000910902C08C819D818093424290934342DA
:1010500080914242909143428093C7429093C8420C
:1010600080E09BE023E0FC01268300002F96CDBFAB
:10107000DEBFDF91CF91FF91EF91BF91AF919F9133
:101080008F917F916F915F914F913F912F910F9031
:101090000BBE0F900FBE0F901F9018951F920F92CE
:1010A0000FB60F9211240BB60F922F938F939F932D
:1010B000EF93FF93CF93DF931F92CDB7DEB780E01E
:1010C00090E0FC018381898380E090E02FEFFC01B8
:1010D000238300000F90DF91CF91FF91EF919F91BB
:1010E0008F912F910F900BBE0F900FBE0F901F90FE
:1010F00018951F920F920FB60F9211240BB60F92F4
:101100002F938F939F93AF93BF93EF93FF93CF93BF
:10111000DF9300D01F92CDB7DEB784E190E0FC01F1
:101120008381898380913F42882309F45BC0898150
:10113000882F90E088719927892B09F453C080EAA1
:1011400094E0FC018085882F90E095958795959592
:1011500087959595879583708A838091CB42882F58
:1011600090E0880F991F880F991F982F8A81892BEB
:101170008B838B81882F90E0092E000CAA0BBB0B70
:101180000197A109B1098E309105A105B10538F586
:101190008353974FFC010C946056DB08E508EF0879
:1011A000E508EF08EF08DB08DB08EF08EF08E508C3
:1011B000EF08E508DB088091424290914342019696
:1011C00080934242909343420AC080914242909160
:1011D00043420197809342429093434200008A81A8
:1011E0008093CB4280EA94E028E1FC012187000053
:1011F0002396CDBFDEBFDF91CF91FF91EF91BF91DD
:10120000AF919F918F912F910F900BBE0F900FBEBA
:101210000F901F9018950F931F93CF93DF931F92FA
:10122000CDB7DEB719828981893108F051C0898133
:10123000882F90E0092E000CAA0BBB0BBC01CD013E
:101240000E941054DC01CB012BED3FE049EC50E44F
:10125000BC01CD010E946A55DC01CB0120E030E0E9
:1012600048EC51E4BC01CD010E946653DC01CB0186
:10127000BC01CD010E94D755DC01CB0120E030E05C
:1012800040E751E4BC01CD010E946A55DC01CB016D
:1012900020E030E040E751E4BC01CD010E94F05273
:1012A000DC01CB012981022F10E0BC01CD010E949D
:1012B000DF53DC01CB019C01C801880F991F8757C0
:1012C0009D4BFC012083318389818F5F8983ABCF64
:1012D00000000F90DF91CF911F910F910895CF9350
:1012E000DF9300D0CDB7DEB788E892E40E94ED2E00
:1012F00060E083E00E94A20160E087E00E94A2011A
:1013000084E690E089839A8389819A81892B79F098
:1013100080913C42882331F089819A8101978983A9
:101320009A83F2CF84E690E089839A83EDCF000020
:101330000F900F90DF91CF910895CF93DF9300D05E
:10134000CDB7DEB789839A831092CE421092CF42F6
:1013500089819A81079761F48091CC429091CD4226
:10136000880F991F82539D4BFC018081918154C04D
:1013700089819A81892B29F41092CC421092CD4216
:1013800040C089819A81069781F48091CC429091E6
:10139000CD42892BB1F18091CC429091CD42019701
:1013A0008093CC429093CD422CC08091CC429091BE
:1013B000CD42880F991F82539D4BFC018081918102
:1013C00029813A8128173907E1F08091CC42909128
:1013D000CD424397B4F48091CC429091CD42019696
:1013E0008093CC429093CD428091CC429091CD425B
:1013F000880F991F82539D4B29813A81FC012083DC
:1014000031838091CC429091CD42880F991F8253B5
:101410009D4BFC01808191810F900F90DF91CF91C6
:101420000895EF92FF920F931F93CF93DF93CDB761
:10143000DEB7CF55D109CDBFDEBF0E940B0919829F
:101440001A821B821C821D821E821F8218861986A8
:101450001A861B861C861D861E861F868FEF888B2C
:10146000198A1A8A1B8A1C8A1D8A1E8A81E08F8B20
:10147000198E0E9498010E94544E8078888F68EEE1
:1014800073E080E090E00E94FC4F882329F0888D73
:10149000882311F081E001C080E0882329F00E94B8
:1014A000544E8078888FEBCF88E892E40E9406370C
:1014B00088E892E40E9402308091594090915A400D
:1014C000A0915B40B0915C40BC01CD010E949D5158
:1014D0008EA39FA38EA19FA1892B49F080913D42AD
:1014E00090913E42826080933D4290933E42809133
:1014F0005340909154400E94164560E873E48DE695
:1015000098E30E945D0180E090E00E946901DC01A7
:10151000CB0188A799A7AAA7BBA760ED77E080E0D9
:1015200090E00E94FC4F882389F080E090E00E94C8
:1015300069019B01AC0188A599A5AAA5BBA5821745
:101540009307A407B50711F481E001C080E0882368
:1015500009F0E3CF80E090E00E9469019B01AC01BB
:1015600061E088A599A5AAA5BBA582179307A40742
:10157000B50709F060E0662359F080913D429091F3
:101580003E42816080933D4290933E420E9472446D
:1015900062E070E082E792E40E941E2580913D4265
:1015A00090913E4221E0892B09F420E0222399F119
:1015B00041E069E070E08DE792E40E9431416DE620
:1015C00070E48EE792E40E948A2380913D429091DC
:1015D0003E428270992721E0892B09F420E02223E2
:1015E00031F066E770E48EE792E40E948A238091EE
:1015F0003D4290913E428170992721E0892B09F468
:1016000020E0222309F4CDC06FE770E48EE792E476
:101610000E948A23C6C080E096E027E0FC01208774
:101620001CA61DA6CE018E5B9F4FFC01108211826D
:101630001282138260E081E00E94C41B1A8E1B8E0E
:101640008A8D9B8D84369105D4F50E94461A0E949E
:10165000591A982F81E08927882309F0F8CF80E074
:1016600096E0FC01808991898CA79DA78CA59DA5FA
:10167000CC01A0E0B0E0BC01CD010E940E547B0182
:101680008C01CE018E5B9F4FFC0180819181A281F4
:10169000B3819C01AD01C801B7010E94F052DC0189
:1016A000CB019E012E5B3F4FF90180839183A28382
:1016B000B3838A8D9B8D01968A8F9B8FC1CFCE017C
:1016C0008E5B9F4FFC0180819181A281B38120E0DC
:1016D00030E048EC52E4BC01CD010E946653DC01CD
:1016E000CB019E012E5B3F4FF90180839183A28342
:1016F000B38360E070E08DE792E40E94184168E8EF
:1017000070E48EE792E40E948A2361E970E48EE738
:1017100092E40E948A23CE018E5B9F4FBC0181E040
:101720000E942B18292F2F938F938CE990E4892FF7
:101730008F938CE990E48F931F928DE08F9388EDC7
:1017400091E4892F8F9388ED91E48F930E94D8576D
:101750002DB73EB7285F3F4FCDBFDEBF68ED71E4C8
:101760008EE792E40E948A2386EA90E4892F8F9381
:1017700086EA90E48F938BEA90E4892F8F938BEA2B
:1017800090E48F9388ED91E4892F8F9388ED91E415
:101790008F930E940F580F900F900F900F900F9003
:1017A0000F9068ED71E48EE792E40E948A2380E056
:1017B00096E022E0FC01208761E080E00E94C41BEB
:1017C0000E94461A80914942882309F41BC387E08E
:1017D00090E00E949D098EA79FA78F89882339F4E6
:1017E0002EA53FA589819A812817390719F11F8AEB
:1017F0008EA59FA589839A8382E792E40E942D2675
:101800001C861D861E861F868FEF888B8FEF90E0CB
:10181000898B9A8B8FEF8D831B8A1C8A1D8A1E8A67
:101820008FEF8A878EA59FA5892B21F488E892E403
:101830000E94ED2E8EA59FA5833091053CF481304A
:1018400091050CF0BEC1892B49F0DCC283309105B3
:1018500009F450C1049709F4B1C2D4C2809117436E
:1018600090911843892B09F051C080915940909173
:101870005A40A0915B40B0915C4061E02C853D8571
:101880004E855F85281739074A075B0709F460E032
:10189000662309F486C08091594090915A40A091E6
:1018A0005B40B0915C408C879D87AE87BF878C85FD
:1018B0009D85AE85BF859E012A5B3F4FAC01BD0172
:1018C000C9010E946552CE018A5B9F4F292F2F9339
:1018D0008F9384EB90E4892F8F9384EB90E48F9324
:1018E00088ED91E4892F8F9388ED91E48F930E9486
:1018F0000F580F900F900F900F900F900F9068ED72
:1019000071E48EE792E40E948A234BC09D818C8112
:10191000981709F446C08C818D838091594090912D
:101920005A40A0915B40B0915C408C879D87AE8708
:10193000BF878C859D85AE85BF859E012A5B3F4F05
:10194000AC01BD01C9010E9465528D81882F90E0D4
:1019500001969E012A5B3F4F432F4F932F93292FD0
:101960002F938F938DEB90E4892F8F938DEB90E4E1
:101970008F931F928DE08F9388ED91E4892F8F9341
:1019800088ED91E48F930E94D8572DB73EB7265F1C
:101990003F4FCDBFDEBF68ED71E48EE792E40E9459
:1019A0008A23809108409889981761F180910840B6
:1019B000888B80910840882F90E02AE030E0A901D0
:1019C000481B590BCA01292F2F938F9388EC90E461
:1019D000892F8F9388EC90E48F9388ED91E4892F81
:1019E0008F9388ED91E48F930E940F580F900F9082
:1019F0000F900F900F900F9068ED71E48EE792E4D6
:101A00000E948A23809121409091224041E02989BF
:101A10003A892817390709F440E0442331F18091CD
:101A2000214090912240898B9A8B8A898F93898952
:101A30008F9382ED90E4892F8F9382ED90E48F93C2
:101A400088ED91E4892F8F9388ED91E48F930E9424
:101A50000F580F900F900F900F900F900F9068ED10
:101A600071E48EE792E40E948A2380914E42909125
:101A70004F42A0915042B09151422B893C894D89EF
:101A80005E89281739074A075B0709F4B6C18091B8
:101A90004E4290914F42A0915042B09151428B8B57
:101AA0009C8BAD8BBE8B8E898F938D898F938C8908
:101AB0008F938B898F938BED90E4892F8F938BED90
:101AC00090E48F931F9287E08F9388ED91E4892FA4
:101AD0008F9388ED91E48F930E94D8578DB79EB76E
:101AE0000A96CDBFDEBF68ED71E48EE792E40E94F6
:101AF0008A2383C19A858B85981709F480C18B85C9
:101B00008A878CE0E2EEF0E4A8EDB1E401900D925A
:101B10008A95E1F768ED71E48EE792E40E948A23EA
:101B20008CEA91E4892F8F938CEA91E48F938EEE67
:101B300090E4892F8F938EEE90E48F9388ED91E45B
:101B4000892F8F9388ED91E48F930E940F580F9007
:101B50000F900F900F900F900F9068ED71E48EE74B
:101B600092E40E948A238B85282F30E0C901880FD8
:101B7000991F880F991F820F931F880F991F8658EE
:101B80009E4B292F2F938F938EEE90E4892F8F9366
:101B90008EEE90E48F9388ED91E4892F8F9388EDFA
:101BA00091E48F930E940F580F900F900F900F9019
:101BB0000F900F9068ED71E48EE792E40E948A2303
:101BC0001EC18C81853108F01C828C81882F90E0A9
:101BD000880F991F880F991F87539C4BFC018081A8
:101BE0009181A281B3818C8F9D8FAE8FBF8F8C8DA1
:101BF0009D8DAE8DBF8D81309940AD43B10548F4C8
:101C00008C8D9D8DAE8DBF8D803E9746A543B105D1
:101C100090F48C81882F90E0880F991F880F991F6E
:101C200087539C4BFC0110821182128213821C8EFE
:101C30001D8E1E8E1F8E9D818C81981771F42E81B2
:101C40003F81488559858C8D9D8DAE8DBF8D281720
:101C500039074A075B0709F4D4C08C818D838C8DCA
:101C60009D8DAE8DBF8D8E839F83A887B9878D8113
:101C7000882F90E00196292F2F938F9383EF90E484
:101C8000892F8F9383EF90E48F931F928DE08F9332
:101C900088ED91E4892F8F9388ED91E48F930E94D2
:101CA000D8572DB73EB7285F3F4FCDBFDEBF68ED99
:101CB00071E48EE792E40E948A238D81882F90E060
:101CC000880F991F880F991F87539C4BFC018081B7
:101CD0009181A281B3818C8F9D8FAE8FBF8F8C8DB0
:101CE0009D8DAE8DBF8D892B8A2B8B2B09F456C011
:101CF0008C8D9D8DAE8DBF8D9E012F5A3F4FAC01B7
:101D0000BD01C9010E9465528EA59FA5019701F5ED
:101D1000CE018F5A9F4F292F2F938F9381E091E40B
:101D2000892F8F9381E091E48F931F928DE08F93A1
:101D300088ED91E4892F8F9388ED91E48F930E9431
:101D4000D8572DB73EB7285F3F4FCDBFDEBF1FC06E
:101D5000CE018F5A9F4F292F2F938F938AE091E4C2
:101D6000892F8F938AE091E48F931F928DE08F9358
:101D700088ED91E4892F8F9388ED91E48F930E94F1
:101D8000D8574DB75EB7485F5F4FCDBFDEBF68ED38
:101D900071E48EE792E40E948A2333C08DE0E3E190
:101DA000F1E4A8EDB1E401900D928A95E1F768EDB8
:101DB00071E48EE792E40E948A2323C089E0E0E286
:101DC000F1E4A8EDB1E401900D928A95E1F768ED98
:101DD00071E48EE792E40E948A238DE0E9E2F1E467
:101DE000A8EDB1E401900D928A95E1F768ED71E4F8
:101DF0008EE792E40E948A2305C0000003C0000021
:101E000001C000008EE792E40E94672221E0892B46
:101E100009F420E0222309F44BC0CE01845A9F4FDD
:101E2000AC0168ED71E48EE792E40E94ED23CE01EF
:101E3000845A9F4FFC01808191810397C8F1809162
:101E4000D84188AB8091D94189AB88A980538AABAE
:101E500089A980538BAB4BA96AA982E792E40E94BF
:101E60003F26CE01845A9F4FFC01808191819C01C5
:101E700022503109CE01845A9F4FFC0120833183C7
:101E8000CE01845A9F4FFC0180819181AC016AEDA3
:101E900071E482E792E40E94DB26CE01845A9F4FD0
:101EA000AC0168ED71E48EE792E40E94ED23BFCFB0
:101EB0008091094090910A40A0910B40B0910C4054
:101EC00021E0892B8A2B8B2B09F020E02223F1F0D3
:101ED00087E090E00E949D0921E0049709F420E04A
:101EE000222329F084E090E00E949D090FC08EE734
:101EF00092E40E94672221E0892B09F020E022234E
:101F000029F00E946F0981E080934A428091064047
:101F10009091074021E0892B09F020E0222351F025
:101F20000E946F0961E083E00E94A20161E087E006
:101F30000E94A201809160429091614221E0892B30
:101F400009F420E0222391F0809160429091614257
:101F500021E0019709F020E0222321F480916042E2
:101F600090916142109260421092614280916C4265
:101F70008823A9F010926C4287E090E00E949D09AE
:101F800021E0892B09F020E0222329F083E090E072
:101F90000E949D0904C080E090E00E949D0980910C
:101FA0005A4290915B4221E0892B09F420E02223E0
:101FB00009F46BC080915A4290915B4221E00197F5
:101FC00009F020E0222321F480915A4290915B4253
:101FD00087E090E00E949D0921E0892B09F420E030
:101FE000222309F44DC01B828C81882F90E0880F3A
:101FF000991F880F991F87539C4BFC018081918109
:10200000A281B381892B8A2B8B2BA9F561E08C816E
:102010000E9481198C838C818F3F29F41092174381
:102020001092184328C0809117439091184301974C
:1020300011F58C81882F90E0880F991F880F991FC8
:1020400087539C4BFC0180819181A281B381809355
:10205000594090935A40A0935B40B0935C4080916C
:10206000594090915A40A0915B40B0915C40BC01B6
:10207000CD010E94054986E090E00E949D0901C0C3
:102080001B8210925A4210925B4280915242909170
:10209000534280916A42882309F45BC087E090E054
:1020A0000E949D0921E0892B09F420E0222309F4F4
:1020B0004DC01B828C81882F90E0880F991F880F5C
:1020C000991F87539C4BFC0180819181A281B38130
:1020D000892B8A2B8B2BA9F561E08C810E948119B9
:1020E0008C838C818F3F29F41092174310921843F0
:1020F00028C08091174390911843019711F58C8166
:10210000882F90E0880F991F880F991F87539C4B49
:10211000FC0180819181A281B38180935940909389
:102120005A40A0935B40B0935C408091594090919D
:102130005A40A0915B40B0915C40BC01CD010E942F
:10214000054980E090E00E949D0901C01B82109229
:102150006A4280915C4290915D4221E0892B09F4B2
:1021600020E0222309F483C080915C4290915D427B
:1021700021E0019709F020E0222341F041E060E0F6
:1021800070E08DE792E40E94314114C080915C427E
:1021900090915D4221E0029709F020E0222351F066
:1021A00080917142882331F09091234081E089270A
:1021B0008093234087E090E00E949D0921E0892BD5
:1021C00009F420E0222309F44DC01B828C81882F62
:1021D00090E0880F991F880F991F87539C4BFC0133
:1021E00080819181A281B381892B8A2B8B2BA9F5C8
:1021F00061E08C810E9481198C838C818F3F29F44E
:10220000109217431092184328C080911743909161
:102210001843019711F58C81882F90E0880F991F42
:10222000880F991F87539C4BFC0180819181A2816B
:10223000B3818093594090935A40A0935B40B093F0
:102240005C408091594090915A40A0915B40B09180
:102250005C40BC01CD010E94054986E090E00E94EF
:102260009D0901C01B8210925C4210925D428091D8
:1022700054429091554280916B42882309F45BC08F
:1022800087E090E00E949D0921E0892B09F420E07D
:10229000222309F44DC01B828C81882F90E0880F87
:1022A000991F880F991F87539C4BFC018081918156
:1022B000A281B381892B8A2B8B2BA9F561E08C81BC
:1022C0000E9481198C838C818F3F29F410921743CF
:1022D0001092184328C0809117439091184301979A
:1022E00011F58C81882F90E0880F991F880F991F16
:1022F00087539C4BFC0180819181A281B3818093A3
:10230000594090935A40A0935B40B0935C408091B9
:10231000594090915A40A0915B40B0915C40BC0103
:10232000CD010E94054980E090E00E949D0901C016
:102330001B8210926B4280915E4290915F4221E03D
:10234000892B09F420E0222309F400C180915E4228
:1023500090915F4221E0019709F020E0222309F4E7
:1023600041C08091174390911843892B41F461E05B
:102370008C810E9481198F3F11F081E001C080E0C3
:10238000882349F181E090E08093174390931843AC
:102390008C81882F90E0880F991F880F991F875391
:1023A0009C4BFC0180819181A281B3818093594033
:1023B00090935A40A0935B40B0935C408091594009
:1023C00090915A40A0915B40B0915C40BC01CD011E
:1023D0000E94054904C0109217431092184381E0EF
:1023E0008F8BB0C080915E4290915F4221E0029756
:1023F00009F020E0222309F479C087E090E00E94F0
:102400009D0981309105C9F0823091051CF4892B1A
:1024100041F098C08230910509F48FC0039721F0F4
:1024200091C081E08B838EC08B85882309F087C0A3
:1024300081E090E00E949D0982C082E090E00E94CD
:102440009D098C81882F90E0880F991F880F991F14
:1024500087539C4BFC0180819181A281B381892BA0
:102460008A2B8B2B09F06DC08091594090915A4076
:10247000A0915B40B0915C4081309940AD43B10583
:1024800068F48091594090915A40A0915B40B0917E
:102490005C40803E9746A543B10510F481E001C041
:1024A00080E0882361F080E39BE2A6E3B0E08093C4
:1024B000594090935A40A0935B40B0935C408C810C
:1024C000282F30E08091594090915A40A0915B4074
:1024D000B0915C40220F331F220F331F27533C4B18
:1024E000F90180839183A283B3832BC080915E42E4
:1024F00090915F4221E0039709F020E0222311F13F
:1025000087E090E00E949D0921E0029709F020E019
:102510002223C1F08C81882F90E0880F991F880FAB
:10252000991F87539C4BFC011082118212821382E7
:1025300086E090E00E949D0905C0000003C00000F5
:1025400001C0000010925E4210925F42809156429C
:102550009091574280916D42882311F010926D4204
:102560009091714281E08927882309F0198E80912A
:1025700040429091414221E0892B09F420E022233E
:1025800009F41EC3809108408CAB8CE390E08093EB
:1025900006409093074080917142898F809140421C
:1025A00090914142892F881F8827881F882309F42A
:1025B00081C187E090E00E949D098130910509F476
:1025C000C4C0823091051CF4892B49F069C1823066
:1025D000910509F408C1039709F45AC161C18B81BF
:1025E000882309F474C08091174390911843892B74
:1025F00009F040C08091594090915A40A0915B40B1
:10260000B0915C4021E081159940AD43B10508F0DF
:1026100020E0222309F449C0809171428823A9F067
:102620008091594090915A40A0915B40B0915C409C
:1026300088519C4FAF4FBF4F8093594090935A4061
:10264000A0935B40B0935C4030C080915940909122
:102650005A40A0915B40B0915C408C599F4FAF4F66
:10266000BF4F8093594090935A40A0935B40B093E2
:102670005C401BC061E08C810E9481198C838C813D
:10268000882F90E0880F991F880F991F87539C4BC4
:10269000FC0180819181A281B38180935940909304
:1026A0005A40A0935B40B0935C4080915940909118
:1026B0005A40A0915B40B0915C40BC01CD010E94AA
:1026C00005498091BD428F5F8093BD422BC08091B0
:1026D0006E428823C9F0809121409091224021E0F0
:1026E0000A9708F020E02223E9F0809121409091A0
:1026F0002240019680932140909322408091BD42D8
:102700008F5F8093BD420EC08CA9882359F08CA99D
:1027100081508CAB8CA90E94554F8091BD428F5F38
:102720008093BD4280E090E00E94904BDC01CB01A1
:102730008093594090935A40A0935B40B0935C4083
:102740000E94894F80930840ABC08C818F5F8C833F
:102750008C81843108F01C828C81882F90E0880F56
:10276000991F880F991F87539C4BFC018081918191
:10277000A281B38189AF9AAFABAFBCAF89AD9AAD3F
:10278000ABADBCAD81159940AD43B105F8F489AD51
:102790009AADABADBCAD813E9746A543B105B0F057
:1027A0008C81882F90E0880F991F880F991F87537D
:1027B0009C4BFC0180819181A281B381809359401F
:1027C00090935A40A0935B40B0935C4080915940F5
:1027D00090915A40A0915B40B0915C40BC01CD010A
:1027E0000E9405495DC08091594090915A40A09146
:1027F0005B40B0915C4021E081159940AD43B1054B
:1028000008F020E0222369F1809171428823A9F029
:102810008091594090915A40A0915B40B0915C40AA
:1028200088519C4FAF4FBF4F8093594090935A406F
:10283000A0935B40B0935C4014C08091594090914C
:102840005A40A0915B40B0915C408C599F4FAF4F74
:10285000BF4F8093594090935A40A0935B40B093F0
:102860005C408C81282F30E08091594090915A40F3
:10287000A0915B40B0915C40220F331F220F331FA9
:1028800027533C4BF90180839183A283B38308C013
:102890008B858F5F8B878B85853009F41B860000C5
:1028A00080914042909141420196809340429093A2
:1028B000414286C187E090E00E949D0981309105E8
:1028C00009F4C4C0823091051CF4892B49F06FC112
:1028D0008230910509F40AC1039709F45DC167C10B
:1028E0008B81882309F474C0809117439091184319
:1028F000892B09F040C08091594090915A40A09195
:102900005B40B0915C4021E0813E9746A543B10514
:1029100008F420E0222309F449C080917142882301
:10292000A9F08091594090915A40A0915B40B0919C
:102930005C40885E9340A109B1098093594090930F
:102940005A40A0935B40B0935C4030C080915940A6
:1029500090915A40A0915B40B0915C40845691099F
:10296000A109B1098093594090935A40A0935B40CC
:10297000B0935C401BC060E08C810E9481198C8305
:102980008C81882F90E0880F991F880F991F87539B
:102990009C4BFC0180819181A281B381809359403D
:1029A00090935A40A0935B40B0935C408091594013
:1029B00090915A40A0915B40B0915C40BC01CD0128
:1029C0000E9405498091BD428F5F8093BD422BC01C
:1029D00080916E428823C9F08091214090912240DD
:1029E00021E0029708F420E02223E9F080912140C1
:1029F00090912240019780932140909322408091B2
:102A0000BD428F5F8093BD420EC08CA98A3058F4BE
:102A10008CA98F5F8CAB8CA90E94554F8091BD42D1
:102A20008F5F8093BD4280E090E00E94904BDC017C
:102A3000CB018093594090935A40A0935B40B09350
:102A40005C400E94894F80930840B1C08C818823EC
:102A500019F483E18C8303C08C8181508C838C8139
:102A6000882F90E0880F991F880F991F87539C4BE0
:102A7000FC0180819181A281B3818DAB9EABAFAB14
:102A8000B8AF8DA99EA9AFA9B8AD81159940AD4346
:102A9000B105F8F48DA99EA9AFA9B8AD813E9746BE
:102AA000A543B105B0F08C81882F90E0880F991F65
:102AB000880F991F87539C4BFC0180819181A281D3
:102AC000B3818093594090935A40A0935B40B09358
:102AD0005C408091594090915A40A0915B40B091E8
:102AE0005C40BC01CD010E94054961C08091594004
:102AF00090915A40A0915B40B0915C4021E0813EB2
:102B00009746A543B10508F420E0222309F44EC0FE
:102B1000809171428823A9F08091594090915A4048
:102B2000A0915B40B0915C40885E9340A109B109DF
:102B30008093594090935A40A0935B40B0935C407F
:102B400014C08091594090915A40A0915B40B0913F
:102B50005C4084569109A109B10980935940909332
:102B60005A40A0935B40B0935C408C81282F30E0AA
:102B70008091594090915A40A0915B40B0915C4047
:102B8000220F331F220F331F27533C4BF901808341
:102B90009183A283B3830AC08B85882321F08B8520
:102BA00081508B8704C084E08B8701C00000809136
:102BB000404290914142019780934042909341421C
:102BC0008AEF92E40E94443C882309F4F2C1CE01CA
:102BD000825A9F4FFC011082118280E090E8ABE1A5
:102BE000B4E4AC01BD018AEF92E40E949F3ACE01A9
:102BF000825A9F4FBC018AEF92E40E94523CDC0152
:102C0000CB019E01235C3F4FF90180839183A28316
:102C1000B383CE01825A9F4FFC0120813181CE01C6
:102C20008F5B9F4F41E0233331050CF440E0FC0102
:102C30004083CE018F5B9F4FFC01908181E089270B
:102C4000882309F4B6C180913140882309F44FC02C
:102C5000809131408150809331408091F642909133
:102C6000F742A091F842B091F9429C01AD01CE012A
:102C7000CD96FC0160817181828193810E940D5506
:102C800018167CF4CE01CD96FC0180819181A28141
:102C9000B3818093F6429093F742A093F842B093A9
:102CA000F9428091324090913340A0913440B091EC
:102CB00035409C01AD01CE01CD96FC016081718152
:102CC000828193810E945C5388230CF072C1CE01F3
:102CD000CD96FC0180819181A281B38180933240A5
:102CE00090933340A0933440B093354062C11CA20E
:102CF0001DA28091F6429091F742A091F842B091C6
:102D0000F9429C01AD01CE01CD96FC01608171813B
:102D1000828193810E940D551816ACF58091F64280
:102D20009091F742A091F842B091F94220E030E052
:102D300040EA50E4BC01CD010E946A55DC01CB01A0
:102D40007C018D01CE01CD96FC0120813181428133
:102D50005381C801B7010E94F052DC01CB0120E091
:102D600030E040EC50E4BC01CD010E946653DC0130
:102D7000CB018093F6429093F742A093F842B09330
:102D8000F94281E08CA38091324090913340A09130
:102D90003440B09135409C01AD01CE01CD96FC018F
:102DA00060817181828193810E945C538823ACF59C
:102DB0008091324090913340A0913440B0913540A1
:102DC00020E030E040EA50E4BC01CD010E946A55A9
:102DD000DC01CB017C018D01CE01CD96FC0120816F
:102DE000318142815381C801B7010E94F052DC0158
:102DF000CB0120E030E040EC50E4BC01CD010E946A
:102E00006653DC01CB018093324090933340A09312
:102E10003440B093354081E08DA39CA181E08927A7
:102E2000882309F46DC09DA181E08927882309F4D6
:102E300067C08091F6429091F742A091F842B0911C
:102E4000F94220E030E048E452E4BC01CD010E94A8
:102E50006A55DC01CB017C018D01CE01CD96FC01D0
:102E60002081318142815381C801B7010E94F05213
:102E7000DC01CB0120E030E04CE452E4BC01CD01A8
:102E80000E946653DC01CB018093F6429093F74297
:102E9000A093F842B093F942809132409091334030
:102EA000A0913440B091354020E030E048E452E455
:102EB000BC01CD010E946A55DC01CB017C018D0172
:102EC000CE01CD96FC012081318142815381C80120
:102ED000B7010E94F052DC01CB0120E030E04CE46D
:102EE00052E4BC01CD010E946653DC01CB0180930A
:102EF000324090933340A0933440B093354024C087
:102F00008091F6429091F742A091F842B091F94237
:102F100020913240309133404091344050913540BF
:102F2000BC01CD010E94F052DC01CB0120E030E079
:102F300040E050E4BC01CD010E946653DC01CB01AE
:102F400088A399A3AAA3BBA328A139A14AA15BA1E5
:102F5000CE01CD96FC0160817181828193810E94B6
:102F60000D55181634F58091F6429091F742A091D4
:102F7000F842B091F942BC01CD010E941255DC012A
:102F8000CB0120E030E040E251E4BC01CD010E94E1
:102F90006A55DC01CB01BC01CD010E94DF53DC018D
:102FA000CB0180934E4290934F42A0935042B093F6
:102FB000514280914A42882311F40C94E20B8DE730
:102FC00092E40E94EA400E94915160E083E00E94F6
:102FD000A2010E945E2882E090E00E94794E81E08A
:102FE00080934B4210920D4010920E4080914A42C5
:102FF000882309F180E590E0FC018081897F282FFA
:10300000226080E590E0FC012083F89480E590E068
:10301000FC01208180E590E02160FC012083789410
:10302000889580E590E0FC01208180E590E02E7F8E
:10303000FC012083DBCF10924B420E94980161E09B
:1030400083E00E94A2010E94BB5180910D409091AB
:103050000E400C94E20B0F931F93CF93DF93CDB7E9
:10306000DEB72997CDBFDEBF8F83688779878AE374
:1030700090E48D839E8388859985892B61F088856E
:103080009985FC0180819181A281B38189839A8392
:10309000AB83BC8318C080911D4090911E40880F67
:1030A000991F845B9D4BFC0180819181CC01A0E044
:1030B000B0E0BC01CD010E940E54DC01CB0189833C
:1030C0009A83AB83BC8320E030E040E953E469811C
:1030D0007A818B819C810E946A55DC01CB018983B6
:1030E0009A83AB83BC8320E030E040E855E46981FB
:1030F0007A818B819C810E946653DC01CB0189839C
:103100009A83AB83BC8320E030E040E050E46981E7
:103110007A818B819C810E94F052DC01CB018983F2
:103120009A83AB83BC8388859985892B69F08981D3
:103130009A81AB81BC818093364090933740A093B5
:103140003840B09339402EC080913640909137403E
:10315000A0913840B091394020E030E040E151E4A6
:10316000BC01CD010E946A55DC01CB0129813A8165
:103170004B815C81BC01CD010E94F052DC01CB018E
:1031800020E030E040E251E4BC01CD010E946653F2
:10319000DC01CB018093364090933740A0933840B8
:1031A000B093394020E030E0A90169817A818B81B8
:1031B0009C810E940D5588230CF449C020E030E02A
:1031C00044E353E469817A818B819C810E945C5342
:1031D0001816ECF18F81882329F180913640909167
:1031E0003740A0913840B091394020E030E040E2D3
:1031F00051E4BC01CD010E946653DC01CB010AE31E
:1032000010E421E045E0BC01CD010E9483561092FC
:1032100040408AE390E40E9431198D839E838D8122
:103220009E8117C08091364090913740A0913840E0
:10323000B09139400AE310E420E044E0BC01CD0144
:103240000E94835610923F408AE390E402C08AE3D2
:1032500090E42996CDBFDEBFDF91CF911F910F91F2
:103260000895CF93DF9300D000D0CDB7DEB78B8326
:103270009C838B819C81FC018081882F90E00E943F
:10328000C657892B31F08B819C8101968B839C835F
:10329000F0CF8B819C81FC018081882319F48B8184
:1032A0009C8129C08B819C810E94CF5701972B81E3
:1032B0003C81820F931F89839A8329813A818B8174
:1032C0009C818217930780F489819A81FC01808117
:1032D000882F90E00E94C657892B31F089819A810E
:1032E000019789839A83E9CF89819A810196FC01AC
:1032F00010828B819C812496CDBFDEBFDF91CF9160
:103300000895CF93DF93CDB7DEB72597CDBFDEBF4E
:103310008C836D838C818B8319821A828D818823A3
:1033200039F18A81882309F04AC08981843108F003
:1033300046C089818F5F89838B818F5F8B838B816F
:10334000843108F01B828B81882F90E0880F991FB1
:10335000880F991F87539C4BFC0180819181A2812A
:10336000B381892B8A2B8B2BE1F281E08A83D9CF21
:103370008A81882321F58981843108F589818F5FCD
:1033800089838B81882321F08B8181508B8302C0BC
:1033900083E18B838B81882F90E0880F991F880FA2
:1033A000991F87539C4BFC0180819181A281B3813D
:1033B000892B8A2B8B2BE1F281E08A83D9CF9A81EA
:1033C00081E08927882311F08FEF8B838B812596ED
:1033D000CDBFDEBFDF91CF910895CF93DF9300D0B3
:1033E00000D0CDB7DEB789839A836B837C838981D4
:1033F0009A810197B1F48B819C81019691F482E7C7
:1034000092E40E9405258DE792E40E944F3F64E616
:1034100070E08EE792E40E94CB2188E892E40E945B
:103420007A2889819A81892B81F48B819C810196EC
:1034300061F488E892E40E9487288EE792E40E9473
:10344000FF218DE792E40E945C3F00002496CDBFEF
:10345000DEBFDF91CF910895CF93DF93CDB7DEB775
:103460006FEF7FEF81E090E00E94ED19DF91CF9147
:103470000895CF93DF93CDB7DEB76FEF7FEF80E096
:1034800090E00E94ED19DF91CF910895CF93DF93E3
:10349000CDB7DEB78091FB429091FC42892B29F099
:1034A00080E096E021E0FC0122870000DF91CF91CF
:1034B0000895CF93DF93CDB7DEB780E096E0FC01AF
:1034C0008585882F90E08170992721E0892B09F468
:1034D00020E0822FDF91CF910895CF93DF93CDB776
:1034E000DEB780E694E0FC01208980E694E0287F46
:1034F000FC01208B80E694E0FC01208980E694E0CA
:103500002460FC01208B80E694E0FC01218980E6A8
:1035100094E0287FFC01218B80E694E0FC01218966
:1035200080E694E02460FC01218B80E694E0FC01BD
:10353000228980E694E0287FFC01228B80E694E0DB
:10354000FC01228980E694E02460FC01228B80E665
:1035500094E0FC01238980E694E0287FFC01238B22
:1035600080E694E0FC01238980E694E02460FC017D
:10357000238B80E694E0FC01248980E694E0287F98
:10358000FC01248B80E694E0FC01248980E694E031
:103590002460FC01248B80E694E0FC01258980E610
:1035A00094E0287FFC01258B80E694E0FC012589CE
:1035B00080E694E02460FC01258B80E694E0FC0129
:1035C000278980E694E0287FFC01278B80E694E041
:1035D000FC01278980E694E02460FC01278B80E6CB
:1035E00094E0FC01208980E694E0277FFC01208B99
:1035F00080E694E0FC01218980E694E0277FFC01CD
:10360000218B80E694E0FC01228980E694E0277F0C
:10361000FC01228B80E694E0FC01238980E694E0A3
:10362000277FFC01238B80E694E0FC01248980E65F
:1036300094E0277FFC01248B80E694E0FC0125893F
:1036400080E694E0277FFC01258B80E694E0FC0176
:10365000278980E694E0277FFC01278B0000DF911B
:10366000CF910895CF93DF931F92CDB7DEB78983B3
:1036700089818823D9F080EA90E021E8FC01208349
:1036800080E096E02CE0FC01228380E096E023E0DD
:10369000FC01208380E096E021E0FC01248781E0AA
:1036A00090E08093FB429093FC421AC080EA90E045
:1036B00021E8FC01208380E096E02CE0FC012283DD
:1036C00080E096E027E0FC01208380E096E021E0A6
:1036D000FC01248781E090E08093FB429093FC42C0
:1036E00000000F90DF91CF910895CF93DF931F9249
:1036F000CDB7DEB789838981882319F180EA90E00C
:1037000021E0FC01208380E096E021E0FC0122839F
:1037100080E096E0FC01208180E096E02160FC01E1
:10372000208380E096E0FC01248580E096E02E7FF7
:10373000FC01248782E090E08093FB429093FC425E
:103740001EC080EA90E021E0FC01208380E096E04A
:1037500021E0FC01228380E096E025E0FC0120834B
:1037600080E096E0FC01248580E096E02E7FFC015D
:10377000248782E090E08093FB429093FC4200001B
:103780000F90DF91CF910895CF93DF9300D0CDB705
:10379000DEB789836A830E946D1A8A81882321F0AB
:1037A00089810E94321B03C089810E94751B000021
:1037B0000F900F90DF91CF9108950F931F93CF93A8
:1037C000DF9300D000D0CDB7DEB789839A836B83B7
:1037D0007C8389819A81019781F48B819C810196F8
:1037E00061F400E014E029E536E440E050E06AECE2
:1037F00072E48AEF92E40E94F43989819A81892BDC
:1038000041F48B819C81019621F48AEF92E40E941D
:103810008C3A00002496CDBFDEBFDF91CF911F917F
:103820000F910895CF93DF93CDB7DEB76FEF7FEFA2
:1038300081E090E00E94DD1BDF91CF910895CF934E
:10384000DF93CDB7DEB76FEF7FEF80E090E00E94AF
:10385000DD1BDF91CF910895CF93DF93CDB7DEB716
:103860002597CDBFDEBF8B836C837D838B81882FB3
:1038700090E0805F9B4F89839A838C819D81019723
:1038800059F489819A81FC018081282F28608981DF
:103890009A81FC0120830EC08C819D81892B51F47B
:1038A00089819A81FC018081282F277F89819A81D3
:1038B000FC01208300002596CDBFDEBFDF91CF91B4
:1038C0000895CF93DF9300D01F92CDB7DEB78983E1
:1038D0006A837B838A819B8181309105E9F0823004
:1038E000910581F1892B09F03DC080E090E0FC0159
:1038F0008081482F8981282F30E081E090E002C04C
:10390000880F991F2A95E2F78095242F282380E0BD
:1039100090E0FC01208326C080E090E0FC018081E3
:10392000482F8981282F30E081E090E002C0880F85
:10393000991F2A95E2F7242F282B80E090E0FC01C4
:10394000208310C08981882F90E0805F9B4FFC010D
:1039500020818981882F90E0805F9B4F2860FC0147
:103960002083000000002396CDBFDEBFDF91CF9102
:103970000895CF93DF9300D0CDB7DEB789836A83F4
:103980008A818823B1F080E090E0FC018181482F9A
:103990008981282F30E081E090E002C0880F991FD4
:1039A0002A95E2F7242F282B80E090E0FC01218368
:1039B00016C080E090E0FC018181482F8981282F8A
:1039C00030E081E090E002C0880F991F2A95E2F76D
:1039D0008095242F282380E090E0FC0121830000C3
:1039E0000F900F90DF91CF910895CF93DF93CDB7D4
:1039F000DEB780E090E0FC018281DF91CF910895F5
:103A0000CF93DF9300D01F92CDB7DEB789836A834F
:103A10007B838A819B8181309105E9F08230910519
:103A200081F1892B09F03DC084E090E0FC018081A8
:103A3000482F8981282F30E081E090E002C0880F74
:103A4000991F2A95E2F78095242F282384E090E09F
:103A5000FC01208326C084E090E0FC018081482F97
:103A60008981282F30E081E090E002C0880F991F03
:103A70002A95E2F7242F282B84E090E0FC01208394
:103A800010C08981882F90E0805D9B4FFC012081D0
:103A90008981882F90E0805D9B4F2860FC01208306
:103AA000000000002396CDBFDEBFDF91CF910895C7
:103AB000CF93DF9300D0CDB7DEB789836A838A8145
:103AC0008823B1F084E090E0FC018181482F898156
:103AD000282F30E081E090E002C0880F991F2A95DE
:103AE000E2F7242F282B84E090E0FC01218316C00C
:103AF00084E090E0FC018181482F8981282F30E00B
:103B000081E090E002C0880F991F2A95E2F7809526
:103B1000242F282384E090E0FC01218300000F90F3
:103B20000F90DF91CF910895CF93DF93CDB7DEB79C
:103B30002597CDBFDEBF8B836C837D838B81882FE0
:103B400090E0805B9B4F89839A838C819D81019754
:103B500059F489819A81FC018081282F286089810C
:103B60009A81FC0120830EC08C819D81892B51F4A8
:103B700089819A81FC018081282F277F89819A8100
:103B8000FC01208300002596CDBFDEBFDF91CF91E1
:103B90000895CF93DF9300D01F92CDB7DEB789830E
:103BA0006A837B838A819B8181309105E9F0823031
:103BB000910581F1892B09F03DC088E090E0FC017E
:103BC0008081482F8981282F30E081E090E002C079
:103BD000880F991F2A95E2F78095242F282388E0E3
:103BE00090E0FC01208326C088E090E0FC01808109
:103BF000482F8981282F30E081E090E002C0880FB3
:103C0000991F2A95E2F7242F282B88E090E0FC01E9
:103C1000208310C08981882F90E0805B9B4FFC013E
:103C200020818981882F90E0805B9B4F2860FC0178
:103C30002083000000002396CDBFDEBFDF91CF912F
:103C40000895CF93DF9300D0CDB7DEB789836A8321
:103C50008A818823B1F088E090E0FC018181482FBF
:103C60008981282F30E081E090E002C0880F991F01
:103C70002A95E2F7242F282B88E090E0FC0121838D
:103C800016C088E090E0FC018181482F8981282FAF
:103C900030E081E090E002C0880F991F2A95E2F79A
:103CA0008095242F282388E090E0FC0121830000E8
:103CB0000F900F90DF91CF910895CF93DF9300D0B5
:103CC0001F92CDB7DEB789836A837B838A819B810C
:103CD00081309105E9F08230910581F1892B09F05D
:103CE0003DC080E190E0FC018081482F8981282F30
:103CF00030E081E090E002C0880F991F2A95E2F73A
:103D00008095242F282380E190E0FC01208326C0A9
:103D100080E190E0FC018081482F8981282F30E0EC
:103D200081E090E002C0880F991F2A95E2F7242FC6
:103D3000282B80E190E0FC01208310C08981882F2E
:103D400090E080579B4FFC0120818981882F90E073
:103D500080579B4F2860FC012083000000002396C1
:103D6000CDBFDEBFDF91CF910895CF93DF9300D019
:103D7000CDB7DEB789836A838A818823B1F080E179
:103D800090E0FC018181482F8981282F30E081E07B
:103D900090E002C0880F991F2A95E2F7242F282B64
:103DA00080E190E0FC01218316C080E190E0FC01FD
:103DB0008181482F8981282F30E081E090E002C086
:103DC000880F991F2A95E2F78095242F282380E1F8
:103DD00090E0FC01218300000F900F90DF91CF91C4
:103DE0000895CF93DF93CDB7DEB72597CDBFDEBF64
:103DF0008B836C837D838B81882F90E080559B4FD4
:103E000089839A838C819D81019759F489819A8154
:103E1000FC018081282F286089819A81FC01208300
:103E20000EC08C819D81892B51F489819A81FC017E
:103E30008081282F277F89819A81FC0120830000BF
:103E40002596CDBFDEBFDF91CF910895CF93DF934D
:103E500000D01F92CDB7DEB789836A837B838A81C6
:103E60009B8181309105E9F08230910581F1892BA8
:103E700009F03DC084E190E0FC018081482F8981F8
:103E8000282F30E081E090E002C0880F991F2A952A
:103E9000E2F78095242F282384E190E0FC01208321
:103EA00026C084E190E0FC018081482F8981282F81
:103EB00030E081E090E002C0880F991F2A95E2F778
:103EC000242F282B84E190E0FC01208310C08981FD
:103ED000882F90E080559B4FFC0120818981882F9D
:103EE00090E080559B4F2860FC012083000000007B
:103EF0002396CDBFDEBFDF91CF910895CF93DF939F
:103F000000D0CDB7DEB789836A838A818823B1F078
:103F100084E190E0FC018181482F8981282F30E0E5
:103F200081E090E002C0880F991F2A95E2F7242FC4
:103F3000282B84E190E0FC01218316C084E190E00D
:103F4000FC018181482F8981282F30E081E090E0B9
:103F500002C0880F991F2A95E2F78095242F282305
:103F600084E190E0FC01218300000F900F90DF912D
:103F7000CF910895CF93DF93CDB7DEB784E190E082
:103F8000FC018281DF91CF910895CF93DF93CDB76C
:103F9000DEB7809101438093024380910043809378
:103FA00001438091FE428093FF428091FD428093C5
:103FB000FE420E94F51C8093FD420E94BA1F80932E
:103FC00000439091FD428091034398272091FE4247
:103FD00080910343822798232091FF4280910343DD
:103FE00082279823809103438927809303439091EC
:103FF000004380910443982720910143809104431A
:10400000822798232091024380910443822798239A
:10401000809104438927809304430000DF91CF916E
:104020000895CF93DF93CDB7DEB780910343DF913F
:10403000CF910895CF93DF93CDB7DEB760E070E006
:1040400080E00E94611C61E070E080E00E942C1C16
:1040500060E070E081E00E94611C61E070E081E05E
:104060000E942C1C60E070E082E00E94611C61E014
:1040700070E082E00E942C1C61E070E083E00E940E
:10408000611C61E083E00E94B91C60E070E084E0A4
:104090000E94611C61E070E084E00E942C1C61E0E1
:1040A00070E085E00E94611C60E085E00E94B91C20
:1040B00061E070E086E00E94611C60E086E00E94A2
:1040C000B91C61E070E087E00E94611C61E087E05C
:1040D0000E94B91C61E070E084E00E94001D61E074
:1040E00084E00E94581D60E070E082E00E94C91DDB
:1040F00061E070E082E00E94941D60E070E083E087
:104100000E94C91D61E070E083E00E94941D61E09F
:1041100070E084E00E94C91D60E084E00E94211EDE
:1041200061E070E085E00E94C91D60E085E00E94CA
:10413000211E60E070E080E00E945D1E60E070E0A3
:1041400081E00E945D1E61E070E082E00E945D1EE1
:1041500060E082E00E94B51E60E070E083E00E94B3
:104160005D1E62E070E080E00E94261F62E070E069
:1041700081E00E94261F60E070E082E00E94261F1E
:1041800061E070E082E00E94F11E60E070E083E098
:104190000E94261F60E070E084E00E94261F60E01D
:1041A00070E085E00E94261F61E070E085E00E94DB
:1041B000F11E62E070E086E00E94261F80EA94E033
:1041C000FC01238980EA94E02160FC01238B80EAD2
:1041D00094E0FC01248980EA94E02160FC01248BB6
:1041E00080EA94E028E1FC0121870000DF91CF9173
:1041F0000895CF93DF93CDB7DEB760E070E080E045
:104200000E94611C60E070E080E00E942C1C60E075
:1042100070E081E00E94611C60E070E081E00E943B
:104220002C1C60E070E082E00E94611C60E070E0A5
:1042300082E00E942C1C61E070E083E00E94611C1F
:1042400060E083E00E94B91C60E070E084E00E94BE
:10425000611C60E070E084E00E942C1C61E070E072
:1042600085E00E94611C60E085E00E94B91C61E06D
:1042700070E086E00E94611C60E086E00E94B91C4C
:1042800061E070E087E00E94611C60E087E00E94CE
:10429000B91C61E070E084E00E94001D60E084E0F1
:1042A0000E94581D60E070E082E00E94C91D61E03C
:1042B00070E082E00E94941D60E070E083E00E9464
:1042C000C91D61E070E083E00E94941D61E070E030
:1042D00084E00E94C91D60E084E00E94211E61E02C
:1042E00070E085E00E94C91D60E085E00E94211E0B
:1042F00060E070E080E00E945D1E60E070E081E0C0
:104300000E945D1E61E070E082E00E945D1E60E040
:1043100082E00E94B51E60E070E083E00E945D1EB6
:1043200062E070E080E00E94261F62E070E081E0C1
:104330000E94261F61E070E082E00E94261F60E07C
:1043400082E00E947E1F60E070E083E00E94261FF2
:1043500060E070E084E00E94261F61E070E085E08C
:104360000E94261F60E085E00E947E1F62E070E0F0
:1043700086E00E94261F0000DF91CF910895CF9321
:10438000DF93CDB7DEB780E890E0FC01118680E0D6
:10439000DF91CF910895CF93DF9300D000D0CDB7B8
:1043A000DEB789839A836B837C838B819C810E9497
:1043B000A1569C0189819A81FC01258336838981DC
:1043C0009A812B813C81FC012783308789819A81E6
:1043D000FC011082118289819A81FC011282138270
:1043E00089819A81FC01148289819A81FC0111865C
:1043F00000002496CDBFDEBFDF91CF910895CF930B
:10440000DF9300D0CDB7DEB789839A8389819A8103
:10441000FC01858196810E943D5700000F900F900E
:10442000DF91CF910895CF93DF9300D0CDB7DEB762
:1044300089839A8389819A81FC01228133818981D0
:104440009A81FC012083318389819A81FC01148245
:1044500089819A81FC01118600000F900F90DF91F5
:10446000CF910895CF93DF9300D0CDB7DEB7898386
:104470009A8389819A81FC01948181E0892788232C
:1044800079F089819A81FC012081318189819A8129
:10449000FC01828193812817390711F481E001C062
:1044A00080E00F900F90DF91CF910895CF93DF932D
:1044B00000D0CDB7DEB789839A8389819A81FC01C8
:1044C000878190850F900F90DF91CF910895CF93C2
:1044D000DF9300D000D0CDB7DEB78B839C838B8178
:1044E0009C81FC018781908589839A838B819C8143
:1044F000FC01948181E08927882399F18B819C813B
:10450000FC01208131818B819C81FC01828193811E
:10451000281739078CF08B819C81FC012081318127
:104520008B819C81FC0182819381A901481B590BDD
:10453000CA0189839A8315C08B819C81FC01878184
:1045400090852B813C81F90120813181820F931F5D
:104550002B813C81F90122813381821B930B89835A
:104560009A8389819A812496CDBFDEBFDF91CF9156
:1045700008950F931F93CF93DF9300D000D0CDB752
:10458000DEB78B839C8319821A828B819C81FC010C
:10459000948181E08927882379F08B819C810E9416
:1045A00056228C018B819C810E9467229801281BD6
:1045B000390BC90189839A8389819A812496CDBF59
:1045C000DEBFDF91CF911F910F910895CF93DF93BD
:1045D00000D01F92CDB7DEB789839A836B83898120
:1045E0009A81FC018581968129813A81F901208196
:1045F0003181820F931F2B81FC01208389819A8155
:10460000FC0184818823B1F089819A81FC01828137
:1046100093810196AC0189819A81FC0127813085C3
:10462000CA01B9010E942A569C0189819A81FC0124
:104630002283338389819A81FC0180819181019653
:10464000AC0189819A81FC0127813085CA01B901B9
:104650000E942A569C0189819A81FC012083318322
:1046600089819A81FC012081318189819A81FC01B3
:104670008281938141E02817390709F040E0898160
:104680009A81FC01448300002396CDBFDEBFDF91F9
:10469000CF910895CF93DF9300D01F92CDB7DEB7AF
:1046A0008A839B838A819B810E943222882311F016
:1046B00080E02AC08A819B81FC01858196812A81C4
:1046C0003B81F90122813381820F931FFC0180819C
:1046D00089838A819B81FC0114828A819B81FC01F0
:1046E000828193810196AC018A819B81FC012781A3
:1046F0003085CA01B9010E942A569C018A819B819A
:10470000FC012283338389812396CDBFDEBFDF91F5
:10471000CF910895CF93DF93CDB7DEB72897CDBF64
:10472000DEBF8D839E836F83788781E08C838D814C
:104730009E81FC018481882311F08C8148C08F8187
:1047400098850E94CF578A839B838D819E810E948A
:10475000B9229C0141E08A819B812817390708F022
:1047600040E0442311F08C8132C019828981882F66
:1047700090E02A813B8182179307C0F48D819E814E
:10478000FC018481882391F4898191E0980F9983B9
:10479000882F90E02F813885820F931FFC012081A4
:1047A0008D819E81622F0E94E622E0CF8D819E81C5
:1047B000FC01948181E08927882329F08D819E81E5
:1047C00060E00E94E6228D819E81FC018481289612
:1047D000CDBFDEBFDF91CF910895CF93DF93CDB7EB
:1047E000DEB72897CDBFDEBF8B839C836D837E832E
:1047F0004F8358878B819C810E943222882371F0DD
:104800008D819E81FC0110828F819885892B79F1A1
:104810008F819885FC011082118229C019828B81B9
:104820009C810E944A238A8381E09A81992309F41A
:1048300080E0882371F0898191E0980F9983882F17
:1048400090E02D813E81820F931F2A81FC012083FD
:10485000E6CF8F819885892B61F08981282F30E000
:104860008F819885FC0120833183000002C0000005
:1048700001C000002896CDBFDEBFDF91CF91089523
:10488000CF93DF9300D01F92CDB7DEB789839A8391
:104890006B8389819A814B8168ED0E94C643000039
:1048A0002396CDBFDEBFDF91CF910895CF93DF93E5
:1048B000CDB7DEB765E88CE790E00E94402465E262
:1048C00088E690E00E94402480E0DF91CF91089537
:1048D000CF93DF93CDB7DEB7789480E0DF91CF91AF
:1048E0000895CF93DF93CDB7DEB780EA90E021E85B
:1048F000FC0122830000DF91CF910895CF93DF93D5
:10490000CDB7DEB70E94712480E694E0FC012689D1
:1049100080E694E0287FFC01268B80E694E0FC0191
:10492000268980E694E02460FC01268B80E694E0F2
:10493000FC01268980E694E0277FFC01268B80EA33
:1049400096E021E4FC0120830000DF91CF910895DF
:10495000CF93DF9300D0CDB7DEB789839A832981C7
:1049600080EA96E02295220F220F207CFC01228310
:1049700089819A819C01369527953695279580EAFD
:1049800096E0FC01238300000F900F90DF91CF9100
:104990000895CF93DF9300D0CDB7DEB789836A83C4
:1049A0008A818823B1F084E090E0FC018181482F66
:1049B0008981282F30E081E090E002C0880F991FA4
:1049C0002A95E2F7242F282B84E090E0FC01218334
:1049D00016C084E090E0FC018181482F8981282F56
:1049E00030E081E090E002C0880F991F2A95E2F73D
:1049F0008095242F282384E090E0FC01218300008F
:104A00000F900F90DF91CF910895CF93DF9300D057
:104A1000CDB7DEB789839A832BEB31E489819A8104
:104A2000FC012083318389819A8128E7FC01268358
:104A300000000F900F90DF91CF910895CF93DF93F7
:104A400000D000D0CDB7DEB789839A836B837C8397
:104A500089819A812B813C81FC01228333838B8164
:104A60009C818130910581F082309105C1F0892BC4
:104A700009F589819A8124E1FC01248389819A8145
:104A800024E0FC01258316C089819A8120E1FC0184
:104A9000248389819A8124E0FC0125830BC08981CC
:104AA0009A812AE0FC01248389819A8124E0FC0117
:104AB0002583000089819A8120E8FC012187898172
:104AC0009A8124E0FC0122870E94323D89819A81EB
:104AD0000E94892589819A810E94B02589819A81C5
:104AE0000E942D2689819A8122E0FC0127838981F9
:104AF0009A81FC018781282F246089819A81622F05
:104B00000E94972600002496CDBFDEBFDF91CF9193
:104B10000895CF93DF9300D0CDB7DEB789839A8312
:104B200062E370E080E090E00E94FC4F60E084E08F
:104B30000E94C92464E070E080E090E00E94FC4F95
:104B400061E084E00E94C92464E170E080E090E0CC
:104B50000E94FC4F00000F900F90DF91CF910895BD
:104B6000CF93DF9300D0CDB7DEB789839A83898155
:104B70009A816AE30E94972689819A8169E00E945E
:104B8000972689819A8166E00E94972689819A8179
:104B90006EE10E94972689819A8169E30E94972697
:104BA00089819A816BE10E94972689819A81FC0113
:104BB0008281938181309105A9F08230910511F1B4
:104BC000892B81F589819A816EE60E9497268981D9
:104BD0009A8167E50E94972689819A8162E70E94FF
:104BE000972620C089819A816CE60E949726898148
:104BF0009A8166E50E94972689819A816BE60E94D8
:104C0000972610C089819A816EE60E949726898135
:104C10009A8166E50E94972689819A816AE70E94B7
:104C20009726000089819A8168E30E9497268981EE
:104C30009A8124E0FC01208789819A81FC0180858A
:104C4000282F286089819A81622F0E949726000070
:104C50000F900F90DF91CF910895CF93DF9300D005
:104C6000CDB7DEB789839A8389819A8161E00E94FA
:104C7000972600000F900F90DF91CF910895CF936A
:104C8000DF9300D000D0CDB7DEB789839A836B83E2
:104C90004C8389819A81FC018185282F8B81982FF3
:104CA0009295990F907E8C81890F822B282F898174
:104CB0009A81622F0E94972600002496CDBFDEBF06
:104CC000DF91CF910895CF93DF9300D01F92CDB79E
:104CD000DEB789839A836B8389819A816B810E9475
:104CE000B92681E090E02396CDBFDEBFDF91CF9162
:104CF0000895CF93DF93CDB7DEB72697CDBFDEBF44
:104D000089839A836B837C834D835E834D815E812F
:104D10002B813C8189819A81B9010E94DB268D819A
:104D20009E812696CDBFDEBFDF91CF910895CF93B0
:104D3000DF93CDB7DEB72597CDBFDEBF8B839C83D6
:104D40006D838D8189838B819C8121E0AE014F5FD2
:104D50005F4F60E00E94FD26882319F080EE90E00E
:104D600002C080E090E02596CDBFDEBFDF91CF91FD
:104D70000895CF93DF93CDB7DEB72597CDBFDEBFC4
:104D80008B839C836D838D8189838B819C8121E0C2
:104D9000AE014F5F5F4F60E40E94FD26882319F04B
:104DA00080EE90E002C080E090E02596CDBFDEBFAF
:104DB000DF91CF910895CF93DF93CDB7DEB72697DC
:104DC000CDBFDEBF89839A836B837C834D835E83F3
:104DD0002D814B815C8189819A8160E40E94FD264E
:104DE000882319F080EE90E002C080E090E02696E3
:104DF000CDBFDEBFDF91CF910895CF93DF93CDB7C5
:104E0000DEB72897CDBFDEBF8B839C836D834E8337
:104E10005F83288785E0898389819FEF980F998335
:104E20008823C1F08B819C81FC0136818E819F811A
:104E30002885AC016D81832F0E94023E282F81E0DE
:104E40009885921709F480E08A838A81882311F07B
:104E500081E001C080E0882309F0DECF8A812896B6
:104E6000CDBFDEBFDF91CF910895CF93DF9300D008
:104E70001F92CDB7DEB789836A837B838A819B814A
:104E800081309105E9F08230910581F1892B09F09B
:104E90003DC088E090E0FC018081482F8981282F67
:104EA00030E081E090E002C0880F991F2A95E2F778
:104EB0008095242F282388E090E0FC01208326C0E1
:104EC00088E090E0FC018081482F8981282F30E024
:104ED00081E090E002C0880F991F2A95E2F7242F05
:104EE000282B88E090E0FC01208310C08981882F66
:104EF00090E0805B9B4FFC0120818981882F90E0AE
:104F0000805B9B4F2860FC012083000000002396FB
:104F1000CDBFDEBFDF91CF910895CF93DF9300D057
:104F2000CDB7DEB789836A838A818823B1F088E0B0
:104F300090E0FC018181482F8981282F30E081E0B9
:104F400090E002C0880F991F2A95E2F7242F282BA2
:104F500088E090E0FC01218316C088E090E0FC012D
:104F60008181482F8981282F30E081E090E002C0C4
:104F7000880F991F2A95E2F78095242F282388E02F
:104F800090E0FC01218300000F900F90DF91CF9102
:104F90000895CF93DF9300D0CDB7DEB789839A838E
:104FA00089819A81BC0185E00E94352700000F901D
:104FB0000F90DF91CF910895CF93DF9300D0CDB7BD
:104FC000DEB789839A8389819A81BC0184E00E943B
:104FD000352700000F900F90DF91CF910895CF9368
:104FE000DF931F92CDB7DEB78983698185E00E9488
:104FF0008D2700000F90DF91CF910895CF93DF931D
:105000001F92CDB7DEB78983698184E00E948D2726
:1050100000000F90DF91CF910895CF93DF9300D0E0
:10502000CDB7DEB719828981883098F48981882FBD
:1050300090E0805F9B4FFC0120818981882F90E068
:10504000805F9B4F2860FC01208389818F5F89836B
:10505000EACF1A828A81883098F48A81882F90E07A
:10506000805D9B4FFC0120818A81882F90E0805DCC
:105070009B4F2860FC0120838A818F5F8A83EACF5F
:1050800000000F900F90DF91CF910895CF93DF93A1
:10509000CDB7DEB70E940D280E9456240E94214FF2
:1050A0000E94924F0E941A200E9468240E946D4E16
:1050B0000E94BF210000DF91CF910895CF93DF932D
:1050C000CDB7DEB70E940D280E9469510E94F920D9
:1050D00081E090E00E94C92780E00E94EF2781E0F4
:1050E00090E00E94DC2780E00E94FE270000DF9114
:1050F000CF910895CF93DF9300D0CDB7DEB78983EA
:105100009A8300000F900F90DF91CF910895CF9375
:10511000DF9300D0CDB7DEB789839A8300000F906C
:105120000F90DF91CF910895CF93DF9300D01F921E
:10513000CDB7DEB789839A836B8380E090E1FC0171
:105140008281882F90E08270992721E0892B09F4D1
:1051500020E0222309F0F1CF8DE993E184BF909301
:10516000001089819A819C5E2B81FC0120838DE94E
:1051700090E084BF9093001000002396CDBFDEBF67
:10518000DF91CF910895CF93DF9300D000D0CDB7BA
:10519000DEB789839A836B837C8380E090E1FC0196
:1051A0008281882F90E08270992721E0892B09F471
:1051B00020E0222309F0F1CF8DE993E184BF9093A1
:1051C000001089819A819C5E9C018B819C81F901F0
:1051D000808391838DE990E084BF9093001000005C
:1051E0002496CDBFDEBFDF91CF910895CF93DF939B
:1051F000CDB7DEB72697CDBFDEBF89839A834B83B9
:105200005C836D837E8380E090E1FC018281882F46
:1052100090E08270992721E0892B09F420E0222375
:1052200009F0F1CF8DE993E184BF9093001089815B
:105230009A819C5E9C018B819C81AD81BE81F9012C
:1052400080839183A283B3838DE990E084BF9093A0
:10525000001000002696CDBFDEBFDF91CF910895EC
:10526000CF93DF93CDB7DEB72697CDBFDEBF89835F
:105270009A834B835C836D837E8380E090E1FC01A5
:105280008281882F90E08270992721E0892B09F490
:1052900020E0222309F0F1CF8DE993E184BF9093C0
:1052A000001089819A819C5E9C018B819C81AD81DB
:1052B000BE81F90180839183A283B3838DE990E05D
:1052C00084BF9093001000002696CDBFDEBFDF9113
:1052D000CF910895CF92DF92EF92FF920F931F9399
:1052E000CF93DF93CDB7DEB7E497CDBFDEBF8FA7F7
:1052F00098AB69AB7AAB4BAB5CAB8BA99CA9892B08
:1053000009F422C589A99AA98D3A910509F42CC2FC
:105310008E3A91050CF057C08837910509F44EC2BA
:10532000893791053CF58631910509F427C187310C
:10533000910564F48630910509F463C38E309105BC
:1053400009F480C3892B09F413C43BC58A34910541
:1053500009F4D0C08B34910524F4C09709F452C1EC
:1053600030C58436910509F491C18237910509F45D
:1053700010C227C58039910509F485C3813991058B
:105380006CF48438910509F443C28A38910509F414
:1053900054C28E37910509F426C213C58D39910583
:1053A00009F490C08E3991052CF48539910509F4E2
:1053B00068C007C5833A910509F4ACC1883A9105E4
:1053C00009F4BDC1FEC4883E910509F4D8C2893EE6
:1053D00091054CF5843C910509F4B2C3853C9105D7
:1053E0006CF4883B910509F47BC38E3B910509F46D
:1053F0008FC3823B910509F45BC3E3C4803D9105F3
:1054000009F45AC2813D91052CF48A3C910509F4B6
:105410003EC2D7C4883D910509F46FC2803E910514
:1054200009F48CC2CEC4853021E0920709F4DCC3B4
:105430008630E1E09E076CF4883F910509F412C2C2
:105440008D3F910509F4ACC3803F910509F4B8C2C2
:10545000B8C48031F1E09F0709F4F3C3813121E042
:1054600092072CF48B30914009F4D6C3AAC4823140
:10547000F1E09F0709F4FCC38236914009F44FC460
:10548000A0C48BA99CA9FC01C080D180E280F380DC
:1054900085E990E00E94335DDC01CB01C816D90696
:1054A000EA06FB0609F452C48BA99CA9FC01808181
:1054B0009181A281B381AC01BD0185E990E00E9498
:1054C000F62844C48BA99CA9FC01008111818DE9B7
:1054D00090E00E943A5D0817190709F439C48BA9B6
:1054E0009CA9FC0180819181BC018DE990E00E9422
:1054F000C3282EC419821A828BA99CA98B839C83F2
:105500008B819C819C012F5F3F4F2B833C83FC014F
:1055100080818D838AE490E08E839F838D818823B0
:1055200039F189819A8144971CF58E819F810E946F
:105530002B5D8CA79D818CA5981729F08E819F816A
:105540006D810E94942889819A81019689839A832A
:105550008B819C819C012F5F3F4F2B833C83FC01FF
:1055600080818D838E819F8101968E839F83D6CF8C
:105570008E819F8160E00E94942823C4188619863A
:105580008BA99CA98A879B878A859B859C012F5F15
:105590003F4F2A873B87FC0180818C8786E190E022
:1055A0008D879E878C85882339F1888599854497D6
:1055B0001CF58D859E850E942B5D8EA79C858EA5F2
:1055C000981729F08D859E856C850E949428888582
:1055D00099850196888799878A859B859C012F5F8D
:1055E0003F4F2A873B87FC0180818C878D859E8574
:1055F00001968D879E87D6CF8D859E8560E00E941F
:105600009428DFC31F86188A8BA99CA9898B9A8B43
:1056100089899A899C012F5F3F4F298B3A8BFC0126
:1056200080818B8B80E390E08C8B9D8B8B89882392
:1056300039F18F85988944971CF58C899D890E9442
:105640002B5D8DA79B898DA5981729F08C899D8945
:105650006B890E9494288F85988901968F87988BF3
:1056600089899A899C012F5F3F4F298B3A8BFC01D6
:1056700080818B8B8C899D8901968C8B9D8BD6CF5D
:105680008C899D8960E00E9494289BC31E8A1F8A92
:105690008BA99CA9888F998F888D998D9C012F5FEC
:1056A0003F4F288F398FFC0180818A8F84E690E0FC
:1056B0008B8F9C8F8A8D882339F18E899F890897DB
:1056C0001CF58B8D9C8D0E942B5D8BA79A8D8BA5D5
:1056D000981729F08B8D9C8D6A8D0E9494288E8955
:1056E0009F8901968E8B9F8B8B8D9C8D01968B8FC6
:1056F0009C8F888D998D9C012F5F3F4F288F398F0C
:10570000FC0180818A8FD6CF8B8D9C8D60E00E94BA
:10571000942857C38BA99CA9FC01108183EA90E0CF
:105720000E942B5D181709F415C38BA99CA9FC01D5
:105730008081682F83EA90E00E9494280BC38BA994
:105740009CA9FC01108188EA90E00E942B5D18174B
:1057500009F402C38BA99CA9FC018081682F88EA07
:1057600090E00E949428F8C28BA99CA9FC011081AA
:105770008DEA90E00E942B5D181709F4EFC28BA907
:105780009CA9FC018081682F8DEA90E00E949428FA
:10579000E5C28BA99CA9FC01108182E790E00E94E0
:1057A0002B5D181709F4DCC28BA99CA9FC01808130
:1057B000682F82E790E00E949428D2C28BA99CA90E
:1057C000FC01108188E790E00E942B5D181709F416
:1057D000C9C28BA99CA9FC018081682F88E790E051
:1057E0000E949428BFC28BA99CA9FC0110818EE75E
:1057F00090E00E942B5D181709F4B6C28BA99CA9F2
:10580000FC018081682F8EE790E00E949428ACC252
:105810008BA99CA9FC01108184E890E00E942B5D7B
:10582000181709F4A3C28BA99CA9FC018081682FD9
:1058300084E890E00E94942899C28BA99CA9FC015D
:1058400010818AE890E00E942B5D181709F490C23D
:105850008BA99CA9FC018081682F8AE890E00E94B6
:10586000942886C28BA99CA9FC01108188EF90E046
:105870000E942B5D181709F47DC28BA99CA9FC011D
:105880008081682F88EF90E00E94942873C28BA9D2
:105890009CA9FC0110818AEC90E00E942B5D1817F6
:1058A00009F46AC28BA99CA9FC018081682F8AEC4B
:1058B00090E00E94942860C28BA99CA9FC01C08042
:1058C000D180E280F38080ED90E00E94335DDC01C6
:1058D000CB01C816D906EA06FB0609F44FC28BA90C
:1058E0009CA9FC0180819181A281B381AC01BD01A1
:1058F00080ED90E00E94F62841C28BA99CA9FC0192
:10590000C080D180E280F38088ED90E00E94335D1A
:10591000DC01CB01C816D906EA06FB0609F430C241
:105920008BA99CA9FC0180819181A281B381AC01EA
:10593000BD0188ED90E00E94F62822C28BA99CA9A7
:10594000FC01C080D180E280F38080EE90E00E9474
:10595000335DDC01CB01C816D906EA06FB0609F463
:1059600011C28BA99CA9FC0180819181A281B38184
:10597000AC01BD0180EE90E00E94F62803C28BA925
:105980009CA9FC01C080D180E280F38088EE90E089
:105990000E94335DDC01CB01C816D906EA06FB067E
:1059A00009F4F2C18BA99CA9FC0180819181A2819B
:1059B000B381AC01BD0188EE90E00E94F628E4C1FD
:1059C0008BA99CA9FC01C080D180E280F38080EF8C
:1059D00090E00E94335DDC01CB01C816D906EA06CF
:1059E000FB0609F4D3C18BA99CA9FC01808191819C
:1059F000A281B381AC01BD0180EF90E00E94F62846
:105A0000C5C18BA99CA9FC01C080D180E280F38034
:105A100086E090E00E94335DDC01CB01C816D90618
:105A2000EA06FB0609F4B4C18BA99CA9FC0180819C
:105A30009181A281B381AC01BD0186E090E00E941A
:105A4000F628A6C18BA99CA9FC01C080D180E28068
:105A5000F3808EE090E00E94335DDC01CB01C8163C
:105A6000D906EA06FB0609F495C18BA99CA9FC019D
:105A700080819181A281B381AC01BD018EE090E073
:105A80000E94F62887C18BA99CA9FC01108180E99E
:105A900090E00E942B5D181709F47EC18BA99CA988
:105AA000FC018081682F80E990E00E94942874C1F5
:105AB0008BA99CA9FC010081118182EB90E00E94DE
:105AC0003A5D0817190709F469C18BA99CA9FC0163
:105AD00080819181BC0182EB90E00E94C3285EC16D
