S01500005369676E616C536E61676765722E73726563EA
S11300000C9478000C94A2000C94A2000C94A2000E
S11300100C94A2000C94A2000C9492030C94A200E1
S11300200C94A2000C94A2000C94A2000C94A200C4
S11300300C94C6000C94C1150C94A2000C94A2005C
S11300400C94A2000C94A2000C94A2000C94A200A4
S11300500C94A2000C94A2000C94A2000C94A20094
S11300600C948B060C94A2000C94A2000C94A20095
S11300700C94A2000C94A2000C948E150C94A20073
S11300800C94A2000C94A2000C94A0030C94A20063
S11300900C94A2000C94A2000C94A2000C94A20054
S11300A00C94A2000C94A4090C94A2000C94A20039
S11300B00C94A2000C94A2000C94A2000C94A20034
S11300C00C94A2000C94A2000C94A2000C94A20024
S11300D00C94A2000C94A2000C94A2000C94A20014
S11300E00C94A2000C94A2009005BC069F05CD06BA
S11300F011241FBECFEFCDBFDFE7DEBF10E4A0E0C9
S1130100B0E4E6E1F7E300E00BBF02C007900D9214
S1130110A433B107D9F721E4A4E3B0E401C01D92EC
S1130120AE32B207E1F710E0C6E7D0E004C0219791
S1130130FE010E946B17C437D107C9F70E94DB0385
S11301400C947E1B0C9400000FB6F89460932A4123
S113015070932B4180932C4190932D410FBE0895B1
S1130160FC010FB6F89460912A4170912B41809163
S11301702C4190912D410FBE309721F06083718303
S11301808283938308950E94270808951F920F92F3
S11301900FB60F9211240BB60F920F931F932F9348
S11301A03F934F935F936F937F938F939F93AF93FB
S11301B0BF93CF93DF93EF93FF938091060B80FF60
S11301C052C220910A402F5F20930A408BEA289F55
S11301D0812D112486958695982F990F890F880F64
S11301E0281711F120917140809138409091394045
S11301F02817190609F4F3C188E592E08093364084
S1130200909337408091714090E080933840909370
S113021039408091444081115AC28FEF809343400A
S113022090E080E02FEFFBC10E94FD06C82FD82F7D
S1130230D7700E94D2060E94FD06982F9770D91796
S113024009F4D7C09D2F92700D2F0170D470C82768
S11302501C2F1770C1FF42C09923A9F080E590E4D8
S11302600E94B90A882361F08091584090915940C6
S11302700196809358409093594010923C4013C08B
S11302801092094010C080E590E40E94B90A8823C6
S113029001F1109264401092654081E080933C40EB
S11302A081E08093094010FF6CC00023F1F180E5E8
S11302B090E40E94B90A8823A9F180915640909154
S11302C057400196809356409093574010923B407C
S11302D03CC080E590E40E94410DE2CF9111E3CF50
S11302E0809153408111DFCF809109408823D9F256
S11302F0809164409091654001968093644090930E
S11303006540883C910578F281E0809353401092D7
S113031064401092654010925840109259401092D7
S11303200940C1CF1092084010C080E590E40E94BB
S1130330B90A882309F1109262401092634081E067
S113034080933B4081E080930840147009F4CAC054
S1130350DD23F1F180E590E40E94B90A8823A9F134
S113036080915440909155400196809354409093CD
S1130370554010923A403DC080E590E40E94410D02
S1130380E1CF0111E2CF809152408111DECF809103
S113039008408823D1F28091624090916340019695
S11303A08093624090936340883C910570F281E0B1
S11303B080935240109262401092634010925640D3
S11303C01092574010920840C0CF1092074011C0BD
S11303D080E590E40E94B90A882309F47EC0109253
S11303E060401092614081E080933A4081E08093C4
S11303F007408091414090914240009709F498C091
S113040001978093414090934240892BC1F480919D
S1130410584090915940892B71F0809158409091A7
S11304205940039740F480915840909159408093EB
S11304305E4090935F4010925840109259408091D2
S11304403F4090914040009709F48FC001978093FA
S11304503F4090934040892BC1F480915640909145
S11304605740892B71F080915640909157400397E3
S113047040F4809156409091574080935C40909313
S11304805D40109256401092574080913D409091AB
S11304903E40009709F486C0019780933D409093B5
S11304A03E40892B09F09ECE809154409091554056
S11304B0892B71F08091544090915540039740F4FA
S11304C0809154409091554080935A4090935B4062
S11304D0109254401092554085CE80E590E40E94DD
S11304E0410D84CFD11185CF80915140811181CFAD
S11304F080910740882309F47CCF809160409091DB
S1130500614001968093604090936140883C9105DE
S113051008F46FCF81E080935140109260401092B4
S1130520614010925440109255401092074061CFA0
S11305308091584090915940019761F080915840C2
S113054090915940039708F47ACF10925840109232
S1130550594075CF80913C40882381F382E390E039
S113056080934140909342406ACF8091564090914D
S11305705740019761F080915640909157400397FE
S113058008F483CF10925640109257407ECF80914A
S11305903B40882381F382E390E080933F40909333
S11305A0404073CF8091544090915540019761F041
S11305B08091544090915540039708F413CE1092C3
S11305C05440109255400ECE80913A40882381F3D6
S11305D082E390E080933D4090933E4003CE80912F
S11305E0364090913740019780933640909337403E
S11305F0892B09F00ECE80917140837009F409CEE5
S1130600809171408E5F80937140809171408C7FA6
S113061080937140FECD01968330910501F1FC0178
S1130620DC01AA0FBB1FA55FBF4B4D915C91452B0D
S113063061F0DC01AA0FBB1FA55FBF4B4D915C911C
S11306401197415051094D935C93EE0FFF1FE55FE5
S1130650FF4B40815181452BF1F6282FDCCF2093AD
S113066043402223D4F483E08093060BFF91EF915F
S1130670DF91CF91BF91AF919F918F917F916F91B6
S11306805F914F913F912F911F910F910F900BBE4E
S11306900F900FBE0F901F901895822F880F990B03
S11306A0FC01E85DFF4B20813181FC01E55FFF4BDC
S11306B020833183825D9F4BDC018D919C910E944C
S11306C0F4050E94760681E080934440CCCF0E94DA
S11306D08206882341F20E9486069C012B50310930
S11306E02F3E3F40B0F420914340022E000C330BC8
S11306F0F901EE0FFF1FEA59FF4B40815181245944
S11307003F4B41E0D9014C93808391831092444044
S1130710AACFE0914340EE0FFF0BEA59FF4B8081D3
S11307209181F4CF1F920F920FB60F9211248F93E1
S11307308FEF83B98F910F900FBE0F901F90189574
S11307401F920F920FB60F9211242F938F939F93A2
S113075087B3887179F026B386B3909106402093CD
S11307600640891749F08927837121F026B396B38F
S1130770803151F08FEF87BB9F918F912F910F9014
S11307800FBE0F901F9018952295217093FB992707
S113079090F9291731F08091714081508093714014
S11307A0E9CF809171408F5F80937140E3CF0B98C4
S11307B008950B9A08950E94C30064E47BE786E3DE
S11307C090E00E94611660E873E48DE698E30E946D
S11307D0A40090E080E00E94B0006B017C0160ED19
S11307E077E080E090E00E940415882349F090E0CF
S11307F080E00E94B0006C157D058E059F0579F39D
S113080090E080E00E94B0006C157D058E059F0588
S113081091F4809172409091734081608093724012
S1130820909373400E94A70D41E070E060E080E582
S113083090E40E94E40A0F2EF5E2EF2EF0E4FF2E7E
S1130840F02D08E710E4C0E5D0E00F2EFDEECF2E2A
S1130850D12CF02D84C041E065E070E080E590E4A7
S11308600E94E40A90C066E070E080E590E40E9493
S1130870010D89C068E070E080E590E40E94010DFC
S113088067E070E080E590E40E94010D88C010925A
S1130890534068E070E080E590E40E941E0D83C040
S11308A041E063E070E080E590E40E94E40A8FC0D8
S11308B064E070E080E590E40E94010D88C068E087
S11308C070E080E590E40E94010D67E070E080E54F
S11308D090E40E94010D87C01092524068E070E0DD
S11308E080E590E40E941E0D82C06BE070E080E51C
S11308F090E40E94010D10925A4010925B40809146
S1130900604090916140883E934008F08CC0809193
S11309105140811195C08091764090917740892B08
S113092009F097C08091744090917540892B09F02B
S1130930A7C08091714090E095958795959587958E
S113094020913440309135402817390721F08093A5
S1130950344090933540809170408111A8C08091BB
S11309605E4090915F40892B91F080915E40909120
S11309705F40019709F46FCF80915E4090915F4092
S1130980029709F470CF10925E4010925F408091FC
S1130990644090916540883E934008F06BCF80910D
S11309A05340811174CF80915C4090915D40892BBC
S11309B091F080915C4090915D40019709F470CF73
S11309C080915C4090915D40029709F471CF109240
S11309D05C4010925D408091624090916340883EFB
S11309E0934008F06CCF80915240811175CF809173
S11309F05A4090915B40892B09F481CF80915A40F1
S1130A0090915B40019709F470CF80915A40909186
S1130A105B40029709F06FCF6CE070E080E590E4F2
S1130A200E94010D68CF68E070E080E590E40E94C8
S1130A30010D67E070E080E590E40E94010D67CF4E
S1130A401092514068E070E080E590E40E941E0D31
S1130A5062CF80917640909177409F938F93FF92DD
S1130A60EF921F930F930E94B31810927640109246
S1130A7077400F900F900F900F900F900F9052CFE0
S1130A8080917440909175409F938F93FF92EF9261
S1130A901F930F930E94B3181092744010927540E4
S1130AA00F900F900F900F900F900F9042CF80E512
S1130AB090E40E94CB0A0E94D7030E94380882E087
S1130AC090E00E94CE1481E080936F401092114018
S1130AD01092124080917040882389F08881897F28
S1130AE082608883F894888181608883789488956B
S1130AF088818E7F8883809170408111EFCF10921E
S1130B006F400E94C3000E94D9030E946C1680911A
S1130B10114090911240C0927440D09275401FCF02
S1130B2080E590E40E94A20964E670E086E490E423
S1130B300E94C30785E490E40E944308089585E475
S1130B4090E40E94440886E490E40E94DB0780E578
S1130B5090E40E94A3090895E0E6F4E09289987F66
S1130B60928B92899460928B9389987F938B9389CB
S1130B709460938B9489987F948B94899460948BDC
S1130B809589987F958B95899460958B9289977FA9
S1130B90928B9389977F938B9489977F948B958974
S1130BA0977F958B91E09093A0009AE09093020632
S1130BB081110CC0E0E0F6E081E08083148682E0DD
S1130BC090E08093DC409093DD400895E0E0F6E00F
S1130BD083E0808381E08487828781E090E0809352
S1130BE0DC409093DD4008958930910508F075C08C
S1130BF0FC01E350FA4F0C946B17060612061F060D
S1130C002C06390646066D06530660068091DC40C4
S1130C109091DD40019719F081E00E94AC0510929B
S1130C20080608958091DC409091DD40019719F009
S1130C3081E00E94AC0581E08093080608958091CC
S1130C40DC409091DD40019719F081E00E94AC05F1
S1130C5082E08093080608958091DC409091DD4005
S1130C60019719F081E00E94AC0583E080930806A7
S1130C7008958091DC409091DD40029719F080E066
S1130C800E94AC0584E08093080608958091DC40BE
S1130C909091DD40029719F080E00E94AC0585E058
S1130CA08093080608958091DC409091DD4002977E
S1130CB019F080E00E94AC0587E08093080608954F
S1130CC08091DC409091DD40029719F080E00E9411
S1130CD0AC0582E4809308060895E0E0F6E014860B
S1130CE010821092DC401092DD4008958091DC4027
S1130CF09091DD40892B29F0E0E0F6E0148681E054
S1130D008287089580910D06817008958091100660
S1130D109091110608951F920F920FB60F9211240D
S1130D200BB60F922F933F934F935F936F937F93E1
S1130D308F939F93AF93BF93EF93FF9360911006AC
S1130D40709111068EED90E40E949C08811110921E
S1130D500C06FF91EF91BF91AF919F918F917F917D
S1130D606F915F914F913F912F910F900BBE0F9018
S1130D700FBE0F901F9018950F931F9300E010E47F
S1130D802CEB36E440E050E069E473E48EED90E44B
S1130D900E9445081F910F9108958EED90E40E94E2
S1130DA095080895E1EEF0E42181228330813183B6
S1130DB0A4EEB0E411965C91119712965C9312978D
S1130DC06C9111966C93119792B19C9386B3808326
S1130DD04091E04094276427962354279523942731
S1130DE09093E0409091DF40892739278323292776
S1130DF0822389278093DF4008958091E0400895FD
S1130E000098E0E1F4E08081886080830198E1E16A
S1130E10F4E08081886080830298E2E1F4E08081DC
S1130E2088608083039A0B9A0498E4E1F4E080815B
S1130E3088608083059A0D98069A0E98079A0F9AEF
S1130E40249A2C9A4298E2E5F4E0808188608083B9
S1130E504398E3E5F4E0808188608083449A4C9A67
S1130E60459A4D9AE0E9F4E0808188608083E1E965
S1130E70F4E0808188608083E2E9F4E08081886026
S1130E808083839A8B98E0EBF4E080818860808390
S1130E90E1EBF4E0808188608083A298E2EBF4E0E7
S1130EA0808188608083A398A498A598E5EBF4E0FA
S1130EB0808188608083E6EBF4E0808188608083B1
S1130EC0E0E6F4E081E0838B848B08950098E0E110
S1130ED0F4E08081877F80830198E1E1F4E0808100
S1130EE0877F80830298E2E1F4E08081877F8083BA
S1130EF0039A0B980498E4E1F4E08081877F80836F
S1130F00059A0D98069A0E98079A0F9A249A2C9887
S1130F104298E2E5F4E08081886080834398E3E5C9
S1130F20F4E0808188608083449A4C98459A4D9877
S1130F30E0E9F4E0808188608083E1E9F4E0808185
S1130F4088608083E2E9F4E0808188608083839A0A
S1130F508B98E0EBF4E0808188608083E1EBF4E03F
S1130F60808188608083A29AAA98A398A498A59A5D
S1130F70AD98E6EBF4E08081886080830895109258
S1130F80890080E008950F931F93CF93DF93EC01C2
S1130F908B01CB010E948E178D839E830F8318874C
S1130FA0188219821A821B821C821986DF91CF91C2
S1130FB01F910F910895FC01858196810E942A1842
S1130FC00895FC0182819381808391831482118628
S1130FD0089545E868ED8CE790E00E94460D45E2EF
S1130FE068ED88E690E00E94460D80E008957894CC
S1130FF080E0089583E08093A2006AE070E080E0DE
S113100090E00E9404158111F8CFE0E6F4E08689AF
S1131010887F868B86898460868B8689877F868B8A
S113102081EC8093A0060895E0E1F4E0808188607B
S11310308193E83184E0F807C9F7E0E3F4E08081C4
S113104088608193E83384E0F807C9F708950E9423
S113105014080E94E9070E94D6140E94F7070E9410
S113106000070E94CA140E94FA070E94BF0708954D
S11310700E9414080E94F4150E946607469A4E982E
S1131080459A4D98089508950895CF92DF92EF926E
S1131090FF920F931F936A017B010093EE4010931C
S11310A0EF402093F0403093F14020E030E041E500
S11310B053E4CB01B6010E94341718169CF020E0CB
S11310C030E048EC52E4C701B6010E94AC16882314
S11310D08CF40F2EC12CD12CF8ECEF2EF2E4FF2E61
S11310E0F02D08C00F2EC12CD12CF1E5EF2EF3E426
S11310F0FF2EF02DC701B6010E94B1166093EC409B
S11311007093ED408091EC409091ED40880F991FD1
S11311100E948E178093E7409093E8401F910F91AF
S1131120FF90EF90DF90CF9008958091E7409091E9
S1131130E8400E942A1808958091E94081112CC04A
S11311408091EA409091EB40880F991FE091E7402D
S1131150F091E840E80FF91F608371838091EA40C1
S11311609091EB4001968093EA409093EB4020915C
S1131170EA403091EB408091EC409091ED4028178B
S113118039073CF01092EA401092EB4081E08093E2
S1131190E9408091E94008958091E940089582E30F
S11311A090E08093154090931640E0E0F9E085814B
S11311B0807C59F485818C7081F4809115409091E4
S11311C01640892BA1F780E009C08091050984FFAE
S11311D002C082E003C081E001C084E02091154098
S11311E030911640232B09F0089584E0FDCFE0EE02
S11311F0F5E085818A708583858182608583E0E05E
S1131200F9E083E7868381E08383178210868583F0
S11312100895CF92DF92FF920F931F93CF93DF93A2
S1131220162FEA01F22E809307090E94CF0881301D
S113123051F0CFEF8C2FDF91CF911F910F91FF9041
S1131240DF90CF900895109308090E94CF08813051
S113125001F5FF2001F12097B9F08E01C0E00F2EB7
S1131260C12CF9E0DF2EF02DD3E0F80181918F013C
S1131270F60180870E94CF088130E1F6CF5FFC162B
S113128029F0FC12F2CFD6CFC0E0D4CFF601D4833C
S1131290F8CFCFEFCFCFCF2DCDCFEF92FF921F93CB
S11312A0CF93DF93C82FD62F7A01122F809307098B
S11312B00E94CF08813039F08FEFDF91CF911F91D9
S11312C0FF90EF900895D09308090E94CF088130D1
S11312D011F08FEFF2CFC160C09307090E94CF08CD
S11312E0813001F5812F112341F380E0E114F104F1
S11312F021F36FEF610F80E042E350E0E0E0F9E0BA
S113130072E040931540509316409581907C61F4AF
S113131095819C7091F62091154030911640232BB5
S1131320A1F7CBCF8FEFC9CF9085D7019D937D01D6
S1131330681305C087E080930409812FBECF7483AE
S11313408F5FDFCF089508951F920F920FB60F920B
S113135011242F938F939F93AF93BF938091360B58
S113136080FF8CC08091174090911840A091194043
S1131370B0911A40892B8A2B8B2B09F1809117404D
S113138090911840A0911940B0911A400197A10979
S1131390B1098093174090931840A0931940B093DB
S11313A01A408091174090911840A0911940B09133
S11313B01A40892B8A2B8B2B11F44E984D988091CF
S11313C0174090911840A0911940B0911A40892B70
S11313D08A2B8B2B09F452C08091F6409091F740F0
S11313E0892B19F18091074181111FC08091F6402A
S11313F09091F74002970CF44EC04E9A8091F640BB
S11314009091F74001978093F6409093F740809134
S1131410F6409091F740019709F450C08091F6404E
S11314209091F740019609F464C08091F440909142
S1131430F540892B19F18091064181111FC08091DB
S1131440F4409091F54002970CF45CC04D9A809161
S1131450F4409091F54001978093F4409093F540C7
S11314608091F4409091F540019709F45EC0809119
S1131470F4409091F540019609F472C083E08093A2
S1131480360BBF91AF919F918F912F910F900FBE0B
S11314900F901F9018958091F6409091F7408F3FE0
S11314A09F4F0CF0B4CF4E988091F6409091F74046
S11314B001968093F6409093F740A9CF8091FC4029
S11314C09091FD40892B61F08091FC409091FD400A
S11314D09195819591098093F6409093F740A5CF1B
S11314E08091FE409091FF408093F6409093F740A6
S11314F09CCF8091FE409091FF408093F640909362
S1131500F74093CF8091F4409091F5408F3F9F4FE7
S11315100CF0A6CF4D988091F4409091F54001963F
S11315208093F4409093F5409BCF8091F840909144
S1131530F940892B61F08091F8409091F9409195A0
S1131540819591098093F4409093F54097CF8091D1
S1131550FA409091FB408093F4409093F5408ECFF5
S11315608091FA409091FB408093F4409093F54031
S113157085CF8091174090911840A0911940B09167
S11315801A40892B8A2B8B2B21F08091350B81708B
S1131590089580E00895E0E3FBE085818E7F8583F4
S11315A04E984D9886E490E40E94E10781E0809390
S11315B006418093074110921740109218401092F0
S11315C0194010921A400895442361F080E69AEE7F
S11315D0A0E0B0E08093174090931840A093194086
S11315E0B0931A408091174090911840A0911940EF
S11315F0B0911A40892B8A2B8B2B91F461157105BC
S113160071F481E06730710509F080E09B01255099
S113161031092230310508F045C021E00EC008959B
S11316206130710521F0CB010397029768F521E041
S11316306830710509F020E081E0882309F446C090
S113164040910441509105414617570709F43EC0A3
S113165081E0E0E3FBE095819E7F95836D30710529
S113166008F04FC0FB01E95CF44F0C946B17730B4B
S1131670900B980BA00BD40BBA0BEE0BC20CDA0C2C
S1131680960C680C390C080C81E06730710509F080
S113169080E06230710509F0B9CF21E0673071054F
S11316A079F217C021E06830710509F020E081115A
S11316B0C7CF6830710569F0209100413091014134
S11316C02617370709F498C1282FC3CF222309F41A
S11316D091C120910241309103412617370709F443
S11316E081C121E0B6CF1092F6401092F7401092DB
S11316F0F4401092F5404E984D981092F340109299
S1131700F240E0E3FBE095819160958381116DC126
S1131710222309F471C16093024170930341089537
S11317204E981092F6401092F7401092F340E9CF91
S11317304D981092F4401092F5401092F240E1CF8F
S11317404FE050E04093FE405093FF4042E350E0AE
S11317504093FC405093FD404091FE405091FF4027
S11317604093F6405093F74091E09093F3401092E9
S11317700741C7CF4FE050E04093FA405093FB40FD
S113178042E350E04093F8405093F9404091FA40CE
S11317905091FB404093F4405093F54091E0909376
S11317A0F24010920641ADCF49E150E04093FE4033
S11317B05093FF4044EF51E04093FC405093FD4070
S11317C04091FE405091FF404093F6405093F740C3
S11317D091E09093F3401092074193CF49E150E098
S11317E04093FA405093FB4044EF51E04093F8405B
S11317F05093F9404091FA405091FB404093F4409B
S11318005093F54091E09093F2401092064179CFC5
S1131810A9E1B0E0A093FA40B093FB40E4EFF1E01B
S1131820E093F840F093F9404091FA405091FB4026
S11318305195419551094093F4405093F540A0933C
S1131840FE40B093FF40E093FC40F093FD40409194
S1131850FE405091FF404093F6405093F74091E092
S11318609093F3409093F2401092064110920741F6
S113187048CF49E150E04093FA405093FB404093F5
S1131880F8405093F940E091FA40F091FB40F19513
S1131890E195F109E093F440F093F5404093FE4064
S11318A05093FF404093FC405093FD404091FE40D4
S11318B05091FF404093F6405093F74091E090934D
S11318C0F3409093F240109206411092074119CFD1
S11318D0E9E1F0E0E093FA40F093FB4044EF51E09B
S11318E04093F8405093F940A091FA40B091FB40E6
S11318F0A093F440B093F540E093FE40F093FF4092
S11319004093FC405093FD404091FE405091FF4075
S11319104093F6405093F74091E09093F3409093B6
S1131920F2401092064110920741EBCE49E150E09B
S11319304093FA405093FB404093F8405093F94051
S1131940E091FA40F091FB40E093F440F093F540CD
S11319504093FE405093FF404093FC405093FD4021
S11319604091FE405091FF404093F6405093F74021
S113197091E09093F3409093F240109206411092BC
S11319800741BFCE49E150E04093FE405093FF40F1
S11319901092FC401092FD404091FE405091FF4057
S11319A04093F6405093F74091E09093F3401092A7
S11319B00741A7CE49E150E04093FA405093FB40E1
S11319C01092F8401092F9404091FA405091FB4037
S11319D04093F4405093F54091E09093F24010927C
S11319E006418FCE882309F496CE60930441709308
S11319F0054108958111F9CF60930041709301412D
S1131A00089540E00E94E40A089570E060E00E94B6
S1131A10010D86E490E40E94E107109206411092C1
S1131A20074180E69AEEA0E0B0E0809317409093DF
S1131A301840A0931940B0931A400895EF92FF9272
S1131A400F931F93CF93DF938C017B01C0E3DBE003
S1131A508D818E7F8D83C8010E94050D8D818160EB
S1131A608D83E114F10439F4DF91CF911F910F912B
S1131A70FF90EF90089541E0B701C8010E94E40A85
S1131A80F3CF70E060E00E941E0D08951BBEFC01C0
S1131A9064BF408308950F931F93CF93DF93082F60
S1131AA0192F80931B4090931C4081E08093084140
S1131AB040E868ED88E790E00E94460D60E070E041
S1131AC0CB010E940415C0E4D1E08981882341F050
S1131AD064EF71E080E090E00E9404158111F5CF7D
S1131AE0E0E4F1E01486158610861186802F912F8C
S1131AF0853F2FE7920710F485EF9FE78A3020E8AF
S1131B00920710F089E090E8E0E4F1E0828793879F
S1131B10178281E0828391E89083858360E070E09E
S1131B20CB010E940415C0E4D1E08889882341F0E8
S1131B3064EF71E080E090E00E9404158111F5CF1C
S1131B4010925201DF91CF911F910F9108958FEF61
S1131B509FE70E944B0D08954F925F926F927F9280
S1131B608F929F92AF92BF92CF92DF92EF92FF92A9
S1131B700F931F93CF93DF93EC018B01488059801F
S1131B806A807B80411451046104710409F447C0E4
S1131B90FB0180809180A280B38081149104A10410
S1131BA0B104E9F1C301B201A50194010E944917EE
S1131BB06B017C01C114D104E104F10429F4750121
S1131BC064010FC06B017C01C501B401A70196013A
S1131BD00E94491746015701611571058105910558
S1131BE089F7F2E0CF16D104E104F104C0F0C30197
S1131BF0B201A70196010E944917288339834A83B9
S1131C005B83F8016081718182819381A7019601D0
S1131C100E944917F8012083318342835383DF9163
S1131C20CF911F910F91FF90EF90DF90CF90BF90D5
S1131C30AF909F908F907F906F905F904F9008959A
S1131C408F929F92AF92BF92CF92DF92EF92FF92C8
S1131C500F931F93CF93DF93CDB7DEB72897CDBFF4
S1131C60DEBF8A0180901D4090901E40A0901F40CE
S1131C70B0902040A50194010E94491769017A019E
S1131C8069837A838B839C838D829E82AF82B8869C
S1131C90BE016B5F7F4FCE0101960E94AC0D69813E
S1131CA07A818B819C81660F771F881F991F660F2D
S1131CB0771F881F991F660F771F881F991F660F4C
S1131CC0771F881F991F660F771F881F991F660F3C
S1131CD0771F881F991F660F771F881F991F8D8094
S1131CE09E80AF80B884A50194010E9449173250A8
S1131CF041095109CC0CDD1CEE1CFF1CCC0CDD1C75
S1131D00EE1CFF1CCC0CDD1CEE1CFF1CCC0CDD1CE3
S1131D10EE1CFF1CCC0CDD1CEE1CFF1CCC0CDD1CD3
S1131D20EE1CFF1CCC0CDD1CEE1CFF1CC20ED31ED3
S1131D30E41EF51EF801C082D182E282F38264833C
S1131D4075838683978380869186A286B38680E096
S1131D502896CDBFDEBFDF91CF911F910F91FF90E9
S1131D60EF90DF90CF90BF90AF909F908F900895A9
S1131D703F924F925F926F927F928F929F92AF9217
S1131D80BF92CF92DF92EF92FF920F931F93CF9364
S1131D90DF934B015C01EA0181E0F9018083F0E803
S1131DA08F16F1ED9F06F0EFAF06F8E0BF0608F0DE
S1131DB087C06894332431F860E079EE84EA95E3CF
S1131DC00F2E412CF9EE5F2EF4EA6F2EF5E37F2EF1
S1131DD0F02DA50194010E94491769017A0144E09C
S1131DE0C416D104E104F10408F079C0A32DB0E0D5
S1131DF0A50194010E948317A3019201261B370BAE
S1131E00480B590BCA01B90133943394611536E474
S1131E10730733EC830733E29307D8F660E070E08E
S1131E20CB01C12CD12C760121E054E0C516D1049C
S1131E30E104F10409F020E0F8012083CC0CDD1C5E
S1131E40EE1CFF1CCC0CDD1CEE1CFF1CCC0CDD1CA2
S1131E50EE1CFF1CCC0CDD1CEE1CFF1CCC0CDD1C92
S1131E60EE1CFF1CCC0CDD1CEE1CFF1CCC0CDD1C82
S1131E70EE1CFF1CF2E0DF1AE108F108C882D982E7
S1131E80EA82FB821C821D821E821F8201E010E016
S1131E9020E030E0088719872A873B87DF91CF91BC
S1131EA01F910F91FF90EF90DF90CF90BF90AF9074
S1131EB09F908F907F906F905F904F903F90089588
S1131EC0C501660F771F881F991F660F771F881F2C
S1131ED0991FC12CD12C76016894C2F8A5CFA50115
S1131EE09401C701B6010E9439179ECF2F923F92E9
S1131EF04F925F926F927F928F929F92AF92BF9216
S1131F00CF92DF92EF92FF920F931F93CF93DF93C1
S1131F10CDB7DEB76297CDBFDEBF4B015C011A01BE
S1131F202D873E878091184190911941A0911A41C3
S1131F30B0911B4189879A87AB87BC87BC01CD01CF
S1131F40A50194010E94491769017A01CF86D88AB4
S1131F50E98AFA8A69837A838B839C838D829E8241
S1131F60AF82B886BE016B5F7F4FCE0101960E949F
S1131F70AC0D4D805E806F80788489809A80AB80C0
S1131F80BC80A3019201C701B6010E9439179B01CD
S1131F90AC01280D391D4A1D5B1D69857A858B8529
S1131FA09C850E944917C301B2010E9439176987B1
S1131FB07A878B879C8781149104A104B10411F45E
S1131FC0C0FE71C0AD85BE851C92D8011C92880CE0
S1131FD0991CAA1CBB1C880C991CAA1CBB1CC501FF
S1131FE0B401660F771F881F991F660F771F881F1C
S1131FF0991F660F771F881F991F660F771F881F09
S1132000991F660F771F881F991FA30192010E94D1
S11320104917325041095109CC0CDD1CEE1CFF1C40
S1132020CC0CDD1CEE1CFF1CCC0CDD1CEE1CFF1CC0
S1132030CC0CDD1CEE1CFF1CCC0CDD1CEE1CFF1CB0
S1132040CC0CDD1CEE1CFF1CCC0CDD1CEE1CFF1CA0
S1132050C20ED31EE41EF51EF101C082D182E282BB
S1132060F382648375838683978340865186628670
S1132070738669857A858B859C856296CDBFDEBF24
S1132080DF91CF911F910F91FF90EF90DF90CF9050
S1132090BF90AF909F908F907F906F905F904F9084
S11320A03F902F90089581E0AD85BE858C938F85F8
S11320B09889A989BA890497A105B10509F085CF42
S11320C081E0D8018C93F101108211821282138273
S11320D0148215821682178281E090E0A0E0B0E0BD
S11320E080879187A287B387C4CFFF920F931F93F2
S11320F0CF93DF93F82E8B01D42FC5E02D2FA801A9
S11321006F2D80EC0E9409098D1749F0C150B1F779
S113211081E0DF91CF911F910F91FF90089580E0AE
S1132120F8CFCF93DF9300D0CDB7DEB76F77698355
S113213041E0BE016F5F7F4F805F0E947510811187
S113214007C090E080E00F900F90DF91CF91089549
S11321508BEF90E0F8CF0F931F93CF93DF93CDB71E
S1132160DEB76697CDBFDEBF8A01AE014F5F5F4F1A
S11321700E94200E811120C08A858D8789858E87D3
S11321808B8183708F878A81888B8981898B8B85EA
S11321908295807F9F819F70890F8A8B8E818B8B24
S11321A08D818C8B0130110579F048E0BE01635FAD
S11321B07F4F82E20E9475106696CDBFDEBFDF912D
S11321C0CF911F910F91089548E0BE01635F7F4F47
S11321D08AE10E947510F0CFFF920F931F93CF9363
S11321E0DF93F82E8B01D42FC5E02D2FA8016F2D7E
S11321F080EC0E944D098D1749F0C150B1F781E080
S1132200DF91CF911F910F91FF90089580E0F8CF57
S1132210CF92DF92EF92FF921F93CF93DF9300D080
S1132220CDB7DEB7182F6A017B010E94F708109220
S113223018411092194110921A4110921B4180E4E6
S113224098E7ADE7B1E080931D4090931E40A093C2
S11322501F40B0932040109217418FEF898341E0D3
S1132260BE016F5F7F4F83E00E9475108093094128
S1132270882351F00F900F90DF91CF911F91FF9021
S1132280EF90DF90CF9008958CEC898341E0BE01FC
S11322906F5F7F4F80E10E94751090910941892BF7
S11322A08093094141E0BE016F5F7F4F81E10E944D
S11322B0751090910941892B8093094141E0BE0139
S11322C06F5F7F4F82E10E94751090910941892BC5
S11322D0809309411261198341E0BE016F5F7F4F12
S11322E087EB0E94751090910941892B80930941D5
S11322F0C114D104E104F10451F40F2EF0E4CF2E03
S1132300F8E7DF2EFDE7EF2EFF24F394F02D809104
S11323101D4090911E40A0911F40B09120408C150B
S11323209D05AE05BF0539F48091094191E09827D8
S113233090930A419FCF41E0BE016F5F7F4F8FE0D2
S11323400E94EC10811196CF8981C0921D40D092D9
S11323501E40E0921F40F09220408F73898341E039
S1132360BE016F5F7F4F8FE00E947510909109410D
S1132370892B80930941D8CF0F931F93CF93DF9379
S113238000D0CDB7DEB7182F062F41E0BE016F5F36
S11323907F4F83E00E94EC10811128C089810023C3
S11323A0E1F021E030E002C0220F331F1A95E2F77A
S11323B020958223898341E0BE016F5F7F4F83E0D4
S11323C00E947510811115C090E080E00F900F906D
S11323D0DF91CF911F910F91089521E030E002C069
S11323E0220F331F1A95E2F7822BE4CF8CEF90E093
S11323F0EDCF8CEF90E0EACFFF920F931F93CF9332
S1132400DF9300D0CDB7DEB78B016894FF24F4F8D6
S1132410F80E41E0BE016F5F7F4F8F2D0E94EC10DC
S1132420811129C0898101301105E9F0D0F0023011
S11324301105E1F003301105E1F0898341E0BE01AB
S11324406F5F7F4F8F2D0E947510811117C090E030
S113245080E00F900F90DF91CF911F910F91FF902B
S113246008958C7FEACF8C7F8160E7CF8C7F826078
S1132470E4CF8360E2CF8BEF90E0EBCF8BEF90E083
S1132480E8CFEF92FF921F93CF93DF9300D0CDB7A5
S1132490DEB77B0110E1180F41E0BE016F5F7F4F93
S11324A0812F0E94EC10811111C0898191E0E916FD
S11324B0F104A1F092E0E916F10491F0898341E07E
S11324C0BE016F5F7F4F812F0E9475100F900F9098
S11324D0DF91CF911F91FF90EF9008958F7DEECF04
S11324E08062ECCF0F931F93CF93DF9300D0CDB7CF
S11324F0DEB7062F10E1180F41E0BE016F5F7F4F7A
S1132500812F0E94EC1081110CC08981002381F07D
S11325108064898341E0BE016F5F7F4F812F0E94F9
S113252075100F900F90DF91CF911F910F91089527
S11325308F7BEFCFFF920F931F93CF93DF9300D046
S1132540CDB7DEB78130910529F088F1029751F1BA
S113255081E020C00F2EF4E3FF2EF02D042F162F60
S113256041E0BE016F5F7F4F8F2D0E94EC108111FF
S113257011C08981837801118C6090E1199FB001A9
S11325801124682B698341E0BE016F5F7F4F8F2D5B
S11325900E9475100F900F90DF91CF911F910F91B2
S11325A0FF9008950F2EFCE3FF2EF02DD7CF0F2EB2
S11325B0FCE2FF2EF02DD2CF6F927F928F92AF92DA
S11325C0CF92DF92EF92FF920F931F93CF93DF93FB
S11325D0CDB7DEB76997CDBFDEBF3C01CE86DF86BF
S11325E0E88A0A8B1B8B2C8B688F59834A83880F4C
S11325F0880F880F41E0BE01645F7F4F845D0E94B5
S1132600EC10811124C09C85888983709C7F892B60
S11326108B838F858C838E858D83888D8295807F37
S11326209C899F70890F8E838B898F838A89888781
S113263081E06816710429F1D0F082E06816710413
S113264051F16A2DC3010E947212882371F16996B7
S1132650CDBFDEBFDF91CF911F910F91FF90EF901F
S1132660DF90CF90AF908F907F906F90089548E067
S1132670BE016F5F7F4F8AE20E947510882309F3C1
S1132680E6CF48E0BE016F5F7F4F82E30E94751082
S11326908823B9F2DCCF48E0BE016F5F7F4F8AE345
S11326A00E947510882369F2D2CF48A5682DC30112
S11326B00E949A12CCCF4F925F926F927F928F9228
S11326C09F92AF92BF92CF92DF92EF92FF920F93BD
S11326D01F93CF93DF93CDB7DEB76597CDBFDEBF32
S11326E06B017C013A01922EB02E1D861E8610913C
S11326F00A41112309F434C180E4C81682E4D806DF
S11327008FE0E806F10468F0C70124E630E040E019
S113271050E00E944917A4E6B0E00E9483176B01C1
S11327207C0191E06916710409F4A3C010F1B2E0D0
S11327306B16710409F015C1809117418460809370
S1132740174180958C6F8F8741E0BE01615F7F4F99
S113275083E00E947510182F811103C1C0921341A8
S1132760D0921441E0921541F0921641A2E1AD8B52
S11327709CC080911741816080931741C0920B41A6
S1132780D0920C41E0920D41F0920E4180E18D8B8C
S113279044244394512C8E01025F1F4F9E01235FFA
S11327A03F4FAE014F5F5F4FC701B6010E94B80EA5
S11327B0698B7A8B8B8B9C8BB201C3010E94411273
S11327C0182F8111CEC08E858F93812CAD84C98042
S11327D0DA80EB80FC800D811E812F81388549854C
S11327E05A856B857C85C3010E94DC12182F0F90DB
S11327F08111B7C089899A89AB89BC890097A105E1
S1132800B10509F079C0B1107DC0992009F47FC0E9
S1132810809117418F8741E0BE01615F7F4F83E064
S11328200E9475108111B2C04A94452809F47FC0F2
S11328308D85882309F486C08CE68F8741E0BE012C
S1132840615F7F4F8D890E9475108111A1C08989B4
S11328509A89AB89BC890097A105B10509F481C0A7
S11328608093184190931941A0931A41B0931B414E
S113287078C08091174182608093174180958A6F58
S11328808F8741E0BE01615F7F4F83E00E94751036
S1132890182F811166C0C0920F41D0921041E0926E
S11328A01141F092124191E19D8B809118419091D8
S11328B01941A0911A41B0911B41892B8A2B8B2B72
S11328C029F46894442441F8512C65CF8E01025FA9
S11328D01F4F9E01235F3F4FAE014F5F5F4FC70104
S11328E0B6010E94760F6894442441F8512C198A49
S11328F01A8A1B8A1C8A60CFA201BC01CD010E94E6
S1132900AB1081CF6B2DC3010E9491107ECF8091BB
S1132910174180958F8741E0BE01615F7F4F83E05F
S11329200E947510882309F47FCF182F1AC08CE4F5
S11329308F8741E0BE01615F7F4F8D890E947510D2
S1132940182F0FC08CE28F8741E0BE01615F7F4F7B
S11329508D890E947510882309F479CF182F01C03E
S113296011E0812F6596CDBFDEBFDF91CF911F911E
S11329700F91FF90EF90DF90CF90BF90AF909F901A
S11329808F907F906F905F904F900895182FE9CFAC
S1132990182FE7CF1092500080E00895E0E5F0E0B2
S11329A09081997F8670982B90830895E0E0FBE0F6
S11329B081E0858320E43CE92487358793E0908394
S11329C09683E0E1FBE0858340EC5DE54487558731
S11329D080838683A0E1B1E04EE113964C93139774
S11329E0E0E2FBE085836FEF7FEF64877587908378
S11329F0868313964C93E0E3FBE085832487358735
S1132A009083868380E008950F931F936115710569
S1132A108105910509F46AC020911C412223F1F13A
S1132A200091214110912241209123413091244170
S1132A30012B022B032B21F100911D4110911E410A
S1132A4020911F41309120410617170728073907A5
S1132A5009F448C010921A0B10921B0B60931D418D
S1132A6070931E4180931F419093204160932141B4
S1132A7070932241809323419093244180E04BC082
S1132A801092150B10921C4110921D4110921E4180
S1132A9010921F411092204180E03DC000911D41E1
S1132AA010911E4120911F413091204106171707B4
S1132AB028073907B9F010921A0B10921B0B609378
S1132AC01D4170931E4180931F4190932041609358
S1132AD0214170932241809323419093244181E0CA
S1132AE080931C4181E08093150B15C01092150B47
S1132AF010921C4110921D4110921E4110921F41D0
S1132B0010922041109221411092224110922341AF
S1132B101092244180E01F910F9108951F920F920B
S1132B200FB60F9211248F939F938091260B80FFF1
S1132B301EC08091134090911440892B49F08091DC
S1132B401340909114400197809313409093144044
S1132B508091154090911640892B49F08091154041
S1132B60909116400197809315409093164083E00E
S1132B708093260B9F918F910F900FBE0F901F9003
S1132B8018951F920F920FB60F9211248F939F9353
S1132B90AF93BF938091160B80FF0EC080912141AB
S1132BA090912241A0912341B09124410097A10525
S1132BB0B10571F41092150B83E08093160BBF914D
S1132BC0AF919F918F910F900FBE0F901F9018950A
S1132BD00197A109B1098093214190932241A093C7
S1132BE02341B0932441E8CFE0E0FBE0158210825A
S1132BF0E0E1FBE015821082E0E2FBE01582108246
S1132C00E0E3FBE01582108280E00895BF92CF924A
S1132C10DF92EF92FF920F931F93CF93DF93B62E21
S1132C2011E0009789F0FC01C080D180E280F3803C
S1132C30B701A601415E57466543710911E04F3162
S1132C40514A6740710558F0812FDF91CF911F9150
S1132C500F91FF90EF90DF90CF90BF900895EC011B
S1132C6000E02B2D50E040E0C701B6010E945B1349
S1132C70182F81110CC088819981AA81BB8180930E
S1132C80214090932240A0932340B0932440688134
S1132C9079818A819B8102E32B2D41E050E00E94DF
S1132CA05B138111D1CF488159816A817B81409323
S1132CB02140509322406093234070932440182F66
S1132CC0C3CF60932140709322408093234090931C
S1132CD024400E946C160895CF93DF930E94FA0754
S1132CE040E050E0BA0180E490E00E940811C2ED97
S1132CF0D0E0811109C063E070E090E080E00E94C0
S1132D00FC11EC01892B21F0CE01DF91CF910895C4
S1132D1060E090E080E00E94BC11EC01892BA1F7F7
S1132D2063E070E081E090E00E94FC11EC01892BEB
S1132D3059F760E081E090E00E94BC11EC01892B1E
S1132D4019F760E081E290E40E9406168111DCCF5D
S1132D5081E080932541D8CF0E94E71608F481E0F2
S1132D6008950E94B8166894B1110C942E17089512
S1132D700E94131788F09F5798F0B92F9927B751DD
S1132D80B0F0E1F0660F771F881F991F1AF0BA950B
S1132D90C9F714C0B13091F00E942D17B1E0089525
S1132DA00C942D17672F782F8827B85F39F0B93F17
S1132DB0CCF3869577956795B395D9F73EF49095BE
S1132DC08095709561957F4F8F4F9F4F0895990F10
S1132DD00008550FAA0BE0E8FEEF16161706E807E1
S1132DE0F907C0F012161306E407F50798F0621B02
S1132DF0730B840B950B39F40A2661F0232B242BD7
S1132E00252B21F408950A2609F4A140A6958FEFF5
S1132E10811D811D089557FD9058440F551F59F089
S1132E205F3F71F04795880F97FB991F61F09F3FB3
S1132E3079F087950895121613061406551FF2CFDC
S1132E404695F1DF08C0161617061806991FF1CF2C
S1132E5086957105610508940895E894BB27662753
S1132E607727CB0197F908950E94E71608F48FEFAE
S1132E700895DB018F939F930E948317BF91AF91B5
S1132E80A29F800D911DA39F900DB29F900D1124C0
S1132E900895A1E21A2EAA1BBB1BFD010DC0AA1F97
S1132EA0BB1FEE1FFF1FA217B307E407F50720F0AF
S1132EB0A21BB30BE40BF50B661F771F881F991F2A
S1132EC01A9469F760957095809590959B01AC0173
S1132ED0BD01CF010895EE0FFF1F0024001C0BBE9F
S1132EE00790F691E02D0994A29FB001B39FC00111
S1132EF0A39F700D811D1124911DB29F700D811D22
S1132F001124911D08950E947417A59F900DB49FDC
S1132F10900DA49F800D911D112408950F931F936C
S1132F20CF93DF938230910510F482E090E0E0913A
S1132F302841F091294130E020E0B0E0A0E0309752
S1132F4099F42115310509F44AC0281B390B2430A2
S1132F503105D8F58A819B816115710589F1FB01E1
S1132F6082839383FE0111C04081518102811381C8
S1132F7048175907E0F04817590799F4109761F07A
S1132F8012960C93129713961C933296CF01DF91ED
S1132F90CF911F910F9108950093284110932941D7
S1132FA0F4CF2115310551F04217530738F0A90128
S1132FB0DB019A01BD01DF01F801C1CFEF01F9CFB7
S1132FC08093284190932941CDCFFE01E20FF31F56
S1132FD0819391932250310928833983D7CF20914B
S1132FE0264130912741232B41F420910240309116
S1132FF00340209326413093274120910040309193
S113300001402115310541F42DB73EB740910440EC
S113301050910540241B350BE0912641F091274146
S1133020E217F307A0F42E1B3F0B2817390778F09B
S1133030AC014E5F5F4F2417350748F04E0F5F1FFA
S11330404093264150932741819391939FCFF0E081
S1133050E0E09CCFCF93DF930097E9F0FC01329737
S113306012821382A0912841B0912941ED0130E0F0
S113307020E01097A1F420813181820F931F2091C9
S11330802641309127412817390709F061C0E093A0
S11330902641F0932741DF91CF910895EA01CE179D
S11330A0DF07E8F54A815B819E0141155105B1F7BF
S11330B0E901EA83FB8349915991C40FD51FEC17A9
S11330C0FD0761F4808191810296840F951FE901C7
S11330D088839983828193818A839B83F0E0E0E0F3
S11330E012968D919C9113970097B9F52D913C916F
S11330F01197CD010296820F931F209126413091A2
S113310027412817390739F6309751F5109228418D
S113311010922941A0932641B0932741BCCFC2838A
S1133120D38340815181840F951FC817D90761F457
S11331304E5F5F4F88819981480F591F40835183A7
S11331408A819B81828393832115310509F0B0CF55
S1133150E0932841F09329419ECFFD01DC01C0CFCB
S113316012821382D7CF0F931F93CF93DF93CDB7E0
S1133170DEB72E97CDBFDEBF0D891E8986E08C8316
S113318009831A838FEF9FE78D839E83AE01475E89
S11331905F4F6F89788DCE0101960E94DD182F81D3
S11331A03885020F131FF80110822E96CDBFDEBFA3
S11331B0DF91CF911F910F9108952F923F924F92DB
S11331C05F926F927F928F929F92AF92BF92CF92B3
S11331D0DF92EF92FF920F931F93CF93DF93CDB7BC
S11331E0DEB72B97CDBFDEBF7C013B018A01FC011A
S11331F016821782838181FFDAC1CE0101965C01B8
S1133200F7019381F30193FD859193FF81913F0130
S1133210882309F453C1853239F493FD859193FFD2
S113322081913F01853229F4B70190E00E94F01AA0
S1133230E7CF912C212C312CFFE1F31538F08B32A0
S113324011F190F4803209F1833229F137FC3CC04A
S113325020ED280F2A3050F536FE20C08AE0989ED3
S1133260200D1124922E06C08D3291F0803371F717
S1133270689430F8F30193FD859193FF81913F01A8
S11332808111DACF21C0689431F8689432F8F2CF12
S1133290689433F8EFCF689434F8ECCFEAE02E9ECC
S11332A0200D1124222E689435F8E4CF8E3229F4AF
S11332B036FC04C1689436F8DDCF8C3619F4689472
S11332C037F8D8CF8836B1F2982F9F7D9554933034
S11332D0E0F08336A1F18337C1F1833509F063C08F
S11332E02801F2E04F0E511CF801C080D180692DF5
S11332F070E036FC02C06FEF7FEFC6010E94DA1A5D
S11333004C01689437F882010AC00C5F1F4FFFE339
S1133310F98388248394912C6501E89437F833FE6B
S11333202DC0522C8114910471F5552009F468CFF5
S1133330B70180E290E00E94F01A5A94F6CFF801A7
S1133340808189830E5F1F4FE4CF2801F2E04F0E86
S1133350511CF801C080D180692D70E036FC02C098
S11333606FEF7FEFC6010E94E51A4C018201D5CFB1
S1133370B70180E290E00E94F01A2A9428141904FC
S113338009F0B0F7CECFF60137FC859137FE819175
S11333906F01B70190E00E94F01A51105A94F1E0C5
S11333A08F1A9108BFCF843619F0893609F077C097
S11333B0F80137FE6BC060817181828193810C5F5B
S11333C01F4FF32DFF763F2E97FF09C090958095F0
S11333D0709561957F4F8F4F9F4F689437F82AE01F
S11333E030E0A5010E94201BC82ECA188C2C432C47
S11333F036FE0CC0E89440F8C91440F434FE05C00D
S113340032FC03C0F32DFE7E4F2E892C44FEA7C050
S1133410FE01EC0DF11D8081803309F099C0242D4B
S1133420297E422E842D8870582E43FCA7C040FE6E
S1133430A1C09C2C821418F42C0C922C981844FED5
S1133440A3C0B70180E390E00E94F01A42FE09C0D5
S113345088E790E041FE02C088E590E0B7010E9451
S1133460F01AC91408F49CC0CA94D12C9FEFC91A4D
S1133470D90ACA0CDB1CF60182916F01B70190E0F6
S11334800E94F01AAC14BD04B1F74FCF6081718172
S1133490072E000C880B990B0E5F1F4F92CFD32C75
S11334A0E894D4F82AE030E08537C9F1232D297F48
S11334B0D22E8F3691F1D8F4883539F1F70186810F
S11334C097812B96CDBFDEBFDF91CF911F910F91D6
S11334D0FF90EF90DF90CF90BF90AF909F908F9030
S11334E07F906F905F904F903F902F90089580371A
S11334F049F0883719F7D4FE02C06894D2F820E165
S113350030E00DC06894D4F8F6CF34FE03C0822FA7
S11335108660D82E20E132E002C028E030E0F801D5
S1133520D7FE0FC060817181828193810C5F1F4F30
S1133530A5010E94201BC82ECA183D2CE89437F818
S113354055CF6081718190E080E00E5F1F4FF0CF16
S113355042FC02C0839466CF8394839463CF842D0A
S1133560867809F45FCFF6CFB70180E290E00E943D
S1133570F01A83948214C0F3512C61CF522C581842
S1133580821408F45CCFF8CF842D867809F469CFCF
S11335908BE241FE80E247FC8DE2B70190E05FCF11
S11335A0B70180E390E00E94F01A9A945ACF8FEF0B
S11335B09FEF87CFFC010590615070400110D8F750
S11335C0809590958E0F9F1F0895FC016150704067
S11335D001900110D8F7809590958E0F9F1F089544
S11335E00F931F93CF93DF93182F092FEB018B8138
S11335F081FD09C01FEF0FEF812F902FDF91CF9135
S11336001F910F91089582FF14C02E813F818C81F8
S11336109D81281739073CF4E881F981CF0101968F
S11336208883998310838E819F8101968E839F83E3
S1133630E3CFE885F985812F0995892BA1F3DACFAA
S1133640FA01AA27283051F1203181F1E8946F93CF
S11336506E7F6E5F7F4F8F4F9F4FAF4FB1E03ED075
S1133660B4E03CD0670F781F891F9A1FA11D680F13
S1133670791F8A1F911DA11D6A0F711D811D911D46
S1133680A11D20D009F468943F912AE0269F1124BB
S11336903019305D3193DEF6CF010895462F47701F
S11336A0405D4193B3E00FD0C9F7F6CF462F4F707A
S11336B0405D4A3318F0495D31FD4052419302D0D8
S11336C0A9F7EACFB4E0A69597958795779567957E
S11336D0BA95C9F700976105710508959B01AC017E
S11336E00A2E06945795479537952795BA95C9F7A5
S11336F0620F731F841F951FA01D089510E0C6E775
S1133700D0E004C0FE010E946B172196C837D10790
S1093710C9F7F894FFCF95
S113371600002E412000FF010101066400E803D0E9
S1133726070100C800C80060EA0000FF7F40787DFA
S11337360120043600257500F000600960090400C4
S1073746050007006F
S9030000FC
