:100000000C9478000C94A2000C94A2000C94A20012
:100010000C94A2000C94A2000C946E030C94A20009
:100020000C94A2000C94A2000C94A2000C94A200C8
:100030000C94D5000C944E150C94A2000C94A200C4
:100040000C94A2000C94A2000C94A2000C94A200A8
:100050000C94A2000C94A2000C94A2000C94A20098
:100060000C941E060C94A2000C94A2000C94A20006
:100070000C94A2000C94A2000C941B150C94A200EA
:100080000C94A2000C94A2000C94C6000C94A20044
:100090000C94A2000C94A2000C94A2000C94A20058
:1000A0000C94A2000C944E090C94A2000C94A20093
:1000B0000C94A2000C94A2000C94A2000C94A20038
:1000C0000C94A2000C94A2000C94A2000C94A20028
:1000D0000C94A2000C94A2000C94A2000C94A20018
:1000E0000C94A2000C94A20023054F063205600672
:1000F00011241FBECFEFCDBFDFE7DEBF10E4A0E0CD
:10010000B0E4E8E2F6E300E00BBF02C007900D9216
:10011000A433B107D9F721E4A4E3B0E401C01D92F0
:10012000A732B207E1F710E0C6E7D0E004C021979C
:10013000FE010E94F416C437D107C9F70E9480035C
:100140000C94071B0C9400000FB6F89460932341A5
:100150007093244180932541909326410FBE0895CA
:10016000FC010FB6F8946091234170912441809175
:100170002541909126410FBE309721F06083718315
:100180008283938308950E94D10708951F920F924E
:100190000FB60F9211248F938FB18FEF8FB98F917C
:1001A0000F900FBE0F901F9018951F920F920FB6D1
:1001B0000F9211240BB60F920F931F932F933F931F
:1001C0004F935F936F937F938F939F93AF93BF935F
:1001D000CF93DF93EF93FF938091060B80FF1FC2B5
:1001E000209109402F5F209309408BEA289F812DA1
:1001F000112486958695982F990F890F880F2817B7
:1002000059F080913E4081113EC28FEF80933D4076
:1002100090E080E02FEFDFC10E949006C82FD82F1A
:10022000D7700E9465060E949006982F9770D91784
:1002300009F4D7C09D2F92700D2F0170D470C8277C
:100240001C2F1770C1FF42C09923A9F08AE490E4E3
:100250000E94630A882361F080915240909153403C
:10026000019680935240909353401092364013C0B1
:100270001092084010C08AE490E40E94630A882328
:1002800001F110925E4010925F4081E08093364011
:1002900081E08093084010FF6CC00023F1F18AE4F4
:1002A00090E40E94630A8823A9F1809150409091C4
:1002B00051400196809350409093514010923540A8
:1002C0003CC08AE490E40E94EB0CE2CF9111E3CFB2
:1002D00080914D408111DFCF809108408823D9F271
:1002E00080915E4090915F40019680935E40909334
:1002F0005F40883C910578F281E080934D401092F8
:100300005E4010925F401092524010925340109203
:100310000840C1CF1092074010C08AE490E40E94C8
:10032000630A882309F110925C4010925D4081E0DD
:100330008093354081E080930740147009F4CAC06F
:10034000DD23F1F18AE490E40E94630A8823A9F195
:1003500080914E4090914F40019680934E409093F3
:100360004F40109234403DC08AE490E40E94EB0C70
:10037000E1CF0111E2CF80914C408111DECF80911D
:1003800007408823D1F280915C4090915D400196B6
:1003900080935C4090935D40883C910570F281E0D1
:1003A00080934C4010925C4010925D4010925040FF
:1003B0001092514010920740C0CF1092064011C0D9
:1003C0008AE490E40E94630A882309F47EC01092B4
:1003D0005A4010925B4081E08093344081E08093EA
:1003E000064080913B4090913C40009709F498C0B2
:1003F000019780933B4090933C40892BC1F48091BE
:10040000524090915340892B71F0809152409091CD
:100410005340039740F48091524090915340809311
:1004200058409093594010925240109253408091FE
:10043000394090913A40009709F48FC0019780931A
:10044000394090933A40892BC1F48091504090916B
:100450005140892B71F08091504090915140039709
:1004600040F4809150409091514080935640909339
:1004700057401092504010925140809137409091D7
:100480003840009709F486C00197809337409093D5
:100490003840892B09F0B5CE80914E4090914F4065
:1004A000892B71F080914E4090914F40039740F41A
:1004B00080914E4090914F4080935440909355408E
:1004C00010924E4010924F409CCE8AE490E40E94DD
:1004D000EB0C84CFD11185CF80914B40811181CF1E
:1004E00080910640882309F47CCF80915A409091F6
:1004F0005B40019680935A4090935B40883C910505
:1005000008F46FCF81E080934B4010925A401092D4
:100510005B4010924E4010924F401092064061CFC7
:100520008091524090915340019761F080915240E8
:1005300090915340039708F47ACF10925240109252
:10054000534075CF80913640882381F382E390E059
:1005500080933B4090933C406ACF80915040909173
:100560005140019761F08091504090915140039724
:1005700008F483CF10925040109251407ECF80916A
:100580003540882381F382E390E080933940909353
:100590003A4073CF80914E4090914F40019761F067
:1005A00080914E4090914F40039708F42ACE1092CC
:1005B0004E4010924F4025CE80913440882381F3E5
:1005C00082E390E080933740909338401ACE0196B2
:1005D0008330910501F1FC01DC01AA0FBB1FA65F6E
:1005E000BF4B4D915C91452B61F0DC01AA0FBB1F05
:1005F000A65FBF4B4D915C911197415051094D93AE
:100600005C93EE0FFF1FE65FFF4B40815181452B4E
:10061000F1F6282FDCCF20933D402223D4F483E051
:100620008093060BFF91EF91DF91CF91BF91AF9136
:100630009F918F917F916F915F914F913F912F91FA
:100640001F910F910F900BBE0F900FBE0F901F9038
:100650001895822F880F990BFC01E95DFF4B2081D3
:100660003181FC01E65FFF4B20833183835D9F4B2B
:10067000DC018D919C910E9487050E94090681E012
:1006800080933E40CCCF0E941506882341F20E9401
:1006900019069C012B5031092F3E3F40B0F42091A8
:1006A0003D40022E000C330BF901EE0FFF1FE05A04
:1006B000FF4B408151812A593F4B41E0D9014C9376
:1006C0008083918310923E40AACFE0913D40EE0F8F
:1006D000FF0BE05AFF4B80819181F4CF1F920F9264
:1006E0000FB60F9211248F938FEF83B98F910F90D4
:1006F0000FBE0F901F9018950B9808950B9A0895B0
:100700000E94C30060E579E786E390E00E94EA1565
:1007100060E873E48DE698E30E94A40090E080E036
:100720000E94B0006B017C0160ED77E080E090E01A
:100730000E949114882349F090E080E00E94B0006C
:100740006C157D058E059F0579F390E080E00E9491
:10075000B0006C157D058E059F0591F480916B406E
:1007600090916C40816080936B4090936C400E94AC
:10077000510D41E070E060E08AE490E40E948E0A4E
:100780000F2EF4E2EF2EF0E4FF2EF02D01E710E43F
:10079000C0E5D0E00F2EFDEECF2ED12CF02D72C093
:1007A00041E065E070E08AE490E40E948E0A7EC039
:1007B00066E070E08AE490E40E94AB0C77C068E0E9
:1007C00070E08AE490E40E94AB0C67E070E08AE499
:1007D00090E40E94AB0C76C010924D4068E070E04F
:1007E0008AE490E40E94C80C71C041E063E070E0CC
:1007F0008AE490E40E948E0A7DC064E070E08AE49E
:1008000090E40E94AB0C76C068E070E08AE490E46B
:100810000E94AB0C67E070E08AE490E40E94AB0CAD
:1008200075C010924C4068E070E08AE490E40E9449
:10083000C80C70C06BE070E08AE490E40E94AB0CDE
:10084000109254401092554080915A4090915B40D4
:10085000883E934008F07AC080914B40811183C05C
:1008600080916F4090917040892B09F085C08091F4
:100870006D4090916E40892B09F095C080916A403F
:100880008111A8C08091584090915940892B91F0D6
:100890008091584090915940019709F481CF8091FF
:1008A000584090915940029709F482CF10925840D5
:1008B0001092594080915E4090915F40883E9340F5
:1008C00008F07DCF80914D40811186CF80915640B8
:1008D00090915740892B91F08091564090915740CC
:1008E000019709F482CF809156409091574002972A
:1008F00009F483CF109256401092574080915C408B
:1009000090915D40883E934008F07ECF80914C40AE
:10091000811187CF8091544090915540892B09F4E3
:1009200093CF8091544090915540019709F482CF24
:100930008091544090915540029709F081CF6CE02E
:1009400070E08AE490E40E94AB0C7ACF68E070E03B
:100950008AE490E40E94AB0C67E070E08AE490E4E3
:100960000E94AB0C79CF10924B4068E070E08AE4B3
:1009700090E40E94C80C74CF80916F4090917040B9
:100980009F938F93FF92EF921F930F930E943C18B7
:1009900010926F40109270400F900F900F900F9038
:1009A0000F900F9064CF80916D4090916E409F9317
:1009B0008F93FF92EF921F930F930E943C18109217
:1009C0006D4010926E400F900F900F900F900F900F
:1009D0000F9054CF8AE490E40E94750A0E947C0331
:1009E0000E94E20782E090E00E945B1481E0809325
:1009F0006940109210401092114080916A40882303
:100A000089F08881897F82608883F89488818160F9
:100A100088837894889588818E7F888380916A40C6
:100A20008111EFCF109269400E94C3000E947E03A3
:100A30000E94F5158091104090911140C0926D4038
:100A4000D0926E401FCF8AE490E40E944C0964E685
:100A500070E080E490E40E9449078FE390E40E94F4
:100A6000ED0708958FE390E40E94EE0780E490E4A0
:100A70000E9461078AE490E40E944D090895E0E62F
:100A8000F4E09289987F928B92899460928B9389FB
:100A9000987F938B93899460938B9489987F948BA0
:100AA00094899460948B9589987F958B95899460AF
:100AB000958B9289977F928B9389977F938B94895B
:100AC000977F948B9589977F958B91E09093A00069
:100AD0009AE09093020681110CC0E0E0F6E081E01C
:100AE0008083148682E090E08093D5409093D64036
:100AF0000895E0E0F6E083E0808381E084878287E8
:100B000081E090E08093D5409093D640089589305D
:100B1000910508F075C0FC01E057FA4F0C94F416EB
:100B20009905A505B205BF05CC05D9050006E60562
:100B3000F3058091D5409091D640019719F081E05E
:100B40000E943F051092080608958091D54090912B
:100B5000D640019719F081E00E943F0581E0809323
:100B6000080608958091D5409091D640019719F0DC
:100B700081E00E943F0582E08093080608958091FD
:100B8000D5409091D640019719F081E00E943F0531
:100B900083E08093080608958091D5409091D640D7
:100BA000029719F080E00E943F0584E080930806D8
:100BB00008958091D5409091D640029719F080E039
:100BC0000E943F0585E08093080608958091D540F6
:100BD0009091D640029719F080E00E943F0587E08F
:100BE0008093080608958091D5409091D640029751
:100BF00019F080E00E943F0582E480930806089582
:100C0000E0E0F6E0148610821092D5401092D640B3
:100C100008958091D5409091D640892B29F0E0E04D
:100C2000F6E0148681E08287089580910D06817038
:100C30000895809110069091110608951F920F92C9
:100C40000FB60F9211240BB60F922F933F934F9331
:100C50005F936F937F938F939F93AF93BF93EF9324
:100C6000FF93609110067091110687ED90E40E9449
:100C70004608811110920C06FF91EF91BF91AF9140
:100C80009F918F917F916F915F914F913F912F91A4
:100C90000F900BBE0F900FBE0F901F9018950F93E3
:100CA0001F9300E010E42CEB36E440E050E069E4F0
:100CB00073E487ED90E40E94EF071F910F91089570
:100CC00087ED90E40E943F080895EAEDF0E4218169
:100CD000228330813183ADEDB0E411965C911197A0
:100CE00012965C9312976C9111966C93119792B136
:100CF0009C9386B380834091D940942764279623A0
:100D00005427952394279093D9409091D8408927D0
:100D1000392783232927822389278093D840089560
:100D20008091D94008950098E0E1F4E080818860E6
:100D300080830198E1E1F4E08081886080830298FB
:100D4000E2E1F4E0808188608083039A0B9A049842
:100D5000E4E1F4E0808188608083059A0D98069A2A
:100D60000E98079A0F9A249A2C9A4298E2E5F4E09A
:100D70008081886080834398E3E5F4E08081886027
:100D80008083449A4C9A459A4D9AE0E9F4E0808138
:100D900088608083E1E9F4E0808188608083E2E913
:100DA000F4E0808188608083839A8B98E0EBF4E0A4
:100DB000808188608083E1EBF4E0808188608083BB
:100DC000A29AAA9AA398A498A59AAD9AE6EBF4E001
:100DD00080818860808308950098E0E1F4E080815C
:100DE000877F80830198E1E1F4E08081877F8083C1
:100DF0000298E2E1F4E08081877F8083039A0B9878
:100E00000498E4E1F4E08081877F8083059A0D985F
:100E1000069A0E98079A0F9A249A2C984298E2E51F
:100E2000F4E08081886080834398E3E5F4E080818A
:100E300088608083449A4C98459A4D98E0E9F4E0A4
:100E4000808188608083E1E9F4E08081886080832C
:100E5000E2E9F4E0808188608083839A8B98E0EBFC
:100E6000F4E0808188608083E1EBF4E08081886039
:100E70008083A29AAA98A398A498A59AAD98E6EB25
:100E8000F4E080818860808308951092890080E07A
:100E900008950F931F93CF93DF93EC018B01CB0148
:100EA0000E9417178D839E830F83188718821982DB
:100EB0001A821B821C821986DF91CF911F910F919C
:100EC0000895FC01858196810E94B3170895FC0165
:100ED000828193818083918314821186089545E8ED
:100EE00068ED8CE790E00E94F00C45E268ED88E642
:100EF00090E00E94F00C80E00895789480E00895DE
:100F000083E08093A2006AE070E080E090E00E94BD
:100F100091148111F8CFE0E6F4E08689887F868B12
:100F200086898460868B8689877F868B81EC809317
:100F3000A0060895E0E1F4E0808188608193E831C3
:100F400084E0F807C9F7E0E3F4E0808188608193EA
:100F5000E83384E0F807C9F7E0E5F4E080818860D1
:100F60008193E83584E0F807C9F7E0E7F4E0808191
:100F700088608193E83784E0F807C9F7E0E9F4E096
:100F8000808188608193E83984E0F807C9F7E0EB55
:100F9000F4E0808188608193E83B84E0F807C9F73A
:100FA00008950E949A070E946F070E9463140E948E
:100FB0007D070E9493060E9457140E9480070E949A
:100FC000450708950E949A070E9481150E94EC0629
:100FD000469A4E98459A4D98089508950895CF924F
:100FE000DF92EF92FF920F931F936A017B010093B0
:100FF000E7401093E8402093E9403093EA4020E036
:1010000030E041E553E4CB01B6010E94BD1618164D
:101010009CF020E030E048EC52E4C701B6010E94A9
:10102000351688238CF40F2EC12CD12CF8ECEF2E22
:10103000F2E4FF2EF02D08C00F2EC12CD12CF1E5CB
:10104000EF2EF3E4FF2EF02DC701B6010E943A16F1
:101050006093E5407093E6408091E5409091E640D2
:10106000880F991F0E9417178093E0409093E140EA
:101070001F910F91FF90EF90DF90CF900895809196
:10108000E0409091E1400E94B31708958091E240C2
:1010900081112CC08091E3409091E440880F991F0A
:1010A000E091E040F091E140E80FF91F6083718327
:1010B0008091E3409091E44001968093E3409093C7
:1010C000E4402091E3403091E4408091E5409091EC
:1010D000E640281739073CF01092E3401092E440B4
:1010E00081E08093E2408091E24008958091E24067
:1010F000089582E390E08093144090931540E0E0DF
:10110000F9E08581807C59F485818C7081F480912F
:10111000144090911540892BA1F780E009C080917F
:10112000050984FF02C082E003C081E001C084E0C1
:101130002091144030911540232B09F0089584E04C
:10114000FDCFE0EEF5E085818A7085838581826040
:101150008583E0E0F9E083E7868381E0838317827B
:10116000108685830895CF92DF92FF920F931F938D
:10117000CF93DF93162FEA01F22E809307090E9486
:101180007908813051F0CFEF8C2FDF91CF911F91F3
:101190000F91FF90DF90CF900895109308090E945F
:1011A0007908813001F5FF2001F12097B9F08E0117
:1011B000C0E00F2EC12CF9E0DF2EF02DD3E0F801B6
:1011C00081918F01F60180870E9479088130E1F6D4
:1011D000CF5FFC1629F0FC12F2CFD6CFC0E0D4CFFF
:1011E000F601D483F8CFCFEFCFCFCF2DCDCFEF9275
:1011F000FF921F93CF93DF93C82FD62F7A01122F20
:10120000809307090E947908813039F08FEFDF91D0
:10121000CF911F91FF90EF900895D09308090E94FD
:101220007908813011F08FEFF2CFC160C0930709C8
:101230000E947908813001F5812F112341F380E06C
:10124000E114F10421F36FEF610F80E042E350E01D
:10125000E0E0F9E072E0409314405093154095812E
:10126000907C61F495819C7091F6209114403091AE
:101270001540232BA1F7CBCF8FEFC9CF9085D70196
:101280009D937D01681305C087E080930409812F39
:10129000BECF74838F5FDFCF089508951F920F92A2
:1012A0000FB60F9211242F938F939F93AF93BF93F9
:1012B0008091360B80FF8CC0809116409091174032
:1012C000A0911840B0911940892B8A2B8B2B09F1E2
:1012D0008091164090911740A0911840B09119400C
:1012E0000197A109B1098093164090931740A093EC
:1012F0001840B09319408091164090911740A091EA
:101300001840B0911940892B8A2B8B2B11F44E98E1
:101310004D988091164090911740A0911840B0913F
:101320001940892B8A2B8B2B09F452C08091EF40F6
:101330009091F040892B19F18091004181111FC0DB
:101340008091EF409091F04002970CF44EC04E9A7D
:101350008091EF409091F04001978093EF409093FF
:10136000F0408091EF409091F040019709F450C017
:101370008091EF409091F040019609F464C0809113
:10138000ED409091EE40892B19F18091FF40811141
:101390001FC08091ED409091EE4002970CF45CC02C
:1013A0004D9A8091ED409091EE4001978093ED40F1
:1013B0009093EE408091ED409091EE40019709F4BA
:1013C0005EC08091ED409091EE40019609F472C0AC
:1013D00083E08093360BBF91AF919F918F912F91B6
:1013E0000F900FBE0F901F9018958091EF40909135
:1013F000F0408F3F9F4F0CF0B4CF4E988091EF405C
:101400009091F04001968093EF409093F040A9CFE7
:101410008091F5409091F640892B61F08091F540E4
:101420009091F6409195819591098093EF4090932A
:10143000F040A5CF8091F7409091F8408093EF4025
:101440009093F0409CCF8091F7409091F84080932A
:10145000EF409093F04093CF8091ED409091EE401B
:101460008F3F9F4F0CF0A6CF4D988091ED4090910B
:10147000EE4001968093ED409093EE409BCF80919B
:10148000F1409091F240892B61F08091F140909170
:10149000F2409195819591098093ED409093EE40B3
:1014A00097CF8091F3409091F4408093ED409093DA
:1014B000EE408ECF8091F3409091F4408093ED40C8
:1014C0009093EE4085CF8091164090911740A09167
:1014D0001840B0911940892B8A2B8B2B21F08091D9
:1014E000350B8170089580E00895E0E3FBE085818D
:1014F0008E7F85834E984D9880E490E40E94670724
:1015000081E08093FF40809300411092164010923A
:10151000174010921840109219400895442361F02A
:1015200080E69AEEA0E0B0E08093164090931740DA
:10153000A0931840B09319408091164090911740A5
:10154000A0911840B0911940892B8A2B8B2B91F4D4
:101550006115710571F481E06730710509F080E073
:101560009B01255031092230310508F045C021E0AA
:101570000EC008956130710521F0CB0103970297E9
:1015800068F521E06830710509F020E081E08823EA
:1015900009F446C04091FD405091FE404617570760
:1015A00009F43EC081E0E0E3FBE095819E7F9583F6
:1015B0006D30710508F04FC0FB01EF51F54F0C94F1
:1015C000F4161D0B3A0B420B4A0B7E0B640B980B67
:1015D0006C0C840C400C120CE30BB20B81E06730F6
:1015E000710509F080E06230710509F0B9CF21E0A2
:1015F0006730710579F217C021E06830710509F094
:1016000020E08111C7CF6830710569F02091F94061
:101610003091FA402617370709F498C1282FC3CF15
:10162000222309F491C12091FB403091FC40261700
:10163000370709F481C121E0B6CF1092EF40109234
:10164000F0401092ED401092EE404E984D9810925E
:10165000EC401092EB40E0E3FBE0958191609583D4
:1016600081116DC1222309F471C16093FB40709315
:10167000FC4008954E981092EF401092F040109266
:10168000EC40E9CF4D981092ED401092EE40109250
:10169000EB40E1CF4FE050E04093F7405093F840EB
:1016A00042E350E04093F5405093F6404091F740BC
:1016B0005091F8404093EF405093F04091E0909368
:1016C000EC4010920041C7CF4FE050E04093F34010
:1016D0005093F44042E350E04093F1405093F24085
:1016E0004091F3405091F4404093ED405093EE40D0
:1016F00091E09093EB401092FF40ADCF49E150E074
:101700004093F7405093F84044EF51E04093F54048
:101710005093F6404091F7405091F8404093EF408D
:101720005093F04091E09093EC401092004193CFA1
:1017300049E150E04093F3405093F44044EF51E0CE
:101740004093F1405093F2404091F3405091F44067
:101750004093ED405093EE4091E09093EB40109217
:10176000FF4079CFA9E1B0E0A093F340B093F440FB
:10177000E4EFF1E0E093F140F093F2404091F34068
:101780005091F4405195419551094093ED4050934B
:10179000EE40A093F740B093F840E093F540F0930B
:1017A000F6404091F7405091F8404093EF405093FD
:1017B000F04091E09093EC409093EB401092FF400A
:1017C0001092004148CF49E150E04093F3405093DC
:1017D000F4404093F1405093F240E091F340F09197
:1017E000F440F195E195F109E093ED40F093EE407E
:1017F0004093F7405093F8404093F5405093F640A3
:101800004091F7405091F8404093EF405093F040A2
:1018100091E09093EC409093EB401092FF40109237
:10182000004119CFE9E1F0E0E093F340F093F44098
:1018300044EF51E04093F1405093F240A091F340C7
:10184000B091F440A093ED40B093EE40E093F740A8
:10185000F093F8404093F5405093F6404091F740A4
:101860005091F8404093EF405093F04091E09093B6
:10187000EC409093EB401092FF4010920041EBCE71
:1018800049E150E04093F3405093F4404093F140DD
:101890005093F240E091F340F091F440E093ED403A
:1018A000F093EE404093F7405093F8404093F5405A
:1018B0005093F6404091F7405091F8404093EF40EC
:1018C0005093F04091E09093EC409093EB40109255
:1018D000FF4010920041BFCE49E150E04093F740F5
:1018E0005093F8401092F5401092F6404091F74026
:1018F0005091F8404093EF405093F04091E0909326
:10190000EC4010920041A7CE49E150E04093F340F3
:101910005093F4401092F1401092F2404091F34005
:101920005091F4404093ED405093EE4091E09093FD
:10193000EB401092FF408FCE882309F496CE60933F
:10194000FD407093FE4008958111F9CF6093F940F6
:101950007093FA40089540E00E948E0A089570E066
:1019600060E00E94AB0C80E490E40E946707109254
:10197000FF401092004180E69AEEA0E0B0E0809334
:10198000164090931740A0931840B09319400895C3
:10199000EF92FF920F931F93CF93DF938C017B0104
:1019A000C0E3DBE08D818E7F8D83C8010E94AF0C88
:1019B0008D8181608D83E114F10439F4DF91CF9141
:1019C0001F910F91FF90EF90089541E0B701C8017A
:1019D0000E948E0AF3CF70E060E00E94C80C089568
:1019E0001BBEFC0164BF408308950F931F93CF93E8
:1019F000DF93082F192F80931A4090931B4081E0AA
:101A00008093014140E868ED88E790E00E94F00C87
:101A100060E070E0CB010E949114C0E4D1E08981C4
:101A2000882341F064EF71E080E090E00E9491141F
:101A30008111F5CFE0E4F1E0148615861086118659
:101A4000802F912F853F2FE7920710F485EF9FE7B6
:101A50008A3020E8920710F089E090E8E0E4F1E0B5
:101A600082879387178281E0828391E890838583C0
:101A700060E070E0CB010E949114C0E4D1E088895D
:101A8000882341F064EF71E080E090E00E949114BF
:101A90008111F5CF10925201DF91CF911F910F91DB
:101AA00008958FEF9FE70E94F50C08954F925F9283
:101AB0006F927F928F929F92AF92BF92CF92DF925E
:101AC000EF92FF920F931F93CF93DF93EC018B0163
:101AD000488059806A807B804114510461047104FC
:101AE00009F447C0FB0180809180A280B3808114FB
:101AF0009104A104B104E9F1C301B201A50194016B
:101B00000E94D2166B017C01C114D104E104F104DE
:101B100029F4750164010FC06B017C01C501B4019A
:101B2000A70196010E94D216460157016115710561
:101B30008105910589F7F2E0CF16D104E104F104A3
:101B4000C0F0C301B201A70196010E94D2162883FA
:101B500039834A835B83F80160817181828193813B
:101B6000A70196010E94D216F80120833183428397
:101B70005383DF91CF911F910F91FF90EF90DF90F2
:101B8000CF90BF90AF909F908F907F906F905F901D
:101B90004F9008958F929F92AF92BF92CF92DF9213
:101BA000EF92FF920F931F93CF93DF93CDB7DEB7E2
:101BB0002897CDBFDEBF8A0180901C4090901D40C9
:101BC000A0901E40B0901F40A50194010E94D21623
:101BD00069017A0169837A838B839C838D829E82DB
:101BE000AF82B886BE016B5F7F4FCE0101960E9427
:101BF000560D69817A818B819C81660F771F881FC2
:101C0000991F660F771F881F991F660F771F881F00
:101C1000991F660F771F881F991F660F771F881FF0
:101C2000991F660F771F881F991F660F771F881FE0
:101C3000991F8D809E80AF80B884A50194010E9479
:101C4000D216325041095109CC0CDD1CEE1CFF1C90
:101C5000CC0CDD1CEE1CFF1CCC0CDD1CEE1CFF1C98
:101C6000CC0CDD1CEE1CFF1CCC0CDD1CEE1CFF1C88
:101C7000CC0CDD1CEE1CFF1CCC0CDD1CEE1CFF1C78
:101C8000C20ED31EE41EF51EF801C082D182E2828C
:101C9000F382648375838683978380869186A28688
:101CA000B38680E02896CDBFDEBFDF91CF911F9134
:101CB0000F91FF90EF90DF90CF90BF90AF909F90EB
:101CC0008F9008953F924F925F926F927F928F9282
:101CD0009F92AF92BF92CF92DF92EF92FF920F93BB
:101CE0001F93CF93DF934B015C01EA0181E0F9017F
:101CF0008083F0E88F16F1ED9F06F0EFAF06F8E075
:101D0000BF0608F087C06894332431F860E079EEAC
:101D100084EA95E30F2E412CF9EE5F2EF4EA6F2E44
:101D2000F5E37F2EF02DA50194010E94D2166901E2
:101D30007A0144E0C416D104E104F10408F079C04A
:101D4000A32DB0E0A50194010E940C17A3019201FC
:101D5000261B370B480B590BCA01B9013394339436
:101D6000611536E4730733EC830733E29307D8F643
:101D700060E070E0CB01C12CD12C760121E054E071
:101D8000C516D104E104F10409F020E0F801208334
:101D9000CC0CDD1CEE1CFF1CCC0CDD1CEE1CFF1C57
:101DA000CC0CDD1CEE1CFF1CCC0CDD1CEE1CFF1C47
:101DB000CC0CDD1CEE1CFF1CCC0CDD1CEE1CFF1C37
:101DC000CC0CDD1CEE1CFF1CF2E0DF1AE108F10870
:101DD000C882D982EA82FB821C821D821E821F82F7
:101DE00001E010E020E030E0088719872A873B8770
:101DF000DF91CF911F910F91FF90EF90DF90CF90E7
:101E0000BF90AF909F908F907F906F905F904F901A
:101E10003F900895C501660F771F881F991F660FB1
:101E2000771F881F991FC12CD12C76016894C2F8A6
:101E3000A5CFA5019401C701B6010E94C2169ECF8D
:101E40002F923F924F925F926F927F928F929F92CA
:101E5000AF92BF92CF92DF92EF92FF920F931F93B8
:101E6000CF93DF93CDB7DEB76297CDBFDEBF4B0117
:101E70005C011A012D873E8780911141909112419A
:101E8000A0911341B091144189879A87AB87BC8791
:101E9000BC01CD01A50194010E94D21669017A010D
:101EA000CF86D88AE98AFA8A69837A838B839C836E
:101EB0008D829E82AF82B886BE016B5F7F4FCE015E
:101EC00001960E94560D4D805E806F8078848980D7
:101ED0009A80AB80BC80A3019201C701B6010E9429
:101EE000C2169B01AC01280D391D4A1D5B1D698579
:101EF0007A858B859C850E94D216C301B2010E940F
:101F0000C21669877A878B879C8781149104A10404
:101F1000B10411F4C0FE71C0AD85BE851C92D8011C
:101F20001C92880C991CAA1CBB1C880C991CAA1C0E
:101F3000BB1CC501B401660F771F881F991F660F70
:101F4000771F881F991F660F771F881F991F660FBD
:101F5000771F881F991F660F771F881F991FA3017E
:101F600092010E94D216325041095109CC0CDD1C5D
:101F7000EE1CFF1CCC0CDD1CEE1CFF1CCC0CDD1C75
:101F8000EE1CFF1CCC0CDD1CEE1CFF1CCC0CDD1C65
:101F9000EE1CFF1CCC0CDD1CEE1CFF1CCC0CDD1C55
:101FA000EE1CFF1CC20ED31EE41EF51EF101C08202
:101FB000D182E282F382648375838683978340862D
:101FC00051866286738669857A858B859C85629643
:101FD000CDBFDEBFDF91CF911F910F91FF90EF90AA
:101FE000DF90CF90BF90AF909F908F907F906F9039
:101FF0005F904F903F902F90089581E0AD85BE8512
:102000008C938F859889A989BA890497A105B10510
:1020100009F085CF81E0D8018C93F1011082118203
:1020200012821382148215821682178281E090E058
:10203000A0E0B0E080879187A287B387C4CFFF92EA
:102040000F931F93CF93DF93F82E8B01D42FC5E00E
:102050002D2FA8016F2D80EC0E94B3088D1749F039
:10206000C150B1F781E0DF91CF911F910F91FF90A7
:10207000089580E0F8CF0F931F93CF93DF93CDB7F0
:10208000DEB76697CDBFDEBF8A01AE014F5F5F4FFF
:102090000E94CA0D811120C08A858D8789858E870F
:1020A0008B8183708F878A81888B8981898B8B85CF
:1020B0008295807F9F819F70890F8A8B8E818B8B09
:1020C0008D818C8B0130110579F048E0BE01635F92
:1020D0007F4F82E20E941F106696CDBFDEBFDF9168
:1020E000CF911F910F91089548E0BE01635F7F4F2C
:1020F0008AE10E941F10F0CFFF920F931F93CF939E
:10210000DF93F82E8B01D42FC5E02D2FA8016F2D62
:1021100080EC0E94F7088D1749F0C150B1F781E0BB
:10212000DF91CF911F910F91FF90089580E0F8CF3C
:10213000CF92DF92EF92FF921F93CF93DF9300D065
:10214000CDB7DEB7182F6A017B010E94A10810925B
:10215000114110921241109213411092144180E4E7
:1021600098E7ADE7B1E080931C4090931D40A093A9
:102170001E40B0931F40109210418FEF898341E0C1
:10218000BE016F5F7F4F83E00E941F10809302416A
:10219000882351F00F900F90DF91CF911F91FF9006
:1021A000EF90DF90CF9008958CEC898341E0BE01E1
:1021B0006F5F7F4F80E10E941F1090910241892B39
:1021C0008093024141E0BE016F5F7F4F81E10E9439
:1021D0001F1090910241892B8093024141E0BE0182
:1021E0006F5F7F4F82E10E941F1090910241892B07
:1021F000809302411261198341E0BE016F5F7F4FFE
:1022000087EB0E941F1090910241892B809302411D
:10221000C114D104E104F10451F40F2EF0E4CF2EE7
:10222000F8E7DF2EFDE7EF2EFF24F394F02D8091E9
:102230001C4090911D40A0911E40B0911F408C15F4
:102240009D05AE05BF0539F48091024191E09827C4
:10225000909303419FCF41E0BE016F5F7F4F8FE0BE
:102260000E947C10811196CF8981C0921C40D0922F
:102270001D40E0921E40F0921F408F73898341E021
:10228000BE016F5F7F4F8FE00E941F10909102414F
:10229000892B80930241D8CF0F931F93CF93DF9365
:1022A00000D0CDB7DEB7182F062F41E0BE016F5F1B
:1022B0007F4F83E00E947C10811128C08981002318
:1022C000E1F021E030E002C0220F331F1A95E2F75F
:1022D00020958223898341E0BE016F5F7F4F83E0B9
:1022E0000E941F10811115C090E080E00F900F90A8
:1022F000DF91CF911F910F91089521E030E002C04E
:10230000220F331F1A95E2F7822BE4CF8CEF90E077
:10231000EDCF8CEF90E0EACFFF920F931F93CF9316
:10232000DF9300D0CDB7DEB78B016894FF24F4F8BB
:10233000F80E41E0BE016F5F7F4F8F2D0E947C1031
:10234000811129C0898101301105E9F0D0F00230F6
:102350001105E1F003301105E1F0898341E0BE0190
:102360006F5F7F4F8F2D0E941F10811117C090E06B
:1023700080E00F900F90DF91CF911F910F91FF9010
:1023800008958C7FEACF8C7F8160E7CF8C7F82605D
:10239000E4CF8360E2CF8BEF90E0EBCF8BEF90E068
:1023A000E8CFEF92FF921F93CF93DF9300D0CDB78A
:1023B000DEB77B0110E1180F41E0BE016F5F7F4F78
:1023C000812F0E947C10811111C0898191E0E91652
:1023D000F104A1F092E0E916F10491F0898341E063
:1023E000BE016F5F7F4F812F0E941F100F900F90D3
:1023F000DF91CF911F91FF90EF9008958F7DEECFE9
:102400008062ECCF0F931F93CF93DF9300D0CDB7B3
:10241000DEB7062F10E1180F41E0BE016F5F7F4F5E
:10242000812F0E947C1081110CC08981002381F0D2
:102430008064898341E0BE016F5F7F4F812F0E94DE
:102440001F100F900F90DF91CF911F910F91089562
:102450008F7BEFCFFF920F931F93CF93DF9300D02B
:10246000CDB7DEB78130910529F088F1029751F19F
:1024700081E020C00F2EF4E3FF2EF02D042F162F45
:1024800041E0BE016F5F7F4F8F2D0E947C10811154
:1024900011C08981837801118C6090E1199FB0018E
:1024A0001124682B698341E0BE016F5F7F4F8F2D40
:1024B0000E941F100F900F90DF91CF911F910F91ED
:1024C000FF9008950F2EFCE3FF2EF02DD7CF0F2E97
:1024D000FCE2FF2EF02DD2CF6F927F928F92AF92BF
:1024E000CF92DF92EF92FF920F931F93CF93DF93E0
:1024F000CDB7DEB76997CDBFDEBF3C01CE86DF86A4
:10250000E88A0A8B1B8B2C8B688F59834A83880F30
:10251000880F880F41E0BE01645F7F4F845D0E9499
:102520007C10811124C09C85888983709C7F892BB5
:102530008B838F858C838E858D83888D8295807F1C
:102540009C899F70890F8E838B898F838A89888766
:1025500081E06816710429F1D0F082E068167104F8
:1025600051F16A2DC3010E940212882371F169960C
:10257000CDBFDEBFDF91CF911F910F91FF90EF9004
:10258000DF90CF90AF908F907F906F90089548E04C
:10259000BE016F5F7F4F8AE20E941F10882309F3FC
:1025A000E6CF48E0BE016F5F7F4F82E30E941F10BD
:1025B0008823B9F2DCCF48E0BE016F5F7F4F8AE32A
:1025C0000E941F10882369F2D2CF48A5682DC3014D
:1025D0000E942A12CCCF4F925F926F927F928F927D
:1025E0009F92AF92BF92CF92DF92EF92FF920F93A2
:1025F0001F93CF93DF93CDB7DEB76497CDBFDEBF18
:102600006B017C013A01B22E1D861E86109103419A
:10261000112309F432C180E4C81682E4D8068FE0A1
:10262000E806F10468F0C70124E630E040E050E03D
:102630000E94D216A4E6B0E00E940C176B017C0148
:1026400091E06916710409F4A4C020F1B2E06B16A0
:10265000710409F013C1809110418460809310418E
:1026600080958C6F8F8741E0BE01615F7F4F83E073
:102670000E941F10182F811101C1C0920C41D092ED
:102680000D41E0920E41F0920F410F2EF2E19F2E8C
:10269000F02D9DC080911041816080931041C092C7
:1026A0000441D0920541E0920641F09207416894BE
:1026B000992494F844244394512C8E01025F1F4FB7
:1026C0009E01235F3F4FAE014F5F5F4FC701B601D1
:1026D0000E94620E698B7A8B8B8B9C8BB201C3013B
:1026E0000E94D111182F8111C9C08E858F93812C22
:1026F000AD84C980DA80EB80FC800D811E812F8142
:10270000388549855A856B857C85C3010E946C128A
:10271000182F0F908111B2C089899A89AB89BC8921
:102720000097A105B10509F079C0BB2009F47CC070
:10273000809110418F8741E0BE01615F7F4F83E050
:102740000E941F108111AFC04A94452809F47CC033
:102750008D85882309F483C08CE68F8741E0BE0114
:10276000615F7F4F892D0E941F1081119EC0898952
:102770009A89AB89BC890097A105B10509F47EC08F
:102780008093114190931241A0931341B09314414F
:1027900075C08091104182608093104180958A6F4E
:1027A0008F8741E0BE01615F7F4F83E00E941F1071
:1027B000182F811163C0C0920841D0920941E09264
:1027C0000A41F0920B410F2EF1E19F2EF02D8091E6
:1027D000114190911241A0911341B0911441892B64
:1027E0008A2B8B2B29F46894442441F8512C65CF13
:1027F0008E01025F1F4F9E01235F3F4FAE014F5F6F
:102800005F4FC701B6010E94200F6894442441F82D
:10281000512C198A1A8A1B8A1C8A60CFA201BC011A
:10282000CD010E943B1081CF8091104180958F8710
:1028300041E0BE01615F7F4F83E00E941F1088234B
:1028400009F482CF182F1AC08CE48F8741E0BE01B3
:10285000615F7F4F892D0E941F10182F0FC08CE2DF
:102860008F8741E0BE01615F7F4F892D0E941F105D
:10287000882309F47CCF182F01C011E0812F6496C2
:10288000CDBFDEBFDF91CF911F910F91FF90EF90F1
:10289000DF90CF90BF90AF909F908F907F906F9080
:1028A0005F904F900895182FE9CF182FE7CF10921F
:1028B000500080E00895E0E5F0E09081997F867017
:1028C000982B90830895E0E0FBE081E0858320E48D
:1028D0003CE92487358793E090839683E0E1FBE031
:1028E000858340EC5DE54487558780838683A0E13E
:1028F000B1E04EE113964C931397E0E2FBE0858341
:102900006FEF7FEF648775879083868313964C9370
:10291000E0E3FBE08583248735879083868380E02E
:1029200008950F931F93611571058105910509F4B1
:102930006AC0209115412223F1F100911A411091B2
:102940001B4120911C4130911D41012B022B032B77
:1029500021F10091164110911741209118413091B9
:102960001941061717072807390709F448C01092BC
:102970001A0B10921B0B60931641709317418093B2
:1029800018419093194160931A4170931B418093B1
:102990001C4190931D4180E04BC01092150B10928A
:1029A0001541109216411092174110921841109241
:1029B000194180E03DC000911641109117412091CE
:1029C0001841309119410617170728073907B9F040
:1029D00010921A0B10921B0B6093164170931741C3
:1029E000809318419093194160931A4170931B4151
:1029F00080931C4190931D4181E08093154181E0BB
:102A00008093150B15C01092150B10921541109262
:102A100016411092174110921841109219411092CC
:102A20001A4110921B4110921C4110921D4180E0EE
:102A30001F910F9108951F920F920FB60F921124BC
:102A40008F939F938091260B80FF1EC08091124030
:102A500090911340892B49F080911240909113403E
:102A6000019780931240909313408091144090916D
:102A70001540892B49F080911440909115400197A1
:102A8000809314409093154083E08093260B9F9190
:102A90008F910F900FBE0F901F9018951F920F925D
:102AA0000FB60F9211248F939F93AF93BF93809192
:102AB000160B80FF0EC080911A4190911B41A0918E
:102AC0001C41B0911D410097A105B10571F4109210
:102AD000150B83E08093160BBF91AF919F918F915F
:102AE0000F900FBE0F901F9018950197A109B10983
:102AF00080931A4190931B41A0931C41B0931D41B8
:102B0000E8CFE0E0FBE015821082E0E1FBE0158217
:102B10001082E0E2FBE015821082E0E3FBE0158228
:102B2000108280E00895CF92DF92EF92FF920F9390
:102B30001F93CF93DF93062F11E0009789F0FC01DC
:102B4000C080D180E280F380B701A601415E574684
:102B50006543710911E04F31514A6740710550F0EA
:102B6000812FDF91CF911F910F91FF90EF90DF9018
:102B7000CF900895EC01202F50E040E0C701B6014E
:102B80000E94EB12182F81110CC088819981AA81B3
:102B9000BB818093204090932140A0932240B0932A
:102BA0002340688179818A819B81202F41E050E018
:102BB0000E94EB128111D4CF488159816A817B81B7
:102BC00040932040509321406093224070932340D3
:102BD000182FC6CF609320407093214080932240ED
:102BE000909323400E94F5150895CF93DF930E94A0
:102BF000800740E050E0BA0180E490E00E94981025
:102C0000C2EDD0E0811109C063E070E090E080E0A7
:102C10000E948C11EC01892B21F0CE01DF91CF9124
:102C2000089560E090E080E00E944C11EC01892B57
:102C3000A1F763E070E081E090E00E948C11EC016C
:102C4000892B59F760E081E090E00E944C11EC0183
:102C5000892B19F760E080E290E40E9493158111BE
:102C6000DCCF81E080931E41D8CF0E94701608F41B
:102C700081E008950E9441166894B1110C94B71632
:102C800008950E949C1688F09F5798F0B92F9927B5
:102C9000B751B0F0E1F0660F771F881F991F1AF047
:102CA000BA95C9F714C0B13091F00E94B616B1E0E0
:102CB00008950C94B616672F782F8827B85F39F0DF
:102CC000B93FCCF3869577956795B395D9F73EF4E0
:102CD00090958095709561957F4F8F4F9F4F089588
:102CE000990F0008550FAA0BE0E8FEEF161617061D
:102CF000E807F907C0F012161306E407F50798F085
:102D0000621B730B840B950B39F40A2661F0232B9D
:102D1000242B252B21F408950A2609F4A140A69519
:102D20008FEF811D811D089557FD9058440F551F49
:102D300059F05F3F71F04795880F97FB991F61F03D
:102D40009F3F79F087950895121613061406551FB4
:102D5000F2CF4695F1DF08C0161617061806991F20
:102D6000F1CF86957105610508940895E894BB2715
:102D700066277727CB0197F908950E94701608F40B
:102D80008FEF0895DB018F939F930E940C17BF91E3
:102D9000AF91A29F800D911DA39F900DB29F900DAA
:102DA00011240895A1E21A2EAA1BBB1BFD010DC020
:102DB000AA1FBB1FEE1FFF1FA217B307E407F507EB
:102DC00020F0A21BB30BE40BF50B661F771F881FC7
:102DD000991F1A9469F760957095809590959B015D
:102DE000AC01BD01CF010895EE0FFF1F0024001CB0
:102DF0000BBE0790F691E02D0994A29FB001B39FFE
:102E0000C001A39F700D811D1124911DB29F700DF3
:102E1000811D1124911D08950E94FD16A59F900DFE
:102E2000B49F900DA49F800D911D112408950F93C0
:102E30001F93CF93DF938230910510F482E090E0EE
:102E4000E0912141F091224130E020E0B0E0A0E0AB
:102E5000309799F42115310509F44AC0281B390B24
:102E600024303105D8F58A819B816115710589F17E
:102E7000FB0182839383FE0111C040815181028155
:102E8000138148175907E0F04817590799F410972C
:102E900061F012960C93129713961C933296CF0101
:102EA000DF91CF911F910F910895009321411093CD
:102EB0002241F4CF2115310551F04217530738F064
:102EC000A901DB019A01BD01DF01F801C1CFEF01CA
:102ED000F9CF8093214190932241CDCFFE01E20FA3
:102EE000F31F819391932250310928833983D7CFDF
:102EF00020911F4130912041232B41F42091024029
:102F00003091034020931F41309320412091004095
:102F1000309101402115310541F42DB73EB7409164
:102F2000044050910540241B350BE0911F41F09166
:102F30002041E217F307A0F42E1B3F0B2817390797
:102F400078F0AC014E5F5F4F2417350748F04E0F05
:102F50005F1F40931F4150932041819391939FCFD6
:102F6000F0E0E0E09CCFCF93DF930097E9F0FC0125
:102F7000329712821382A0912141B0912241ED013A
:102F800030E020E01097A1F420813181820F931F5F
:102F900020911F41309120412817390709F061C065
:102FA000E0931F41F0932041DF91CF910895EA0112
:102FB000CE17DF07E8F54A815B819E014115510577
:102FC000B1F7E901EA83FB8349915991C40FD51FF9
:102FD000EC17FD0761F4808191810296840F951FA3
:102FE000E90188839983828193818A839B83F0E0BE
:102FF000E0E012968D919C9113970097B9F52D9171
:103000003C911197CD010296820F931F20911F4191
:10301000309120412817390739F6309751F5109231
:10302000214110922241A0931F41B0932041BCCF77
:10303000C283D38340815181840F951FC817D9075C
:1030400061F44E5F5F4F88819981480F591F40831B
:1030500051838A819B81828393832115310509F0F5
:10306000B0CFE0932141F09322419ECFFD01DC01DE
:10307000C0CF12821382D7CF0F931F93CF93DF93CA
:10308000CDB7DEB72E97CDBFDEBF0D891E8986E096
:103090008C8309831A838FEF9FE78D839E83AE0114
:1030A000475E5F4F6F89788DCE0101960E9466184A
:1030B0002F813885020F131FF80110822E96CDBF85
:1030C000DEBFDF91CF911F910F9108952F923F9214
:1030D0004F925F926F927F928F929F92AF92BF9228
:1030E000CF92DF92EF92FF920F931F93CF93DF93D4
:1030F000CDB7DEB72B97CDBFDEBF7C013B018A0188
:10310000FC0116821782838181FFDAC1CE0101960C
:103110005C01F7019381F30193FD859193FF819108
:103120003F01882309F453C1853239F493FD859119
:1031300093FF81913F01853229F4B70190E00E940D
:10314000791AE7CF912C212C312CFFE1F31538F0BF
:103150008B3211F190F4803209F1833229F137FC7E
:103160003CC020ED280F2A3050F536FE20C08AE002
:10317000989E200D1124922E06C08D3291F080333E
:1031800071F7689430F8F30193FD859193FF819175
:103190003F018111DACF21C0689431F8689432F888
:1031A000F2CF689433F8EFCF689434F8ECCFEAE0CC
:1031B0002E9E200D1124222E689435F8E4CF8E32F5
:1031C00029F436FC04C1689436F8DDCF8C3619F446
:1031D000689437F8D8CF8836B1F2982F9F7D9554F0
:1031E0009330E0F08336A1F18337C1F1833509F0E4
:1031F00063C02801F2E04F0E511CF801C080D1805D
:10320000692D70E036FC02C06FEF7FEFC6010E94AF
:10321000631A4C01689437F882010AC00C5F1F4F93
:10322000FFE3F98388248394912C6501E89437F8AF
:1032300033FE2DC0522C8114910471F5552009F4F0
:1032400068CFB70180E290E00E94791A5A94F6CFD5
:10325000F801808189830E5F1F4FE4CF2801F2E0DF
:103260004F0E511CF801C080D180692D70E036FCF2
:1032700002C06FEF7FEFC6010E946E1A4C018201FF
:10328000D5CFB70180E290E00E94791A2A942814E1
:10329000190409F0B0F7CECFF60137FC859137FE5F
:1032A00081916F01B70190E00E94791A51105A94F0
:1032B000F1E08F1A9108BFCF843619F0893609F0F2
:1032C00077C0F80137FE6BC0608171818281938184
:1032D0000C5F1F4FF32DFF763F2E97FF09C090958F
:1032E0008095709561957F4F8F4F9F4F689437F809
:1032F0002AE030E0A5010E94A91AC82ECA188C2C19
:10330000432C36FE0CC0E89440F8C91440F434FE57
:1033100005C032FC03C0F32DFE7E4F2E892C44FEE7
:10332000A7C0FE01EC0DF11D8081803309F099C02A
:10333000242D297E422E842D8870582E43FCA7C050
:1033400040FEA1C09C2C821418F42C0C922C9818CE
:1033500044FEA3C0B70180E390E00E94791A42FEC8
:1033600009C088E790E041FE02C088E590E0B7011F
:103370000E94791AC91408F49CC0CA94D12C9FEFFA
:10338000C91AD90ACA0CDB1CF60182916F01B70178
:1033900090E00E94791AAC14BD04B1F74FCF608160
:1033A0007181072E000C880B990B0E5F1F4F92CF77
:1033B000D32CE894D4F82AE030E08537C9F1232DE6
:1033C000297FD22E8F3691F1D8F4883539F1F70163
:1033D000868197812B96CDBFDEBFDF91CF911F9164
:1033E0000F91FF90EF90DF90CF90BF90AF909F90A4
:1033F0008F907F906F905F904F903F902F900895A7
:10340000803749F0883719F7D4FE02C06894D2F8A3
:1034100020E130E00DC06894D4F8F6CF34FE03C04C
:10342000822F8660D82E20E132E002C028E030E012
:10343000F801D7FE0FC060817181828193810C5F9A
:103440001F4FA5010E94A91AC82ECA183D2CE89446
:1034500037F855CF6081718190E080E00E5F1F4F9B
:10346000F0CF42FC02C0839466CF8394839463CFF1
:10347000842D867809F45FCFF6CFB70180E290E023
:103480000E94791A83948214C0F3512C61CF522C7C
:103490005818821408F45CCFF8CF842D867809F48C
:1034A00069CF8BE241FE80E247FC8DE2B70190E0FC
:1034B0005FCFB70180E390E00E94791A9A945ACFC7
:1034C0008FEF9FEF87CFFC01059061507040011096
:1034D000D8F7809590958E0F9F1F0895FC0161503D
:1034E000704001900110D8F7809590958E0F9F1F26
:1034F00008950F931F93CF93DF93182F092FEB019C
:103500008B8181FD09C01FEF0FEF812F902FDF917D
:10351000CF911F910F91089582FF14C02E813F819A
:103520008C819D81281739073CF4E881F981CF010E
:1035300001968883998310838E819F8101968E8363
:103540009F83E3CFE885F985812F0995892BA1F326
:10355000DACFFA01AA27283051F1203181F1E8941D
:103560006F936E7F6E5F7F4F8F4F9F4FAF4FB1E076
:103570003ED0B4E03CD0670F781F891F9A1FA11D71
:10358000680F791F8A1F911DA11D6A0F711D811D72
:10359000911DA11D20D009F468943F912AE0269F37
:1035A00011243019305D3193DEF6CF010895462F96
:1035B0004770405D4193B3E00FD0C9F7F6CF462F77
:1035C0004F70405D4A3318F0495D31FD40524193E0
:1035D00002D0A9F7EACFB4E0A6959795879577959D
:1035E0006795BA95C9F700976105710508959B0124
:1035F000AC010A2E06945795479537952795BA95AD
:10360000C9F7620F731F841F951FA01D089510E056
:10361000C6E7D0E004C0FE010E94F4162196C83728
:08362000D107C9F7F894FFCFB0
:10362800000027412000010101066400E803D007DB
:103638000100C800C80060EA0000FF7F40787D01F3
:1036480020043600257500F00060096009040005B3
:043658000007000067
:00000001FF
