:100000000C9431010C945B010C945B010C94DE01A7
:100010000C945B010C945B010C944E080C945B01F6
:100020000C945B010C945B010C945B010C945B01E0
:100030000C9461030C9440510C945B010C945B0193
:100040000C945B010C945B010C945B010C945B01C0
:100050000C945B010C945B010C945B010C945B01B0
:100060000C9493020C945B010C945B010C945B0167
:100070000C945B010C945B010C94E8500C945B01B4
:100080000C945B010C945B010C9479080C945B015B
:100090000C945B010C945B010C945B010C945B0170
:1000A0000C945B010C946B3F0C945B010C945B0112
:1000B0000C945B010C945B010C945B010C945B0150
:1000C0000C945B010C945B010C945B010C945B0140
:1000D0000C945B010C945B010C945B010C945B0130
:1000E0000C945B010C945B0105A84CCDB2D44EB9C5
:1000F0003836A9020C50B9918688083CA6AAAA2ACB
:10010000BE000000803F08000000BE922449123E5D
:10011000ABAAAA2ABECDCCCC4C3E00000080BEAB20
:10012000AAAAAA3E00000000BF000000803F000015
:10013000000000084178D3BB4387D1133D190E3C22
:10014000C3BD4282AD2B3E68EC8276BED98FE1A959
:100150003E4C80EFFFBE01C4FF7F3F000000000067
:1001600000407A10F35A00A0724E18090010A5D46E
:10017000E80000E87648170000E40B54020000CACB
:100180009A3B000000E1F505000080969800000011
:1001900040420F000000A086010000001027000070
:1001A0000000E803000000006400000000000A00F6
:1001B000000000000100000000002C76D888DC67F9
:1001C0004F0823DFC1DFAE59E1B1B796E5E3E45351
:1001D000C63AE651997696E8E6C28426EB898C9B6E
:1001E00062ED407C6FFCEFBC9C9F40F2BAA56FA50E
:1001F000F490055A2AF75C936B6CF9676DC11BFC90
:10020000E0E40D47FEF520E6B500D0ED902E0300AA
:10021000943577050080841E080000204E0A0000F7
:1002200000C80C333333330F986E12831141EF8DB6
:100230002114893BE65516CFFEE6DB18D1844B38F6
:100240001BF77C1D901DA4BBE424203284725E2227
:100250008100C9F124ECA1E53D27301A141C3D1A98
:10026000211C11241FBECFEFCDBFDFE7DEBF11E49D
:10027000A0E0B0E4EAEFFAEB00E00BBF02C00790A9
:100280000D92A23CB107D9F724E4A2ECB1E401C07D
:100290001D92AC30B207E1F711E0CFE2D1E004C02B
:1002A0002197FE010E949156CD32D107C9F70E94D5
:1002B000110A0C94705D0C9400000FB6F8946093D2
:1002C00008447093094480930A4490930B440FBEF2
:1002D0000895FC010FB6F8946091084470910944A8
:1002E00080910A4490910B440FBE309721F06083B7
:1002F00071838283938308958F938FB78F93F8943C
:10030000809108448F5F80930844809109448F4F07
:100310008093094480910A448F4F80930A448091CE
:100320000B448F4F80930B448F918FBF8F91089513
:10033000CF93DF93CDB7DEB70E9448280000DF914E
:10034000CF910895CF93DF9300D0CDB7DEB78983E7
:100350006A838A818823B1F080E090E0FC0181818A
:10036000482F8981282F30E081E090E002C0880F7B
:10037000991F2A95E2F7242F282B80E090E0FC01BA
:10038000218316C080E090E0FC018181482F8981A3
:10039000282F30E081E090E002C0880F991F2A9555
:1003A000E2F78095242F282380E090E0FC01218350
:1003B00000000F900F90DF91CF9108951F920F9240
:1003C0000FB60F9211240BB60F922F933F934F93BA
:1003D0005F936F937F938F939F93AF93BF93EF93AD
:1003E000FF93CF93DF931F92CDB7DEB780E491E008
:1003F000FC01838189838981882F90E0817099270E
:10040000892B09F474C00E947C0180910640909170
:10041000074021E0892B09F420E0222349F0809154
:1004200006409091074001978093064090930740C3
:100430008091094090910A40A0910B40B0910C40EE
:1004400021E0892B8A2B8B2B09F420E0222399F0C1
:100450008091094090910A40A0910B40B0910C40CE
:100460000197A109B1098093094090930A40A09394
:100470000B40B0930C4081E080932E4280912F423C
:1004800090913042A0913142B09132420196A11D2B
:10049000B11D80932F4290933042A0933142B0938C
:1004A000324280912F4290913042A0913142B091DE
:1004B000324221E00297A105B10509F020E0222394
:1004C00019F081E08093294280912F42909130422F
:1004D000A0913142B091324221E00597A105B105CA
:1004E00009F020E0222319F081E08093334280E478
:1004F00091E023E0FC01238300000F90DF91CF9176
:10050000FF91EF91BF91AF919F918F917F916F91EB
:100510005F914F913F912F910F900BBE0F900FBEA7
:100520000F901F9018951F920F920FB60F921124E3
:100530000BB60F922F933F934F935F936F937F93DD
:100540008F939F93AF93BF93EF93FF93CF93DF93DB
:10055000CDB7DEB72597CDBFDEBF80E096E0FC01CA
:1005600085858B838B81882F90E081709927892BDB
:1005700009F489C080E096E0FC01808991898C8330
:100580009D8319821A8280912340882321F08C81D7
:100590009D8189839A838091A5429091A64221E012
:1005A000892B09F420E0222329F18091A84291E0CF
:1005B000980F9093A842882F90E0880F991F8D582C
:1005C0009D4BFC018081918129813A81820F931F8B
:1005D00089839A838091A842893111F41092A842AC
:1005E0008091A5429091A64201978093A542909355
:1005F000A6420FC09091A74281E0992309F480E0C0
:10060000882339F08091A74281508093A7421982B4
:100610001A82809121409091224021E0059708F4B0
:1006200020E0222389F080912140909122409C017A
:100630002450310989819A8102C0880F991F2A9517
:10064000E2F789839A8314C08091214090912240DF
:10065000049799231CF49195819591099C018981B6
:100660009A8102C0969587952A95E2F789839A83A5
:1006700089819A810E94AA248C819D81BC0184EE8B
:1006800092E40E94FD3B80E096E023E0FC01258798
:1006900000002596CDBFDEBFDF91CF91FF91EF9196
:1006A000BF91AF919F918F917F916F915F914F918A
:1006B0003F912F910F900BBE0F900FBE0F901F9088
:1006C00018951F920F920FB60F9211240BB60F922E
:1006D0002F933F934F935F936F937F938F939F934A
:1006E000AF93BF93EF93FF93CF93DF93CDB7DEB775
:1006F0002F97CDBFDEBF80E09BE0FC0186818E831B
:100700008E81882F90E081709927892B09F4A8C4E5
:100710001F821886809124408F5F8093244020910F
:1007200024408BEA289F812D1124982F9695969529
:10073000892F880F890F880F922F981B992309F012
:10074000E9C319821A821B8287E189870E941320DC
:10075000982F898589238F830E94C71F0E941320A9
:10076000982F898589238887888582708A878885DC
:1007700081708B87888584708C87888580718D8750
:1007800081E09D85992309F080E0809326428823AB
:1007900031F08CE390E080930640909307401B82F9
:1007A0008A85882371F48B85882359F060E086E080
:1007B0000E94A20161E085E00E94A20181E089839C
:1007C00025C08B85882371F48A85882359F060E0E1
:1007D00085E00E94A20161E086E00E94A20181E022
:1007E0008A8314C060E085E00E94A20160E086E098
:1007F0000E94A20119821A828A85882329F48B8596
:10080000882311F481E001C080E08B8381E09C8526
:10081000992309F080E080935B428981809358425C
:100820008A81809359428B8180935A429F81888527
:10083000981709F40AC198858F8189278E8787E0E8
:1008400090E080931F40909320408CE390E0809351
:1008500006409093074084E893E0A0E0B0E08093E6
:10086000094090930A40A0930B40B0930C408E85B2
:10087000082E000C990B82709927892B79F08A85B4
:10088000882339F081E090E08093274090932840BE
:100890000BC0109227401092284006C082E090E0E2
:1008A00080932740909328408E85082E000C990B4A
:1008B00081709927892B79F08B85882339F081E025
:1008C00090E08093294090932A400BC010922940D9
:1008D00010922A4006C082E090E0809329409093D5
:1008E0002A408B818823F1F08091524290915342AB
:1008F0000196809352429093534210923C42109240
:100900003D4210924C4210924D4210923E42109243
:100910003F4210924E4210924F4210922540109248
:10092000264064C0809142429091434221E0892B4D
:1009300009F420E0222389F088EE93E08093A54219
:100940009093A642109242421092434281E090E07E
:10095000809325409093264049C081E080933040A9
:100960008091274090912840019771F488EE93E0A0
:100970008093A5429093A64210923C4210923D4231
:1009800081E080932D400FC08091274090912840B6
:10099000892B49F480914C4290914D42019680936D
:1009A0004C4290934D428091294090912A4001976A
:1009B00071F488EE93E08093A5429093A642109242
:1009C0003E4210923F4281E080932E400FC08091C2
:1009D000294090912A40892B49F480914E42909170
:1009E0004F42019680934E4290934F428E85082E3F
:1009F000000C990B84709927892B09F423C18091ED
:100A00005B42882371F0809150429091514201964F
:100A1000809350429093514210922B4010922C4060
:100A200011C188EE93E08093A5429093A642109264
:100A300040421092414281E080932F4081E090E05B
:100A400080932B4090932C40FDC08B81882309F428
:100A500041C09091564281E08927882331F08091EE
:100A60003040882311F081E001C080E0882309F440
:100A7000ABC0809142429091434221E0019609F43B
:100A800020E0222349F08091424290914342019616
:100A900080934242909343428091424290914342DC
:100AA00021E08436910508F420E0222309F48CC06B
:100AB00081E080935642109242421092434210923B
:100AC0005242109253421092304010922D40109298
:100AD0002E407AC089818823D1F19091544281E0DF
:100AE0008927882331F080912D40882311F081E0FF
:100AF00001C080E0882359F180913C4290913D42B1
:100B000021E0019609F420E0222349F080913C4243
:100B100090913D42019680933C4290933D4280915A
:100B20003C4290913D4221E08436910508F420E05A
:100B3000222369F081E08093544210923C4210924B
:100B40003D4210924C4210924D4210922D408A81AB
:100B50008823D1F19091554281E08927882331F093
:100B600080912E40882311F081E001C080E088232D
:100B700059F180913E4290913F4221E0019609F463
:100B800020E0222349F080913E4290913F4201961D
:100B900080933E4290933F4280913E4290913F42EB
:100BA00021E08436910508F420E0222369F081E0F9
:100BB0008093554210923E4210923F4210924E4214
:100BC00010924F4210922E4080915B428823D1F1C7
:100BD0009091574281E08927882331F080912F40FE
:100BE000882311F081E001C080E0882359F18091D1
:100BF00040429091414221E0019609F420E02223F5
:100C000049F0809140429091414201968093404248
:100C100090934142809140429091414221E084363C
:100C2000910508F420E0222369F081E08093574287
:100C30001092404210924142109250421092514202
:100C400010922F408091A9429091AA42892B71F174
:100C50008091A9429091AA4201978093A9429093D2
:100C6000AA428091A9429091AA42892B09F044C0DE
:100C70008091524290915342892B41F0809152428F
:100C800090915342039710F481E001C080E08823E3
:100C900041F0809152429091534280934A42909306
:100CA0004B42109252421092534226C080915242BF
:100CB00090915342019741F48091254090912640B4
:100CC000019711F481E001C080E0882339F082E3CC
:100CD00090E08093A9429093AA420EC08091524224
:100CE0009091534221E0039708F420E0222321F061
:100CF00010925242109253428091AB429091AC427A
:100D0000892B71F18091AB429091AC420197809315
:100D1000AB429093AC428091AB429091AC42892B14
:100D200009F044C080914C4290914D42892B41F092
:100D300080914C4290914D42039710F481E001C0A4
:100D400080E0882341F080914C4290914D42809305
:100D500044429093454210924C4210924D4226C01C
:100D600080914C4290914D42019741F480912740EF
:100D700090912840019711F481E001C080E0882320
:100D800039F082E390E08093AB429093AC420EC086
:100D900080914C4290914D4221E0039708F420E06D
:100DA000222321F010924C4210924D428091AD428C
:100DB0009091AE42892B71F18091AD429091AE42FB
:100DC00001978093AD429093AE428091AD42909155
:100DD000AE42892B09F044C080914E4290914F421F
:100DE000892B41F080914E4290914F42039710F42D
:100DF00081E001C080E0882341F080914E429091D3
:100E00004F42809346429093474210924E42109236
:100E10004F4226C080914E4290914F42019741F43B
:100E20008091294090912A40019711F481E001C0FE
:100E300080E0882339F082E390E08093AD42909384
:100E4000AE420EC080914E4290914F4221E00397F6
:100E500008F420E0222321F010924E4210924F42DB
:100E60008091AF429091B042892B71F18091AF4255
:100E70009091B04201978093AF429093B04280919D
:100E8000AF429091B042892B09F044C0809150420A
:100E900090915142892B41F0809150429091514262
:100EA000049710F481E001C080E0882341F0809134
:100EB00050429091514280934842909349421092FF
:100EC00050421092514226C080915042909151421E
:100ED000019741F480912B4090912C40019711F49F
:100EE00081E001C080E0882339F082E390E08093C4
:100EF000AF429093B0420EC08091504290915142C7
:100F000021E0039708F420E0222321F010925042C0
:100F10001092514280912C4290912D4221E0892BD8
:100F200009F420E0222309F49BC080912C42909187
:100F30002D42892F881F8827881F8F8780912C42F8
:100F400090912D4299231CF49195819591098C8360
:100F50009D832091B1423091B24280912C42909178
:100F60002D4241E02817390709F040E0442371F190
:100F70008091B3429091B442892B49F08091B34261
:100F80009091B44201978093B3429093B442809180
:100F9000B3429091B442892B09F04BC084E893E0AE
:100FA000A0E0B0E08093094090930A40A0930B40EA
:100FB000B0930C408C819D8102972CF084E090E0EE
:100FC0008C839D8336C01C821D8233C08C819D81A1
:100FD00004974CF180915B42882351F010922F408E
:100FE000109240421092414210925042109251424F
:100FF0008F85882351F080912A4290912B4201974E
:1010000080932A4290932B4209C080912A4290916A
:101010002B42019680932A4290932B428C819D8192
:1010200004978C839D838BE490E08093B3429093EC
:10103000B4428F85882331F08C819D819195819573
:10104000910902C08C819D8180932C4290932D4206
:1010500080912C4290912D428093B1429093B24264
:1010600080E09BE023E0FC01268300002F96CDBFAB
:10107000DEBFDF91CF91FF91EF91BF91AF919F9133
:101080008F917F916F915F914F913F912F910F9031
:101090000BBE0F900FBE0F901F9018951F920F92CE
:1010A0000FB60F9211240BB60F922F938F939F932D
:1010B000EF93FF93CF93DF931F92CDB7DEB780E01E
:1010C00090E0FC018381898380E090E02FEFFC01B8
:1010D000238300000F90DF91CF91FF91EF919F91BB
:1010E0008F912F910F900BBE0F900FBE0F901F90FE
:1010F00018951F920F920FB60F9211240BB60F92F4
:101100002F938F939F93AF93BF93EF93FF93CF93BF
:10111000DF9300D01F92CDB7DEB784E190E0FC01F1
:101120008381898380912942882309F45BC0898166
:10113000882F90E088719927892B09F453C080EAA1
:1011400094E0FC018085882F90E095958795959592
:1011500087959595879583708A838091B542882F6E
:1011600090E0880F991F880F991F982F8A81892BEB
:101170008B838B81882F90E0092E000CAA0BBB0B70
:101180000197A109B1098E309105A105B10538F586
:101190008353974FFC010C949156DB08E508EF0848
:1011A000E508EF08EF08DB08DB08EF08EF08E508C3
:1011B000EF08E508DB0880912C4290912D420196C2
:1011C00080932C4290932D420AC080912C429091A2
:1011D0002D42019780932C4290932D4200008A81EA
:1011E0008093B54280EA94E028E1FC012187000069
:1011F0002396CDBFDEBFDF91CF91FF91EF91BF91DD
:10120000AF919F918F912F910F900BBE0F900FBEBA
:101210000F901F9018950F931F93CF93DF931F92FA
:10122000CDB7DEB719828981893108F051C0898133
:10123000882F90E0092E000CAA0BBB0BBC01CD013E
:101240000E944154DC01CB012BED3FE049EC50E41E
:10125000BC01CD010E949B55DC01CB0120E030E0B8
:1012600048EC51E4BC01CD010E949753DC01CB0155
:10127000BC01CD010E940856DC01CB0120E030E02A
:1012800040E751E4BC01CD010E949B55DC01CB013C
:1012900020E030E040E751E4BC01CD010E94215341
:1012A000DC01CB012981022F10E0BC01CD010E949D
:1012B0001054DC01CB019C01C801880F991F8D5887
:1012C0009D4BFC012083318389818F5F8983ABCF64
:1012D00000000F90DF91CF911F910F910895CF9350
:1012E000DF9300D0CDB7DEB782E792E40E94EF2E05
:1012F00060E083E00E94A20160E087E00E94A2011A
:1013000084E690E089839A8389819A81892B79F098
:1013100080912642882331F089819A8101978983BF
:101320009A83F2CF84E690E089839A83EDCF000020
:101330000F900F90DF91CF910895CF93DF9300D05E
:10134000CDB7DEB789839A831092B8421092B94222
:1013500089819A81079761F48091B6429091B74252
:10136000880F991F88549D4BFC018081918154C046
:1013700089819A81892B29F41092B6421092B74242
:1013800040C089819A81069781F48091B6429091FC
:10139000B742892BB1F18091B6429091B742019743
:1013A0008093B6429093B7422CC08091B642909100
:1013B000B742880F991F88549D4BFC018081918111
:1013C00029813A8128173907E1F08091B64290913E
:1013D000B7424397B4F48091B6429091B7420196D8
:1013E0008093B6429093B7428091B6429091B742B3
:1013F000880F991F88549D4B29813A81FC012083D5
:1014000031838091B6429091B742880F991F8854DA
:101410009D4BFC01808191810F900F90DF91CF91C6
:101420000895EF92FF920F931F93CF93DF93CDB761
:10143000DEB7CF55D109CDBFDEBF0E940B0919829F
:101440001A821B821C821D821E821F8218861986A8
:101450001A861B861C861D861E861F868FEF888B2C
:10146000198A1A8A1B8A1C8A1D8A1E8A81E08F8B20
:10147000198E0E9498010E94564E8078888F68EEDF
:1014800073E080E090E00E942D50882329F0888D41
:10149000882311F081E001C080E0882329F00E94B8
:1014A000564E8078888FEBCF82E792E40E9408370F
:1014B00082E792E40E9404308091594090915A4012
:1014C000A0915B40B0915C40BC01CD010E94CE5127
:1014D0008EA39FA38EA19FA1892B49F080912742C3
:1014E0009091284282608093274290932842809175
:1014F0005340909154400E94184560E873E48DE693
:1015000098E30E945D0180E090E00E946901DC01A7
:10151000CB0188A799A7AAA7BBA760ED77E080E0D9
:1015200090E00E942D50882389F080E090E00E9496
:1015300069019B01AC0188A599A5AAA5BBA5821745
:101540009307A407B50711F481E001C080E0882368
:1015500009F0E3CF80E090E00E9469019B01AC01BB
:1015600061E088A599A5AAA5BBA582179307A40742
:10157000B50709F060E0662359F080912742909109
:101580002842816080932742909328420E947444AD
:1015900062E070E08CE592E40E9420258091274271
:1015A0009091284221E0892B09F420E0222399F12F
:1015B00041E069E070E087E692E40E9433416DE625
:1015C00070E488E692E40E948C23809127429091F7
:1015D00028428270992721E0892B09F420E02223F8
:1015E00031F066E770E488E692E40E948C238091F3
:1015F0002742909128428170992721E0892B09F494
:1016000020E0222309F4CDC06FE770E488E692E47D
:101610000E948C23C6C080E096E027E0FC01208772
:101620001CA61DA6CE018E5B9F4FFC01108211826D
:101630001282138260E081E00E94C61B1A8E1B8E0C
:101640008A8D9B8D84369105D4F50E944A1A0E949A
:101650005D1A982F81E08927882309F0F8CF80E070
:1016600096E0FC01808991898CA79DA78CA59DA5FA
:10167000CC01A0E0B0E0BC01CD010E943F547B0151
:101680008C01CE018E5B9F4FFC0180819181A281F4
:10169000B3819C01AD01C801B7010E942153DC0157
:1016A000CB019E012E5B3F4FF90180839183A28382
:1016B000B3838A8D9B8D01968A8F9B8FC1CFCE017C
:1016C0008E5B9F4FFC0180819181A281B38120E0DC
:1016D00030E048EC52E4BC01CD010E949753DC019C
:1016E000CB019E012E5B3F4FF90180839183A28342
:1016F000B38360E070E087E692E40E941A4168E8F4
:1017000070E488E692E40E948C2361E970E488E644
:1017100092E40E948C23CE018E5B9F4FBC0181E03E
:101720000E942F18292F2F938F938CE990E4892FF3
:101730008F938CE990E48F931F928DE08F9382ECCE
:1017400091E4892F8F9382EC91E48F930E94095842
:101750002DB73EB7285F3F4FCDBFDEBF62EC71E4CF
:1017600088E692E40E948C2386EA90E4892F8F9386
:1017700086EA90E48F938BEA90E4892F8F938BEA2B
:1017800090E48F9382EC91E4892F8F9382EC91E423
:101790008F930E9440580F900F900F900F900F90D2
:1017A0000F9062EC71E488E692E40E948C2380E062
:1017B00096E022E0FC01208761E080E00E94C61BE9
:1017C0000E944A1A80913342882309F41BC387E0A0
:1017D00090E00E949D098EA79FA78F89882339F4E6
:1017E0002EA53FA589819A812817390719F11F8AEB
:1017F0008EA59FA589839A838CE592E40E942F266B
:101800001C861D861E861F868FEF888B8FEF90E0CB
:10181000898B9A8B8FEF8D831B8A1C8A1D8A1E8A67
:101820008FEF8A878EA59FA5892B21F482E792E40A
:101830000E94EF2E8EA59FA5833091053CF4813048
:1018400091050CF0BEC1892B49F0DCC283309105B3
:1018500009F450C1049709F4B1C2D4C28091014384
:1018600090910243892B09F051C080915940909189
:101870005A40A0915B40B0915C4061E02C853D8571
:101880004E855F85281739074A075B0709F460E032
:10189000662309F486C08091594090915A40A091E6
:1018A0005B40B0915C408C879D87AE87BF878C85FD
:1018B0009D85AE85BF859E012A5B3F4FAC01BD0172
:1018C000C9010E949652CE018A5B9F4F292F2F9308
:1018D0008F9384EB90E4892F8F9384EB90E48F9324
:1018E00082EC91E4892F8F9382EC91E48F930E9494
:1018F00040580F900F900F900F900F900F9062EC48
:1019000071E488E692E40E948C234BC09D818C8117
:10191000981709F446C08C818D838091594090912D
:101920005A40A0915B40B0915C408C879D87AE8708
:10193000BF878C859D85AE85BF859E012A5B3F4F05
:10194000AC01BD01C9010E9496528D81882F90E0A3
:1019500001969E012A5B3F4F432F4F932F93292FD0
:101960002F938F938DEB90E4892F8F938DEB90E4E1
:101970008F931F928DE08F9382EC91E4892F8F9348
:1019800082EC91E48F930E9409582DB73EB7265FF1
:101990003F4FCDBFDEBF62EC71E488E692E40E9467
:1019A0008C23809108409889981761F180910840B4
:1019B000888B80910840882F90E024E630E0A901D0
:1019C000481B590BCA01292F2F938F9388EC90E461
:1019D000892F8F9388EC90E48F9382EC91E4892F88
:1019E0008F9382EC91E48F930E9440580F900F9058
:1019F0000F900F900F900F9062EC71E488E692E4E4
:101A00000E948C23809121409091224041E02989BD
:101A10003A892817390709F440E0442331F18091CD
:101A2000214090912240898B9A8B8A898F93898952
:101A30008F9382ED90E4892F8F9382ED90E48F93C2
:101A400082EC91E4892F8F9382EC91E48F930E9432
:101A500040580F900F900F900F900F900F9062ECE6
:101A600071E488E692E40E948C2380913842909140
:101A70003942A0913A42B0913B422B893C894D8931
:101A80005E89281739074A075B0709F4B6C18091B8
:101A9000384290913942A0913A42B0913B428B8BAF
:101AA0009C8BAD8BBE8B8E898F938D898F938C8908
:101AB0008F938B898F938BED90E4892F8F938BED90
:101AC00090E48F931F9287E08F9382EC91E4892FAB
:101AD0008F9382EC91E48F930E9409588DB79EB743
:101AE0000A96CDBFDEBF62EC71E488E692E40E9404
:101AF0008C2383C19A858B85981709F480C18B85C7
:101B00008A878CE0E2EEF0E4A2ECB1E401900D9261
:101B10008A95E1F762EC71E488E692E40E948C23F6
:101B20008CEA91E4892F8F938CEA91E48F938EEE67
:101B300090E4892F8F938EEE90E48F9382EC91E462
:101B4000892F8F9382EC91E48F930E9440580F90DD
:101B50000F900F900F900F900F9062EC71E488E659
:101B600092E40E948C238B85282F30E0C901880FD6
:101B7000991F880F991F820F931F880F991F8658EE
:101B80009E4B292F2F938F938EEE90E4892F8F9366
:101B90008EEE90E48F9382EC91E4892F8F9382EC08
:101BA00091E48F930E9440580F900F900F900F90E8
:101BB0000F900F9062EC71E488E692E40E948C230F
:101BC0001EC18C81853108F01C828C81882F90E0A9
:101BD000880F991F880F991F8C549C4BFC018081A2
:101BE0009181A281B3818C8F9D8FAE8FBF8F8C8DA1
:101BF0009D8DAE8DBF8D81309940AD43B10548F4C8
:101C00008C8D9D8DAE8DBF8D803E9746A543B105D1
:101C100090F48C81882F90E0880F991F880F991F6E
:101C20008C549C4BFC0110821182128213821C8EF8
:101C30001D8E1E8E1F8E9D818C81981771F42E81B2
:101C40003F81488559858C8D9D8DAE8DBF8D281720
:101C500039074A075B0709F4D4C08C818D838C8DCA
:101C60009D8DAE8DBF8D8E839F83A887B9878D8113
:101C7000882F90E00196292F2F938F9383EF90E484
:101C8000892F8F9383EF90E48F931F928DE08F9332
:101C900082EC91E4892F8F9382EC91E48F930E94E0
:101CA00009582DB73EB7285F3F4FCDBFDEBF62EC6E
:101CB00071E488E692E40E948C238D81882F90E065
:101CC000880F991F880F991F8C549C4BFC018081B1
:101CD0009181A281B3818C8F9D8FAE8FBF8F8C8DB0
:101CE0009D8DAE8DBF8D892B8A2B8B2B09F456C011
:101CF0008C8D9D8DAE8DBF8D9E012F5A3F4FAC01B7
:101D0000BD01C9010E9496528EA59FA5019701F5BC
:101D1000CE018F5A9F4F292F2F938F9381E091E40B
:101D2000892F8F9381E091E48F931F928DE08F93A1
:101D300082EC91E4892F8F9382EC91E48F930E943F
:101D400009582DB73EB7285F3F4FCDBFDEBF1FC03C
:101D5000CE018F5A9F4F292F2F938F938AE091E4C2
:101D6000892F8F938AE091E48F931F928DE08F9358
:101D700082EC91E4892F8F9382EC91E48F930E94FF
:101D800009584DB75EB7485F5F4FCDBFDEBF62EC0D
:101D900071E488E692E40E948C2333C08DE0E3E195
:101DA000F1E4A2ECB1E401900D928A95E1F762ECC6
:101DB00071E488E692E40E948C2323C089E0E0E28B
:101DC000F1E4A2ECB1E401900D928A95E1F762ECA6
:101DD00071E488E692E40E948C238DE0E9E2F1E46C
:101DE000A2ECB1E401900D928A95E1F762EC71E406
:101DF00088E692E40E948C2305C0000003C0000026
:101E000001C0000088E692E40E94692221E0892B4B
:101E100009F420E0222309F44BC0CE01845A9F4FDD
:101E2000AC0162EC71E488E692E40E94EF23CE01FB
:101E3000845A9F4FFC01808191810397C8F1809162
:101E4000C24188AB8091C34189AB88A980538AABDA
:101E500089A980538BAB4BA96AA98CE592E40E94B7
:101E60004126CE01845A9F4FFC01808191819C01C3
:101E700022503109CE01845A9F4FFC0120833183C7
:101E8000CE01845A9F4FFC0180819181AC0164ECAA
:101E900071E48CE592E40E94DD26CE01845A9F4FC6
:101EA000AC0162EC71E488E692E40E94EF23BFCFBC
:101EB0008091094090910A40A0910B40B0910C4054
:101EC00021E0892B8A2B8B2B09F020E02223F1F0D3
:101ED00087E090E00E949D0921E0049709F420E04A
:101EE000222329F084E090E00E949D090FC088E63B
:101EF00092E40E94692221E0892B09F020E022234C
:101F000029F00E946F0981E080933442809106405D
:101F10009091074021E0892B09F020E0222351F025
:101F20000E946F0961E083E00E94A20161E087E006
:101F30000E94A20180914A4290914B4221E0892B5C
:101F400009F420E0222391F080914A4290914B4283
:101F500021E0019709F020E0222321F480914A42F8
:101F600090914B4210924A4210924B4280915642BD
:101F70008823A9F01092564287E090E00E949D09C4
:101F800021E0892B09F020E0222329F083E090E072
:101F90000E949D0904C080E090E00E949D0980910C
:101FA00044429091454221E0892B09F420E022230C
:101FB00009F46BC0809144429091454221E0019721
:101FC00009F020E0222321F480914442909145427F
:101FD00087E090E00E949D0921E0892B09F420E030
:101FE000222309F44DC01B828C81882F90E0880F3A
:101FF000991F880F991F8C549C4BFC018081918103
:10200000A281B381892B8A2B8B2BA9F561E08C816E
:102010000E9485198C838C818F3F29F41092014393
:102020001092024328C0809101439091024301978E
:1020300011F58C81882F90E0880F991F880F991FC8
:102040008C549C4BFC0180819181A281B38180934F
:10205000594090935A40A0935B40B0935C4080916C
:10206000594090915A40A0915B40B0915C40BC01B6
:10207000CD010E94074986E090E00E949D0901C0C1
:102080001B82109244421092454280913C429091B2
:102090003D4280915442882309F45BC087E090E080
:1020A0000E949D0921E0892B09F420E0222309F4F4
:1020B0004DC01B828C81882F90E0880F991F880F5C
:1020C000991F8C549C4BFC0180819181A281B3812A
:1020D000892B8A2B8B2BA9F561E08C810E948519B5
:1020E0008C838C818F3F29F410920143109202431C
:1020F00028C08091014390910243019711F58C8192
:10210000882F90E0880F991F880F991F8C549C4B43
:10211000FC0180819181A281B38180935940909389
:102120005A40A0935B40B0935C408091594090919D
:102130005A40A0915B40B0915C40BC01CD010E942F
:10214000074980E090E00E949D0901C01B82109227
:102150005442809146429091474221E0892B09F4F4
:1021600020E0222309F483C08091464290914742A7
:1021700021E0019709F020E0222341F041E060E0F6
:1021800070E087E692E40E94334114C08091464299
:102190009091474221E0029709F020E0222351F07C
:1021A00080915B42882331F09091234081E0892720
:1021B0008093234087E090E00E949D0921E0892BD5
:1021C00009F420E0222309F44DC01B828C81882F62
:1021D00090E0880F991F880F991F8C549C4BFC012D
:1021E00080819181A281B381892B8A2B8B2BA9F5C8
:1021F00061E08C810E9485198C838C818F3F29F44A
:10220000109201431092024328C0809101439091A3
:102210000243019711F58C81882F90E0880F991F58
:10222000880F991F8C549C4BFC0180819181A28165
:10223000B3818093594090935A40A0935B40B093F0
:102240005C408091594090915A40A0915B40B09180
:102250005C40BC01CD010E94074986E090E00E94ED
:102260009D0901C01B821092464210924742809104
:102270003E4290913F4280915542882309F45BC0D1
:1022800087E090E00E949D0921E0892B09F420E07D
:10229000222309F44DC01B828C81882F90E0880F87
:1022A000991F880F991F8C549C4BFC018081918150
:1022B000A281B381892B8A2B8B2BA9F561E08C81BC
:1022C0000E9485198C838C818F3F29F410920143E1
:1022D0001092024328C080910143909102430197DC
:1022E00011F58C81882F90E0880F991F880F991F16
:1022F0008C549C4BFC0180819181A281B38180939D
:10230000594090935A40A0935B40B0935C408091B9
:10231000594090915A40A0915B40B0915C40BC0103
:10232000CD010E94074980E090E00E949D0901C014
:102330001B8210925542809148429091494221E07F
:10234000892B09F420E0222309F400C1809148423E
:102350009091494221E0019709F020E0222309F4FD
:1023600041C08091014390910243892B41F461E087
:102370008C810E9485198F3F11F081E001C080E0BF
:10238000882349F181E090E08093014390930243D8
:102390008C81882F90E0880F991F880F991F8C548B
:1023A0009C4BFC0180819181A281B3818093594033
:1023B00090935A40A0935B40B0935C408091594009
:1023C00090915A40A0915B40B0915C40BC01CD011E
:1023D0000E94074904C0109201431092024381E019
:1023E0008F8BB0C0809148429091494221E0029782
:1023F00009F020E0222309F479C087E090E00E94F0
:102400009D0981309105C9F0823091051CF4892B1A
:1024100041F098C08230910509F48FC0039721F0F4
:1024200091C081E08B838EC08B85882309F087C0A3
:1024300081E090E00E949D0982C082E090E00E94CD
:102440009D098C81882F90E0880F991F880F991F14
:102450008C549C4BFC0180819181A281B381892B9A
:102460008A2B8B2B09F06DC08091594090915A4076
:10247000A0915B40B0915C4081309940AD43B10583
:1024800068F48091594090915A40A0915B40B0917E
:102490005C40803E9746A543B10510F481E001C041
:1024A00080E0882361F080E39BE2A6E3B0E08093C4
:1024B000594090935A40A0935B40B0935C408C810C
:1024C000282F30E08091594090915A40A0915B4074
:1024D000B0915C40220F331F220F331F2C543C4B12
:1024E000F90180839183A283B3832BC080914842FA
:1024F0009091494221E0039709F020E0222311F155
:1025000087E090E00E949D0921E0029709F020E019
:102510002223C1F08C81882F90E0880F991F880FAB
:10252000991F8C549C4BFC011082118212821382E1
:1025300086E090E00E949D0905C0000003C00000F5
:1025400001C00000109248421092494280914042DE
:102550009091414280915742882311F01092574246
:1025600090915B4281E08927882309F0198E809140
:102570002A4290912B4221E0892B09F420E022236A
:1025800009F422C3809108408CAB8CE390E08093E7
:1025900006409093074080915B42898F80912A4248
:1025A00090912B42892F881F8827881F882309F440
:1025B00083C187E090E00E949D098130910509F474
:1025C000C6C0823091051CF4892B49F06BC1823062
:1025D000910509F40AC1039709F45CC163C18B81B9
:1025E000882309F474C08091014390910243892BA0
:1025F00009F040C08091594090915A40A0915B40B1
:10260000B0915C4021E081159940AD43B10508F0DF
:1026100020E0222309F449C080915B428823A9F07D
:102620008091594090915A40A0915B40B0915C409C
:1026300088519C4FAF4FBF4F8093594090935A4061
:10264000A0935B40B0935C4030C080915940909122
:102650005A40A0915B40B0915C408C599F4FAF4F66
:10266000BF4F8093594090935A40A0935B40B093E2
:102670005C401BC061E08C810E9485198C838C8139
:10268000882F90E0880F991F880F991F8C549C4BBE
:10269000FC0180819181A281B38180935940909304
:1026A0005A40A0935B40B0935C4080915940909118
:1026B0005A40A0915B40B0915C40BC01CD010E94AA
:1026C00007498091A7428F5F8093A7422DC08091D8
:1026D00058428823C9F0809121409091224021E006
:1026E0000A9708F020E02223F9F080912140909190
:1026F0002240019680932140909322408091A742EE
:102700008F5F8093A74210C08CA9882369F08CA9A1
:1027100081508CAB8CA9882F90E00E94584F8091FB
:10272000A7428F5F8093A74280E090E00E94924B87
:10273000DC01CB018093594090935A40A0935B40B9
:10274000B0935C400E94B84F80930840ABC08C812E
:102750008F5F8C838C81843108F01C828C81882F60
:1027600090E0880F991F880F991F8C549C4BFC0197
:1027700080819181A281B38189AF9AAFABAFBCAFA9
:1027800089AD9AADABADBCAD81159940AD43B105F6
:10279000F8F489AD9AADABADBCAD813E9746A5438B
:1027A000B105B0F08C81882F90E0880F991F880FB9
:1027B000991F8C549C4BFC0180819181A281B38133
:1027C0008093594090935A40A0935B40B0935C40F3
:1027D0008091594090915A40A0915B40B0915C40EB
:1027E000BC01CD010E9407495DC080915940909184
:1027F0005A40A0915B40B0915C4021E08115994026
:10280000AD43B10508F020E0222369F180915B42DD
:102810008823A9F08091594090915A40A0915B4043
:10282000B0915C4088519C4FAF4FBF4F809359404F
:1028300090935A40A0935B40B0935C4014C0809149
:10284000594090915A40A0915B40B0915C408C59A6
:102850009F4FAF4FBF4F8093594090935A40A093E2
:102860005B40B0935C408C81282F30E080915940D0
:1028700090915A40A0915B40B0915C40220F331F71
:10288000220F331F2C543C4BF90180839183A28388
:10289000B38308C08B858F5F8B878B85853009F468
:1028A0001B86000080912A4290912B4201968093D2
:1028B0002A4290932B4288C187E090E00E949D09B4
:1028C0008130910509F4C6C0823091051CF4892B32
:1028D00049F071C18230910509F40CC1039709F4E4
:1028E0005FC169C18B81882309F474C08091014361
:1028F00090910243892B09F040C0809159409091FA
:102900005A40A0915B40B0915C4021E0813E9746E7
:10291000A543B10508F420E0222309F449C08091C1
:102920005B428823A9F08091594090915A40A09130
:102930005B40B0915C40885E9340A109B1098093EF
:10294000594090935A40A0935B40B0935C4030C094
:102950008091594090915A40A0915B40B0915C4069
:1029600084569109A109B1098093594090935A4026
:10297000A0935B40B0935C401BC060E08C810E94E0
:1029800085198C838C81882F90E0880F991F880F80
:10299000991F8C549C4BFC0180819181A281B38151
:1029A0008093594090935A40A0935B40B0935C4011
:1029B0008091594090915A40A0915B40B0915C4009
:1029C000BC01CD010E9407498091A7428F5F80938F
:1029D000A7422DC0809158428823C9F080912140A0
:1029E0009091224021E0029708F420E02223F9F0A0
:1029F00080912140909122400197809321409093B3
:102A000022408091A7428F5F8093A74210C08CA97B
:102A1000843668F48CA98F5F8CAB8CA9882F90E0EA
:102A20000E94584F8091A7428F5F8093A74280E019
:102A300090E00E94924BDC01CB018093594090932F
:102A40005A40A0935B40B0935C400E94B84F809383
:102A50000840B1C08C81882319F483E18C8303C0C2
:102A60008C8181508C838C81882F90E0880F991FF6
:102A7000880F991F8C549C4BFC0180819181A2810D
:102A8000B3818DAB9EABAFABB8AF8DA99EA9AFA9FB
:102A9000B8AD81159940AD43B105F8F48DA99EA953
:102AA000AFA9B8AD813E9746A543B105B0F08C8182
:102AB000882F90E0880F991F880F991F8C549C4B8A
:102AC000FC0180819181A281B381809359409093D0
:102AD0005A40A0935B40B0935C40809159409091E4
:102AE0005A40A0915B40B0915C40BC01CD010E9476
:102AF000074961C08091594090915A40A0915B4034
:102B0000B0915C4021E0813E9746A543B10508F4B1
:102B100020E0222309F44EC080915B428823A9F073
:102B20008091594090915A40A0915B40B0915C4097
:102B3000885E9340A109B1098093594090935A400F
:102B4000A0935B40B0935C4014C080915940909139
:102B50005A40A0915B40B0915C4084569109A10914
:102B6000B1098093594090935A40A0935B40B09331
:102B70005C408C81282F30E08091594090915A40E0
:102B8000A0915B40B0915C40220F331F220F331F96
:102B90002C543C4BF90180839183A283B3830AC0F8
:102BA0008B85882321F08B8581508B8704C084E03E
:102BB0008B8701C0000080912A4290912B4201979F
:102BC00080932A4290932B4284EE92E40E94463CEA
:102BD000882309F4F2C1CE01825A9F4FFC01108272
:102BE000118280E090E8ABE1B4E4AC01BD0184EE79
:102BF00092E40E94A13ACE01825A9F4FBC0184EE1A
:102C000092E40E94543CDC01CB019E01235C3F4FC7
:102C1000F90180839183A283B383CE01825A9F4FAF
:102C2000FC0120813181CE018F5B9F4F41E0233336
:102C300031050CF440E0FC014083CE018F5B9F4FD7
:102C4000FC01908181E08927882309F4B6C1809135
:102C50003140882309F44FC08091314081508093E6
:102C600031408091E0429091E142A091E242B091E6
:102C7000E3429C01AD01CE01CD96FC0160817181E2
:102C8000828193810E943E5518167CF4CE01CD9628
:102C9000FC0180819181A281B3818093E042909375
:102CA000E142A093E242B093E3428091324090919E
:102CB0003340A0913440B09135409C01AD01CE012C
:102CC000CD96FC0160817181828193810E948D5338
:102CD00088230CF072C1CE01CD96FC0180819181D8
:102CE000A281B3818093324090933340A0933440CB
:102CF000B093354062C11CA21DA28091E042909128
:102D0000E142A091E242B091E3429C01AD01CE01CB
:102D1000CD96FC0160817181828193810E943E5534
:102D20001816ACF58091E0429091E142A091E24208
:102D3000B091E34220E030E040EA50E4BC01CD0134
:102D40000E949B55DC01CB017C018D01CE01CD960B
:102D5000FC012081318142815381C801B7010E9469
:102D60002153DC01CB0120E030E040EC50E4BC0119
:102D7000CD010E949753DC01CB018093E0429093F8
:102D8000E142A093E242B093E34281E08CA38091C0
:102D9000324090913340A0913440B09135409C0135
:102DA000AD01CE01CD96FC0160817181828193815C
:102DB0000E948D538823ACF580913240909133402E
:102DC000A0913440B091354020E030E040EA50E43A
:102DD000BC01CD010E949B55DC01CB017C018D0122
:102DE000CE01CD96FC012081318142815381C80101
:102DF000B7010E942153DC01CB0120E030E040EC20
:102E000050E4BC01CD010E949753DC01CB018093BB
:102E1000324090933340A0933440B093354081E0EA
:102E20008DA39CA181E08927882309F46DC09DA111
:102E300081E08927882309F467C08091E04290915E
:102E4000E142A091E242B091E34220E030E048E468
:102E500052E4BC01CD010E949B55DC01CB017C01F9
:102E60008D01CE01CD96FC012081318142815381BB
:102E7000C801B7010E942153DC01CB0120E030E002
:102E80004CE452E4BC01CD010E949753DC01CB011C
:102E90008093E0429093E142A093E242B093E342F8
:102EA0008091324090913340A0913440B0913540B0
:102EB00020E030E048E452E4BC01CD010E949B5583
:102EC000DC01CB017C018D01CE01CD96FC0120817E
:102ED000318142815381C801B7010E942153DC0135
:102EE000CB0120E030E04CE452E4BC01CD010E9473
:102EF0009753DC01CB018093324090933340A093F1
:102F00003440B093354024C08091E0429091E1423A
:102F1000A091E242B091E34220913240309133409F
:102F20004091344050913540BC01CD010E94215365
:102F3000DC01CB0120E030E040E050E4BC01CD01F9
:102F40000E949753DC01CB0188A399A3AAA3BBA33A
:102F500028A139A14AA15BA1CE01CD96FC016081D7
:102F60007181828193810E943E55181634F58091BB
:102F7000E0429091E142A091E242B091E342BC0173
:102F8000CD010E944355DC01CB0120E030E040E25E
:102F900051E4BC01CD010E949B55DC01CB01BC0179
:102FA000CD010E941054DC01CB01809338429093F4
:102FB0003942A0933A42B0933B42809134428823F5
:102FC00011F40C94E20B87E692E40E94EC400E941C
:102FD000C25160E083E00E94A2010E94602882E06A
:102FE00090E00E947B4E81E08093354210920D402C
:102FF00010920E4080913442882309F180E590E0E0
:10300000FC018081897F282F226080E590E0FC010F
:103010002083F89480E590E0FC01208180E590E039
:103020002160FC0120837894889580E590E0FC0184
:10303000208180E590E02E7FFC012083DBCF109281
:1030400035420E94980161E083E00E94A2010E9443
:10305000EC5180910D4090910E400C94E20B0F9337
:103060001F93CF93DF93CDB7DEB72997CDBFDEBFD8
:103070008F83688779878AE390E48D839E83888530
:103080009985892B61F088859985FC0180819181E2
:10309000A281B38189839A83AB83BC8318C080915A
:1030A0001D4090911E40880F991F8A5C9D4BFC012A
:1030B00080819181CC01A0E0B0E0BC01CD010E94F3
:1030C0003F54DC01CB0189839A83AB83BC8320E02E
:1030D00030E040E953E469817A818B819C810E94D0
:1030E0009B55DC01CB0189839A83AB83BC8320E0B1
:1030F00030E040E855E469817A818B819C810E94AF
:103100009753DC01CB0189839A83AB83BC8320E096
:1031100030E040E050E469817A818B819C810E949B
:103120002153DC01CB0189839A83AB83BC838885DF
:103130009985892B69F089819A81AB81BC818093C3
:10314000364090933740A0933840B09339402EC01A
:103150008091364090913740A0913840B0913940ED
:1031600020E030E040E151E4BC01CD010E949B55DC
:10317000DC01CB0129813A814B815C81BC01CD010D
:103180000E942153DC01CB0120E030E040E251E419
:10319000BC01CD010E949753DC01CB0180933640E6
:1031A00090933740A0933840B093394020E030E00E
:1031B000A90169817A818B819C810E943E55882377
:1031C0000CF449C020E030E044E353E469817A81A3
:1031D0008B819C810E948D531816ECF18F8188237E
:1031E00029F18091364090913740A0913840B091BC
:1031F000394020E030E040E251E4BC01CD010E94C2
:103200009753DC01CB010AE310E421E045E0BC0167
:10321000CD010E94B456109240408AE390E40E948F
:1032200035198D839E838D819E8117C08091364094
:1032300090913740A0913840B09139400AE310E4B2
:1032400020E044E0BC01CD010E94B45610923F4002
:103250008AE390E402C08AE390E42996CDBFDEBF02
:10326000DF91CF911F910F910895CF93DF9300D0FD
:1032700000D0CDB7DEB78B839C838B819C81FC0112
:103280008081882F90E00E94F757892B31F08B8145
:103290009C8101968B839C83F0CF8B819C81FC0168
:1032A0008081882319F48B819C8129C08B819C812A
:1032B0000E94005801972B813C81820F931F8983C4
:1032C0009A8329813A818B819C818217930780F4AC
:1032D00089819A81FC018081882F90E00E94F757B4
:1032E000892B31F089819A81019789839A83E9CF6B
:1032F00089819A810196FC0110828B819C812496A0
:10330000CDBFDEBFDF91CF910895CF93DF93CDB7CF
:10331000DEB72597CDBFDEBF8C836D838C818B8319
:1033200019821A828D81882339F18A81882309F0D4
:103330004AC08981843108F046C089818F5F8983C2
:103340008B818F5F8B838B81843108F01B828B8113
:10335000882F90E0880F991F880F991F8C549C4BE1
:10336000FC0180819181A281B381892B8A2B8B2BD7
:10337000E1F281E08A83D9CF8A81882321F589818E
:10338000843108F589818F5F89838B81882321F0BF
:103390008B8181508B8302C083E18B838B81882F4B
:1033A00090E0880F991F880F991F8C549C4BFC014B
:1033B00080819181A281B381892B8A2B8B2BE1F2B1
:1033C00081E08A83D9CF9A8181E08927882311F00F
:1033D0008FEF8B838B812596CDBFDEBFDF91CF91A1
:1033E0000895CF93DF9300D000D0CDB7DEB78983A7
:1033F0009A836B837C8389819A810197B1F48B8155
:103400009C81019691F48CE592E40E94072587E661
:1034100092E40E94513F64E670E088E692E40E94E4
:10342000CD2182E792E40E947C2889819A81892BB0
:1034300081F48B819C81019661F482E792E40E9481
:10344000892888E692E40E94012287E692E40E949D
:103450005E3F00002496CDBFDEBFDF91CF9108957F
:10346000CF93DF93CDB7DEB76FEF7FEF81E090E0D2
:103470000E94F119DF91CF910895CF93DF93CDB7DB
:10348000DEB76FEF7FEF80E090E00E94F119DF91EF
:10349000CF910895CF93DF93CDB7DEB78091E5420A
:1034A0009091E642892B29F080E096E021E0FC0132
:1034B00022870000DF91CF910895CF93DF93CDB79E
:1034C000DEB780E096E0FC018585882F90E0817072
:1034D000992721E0892B09F420E0822FDF91CF91F9
:1034E0000895CF93DF93CDB7DEB780E694E0FC017B
:1034F000208980E694E0287FFC01208B80E694E020
:10350000FC01208980E694E02460FC01208B80E6A9
:1035100094E0FC01218980E694E0287FFC01218B66
:1035200080E694E0FC01218980E694E02460FC01BF
:10353000218B80E694E0FC01228980E694E0287FDC
:10354000FC01228B80E694E0FC01228980E694E075
:103550002460FC01228B80E694E0FC01238980E654
:1035600094E0287FFC01238B80E694E0FC01238912
:1035700080E694E02460FC01238B80E694E0FC016B
:10358000248980E694E0287FFC01248B80E694E087
:10359000FC01248980E694E02460FC01248B80E611
:1035A00094E0FC01258980E694E0287FFC01258BCE
:1035B00080E694E0FC01258980E694E02460FC012B
:1035C000258B80E694E0FC01278980E694E0287F43
:1035D000FC01278B80E694E0FC01278980E694E0DB
:1035E0002460FC01278B80E694E0FC01208980E6C2
:1035F00094E0277FFC01208B80E694E0FC01218988
:1036000080E694E0277FFC01218B80E694E0FC01BA
:10361000228980E694E0277FFC01228B80E694E0FB
:10362000FC01238980E694E0277FFC01238B80E660
:1036300094E0FC01248980E694E0277FFC01248B40
:1036400080E694E0FC01258980E694E0277FFC0178
:10365000258B80E694E0FC01278980E694E0277FB3
:10366000FC01278B0000DF91CF910895CF93DF936A
:103670001F92CDB7DEB7898389818823D9F080EA8C
:1036800090E021E8FC01208380E096E02CE0FC0142
:10369000228380E096E023E0FC01208380E096E036
:1036A00021E0FC01248781E090E08093E542909343
:1036B000E6421AC080EA90E021E8FC01208380E025
:1036C00096E02CE0FC01228380E096E027E0FC01FC
:1036D000208380E096E021E0FC01248781E090E0F7
:1036E0008093E5429093E64200000F90DF91CF91E6
:1036F0000895CF93DF931F92CDB7DEB78983898179
:10370000882311F180EA90E021E0FC01208380E031
:1037100096E0FC01128280E096E0FC01208180E0CE
:1037200096E02160FC01208380E096E0FC01248586
:1037300080E096E02E7FFC01248782E090E0809379
:10374000E5429093E6421DC080EA90E021E0FC0152
:10375000208380E096E0FC01128280E096E025E084
:10376000FC01208380E096E0FC01248580E096E067
:103770002E7FFC01248782E090E08093E5429093C5
:10378000E64200000F90DF91CF910895CF93DF9331
:1037900000D0CDB7DEB789836A830E94711A8A810F
:1037A000882321F089810E94361B03C089810E94F1
:1037B000791B00000F900F90DF91CF9108950F9328
:1037C0001F93CF93DF9300D000D0CDB7DEB78983AE
:1037D0009A836B837C8389819A81019781F48B81A1
:1037E0009C81019661F400E014E029E536E440E0B4
:1037F00050E06AEC72E484EE92E40E94F63989812A
:103800009A81892B41F48B819C81019621F484EE6D
:1038100092E40E948E3A00002496CDBFDEBFDF9175
:10382000CF911F910F910895CF93DF93CDB7DEB75E
:103830006FEF7FEF81E090E00E94DF1BDF91CF917F
:103840000895CF93DF93CDB7DEB76FEF7FEF80E0C2
:1038500090E00E94DF1BDF91CF910895CF93DF931B
:10386000CDB7DEB72597CDBFDEBF8B836C837D835D
:103870008B81882F90E0805F9B4F89839A838C8116
:103880009D81019759F489819A81FC018081282FBB
:10389000286089819A81FC0120830EC08C819D81E2
:1038A000892B51F489819A81FC018081282F277FFF
:1038B00089819A81FC01208300002596CDBFDEBF5F
:1038C000DF91CF910895CF93DF9300D01F92CDB7B2
:1038D000DEB789836A837B838A819B8181309105EE
:1038E000E9F08230910581F1892B09F03DC080E03B
:1038F00090E0FC018081482F8981282F30E081E011
:1039000090E002C0880F991F2A95E2F78095242F36
:10391000282380E090E0FC01208326C080E090E036
:10392000FC018081482F8981282F30E081E090E0E0
:1039300002C0880F991F2A95E2F7242F282B80E0D8
:1039400090E0FC01208310C08981882F90E0805F87
:103950009B4FFC0120818981882F90E0805F9B4FE5
:103960002860FC012083000000002396CDBFDEBF4D
:10397000DF91CF910895CF93DF9300D0CDB7DEB71D
:1039800089836A838A818823B1F080E090E0FC011A
:103990008181482F8981282F30E081E090E002C0AA
:1039A000880F991F2A95E2F7242F282B80E090E0BA
:1039B000FC01218316C080E090E0FC018181482F4A
:1039C0008981282F30E081E090E002C0880F991FA4
:1039D0002A95E2F78095242F282380E090E0FC01CF
:1039E000218300000F900F90DF91CF910895CF9326
:1039F000DF93CDB7DEB780E090E0FC018281DF91FC
:103A0000CF910895CF93DF9300D01F92CDB7DEB74B
:103A100089836A837B838A819B8181309105E9F068
:103A20008230910581F1892B09F03DC084E090E05E
:103A3000FC018081482F8981282F30E081E090E0CF
:103A400002C0880F991F2A95E2F78095242F28231A
:103A500084E090E0FC01208326C084E090E0FC013B
:103A60008081482F8981282F30E081E090E002C0DA
:103A7000880F991F2A95E2F7242F282B84E090E0E5
:103A8000FC01208310C08981882F90E0805D9B4FCE
:103A9000FC0120818981882F90E0805D9B4F286008
:103AA000FC012083000000002396CDBFDEBFDF9124
:103AB000CF910895CF93DF9300D0CDB7DEB7898340
:103AC0006A838A818823B1F084E090E0FC018181DF
:103AD000482F8981282F30E081E090E002C0880FD4
:103AE000991F2A95E2F7242F282B84E090E0FC010F
:103AF000218316C084E090E0FC018181482F8981F8
:103B0000282F30E081E090E002C0880F991F2A95AD
:103B1000E2F78095242F282384E090E0FC012183A4
:103B200000000F900F90DF91CF910895CF93DF9316
:103B3000CDB7DEB72597CDBFDEBF8B836C837D838A
:103B40008B81882F90E0805B9B4F89839A838C8147
:103B50009D81019759F489819A81FC018081282FE8
:103B6000286089819A81FC0120830EC08C819D810F
:103B7000892B51F489819A81FC018081282F277F2C
:103B800089819A81FC01208300002596CDBFDEBF8C
:103B9000DF91CF910895CF93DF9300D01F92CDB7DF
:103BA000DEB789836A837B838A819B81813091051B
:103BB000E9F08230910581F1892B09F03DC088E060
:103BC00090E0FC018081482F8981282F30E081E03E
:103BD00090E002C0880F991F2A95E2F78095242F64
:103BE000282388E090E0FC01208326C088E090E054
:103BF000FC018081482F8981282F30E081E090E00E
:103C000002C0880F991F2A95E2F7242F282B88E0FD
:103C100090E0FC01208310C08981882F90E0805BB8
:103C20009B4FFC0120818981882F90E0805B9B4F16
:103C30002860FC012083000000002396CDBFDEBF7A
:103C4000DF91CF910895CF93DF9300D0CDB7DEB74A
:103C500089836A838A818823B1F088E090E0FC013F
:103C60008181482F8981282F30E081E090E002C0D7
:103C7000880F991F2A95E2F7242F282B88E090E0DF
:103C8000FC01218316C088E090E0FC018181482F6F
:103C90008981282F30E081E090E002C0880F991FD1
:103CA0002A95E2F78095242F282388E090E0FC01F4
:103CB000218300000F900F90DF91CF910895CF9353
:103CC000DF9300D01F92CDB7DEB789836A837B83F1
:103CD0008A819B8181309105E9F08230910581F1E3
:103CE000892B09F03DC080E190E0FC018081482FE4
:103CF0008981282F30E081E090E002C0880F991F71
:103D00002A95E2F78095242F282380E190E0FC019A
:103D1000208326C080E190E0FC018081482F8981CA
:103D2000282F30E081E090E002C0880F991F2A958B
:103D3000E2F7242F282B80E190E0FC01208310C0C3
:103D40008981882F90E080579B4FFC0120818981D9
:103D5000882F90E080579B4F2860FC012083000053
:103D600000002396CDBFDEBFDF91CF910895CF93A2
:103D7000DF9300D0CDB7DEB789836A838A81882339
:103D8000B1F080E190E0FC018181482F8981282FEA
:103D900030E081E090E002C0880F991F2A95E2F799
:103DA000242F282B80E190E0FC01218316C080E1C4
:103DB00090E0FC018181482F8981282F30E081E04B
:103DC00090E002C0880F991F2A95E2F78095242F72
:103DD000282380E190E0FC01218300000F900F90E8
:103DE000DF91CF910895CF93DF93CDB7DEB72597BD
:103DF000CDBFDEBF8B836C837D838B81882F90E06A
:103E000080559B4F89839A838C819D81019759F4BA
:103E100089819A81FC018081282F286089819A817B
:103E2000FC0120830EC08C819D81892B51F48981F6
:103E30009A81FC018081282F277F89819A81FC014A
:103E4000208300002596CDBFDEBFDF91CF9108957E
:103E5000CF93DF9300D01F92CDB7DEB789836A83FB
:103E60007B838A819B8181309105E9F082309105C5
:103E700081F1892B09F03DC084E190E0FC01808153
:103E8000482F8981282F30E081E090E002C0880F20
:103E9000991F2A95E2F78095242F282384E190E04A
:103EA000FC01208326C084E190E0FC018081482F42
:103EB0008981282F30E081E090E002C0880F991FAF
:103EC0002A95E2F7242F282B84E190E0FC0120833F
:103ED00010C08981882F90E080559B4FFC01208184
:103EE0008981882F90E080559B4F2860FC012083BA
:103EF000000000002396CDBFDEBFDF91CF91089573
:103F0000CF93DF9300D0CDB7DEB789836A838A81F0
:103F10008823B1F084E190E0FC018181482F898100
:103F2000282F30E081E090E002C0880F991F2A9589
:103F3000E2F7242F282B84E190E0FC01218316C0B6
:103F400084E190E0FC018181482F8981282F30E0B5
:103F500081E090E002C0880F991F2A95E2F78095D2
:103F6000242F282384E190E0FC01218300000F909E
:103F70000F90DF91CF910895CF93DF93CDB7DEB748
:103F800084E190E0FC018281DF91CF910895CF938D
:103F9000DF93CDB7DEB78091EB428093EC42809106
:103FA000EA428093EB428091E8428093E94280911B
:103FB000E7428093E8420E94F71C8093E7420E9408
:103FC000BC1F8093EA429091E7428091ED4298278E
:103FD0002091E8428091ED42822798232091E94286
:103FE0008091ED42822798238091ED42892780932A
:103FF000ED429091EA428091EE4298272091EB4267
:104000008091EE42822798232091EC428091EE42EB
:10401000822798238091EE4289278093EE42000008
:10402000DF91CF910895CF93DF93CDB7DEB7809125
:10403000ED42DF91CF910895CF93DF93CDB7DEB7F7
:1040400060E070E080E00E94631C61E070E080E06E
:104050000E942E1C60E070E081E00E94631C61E021
:1040600070E081E00E942E1C60E070E082E00E941F
:10407000631C61E070E082E00E942E1C61E070E051
:1040800083E00E94631C61E083E00E94BB1C60E04F
:1040900070E084E00E94631C61E070E084E00E94B4
:1040A0002E1C61E070E085E00E94631C60E085E00A
:1040B0000E94BB1C61E070E086E00E94631C60E02F
:1040C00086E00E94BB1C61E070E087E00E94631CF8
:1040D00061E087E00E94BB1C61E070E084E00E9428
:1040E000021D61E084E00E945A1D60E070E082E001
:1040F0000E94CB1D61E070E082E00E94961D60E0AE
:1041000070E083E00E94CB1D61E070E083E00E94DC
:10411000961D61E070E084E00E94CB1D60E084E0C9
:104120000E94231E61E070E085E00E94CB1D60E0EC
:1041300085E00E94231E60E070E080E00E945F1E28
:1041400060E070E081E00E945F1E61E070E082E06C
:104150000E945F1E60E082E00E94B71E60E070E097
:1041600083E00E945F1E62E070E080E00E94281FF2
:1041700062E070E081E00E94281F60E070E082E071
:104180000E94281F61E070E082E00E94F31E60E060
:1041900070E083E00E94281F60E070E084E00E94ED
:1041A000281F60E070E085E00E94281F61E070E059
:1041B00085E00E94F31E62E070E086E00E94281F06
:1041C00080EA94E0FC01238980EA94E02160FC010C
:1041D000238B80EA94E0FC01248980EA94E021604A
:1041E000FC01248B80EA94E028E1FC012187000097
:1041F000DF91CF910895CF93DF93CDB7DEB760E025
:1042000070E080E00E94631C60E070E080E00E944B
:104210002E1C60E070E081E00E94631C60E070E0B2
:1042200081E00E942E1C60E070E082E00E94631C2E
:1042300060E070E082E00E942E1C61E070E083E0AC
:104240000E94631C60E083E00E94BB1C60E070E0A1
:1042500084E00E94631C60E070E084E00E942E1CF9
:1042600061E070E085E00E94631C60E085E00E94F0
:10427000BB1C61E070E086E00E94631C60E086E0A9
:104280000E94BB1C61E070E087E00E94631C60E05C
:1042900087E00E94BB1C61E070E084E00E94021D88
:1042A00060E084E00E945A1D60E070E082E00E94BD
:1042B000CB1D61E070E082E00E94961D60E070E03E
:1042C00083E00E94CB1D61E070E083E00E94961DB8
:1042D00061E070E084E00E94CB1D60E084E00E9419
:1042E000231E61E070E085E00E94CB1D60E085E068
:1042F0000E94231E60E070E080E00E945F1E60E08C
:1043000070E081E00E945F1E61E070E082E00E9448
:104310005F1E60E082E00E94B71E60E070E083E014
:104320000E945F1E62E070E080E00E94281F62E051
:1043300070E081E00E94281F61E070E082E00E944E
:10434000281F60E082E00E94801F60E070E083E050
:104350000E94281F60E070E084E00E94281F61E056
:1043600070E085E00E94281F60E085E00E94801FC9
:1043700062E070E086E00E94281F0000DF91CF918C
:104380000895CF93DF93CDB7DEB780E890E0FC01CE
:10439000118680E0DF91CF910895CF93DF9300D015
:1043A00000D0CDB7DEB789839A836B837C838B8102
:1043B0009C810E94D2569C0189819A81FC012583AF
:1043C000368389819A812B813C81FC012783308748
:1043D00089819A81FC011082118289819A81FC0174
:1043E0001282138289819A81FC01148289819A81C7
:1043F000FC01118600002496CDBFDEBFDF91CF9176
:104400000895CF93DF9300D0CDB7DEB789839A8329
:1044100089819A81FC01858196810E946E570000F6
:104420000F900F90DF91CF910895CF93DF9300D03D
:10443000CDB7DEB789839A8389819A81FC01228175
:10444000338189819A81FC012083318389819A811A
:10445000FC01148289819A81FC01118600000F9071
:104460000F90DF91CF910895CF93DF9300D0CDB718
:10447000DEB789839A8389819A81FC01948181E0E6
:104480008927882379F089819A81FC0120813181F3
:1044900089819A81FC01828193812817390711F45F
:1044A00081E001C080E00F900F90DF91CF910895DF
:1044B000CF93DF9300D0CDB7DEB789839A8389810C
:1044C0009A81FC01878190850F900F90DF91CF91A9
:1044D0000895CF93DF9300D000D0CDB7DEB78B83A4
:1044E0009C838B819C81FC018781908589839A8341
:1044F0008B819C81FC01948181E08927882399F13B
:104500008B819C81FC01208131818B819C81FC010C
:1045100082819381281739078CF08B819C81FC0163
:10452000208131818B819C81FC0182819381A90151
:10453000481B590BCA0189839A8315C08B819C81C2
:10454000FC01878190852B813C81F901208131819B
:10455000820F931F2B813C81F90122813381821BC1
:10456000930B89839A8389819A812496CDBFDEBF7C
:10457000DF91CF9108950F931F93CF93DF9300D0D6
:1045800000D0CDB7DEB78B839C8319821A828B81D2
:104590009C81FC01948181E08927882379F08B81BB
:1045A0009C810E9458228C018B819C810E946922EF
:1045B0009801281B390BC90189839A8389819A81C3
:1045C0002496CDBFDEBFDF91CF911F910F9108954B
:1045D000CF93DF9300D01F92CDB7DEB789839A8344
:1045E0006B8389819A81FC018581968129813A8139
:1045F000F90120813181820F931F2B81FC012083DF
:1046000089819A81FC0184818823B1F089819A8112
:10461000FC01828193810196AC0189819A81FC0120
:1046200027813085CA01B9010E945B569C018981AE
:104630009A81FC012283338389819A81FC018081E4
:1046400091810196AC0189819A81FC012781308595
:10465000CA01B9010E945B569C0189819A81FC01C3
:104660002083318389819A81FC0120813181898174
:104670009A81FC018281938141E02817390709F072
:1046800040E089819A81FC01448300002396CDBFDC
:10469000DEBFDF91CF910895CF93DF9300D01F92BB
:1046A000CDB7DEB78A839B838A819B810E943422A7
:1046B000882311F080E02AC08A819B81FC018581DA
:1046C00096812A813B81F90122813381820F931FD8
:1046D000FC01808189838A819B81FC0114828A810B
:1046E0009B81FC01828193810196AC018A819B812F
:1046F000FC0127813085CA01B9010E945B569C01EB
:104700008A819B81FC012283338389812396CDBFDB
:10471000DEBFDF91CF910895CF93DF93CDB7DEB7A2
:104720002897CDBFDEBF8D839E836F83788781E01E
:104730008C838D819E81FC018481882311F08C8182
:1047400048C08F8198850E9400588A839B838D8101
:104750009E810E94BB229C0141E08A819B81281797
:10476000390708F040E0442311F08C8132C01982EF
:104770008981882F90E02A813B8182179307C0F4BA
:104780008D819E81FC018481882391F4898191E04F
:10479000980F9983882F90E02F813885820F931F7F
:1047A000FC0120818D819E81622F0E94E822E0CF52
:1047B0008D819E81FC01948181E08927882329F0E5
:1047C0008D819E8160E00E94E8228D819E81FC01A6
:1047D00084812896CDBFDEBFDF91CF910895CF931E
:1047E000DF93CDB7DEB72897CDBFDEBF8B839C8329
:1047F0006D837E834F8358878B819C810E943422F6
:10480000882371F08D819E81FC0110828F819885B3
:10481000892B79F18F819885FC011082118229C042
:1048200019828B819C810E944C238A8381E09A812A
:10483000992309F480E0882371F0898191E0980F31
:104840009983882F90E02D813E81820F931F2A81CA
:10485000FC012083E6CF8F819885892B61F08981C7
:10486000282F30E08F819885FC0120833183000060
:1048700002C0000001C000002896CDBFDEBFDF915E
:10488000CF910895CF93DF9300D01F92CDB7DEB7BD
:1048900089839A836B8389819A814B8168ED0E9419
:1048A000C84300002396CDBFDEBFDF91CF910895AE
:1048B000CF93DF93CDB7DEB765E88CE790E00E9439
:1048C000422465E288E690E00E94422480E0DF9185
:1048D000CF910895CF93DF93CDB7DEB7789480E082
:1048E000DF91CF910895CF93DF93CDB7DEB780EA04
:1048F00090E021E8FC0122830000DF91CF91089530
:10490000CF93DF93CDB7DEB70E94732480E694E0A7
:10491000FC01268980E694E0287FFC01268B80E656
:1049200094E0FC01268980E694E02460FC01268B5B
:1049300080E694E0FC01268980E694E0277FFC0174
:10494000268B80EA96E021E4FC0120830000DF91C1
:10495000CF910895CF93DF9300D0CDB7DEB7898391
:104960009A83298180EA96E02295220F220F207CEB
:10497000FC01228389819A819C0136952795369581
:10498000279580EA96E0FC01238300000F900F90AA
:10499000DF91CF910895CF93DF9300D0CDB7DEB7ED
:1049A00089836A838A818823B1F084E090E0FC01E6
:1049B0008181482F8981282F30E081E090E002C07A
:1049C000880F991F2A95E2F7242F282B84E090E086
:1049D000FC01218316C084E090E0FC018181482F16
:1049E0008981282F30E081E090E002C0880F991F74
:1049F0002A95E2F78095242F282384E090E0FC019B
:104A0000218300000F900F90DF91CF910895CF93F5
:104A1000DF9300D0CDB7DEB789839A832BEB31E4E7
:104A200089819A81FC012083318389819A8128E7D9
:104A3000FC01268300000F900F90DF91CF91089525
:104A4000CF93DF9300D000D0CDB7DEB789839A83B0
:104A50006B837C8389819A812B813C81FC01228339
:104A600033838B819C818130910581F08230910567
:104A7000C1F0892B09F589819A8124E1FC01248305
:104A800089819A8124E0FC01258316C089819A815D
:104A900020E1FC01248389819A8124E0FC012583A3
:104AA0000BC089819A812AE0FC01248389819A8143
:104AB00024E0FC012583000089819A8120E8FC0123
:104AC000218789819A8124E0FC0122870E94343D5C
:104AD00089819A810E948B2589819A810E94B225C1
:104AE00089819A810E942F2689819A8122E0FC0186
:104AF000278389819A81FC018781282F24608981FD
:104B00009A81622F0E94992600002496CDBFDEBFB5
:104B1000DF91CF910895CF93DF9300D0CDB7DEB76B
:104B200089839A8362E370E080E090E00E942D50D8
:104B300060E084E00E94CB2464E070E080E090E0DC
:104B40000E942D5061E084E00E94CB2464E170E07B
:104B500080E090E00E942D5000000F900F90DF91B8
:104B6000CF910895CF93DF9300D0CDB7DEB789837F
:104B70009A8389819A816AE30E94992689819A8120
:104B800069E00E94992689819A8166E00E949926AF
:104B900089819A816EE10E94992689819A8169E3CF
:104BA0000E94992689819A816BE10E9499268981C8
:104BB0009A81FC018281938181309105A9F0823034
:104BC000910511F1892B81F589819A816EE60E9408
:104BD000992689819A8167E50E94992689819A811F
:104BE00062E70E94992620C089819A816CE60E9422
:104BF000992689819A8166E50E94992689819A8100
:104C00006BE60E94992610C089819A816EE60E9407
:104C1000992689819A8166E50E94992689819A81DF
:104C20006AE70E949926000089819A8168E30E94C0
:104C3000992689819A8124E0FC01208789819A81C3
:104C4000FC018085282F286089819A81622F0E942B
:104C5000992600000F900F90DF91CF910895CF9388
:104C6000DF9300D0CDB7DEB789839A8389819A819B
:104C700061E00E94992600000F900F90DF91CF9184
:104C80000895CF93DF9300D000D0CDB7DEB78983EE
:104C90009A836B834C8389819A81FC018185282FBB
:104CA0008B81982F9295990F907E8C81890F822B02
:104CB000282F89819A81622F0E94992600002496CC
:104CC000CDBFDEBFDF91CF910895CF93DF9300D0AA
:104CD0001F92CDB7DEB789839A836B8389819A81CE
:104CE0006B810E94BB2681E090E02396CDBFDEBFA2
:104CF000DF91CF910895CF93DF93CDB7DEB726979D
:104D0000CDBFDEBF89839A836B837C834D835E83B3
:104D10004D815E812B813C8189819A81B9010E94FC
:104D2000DD268D819E812696CDBFDEBFDF91CF919E
:104D30000895CF93DF93CDB7DEB72597CDBFDEBF04
:104D40008B839C836D838D8189838B819C8121E002
:104D5000AE014F5F5F4F60E00E94FF26882319F08D
:104D600080EE90E002C080E090E02596CDBFDEBFEF
:104D7000DF91CF910895CF93DF93CDB7DEB725971D
:104D8000CDBFDEBF8B839C836D838D8189838B81B7
:104D90009C8121E0AE014F5F5F4F60E40E94FF26DF
:104DA000882319F080EE90E002C080E090E0259624
:104DB000CDBFDEBFDF91CF910895CF93DF93CDB705
:104DC000DEB72697CDBFDEBF89839A836B837C8352
:104DD0004D835E832D814B815C8189819A8160E462
:104DE0000E94FF26882319F080EE90E002C080E048
:104DF00090E02696CDBFDEBFDF91CF910895CF938F
:104E0000DF93CDB7DEB72897CDBFDEBF8B839C8302
:104E10006D834E835F83288785E0898389819FEF37
:104E2000980F99838823C1F08B819C81FC01368186
:104E30008E819F812885AC016D81832F0E94043E65
:104E4000282F81E09885921709F480E08A838A816F
:104E5000882311F081E001C080E0882309F0DECFD3
:104E60008A812896CDBFDEBFDF91CF910895CF9381
:104E7000DF9300D01F92CDB7DEB789836A837B832F
:104E80008A819B8181309105E9F08230910581F121
:104E9000892B09F03DC088E090E0FC018081482F1B
:104EA0008981282F30E081E090E002C0880F991FAF
:104EB0002A95E2F78095242F282388E090E0FC01D2
:104EC000208326C088E090E0FC018081482F898102
:104ED000282F30E081E090E002C0880F991F2A95CA
:104EE000E2F7242F282B88E090E0FC01208310C0FB
:104EF0008981882F90E0805B9B4FFC012081898114
:104F0000882F90E0805B9B4F2860FC01208300008D
:104F100000002396CDBFDEBFDF91CF910895CF93E0
:104F2000DF9300D0CDB7DEB789836A838A81882377
:104F3000B1F088E090E0FC018181482F8981282F21
:104F400030E081E090E002C0880F991F2A95E2F7D7
:104F5000242F282B88E090E0FC01218316C088E0F4
:104F600090E0FC018181482F8981282F30E081E089
:104F700090E002C0880F991F2A95E2F78095242FB0
:104F8000282388E090E0FC01218300000F900F901F
:104F9000DF91CF910895CF93DF9300D0CDB7DEB7E7
:104FA00089839A8389819A81BC0185E00E94372791
:104FB00000000F900F90DF91CF910895CF93DF9372
:104FC00000D0CDB7DEB789839A8389819A81BC01ED
:104FD00084E00E94372700000F900F90DF91CF915F
:104FE0000895CF93DF931F92CDB7DEB78983698190
:104FF00085E00E948F2700000F90DF91CF910895E8
:10500000CF93DF931F92CDB7DEB78983698184E0A8
:105010000E948F2700000F90DF91CF910895CF93CA
:10502000DF9300D0CDB7DEB719828981883098F43C
:105030008981882F90E0805F9B4FFC0120818981CE
:10504000882F90E0805F9B4F2860FC01208389813E
:105050008F5F8983EACF1A828A81883098F48A81A7
:10506000882F90E0805D9B4FFC0120818A81882FF2
:1050700090E0805D9B4F2860FC0120838A818F5FD8
:105080008A83EACF00000F900F90DF91CF910895AF
:10509000CF93DF93CDB7DEB70E940F280E9458242C
:1050A0000E94234F0E94C34F0E941C200E946A242A
:1050B0000E946F4E0E94C1210000DF91CF910895A0
:1050C000CF93DF93CDB7DEB70E940F280E949A518D
:1050D0000E94FB2081E090E00E94CB2780E00E94AC
:1050E000F12781E090E00E94DE2780E00E94002806
:1050F0000000DF91CF910895CF93DF9300D0CDB71B
:10510000DEB789839A8300000F900F90DF91CF91D3
:105110000895CF93DF9300D0CDB7DEB789839A830C
:1051200000000F900F90DF91CF910895CF93DF9300
:1051300000D01F92CDB7DEB789839A836B8380E05E
:1051400090E1FC018281882F90E08270992721E014
:10515000892B09F420E0222309F0F1CF8DE993E1B6
:1051600084BF9093001089819A819C5E2B81FC0101
:1051700020838DE990E084BF909300100000239677
:10518000CDBFDEBFDF91CF910895CF93DF9300D0E5
:1051900000D0CDB7DEB789839A836B837C8380E0B0
:1051A00090E1FC018281882F90E08270992721E0B4
:1051B000892B09F420E0222309F0F1CF8DE993E156
:1051C00084BF9093001089819A819C5E9C018B81A1
:1051D0009C81F901808391838DE990E084BF909355
:1051E000001000002496CDBFDEBFDF91CF9108955F
:1051F000CF93DF93CDB7DEB72697CDBFDEBF8983D0
:105200009A834B835C836D837E8380E090E1FC0115
:105210008281882F90E08270992721E0892B09F400
:1052200020E0222309F0F1CF8DE993E184BF909330
:10523000001089819A819C5E9C018B819C81AD814B
:10524000BE81F90180839183A283B3838DE990E0CD
:1052500084BF9093001000002696CDBFDEBFDF9183
:10526000CF910895CF93DF93CDB7DEB72697CDBF0B
:10527000DEBF89839A834B835C836D837E8380E06A
:1052800090E1FC018281882F90E08270992721E0D3
:10529000892B09F420E0222309F0F1CF8DE993E175
:1052A00084BF9093001089819A819C5E9C018B81C0
:1052B0009C81AD81BE81F90180839183A283B383F8
:1052C0008DE990E084BF9093001000002696CDBF3A
:1052D000DEBFDF91CF910895CF92DF92EF92FF92E0
:1052E0000F931F93CF93DF93CDB7DEB7E497CDBF76
:1052F000DEBF8FA798AB69AB7AAB4BAB5CAB8BA92E
:105300009CA9892B09F422C589A99AA98D3A9105EE
:1053100009F42CC28E3A91050CF057C088379105DC
:1053200009F44EC2893791053CF58631910509F49F
:1053300027C18731910564F48630910509F463C370
:105340008E30910509F480C3892B09F413C43BC541
:105350008A34910509F4D0C08B34910524F4C097A8
:1053600009F452C130C58436910509F491C18237E0
:10537000910509F410C227C58039910509F485C348
:10538000813991056CF48438910509F443C28A3857
:10539000910509F454C28E37910509F426C213C54C
:1053A0008D39910509F490C08E3991052CF4853919
:1053B000910509F468C007C5833A910509F4ACC1A9
:1053C000883A910509F4BDC1FEC4883E910509F4EF
:1053D000D8C2893E91054CF5843C910509F4B2C3CD
:1053E000853C91056CF4883B910509F47BC38E3BA9
:1053F000910509F48FC3823B910509F45BC3E3C4B3
:10540000803D910509F45AC2813D91052CF48A3CF6
:10541000910509F43EC2D7C4883D910509F46FC2D5
:10542000803E910509F48CC2CEC4853021E09207FC
:1054300009F4DCC38630E1E09E076CF4883F9105F7
:1054400009F412C28D3F910509F4ACC3803F910568
:1054500009F4B8C2B8C48031F1E09F0709F4F3C37E
:10546000813121E092072CF48B30914009F4D6C3AE
:10547000AAC48231F1E09F0709F4FCC3823691404F
:1054800009F44FC4A0C48BA99CA9FC01C080D180A1
:10549000E280F38085E990E00E94645DDC01CB014D
:1054A000C816D906EA06FB0609F452C48BA99CA9C2
:1054B000FC0180819181A281B381AC01BD0185E9AC
:1054C00090E00E94F82844C48BA99CA9FC010081AB
:1054D00011818DE990E00E946B5D0817190709F4AE
:1054E00039C48BA99CA9FC0180819181BC018DE903
:1054F00090E00E94C5282EC419821A828BA99CA90B
:105500008B839C838B819C819C012F5F3F4F2B83DE
:105510003C83FC0180818D838AE490E08E839F83AD
:105520008D81882339F189819A8144971CF58E8178
:105530009F810E945C5D8CA79D818CA5981729F0A6
:105540008E819F816D810E94962889819A81019622
:1055500089839A838B819C819C012F5F3F4F2B8392
:105560003C83FC0180818D838E819F8101968E8397
:105570009F83D6CF8E819F8160E00E94962823C4AE
:10558000188619868BA99CA98A879B878A859B8503
:105590009C012F5F3F4F2A873B87FC0180818C87CE
:1055A00086E190E08D879E878C85882339F18885F8
:1055B000998544971CF58D859E850E945C5D8EA71C
:1055C0009C858EA5981729F08D859E856C850E94F7
:1055D0009628888599850196888799878A859B85ED
:1055E0009C012F5F3F4F2A873B87FC0180818C877E
:1055F0008D859E8501968D879E87D6CF8D859E85CC
:1056000060E00E949628DFC31F86188A8BA99CA998
:10561000898B9A8B89899A899C012F5F3F4F298BAF
:105620003A8BFC0180818B8B80E390E08C8B9D8B8F
:105630008B89882339F18F85988944971CF58C894B
:105640009D890E945C5D8DA79B898DA5981729F087
:105650008C899D896B890E9496288F8598890196EF
:105660008F87988B89899A899C012F5F3F4F298B5F
:105670003A8BFC0180818B8B8C899D8901968C8B68
:105680009D8BD6CF8C899D8960E00E9496289BC314
:105690001E8A1F8A8BA99CA9888F998F888D998DC6
:1056A0009C012F5F3F4F288F398FFC0180818A8FAB
:1056B00084E690E08B8F9C8F8A8D882339F18E89C8
:1056C0009F8908971CF58B8D9C8D0E945C5D8BA734
:1056D0009A8D8BA5981729F08B8D9C8D6A8D0E94D1
:1056E00096288E899F8901968E8B9F8B8B8D9C8DA2
:1056F00001968B8F9C8F888D998D9C012F5F3F4FDA
:10570000288F398FFC0180818A8FD6CF8B8D9C8D1D
:1057100060E00E94962857C38BA99CA9FC011081C8
:1057200083EA90E00E945C5D181709F415C38BA909
:105730009CA9FC018081682F83EA90E00E94962852
:105740000BC38BA99CA9FC01108188EA90E00E9400
:105750005C5D181709F402C38BA99CA9FC01808128
:10576000682F88EA90E00E949628F8C28BA99CA92D
:10577000FC0110818DEA90E00E945C5D181709F42D
:10578000EFC28BA99CA9FC018081682F8DEA90E073
:105790000E949628E5C28BA99CA9FC01108182E792
:1057A00090E00E945C5D181709F4DCC28BA99CA9EB
:1057B000FC018081682F82E790E00E949628D2C287
:1057C0008BA99CA9FC01108188E790E00E945C5D98
:1057D000181709F4C9C28BA99CA9FC018081682F04
:1057E00088E790E00E949628BFC28BA99CA9FC0183
:1057F00010818EE790E00E945C5D181709F4B6C234
:105800008BA99CA9FC018081682F8EE790E00E9403
:105810009628ACC28BA99CA9FC01108184E890E079
:105820000E945C5D181709F4A3C28BA99CA9FC0116
:105830008081682F84E890E00E94962899C28BA905
:105840009CA9FC0110818AE890E00E945C5D181719
:1058500009F490C28BA99CA9FC018081682F8AE879
:1058600090E00E94962886C28BA99CA9FC01108119
:1058700088EF90E00E945C5D181709F47DC28BA947
:105880009CA9FC018081682F88EF90E00E949628F7
:1058900073C28BA99CA9FC0110818AEC90E00E9444
:1058A0005C5D181709F46AC28BA99CA9FC01808170
:1058B000682F8AEC90E00E94962860C28BA99CA970
:1058C000FC01C080D180E280F38080ED90E00E94F6
:1058D000645DDC01CB01C816D906EA06FB0609F4B3
:1058E0004FC28BA99CA9FC0180819181A281B381C7
:1058F000AC01BD0180ED90E00E94F82841C28BA967
:105900009CA9FC01C080D180E280F38088ED90E00A
:105910000E94645DDC01CB01C816D906EA06FB06CD
:1059200009F430C28BA99CA9FC0180819181A281DC
:10593000B381AC01BD0188ED90E00E94F82822C23D
:105940008BA99CA9FC01C080D180E280F38080EE0D
:1059500090E00E94645DDC01CB01C816D906EA061E
:10596000FB0609F411C28BA99CA9FC0180819181DD
:10597000A281B381AC01BD0180EE90E00E94F828C5
:1059800003C28BA99CA9FC01C080D180E280F38076
:1059900088EE90E00E94645DDC01CB01C816D90658
:1059A000EA06FB0609F4F2C18BA99CA9FC018081DF
:1059B0009181A281B381AC01BD0188EE90E00E948B
:1059C000F828E4C18BA99CA9FC01C080D180E280A9
:1059D000F38080EF90E00E94645DDC01CB01C8168B
:1059E000D906EA06FB0609F4D3C18BA99CA9FC01E0
:1059F00080819181A281B381AC01BD0180EF90E0F3
:105A00000E94F828C5C18BA99CA9FC01C080D18047
:105A1000E280F38086E090E00E94645DDC01CB01CF
:105A2000C816D906EA06FB0609F4B4C18BA99CA9DD
:105A3000FC0180819181A281B381AC01BD0186E02E
:105A400090E00E94F828A6C18BA99CA9FC01C08007
:105A5000D180E280F3808EE090E00E94645DDC0102
:105A6000CB01C816D906EA06FB0609F495C18BA935
:105A70009CA9FC0180819181A281B381AC01BD010F
:105A80008EE090E00E94F82887C18BA99CA9FC01B8
:105A9000108180E990E00E945C5D181709F47EC1D6
:105AA0008BA99CA9FC018081682F80E990E00E946D
:105AB000962874C18BA99CA9FC010081118182EBFD
:105AC00090E00E946B5D0817190709F469C18BA962
:105AD0009CA9FC0180819181BC0182EB90E00E9435
