S01500005369676E616C536E61676765722E73726563EA
S11300000C9478000C94A2000C94A2000C9425018A
S11300100C94A2000C94A2000C9453060C94A2001D
S11300200C94A2000C94A2000C94A2000C94A200C4
S11300300C94A4010C94A42F0C94A2000C94A20080
S11300400C94A2000C94A2000C94A2000C94A200A4
S11300500C94A2000C94A2000C94A2000C94A20094
S11300600C94C40D0C94A2000C94A2000C94A20055
S11300700C94A2000C94A2000C944C2F0C94A2009B
S11300800C94A2000C94A2000C947E060C94A20082
S11300900C94A2000C94A2000C94A2000C94A20054
S11300A00C94A2000C94DB1D0C94A2000C94A200EE
S11300B00C94A2000C94A2000C94A2000C94A20034
S11300C00C94A2000C94A2000C94A2000C94A20024
S11300D00C94A2000C94A2000C94A2000C94A20014
S11300E00C94A2000C94A200F30B3A0E000C470EE1
S11300F011241FBECFEFCDBFDFE7DEBF10E4A0E0C9
S1130100B0E4EAE7FDE600E00BBF02C007900D9201
S1130110AE3CB107D9F721E4AEECB0E401C01D92C6
S1130120A13EB207E1F710E0C6E7D0E004C0219792
S1130130FE010E949432C437D107C9F70E942807F0
S11301400C94B0360C9400000FB6F8946093DD4123
S11301507093DE418093DF419093E0410FBE089598
S1130160FC010FB6F8946091DD417091DE418091FD
S1130170DF419091E0410FBE309721F0608371839D
S11301808283938308958F938FB78F93F89480918C
S1130190DD418F5F8093DD418091DE418F4F8093FD
S11301A0DE418091DF418F4F8093DF418091E041B8
S11301B08F4F8093E0418F918FBF8F910895CF939C
S11301C0DF93CDB7DEB70E944D1A0000DF91CF91C7
S11301D00895CF93DF9300D0CDB7DEB789836A83C8
S11301E08A818823B1F080E090E0FC018181482F6E
S11301F08981282F30E081E090E002C0880F991FA8
S11302002A95E2F7242F282B80E090E0FC0121833B
S113021016C080E090E0FC018181482F8981282F5D
S113022030E081E090E002C0880F991F2A95E2F740
S11302308095242F282380E090E0FC012183000096
S11302400F900F90DF91CF9108951F920F920FB6E8
S11302500F9211240BB60F922F933F934F935F93FA
S11302606F937F938F939F93AF93BF93EF93FF937A
S1130270CF93DF931F92CDB7DEB780E491E0FC010A
S1130280838189838981882F90E081709927892BC4
S113029009F43EC00E94C30081E0809340418091F4
S11302A0414190914241A0914341B0914441019612
S11302B0A11DB11D8093414190934241A0934341BC
S11302C0B09344418091414190914241A091434176
S11302D0B091444121E00297A105B10509F020E065
S11302E0222319F081E0809338418091414190911B
S11302F04241A0914341B091444121E00597A105B9
S1130300B10509F020E0222319F081E080934541F2
S113031080E491E023E0FC01238300000F90DF914F
S1130320CF91FF91EF91BF91AF919F918F917F9169
S11303306F915F914F913F912F910F900BBE0F9052
S11303400FBE0F901F9018951F920F920FB60F9229
S113035011240BB60F922F933F934F935F936F9398
S11303607F938F939F93AF93BF93EF93FF93CF9319
S1130370DF93CDB7DEB76297CDBFDEBF80E09BE0F1
S1130380FC0186818C838C81882F90E08170992771
S1130390892B09F46AC41D821E82809111408F5FEB
S11303A080931140209111408BEA289F812D1124C4
S11303B0982F96959695892F880F890F880F922FDD
S11303C0981B992309F09AC287E08F830E943912FF
S11303D0982F8F8189238D830E94ED110E943912F9
S11303E0982F8F8189238E838D81827088878D8158
S11303F0817089878D8184708A878885882379F4C0
S11304008985882361F060E086E00E94E90061E06C
S113041085E00E94E90081E080933E411EC0898509
S1130420882379F48885882361F060E085E00E9460
S1130430E90061E086E00E94E90081E080933F41A9
S11304400CC060E085E00E94E90060E086E00E9464
S1130450E90010923E4110923F418A85882321F49D
S113046081E080933D4102C010923D419D818E8187
S1130470981709F4AEC09E818D8189278B878B855F
S1130480082E000C990B82709927892B81F188859D
S11304908823A9F08EE691E40E945C1F882361F012
S11304A080915A4190915B41019680935A41909377
S11304B05B41109282411BC01092124018C08EE61C
S11304C091E40E945C1F982F81E08927882329F0FA
S11304D08EE691E40E94D61F07C010924E411092FE
S11304E04F4181E08093824181E0809312408B856B
S11304F0082E000C990B81709927892B81F189852D
S11305008823A9F08EE691E40E945C1F882361F0A1
S113051080915C4190915D41019680935C41909300
S11305205D41109283411BC01092134018C08EE6A7
S113053091E40E945C1F982F81E08927882329F089
S11305408EE691E40E94D61F07C01092504110928B
S1130550514181E08093834181E0809313408B85F6
S1130560082E000C990B84709927892B09F4BEC0BE
S11305708A858823A9F08EE691E40E945C1F882373
S113058061F080915E4190915F41019680935E415C
S113059090935F4110928441A9C010921440A6C068
S11305A08EE691E40E945C1F982F81E089278823BE
S11305B029F08EE691E40E94D61F07C010925241A2
S11305C01092534181E08093844181E080931440F0
S11305D08DC08885882361F59091604181E08927E9
S11305E0882331F080911240882311F081E001C00A
S11305F080E08823E9F080914E4190914F4101962B
S113060080934E4190934F4121E0883C910508F43A
S113061020E0222369F081E08093604110924E41F2
S113062010924F4110925A4110925B411092124025
S11306308985882361F59091614181E08927882328
S113064031F080911340882311F081E001C080E0F3
S11306508823E9F080915041909151410196809313
S113066050419093514121E0883C910508F420E0E9
S1130670222369F081E080936141109250411092ED
S1130680514110925C4110925D41109213408A8551
S1130690882361F59091624181E08927882331F0B4
S11306A080911440882311F081E001C080E0882308
S11306B0E9F08091524190915341019680935241C7
S11306C09093534121E0883C910508F420E02223D3
S11306D069F081E08093624110925241109253413B
S11306E010925E4110925F411092144080917C41BF
S11306F090917D41892B71F180917C4190917D4154
S1130700019780937C4190937D4180917C419091AD
S11307107D41892B09F042C080915A4190915B41FF
S1130720892B41F080915A4190915B41039710F4D9
S113073081E001C080E0882341F080915A4190918A
S11307405B41809354419093554110925A411092C9
S11307505B4124C080915A4190915B41019731F4EF
S113076080918241882311F081E001C080E08823D8
S113077039F082E390E080937C4190937D410EC0F8
S113078080915A4190915B4121E0039708F420E065
S1130790222321F010925A4110925B4180917E41B4
S11307A090917F41892B71F180917E4190917F419D
S11307B0019780937E4190937F4180917E419091F7
S11307C07F41892B09F042C080915C4190915D4149
S11307D0892B41F080915C4190915D41039710F425
S11307E081E001C080E0882341F080915C419091D8
S11307F05D41809356419093574110925C41109211
S11308005D4124C080915C4190915D41019731F438
S113081080918341882311F081E001C080E0882326
S113082039F082E390E080937E4190937F410EC043
S113083080915C4190915D4121E0039708F420E0B0
S1130840222321F010925C4110925D4180918041FD
S113085090918141892B71F18091804190918141E6
S11308600197809380419093814180918041909140
S11308708141892B09F042C080915E4190915F4192
S1130880892B41F080915E4190915F41039710F470
S113089081E001C080E0882341F080915E41909125
S11308A05F41809358419093594110925E41109258
S11308B05F4124C080915E4190915F41019731F482
S11308C080918441882311F081E001C080E0882375
S11308D039F082E390E080938041909381410EC08F
S11308E080915E4190915F4121E0039708F420E0FC
S11308F0222321F010925E4110925F4180913B418E
S113090090913C4121E0892B09F420E0222309F451
S113091091C080913B4190913C41892F881F882749
S1130920881F8C8780913B4190913C4199231CF412
S113093091958195910989839A832091854130917C
S1130940864180913B4190913C4141E02817390711
S113095009F040E04423E9F0809187419091884177
S1130960892B49F080918741909188410197809328
S11309708741909388418091874190918841892B48
S113098009F049C089819A8103968C7F89839A836F
S113099042C089819A8195958795959587958D878C
S11309A09E878C85882379F02091394130913A4192
S11309B08D859E85A901481B590BCA018093394135
S11309C090933A410CC02091394130913A418D8540
S11309D09E85820F931F8093394190933A418D8570
S11309E09E85880F991F880F991F29813A81F901E3
S11309F0E81BF90BCF0189839A8386E990E0809301
S1130A0087419093884180913B4190913C418093F0
S1130A108541909386418C85882331F089819A8120
S1130A2091958195910902C089819A8180933B4176
S1130A3090933C4190917A4181E08927882309F47D
S1130A4073C08FEF80937B411B828B818230D8F5FA
S1130A508B81882F90E0880F991F835F9F4BFC0147
S1130A608081918121E0892B09F420E02223A1F0E7
S1130A708B81882F90E09C01220F331F235F3F4B13
S1130A80F9012081318121503109880F991F835F39
S1130A909F4BFC01208331838B81882F90E0880F4A
S1130AA0991F835F9F4BFC018081918121E0892BF9
S1130AB009F020E0222319F08B8180937B418B8104
S1130AC08F5F8B83C2CF80917B4188230CF4CDC090
S1130AD080917B41282F880F330B80917B41082E16
S1130AE0000C990B220F331F20543F4BF901208136
S1130AF03181880F991F835F9F4BFC0120833183D1
S1130B0080917B41082E000C990B880F991F875FF9
S1130B109F4BFC01808191810E940D0C0E94AE0CC0
S1130B2081E080937A41A1C00E94C50C882309F416
S1130B309CC00E94D90C8F87988B8F8598898A3F97
S1130B409F4008F090C08F85988980938941909345
S1130B508A4180917B41082E000C990B880F991FC4
S1130B60865B9E4BFC0180819181898B9A8B80915D
S1130B707B41082E000C990B885B9E4B21E0FC0105
S1130B80208380917B41082E000C990B880F991FBC
S1130B90875F9F4BFC0180819181049709F053C0CA
S1130BA08091894190918A4129893A892817390786
S1130BB008F589899A899C01220F331F8091894104
S1130BC090918A41820F931F20917B41422F220FE3
S1130BD0550B9C01ABEABAEA0E949D329C01369502
S1130BE02795CA01880F991F865B9E4BFC012083C1
S1130BF0318339C089899A899C01220F331F220FBE
S1130C00331F220F331F8091894190918A41820FB3
S1130C10931F20917B41422F220F550B9C01AFE87B
S1130C20B3EE0E949D329C01369527953695279503
S1130C3036952795CA01880F991F865B9E4BFC0148
S1130C402083318310C080917B41082E000C990BC6
S1130C502091894130918A41880F991F865B9E4B70
S1130C60FC012083318310927A4180E09BE023E0F1
S1130C70FC01268300006296CDBFDEBFDF91CF91D9
S1130C80FF91EF91BF91AF919F918F917F916F9160
S1130C905F914F913F912F910F900BBE0F900FBE1C
S1130CA00F901F9018951F920F920FB60F92112458
S1130CB00BB60F922F938F939F93EF93FF93CF9342
S1130CC0DF931F92CDB7DEB780E090E0FC01838113
S1130CD0898380E090E02FEFFC01238300000F90D4
S1130CE0DF91CF91FF91EF919F918F912F910F9071
S1130CF00BBE0F900FBE0F901F9018951F920F926E
S1130D000FB60F9211240BB60F922F938F939F93CC
S1130D10AF93BF93EF93FF93CF93DF9300D01F92D2
S1130D20CDB7DEB784E190E0FC01838189838091B3
S1130D303841882309F45BC08981882F90E0887149
S1130D409927892B09F453C080EA94E0FC0180853B
S1130D50882F90E095958795959587959595879596
S1130D6083708A8380918B41882F90E0880F991F2C
S1130D70880F991F982F8A81892B8B838B81882FC9
S1130D8090E0092E000CAA0BBB0B0197A109B10935
S1130D908E309105A105B10538F58E52994FFC01AD
S1130DA00C949432E006EA06F406EA06F406F40625
S1130DB0E006E006F406F406EA06F406EA06E006AF
S1130DC080913B4190913C41019680933B419093AB
S1130DD03C410AC080913B4190913C4101978093F2
S1130DE03B4190933C4100008A8180938B4180EA8F
S1130DF094E028E1FC01218700002396CDBFDEBFEB
S1130E00DF91CF91FF91EF91BF91AF919F918F911E
S1130E102F910F900BBE0F900FBE0F901F9018953F
S1130E20CF93DF93CDB7DEB760E083E00E94E900A3
S1130E300000DF91CF910895CF93DF93CDB7DEB754
S1130E4061E083E00E94E9000000DF91CF91089502
S1130E50CF93DF93CDB7DEB7A197CDBFDEBF1982A5
S1130E601A821B821C828FEF8D831E821F8281E077
S1130E7088870E94DF000E94E82C8078898768EECA
S1130E8073E080E090E00E94912E882329F0898508
S1130E90882311F081E001C080E0882329F00E94BA
S1130EA0E82C80788987EBCF64E47BE786E390E0E5
S1130EB00E9426308B879C878B859C85892B49F0E3
S1130EC0809136419091374182608093364190936E
S1130ED0374180911D4090911E400E94032460E898
S1130EE073E48DE698E30E94A40080E090E00E9401
S1130EF0B000DC01CB018D879E87AF87B88B60ED96
S1130F0077E080E090E00E94912E882389F080E0D1
S1130F1090E00E94B0009B01AC018D859E85AF8559
S1130F20B88982179307A407B50711F481E001C0BB
S1130F3080E0882309F0E3CF80E090E00E94B000D5
S1130F409B01AC0161E08D859E85AF85B8898217D0
S1130F509307A407B50709F060E0662391F0809138
S1130F603641909137418160809336419093374167
S1130F700E945F2341E069E070E08EE691E40E9404
S1130F80352062E070E083E691E40E9425178091A9
S1130F9036419091374121E0892B09F420E0222346
S1130FA059F167E270E48FE691E40E94B2158091F2
S1130FB03641909137418270992721E0892B09F4B9
S1130FC020E0222331F060E370E48FE691E40E9494
S1130FD0B21580913641909137418170992721E073
S1130FE0892B09F420E0222381F169E370E48FE680
S1130FF091E40E94B21529C062E470E48FE691E4A2
S11310000E94B2156BE470E48FE691E40E94B2157D
S113101086E590E4892F8F9386E590E48F938BE5A2
S113102090E4892F8F938BE590E48F938EEC90E47A
S1131030892F8F938EEC90E48F930E94E5330F9069
S11310400F900F900F900F900F906EEC70E48FE65E
S113105091E40E94B21580914541882309F4C0C0EF
S11310608885882359F0188683E691E40E94341811
S113107019821A821B821C828FEF8D8380912340F8
S113108090912440A0912540B091264061E02981AF
S11310903A814B815C81281739074A075B0709F4B9
S11310A060E06623C9F18091234090912440A0918F
S11310B02540B091264089839A83AB83BC83898180
S11310C09A81AB81BC819E012B5E3F4FAC01BD0177
S11310D0C9010E94EE30CE014596292F2F938F939C
S11310E084E690E4892F8F9384E690E48F938EECCA
S11310F090E4892F8F938EEC90E48F930E94E533D4
S11311000F900F900F900F900F900F906EEC70E473
S11311108FE691E40E94B215809106409D81981754
S113112061F1809106408D8380910640882F90E084
S113113024E630E0A901481B590BCA01292F2F933B
S11311408F9389E690E4892F8F9389E690E48F93B7
S11311508EEC90E4892F8F938EEC90E48F930E9411
S1131160E5330F900F900F900F900F900F906EEC4F
S113117070E48FE691E40E94B21580914A41909107
S11311804B4141E02E813F812817390709F440E0A3
S1131190442331F180914A4190914B418E839F8346
S11311A08F818F938E818F9385E790E4892F8F931E
S11311B085E790E48F938EEC90E4892F8F938EECE7
S11311C090E48F930E94E5330F900F900F900F904F
S11311D00F900F906EEC70E48FE691E40E94B215CC
S11311E08FE691E40E948F1421E0892B09F420E01A
S11311F02223B9F1CE018096AC016EEC70E48FE647
S113120091E40E94151688A199A1039750F1809149
S1131210CE40898B8091CF408A8B898980538B8B78
S11312208A8980538C8B4C896B8983E691E40E9474
S1131230461888A199A1029788A399A388A199A186
S1131240AC0160ED70E483E691E40E94E218CE0103
S11312508096AC016EEC70E48FE691E40E94151662
S1131260D2CF809154419091554121E0892B09F4CA
S113127020E0222331F1809154419091554121E0A5
S1131280019709F020E0222341F041E064E070E09E
S11312908EE691E40E94352010C0809154419091D3
S11312A0554121E0029709F020E0222331F061E06A
S11312B070E08EE691E40E941C201092544110923A
S11312C0554180914E4190914F4121E0883E934099
S11312D008F420E0222361F068E070E08EE691E4F7
S11312E00E941C2067E070E08EE691E40E941C20BE
S11312F080916041882341F0109260416CE070E07D
S11313008EE691E40E94E91F8091564190915741E5
S113131021E0892B09F420E0222331F18091564108
S11313209091574121E0019709F020E0222341F0F8
S113133041E066E070E08EE691E40E94352010C042
S1131340809156419091574121E0029709F020E0A5
S1131350222331F062E070E08EE691E40E941C20CA
S113136010925641109257418091504190915141B1
S113137021E0883E934008F420E0222361F068E0F5
S113138070E08EE691E40E941C2067E070E08EE637
S113139091E40E941C2080916141882341F01092C5
S11313A061416BE070E08EE691E40E94E91F809158
S11313B058419091594121E0892B09F420E02223DE
S11313C029F1809158419091594121E0019709F008
S11313D020E0222339F069E070E08EE691E40E9477
S11313E01C2010C0809158419091594121E00297EE
S11313F009F020E0222331F06AE070E08EE691E407
S11314000E941C20109258411092594180915241DF
S11314109091534121E0883E934008F420E0222338
S113142061F068E070E08EE691E40E941C2067E0C1
S113143070E08EE691E40E941C2080916241882332
S113144071F01092624168E070E08EE691E40E94CF
S1131450E91F67E070E08EE691E40E941C20809111
S113146032419091334121E0892B09F420E0222379
S113147009F18091324190913341292F2F938F9319
S11314808EE790E4892F8F938EE790E48F938EEC10
S113149090E4892F8F938EEC90E48F930E94E53330
S11314A00F900F900F900F900F900F901092324169
S11314B010923341809134419091354121E0892B40
S11314C009F420E0222309F18091344190913541BF
S11314D0292F2F938F938EE790E4892F8F938EE794
S11314E090E48F938EEC90E4892F8F938EEC90E4AC
S11314F08F930E94E5330F900F900F900F900F90F1
S11315000F9010923441109235418091394190915D
S11315103A4121E0892B09F420E0222309F4D4C0C4
S1131520809106408A878091394190913A41892F70
S1131530881F8827881F882309F45AC065E070E053
S11315408EE691E40E941C2067E070E08EE691E450
S11315500E941C2080913D41882339F08A8588238C
S1131560E9F18A8581508A8739C080913E41882378
S1131570A9F08091234090912440A0912540B091FE
S1131580264088519C4FAF4FBF4F80932340909388
S11315902440A0932540B093264014C0809123405A
S11315A090912440A0912540B09126408C599F4FA2
S11315B0AF4FBF4F8093234090932440A093254086
S11315C0B09326408091234090912440A0912540DF
S11315D0B0912640BC01CD010E94A32780913941DE
S11315E090913A4101968093394190933A4159C080
S11315F063E070E08EE691E40E941C2068E070E0F5
S11316008EE691E40E941C2080913D41882339F0AC
S11316108A858436E8F58A858F5F8A8739C0809108
S11316203E418823A9F08091234090912440A091C9
S11316302540B0912640885E9340A109B10980936A
S1131640234090932440A0932540B093264014C097
S11316508091234090912440A0912540B091264050
S113166084569109A109B1098093234090932440A1
S1131670A0932540B093264080912340909124402C
S1131680A0912540B0912640BC01CD010E94A32722
S11316908091394190913A410197809339419093D7
S11316A03A4180E090E00E94242ADC01CB0180933F
S11316B0234090932440A0932540B09326408A85EC
S11316C00E94D72D8093064080914641882309F4D7
S11316D0C2CC8EE691E40E94811F0E9410070E94F2
S11316E0671A82E090E00E940D2D81E080934741CB
S11316F0109207401092084080914641882309F1D6
S113170080E590E0FC018081897F282F226080E5BC
S113171090E0FC012083F89480E590E0FC012081B6
S113172080E590E02160FC0120837894889580E531
S113173090E0FC01208180E590E02E7FFC01208375
S1131740DBCF109247410E94DF000E941C070E94D9
S1131750443080910740909108408DEE90E0809352
S113176034419093354177CCCF93DF9300D000D0B0
S1131770CDB7DEB789839A836B837C8389819A8111
S11317800197B1F48B819C81019691F483E691E4F5
S11317900E940C178EE691E40E94C11D64E670E07D
S11317A08FE691E40E94F31389E791E40E94831A7F
S11317B089819A81892B81F48B819C81019661F4C2
S11317C089E791E40E94901A8FE691E40E9427141D
S11317D08EE691E40E94CE1D00002496CDBFDEBFAC
S11317E0DF91CF910895CF93DF93CDB7DEB76FEF3D
S11317F07FEF81E090E00E94B40BDF91CF910895D8
S1131800CF93DF93CDB7DEB76FEF7FEF80E090E04B
S11318100E94B40BDF91CF910895CF93DF9300D052
S1131820CDB7DEB789839A8389819A81092E000C0A
S1131830AA0BBB0B89309105A105B10508F085C041
S11318408B5D934FFC010C9494322E0C3C0C4B0C8E
S11318505A0C690C780CA50C870C960C80918D4160
S113186090918E41019719F081E00E949E0D80E0D5
S113187096E0FC0110866CC080918D4190918E4160
S1131880019719F081E00E949E0D80E096E021E02E
S1131890FC0120875DC080918D4190918E4101971C
S11318A019F081E00E949E0D80E096E022E0FC01A8
S11318B020874EC080918D4190918E41019719F0FF
S11318C081E00E949E0D80E096E023E0FC012087E9
S11318D03FC080918D4190918E41029719F080E034
S11318E00E949E0D80E096E024E0FC01208730C039
S11318F080918D4190918E41029719F080E00E9471
S11319009E0D80E096E025E0FC01208721C08091B7
S11319108D4190918E41029719F080E00E949E0DB6
S113192080E096E027E0FC01208712C080918D4181
S113193090918E41029719F080E00E949E0D80E004
S113194096E022E4FC01208703C00E94B00D000051
S113195000000F900F90DF91CF910895CF93DF9304
S1131960CDB7DEB780918D4190918E41892B49F09E
S113197080E096E0FC01148680E096E021E0FC0122
S113198022870000DF91CF910895CF93DF93CDB7E5
S1131990DEB780E096E0FC018585882F90E08170B9
S11319A0992721E0892B09F420E0822FDF91CF9140
S11319B00895CF93DF93CDB7DEB780E096E0FC01C6
S11319C080899189DF91CF910895CF93DF93CDB72B
S11319D0DEB780E694E0FC01228980E694E0287F6B
S11319E0FC01228B80E694E0FC01228980E694E0ED
S11319F02460FC01228B80E694E0FC01238980E6CC
S1131A0094E0287FFC01238B80E694E0FC01238989
S1131A1080E694E02460FC01238B80E694E0FC01E2
S1131A20248980E694E0287FFC01248B80E694E0FE
S1131A30FC01248980E694E02460FC01248B80E688
S1131A4094E0FC01258980E694E0287FFC01258B45
S1131A5080E694E0FC01258980E694E02460FC01A2
S1131A60258B80E694E0FC01228980E694E0277FC0
S1131A70FC01228B80E694E0FC01238980E694E05B
S1131A80277FFC01238B80E694E0FC01248980E617
S1131A9094E0277FFC01248B80E694E0FC012589F7
S1131AA080E694E0277FFC01258B0000DF91CF9135
S1131AB00895CF93DF93CDB7DEB780EA90E021E0BD
S1131AC0FC0120830000DF91CF910895CF93DF9331
S1131AD01F92CDB7DEB7898380E096E02AE0FC014F
S1131AE0228389818823B1F080E096E023E0FC0121
S1131AF0208380E096E021E0FC01248780E096E0EA
S1131B0021E0FC01228781E090E080938D41909355
S1131B108E410FC080E096E021E0FC01208380E04C
S1131B2096E0FC01148682E090E080938D419093CE
S1131B308E4100000F90DF91CF910895CF93DF93F2
S1131B401F92CDB7DEB789830E94E50C0E94590D20
S1131B5089810E94660D00000F90DF91CF91089556
S1131B60CF93DF93CDB7DEB780E096E0FC01148617
S1131B7080E096E0FC01108210928D4110928E411B
S1131B800000DF91CF9108951F920F920FB60F922C
S1131B9011240BB60F922F933F934F935F936F9340
S1131BA07F938F939F93AF93BF93EF93FF93CF93C1
S1131BB0DF9300D0CDB7DEB70E94D90C89839A8316
S1131BC089819A81BC018CE891E40E945B1B882383
S1131BD021F080E096E0FC01148600000F900F9045
S1131BE0DF91CF91FF91EF91BF91AF919F918F9131
S1131BF07F916F915F914F913F912F910F900BBE09
S1131C000F900FBE0F901F9018950F931F93CF93B3
S1131C10DF9300D000D0CDB7DEB789839A836B837E
S1131C207C8389819A81019781F48B819C810196BF
S1131C3061F400E010E42CEB36E440E050E069E4A9
S1131C4073E48CE891E40E94B01A89819A81892B0B
S1131C5041F48B819C81019621F48CE891E40E94EB
S1131C60481B00002496CDBFDEBFDF91CF911F91AA
S1131C700F910895CF93DF93CDB7DEB76FEF7FEF6A
S1131C8081E090E00E94050EDF91CF910895CF93FB
S1131C90DF93CDB7DEB76FEF7FEF80E090E00E9477
S1131CA0050EDF91CF910895CF93DF93CDB7DEB7C3
S1131CB02597CDBFDEBF8B836C837D838B81882F7B
S1131CC090E0805F9B4F89839A838C819D810197EB
S1131CD059F489819A81FC018081282F28608981A7
S1131CE09A81FC0120830EC08C819D81892B51F443
S1131CF089819A81FC018081282F277F89819A819B
S1131D00FC01208300002596CDBFDEBFDF91CF917B
S1131D100895CF93DF9300D01F92CDB7DEB78983A8
S1131D206A837B838A819B8181309105E9F08230CB
S1131D30910581F1892B09F03DC080E090E0FC0120
S1131D408081482F8981282F30E081E090E002C013
S1131D50880F991F2A95E2F78095242F282380E085
S1131D6090E0FC01208326C080E090E0FC018081AB
S1131D70482F8981282F30E081E090E002C0880F4D
S1131D80991F2A95E2F7242F282B80E090E0FC018C
S1131D90208310C08981882F90E0805F9B4FFC01D5
S1131DA020818981882F90E0805F9B4F2860FC010F
S1131DB02083000000002396CDBFDEBFDF91CF91CA
S1131DC00895CF93DF9300D0CDB7DEB789836A83BC
S1131DD08A818823B1F080E090E0FC018181482F62
S1131DE08981282F30E081E090E002C0880F991F9C
S1131DF02A95E2F7242F282B80E090E0FC01218330
S1131E0016C080E090E0FC018181482F8981282F51
S1131E1030E081E090E002C0880F991F2A95E2F734
S1131E208095242F282380E090E0FC01218300008A
S1131E300F900F90DF91CF910895CF93DF93CDB79B
S1131E40DEB780E090E0FC018281DF91CF910895BC
S1131E50CF93DF9300D01F92CDB7DEB789836A8317
S1131E607B838A819B8181309105E9F082309105E1
S1131E7081F1892B09F03DC084E090E0FC01808170
S1131E80482F8981282F30E081E090E002C0880F3C
S1131E90991F2A95E2F78095242F282384E090E067
S1131EA0FC01208326C084E090E0FC018081482F5F
S1131EB08981282F30E081E090E002C0880F991FCB
S1131EC02A95E2F7242F282B84E090E0FC0120835C
S1131ED010C08981882F90E0805D9B4FFC01208198
S1131EE08981882F90E0805D9B4F2860FC012083CE
S1131EF0000000002396CDBFDEBFDF91CF9108958F
S1131F00CF93DF9300D0CDB7DEB789836A838A810C
S1131F108823B1F084E090E0FC018181482F89811D
S1131F20282F30E081E090E002C0880F991F2A95A5
S1131F30E2F7242F282B84E090E0FC01218316C0D3
S1131F4084E090E0FC018181482F8981282F30E0D2
S1131F5081E090E002C0880F991F2A95E2F78095EE
S1131F60242F282384E090E0FC01218300000F90BB
S1131F700F90DF91CF910895CF93DF93CDB7DEB764
S1131F802597CDBFDEBF8B836C837D838B81882FA8
S1131F9090E0805B9B4F89839A838C819D8101971C
S1131FA059F489819A81FC018081282F28608981D4
S1131FB09A81FC0120830EC08C819D81892B51F470
S1131FC089819A81FC018081282F277F89819A81C8
S1131FD0FC01208300002596CDBFDEBFDF91CF91A9
S1131FE00895CF93DF9300D01F92CDB7DEB78983D6
S1131FF06A837B838A819B8181309105E9F08230F9
S1132000910581F1892B09F03DC088E090E0FC0145
S11320108081482F8981282F30E081E090E002C040
S1132020880F991F2A95E2F78095242F282388E0AA
S113203090E0FC01208326C088E090E0FC018081D0
S1132040482F8981282F30E081E090E002C0880F7A
S1132050991F2A95E2F7242F282B88E090E0FC01B1
S1132060208310C08981882F90E0805B9B4FFC0106
S113207020818981882F90E0805B9B4F2860FC0140
S11320802083000000002396CDBFDEBFDF91CF91F7
S11320900895CF93DF9300D0CDB7DEB789836A83E9
S11320A08A818823B1F088E090E0FC018181482F87
S11320B08981282F30E081E090E002C0880F991FC9
S11320C02A95E2F7242F282B88E090E0FC01218355
S11320D016C088E090E0FC018181482F8981282F77
S11320E030E081E090E002C0880F991F2A95E2F762
S11320F08095242F282388E090E0FC0121830000B0
S11321000F900F90DF91CF910895CF93DF9300D07C
S11321101F92CDB7DEB789836A837B838A819B81D3
S113212081309105E9F08230910581F1892B09F024
S11321303DC080E190E0FC018081482F8981282FF7
S113214030E081E090E002C0880F991F2A95E2F701
S11321508095242F282380E190E0FC01208326C071
S113216080E190E0FC018081482F8981282F30E0B4
S113217081E090E002C0880F991F2A95E2F7242F8E
S1132180282B80E190E0FC01208310C08981882FF6
S113219090E080579B4FFC0120818981882F90E03B
S11321A080579B4F2860FC01208300000000239689
S11321B0CDBFDEBFDF91CF910895CF93DF9300D0E1
S11321C0CDB7DEB789836A838A818823B1F080E141
S11321D090E0FC018181482F8981282F30E081E043
S11321E090E002C0880F991F2A95E2F7242F282B2C
S11321F080E190E0FC01218316C080E190E0FC01C5
S11322008181482F8981282F30E081E090E002C04D
S1132210880F991F2A95E2F78095242F282380E1BF
S113222090E0FC01218300000F900F90DF91CF918B
S11322300895CF93DF93CDB7DEB72597CDBFDEBF2B
S11322408B836C837D838B81882F90E080559B4F9B
S113225089839A838C819D81019759F489819A811C
S1132260FC018081282F286089819A81FC012083C8
S11322700EC08C819D81892B51F489819A81FC0146
S11322808081282F277F89819A81FC012083000087
S11322902596CDBFDEBFDF91CF910895CF93DF9315
S11322A000D01F92CDB7DEB789836A837B838A818E
S11322B09B8181309105E9F08230910581F1892B70
S11322C009F03DC084E190E0FC018081482F8981C0
S11322D0282F30E081E090E002C0880F991F2A95F2
S11322E0E2F78095242F282384E190E0FC012083E9
S11322F026C084E190E0FC018081482F8981282F49
S113230030E081E090E002C0880F991F2A95E2F73F
S1132310242F282B84E190E0FC01208310C08981C4
S1132320882F90E080559B4FFC0120818981882F64
S113233090E080559B4F2860FC0120830000000042
S11323402396CDBFDEBFDF91CF910895CF93DF9366
S113235000D0CDB7DEB789836A838A818823B1F040
S113236084E190E0FC018181482F8981282F30E0AD
S113237081E090E002C0880F991F2A95E2F7242F8C
S1132380282B84E190E0FC01218316C084E190E0D5
S1132390FC018181482F8981282F30E081E090E081
S11323A002C0880F991F2A95E2F78095242F2823CD
S11323B084E190E0FC01218300000F900F90DF91F5
S11323C0CF910895CF93DF93CDB7DEB784E190E04A
S11323D0FC018281DF91CF910895CF93DF93CDB734
S11323E0DEB7809193418093944180919241809390
S11323F09341809190418093914180918F4180934A
S113240090410E941D0F80938F410E94E21180939E
S1132410924190918F4180919541982720919041CC
S113242080919541822798232091914180919541F3
S11324308227982380919541892780939541909193
S113244092418091964198272091934180919641A1
S11324508227982320919441809196418227982342
S1132460809196418927809396410000DF91CF9116
S11324700895CF93DF93CDB7DEB780919541DF9177
S1132480CF910895CF93DF93CDB7DEB760E070E0CE
S113249080E00E94890E61E070E080E00E94540EAA
S11324A060E070E081E00E94890E61E070E081E00C
S11324B00E94540E60E070E082E00E94890E61E0A8
S11324C070E082E00E94540E61E070E083E00E94BC
S11324D0890E61E083E00E94E10E60E070E084E038
S11324E00E94890E61E070E084E00E94540E61E075
S11324F070E085E00E94890E60E085E00E94E10EB4
S113250061E070E086E00E94890E60E086E00E944F
S1132510E10E61E070E087E00E94890E61E087E0EF
S11325200E94E10E61E070E084E00E94280F61E007
S113253084E00E94800F60E070E082E00E94F10F6E
S113254061E070E082E00E94BC0F60E070E083E034
S11325500E94F10F61E070E083E00E94BC0F61E033
S113256070E084E00E94F10F61E084E00E94491071
S113257061E070E085E00E94F10F61E085E00E9477
S1132580491061E070E080E00E94851061E070E035
S113259081E00E94851061E070E082E00E94851075
S11325A061E070E083E00E94851060E083E00E94B7
S11325B0DD1062E070E080E00E944E1162E070E0A5
S11325C081E00E944E1160E070E082E00E944E11B2
S11325D061E070E082E00E94191160E070E083E045
S11325E00E944E1160E070E084E00E944E1160E0B1
S11325F070E085E00E944E1161E070E085E00E9489
S1132600191162E070E086E00E944E1180EA94E0C5
S1132610FC01238980EA94E02160FC01238B80EA99
S113262094E0FC01248980EA94E02160FC01248B7D
S113263080EA94E028E1FC0121870000DF91CF913A
S11326400895CF93DF93CDB7DEB760E070E080E00C
S11326500E94890E60E070E080E00E94540E60E009
S113266070E081E00E94890E60E070E081E00E94E9
S1132670540E60E070E082E00E94890E60E070E039
S113268082E00E94540E61E070E083E00E94890EB3
S113269060E083E00E94E10E60E070E084E00E946C
S11326A0890E60E070E084E00E94540E61E070E006
S11326B085E00E94890E60E085E00E94E10E61E001
S11326C070E086E00E94890E60E086E00E94E10EE0
S11326D061E070E087E00E94890E61E087E00E947B
S11326E0E10E61E070E084E00E94280F60E084E085
S11326F00E94800F60E070E082E00E94F10F61E0D0
S113270070E082E00E94BC0F60E070E083E00E9411
S1132710F10F61E070E083E00E94BC0F61E070E0C3
S113272084E00E94F10F60E084E00E94491061E0BF
S113273070E085E00E94F10F60E085E00E9449109E
S113274062E070E080E00E94851062E070E081E069
S11327500E94851062E070E082E00E94851061E0D2
S113276070E083E00E94851060E083E00E94DD1049
S113277062E070E080E00E944E1162E070E081E06F
S11327800E944E1161E070E082E00E944E1160E010
S113279082E00E94A61160E070E083E00E944E1186
S11327A060E070E084E00E944E1161E070E085E03A
S11327B00E944E1160E085E00E94A61162E070E084
S11327C086E00E944E110000DF91CF910895CF93CF
S11327D0DF93CDB7DEB780E890E0FC01118680E09E
S11327E0DF91CF910895CF93DF9300D000D0CDB780
S11327F0DEB789839A836B837C838B819C810E945F
S1132800B7329C0189819A81FC01258336838981B1
S11328109A812B813C81FC012783308789819A81AD
S1132820FC011082118289819A81FC011282138237
S113283089819A81FC01148289819A81FC01118623
S113284000002496CDBFDEBFDF91CF910895CF93D2
S1132850DF9300D0CDB7DEB789839A8389819A81CB
S1132860FC01858196810E94533300000F900F90E4
S1132870DF91CF910895CF93DF9300D0CDB7DEB72A
S113288089839A8389819A81FC0122813381898198
S11328909A81FC012083318389819A81FC0114820D
S11328A089819A81FC01118600000F900F90DF91BD
S11328B0CF910895CF93DF9300D0CDB7DEB789834E
S11328C09A8389819A81FC01948181E089278823F4
S11328D079F089819A81FC012081318189819A81F1
S11328E0FC01828193812817390711F481E001C02A
S11328F080E00F900F90DF91CF910895CF93DF93F5
S113290000D0CDB7DEB789839A8389819A81FC018F
S1132910878190850F900F90DF91CF910895CF9389
S1132920DF9300D000D0CDB7DEB78B839C838B813F
S11329309C81FC018781908589839A838B819C810A
S1132940FC01948181E08927882399F18B819C8102
S1132950FC01208131818B819C81FC0182819381E6
S1132960281739078CF08B819C81FC0120813181EF
S11329708B819C81FC0182819381A901481B590BA5
S1132980CA0189839A8315C08B819C81FC0187814C
S113299090852B813C81F90120813181820F931F25
S11329A02B813C81F90122813381821B930B898322
S11329B09A8389819A812496CDBFDEBFDF91CF911E
S11329C008950F931F93CF93DF9300D000D0CDB71A
S11329D0DEB78B839C8319821A828B819C81FC01D4
S11329E0948181E08927882379F08B819C810E94DE
S11329F07E148C018B819C810E948F149801281B6A
S1132A00390BC90189839A8389819A812496CDBF20
S1132A10DEBFDF91CF911F910F910895CF93DF9384
S1132A2000D01F92CDB7DEB789839A836B838981E7
S1132A309A81FC018581968129813A81F90120815D
S1132A403181820F931F2B81FC01208389819A811C
S1132A50FC0184818823B1F089819A81FC018281FF
S1132A6093810196AC0189819A81FC01278130858B
S1132A70CA01B9010E945E329C0189819A81FC01DC
S1132A802283338389819A81FC018081918101961B
S1132A90AC0189819A81FC0127813085CA01B90181
S1132AA00E945E329C0189819A81FC0120833183DA
S1132AB089819A81FC012081318189819A81FC017B
S1132AC08281938141E02817390709F040E0898128
S1132AD09A81FC01448300002396CDBFDEBFDF91C1
S1132AE0CF910895CF93DF9300D01F92CDB7DEB777
S1132AF08A839B838A819B810E945A14882311F0C4
S1132B0080E02AC08A819B81FC01858196812A818B
S1132B103B81F90122813381820F931FFC01808163
S1132B2089838A819B81FC0114828A819B81FC01B7
S1132B30828193810196AC018A819B81FC0127816A
S1132B403085CA01B9010E945E329C018A819B8151
S1132B50FC012283338389812396CDBFDEBFDF91BD
S1132B60CF910895CF93DF93CDB7DEB72897CDBF2C
S1132B70DEBF8D839E836F83788781E08C838D8114
S1132B809E81FC018481882311F08C8148C08F814F
S1132B9098850E94DC338A839B838D819E810E9469
S1132BA0E1149C0141E08A819B812817390708F0D0
S1132BB040E0442311F08C8132C019828981882F2E
S1132BC090E02A813B8182179307C0F48D819E8116
S1132BD0FC018481882391F4898191E0980F998381
S1132BE0882F90E02F813885820F931FFC0120816C
S1132BF08D819E81622F0E940E15E0CF8D819E8172
S1132C00FC01948181E08927882329F08D819E81AC
S1132C1060E00E940E158D819E81FC0184812896BE
S1132C20CDBFDEBFDF91CF910895CF93DF93CDB7B2
S1132C30DEB72897CDBFDEBF8B839C836D837E83F5
S1132C404F8358878B819C810E945A14882371F08A
S1132C508D819E81FC0110828F819885892B79F169
S1132C608F819885FC011082118229C019828B8181
S1132C709C810E9472158A8381E09A81992309F4C8
S1132C8080E0882371F0898191E0980F9983882FDF
S1132C9090E02D813E81820F931F2A81FC012083C5
S1132CA0E6CF8F819885892B61F08981282F30E0C8
S1132CB08F819885FC0120833183000002C00000CD
S1132CC001C000002896CDBFDEBFDF91CF910895EB
S1132CD0CF93DF9300D01F92CDB7DEB789839A8359
S1132CE06B8389819A814B8168ED0E94B322000035
S1132CF02396CDBFDEBFDF91CF910895CF93DF93AD
S1132D00CDB7DEB765E88CE790E00E94681665E20F
S1132D1088E690E00E94681680E0DF91CF910895E4
S1132D20CF93DF93CDB7DEB7789480E0DF91CF9176
S1132D300895CF93DF93CDB7DEB780EA90E023E028
S1132D40FC0122830000DF91CF910895CF93DF939C
S1132D50CDB7DEB70E94991680E694E0FC0126897F
S1132D6080E694E0287FFC01268B80E694E0FC0159
S1132D70268980E694E02460FC01268B80E694E0BA
S1132D80FC01268980E694E0277FFC01268B80EAFB
S1132D9096E021ECFC0120830000DF91CF9108959F
S1132DA0CF93DF9300D0CDB7DEB789836A838A815E
S1132DB08823B1F084E090E0FC018181482F89816F
S1132DC0282F30E081E090E002C0880F991F2A95F7
S1132DD0E2F7242F282B84E090E0FC01218316C025
S1132DE084E090E0FC018181482F8981282F30E024
S1132DF081E090E002C0880F991F2A95E2F7809540
S1132E00242F282384E090E0FC01218300000F900C
S1132E100F90DF91CF910895CF93DF9300D0CDB77A
S1132E20DEB789839A8328EC30E489819A81FC0196
S1132E302083318389819A8128E7FC01268300005D
S1132E400F900F90DF91CF910895CF93DF9300D02F
S1132E5000D0CDB7DEB789839A836B837C83898165
S1132E609A812B813C81FC01228333838B819C8159
S1132E708130910581F082309105C1F0892B09F5EB
S1132E8089819A8124E1FC01248389819A8124E047
S1132E90FC01258316C089819A8120E1FC012483E9
S1132EA089819A8124E0FC0125830BC089819A8160
S1132EB02AE0FC01248389819A8124E0FC01258392
S1132EC0000089819A8120E8FC01218789819A8107
S1132ED024E0FC0122870E94A41B89819A810E941C
S1132EE0901789819A810E94B71789819A810E94DB
S1132EF0341889819A8122E0FC01278389819A818F
S1132F00FC018781282F246089819A81622F0E9485
S1132F109E1800002496CDBFDEBFDF91CF910895A7
S1132F20CF93DF9300D0CDB7DEB789839A8362E372
S1132F3070E080E090E00E94912E60E084E00E94C6
S1132F40D01664E070E080E090E00E94912E61E091
S1132F5084E00E94D01664E170E080E090E00E947A
S1132F60912E00000F900F90DF91CF910895CF9391
S1132F70DF9300D0CDB7DEB789839A8389819A81A4
S1132F806AE30E949E1889819A8169E00E949E18D2
S1132F9089819A8166E00E949E1889819A816EE1F6
S1132FA00E949E1889819A8169E30E949E188981F2
S1132FB09A816BE10E949E1889819A81FC01828129
S1132FC0938181309105A9F08230910511F1892B0B
S1132FD081F589819A816EE60E949E1889819A8181
S1132FE067E50E949E1889819A8162E70E949E1873
S1132FF020C089819A816CE60E949E1889819A81F9
S113300066E50E949E1889819A816BE60E949E184B
S113301010C089819A816EE60E949E1889819A81E6
S113302066E50E949E1889819A816AE70E949E182B
S1133030000089819A8168E30E949E1889819A819F
S113304024E0FC01208789819A81FC018085282F56
S1133050286089819A81622F0E949E1800000F9037
S11330600F90DF91CF910895CF93DF9300D0CDB728
S1133070DEB789839A8389819A8161E00E949E18D0
S113308000000F900F90DF91CF910895CF93DF93BD
S113309000D000D0CDB7DEB789839A836B834C838D
S11330A089819A81FC018185282F8B81982F9295A3
S11330B0990F907E8C81890F822B282F89819A8188
S11330C0622F0E949E1800002496CDBFDEBFDF91C0
S11330D0CF910895CF93DF9300D01F92CDB7DEB781
S11330E089839A836B8389819A816B810E94C0183A
S11330F081E090E02396CDBFDEBFDF91CF910895AC
S1133100CF93DF93CDB7DEB72697CDBFDEBF8983DC
S11331109A836B837C834D835E834D815E812B8197
S11331203C8189819A81B9010E94E2188D819E8136
S11331302696CDBFDEBFDF91CF910895CF93DF9365
S1133140CDB7DEB72597CDBFDEBF8B839C836D8360
S11331508D8189838B819C8121E0AE014F5F5F4F1C
S113316060E00E940419882319F080EE90E002C008
S113317080E090E02596CDBFDEBFDF91CF9108952A
S1133180CF93DF93CDB7DEB72597CDBFDEBF8B835B
S11331909C836D838D8189838B819C8121E0AE0129
S11331A04F5F5F4F60E40E940419882319F080EE9A
S11331B090E002C080E090E02596CDBFDEBFDF91B5
S11331C0CF910895CF93DF93CDB7DEB72697CDBFC8
S11331D0DEBF89839A836B837C834D835E832D81D9
S11331E04B815C8189819A8160E40E94041988235F
S11331F019F080EE90E002C080E090E02696CDBF0A
S1133200DEBFDF91CF910895CF93DF93CDB7DEB7C3
S11332102897CDBFDEBF8B839C836D834E835F83F2
S1133220288785E0898389819FEF980F9983882374
S1133230C1F08B819C81FC0136818E819F81288520
S1133240AC016D81832F0E94741C282F81E0988526
S1133250921709F480E08A838A81882311F081E03F
S113326001C080E0882309F0DECF8A812896CDBF93
S1133270DEBFDF91CF910895CF93DF9300D01F92EB
S1133280CDB7DEB789836A837B838A819B81813052
S11332909105E9F08230910581F1892B09F03DC057
S11332A088E090E0FC018081482F8981282F30E05C
S11332B081E090E002C0880F991F2A95E2F780957B
S11332C0242F282388E090E0FC01208326C088E096
S11332D090E0FC018081482F8981282F30E081E033
S11332E090E002C0880F991F2A95E2F7242F282B1B
S11332F088E090E0FC01208310C08981882F90E051
S1133300805B9B4FFC0120818981882F90E0805B4A
S11333109B4F2860FC012083000000002396CDBF52
S1133320DEBFDF91CF910895CF93DF9300D0CDB767
S1133330DEB789836A838A818823B1F088E090E0CC
S1133340FC018181482F8981282F30E081E090E0C1
S113335002C0880F991F2A95E2F7242F282B88E0B2
S113336090E0FC01218316C088E090E0FC0181819B
S1133370482F8981282F30E081E090E002C0880F37
S1133380991F2A95E2F78095242F282388E090E05E
S1133390FC01218300000F900F90DF91CF910895DD
S11333A0CF93DF9300D0CDB7DEB789839A83898129
S11333B09A81BC0185E00E943C1900000F900F9097
S11333C0DF91CF910895CF93DF9300D0CDB7DEB7CF
S11333D089839A8389819A81BC0184E00E943C1983
S11333E000000F900F90DF91CF910895CF93DF935A
S11333F01F92CDB7DEB78983698185E00E94941955
S113340000000F90DF91CF910895CF93DF931F9227
S1133410CDB7DEB78983698184E00E9494190000E6
S11334200F90DF91CF910895CF93DF9300D0CDB764
S1133430DEB719828981883098F48981882F90E0D9
S1133440805F9B4FFC0120818981882F90E0805F01
S11334509B4F2860FC01208389818F5F8983EACF99
S11334601A828A81883098F48A81882F90E0805D5E
S11334709B4FFC0120818A81882F90E0805D9B4FC7
S11334802860FC0120838A818F5F8A83EACF000051
S11334900F900F90DF91CF910895CF93DF93CDB725
S11334A0DEB70E94141A0E947E160E94802D0E948C
S11334B0272E0E9442120E9490160E94012D0E9403
S11334C0A6160E94E7130000DF91CF910895CF93D1
S11334D0DF93CDB7DEB70E94141A0E94FE2F0E941C
S11334E0211381E090E00E94D01980E00E94F61937
S11334F081E090E00E94E31980E00E94051A000038
S1133500DF91CF910895CF93DF9300D0CDB7DEB78D
S113351089839A8300000F900F90DF91CF910895D3
S1133520CF93DF9300D0CDB7DEB789839A830000B1
S11335300F900F90DF91CF910895CF93DF93CDB784
S1133540DEB72697CDBFDEBF89839A836B837C83E6
S11335504D835E832696CDBFDEBFDF91CF91089564
S11335600F931F93CF93DF93CDB7DEB76297CDBF91
S1133570DEBF89879A874B875C876D877E870F8735
S1133580188B298B3A8B8F859889A989BA8980935E
S1133590974190939841A0939941B0939A418B8518
S11335A09C85AD85BE8589839A83AB83BC8384E681
S11335B090E08D839E8381ED90E08F8398878F8147
S11335C09885092E000CAA0BBB0BBC01CD010E94EF
S11335D0C131DC01CB019C01AD0169817A818B8110
S11335E09C810E94493218166CF48F819885092EAB
S11335F0000CAA0BBB0BBC01CD010E94C131DC0144
S1133600CB0127C08D819E81092E000CAA0BBB0B18
S1133610BC01CD010E94C131DC01CB019C01AD0193
S113362069817A818B819C810E94843188236CF426
S11336308D819E81092E000CAA0BBB0BBC01CD0110
S11336400E94C131DC01CB0104C089819A81AB8124
S1133650BC81BC01CD010E948931DC01CB01809386
S11336609B4190939C4180919B4190919C41880FF8
S1133670991F0E94B7328093A0419093A14100000A
S11336806296CDBFDEBFDF91CF911F910F91089558
S1133690CF93DF9300D0CDB7DEB789839A8380912F
S11336A0A0419091A1410E94533300000F900F90CC
S11336B0DF91CF910895CF93DF9300D000D0CDB7A1
S11336C0DEB789839A836B837C8380919F418823AF
S11336D019F080919F4132C02091A0413091A141C5
S11336E080919D4190919E41880F991F820F931F55
S11336F02B813C81FC012083318380919D419091F9
S11337009E41019680939D4190939E4120919D41BD
S113371030919E4180919B4190919C4141E02817BA
S113372039070CF440E0442339F010929D41109283
S11337309E4181E080939F4180919F412496CDBF1B
S1133740DEBFDF91CF910895CF93DF93CDB7DEB77E
S113375080EE95E0FC01258180EE95E02A70FC0165
S1133760258380EE95E0FC01258180EE95E02260C2
S1133770FC01258380E099E023E7FC01268380E0B7
S113378099E021E0FC01238380E099E0FC011782A9
S113379080E099E0FC01108680E099E021E0FC01E2
S11337A025830000DF91CF910895CF93DF931F927B
S11337B0CDB7DEB7198282E390E0809315409093F1
S11337C0164080E099E0FC018581882F90E0807CA0
S11337D0992721E0892B09F420E02223A1F080E03D
S11337E099E0FC018581882F90E08071992721E080
S11337F0892B09F020E0222319F081E0898313C08A
S113380082E0898310C080E099E0FC018581882FE3
S113381090E08C70992721E0892B09F420E0222381
S113382011F084E089838981882341F480911540D3
S113383090911640892B11F081E001C080E088232B
S113384009F0BFCF809115409091164021E0892B5B
S113385009F020E0222311F084E0898389810F900C
S1133860DF91CF910895CF93DF931F92CDB7DEB749
S1133870198282E390E0809315409093164080E093
S113388099E0FC018581882F90E0807C992721E0D4
S1133890892B09F420E0222319F083E0898310C0E6
S11338A080E099E0FC018581882F90E08C70992755
S11338B021E0892B09F420E0222311F084E089839C
S11338C08981882341F48091154090911640892B79
S11338D011F081E001C080E0882309F0D0CF898114
S11338E00F90DF91CF910895CF93DF93CDB7DEB7DB
S11338F02697CDBFDEBF8A836B834C835D832E8383
S11339008FEF898380E099E02A81FC0127830E945C
S1133910D51B982F81E0913009F480E0882311F0C1
S1133920898144C080E099E02B81FC0120870E94BA
S1133930D51B982F81E0913009F480E0882311F0A1
S1133940898134C019828E81882379F18C819D818B
S1133950892B59F18E819FEF980F9E8391E08823E4
S113396009F490E0992309F180E099E02C813D81EC
S1133970F9012081FC0120870E94D51B982F81E04A
S1133980913009F080E0882379F089818F5F898301
S11339908C819D8101968C839D838E81882311F473
S11339A00E945A1D0000D6CF000089812696CDBF03
S11339B0DEBFDF91CF910895CF93DF93CDB7DEB70C
S11339C02697CDBFDEBF8A836B834C835D832E83B2
S11339D08FEF898380E099E02A81FC0127830E948C
S11339E0D51B982F81E0913009F480E0882311F0F1
S11339F089815AC080E099E02B81FC0120870E94D4
S1133A00D51B982F81E0913009F480E0882311F0D0
S1133A1089814AC080E099E02A812160FC012783E2
S1133A200E94D51B982F81E0913009F480E088230F
S1133A3011F0898139C019828E818823A1F18C818A
S1133A409D81892B81F18E819FEF980F9E8391E058
S1133A50882309F490E0992331F10E94331C982FB4
S1133A6081E0933009F080E08823E1F080E099E080
S1133A70FC0120858C819D81FC0120838E8188231B
S1133A8011F427E001C022E080E099E0FC012483E6
S1133A9089818F5F89838C819D8101968C839D832D
S1133AA00000D1CF000089812696CDBFDEBFDF9113
S1133AB0CF910895CF93DF93CDB7DEB780E099E03F
S1133AC023E0FC0124830000DF91CF910895CF937C
S1133AD0DF9300D0CDB7DEB789836A838A818823D8
S1133AE0B1F088E090E0FC018181482F8981282F82
S1133AF030E081E090E002C0880F991F2A95E2F738
S1133B00242F282B88E090E0FC01218316C088E054
S1133B1090E0FC018181482F8981282F30E081E0E9
S1133B2090E002C0880F991F2A95E2F78095242F10
S1133B30282388E090E0FC01218300000F900F907F
S1133B40DF91CF910895CF93DF931F92CDB7DEB766
S1133B508983698185E00E94671D00000F90DF91D1
S1133B60CF910895CF93DF931F92CDB7DEB78983AA
S1133B70698184E00E94671D00000F90DF91CF915E
S1133B800895CF93DF9300D0CDB7DEB789839A83AE
S1133B9000000F900F90DF91CF910895CF93DF93A2
S1133BA000D0CDB7DEB789839A8300000F900F90C1
S1133BB0DF91CF9108951F920F920FB60F921124A7
S1133BC00BB60F922F933F934F935F936F937F9313
S1133BD08F939F93AF93BF93EF93FF93CF93DF9311
S1133BE01F92CDB7DEB780E39BE0FC018681898319
S1133BF08981882F90E081709927892B09F440C12D
S1133C008091194090911A40A0911B40B0911C40A2
S1133C1021E0892B8A2B8B2B09F420E0222349F104
S1133C208091194090911A40A0911B40B0911C4082
S1133C300197A109B1098093194090931A40A09368
S1133C401B40B0931C408091194090911A40A09160
S1133C501B40B0911C4021E0892B8A2B8B2B09F04F
S1133C6020E0222331F080E00E94A31D80E00E9426
S1133C70B21D8091194090911A40A0911B40B091BF
S1133C801C4021E0892B8A2B8B2B09F420E0222372
S1133C9009F4F6C08091B2419091B341892B41F06F
S1133CA09091A24181E08927882311F081E001C02D
S1133CB080E0882309F469C08091B2419091B341B6
S1133CC021E002970CF420E0222369F081E00E94B5
S1133CD0A31D8091B2419091B34101978093B24169
S1133CE09093B34117C08091B2419091B34121E0C8
S1133CF08F3F9F4F0CF020E0222361F080E00E9470
S1133D00A31D8091B2419091B34101968093B24139
S1133D109093B3418091B2419091B34121E00197D6
S1133D2009F020E02223F9F08091AC419091AD415B
S1133D3021E0892B09F420E0222361F08091AC4139
S1133D409091AD419195819591098093B241909361
S1133D50B3411BC08091AA419091AB418093B24181
S1133D609093B34112C08091B2419091B34121E04C
S1133D70019609F020E0222341F08091AA4190911C
S1133D80AB418093B2419093B3418091B4419091FF
S1133D90B541892B41F09091A34181E08927882383
S1133DA011F081E001C080E0882309F469C08091AA
S1133DB0B4419091B54121E002970CF420E0222314
S1133DC069F081E00E94B21D8091B4419091B541A7
S1133DD001978093B4419093B54117C08091B44149
S1133DE09091B54121E08F3F9F4F0CF020E02223BA
S1133DF061F080E00E94B21D8091B4419091B54180
S1133E0001968093B4419093B5418091B4419091CF
S1133E10B54121E0019709F020E02223F9F08091D7
S1133E20B0419091B14121E0892B09F420E0222393
S1133E3061F08091B0419091B14191958195910942
S1133E408093B4419093B5411BC08091AE41909151
S1133E50AF418093B4419093B54112C08091B44175
S1133E609091B54121E0019609F020E0222341F030
S1133E708091AE419091AF418093B4419093B5410C
S1133E8080E39BE023E0FC01268300000F90DF9198
S1133E90CF91FF91EF91BF91AF919F918F917F91BE
S1133EA06F915F914F913F912F910F900BBE0F90A7
S1133EB00FBE0F901F901895CF93DF9300D0CDB70E
S1133EC0DEB789839A838091194090911A40A0911A
S1133ED01B40B0911C40892B8A2B8B2B61F080E313
S1133EE09BE0FC018581882F90E081709927892BC4
S1133EF011F081E001C080E00F900F90DF91CF912D
S1133F000895CF93DF9300D0CDB7DEB789839A832A
S1133F1080E39BE0FC01258180E39BE02E7FFC0194
S1133F20258380E00E94A31D80E00E94B21D8FE6DD
S1133F3091E40E943B1481E08093A34181E080934B
S1133F40A2411092194010921A4010921B401092F4
S1133F501C4000000F900F90DF91CF910895CF93F4
S1133F60DF9300D0CDB7DEB789839A8389819A81A4
S1133F7060E070E00E941C208FE691E40E943B14F4
S1133F801092A3411092A24180E69AEEA0E0B0E024
S1133F908093194090931A40A0931B40B0931C4007
S1133FA000000F900F90DF91CF910895CF93DF938E
S1133FB000D0CDB7DEB789839A8389819A8160E086
S1133FC070E00E94E91F00000F900F90DF91CF91E5
S1133FD00895CF93DF9300D000D0CDB7DEB78983A7
S1133FE09A836B837C8380E39BE0FC01258180E3DF
S1133FF09BE02E7FFC01258389819A810E94AF1F5B
S113400080E39BE0FC01258180E39BE02160FC01CF
S113401025838B819C81892B41F02B813C81898173
S11340209A8141E0B9010E94352000002496CDBF59
S1134030DEBFDF91CF910895CF93DF9300D000D0FE
S1134040CDB7DEB789839A836B837C832B813C81D4
S113405089819A8140E0B9010E94352000002496AC
S1134060CDBFDEBFDF91CF910895CF93DF93CDB75E
S1134070DEB72597CDBFDEBF89839A836B837C83AC
S11340804D838D81882361F080E69AEEA0E0B0E054
S11340908093194090931A40A0931B40B0931C4006
S11340A08091194090911A40A0911B40B0911C40FE
S11340B0892B8A2B8B2B31F48B819C81892B11F0DA
S11340C081E001C080E0882309F046C28B819C8195
S11340D0019761F08B819C81039741F08B819C81D6
S11340E0049721F08B819C81079711F481E001C032
S11340F080E08093B8418B819C81029761F08B8131
S11341009C81059741F08B819C81069721F08B81DE
S11341109C81089711F481E001C080E08093B9414B
S11341209091B84181E08927882341F09091B94169
S113413081E08927882311F081E001C080E0809329
S1134140BA418091B841882349F08091A44190916B
S1134150A5412B813C8128173907D1F48091B941BD
S1134160882349F08091A6419091A7412B813C81FD
S11341702817390769F48091BA41882359F080914E
S1134180A8419091A9412B813C812817390711F04E
S113419081E001C080E0882309F4C1C180E39BE091
S11341A0FC01258180E39BE02E7FFC0125838B812C
S11341B09C81CC01A0E0B0E08D309105A105B10552
S11341C008F0A3C189519F4DFC010C949432F42052
S11341D0072111211B214F213521692155226D22EF
S11341E02222EF21B92183211092B2411092B341CE
S11341F01092B4411092B54180E00E94A31D80E06A
S11342000E94B21D1092B6411092B7417FC180E066
S11342100E94A31D1092B2411092B3411092B64174
S113422075C180E00E94B21D1092B4411092B54154
S11342301092B7416BC18FE090E08093AA419093B4
S1134240AB4182E390E08093AC419093AD41809187
S1134250AA419091AB418093B2419093B34181E0E4
S11342608093B6411092A24151C18FE090E08093B7
S1134270AE419093AF4182E390E08093B04190933C
S1134280B1418091AE419091AF418093B4419093FC
S1134290B54181E08093B7411092A34137C189E1D0
S11342A090E08093AA419093AB4184EF91E0809396
S11342B0AC419093AD418091AA419091AB418093E0
S11342C0B2419093B34181E08093B6411092A241F0
S11342D01DC189E190E08093AE419093AF4184EF9A
S11342E091E08093B0419093B1418091AE4190911F
S11342F0AF418093B4419093B54181E08093B7413D
S11343001092A34103C189E190E08093AE41909360
S1134310AF4184EF91E08093B0419093B14180919B
S1134320AE419091AF419195819591098093B441AB
S11343309093B54189E190E08093AA419093AB4179
S113434084EF91E08093AC419093AD418091AA4178
S11343509091AB418093B2419093B34181E08093BB
S1134360B64181E08093B7411092A3411092A241DB
S1134370CDC089E190E08093AE419093AF4189E153
S113438090E08093B0419093B1418091AE4190917F
S1134390AF419195819591098093B4419093B54132
S11343A089E190E08093AA419093AB4189E190E048
S11343B08093AC419093AD418091AA419091AB41DF
S11343C08093B2419093B34181E08093B64181E000
S11343D08093B7411092A3411092A24197C089E102
S11343E090E08093AE419093AF4184EF91E080934D
S11343F0B0419093B1418091AE419091AF4180938F
S1134400B4419093B54189E190E08093AA4190939F
S1134410AB4184EF91E08093AC419093AD418091A6
S1134420AA419091AB418093B2419093B34181E012
S11344308093B64181E08093B7411092A3411092DA
S1134440A24164C089E190E08093AE419093AF4172
S113445089E190E08093B0419093B1418091AE4165
S11344609091AF418093B4419093B54189E190E03C
S11344708093AA419093AB4189E190E08093AC4151
S11344809093AD418091AA419091AB418093B24108
S11344909093B34181E08093B64181E08093B7412A
S11344A01092A3411092A24131C089E190E080931F
S11344B0AA419093AB411092AC411092AD418091CE
S11344C0AA419091AB418093B2419093B34181E072
S11344D08093B6411092A24119C089E190E0809383
S11344E0AE419093AF411092B0411092B14180918E
S11344F0AE419091AF418093B4419093B54181E036
S11345008093B7411092A34101C0000080E39BE077
S1134510FC01258180E39BE02160FC0125838091DF
S1134520B841882339F08B819C818093A441909376
S1134530A54113C08091B941882339F08B819C81B6
S11345408093A6419093A74108C08B819C8180935E
S1134550A8419093A94101C000002596CDBFDEBFBC
S1134560DF91CF9108951BBEFC0164BF4083089581
S1134570CF93DF9300D01F92CDB7DEB789839A83A0
S11345806B8389819A814B8168ED0E94B32200007C
S11345902396CDBFDEBFDF91CF910895CF93DF93F4
S11345A0CDB7DEB72897CDBFDEBF8F8398878F81C5
S11345B0988580931D4090931E4060E070E0CB018D
S11345C00E94912E80E491E0FC018181882351F0C6
S11345D064EF71E080E090E00E94912E882311F056
S11345E081E001C080E0882309F0ECCF80E491E011
S11345F0FC011486158680E491E0FC011086118686
S113460020E431E08F81988589839A8385EF9FE741
S11346108B839C8389E090E88D839E8349815A81B2
S11346208D819E818417950768F049815A818B8119
S11346309C814817590718F48B819C8105C0898196
S11346409A8102C08D819E81F9018287938780E4DB
S113465091E022E0FC01278380E491E021E0FC0169
S1134660228380E491E021E8FC01208380E491E04E
S113467021E0FC01258360E070E0CB010E94912ED3
S113468080E491E0FC018089882351F064EF71E0BB
S113469080E090E00E94912E882311F081E001C017
S11346A080E0882309F0ECCF80E491E0FC01128AD9
S11346B000002896CDBFDEBFDF91CF910895CF9340
S11346C0DF93CDB7DEB78FEF9FE70E946B23000027
S11346D0DF91CF910895CF93DF93CDB7DEB72897BD
S11346E0CDBFDEBF8F8398878F81988580931D40CF
S11346F090931E4081E08093BB4160E888E790E09E
S11347000E94B82260E070E0CB010E94912E80E408
S113471091E0FC018181882351F064EF71E080E035
S113472090E00E94912E882311F081E001C080E086
S1134730882309F0ECCF80E491E0FC01148615860F
S113474080E491E0FC011086118620E431E08F8141
S1134750988589839A8385EF9FE78B839C8389E07F
S113476090E88D839E8349815A818D819E8184172F
S1134770950768F049815A818B819C8148175907B4
S113478018F48B819C8105C089819A8102C08D8136
S11347909E81F9018287938780E491E0FC0117826E
S11347A080E491E021E0FC01228380E491E021E8AF
S11347B0FC01208380E491E021E0FC01258360E09A
S11347C070E0CB010E94912E80E491E0FC0180898D
S11347D0882351F064EF71E080E090E00E94912E14
S11347E0882311F081E001C080E0882309F0ECCF38
S11347F080E491E0FC01128A00002896CDBFDEBF60
S1134800DF91CF910895CF93DF9300D0CDB7DEB77A
S113481089839A838091BB41882329F089819A8175
S11348200E946B2304C089819A810E94CE228981CF
S11348309A8180931D4090931E404DE150E465E0C1
S113484071E089E791E40E949D1A00000F900F9097
S1134850DF91CF910895CF93DF93CDB7DEB7E8977B
S1134860CDBFDEBF6DAB7EAB8FAB98AF19821A8222
S11348701B821C8281E090E08D839E839091CD41C8
S113488081E08927882319F080E090E056C38FEFF8
S11348908BABCE01C39641E0BC0183E00E94E12BC7
S11348A08DA99EA9AFA9B8AD8093C1419093C2418F
S11348B0A093C341B093C4418DA99EA9AFA9B8AD3B
S11348C08093C5419093C641A093C741B093C8411A
S11348D08CE88BABCE01C39641E0BC0180E10E9421
S11348E0E12BCE01C39641E0BC0181E10E94E12BA2
S11348F0CE01C39641E0BC0182E10E94E12BCE01CE
S1134900C39641E0BC0183E10E94E12BCE01C39632
S113491041E0BC0184E10E94E12BCE01C39641E059
S1134920BC0185E10E94E12BCE01C39641E0BC01AC
S113493086E10E94E12BCE01C39641E0BC0187E1F0
S11349400E94E12B2DA93EA94FA958AD8EE790E016
S1134950DC010E94AC32DC01CB0189839A83AB83F6
S1134960BC838D819E81BC0180E090E00E94452C37
S1134970882319F08BEF90E0E0C28D819E81BC0109
S113498081E090E00E94452C882319F08BEF90E0A1
S1134990D4C28EE790E0A0E0B0E08F839887A98727
S11349A0BA8719A21AA21BA21CA21DA21EA21FA290
S11349B018A689A19AA1ABA1BCA1880F991FAA1F0F
S11349C0BB1F880F991FAA1FBB1F880F991FAA1FFF
S11349D0BB1F880F991FAA1FBB1F880F991FAA1FEF
S11349E0BB1F880F991FAA1FBB1F880F991FAA1FDF
S11349F0BB1F8B879C87AD87BE871F86188A198A41
S1134A001A8A8F819885A985BA85880F991FAA1F4C
S1134A10BB1F880F991FAA1FBB1F880F991FAA1FAE
S1134A20BB1F880F991FAA1FBB1F880F991FAA1F9E
S1134A30BB1F880F991FAA1FBB1F880F991FAA1F8E
S1134A40BB1F9C01AD018F859889A989BA89820F02
S1134A50931FA41FB51F9250A109B1098D8B9E8B82
S1134A60AF8BB88F2DA13EA14FA158A58F859889F2
S1134A70A989BA89BC01CD010E944E329B01AC01C7
S1134A808B859C85AD85BE85821B930BA40BB50BD2
S1134A90898F9A8FAB8FBC8F8DA19EA1AFA1B8A532
S1134AA08D8F9E8FAF8FB8A31B8A8B8991E0980F4F
S1134AB09B8B882F90E04E8D9E01275D3F4F820F88
S1134AC0931FFC0140838B8991E0980F9B8B882F67
S1134AD090E04D8D9E01275D3F4F820F931FFC0197
S1134AE040832F898B8991E0980F9B8B882F90E0CE
S1134AF0422F43709E01275D3F4F820F931FFC019D
S1134B0040838B8991E0980F9B8B882F90E04E898E
S1134B109E01275D3F4F820F931FFC0140838B89C9
S1134B2091E0980F9B8B882F90E04D899E01275D23
S1134B303F4F820F931FFC0140832F8D8B89882F59
S1134B4090E0422F4295407F9E01275D3F4F820FA8
S1134B50931FFC0140834B8981E0840F8B8B842F4E
S1134B6090E09E01275D3F4F820F931FFC0130812F
S1134B708B8D282F2F70842F90E0432F420F9E019E
S1134B80275D3F4F820F931FFC0140838B8991E087
S1134B90980F9B8B882F90E04A8D9E01275D3F4F95
S1134BA0820F931FFC0140838B8991E0980F9B8BAC
S1134BB0882F90E0498D9E01275D3F4F820F931F00
S1134BC0FC014083CE0189964B89BC018AE20E9494
S1134BD0E12B882319F08BEF90E0AFC1CE018996C9
S1134BE04B89BC0182E30E94E12B882319F08BEFEF
S1134BF090E0A3C120911F4030912040409121407A
S1134C005091224089819A81AB81BC81BC01CD0144
S1134C100E947232DA01C9018F839887A987BA8703
S1134C2020911F40309120404091214050912240DA
S1134C3089819A81AB81BC81BC01CD010E94723211
S1134C40DC01CB0189A39AA3ABA3BCA380911F4031
S1134C5090912040A0912140B09122408DA39EA329
S1134C60AFA3B8A79E012B5D3F4FCE018196B9013A
S1134C700E942E2B89A19AA1ABA1BCA1880F991FD8
S1134C80AA1FBB1F880F991FAA1FBB1F880F991F3C
S1134C90AA1FBB1F880F991FAA1FBB1F880F991F2C
S1134CA0AA1FBB1F880F991FAA1FBB1F880F991F1C
S1134CB0AA1FBB1F8B879C87AD87BE872DA13EA1F2
S1134CC04FA158A58B859C85AD85BE85BC01CD01C2
S1134CD00E947232DA01C9018F87988BA98BBA8B33
S1134CE08F819885A985BA85880F991FAA1FBB1F34
S1134CF0880F991FAA1FBB1F880F991FAA1FBB1FCC
S1134D00880F991FAA1FBB1F880F991FAA1FBB1FBB
S1134D10880F991FAA1FBB1F880F991FAA1FBB1FAB
S1134D209C01AD018F859889A989BA89820F931F47
S1134D30A41FB51F9250A109B1098D8B9E8BAF8B17
S1134D40B88F2DA13EA14FA158A58F859889A98917
S1134D50BA89BC01CD010E944E329B01AC018B8506
S1134D609C85AD85BE85821B930BA40BB50B898FE7
S1134D709A8FAB8FBC8F8DA19EA1AFA1B8A58D8F4B
S1134D809E8FAF8FB8A31B8A8B8991E0980F9B8B62
S1134D90882F90E04E8D9E01275D3F4F820F931F19
S1134DA0FC0140838B8991E0980F9B8B882F90E0C6
S1134DB04D8D9E01275D3F4F820F931FFC01408361
S1134DC02F898B8991E0980F9B8B882F90E0422F3D
S1134DD043709E01275D3F4F820F931FFC01408368
S1134DE08B8991E0980F9B8B882F90E04E899E01D0
S1134DF0275D3F4F820F931FFC0140838B8991E015
S1134E00980F9B8B882F90E04D899E01275D3F4F23
S1134E10820F931FFC0140832F8D8B89882F90E094
S1134E20422F4295407F9E01275D3F4F820F931F83
S1134E30FC0140834B8981E0840F8B8B842F90E0AD
S1134E409E01275D3F4F820F931FFC0130818B8DA4
S1134E50282F2F70842F90E0432F420F9E01275D4F
S1134E603F4F820F931FFC0140838B8991E0980F81
S1134E709B8B882F90E04A8D9E01275D3F4F820FC8
S1134E80931FFC0140838B8991E0980F9B8B882FA3
S1134E9090E0498D9E01275D3F4F820F931FFC01D7
S1134EA04083CE0189964B89BC018AE10E94E12BA3
S1134EB0882319F08BEF90E040C060E080E090E040
S1134EC00E94862C60E081E090E00E94862C8EE7B0
S1134ED00E94BC2C83E08C8B8C8980958BABCE019B
S1134EE0C39641E0BC0183E00E94E12B882319F0C2
S1134EF08BEF90E022C08CE08BABCE01C39641E0F7
S1134F00BC0180E10E94E12B882319F08BEF90E033
S1134F1014C08CE08BABCE01C39641E0BC0181E1AF
S1134F200E94E12B882319F08BEF90E006C081E00A
S1134F3090E00E943F2A80E090E0E896CDBFDEBF7B
S1134F40DF91CF910895CF93DF93CDB7DEB7E79785
S1134F50CDBFDEBF6CAB7DAB8EAB9FAB19821A822B
S1134F601B821C821D829091CD4181E08927882378
S1134F7019F080E090E093C18CA99DA9AEA9BFA9C6
S1134F808E839F83A887B9878CA99DA9AEA9BFA941
S1134F908093C1419093C241A093C341B093C44153
S1134FA08CA99DA9AEA9BFA98093C5419093C64180
S1134FB0A093C741B093C8412E813F81488559854C
S1134FC08EE790E0DC010E94AC32DC01CB018A83E5
S1134FD09B83AC83BD8320911F403091204040913E
S1134FE02140509122408A819B81AC81BD81BC01CA
S1134FF0CD010E947232DA01C9018A879B87AC878E
S1135000BD8720911F403091204040912140509114
S113501022408A819B81AC81BD81BC01CD010E946B
S11350207232DC01CB018E8B9F8BA88FB98F80915C
S11350301F4090912040A0912140B09122408A8F3E
S11350409B8FAC8FBD8F9E01265E3F4FCE0146964F
S1135050B9010E942E2B8E899F89A88DB98D880F46
S1135060991FAA1FBB1F880F991FAA1FBB1F880F58
S1135070991FAA1FBB1F880F991FAA1FBB1F880F48
S1135080991FAA1FBB1F880F991FAA1FBB1F880F38
S1135090991FAA1FBB1F8E879F87A88BB98B2A8D48
S11350A03B8D4C8D5D8D8E859F85A889B989BC010A
S11350B0CD010E947232DA01C9018A8B9B8BAC8BC1
S11350C0BD8B8A859B85AC85BD85880F991FAA1FDA
S11350D0BB1F880F991FAA1FBB1F880F991FAA1FE8
S11350E0BB1F880F991FAA1FBB1F880F991FAA1FD8
S11350F0BB1F880F991FAA1FBB1F880F991FAA1FC8
S1135100BB1F9C01AD018A899B89AC89BD89820F33
S1135110931FA41FB51F9250A109B10988A799A78D
S1135120AAA7BBA72A8D3B8D4C8D5D8D8A899B894F
S1135130AC89BD89BC01CD010E944E329B01AC01FA
S11351408E859F85A889B989821B930BA40BB50B07
S11351508CA79DA7AEA7BFA78A8D9B8DAC8DBD8D57
S113516088AB99ABAAABBBAB898191E0980F9983CB
S1135170882F90E049A99E01225E3F4F820F931F22
S1135180FC014083898191E0980F9983882F90E0F6
S113519048A99E01225E3F4F820F931FFC0140836A
S11351A02AA5898191E0980F9983882F90E0422F56
S11351B043709E01225E3F4F820F931FFC01408388
S11351C0898191E0980F9983882F90E049A59E01E9
S11351D0225E3F4F820F931FFC014083898191E03F
S11351E0980F9983882F90E048A59E01225E3F4F37
S11351F0820F931FFC0140832AA98981882F90E0A4
S1135200422F4295407F9E01225E3F4F820F931FA3
S1135210FC014083498181E0840F8983842F90E0DD
S11352209E01225E3F4F820F931FFC0130818EA5A9
S1135230282F2F70842F90E0432F420F9E01225E6F
S11352403F4F820F931FFC014083898191E0980FA7
S11352509983882F90E04DA59E01225E3F4F820FD7
S1135260931FFC014083898191E0980F9983882FD3
S113527090E04CA59E01225E3F4F820F931FFC01DC
S11352804083CE014E964981BC018AE10E94E12B04
S1135290882319F08BEF90E002C080E090E0E7965D
S11352A0CDBFDEBFDF91CF910895CF93DF93CDB70C
S11352B0DEB72997CDBFDEBF8C839D834E835F838A
S11352C0688779870E94A41B1092BC411092BD414B
S11352D01092BE411092BF4180E498E7ADE7B1E07F
S11352E080931F4090932040A0932140B09322408C
S11352F01092C0418FEF8A83CE01029641E0BC0137
S113530083E00E94E12B8093CE418091CE4188239B
S113531019F08091CE4192C08CEC8A83CE01029622
S113532041E0BC0180E10E94E12B982F8091CE41A5
S1135330892B8093CE41CE01029641E0BC0181E1EC
S11353400E94E12B982F8091CE41892B8093CE41EE
S1135350CE01029641E0BC0182E10E94E12B982F2C
S11353608091CE41892B8093CE4182E189839C81B7
S11353708981892B898389818A83CE01029641E0C0
S1135380BC0187EB0E94E12B982F8091CE41892BA1
S11353908093CE418E819F81A885B985892B8A2BE4
S11353A08B2B41F480E498E7ADE7B1E08E839F83D3
S11353B0A887B98780911F4090912040A0912140F7
S11353C0B09122402E813F8148855985281739079D
S11353D04A075B0759F1CE01029641E0BC018FE018
S11353E00E94132C882311F081E028C08A818983CC
S11353F089818F7389838E819F81A885B9858093E4
S11354001F4090932040A0932140B0932240898173
S11354108A83CE01029641E0BC018FE00E94E12B19
S1135420982F8091CE41892B8093CE419091CE418B
S113543081E089278093CD418091CE412996CDBFCB
S1135440DEBFDF91CF910895CF93DF9300D0CDB726
S1135450DEB789839A8389819A81880F991F880F7F
S1135460991F8F539E4BFC0180819181A281B3814E
S1135470BC01CD010F900F90DF91CF910895CF9390
S1135480DF93CDB7DEB72597CDBFDEBF8C839D8379
S1135490CE01029641E0BC0181EB0E94132C8823CB
S11354A019F08CEF90E024C08A8189838C819D81DE
S11354B081709927892B19F08981806289838C8175
S11354C09D8182709927892B19F08981806889834D
S11354D089818A83CE01029641E0BC0181EB0E945E
S11354E0E12B882319F08CEF90E002C080E090E07B
S11354F02596CDBFDEBFDF91CF910895CF93DF9383
S1135500CDB7DEB72697CDBFDEBF8C839D836E8378
S1135510CE01029641E0BC0183E00E94132C882353
S113552019F08CEF90E033C08A8189838E818823BF
S113553081F08C81282F30E081E090E002C0880F58
S1135540991F2A95E2F7982F909589818923898359
S11355500EC08C81282F30E081E090E002C0880FDB
S1135560991F2A95E2F7982F8981892B898389814C
S11355708A83CE01029641E0BC0183E00E94E12BC4
S1135580882319F08CEF90E002C080E090E026962A
S1135590CDBFDEBFDF91CF910895CF93DF93CDB719
S11355A0DEB72897CDBFDEBF8D839E836F83788758
S11355B083E08C838D8120E1280FCE01029641E0A7
S11355C0BC01822F0E94132C882319F08BEF90E0EA
S11355D03FC08A8189838F8198858130910581F0CC
S11355E0823091051CF4892B39F01FC0823091055B
S11355F071F0039799F019C089818C7F898315C054
S113560089818C7F89838981816089830EC08981A6
S11356108C7F898389818260898307C089818C7F9B
S11356208983898183608983000089818A838D814C
S113563020E1280FCE01029641E0BC01822F0E9496
S1135640E12B882319F08BEF90E002C080E090E01A
S11356502896CDBFDEBFDF91CF910895CF93DF931E
S1135660CDB7DEB76097CDBFDEBF8D879E876F87CE
S1135670788B8D859E85FC0180819181A281B38187
S113568089879A87AB87BC878F859889FC0180813D
S11356909181A281B3818D839E83AF83B8878985ED
S11356A09A85AB85BC85892B8A2B8B2B09F480C00A
S11356B08D819E81AF81B885892B8A2B8B2B09F430
S11356C077C089859A85AB85BC852D813E814F81C4
S11356D05885BC01CD010E947232DC01CB01898363
S11356E09A83AB83BC8389819A81AB81BC81892BEA
S11356F08A2B8B2B19F18D819E81AF81B885898787
S11357009A87AB87BC8789819A81AB81BC818D8361
S11357109E83AF83B88789859A85AB85BC852D81A7
S11357203E814F815885BC01CD010E947232DC015B
S1135730CB0189839A83AB83BC83D5CF8D819E8132
S1135740AF81B8850297A105B105A0F18D859E852D
S1135750FC0180819181A281B3812D813E814F81A1
S11357605885BC01CD010E947232DA01C9012D8530
S11357703E85F90180839183A283B3838F859889C1
S1135780FC0180819181A281B3812D813E814F8171
S11357905885BC01CD010E947232DA01C9012F85FE
S11357A03889F90180839183A283B383000002C006
S11357B0000001C000006096CDBFDEBFDF91CF9135
S11357C00895CF93DF93CDB7DEB72697CDBFDEBF65
S11357D08B836C837D834E8385E0898389819FEFEE
S11357E0980F99838823A1F08C819D812E81AC012F
S11357F06B8180EC0E94741C282F81E09E8192179B
S113580009F480E08A838A81882311F081E001C051
S113581080E0882309F0E2CF8A812696CDBFDEBFDF
S1135820DF91CF910895CF93DF93CDB7DEB726975D
S1135830CDBFDEBF8B836C837D834E8385E08983FC
S113584089819FEF980F99838823A1F08C819D8192
S11358502E81AC016B8180EC0E94DC1C282F81E03E
S11358609E81921709F480E08A838A81882311F04B
S113587081E001C080E0882309F0E2CF8A81269686
S1135880CDBFDEBFDF91CF910895CF93DF93CDB726
S1135890DEB72797CDBFDEBF8C839D836E837F8366
S11358A08C8120E1280FCE01029641E0BC01822FB9
S11358B00E94132C882311F081E022C08A818983FD
S11358C08E819F81019721F489818F7D898307C00F
S11358D08E819F81029719F48981806289838981ED
S11358E08A838C8120E1280FCE01029641E0BC011D
S11358F0822F0E94E12B882311F081E001C080E017
S11359002796CDBFDEBFDF91CF910895CF93DF936C
S1135910CDB7DEB72697CDBFDEBF8C839D836E8364
S11359208C8120E1280FCE01029641E0BC01822F38
S11359300E94132C882311F081E018C08A81898386
S11359408E81882321F089818064898303C08981C1
S11359508F7B898389818A838C8120E1280FCE0102
S1135960029641E0BC01822F0E94E12B2696CDBF16
S1135970DEBFDF91CF910895CF93DF93CDB7DEB72C
S11359802697CDBFDEBF8E8319821A828FE78B8361
S11359908E81882334F48FEC90E089839A838FE797
S11359A08E838E818F778C83CE01049641E0BC0177
S11359B086EA0E94E12B882319F08BEF90E002C065
S11359C089819A812696CDBFDEBFDF91CF9108955C
S11359D0CF93DF9300D01F92CDB7DEB71982CE01EB
S11359E0029641E0BC0189810E94132C882311F0A6
S11359F080E001C08A812396CDBFDEBFDF91CF91C5
S1135A000895CF93DF93CDB7DEB780E590E0FC0136
S1135A10108280E0DF91CF910895CF93DF9300D07F
S1135A20CDB7DEB789839A8380E590E0FC0180815D
S1135A30982F997F89818670292F282B80E590E003
S1135A40FC01208300000F900F90DF91CF91089507
S1135A50CF93DF9300D01F92CDB7DEB789836A83DB
S1135A607B838A819B8181309105E9F082309105A5
S1135A7081F1892B09F03DC080E190E0FC01808137
S1135A80482F8981282F30E081E090E002C0880F00
S1135A90991F2A95E2F78095242F282380E190E02E
S1135AA0FC01208326C080E190E0FC018081482F26
S1135AB08981282F30E081E090E002C0880F991F8F
S1135AC02A95E2F7242F282B80E190E0FC01208323
S1135AD010C08981882F90E080579B4FFC01208162
S1135AE08981882F90E080579B4F2860FC01208398
S1135AF0000000002396CDBFDEBFDF91CF91089553
S1135B00CF93DF93CDB7DEB761E070E083E00E940E
S1135B10282D61E070E080E00E94282D61E070E0B3
S1135B2081E00E94282D61E070E082E00E94282D2F
S1135B3080E09AE0FC01238180E09AE02160FC018E
S1135B40238380E09AE02FEFFC0127A380EE95E009
S1135B5024E0FC01268380E09AE0FC01218180E0BE
S1135B609AE02061FC01218380E09AE0FC0187A196
S1135B70882F90E09C013595279580E09AE0FC0100
S1135B8021A780E09AE0FC01218180E09AE0236073
S1135B90FC01218380E09AE0FC01208180E09AE00E
S1135BA02760FC0120830000DF91CF910895CF93FB
S1135BB0DF93CDB7DEB72997CDBFDEBF898789854F
S1135BC089831A821B8284E690E08C839D83898179
S1135BD0882F90E02C813D812817390754F0898162
S1135BE0282F30E08A819B818217930724F4C9010E
S1135BF002C08C819D81888780E09AE0FC0187A1A6
S1135C00282F30E040E050E08885882F90E0A0E025
S1135C10B0E0BC01CD010E944E32DC01CB0124E690
S1135C2030E040E050E0BC01CD010E947232DA0164
S1135C30C9018E839F8380E09AE02E81FC0121A715
S1135C4088852996CDBFDEBFDF91CF910895CF938C
S1135C50DF93CDB7DEB780E09BE021E0FC01258334
S1135C6080E09BE020E43CE9FC012487358780E068
S1135C709BE023E0FC01208380E09BE023E0FC0127
S1135C80268380E19BE021E0FC01258380E19BE009
S1135C9020EC3DE5FC012487358780E19BE021E091
S1135CA0FC01208380E19BE021E0FC01268380E16C
S1135CB091E02EE1FC01238380E29BE021E0FC01E2
S1135CC0258380E29BE02FEF3FEFFC01248735879B
S1135CD080E29BE023E0FC01208380E29BE021E062
S1135CE0FC01268380E191E02EE1FC01238380E323
