S01500005369676E616C536E61676765722E73726563EA
S11300000C94B4000C94DE000C94DE000C9461019A
S11300100C94DE000C94DE000C94C0070C94DE00FB
S11300200C94DE000C94DE000C94DE000C94DE00D4
S11300300C94E4020C94624B0C94DE000C94DE00ED
S11300400C94DE000C94DE000C94DE000C94DE00B4
S11300500C94DE000C94DE000C94DE000C94DE00A4
S11300600C9416020C94DE000C94DE000C94DE005A
S11300700C94DE000C94DE000C940A4B0C94DE000D
S11300800C94DE000C94DE000C94EB070C94DE0060
S11300900C94DE000C94DE000C94DE000C94DE0064
S11300A00C94DE000C94E6390C94DE000C94DE0013
S11300B00C94DE000C94DE000C94DE000C94DE0044
S11300C00C94DE000C94DE000C94DE000C94DE0034
S11300D00C94DE000C94DE000C94DE000C94DE0024
S11300E00C94DE000C94DE0005A84CCDB2D44EB9BD
S11300F03836A9020C50B9918688083CA6AAAA2AC7
S1130100BE000000803F08000000BE922449123E59
S1130110ABAAAA2ABECDCCCC4C3E00000080BEAB1C
S1130120AAAAAA3E00000000BF000000803F000011
S1130130000000084178D3BB4387D1133D190E3C1E
S1130140C3BD4282AD2B3E68EC8276BED98FE1A955
S11301503E4C80EFFFBE01C4FF7F3F000000000063
S11301602615A0163315AD1611241FBECFEFCDBF33
S1130170DFE7DEBF11E4A0E0B0E4E6E3FAEA00E082
S11301800BBF02C007900D92A839B107D9F723E439
S1130190A8E9B1E401C01D92AA3BB207E1F710E05F
S11301A0C2EBD0E004C02197FE010E94A750C03BDF
S11301B0D107C9F70E942D090C940E550C94000028
S11301C00FB6F8946093B6437093B7438093B843E3
S11301D09093B9430FBE0895FC010FB6F894609153
S11301E0B6437091B7438091B8439091B9430FBE21
S11301F0309721F0608371838283938308958F9372
S11302008FB78F93F8948091B6438F5F8093B643F2
S11302108091B7438F4F8093B7438091B8438F4FFA
S11302208093B8438091B9438F4F8093B9438F91A2
S11302308FBF8F910895CF93DF93CDB7DEB70E9420
S1130240D4220000DF91CF910895CF93DF9300D0A3
S1130250CDB7DEB789836A838A818823B1F080E0D1
S113026090E0FC018181482F8981282F30E081E0D2
S113027090E002C0880F991F2A95E2F7242F282BBB
S113028080E090E0FC01218316C080E090E0FC0156
S11302908181482F8981282F30E081E090E002C0DD
S11302A0880F991F2A95E2F78095242F282380E050
S11302B090E0FC01218300000F900F90DF91CF911B
S11302C008951F920F920FB60F9211240BB60F923E
S11302D02F933F934F935F936F937F938F939F934A
S11302E0AF93BF93EF93FF93CF93DF931F92CDB759
S11302F0DEB780E491E0FC01838189838981882FC2
S113030090E081709927892B09F474C00E94FF0042
S1130310809106409091074021E0892B09F420E068
S1130320222349F0809106409091074001978093E1
S11303300640909307408091094090910A40A09113
S11303400B40B0910C4021E0892B8A2B8B2B09F4B4
S113035020E0222399F08091094090910A40A091D5
S11303600B40B0910C400197A109B1098093094059
S113037090930A40A0930B40B0930C4081E080938B
S11303800A4280910B4290910C42A0910D42B0918F
S11303900E420196A11DB11D80930B4290930C4215
S11303A0A0930D42B0930E4280910B4290910C4267
S11303B0A0910D42B0910E4221E00297A105B10532
S11303C009F020E0222319F081E080930342809118
S11303D00B4290910C42A0910D42B0910E4221E04B
S11303E00597A105B10509F020E0222319F081E069
S11303F080930F4280E491E023E0FC01238300001A
S11304000F90DF91CF91FF91EF91BF91AF919F91A9
S11304108F917F916F915F914F913F912F910F90A9
S11304200BBE0F900FBE0F901F9018951F920F9246
S11304300FB60F9211240BB60F922F933F934F9345
S11304405F936F937F938F939F93AF93BF93EF9338
S1130450FF93CF93DF93CDB7DEB72597CDBFDEBF34
S113046080E096E0FC0185858B838B81882F90E06A
S113047081709927892B09F489C080E096E0FC01FA
S1130480808991898C839D8319821A82809113407B
S1130490882321F08C819D8189839A8380917B427A
S11304A090917C4221E0892B09F420E0222329F158
S11304B080917E4291E0980F90937E42882F90E045
S11304C0880F991F875B9D4BFC0180819181298155
S11304D03A81820F931F89839A8380917E42893166
S11304E011F410927E4280917B4290917C4201975C
S11304F080937B4290937C420FC090917D4281E037
S1130500992309F480E0882339F080917D42815059
S113051080937D4219821A828091114090911240F9
S113052021E0059708F420E0222389F0809111400E
S1130530909112409C012450310989819A8102C012
S1130540880F991F2A95E2F789839A8314C08091B2
S1130550114090911240049799231CF49195819530
S113056091099C0189819A8102C0969587952A9563
S1130570E2F789839A8389819A810E94361F8C814C
S11305809D81BC0182E992E40E94893680E096E074
S113059023E0FC01258700002596CDBFDEBFDF9157
S11305A0CF91FF91EF91BF91AF919F918F917F91E7
S11305B06F915F914F913F912F910F900BBE0F90D0
S11305C00FBE0F901F9018951F920F920FB60F92A7
S11305D011240BB60F922F933F934F935F936F9316
S11305E07F938F939F93AF93BF93EF93FF93CF9397
S11305F0DF93CDB7DEB72C97CDBFDEBF80E09BE0A5
S1130600FC0186818B838B81882F90E081709927F0
S1130610892B09F497C41C821D82809114408F5F3A
S113062080931440209114408BEA289F812D11243B
S1130630982F96959695892F880F890F880F922F5A
S1130640981B992309F0E7C387E18E830E949F1AC0
S1130650982F8E8189238C830E94531A0E949F1A9B
S1130660982F8E8189238D838D8182708F838D81D4
S1130670817088878D81847089878D8180718A8754
S113068081E09A85992309F080E0809300428823D1
S113069031F08CE390E080930640909307401092F1
S11306A009428F81882379F48885882361F060E08A
S11306B086E00E94250161E085E00E94250181E039
S11306C080938B4229C08885882379F48F8188237D
S11306D061F060E085E00E94250161E086E00E940F
S11306E0250181E080938C4217C060E085E00E9480
S11306F0250160E086E00E94250110928B42109251
S11307008C428F81882329F48885882311F481E021
S113071001C080E08093094281E09985992309F022
S113072080E0809308429C818D81981709F40BC165
S11307309D818C8189278B8787E090E080930F408F
S1130740909310408CE390E0809306409093074090
S113075084E893E0A0E0B0E08093094090930A40DD
S1130760A0930B40B0930C408B85082E000C990B82
S113077082709927892B79F08F81882339F081E061
S113078090E080931740909318400BC0109217404C
S11307901092184006C082E090E080931740909336
S11307A018408B85082E000C990B81709927892B92
S11307B079F08885882339F081E090E080931940AE
S11307C090931A400BC01092194010921A4006C020
S11307D082E090E08093194090931A4080910942FE
S11307E08823F1F080912C4290912D4201968093C0
S11307F02C4290932D42109216421092174210925E
S113080026421092274210921842109219421092D6
S1130810284210922942109215401092164064C04A
S113082080911C4290911D4221E0892B09F420E023
S1130830222389F088EE93E080937B4290937C425C
S113084010921C4210921D4281E090E0809315406A
S11308509093164049C081E08093204080911740D6
S113086090911840019771F488EE93E080937B4255
S113087090937C42109216421092174281E080932A
S11308801D400FC08091174090911840892B49F466
S1130890809126429091274201968093264290931C
S11308A027428091194090911A40019771F488EE83
S11308B093E080937B4290937C4210921842109272
S11308C0194281E080931E400FC08091194090919D
S11308D01A40892B49F4809128429091294201962B
S11308E080932842909329428B85082E000C990B03
S11308F084709927892B09F426C1809108428823A2
S113090071F080912A4290912B42019680932A4261
S113091090932B4210921B4010921C4014C188EEFD
S113092093E080937B4290937C4210921A421092FF
S11309301B4281E080931F4081E090E080931B4044
S113094090931C4000C180910942882309F441C05E
S11309509091304281E08927882331F080912040B2
S1130960882311F081E001C080E0882309F4ADC040
S113097080911C4290911D4221E0019609F420E0EF
S1130980222349F080911C4290911D42019680934C
S11309901C4290931D4280911C4290911D4221E083
S11309A08436910508F420E0222309F48EC081E006
S11309B08093304210921C4210921D4210922C429D
S11309C010922D421092204010921D4010921E4011
S11309D07CC080918B428823D1F190912E4281E09A
S11309E08927882331F080911D40882311F081E00C
S11309F001C080E0882359F18091164290911742FA
S1130A0021E0019609F420E0222349F08091164266
S1130A1090911742019680931642909317428091C9
S1130A2016429091174221E0883C910508F420E099
S1130A30222369F081E080932E4210921642109294
S1130A401742109226421092274210921D40809124
S1130A508C428823D1F190912F4281E08927882309
S1130A6031F080911E40882311F081E001C080E0C4
S1130A70882359F1809118429091194221E00196FE
S1130A8009F420E0222349F0809118429091194200
S1130A900196809318429093194280911842909144
S1130AA0194221E0883C910508F420E0222369F0F2
S1130AB081E080932F4210921842109219421092B2
S1130AC028421092294210921E40809108428823A5
S1130AD0D1F19091314281E08927882331F08091CE
S1130AE01F40882311F081E001C080E0882359F180
S1130AF080911A4290911B4221E0019609F420E072
S1130B00222349F080911A4290911B4201968093CE
S1130B101A4290931B4280911A4290911B4221E009
S1130B20883C910508F420E0222369F081E0809359
S1130B30314210921A4210921B4210922A42109291
S1130B402B4210921F4080917F4290918042892BCA
S1130B5071F180917F4290918042019780937F420E
S1130B609093804280917F4290918042892B09F03A
S1130B7044C080912C4290912D42892B41F0809168
S1130B802C4290912D42039710F481E001C080E043
S1130B90882341F080912C4290912D4280932442ED
S1130BA09093254210922C4210922D4226C080919F
S1130BB02C4290912D42019741F4809115409091DF
S1130BC01640019711F481E001C080E0882339F0D8
S1130BD082E390E080937F42909380420EC08091A4
S1130BE02C4290912D4221E0039708F420E0222327
S1130BF021F010922C4210922D42809181429091CA
S1130C008242892B71F180918142909182420197B5
S1130C10809381429093824280918142909182425A
S1130C20892B09F044C08091264290912742892B58
S1130C3041F08091264290912742039710F481E07D
S1130C4001C080E0882341F08091264290912742A0
S1130C5080931E4290931F42109226421092274284
S1130C6026C08091264290912742019741F48091B9
S1130C70174090911840019711F481E001C080E081
S1130C80882339F082E390E08093814290938242FA
S1130C900EC0809126429091274221E0039708F4E8
S1130CA020E0222321F010922642109227428091C4
S1130CB0834290918442892B71F180918342909177
S1130CC0844201978093834290938442809183422B
S1130CD090918442892B09F044C0809128429091DC
S1130CE02942892B41F0809128429091294203970F
S1130CF010F481E001C080E0882341F08091284213
S1130D00909129428093204290932142109228424C
S1130D101092294226C0809128429091294201973D
S1130D2041F48091194090911A40019711F481E0A7
S1130D3001C080E0882339F082E390E0809383420D
S1130D40909384420EC0809128429091294221E0E0
S1130D50039708F420E0222321F0109228421092F5
S1130D6029428091854290918642892B71F180912C
S1130D708542909186420197809385429093864262
S1130D808091854290918642892B09F044C08091DC
S1130D902A4290912B42892B41F080912A429091D2
S1130DA02B42049710F481E001C080E0882341F0D5
S1130DB080912A4290912B42809322429093234225
S1130DC010922A4210922B4226C080912A4290917E
S1130DD02B42019741F480911B4090911C40019754
S1130DE011F481E001C080E0882339F082E390E0CF
S1130DF080938542909386420EC080912A429091BE
S1130E002B4221E0039708F420E0222321F01092E2
S1130E102A4210922B42809106429091074221E08F
S1130E20892B09F420E0222309F48CC08091064226
S1130E3090910742892F881F8827881F8C8780916B
S1130E4006429091074299231CF49195819591094A
S1130E5089839A8320918742309188428091064207
S1130E609091074241E02817390709F040E04423F4
S1130E7069F18091894290918A42892B49F080914D
S1130E80894290918A4201978093894290938A4241
S1130E908091894290918A42892BE9F584E893E014
S1130EA0A0E0B0E08093094090930A40A0930B40E7
S1130EB0B0930C4089819A8102972CF084E090E0F1
S1130EC089839A8328C019821A8225C089819A81CC
S1130ED00497DCF08C85882351F080910442909132
S1130EE005420197809304429093054209C0809182
S1130EF004429091054201968093044290930542E6
S1130F0089819A81049789839A838BE490E0809302
S1130F10894290938A428C85882331F089819A8111
S1130F2091958195910902C089819A8180930642A5
S1130F3090930742809106429091074280938742A2
S1130F409093884280E09BE023E0FC01268300002C
S1130F502C96CDBFDEBFDF91CF91FF91EF91BF9172
S1130F60AF919F918F917F916F915F914F913F913D
S1130F702F910F900BBE0F900FBE0F901F901895DE
S1130F801F920F920FB60F9211240BB60F922F934C
S1130F908F939F93EF93FF93CF93DF931F92CDB7DC
S1130FA0DEB780E090E0FC018381898380E090E0FB
S1130FB02FEFFC01238300000F90DF91CF91FF916D
S1130FC0EF919F918F912F910F900BBE0F900FBEB9
S1130FD00F901F9018951F920F920FB60F92112425
S1130FE00BB60F922F938F939F93AF93BF93EF936F
S1130FF0FF93CF93DF9300D01F92CDB7DEB784E188
S113100090E0FC018381898380910342882309F461
S11310105BC08981882F90E088719927892B09F416
S113102053C080EA94E0FC018085882F90E0959578
S11310308795959587959595879583708A838091F3
S11310408D42882F90E0880F991F880F991F982F41
S11310508A81892B8B838B81882F90E0092E000C49
S1131060AA0BBB0B0197A109B1098E309105A1050B
S1131070B10538F5815C974FFC010C94A7504D08DD
S1131080570861085708610861084D084D08610850
S113109061085708610857084D08809106429091ED
S11310A00742019680930642909307420AC08091BA
S11310B0064290910742019780930642909307421B
S11310C000008A8180938D4280EA94E028E1FC014B
S11310D0218700002396CDBFDEBFDF91CF91FF9122
S11310E0EF91BF91AF919F918F912F910F900BBE74
S11310F00F900FBE0F901F901895CF93DF93CDB72D
S1131100DEB760E083E00E9425010000DF91CF910B
S11311100895CF93DF93CDB7DEB761E083E00E94FB
S113112025010000DF91CF9108950F931F93CF9372
S1131130DF931F92CDB7DEB719828981893108F018
S113114051C08981882F90E0092E000CAA0BBB0B9B
S1131150BC01CD010E94574EDC01CB012BED3FE0D9
S113116049EC50E4BC01CD010E94B14FDC01CB013C
S113117020E030E048EC51E4BC01CD010E94AD4DCB
S1131180DC01CB01BC01CD010E941E50DC01CB016E
S113119020E030E040E751E4BC01CD010E94B14FB2
S11311A0DC01CB0120E030E040E751E4BC01CD019B
S11311B00E94374DDC01CB012981022F10E0BC01D4
S11311C0CD010E94264EDC01CB019C01C801880F91
S11311D0991F875B9D4BFC012083318389818F5F3D
S11311E08983ABCF00000F90DF91CF911F910F91B6
S11311F00895CF93DF9300D0CDB7DEB788E492E4AF
S11312000E947B290E947D0860E087E00E942501FE
S113121084E690E089839A8389819A81892B79F085
S113122080910042882331F089819A8101978983D2
S11312309A83F2CF84E690E089839A83EDCF61E0CC
S113124087E00E94250161E083E00E9425010000FF
S11312500F900F90DF91CF910895CF93DF93CDB787
S1131260DEB7CA55D109CDBFDEBF0E9495081982E9
S11312701A821B821C821D821E821F821886198676
S11312801A861B861C861D861E861F86188A8FEF6B
S1131290898B1A8A1B8A1C8A1D8A1E8A1F8A81E0EE
S11312A0888F1A8E0E941B010E9478488078898F4B
S11312B068EE73E080E090E00E944F4A882329F0B2
S11312C0898D882311F081E001C080E0882329F012
S11312D00E9478488078898FEBCF88E492E40E945A
S11312E0943188E492E40E94902A80913E40909147
S11312F03F40A0914040B0914140BC01CD010E94CB
S1131300E44B89A79AA789A59AA5892B49F08091CE
S11313100142909102428260809301429093024282
S113132080913840909139400E94933F60E873E483
S11313308DE698E30E94E00080E090E00E94EC00DB
S1131340DC01CB018BA79CA7ADA7BEA760ED77E01E
S113135080E090E00E944F4A882389F080E090E08A
S11313600E94EC009B01AC018BA59CA5ADA5BEA57C
S113137082179307A407B50711F481E001C080E048
S1131380882309F0E3CF80E090E00E94EC009B0109
S1131390AC0161E08BA59CA5ADA5BEA58217930702
S11313A0A407B50709F060E0662359F08091014273
S11313B090910242816080930142909302420E9484
S11313C0EF3E62E070E082E392E40E94AC1F809101
S11313D001429091024221E0892B09F420E022236A
S11313E091F141E069E070E08DE392E40E94AE3B4C
S11313F062E570E48EE392E40E94181E809101423B
S1131400909102428270992721E0892B09F420E00F
S1131410222331F06BE570E48EE392E40E94181EFF
S113142080910142909102428170992721E0892B99
S113143009F420E02223B1F164E670E48EE392E43F
S11314400E94181E2FC060E070E08DE392E40E94B9
S1131450953B6DE670E48EE392E40E94181E66E705
S113146070E48EE392E40E94181E81E890E4892FD0
S11314708F9381E890E48F9386E890E4892F8F938B
S113148086E890E48F9388E991E4892F8F9388E923
S113149091E48F930E942F520F900F900F900F9012
S11314A00F900F9068E971E48EE392E40E94181E95
S11314B080E096E022E0FC01208780E00E945B1639
S11314C00E94401580910F42882309F40DC3888D32
S11314D0882339F429813A818B819C812817390723
S11314E0D9F0188E89819A818B839C8382E392E45C
S11314F00E94BB201D861E861F86188A8FEF898B4B
S11315008FEF90E08A8B9B8B8FEF8E831C8A1D8AD2
S11315101E8A1F8A8FEF8B8789819A818330910578
S11315203CF4813091050CF0BFC1892B49F0D3C242
S11315308330910509F451C1049709F4ADC2CBC2BB
S11315408091AF429091B042892B09F051C08091B3
S11315503E4090913F40A0914040B091414061E0B5
S11315602D853E854F855889281739074A075B071B
S113157009F460E0662309F486C080913E409091AE
S11315803F40A0914040B09141408D879E87AF87F6
S1131590B88B8D859E85AF85B8899E012F5B3F4FA3
S11315A0AC01BD01C9010E94AC4CCE018F5B9F4FC1
S11315B0292F2F938F938FE890E4892F8F938FE8AF
S11315C090E48F9388E991E4892F8F9388E991E4DB
S11315D08F930E942F520F900F900F900F900F90A7
S11315E00F9068E971E48EE392E40E94181E4BC0E8
S11315F09E818D81981709F446C08D818E838091D8
S11316003E4090913F40A0914040B09141408D8731
S11316109E87AF87B88B8D859E85AF85B8899E01DF
S11316202F5B3F4FAC01BD01C9010E94AC4C8E81C0
S1131630882F90E001969E012F5B3F4F432F4F93DD
S11316402F93292F2F938F9384E990E4892F8F93DD
S113165084E990E48F931F928DE08F9388E991E45D
S1131660892F8F9388E991E48F930E94F8514DB7A5
S11316705EB7465F5F4FCDBFDEBF68E971E48EE3BE
S113168092E40E94181E809108409989981761F18C
S113169080910840898B80910840882F90E024E64F
S11316A030E0F901E81BF90BCF01292F2F938F9319
S11316B08FE990E4892F8F938FE990E48F9388E9E1
S11316C091E4892F8F9388E991E48F930E942F529C
S11316D00F900F900F900F900F900F9068E971E4A6
S11316E08EE392E40E94181E809111409091124062
S11316F041E02A893B892817390709F440E044234B
S113170031F180911140909112408A8B9B8B8B898F
S11317108F938A898F9389EA90E4892F8F9389EA3A
S113172090E48F9388E991E4892F8F9388E991E479
S11317308F930E942F520F900F900F900F900F9045
S11317400F9068E971E48EE392E40E94181E809180
S1131750124290911342A0911442B09115422C89E7
S11317603D894E895F89281739074A075B0709F4C1
S1131770B6C18091124290911342A0911442B0914B
S113178015428C8B9D8BAE8BBF8B8F898F938E89EB
S11317908F938D898F938C898F9382EB90E4892F1B
S11317A08F9382EB90E48F931F9287E08F9388E965
S11317B091E4892F8F9388E991E48F930E94F851E3
S11317C04DB75EB7465F5F4FCDBFDEBF68E971E4DA
S11317D08EE392E40E94181E82C19B858C85981723
S11317E009F47FC18C858B878CE0E9EBF0E4A8E9F0
S11317F0B1E401900D928A95E1F768E971E48EE312
S113180092E40E94181E83E891E4892F8F9383E861
S113181091E48F9385EC90E4892F8F9385EC90E489
S11318208F9388E991E4892F8F9388E991E48F93CA
S11318300E942F520F900F900F900F900F900F90C7
S113184068E971E48EE392E40E94181E8C85282FC7
S113185030E0C901880F991F880F991F820F931FC9
S1131860880F991F8F5A9E4B292F2F938F9385ECA6
S113187090E4892F8F9385EC90E48F9388E991E429
S1131880892F8F9388E991E48F930E942F520F90B0
S11318900F900F900F900F900F9068E971E48EE312
S11318A092E40E94181E1DC18D81882F90E0880F3C
S11318B0991F880F991F8E599C4BFC01808191813F
S11318C0A281B3818B8F9C8FAD8FBE8F8B8D9C8DAE
S11318D0AD8DBE8D81309940AD43B10548F48B8DFB
S11318E09C8DAD8DBE8D803E9746A543B10590F489
S11318F08D81882F90E0880F991F880F991F8E592A
S11319009C4BFC0110821182128213821B8E1C8E4E
S11319101D8E1E8E9E818D81981771F42F813885BE
S113192049855A858B8D9C8DAD8DBE8D28173907C1
S11319304A075B0709F4D7C08D818E838B8D9C8DFC
S1131940AD8DBE8D8F839887A987BA878E81882FA6
S113195090E00196292F2F938F938AEC90E4892F9E
S11319608F938AEC90E48F931F928DE08F9388E994
S113197091E4892F8F9388E991E48F930E94F85121
S11319804DB75EB7485F5F4FCDBFDEBF68E971E416
S11319908EE392E40E94181E8E81882F90E0880FB7
S11319A0991F880F991F8E599C4BFC01808191814E
S11319B0A281B3818B8F9C8FAD8FBE8F8B8D9C8DBD
S11319C0AD8DBE8D892B8A2B8B2B09F455C08B8D45
S11319D09C8DAD8DBE8D9E01245B3F4FAC01BD013E
S11319E0C9010E94AC4C89819A81019701F5CE010D
S11319F0845B9F4F292F2F938F9388ED90E4892F39
S1131A008F9388ED90E48F931F928DE08F9388E9F4
S1131A1091E4892F8F9388E991E48F930E94F85180
S1131A204DB75EB7485F5F4FCDBFDEBF1EC0CE016E
S1131A30845B9F4F292F2F938F9381EE90E4892FFE
S1131A408F9381EE90E48F931F928DE08F9388E9BA
S1131A5091E4892F8F9388E991E48F930E94F85140
S1131A608DB79EB70896CDBFDEBF68E971E48EE3FB
S1131A7092E40E94181E37C08DE0EAEEF0E4A8E973
S1131A80B1E401900D928A95E1F768E971E48EE37F
S1131A9092E40E94181E27C089E0E7EFF0E4A8E969
S1131AA0B1E401900D928A95E1F768E971E48EE35F
S1131AB092E40E94181E8DE0E0E0F1E4A8E9B1E4AC
S1131AC001900D928A95E1F768E971E48EE392E45E
S1131AD00E94181E09C019821A82000005C0000065
S1131AE003C0000001C000008EE392E40E94F51CD4
S1131AF021E0892B09F420E0222309F44CC0CE0113
S1131B00895A9F4FAC0168E971E48EE392E40E9424
S1131B107B1ECE01895A9F4FFC01808191810397DE
S1131B2008F455C0809198418FA78091994188AB62
S1131B308FA5805389AB88A980538AAB4AA969A928
S1131B4082E392E40E94CD20CE01895A9F4FFC018A
S1131B50808191819C0122503109CE01895A9F4F85
S1131B60FC0120833183CE01895A9F4FFC0180817F
S1131B709181AC016AE971E482E392E40E946921F3
S1131B80CE01895A9F4FAC0168E971E48EE392E477
S1131B900E947B1EBECF8091094090910A40A09183
S1131BA00B40B0910C4021E0892B8A2B8B2B09F040
S1131BB020E0222361F089819A81049729F084E04E
S1131BC090E089839A8303C00E94F908FFCF809133
S1131BD006409091074021E0892B09F020E0222360
S1131BE011F00E94F908809124429091254221E04D
S1131BF0892B09F420E0222339F180912442909129
S1131C00254221E0019709F020E0222341F041E040
S1131C1064E070E08DE392E40E94AE3B11C08091D9
S1131C2024429091254221E0029709F020E02223EA
S1131C3039F041E063E070E08DE392E40E94AE3B52
S1131C40109224421092254280913042882331F030
S1131C501092304283E090E089839A8380911E42FF
S1131C6090911F4221E0892B09F420E02223D1F036
S1131C7080911E4290911F4221E0019709F020E0DB
S1131C80222341F041E060E070E08DE392E40E94A1
S1131C90AE3B04C080911E4290911F4210921E429E
S1131CA010921F42809116429091174280912E42C9
S1131CB0882311F010922E4280912042909121426B
S1131CC021E0892B09F420E0222331F18091204284
S1131CD09091214221E0019709F020E0222341F074
S1131CE041E060E070E08DE392E40E94AE3B10C0FE
S1131CF0809120429091214221E0029709F020E056
S1131D00222331F09091134081E08927809313407E
S1131D1010922042109221428091184290911942CF
S1131D2080912F42882311F010922F4280912242F9
S1131D309091234221E0892B09F420E0222309F425
S1131D4084C0809122429091234221E0019709F0BE
S1131D5020E0222309F075C0809122429091234211
S1131D6021E0029709F020E02223F1F089819A8191
S1131D7082309105A1F08330910519F0019751F05B
S1131D8060C08C85882309F05BC081E090E0898382
S1131D909A8356C082E090E089839A8352C081E09E
S1131DA090E089839A834DC080912242909123428E
S1131DB021E0039709F020E0222309F442C0809136
S1131DC0AF429091B042892B41F461E08D810E9431
S1131DD081148F3F11F081E001C080E0882349F134
S1131DE081E090E08093AF429093B0428D81882F40
S1131DF090E0880F991F880F991F8E599C4BFC0106
S1131E0080819181A281B38180933E4090933F4031
S1131E10A0934040B093414080913E4090913F4018
S1131E20A0914040B0914140BC01CD010E94334398
S1131E3004C01092AF421092B04281E0888F01C07A
S1131E400000109222421092234280911A429091F3
S1131E501B4280913142882309F49EC01092314282
S1131E609A8D81E08927882309F496C088E492E456
S1131E700E947B2989819A81892B09F063C081E0C2
S1131E8090E089839A836AE070E08DE392E40E9493
S1131E90953B1D828D81882F90E0880F991F880FB4
S1131EA0991F8E599C4BFC0180819181A281B38141
S1131EB08F8F98A3A9A3BAA38F8D98A1A9A1BAA122
S1131EC081309940AD43B10548F48F8D98A1A9A103
S1131ED0BAA1803E9746A543B10590F48D81882F21
S1131EE090E0880F991F880F991F8E599C4BFC0115
S1131EF010821182128213821F8E18A219A21AA2B2
S1131F008F8D98A1A9A1BAA1892B8A2B8B2B09F4B7
S1131F1043C08F8D98A1A9A1BAA180933E4090930C
S1131F203F40A0934040B093414080913E40909107
S1131F303F40A0914040B0914140BC01CD010E947E
S1131F4033432AC08D81882F90E0880F991F880F12
S1131F50991F8E599C4BFC0180819181A281B38190
S1131F6080933E4090933F40A0934040B0934140C3
S1131F7080913E4090913F40A0914040B0914140BB
S1131F80BC01CD010E94334319821A8260E070E0E3
S1131F908DE392E40E94953B8091FC419091FD4138
S1131FA021E0892B09F420E0222321F01092FC4146
S1131FB01092FD418091FE419091FF4121E0892BD7
S1131FC009F420E0222321F01092FE411092FF41F7
S1131FD09091084281E08927882309F01A8E809124
S1131FE004429091054221E0892B09F420E0222348
S1131FF009F46AC2809108408BAB8CE390E0809333
S1132000064090930740809108428A8F8091044251
S113201090910542892F881F8827881F882309F4F7
S113202028C189819A818130910509F497C0823051
S113203091051CF4892B49F012C18230910509F4F1
S1132040DBC0039709F403C10AC1809108428823C5
S1132050D1F0809111409091124021E00A9708F04C
S113206020E0222309F467C080911140909112402E
S11320700196809311409093124080917D428F5F2E
S113208080937D4258C080910942882309F443C05B
S11320908091AF429091B042892BA9F480913E4047
S11320A090913F40A0914040B09141408C599F4F46
S11320B0AF4FBF4F80933E4090933F40A09340402A
S11320C0B09341401BC061E08D810E9481148D83D7
S11320D08D81882F90E0880F991F880F991F8E5942
S11320E09C4BFC0180819181A281B38180933E400D
S11320F090933F40A0934040B093414080913E4034
S113210090913F40A0914040B0914140BC01CD012D
S11321100E94334310C08BA9882369F08BA9815096
S11321208BAB8BA9882F90E00E947A4980917D42E5
S11321308F5F80937D4280E090E00E94B445DC0193
S1132140CB0180933E4090933F40A0934040B09396
S113215041400E94DA498093084081C08D818F5F9D
S11321608D838D81843108F01D828D81882F90E0CC
S1132170880F991F880F991F8E599C4BFC018081F1
S11321809181A281B38188AF99AFAAAFBBAF88AD6B
S113219099ADAAADBBAD81159940AD43B105F8F435
S11321A088AD99ADAAADBBAD813E9746A543B105B7
S11321B0B0F08D81882F90E0880F991F880F991FA8
S11321C08E599C4BFC0180819181A281B3818093C3
S11321D03E4090933F40A0934040B0934140809153
S11321E03E4090913F40A0914040B0914140BC019D
S11321F0CD010E94334333C080913E4090913F40D3
S1132200A0914040B09141408C599F4FAF4FBF4F78
S113221080933E4090933F40A0934040B093414010
S11322208D81282F30E080913E4090913F40A091D5
S11322304040B0914140220F331F220F331F2E59CB
S11322403C4BF90180839183A283B38308C08C85BE
S11322508F5F8C878C85853009F41C860000809103
S11322600442909105420196809304429093054262
S11322702BC189819A818130910509F497C08230FC
S113228091051CF4892B49F016C18230910509F49B
S1132290DDC0039709F405C10EC18091084288236B
S11322A0D1F0809111409091124021E0029708F4FE
S11322B020E0222309F467C08091114090911240DC
S11322C00197809311409093124080917D428F5FDB
S11322D080937D4258C080910942882309F443C009
S11322E08091AF429091B042892BA9F480913E40F5
S11322F090913F40A0914040B09141408456910953
S1132300A109B10980933E4090933F40A09340407F
S1132310B09341401BC060E08D810E9481148D8385
S11323208D81882F90E0880F991F880F991F8E59EF
S11323309C4BFC0180819181A281B38180933E40BA
S113234090933F40A0934040B093414080913E40E1
S113235090913F40A0914040B0914140BC01CD01DB
S11323600E94334310C08BA9843668F48BA98F5F15
S11323708BAB8BA9882F90E00E947A4980917D4293
S11323808F5F80937D4280E090E00E94B445DC0141
S1132390CB0180933E4090933F40A0934040B09344
S11323A041400E94DA498093084085C08D8188238A
S11323B019F483E18D8303C08D8181508D838D81D8
S11323C0882F90E0880F991F880F991F8E599C4B76
S11323D0FC0180819181A281B3818CAB9DABAEABBA
S11323E0BFAB8CA99DA9AEA9BFA981159940AD43E6
S11323F0B105F8F48CA99DA9AEA9BFA9813E974661
S1132400A543B105B0F08D81882F90E0880F991F06
S1132410880F991F8E599C4BFC0180819181A28168
S1132420B38180933E4090933F40A0934040B0934B
S1132430414080913E4090913F40A0914040B091F6
S11324404140BC01CD010E94334335C080913E40E0
S113245090913F40A0914040B091414084569109F1
S1132460A109B10980933E4090933F40A09340401E
S1132470B09341408D81282F30E080913E4090916F
S11324803F40A0914040B0914140220F331F220FA2
S1132490331F2E593C4BF90180839183A283B3836C
S11324A00AC08C85882321F08C8581508C8702C0DA
S11324B084E08C870000809104429091054201974A
S11324C0809304429093054282E992E40E94D236BA
S11324D0882309F4C4C1CE01875A9F4FFC0110829E
S11324E0118280E090E8ABE1B4E4AC01BD0182E983
S11324F092E40E942D35CE01875A9F4FBC0182E998
S113250092E40E94E036DC01CB018CAF9DAFAEAF0C
S1132510BFAFCE01875A9F4FFC018081918121E09A
S1132520C3970CF420E0CE01805C9F4FFC01208314
S1132530CE01805C9F4FFC01908181E08927882334
S113254009F48DC180912140882309F443C080910E
S1132550214081508093214080918E4290918F42FE
S1132560A0919042B09191429C01AD016CAD7DADC2
S11325708EAD9FAD0E94544F181664F48CAD9DAD82
S1132580AEADBFAD80938E4290938F42A0939042A4
S1132590B09391428091224090912340A091244095
S11325A0B09125409C01AD016CAD7DAD8EAD9FAD6C
S11325B00E94A34D88230CF052C18CAD9DADAEADED
S11325C0BFAD8093224090932340A0932440B093C6
S11325D0254045C11FA218A680918E4290918F423A
S11325E0A0919042B09191429C01AD016CAD7DAD42
S11325F08EAD9FAD0E94544F181684F580918E4283
S113260090918F42A0919042B091914220E030E0AD
S113261040EA50E4BC01CD010E94B14FDC01CB0182
S11326202CAD3DAD4EAD5FADBC01CD010E94374D2B
S1132630DC01CB0120E030E040EC50E4BC01CD01F2
S11326400E94AD4DDC01CB0180938E4290938F426A
S1132650A0939042B093914281E08FA38091224055
S113266090912340A0912440B09125409C01AD015C
S11326706CAD7DAD8EAD9FAD0E94A34D882384F5D6
S11326808091224090912340A0912440B091254014
S113269020E030E040EA50E4BC01CD010E94B14F9B
S11326A0DC01CB012CAD3DAD4EAD5FADBC01CD0128
S11326B00E94374DDC01CB0120E030E040EC50E4D7
S11326C0BC01CD010E94AD4DDC01CB0180932240C1
S11326D090932340A0932440B093254081E088A7A1
S11326E09FA181E08927882309F463C098A581E02C
S11326F08927882309F45DC080918E4290918F428E
S1132700A0919042B091914220E030E048E452E43C
S1132710BC01CD010E94B14FDC01CB012CAD3DAD1C
S11327204EAD5FADBC01CD010E94374DDC01CB0144
S113273020E030E04CE452E4BC01CD010E94AD4DF8
S1132740DC01CB0180938E4290938F42A093904200
S1132750B09391428091224090912340A0912440D3
S1132760B091254020E030E048E452E4BC01CD01C2
S11327700E94B14FDC01CB012CAD3DAD4EAD5FAD40
S1132780BC01CD010E94374DDC01CB0120E030E0DB
S11327904CE452E4BC01CD010E94AD4DDC01CB01FF
S11327A08093224090932340A0932440B0932540EB
S11327B024C080918E4290918F42A0919042B0911A
S11327C091422091224030912340409124405091E5
S11327D02540BC01CD010E94374DDC01CB0120E036
S11327E030E040E050E4BC01CD010E94AD4DDC017D
S11327F0CB018BA39CA3ADA3BEA32BA13CA14DA154
S11328005EA16CAD7DAD8EAD9FAD0E94544F181688
S113281034F580918E4290918F42A0919042B09174
S11328209142BC01CD010E94594FDC01CB0120E053
S113283030E040E251E4BC01CD010E94B14FDC0123
S1132840CB01BC01CD010E94264EDC01CB0180935B
S1132850124290931342A0931442B0931542809174
S11328601042882311F40C94620A8DE392E40E94CE
S1132870673B0E947D080E94EC2282E090E00E9467
S11328809D4881E08093114210920D4010920E40B9
S113289080911042882309F180E590E0FC01808159
S11328A0897F282F226080E590E0FC012083F89442
S11328B080E590E0FC01208180E590E02160FC014E
S11328C020837894889580E590E0FC01208180E560
S11328D090E02E7FFC012083DBCF109211420E94F6
S11328E01B010E9489080E94024C80910D40909126
S11328F00E408DEE90E08093FE419093FF410C9446
S1132900620ACF93DF93CDB7DEB72597CDBFDEBF85
S11329108C836D838C818B831A8219828D818823A9
S113292021F18981882309F044C08A81843108F027
S113293040C08B818F5F8B838B81843108F01B8235
S11329408B81882F90E0880F991F880F991F8E59CB
S11329509C4BFC0180819181A281B381892B8A2BBC
S11329608B2BF9F281E08983DCCF8981882309F5F7
S11329708A818431F0F48B81882321F08B8181500A
S11329808B8302C083E18B838B81882F90E0880F37
S1132990991F880F991F8E599C4BFC01808191814E
S11329A0A281B381892B8A2B8B2BF9F281E0898355
S11329B0DCCF998181E08927882311F08FEF8B8305
S11329C08B812596CDBFDEBFDF91CF910895CF9344
S11329D0DF9300D000D0CDB7DEB789839A836B83B1
S11329E07C8389819A810197B1F48B819C810196C2
S11329F091F482E392E40E94931F8DE392E40E9497
S1132A00CC3964E670E08EE392E40E94591C88E4B9
S1132A1092E40E94082389819A81892B81F48B8115
S1132A209C81019661F488E492E40E9415238EE36C
S1132A3092E40E948D1C8DE392E40E94D939000037
S1132A402496CDBFDEBFDF91CF910895CF93DF935E
S1132A50CDB7DEB76FEF7FEF81E090E00E94E7141F
S1132A60DF91CF910895CF93DF93CDB7DEB76FEFAA
S1132A707FEF80E090E00E94E714DF91CF9108950A
S1132A80CF93DF93CDB7DEB7809193429091944278
S1132A90892B29F080E096E021E0FC0122870000E8
S1132AA0DF91CF910895CF93DF93CDB7DEB780E662
S1132AB094E0FC01208980E694E0287FFC01208BCF
S1132AC080E694E0FC01208980E694E02460FC0127
S1132AD0208B80E694E0FC01218980E694E0287F45
S1132AE0FC01218B80E694E0FC01218980E694E0DE
S1132AF02460FC01218B80E694E0FC01228980E6BD
S1132B0094E0287FFC01228B80E694E0FC0122897A
S1132B1080E694E02460FC01228B80E694E0FC01D2
S1132B20238980E694E0287FFC01238B80E694E0EF
S1132B30FC01238980E694E02460FC01238B80E679
S1132B4094E0FC01248980E694E0287FFC01248B36
S1132B5080E694E0FC01248980E694E02460FC0192
S1132B60248B80E694E0FC01258980E694E0287FAC
S1132B70FC01258B80E694E0FC01258980E694E045
S1132B802460FC01258B80E694E0FC01278980E623
S1132B9094E0287FFC01278B80E694E0FC012789E0
S1132BA080E694E02460FC01278B80E694E0FC013D
S1132BB0208980E694E0277FFC01208B80E694E066
S1132BC0FC01218980E694E0277FFC01218B80E6CB
S1132BD094E0FC01228980E694E0277FFC01228BAB
S1132BE080E694E0FC01238980E694E0277FFC01E1
S1132BF0238B80E694E0FC01248980E694E0277F1F
S1132C00FC01248B80E694E0FC01258980E694E0B5
S1132C10277FFC01258B80E694E0FC01278980E670
S1132C2094E0277FFC01278B0000DF91CF9108956A
S1132C30CF93DF931F92CDB7DEB789838981882331
S1132C40D9F080EA90E021E8FC01208380E096E05E
S1132C502CE0FC01228380E096E023E0FC01208349
S1132C6080E096E021E0FC01248781E090E08093FD
S1132C709342909394421AC080EA90E021E8FC01C8
S1132C80208380E096E02CE0FC01228380E096E043
S1132C9027E0FC01208380E096E021E0FC0124870A
S1132CA081E090E0809393429093944200000F90CF
S1132CB0DF91CF910895CF93DF931F92CDB7DEB705
S1132CC089830E94531589810E94181600000F9071
S1132CD0DF91CF9108950F931F93CF93DF9300D08B
S1132CE000D0CDB7DEB789839A836B837C838981D7
S1132CF09A81019781F48B819C81019661F400E0B3
S1132D0014E029E536E440E050E06AEC72E482E93C
S1132D1092E40E94823489819A81892B41F48B81C7
S1132D209C81019621F482E992E40E941A35000004
S1132D302496CDBFDEBFDF91CF911F910F910895EF
S1132D40CF93DF93CDB7DEB76FEF7FEF81E090E0F5
S1132D500E946B16DF91CF910895CF93DF93CDB787
S1132D60DEB76FEF7FEF80E090E00E946B16DF919B
S1132D70CF910895CF93DF93CDB7DEB72597CDBF1D
S1132D80DEBF8B836C837D838B81882F90E0805F93
S1132D909B4F89839A838C819D81019759F4898102
S1132DA09A81FC018081282F286089819A81FC0105
S1132DB020830EC08C819D81892B51F489819A8155
S1132DC0FC018081282F277F89819A81FC0120833F
S1132DD000002596CDBFDEBFDF91CF910895CF933C
S1132DE0DF9300D01F92CDB7DEB789836A837B83DC
S1132DF08A819B8181309105E9F08230910581F1CE
S1132E00892B09F03DC080E090E0FC018081482FCF
S1132E108981282F30E081E090E002C0880F991F5B
S1132E202A95E2F78095242F282380E090E0FC0186
S1132E30208326C080E090E0FC018081482F8981B6
S1132E40282F30E081E090E002C0880F991F2A9576
S1132E50E2F7242F282B80E090E0FC01208310C0AF
S1132E608981882F90E0805F9B4FFC0120818981BC
S1132E70882F90E0805F9B4F2860FC012083000036
S1132E8000002396CDBFDEBFDF91CF910895CF938D
S1132E90DF9300D0CDB7DEB789836A838A81882324
S1132EA0B1F080E090E0FC018181482F8981282FD6
S1132EB030E081E090E002C0880F991F2A95E2F784
S1132EC0242F282B80E090E0FC01218316C080E0B1
S1132ED090E0FC018181482F8981282F30E081E036
S1132EE090E002C0880F991F2A95E2F78095242F5D
S1132EF0282380E090E0FC01218300000F900F90D4
S1132F00DF91CF910895CF93DF93CDB7DEB780E003
S1132F1090E0FC018281DF91CF910895CF93DF93FC
S1132F2000D01F92CDB7DEB789836A837B838A8101
S1132F309B8181309105E9F08230910581F1892BE3
S1132F4009F03DC084E090E0FC018081482F898134
S1132F50282F30E081E090E002C0880F991F2A9565
S1132F60E2F78095242F282384E090E0FC0120835D
S1132F7026C084E090E0FC018081482F8981282FBD
S1132F8030E081E090E002C0880F991F2A95E2F7B3
S1132F90242F282B84E090E0FC01208310C0898139
S1132FA0882F90E0805D9B4FFC0120818981882FD0
S1132FB090E0805D9B4F2860FC01208300000000AE
S1132FC02396CDBFDEBFDF91CF910895CF93DF93DA
S1132FD000D0CDB7DEB789836A838A818823B1F0B4
S1132FE084E090E0FC018181482F8981282F30E022
S1132FF081E090E002C0880F991F2A95E2F7242F00
S1133000282B84E090E0FC01218316C084E090E04A
S1133010FC018181482F8981282F30E081E090E0F4
S113302002C0880F991F2A95E2F78095242F282340
S113303084E090E0FC01218300000F900F90DF9169
S1133040CF910895CF93DF93CDB7DEB72597CDBF4A
S1133050DEBF8B836C837D838B81882F90E0805BC4
S11330609B4F89839A838C819D81019759F489812F
S11330709A81FC018081282F286089819A81FC0132
S113308020830EC08C819D81892B51F489819A8182
S1133090FC018081282F277F89819A81FC0120836C
S11330A000002596CDBFDEBFDF91CF910895CF9369
S11330B0DF9300D01F92CDB7DEB789836A837B8309
S11330C08A819B8181309105E9F08230910581F1FB
S11330D0892B09F03DC088E090E0FC018081482FF5
S11330E08981282F30E081E090E002C0880F991F89
S11330F02A95E2F78095242F282388E090E0FC01AC
S1133100208326C088E090E0FC018081482F8981DB
S1133110282F30E081E090E002C0880F991F2A95A3
S1133120E2F7242F282B88E090E0FC01208310C0D4
S11331308981882F90E0805B9B4FFC0120818981ED
S1133140882F90E0805B9B4F2860FC012083000067
S113315000002396CDBFDEBFDF91CF910895CF93BA
S1133160DF9300D0CDB7DEB789836A838A81882351
S1133170B1F088E090E0FC018181482F8981282FFB
S113318030E081E090E002C0880F991F2A95E2F7B1
S1133190242F282B88E090E0FC01218316C088E0CE
S11331A090E0FC018181482F8981282F30E081E063
S11331B090E002C0880F991F2A95E2F78095242F8A
S11331C0282388E090E0FC01218300000F900F90F9
S11331D0DF91CF910895CF93DF9300D01F92CDB7A5
S11331E0DEB789836A837B838A819B8181309105E1
S11331F0E9F08230910581F1892B09F03DC080E12D
S113320090E0FC018081482F8981282F30E081E003
S113321090E002C0880F991F2A95E2F78095242F29
S1133220282380E190E0FC01208326C080E190E027
S1133230FC018081482F8981282F30E081E090E0D3
S113324002C0880F991F2A95E2F7242F282B80E1CA
S113325090E0FC01208310C08981882F90E0805782
S11332609B4FFC0120818981882F90E080579B4FE0
S11332702860FC012083000000002396CDBFDEBF40
S1133280DF91CF910895CF93DF9300D0CDB7DEB710
S113329089836A838A818823B1F080E190E0FC010C
S11332A08181482F8981282F30E081E090E002C09D
S11332B0880F991F2A95E2F7242F282B80E190E0AC
S11332C0FC01218316C080E190E0FC018181482F3C
S11332D08981282F30E081E090E002C0880F991F97
S11332E02A95E2F78095242F282380E190E0FC01C1
S11332F0218300000F900F90DF91CF910895CF9319
S1133300DF93CDB7DEB72597CDBFDEBF8B836C834C
S11333107D838B81882F90E080559B4F89839A838E
S11333208C819D81019759F489819A81FC01808166
S1133330282F286089819A81FC0120830EC08C810A
S11333409D81892B51F489819A81FC018081282FE8
S1133350277F89819A81FC01208300002596CDBFB7
S1133360DEBFDF91CF910895CF93DF9300D01F92FA
S1133370CDB7DEB789836A837B838A819B81813061
S11333809105E9F08230910581F1892B09F03DC066
S113339084E190E0FC018081482F8981282F30E06E
S11333A081E090E002C0880F991F2A95E2F780958A
S11333B0242F282384E190E0FC01208326C084E1AB
S11333C090E0FC018081482F8981282F30E081E042
S11333D090E002C0880F991F2A95E2F7242F282B2A
S11333E084E190E0FC01208310C08981882F90E063
S11333F080559B4FFC0120818981882F90E0805566
S11334009B4F2860FC012083000000002396CDBF61
S1133410DEBFDF91CF910895CF93DF9300D0CDB776
S1133420DEB789836A838A818823B1F084E190E0DE
S1133430FC018181482F8981282F30E081E090E0D0
S113344002C0880F991F2A95E2F7242F282B84E1C4
S113345090E0FC01218316C084E190E0FC018181AD
S1133460482F8981282F30E081E090E002C0880F46
S1133470991F2A95E2F78095242F282384E190E070
S1133480FC01218300000F900F90DF91CF910895EC
S1133490CF93DF93CDB7DEB784E190E0FC01828166
S11334A0DF91CF910895CF93DF93CDB7DEB78091AD
S11334B0994280939A428091984280939942809154
S11334C096428093974280919542809396420E94BF
S11334D08317809395420E94481A80939842909152
S11334E0954280919B4298272091964280919B42DD
S11334F0822798232091974280919B428227982388
S113350080919B42892780939B429091984280911D
S11335109C4298272091994280919C42822798232B
S113352020919A4280919C428227982380919C42C8
S1133530892780939C420000DF91CF910895CF9317
S1133540DF93CDB7DEB780919B42DF91CF91089591
S1133550CF93DF93CDB7DEB760E070E080E00E94E8
S1133560EF1661E070E080E00E94BA1660E070E05F
S113357081E00E94EF1661E070E081E00E94BA16DB
S113358060E070E082E00E94EF1661E070E082E0AB
S11335900E94BA1661E070E083E00E94EF1661E0D9
S11335A083E00E94471760E070E084E00E94EF1619
S11335B061E070E084E00E94BA1661E070E085E0AA
S11335C00E94EF1660E085E00E94471761E070E01A
S11335D086E00E94EF1660E086E00E94471761E0F3
S11335E070E087E00E94EF1661E087E00E944717D1
S11335F061E070E084E00E948E1761E084E00E9444
S1133600E61760E070E082E00E94571861E070E025
S113361082E00E94221860E070E083E00E94571864
S113362061E070E083E00E94221861E070E084E0D1
S11336300E94571860E084E00E94AF1861E070E0D7
S113364085E00E94571860E085E00E94AF1860E0B2
S113365070E080E00E94EB1860E070E081E00E947E
S1133660EB1861E070E082E00E94EB1860E082E019
S11336700E94431960E070E083E00E94EB1862E06E
S113368070E080E00E94B41962E070E081E00E9482
S1133690B41960E070E082E00E94B41961E070E067
S11336A082E00E947F1960E070E083E00E94B41918
S11336B060E070E084E00E94B41960E070E085E0AE
S11336C00E94B41961E070E085E00E947F1962E015
S11336D070E086E00E94B41980EA94E0FC0123893A
S11336E080EA94E02160FC01238B80EA94E0FC01F1
S11336F0248980EA94E02160FC01248B80EA94E030
S113370028E1FC0121870000DF91CF910895CF9338
S1133710DF93CDB7DEB760E070E080E00E94EF1683
S113372060E070E080E00E94BA1660E070E081E042
S11337300E94EF1660E070E081E00E94BA1660E03B
S113374070E082E00E94EF1660E070E082E00E9488
S1133750BA1661E070E083E00E94EF1660E083E057
S11337600E94471760E070E084E00E94EF1660E07A
S113377070E084E00E94BA1661E070E085E00E9487
S1133780EF1660E085E00E94471761E070E086E094
S11337900E94EF1660E086E00E94471761E070E047
S11337A087E00E94EF1661E087E00E94471761E01E
S11337B070E084E00E948E1760E084E00E94E617C7
S11337C060E070E082E00E94571861E070E082E0FF
S11337D00E94221860E070E083E00E94571861E0C4
S11337E070E083E00E94221861E070E084E00E94AF
S11337F0571860E084E00E94AF1861E070E085E053
S11338000E94571860E085E00E94AF1860E070E005
S113381080E00E94EB1860E070E081E00E94EB1809
S113382061E070E082E00E94EB1860E082E00E94B8
S1133830431960E070E083E00E94EB1862E070E0FE
S113384080E00E94B41962E070E081E00E94B41943
S113385061E070E082E00E94B41960E082E00E94BE
S11338600C1A60E070E083E00E94B41960E070E03C
S113387084E00E94B41961E070E085E00E94B4190C
S113388060E085E00E940C1A62E070E086E00E942D
S1133890B4190000DF91CF910895CF93DF93CDB792
S11338A0DEB780E890E0FC01118680E0DF91CF91E3
S11338B00895CF93DF9300D000D0CDB7DEB78983CE
S11338C09A836B837C838B819C810E94CA509C0168
S11338D089819A81FC012583368389819A812B8190
S11338E03C81FC012783308789819A81FC01108205
S11338F0118289819A81FC011282138289819A81C1
S1133900FC01148289819A81FC01118600002496AD
S1133910CDBFDEBFDF91CF910895CF93DF9300D069
S1133920CDB7DEB789839A8389819A81FC01858129
S113393096810E94665100000F900F90DF91CF9105
S11339400895CF93DF9300D0CDB7DEB789839A83F0
S113395089819A81FC012281338189819A81FC01C8
S11339602083318389819A81FC01148289819A811F
S1133970FC01118600000F900F90DF91CF91089504
S1133980CF93DF9300D0CDB7DEB789839A83898143
S11339909A81FC01948181E08927882379F08981C7
S11339A09A81FC012081318189819A81FC01828183
S11339B093812817390711F481E001C080E00F904A
S11339C00F90DF91CF910895CF93DF9300D0CDB7BF
S11339D0DEB789839A8389819A81FC0187819085E6
S11339E00F900F90DF91CF910895CF93DF9300D084
S11339F000D0CDB7DEB78B839C838B819C81FC0187
S1133A008781908589839A838B819C81FC01948131
S1133A1081E08927882399F18B819C81FC01208195
S1133A2031818B819C81FC01828193812817390724
S1133A308CF08B819C81FC01208131818B819C8164
S1133A40FC0182819381A901481B590BCA01898316
S1133A509A8315C08B819C81FC01878190852B8181
S1133A603C81F90120813181820F931F2B813C819C
S1133A70F90122813381821B930B89839A83898183
S1133A809A812496CDBFDEBFDF91CF9108950F9325
S1133A901F93CF93DF9300D000D0CDB7DEB78B83D5
S1133AA09C8319821A828B819C81FC01948181E020
S1133AB08927882379F08B819C810E94E41C8C01E6
S1133AC08B819C810E94F51C9801281B390BC9012C
S1133AD089839A8389819A812496CDBFDEBFDF9141
S1133AE0CF911F910F910895CF93DF9300D01F9230
S1133AF0CDB7DEB789839A836B8389819A81FC0170
S1133B008581968129813A81F90120813181820F51
S1133B10931F2B81FC01208389819A81FC0184817C
S1133B208823B1F089819A81FC0182819381019675
S1133B30AC0189819A81FC0127813085CA01B901D0
S1133B400E9471509C0189819A81FC0122833383F4
S1133B5089819A81FC01808191810196AC018981DE
S1133B609A81FC0127813085CA01B9010E947150F4
S1133B709C0189819A81FC012083318389819A8106
S1133B80FC012081318189819A81FC0182819381A8
S1133B9041E02817390709F040E089819A81FC0146
S1133BA0448300002396CDBFDEBFDF91CF910895FB
S1133BB0CF93DF9300D01F92CDB7DEB78A839B8368
S1133BC08A819B810E94C01C882311F080E02AC056
S1133BD08A819B81FC01858196812A813B81F9013F
S1133BE022813381820F931FFC01808189838A8122
S1133BF09B81FC0114828A819B81FC0182819381D7
S1133C000196AC018A819B81FC0127813085CA0120
S1133C10B9010E9471509C018A819B81FC0122831D
S1133C20338389812396CDBFDEBFDF91CF91089581
S1133C30CF93DF93CDB7DEB72897CDBFDEBF8D839B
S1133C409E836F83788781E08C838D819E81FC01C4
S1133C508481882311F08C8148C08F8198850E94CB
S1133C60EF518A839B838D819E810E94471D9C0115
S1133C7041E08A819B812817390708F040E04423FA
S1133C8011F08C8132C019828981882F90E02A81B9
S1133C903B8182179307C0F48D819E81FC0184814E
S1133CA0882391F4898191E0980F9983882F90E07B
S1133CB02F813885820F931FFC0120818D819E8185
S1133CC0622F0E94741DE0CF8D819E81FC0194813E
S1133CD081E08927882329F08D819E8160E00E94FC
S1133CE0741D8D819E81FC0184812896CDBFDEBF29
S1133CF0DF91CF910895CF93DF93CDB7DEB72897A7
S1133D00CDBFDEBF8B839C836D837E834F835887B7
S1133D108B819C810E94C01C882371F08D819E81BF
S1133D20FC0110828F819885892B79F18F81988588
S1133D30FC011082118229C019828B819C810E940E
S1133D40D81D8A8381E09A81992309F480E088232D
S1133D5071F0898191E0980F9983882F90E02D81EB
S1133D603E81820F931F2A81FC012083E6CF8F813D
S1133D709885892B61F08981282F30E08F8198857F
S1133D80FC0120833183000002C0000001C0000058
S1133D902896CDBFDEBFDF91CF910895CF93DF93F7
S1133DA000D01F92CDB7DEB789839A836B83898154
S1133DB09A814B8168ED0E94433E00002396CDBF5B
S1133DC0DEBFDF91CF910895CF93DF93CDB7DEB7F8
S1133DD065E88CE790E00E94CE1E65E288E690E0FC
S1133DE00E94CE1E80E0DF91CF910895CF93DF93A0
S1133DF0CDB7DEB7789480E0DF91CF910895CF936B
S1133E00DF93CDB7DEB780EA90E021E8FC0122839E
S1133E100000DF91CF910895CF93DF93CDB7DEB744
S1133E200E94FF1E80E694E0FC01268980E694E06F
S1133E30287FFC01268B80E694E0FC01268980E63D
S1133E4094E02460FC01268B80E694E0FC01268942
S1133E5080E694E0277FFC01268B80EA96E021E44B
S1133E60FC0120830000DF91CF910895CF93DF936D
S1133E7000D0CDB7DEB789839A83298180EA96E0A2
S1133E802295220F220F207CFC01228389819A81B2
S1133E909C01369527953695279580EA96E0FC0196
S1133EA0238300000F900F90DF91CF910895CF935B
S1133EB0DF9300D0CDB7DEB789836A838A818823F4
S1133EC0B1F084E090E0FC018181482F8981282FA2
S1133ED030E081E090E002C0880F991F2A95E2F754
S1133EE0242F282B84E090E0FC01218316C084E079
S1133EF090E0FC018181482F8981282F30E081E006
S1133F0090E002C0880F991F2A95E2F78095242F2C
S1133F10282384E090E0FC01218300000F900F909F
S1133F20DF91CF910895CF93DF9300D0CDB7DEB763
S1133F3089839A8322E931E489819A81FC0120836F
S1133F40318389819A8128E7FC01268300000F9040
S1133F500F90DF91CF910895CF93DF9300D000D0DD
S1133F60CDB7DEB789839A836B837C8389819A81F9
S1133F702B813C81FC01228333838B819C818130A2
S1133F80910581F082309105C1F0892B09F5898171
S1133F909A8124E1FC01248389819A8124E0FC0133
S1133FA0258316C089819A8120E1FC0124838981BB
S1133FB09A8124E0FC0125830BC089819A812AE03F
S1133FC0FC01248389819A8124E0FC01258300007B
S1133FD089819A8120E8FC01218789819A8124E0E2
S1133FE0FC0122870E94AF3789819A810E941720A1
S1133FF089819A810E943E2089819A810E94BB20F6
S113400089819A8122E0FC01278389819A81FC01BC
S11340108781282F246089819A81622F0E9425211B
S113402000002496CDBFDEBFDF91CF910895CF93DA
S1134030DF9300D0CDB7DEB789839A8362E370E063
S113404080E090E00E944F4A60E084E00E94571FA5
S113405064E070E080E090E00E944F4A61E084E018
S11340600E94571F64E170E080E090E00E944F4A94
S113407000000F900F90DF91CF910895CF93DF93BD
S113408000D0CDB7DEB789839A8389819A816AE3A8
S11340900E94252189819A8169E00E9425218981D4
S11340A09A8166E00E94252189819A816EE10E94AD
S11340B0252189819A8169E30E94252189819A8138
S11340C06BE10E94252189819A81FC01828193817F
S11340D081309105A9F08230910511F1892B81F588
S11340E089819A816EE60E94252189819A8167E5FA
S11340F00E94252189819A8162E70E94252120C09E
S113410089819A816CE60E94252189819A8166E5DC
S11341100E94252189819A816BE60E94252110C085
S113412089819A816EE60E94252189819A8166E5BA
S11341300E94252189819A816AE70E942521000035
S113414089819A8168E30E94252189819A8124E0EA
S1134150FC01208789819A81FC018085282F2860B1
S113416089819A81622F0E94252100000F900F906F
S1134170DF91CF910895CF93DF9300D0CDB7DEB711
S113418089839A8389819A8161E00E9425210000B4
S11341900F900F90DF91CF910895CF93DF9300D0CC
S11341A000D0CDB7DEB789839A836B834C83898132
S11341B09A81FC018185282F8B81982F9295990FE4
S11341C0907E8C81890F822B282F89819A81622F7E
S11341D00E94252100002496CDBFDEBFDF91CF9140
S11341E00895CF93DF9300D01F92CDB7DEB78983B4
S11341F09A836B8389819A816B810E94472181E034
S113420090E02396CDBFDEBFDF91CF910895CF9389
S1134210DF93CDB7DEB72697CDBFDEBF89839A8300
S11342206B837C834D835E834D815E812B813C81D6
S113423089819A81B9010E9469218D819E81269686
S1134240CDBFDEBFDF91CF910895CF93DF93CDB77C
S1134250DEB72597CDBFDEBF8B839C836D838D81B5
S113426089838B819C8121E0AE014F5F5F4F60E0C9
S11342700E948B21882319F080EE90E002C080E038
S113428090E02596CDBFDEBFDF91CF910895CF9307
S1134290DF93CDB7DEB72597CDBFDEBF8B839C837D
S11342A06D838D8189838B819C8121E0AE014F5F79
S11342B05F4F60E40E948B21882319F080EE90E028
S11342C002C080E090E02596CDBFDEBFDF91CF91A4
S11342D00895CF93DF93CDB7DEB72697CDBFDEBF6A
S11342E089839A836B837C834D835E832D814B8189
S11342F05C8189819A8160E40E948B21882319F072
S113430080EE90E002C080E090E02696CDBFDEBF54
S1134310DF91CF910895CF93DF93CDB7DEB7289780
S1134320CDBFDEBF8B839C836D834E835F832887E1
S113433085E0898389819FEF980F99838823C1F051
S11343408B819C81FC0136818E819F812885AC0103
S11343506D81832F0E947F38282F81E098859217E2
S113436009F480E08A838A81882311F081E001C006
S113437080E0882309F0DECF8A812896CDBFDEBF96
S1134380DF91CF910895CF93DF9300D01F92CDB7E3
S1134390DEB789836A837B838A819B81813091051F
S11343A0E9F08230910581F1892B09F03DC088E064
S11343B090E0FC018081482F8981282F30E081E042
S11343C090E002C0880F991F2A95E2F78095242F68
S11343D0282388E090E0FC01208326C088E090E058
S11343E0FC018081482F8981282F30E081E090E012
S11343F002C0880F991F2A95E2F7242F282B88E002
S113440090E0FC01208310C08981882F90E0805BBC
S11344109B4FFC0120818981882F90E0805B9B4F1A
S11344202860FC012083000000002396CDBFDEBF7E
S1134430DF91CF910895CF93DF9300D0CDB7DEB74E
S113444089836A838A818823B1F088E090E0FC0143
S11344508181482F8981282F30E081E090E002C0DB
S1134460880F991F2A95E2F7242F282B88E090E0E3
S1134470FC01218316C088E090E0FC018181482F73
S11344808981282F30E081E090E002C0880F991FD5
S11344902A95E2F78095242F282388E090E0FC01F8
S11344A0218300000F900F90DF91CF910895CF9357
S11344B0DF9300D0CDB7DEB789839A8389819A814F
S11344C0BC0185E00E94C32100000F900F90DF9192
S11344D0CF910895CF93DF9300D0CDB7DEB7898312
S11344E09A8389819A81BC0184E00E94C3210000DF
S11344F00F900F90DF91CF910895CF93DF931F9288
S1134500CDB7DEB78983698185E00E941B22000054
S11345100F90DF91CF910895CF93DF931F92CDB782
S1134520DEB78983698184E00E941B2200000F901A
S1134530DF91CF910895CF93DF9300D0CDB7DEB74D
S113454019828981883098F48981882F90E0805F6E
S11345509B4FFC0120818981882F90E0805F9B4FD5
S11345602860FC01208389818F5F8983EACF1A82C6
S11345708A81883098F48A81882F90E0805D9B4FEF
S1134580FC0120818A81882F90E0805D9B4F286008
S1134590FC0120838A818F5F8A83EACF00000F9019
S11345A00F90DF91CF910895CF93DF93CDB7DEB70E
S11345B00E949B220E94E41E0E9445490E94E549F4
S11345C00E94A81A0E94F61E0E9491480E944D1C47
S11345D00000DF91CF910895CF93DF93CDB7DEB77D
S11345E00E949B220E94BC4B0E94871B81E090E0AA
S11345F00E94572280E00E947D2281E090E00E9488
S11346006A2280E00E948C220000DF91CF910895FD
S1134610CF93DF9300D0CDB7DEB789839A830000B0
S11346200F900F90DF91CF910895CF93DF9300D037
S1134630CDB7DEB789839A8300000F900F90DF9186
S1134640CF910895CF93DF9300D01F92CDB7DEB7FB
S113465089839A836B8380E090E1FC018281882FB7
S113466090E08270992721E0892B09F420E022232D
S113467009F0F1CF8DE993E184BF90930010898113
S11346809A819C5E2B81FC0120838DE990E084BF9C
S11346909093001000002396CDBFDEBFDF91CF9131
S11346A00895CF93DF9300D000D0CDB7DEB78983D0
S11346B09A836B837C8380E090E1FC018281882F64
S11346C090E08270992721E0892B09F420E02223CD
S11346D009F0F1CF8DE993E184BF909300108981B3
S11346E09A819C5E9C018B819C81F90180839183DA
S11346F08DE990E084BF9093001000002496CDBF14
S1134700DEBFDF91CF910895CF93DF93CDB7DEB7AE
S11347102697CDBFDEBF89839A834B835C836D83E9
S11347207E8380E090E1FC018281882F90E082709A
S1134730992721E0892B09F420E0222309F0F1CF05
S11347408DE993E184BF9093001089819A819C5EE6
S11347509C018B819C81AD81BE81F9018083918311
S1134760A283B3838DE990E084BF9093001000008E
S11347702696CDBFDEBFDF91CF910895CF93DF930F
S1134780CDB7DEB72697CDBFDEBF89839A834B832F
S11347905C836D837E8380E090E1FC018281882FBD
S11347A090E08270992721E0892B09F420E02223EC
S11347B009F0F1CF8DE993E184BF909300108981D2
S11347C09A819C5E9C018B819C81AD81BE81F901A3
S11347D080839183A283B3838DE990E084BF909317
S11347E0001000002696CDBFDEBFDF91CF91089563
S11347F0CF92DF92EF92FF920F931F93CF93DF93A9
S1134800CDB7DEB7E497CDBFDEBF8FA798AB69AB5A
S11348107AAB4BAB5CAB8BA99CA9892B09F422C561
S113482089A99AA98D3A910509F42CC28E3A910569
S11348300CF057C08837910509F44EC289379105A9
S11348403CF58631910509F427C18731910564F45B
S11348508630910509F463C38E30910509F480C351
S1134860892B09F413C43BC58A34910509F4D0C0DB
S11348708B34910524F4C09709F452C130C58436B1
S1134880910509F491C18237910509F410C227C535
S11348908039910509F485C3813991056CF4843814
S11348A0910509F443C28A38910509F454C28E373C
S11348B0910509F426C213C58D39910509F490C0F8
S11348C08E3991052CF48539910509F468C007C522
S11348D0833A910509F4ACC1883A910509F4BDC144
S11348E0FEC4883E910509F4D8C2893E91054CF571
S11348F0843C910509F4B2C3853C91056CF4883B72
S1134900910509F47BC38E3B910509F48FC3823B67
S1134910910509F45BC3E3C4803D910509F45AC2CF
S1134920813D91052CF48A3C910509F43EC2D7C41B
S1134930883D910509F46FC2803E910509F48CC24B
S1134940CEC4853021E0920709F4DCC38630E1E06F
S11349509E076CF4883F910509F412C28D3F9105BE
S113496009F4ACC3803F910509F4B8C2B8C48031DE
S1134970F1E09F0709F4F3C3813121E092072CF49D
S11349808B30914009F4D6C3AAC48231F1E09F0769
S113499009F4FCC38236914009F44FC4A0C48BA926
S11349A09CA9FC01C080D180E280F38085E990E07D
S11349B00E940255DC01CB01C816D906EA06FB06A3
S11349C009F452C48BA99CA9FC0180819181A28124
S11349D0B381AC01BD0185E990E00E94842344C405
S11349E08BA99CA9FC01008111818DE990E00E94B2
S11349F009550817190709F439C48BA99CA9FC01A6
S1134A0080819181BC018DE990E00E9451232EC4E4
S1134A1019821A828BA99CA98B839C838B819C818C
S1134A209C012F5F3F4F2B833C83FC0180818D834E
S1134A308AE490E08E839F838D81882339F1898174
S1134A409A8144971CF58E819F810E94FA548CA709
S1134A509D818CA5981729F08E819F816D810E947C
S1134A60222389819A81019689839A838B819C81EF
S1134A709C012F5F3F4F2B833C83FC0180818D83FE
S1134A808E819F8101968E839F83D6CF8E819F8155
S1134A9060E00E94222323C4188619868BA99CA94E
S1134AA08A879B878A859B859C012F5F3F4F2A8736
S1134AB03B87FC0180818C8786E190E08D879E870F
S1134AC08C85882339F18885998544971CF58D85D3
S1134AD09E850E94FA548EA79C858EA5981729F06E
S1134AE08D859E856C850E942223888599850196F3
S1134AF0888799878A859B859C012F5F3F4F2A87EA
S1134B003B87FC0180818C878D859E8501968D87EE
S1134B109E87D6CF8D859E8560E00E942223DFC3C9
S1134B201F86188A8BA99CA9898B9A8B89899A8953
S1134B309C012F5F3F4F298B3A8BFC0180818B8B2B
S1134B4080E390E08C8B9D8B8B89882339F18F8552
S1134B50988944971CF58C899D890E94FA548DA7E5
S1134B609B898DA5981729F08C899D896B890E9452
S1134B7022238F85988901968F87988B89899A89B2
S1134B809C012F5F3F4F298B3A8BFC0180818B8BDB
S1134B908C899D8901968C8B9D8BD6CF8C899D8920
S1134BA060E00E9422239BC31E8A1F8A8BA99CA9B2
S1134BB0888F998F888D998D9C012F5F3F4F288F07
S1134BC0398FFC0180818A8F84E690E08B8F9C8FE3
S1134BD08A8D882339F18E899F8908971CF58B8DDE
S1134BE09C8D0E94FA548BA79A8D8BA5981729F057
S1134BF08B8D9C8D6A8D0E9422238E899F890196BC
S1134C008E8B9F8B8B8D9C8D01968B8F9C8F888D2B
S1134C10998D9C012F5F3F4F288F398FFC01808134
S1134C208A8FD6CF8B8D9C8D60E00E94222357C340
S1134C308BA99CA9FC01108183EA90E00E94FA549C
S1134C40181709F415C38BA99CA9FC018081682F4E
S1134C5083EA90E00E9422230BC38BA99CA9FC0148
S1134C60108188EA90E00E94FA54181709F402C3EC
S1134C708BA99CA9FC018081682F88EA90E00E949E
S1134C802223F8C28BA99CA9FC0110818DEA90E033
S1134C900E94FA54181709F4EFC28BA99CA9FC01CD
S1134CA08081682F8DEA90E00E942223E5C28BA9BF
S1134CB09CA9FC01108182E790E00E94FA54181725
S1134CC009F4DCC28BA99CA9FC018081682F82E7CE
S1134CD090E00E942223D2C28BA99CA9FC011081DE
S1134CE088E790E00E94FA54181709F4C9C28BA906
S1134CF09CA9FC018081682F88E790E00E94222310
S1134D00BFC28BA99CA9FC0110818EE790E00E9490
S1134D10FA54181709F4B6C28BA99CA9FC01808126
S1134D20682F8EE790E00E942223ACC28BA99CA935
S1134D30FC01108184E890E00E94FA54181709F4E9
S1134D40A3C28BA99CA9FC018081682F84E890E010
S1134D500E94222399C28BA99CA9FC0110818AE894
S1134D6090E00E94FA54181709F490C28BA99CA9E8
S1134D70FC018081682F8AE890E00E94222386C289
S1134D808BA99CA9FC01108188EF90E00E94FA5441
S1134D90181709F47DC28BA99CA9FC018081682F96
S1134DA088EF90E00E94222373C28BA99CA9FC0186
S1134DB010818AEC90E00E94FA54181709F46AC230
S1134DC08BA99CA9FC018081682F8AEC90E00E9449
S1134DD0222360C28BA99CA9FC01C080D180E280FF
S1134DE0F38080ED90E00E940255DC01CB01C816EF
S1134DF0D906EA06FB0609F44FC28BA99CA9FC015B
S1134E0080819181A281B381AC01BD0180ED90E0EC
S1134E100E94842341C28BA99CA9FC01C080D1803B
S1134E20E280F38088ED90E00E940255DC01CB0122
S1134E30C816D906EA06FB0609F430C28BA99CA958
S1134E40FC0180819181A281B381AC01BD0188ED17
S1134E5090E00E94842322C28BA99CA9FC01C080FB
S1134E60D180E280F38080EE90E00E940255DC0164
S1134E70CB01C816D906EA06FB0609F411C28BA9B0
S1134E809CA9FC0180819181A281B381AC01BD0107
S1134E9080EE90E00E94842303C28BA99CA9FC01AC
S1134EA0C080D180E280F38088EE90E00E940255B9
S1134EB0DC01CB01C816D906EA06FB0609F4F2C1E7
S1134EC08BA99CA9FC0180819181A281B381AC0151
S1134ED0BD0188EE90E00E948423E4C18BA99CA9C3
S1134EE0FC01C080D180E280F38080EF90E00E94DA
S1134EF00255DC01CB01C816D906EA06FB0609F403
S1134F00D3C18BA99CA9FC0180819181A281B38129
S1134F10AC01BD0180EF90E00E948423C5C18BA940
S1134F209CA9FC01C080D180E280F38086E090E0FF
S1134F300E940255DC01CB01C816D906EA06FB061D
S1134F4009F4B4C18BA99CA9FC0180819181A2813F
S1134F50B381AC01BD0186E090E00E948423A6C128
S1134F608BA99CA9FC01C080D180E280F3808EE0F3
S1134F7090E00E940255DC01CB01C816D906EA066E
S1134F80FB0609F495C18BA99CA9FC018081918140
S1134F90A281B381AC01BD018EE090E00E94842324
S1134FA087C18BA99CA9FC01108180E990E00E9433
S1134FB0FA54181709F47EC18BA99CA9FC018081BD
S1134FC0682F80E990E00E94222374C18BA99CA9D8
S1134FD0FC010081118182EB90E00E9409550817C1
S1134FE0190709F469C18BA99CA9FC0180819181ED
S1134FF0BC0182EB90E00E9451235EC18BA99CA965
S1135000FC010081118188EB90E00E94095508178A
S1135010190709F453C18BA99CA9FC0180819181D2
S1135020BC0188EB90E00E94512348C18BA99CA944
S1135030FC01008111818EEB90E00E940955081754
S1135040190709F43DC18BA99CA9FC0180819181B8
S1135050BC018EEB90E00E94512332C18BA99CA924
S1135060FC010081118184EC90E00E94095508172D
S1135070190709F427C18BA99CA9FC01808191819E
S1135080BC0184EC90E00E9451231CC18BA99CA913
S1135090FC010081118180E090E00E94095508170D
S11350A0190709F411C18BA99CA9FC018081918184
S11350B0BC0180E090E00E94512306C18BA99CA909
S11350C0FC01C080D180E280F3808DEF90E00E94EB
S11350D00255DC01CB019C01AD01C701B6010E9460
S11350E0A34D882309F4FBC08BA99CA9FC018081F2
S11350F09181A281B381AC01BD018DEF90E00E944A
S1135100BE23EDC08BA99CA9FC010081118185E01F
S113511091E00E9409550817190709F4D7C08BA913
S11351209CA9FC0180819181BC0185E091E00E94F1
S11351305123CCC08BA99CA9FC0110818BE091E088
S11351400E94FA54181709F4C3C08BA99CA9FC0146
S11351508081682F8BE091E00E942223B9C08BA943
S11351609CA9FC010081118180E191E00E94095514
S11351700817190709F4AEC08BA99CA9FC0180810A
S1135180682F80E191E00E942223A4C01D8E1E8E10
S11351908BA99CA98F8F98A38F8D98A1FC018081E6
S11351A09181A281B38189A39AA3ABA3BCA382E119
S11351B091E08DA39EA38D8D9E8D44970CF08CC0A1
S11351C08DA19EA10E940255DC01CB018FA398A75B
S11351D0A9A7BAA729A13AA14BA15CA18FA198A51F
S11351E0A9A5BAA5281739074A075B0759F089A169
S11351F09AA1ABA1BCA12DA13EA1AC01BD01C901E5
S11352000E9484238D8D9E8D01968D8F9E8F8F8D10
S113521098A104968F8F98A38F8D98A1FC0180810B
S11352209181A281B38189A39AA3ABA3BCA38DA1CD
S11352309EA104968DA39EA3BECF8BA99CA9FC011D
S1135240108182E691E00E94FA54181709F446C0CE
S11352508BA99CA9FC018081682F82E691E00E94C1
S113526022233CC000003BC0000039C0000037C00E
S1135270000035C0000033C0000031C000002FC062
S113528000002DC000002BC0000029C0000027C072
S1135290000025C0000023C0000021C000001FC082
S11352A000001DC000001BC0000019C0000017C092
S11352B0000015C0000013C0000011C000000FC0A2
S11352C000000DC000000BC0000009C0000007C0B2
S11352D0000005C0000003C0000001C00000E49607
S11352E0CDBFDEBFDF91CF911F910F91FF90EF9063
S11352F0DF90CF900895CF93DF9300D0CDB7DEB782
S113530089839A8389819A814AEF52E463EA70E03F
S11353100E94F82389819A8146E250E462E770E0B2
S11353200E94F82389819A8148E250E468E770E09A
S11353300E94F82389819A814AE250E46EE770E082
S11353400E94F82389819A814CE250E464E870E079
S11353500E94F82389819A814EE250E46AE870E061
S11353600E94F82389819A814DEA52E46AEC70E044
S11353700E94F82389819A814EE350E460ED70E045
S11353800E94F82389819A8142E450E468ED70E038
S11353900E94F82389819A8146E450E460EE70E02B
S11353A00E94F82389819A814AE450E468EE70E00F
S11353B00E94F82389819A814EE450E460EF70E002
S11353C00E94F82389819A8140EF52E466E070E0FC
S11353D00E94F82389819A8144EF52E46EE070E0E0
S11353E00E94F82389819A814EE952E460E970E0D1
S11353F00E94F82389819A8141EB52E466E170E0CE
S11354000E94F82389819A8146EC52E460E370E0BB
S11354100E94F82389819A814BED52E46AE470E09A
S11354200E94F82389819A814FE952E464E670E08E
S11354300E94F82389819A8149EA52E465E970E07F
S11354400E94F82389819A8148EF52E46DE970E063
S11354500E94F82389819A814BEF52E468EA70E054
S11354600E94F82389819A814CEF52E46DEA70E03E
S11354700E94F82389819A814DEF52E462EB70E037
S11354800E94F82389819A814FEF52E468EB70E01F
S11354900E94F82389819A8141E053E46EEB70E025
S11354A00E94F82389819A8143E053E464EC70E01C
S11354B00E94F82389819A8145E053E46DEF70E0FE
S11354C00E94F82389819A8148E350E465E071E001
S11354D00E94F82389819A8149E053E46BE071E0EA
S11354E00E94F82389819A814AE053E460E171E0E3
S11354F00E94F82389819A8142E653E462E171E0D3
S11355000E94F82389819A814FEA52E462E671E0AD
S11355100E94F82300000F900F90DF91CF9108951F
S11355200F931F93CF93DF93CDB7DEB7C459D1093F
S1135530CDBFDEBF9E012D563F4FF901808391837D
S1135540CE018E569F4F21E0FC01208380E090E045
S11355500E94095588879987888599858930914063
S113556009F0D4C610929D4283EA90E00E94FA5456
S11355708A8785E08B8784E18C879A858C85891757
S113558040F09A858B85981710F48B8503C08A8523
S113559001C08C858093FA428AEC90E00E94FA5410
S11355A0882F90E08093AD429093AE4280ED90E0DE
S11355B00E940255DC01CB018D879E87AF87B88B93
S11355C080EE97E6A5E3B0E0898B9A8BAB8BBC8B1E
S11355D080E099E0ADE3B0E08D8B9E8BAF8BB88F0C
S11355E02D853E854F8558898D899E89AF89B88DD3
S11355F082179307A407B507B8F02D853E854F851C
S1135600588989899A89AB89BC89281739074A0737
S11356105B0728F489899A89AB89BC8909C08D857F
S11356209E85AF85B88904C08D899E89AF89B88D60
S113563080933E4090933F40A0934040B0934140BC
S113564088ED90E00E940255DC01CB01898F9A8F8E
S1135650AB8FBC8F80EE97E6A5E3B0E08D8F9E8F75
S1135660AF8FB8A380E099E0ADE3B0E089A39AA33B
S1135670ABA3BCA3298D3A8D4B8D5C8D89A19AA1D6
S1135680ABA1BCA182179307A407B507B8F0298D75
S11356903A8D4B8D5C8D8D8D9E8DAF8DB8A1281765
S11356A039074A075B0728F48D8D9E8DAF8DB8A10D
S11356B009C0898D9A8DAB8DBC8D04C089A19AA136
S11356C0ABA1BCA18093424090934340A09344403B
S11356D0B093454080EE90E00E940255DC01CB017E
S11356E08DA39EA3AFA3B8A780EE97E6A5E3B0E091
S11356F089A79AA7ABA7BCA780E099E0ADE3B0E087
S11357008DA79EA7AFA7B8AB2DA13EA14FA158A5C9
S11357108DA59EA5AFA5B8A982179307A407B507C1
S1135720B8F02DA13EA14FA158A589A59AA5ABA576
S1135730BCA5281739074A075B0728F489A59AA549
S1135740ABA5BCA509C08DA19EA1AFA1B8A504C0FD
S11357508DA59EA5AFA5B8A98093464090934740D8
S1135760A0934840B093494088EE90E00E940255CF
S1135770DC01CB0189AB9AABABABBCAB80EE97E65B
S1135780A5E3B0E08DAB9EABAFABB8AF80E099E0E2
S1135790ADE3B0E089AF9AAFABAFBCAF29A93AA9EA
S11357A04BA95CA989AD9AADABADBCAD821793078B
S11357B0A407B507B8F029A93AA94BA95CA98DA9F2
S11357C09EA9AFA9B8AD281739074A075B0728F483
S11357D08DA99EA9AFA9B8AD09C089A99AA9ABA9F9
S11357E0BCA904C089AD9AADABADBCAD80934A40B1
S11357F090934B40A0934C40B0934D4080EF90E089
S11358000E940255DC01CB019E01235C3F4FF9014C
S113581080839183A283B3839E012F5B3F4F80EEED
S113582097E6A5E3B0E0F90180839183A283B38373
S11358309E012B5B3F4F80E099E0ADE3B0E0F901BE
S113584080839183A283B383CE018B5B9F4F9E01A0
S1135850235C3F4FF9012081318142815381FC0156
S113586080819181A281B38182179307A407B50730
S113587030F1CE018F5B9F4F9E01235C3F4FF901B6
S11358802081318142815381FC0180819181A281F7
S1135890B381281739074A075B0748F4CE018F5BA9
S11358A09F4FFC0180819181A281B38110C0CE0100
S11358B0CD96FC0180819181A281B38108C0CE0183
S11358C08B5B9F4FFC0180819181A281B381809386
S11358D04E4090934F40A0935040B09351408E015E
S11358E0075B1F4F82E790E00E94FA54F80180831F
S11358F0CE01865B9F4FFC0110821182CE01845B36
S11359009F4F20E130E0FC0120833183CE01875B8F
S11359109F4FFC018081282F30E0CE01845B9F4F94
S1135920FC0180819181821793079CF0CE01875BF3
S11359309F4FFC018081482F50E0CE01865B9F4F32
S1135940FC0120813181CA018217930744F4C90103
S113595006C0CE01845B9F4FFC01808191818093BE
S11359602640909327408E01025B1F4F88E790E00A
S11359700E94FA54F8018083CE01815B9F4FFC01A1
S113598010821182CE018F5A9F4F25E030E0FC0136
S113599020833183CE01825B9F4FFC018081282FBD
S11359A030E0CE018F5A9F4FFC0180819181821794
S11359B093079CF0CE01825B9F4FFC018081482FAE
S11359C050E0CE01815B9F4FFC0120813181CA01EF
S11359D08217930744F4C90106C0CE018F5A9F4F22
S11359E0FC018081918180932840909329408E010D
S11359F00D5A1F4F8EE790E00E94FA54F8018083FD
S1135A00CE018C5A9F4FFC0110821182CE018A5A1A
S1135A109F4F20E130E0FC0120833183CE018D5A79
S1135A209F4FFC018081282F30E0CE018A5A9F4F7E
S1135A30FC0180819181821793079CF0CE018D5ADD
S1135A409F4FFC018081482F50E0CE018C5A9F4F1C
S1135A50FC0120813181CA018217930744F4C901F2
S1135A6006C0CE018A5A9F4FFC01808191818093A8
S1135A702A4090932B408E01085A1F4F84E890E0EF
S1135A800E94FA54F8018083CE01875A9F4FFC018B
S1135A9010821182CE01855A9F4F23E130E0FC0130
S1135AA020833183CE01885A9F4FFC018081282FA7
S1135AB030E0CE01855A9F4FFC018081918182178D
S1135AC093079CF0CE01885A9F4FFC018081482F98
S1135AD050E0CE01875A9F4FFC0120813181CA01D9
S1135AE08217930744F4C90106C0CE01855A9F4F1B
S1135AF0FC018081918180932C4090932D408E01F4
S1135B00035A1F4F8AE890E00E94FA54F8018083F8
S1135B10CE01825A9F4FFC0110821182CE01805A1D
S1135B209F4F25E030E0FC0120833183CE01835A6E
S1135B309F4FFC018081282F30E0CE01805A9F4F77
S1135B40FC0180819181821793079CF0CE01835AD6
S1135B509F4FFC018081482F50E0CE01825A9F4F15
S1135B60FC0120813181CA018217930744F4C901E1
S1135B7006C0CE01805A9F4FFC01808191818093A1
S1135B802E4090932F4086E090E00E940255DC0165
S1135B90CB018093F0429093F142A093F242B093F0
S1135BA0F3428EE090E00E940255DC01CB01809329
S1135BB0F4429093F542A093F642B093F74280E901
S1135BC090E00E94FA5480939E4219821A8289813D
S1135BD09A814497E8F489819A814696805090404E
S1135BE00E94FA548B838B818F3F09F41B82898135
S1135BF09A818F549D4B2B81FC0120838B818823B8
S1135C0031F089819A81019689839A83E0CF0000DB
S1135C1019821A8289819A814497E8F489819A8148
S1135C20C096805090400E94FA548B838B818F3FA2
S1135C3009F41B8289819A818A539D4B2B81FC0133
S1135C4020838B81882331F089819A81019689830D
S1135C509A83E0CF000019821A8289819A8144973D
S1135C60F0F489819A81865B9F4F805090400E9416
S1135C70FA548B838B818F3F09F41B8289819A812B
S1135C8085529D4B2B81FC0120838B81882331F02D
S1135C9089819A81019689839A83DFCF00001982D2
S1135CA01A8289819A810897F0F489819A818C59A2
S1135CB09F4F805090400E94FA548B838B818F3F7A
S1135CC009F41B8289819A8181569D4B2B81FC01A9
S1135CD020838B81882331F089819A81019689837D
S1135CE09A83DFCF000085E990E00E940255DC0131
