:100000000C9431010C945B010C945B010C94DE01A7
:100010000C945B010C945B010C944E080C945B01F6
:100020000C945B010C945B010C945B010C945B01E0
:100030000C9461030C94EB520C945B010C945B01E7
:100040000C945B010C945B010C945B010C945B01C0
:100050000C945B010C945B010C945B010C945B01B0
:100060000C9493020C945B010C945B010C945B0167
:100070000C945B010C945B010C9493520C945B0107
:100080000C945B010C945B010C9479080C945B015B
:100090000C945B010C945B010C945B010C945B0170
:1000A0000C945B010C9445410C945B010C945B0136
:1000B0000C945B010C945B010C945B010C945B0150
:1000C0000C945B010C945B010C945B010C945B0140
:1000D0000C945B010C945B010C945B010C945B0130
:1000E0000C945B010C945B0105A84CCDB2D44EB9C5
:1000F0003836A9020C50B9918688083CA6AAAA2ACB
:10010000BE000000803F08000000BE922449123E5D
:10011000ABAAAA2ABECDCCCC4C3E00000080BEAB20
:10012000AAAAAA3E00000000BF000000803F000015
:10013000000000084178D3BB4387D1133D190E3C22
:10014000C3BD4282AD2B3E68EC8276BED98FE1A959
:100150003E4C80EFFFBE01C4FF7F3F000000000067
:1001600000407A10F35A00A0724E18090010A5D46E
:10017000E80000E87648170000E40B54020000CACB
:100180009A3B000000E1F505000080969800000011
:1001900040420F000000A086010000001027000070
:1001A0000000E803000000006400000000000A00F6
:1001B000000000000100000000002C76D888DC67F9
:1001C0004F0823DFC1DFAE59E1B1B796E5E3E45351
:1001D000C63AE651997696E8E6C28426EB898C9B6E
:1001E00062ED407C6FFCEFBC9C9F40F2BAA56FA50E
:1001F000F490055A2AF75C936B6CF9676DC11BFC90
:10020000E0E40D47FEF520E6B500D0ED902E0300AA
:10021000943577050080841E080000204E0A0000F7
:1002200000C80C333333330F986E12831141EF8DB6
:100230002114893BE65516CFFEE6DB18D1844B38F6
:100240001BF77C1D901DA4BBE424203284725E2227
:100250008100C9F124ECA1E53D27781B5E1D851BBB
:100260006B1D11241FBECFEFCDBFDFE7DEBF12E451
:10027000A0E0B0E4E0E5FEEB00E00BBF02C00790B9
:100280000D92A03BB107D9F725E4A0EBB2E401C081
:100290001D92AD30B207E1F711E0CFE2D1E004C02A
:1002A0002197FE010E943C58CD32D107C9F70E9428
:1002B000110A0C941B5F0C9400000FB6F894609325
:1002C000094570930A4580930B4590930C450FBEEA
:1002D0000895FC010FB6F8946091094570910A45A4
:1002E00080910B4590910C450FBE309721F06083B3
:1002F00071838283938308958F938FB78F93F8943C
:10030000809109458F5F8093094580910A458F4F01
:1003100080930A4580910B458F4F80930B458091C8
:100320000C458F4F80930C458F918FBF8F9108950F
:10033000CF93DF93CDB7DEB70E9492290000DF9103
:10034000CF910895CF93DF9300D0CDB7DEB78983E7
:100350006A838A818823B1F080E090E0FC0181818A
:10036000482F8981282F30E081E090E002C0880F7B
:10037000991F2A95E2F7242F282B80E090E0FC01BA
:10038000218316C080E090E0FC018181482F8981A3
:10039000282F30E081E090E002C0880F991F2A9555
:1003A000E2F78095242F282380E090E0FC01218350
:1003B00000000F900F90DF91CF9108951F920F9240
:1003C0000FB60F9211240BB60F922F933F934F93BA
:1003D0005F936F937F938F939F93AF93BF93EF93AD
:1003E000FF93CF93DF931F92CDB7DEB780E491E008
:1003F000FC01838189838981882F90E0817099270E
:10040000892B09F474C00E947C0180910640909170
:10041000074021E0892B09F420E0222349F0809154
:1004200006409091074001978093064090930740C3
:100430008091094090910A40A0910B40B0910C40EE
:1004400021E0892B8A2B8B2B09F420E0222399F0C1
:100450008091094090910A40A0910B40B0910C40CE
:100460000197A109B1098093094090930A40A09394
:100470000B40B0930C4081E0809330438091314336
:1004800090913243A0913343B09134430196A11D22
:10049000B11D8093314390933243A0933343B09383
:1004A00034438091314390913243A0913343B091D2
:1004B000344321E00297A105B10509F020E0222391
:1004C00019F081E080932B43809131439091324326
:1004D000A0913343B091344321E00597A105B105C4
:1004E00009F020E0222319F081E08093354380E475
:1004F00091E023E0FC01238300000F90DF91CF9176
:10050000FF91EF91BF91AF919F918F917F916F91EB
:100510005F914F913F912F910F900BBE0F900FBEA7
:100520000F901F9018951F920F920FB60F921124E3
:100530000BB60F922F933F934F935F936F937F93DD
:100540008F939F93AF93BF93EF93FF93CF93DF93DB
:10055000CDB7DEB72597CDBFDEBF80E096E0FC01CA
:1005600085858B838B81882F90E081709927892BDB
:1005700009F489C080E096E0FC01808991898C8330
:100580009D8319821A8280912340882321F08C81D7
:100590009D8189839A838091A7439091A84321E00C
:1005A000892B09F420E0222329F18091AA4391E0CC
:1005B000980F9093AA43882F90E0880F991F8B582B
:1005C0009C4BFC018081918129813A81820F931F8C
:1005D00089839A838091AA43893111F41092AA43A6
:1005E0008091A7439091A84301978093A74390934C
:1005F000A8430FC09091A94381E0992309F480E0BA
:10060000882339F08091A94381508093A9431982AE
:100610001A82809121409091224021E0059708F4B0
:1006200020E0222389F080912140909122409C017A
:100630002450310989819A8102C0880F991F2A9517
:10064000E2F789839A8314C08091214090912240DF
:10065000049799231CF49195819591099C018981B6
:100660009A8102C0969587952A95E2F789839A83A5
:1006700089819A810E94F4258C819D81BC0186EE3E
:1006800093E40E94D73D80E096E023E0FC012587BB
:1006900000002596CDBFDEBFDF91CF91FF91EF9196
:1006A000BF91AF919F918F917F916F915F914F918A
:1006B0003F912F910F900BBE0F900FBE0F901F9088
:1006C00018951F920F920FB60F9211240BB60F922E
:1006D0002F933F934F935F936F937F938F939F934A
:1006E000AF93BF93EF93FF93CF93DF93CDB7DEB775
:1006F0002F97CDBFDEBF80E09BE0FC0186818E831B
:100700008E81882F90E081709927892B09F4A8C4E5
:100710001F821886809124408F5F8093244020910F
:1007200024408BEA289F812D1124982F9695969529
:10073000892F880F890F880F922F981B992309F012
:10074000E9C319821A821B8287E189870E945D2191
:10075000982F898589238F830E9411210E945D2112
:10076000982F898589238887888582708A878885DC
:1007700081708B87888584708C87888580718D8750
:1007800081E09D85992309F080E0809328438823A8
:1007900031F08CE390E080930640909307401B82F9
:1007A0008A85882371F48B85882359F060E086E080
:1007B0000E94A20161E085E00E94A20181E089839C
:1007C00025C08B85882371F48A85882359F060E0E1
:1007D00085E00E94A20161E086E00E94A20181E022
:1007E0008A8314C060E085E00E94A20160E086E098
:1007F0000E94A20119821A828A85882329F48B8596
:10080000882311F481E001C080E08B8381E09C8526
:10081000992309F080E080935D43898180935A4356
:100820008A8180935B438B8180935C439F81888521
:10083000981709F40AC198858F8189278E8787E0E8
:1008400090E080931F40909320408CE390E0809351
:1008500006409093074084E893E0A0E0B0E08093E6
:10086000094090930A40A0930B40B0930C408E85B2
:10087000082E000C990B82709927892B79F08A85B4
:10088000882339F081E090E08093274090932840BE
:100890000BC0109227401092284006C082E090E0E2
:1008A00080932740909328408E85082E000C990B4A
:1008B00081709927892B79F08B85882339F081E025
:1008C00090E08093294090932A400BC010922940D9
:1008D00010922A4006C082E090E0809329409093D5
:1008E0002A408B818823F1F08091544390915543A5
:1008F0000196809354439093554310923E43109237
:100900003F4310924E4310924F4310924043109237
:10091000414310925043109251431092254010923F
:10092000264064C0809144439091454321E0892B47
:1009300009F420E0222389F088EE93E08093A74316
:100940009093A843109244431092454381E090E075
:10095000809325409093264049C081E080933040A9
:100960008091274090912840019771F488EE93E0A0
:100970008093A7439093A84310923E4310923F4325
:1009800081E080932D400FC08091274090912840B6
:10099000892B49F480914E4390914F430196809367
:1009A0004E4390934F438091294090912A40019764
:1009B00071F488EE93E08093A7439093A84310923C
:1009C00040431092414381E080932E400FC08091BC
:1009D000294090912A40892B49F48091504390916D
:1009E0005143019680935043909351438E85082E36
:1009F000000C990B84709927892B09F423C18091ED
:100A00005D43882371F08091524390915343019646
:100A1000809352439093534310922B4010922C405A
:100A200011C188EE93E08093A7439093A84310925E
:100A300042431092434381E080932F4081E090E055
:100A400080932B4090932C40FDC08B81882309F428
:100A500041C09091584381E08927882331F08091EB
:100A60003040882311F081E001C080E0882309F440
:100A7000ABC0809144439091454321E0019609F435
:100A800020E0222349F08091444390914543019610
:100A900080934443909345438091444390914543D0
:100AA00021E08436910508F420E0222309F48CC06B
:100AB00081E0809358431092444310924543109232
:100AC0005443109255431092304010922D40109292
:100AD0002E407AC089818823D1F19091564381E0DC
:100AE0008927882331F080912D40882311F081E0FF
:100AF00001C080E0882359F180913E4390913F43AB
:100B000021E0019609F420E0222349F080913E4340
:100B100090913F43019680933E4390933F43809151
:100B20003E4390913F4321E08436910508F420E054
:100B3000222369F081E08093564310923E43109245
:100B40003F4310924E4310924F4310922D408A81A2
:100B50008823D1F19091574381E08927882331F090
:100B600080912E40882311F081E001C080E088232D
:100B700059F1809140439091414321E0019609F45D
:100B800020E0222349F08091404390914143019617
:100B900080934043909341438091404390914143DF
:100BA00021E08436910508F420E0222369F081E0F9
:100BB0008093574310924043109241431092504308
:100BC0001092514310922E4080915D438823D1F1C1
:100BD0009091594381E08927882331F080912F40FB
:100BE000882311F081E001C080E0882359F18091D1
:100BF00042439091434321E0019609F420E02223EF
:100C000049F080914243909143430196809342433F
:100C100090934343809142439091434321E0843633
:100C2000910508F420E0222369F081E08093594384
:100C300010924243109243431092524310925343F6
:100C400010922F408091AB439091AC43892B71F16E
:100C50008091AB439091AC4301978093AB439093C9
:100C6000AC438091AB439091AC43892B09F044C0D5
:100C70008091544390915543892B41F08091544386
:100C800090915543039710F481E001C080E08823E0
:100C900041F0809154439091554380934C439093FD
:100CA0004D43109254431092554326C080915443B3
:100CB00090915543019741F48091254090912640B1
:100CC000019711F481E001C080E0882339F082E3CC
:100CD00090E08093AB439093AC430EC0809154431B
:100CE0009091554321E0039708F420E0222321F05E
:100CF00010925443109255438091AD439091AE436E
:100D0000892B71F18091AD439091AE43019780930F
:100D1000AD439093AE438091AD439091AE43892B08
:100D200009F044C080914E4390914F43892B41F08C
:100D300080914E4390914F43039710F481E001C09E
:100D400080E0882341F080914E4390914F438093FF
:100D500046439093474310924E4310924F4326C010
:100D600080914E4390914F43019741F480912740E9
:100D700090912840019711F481E001C080E0882320
:100D800039F082E390E08093AD439093AE430EC080
:100D900080914E4390914F4321E0039708F420E067
:100DA000222321F010924E4310924F438091AF4383
:100DB0009091B043892B71F18091AF439091B043F2
:100DC00001978093AF439093B0438091AF4390914C
:100DD000B043892B09F044C0809150439091514316
:100DE000892B41F08091504390915143039710F427
:100DF00081E001C080E0882341F0809150439091D0
:100E0000514380934843909349431092504310922A
:100E1000514326C08091504390915143019741F432
:100E20008091294090912A40019711F481E001C0FE
:100E300080E0882339F082E390E08093AF43909381
:100E4000B0430EC0809150439091514321E00397ED
:100E500008F420E0222321F01092504310925143D5
:100E60008091B1439091B243892B71F18091B1434C
:100E70009091B24301978093B1439093B243809194
:100E8000B1439091B243892B09F044C08091524301
:100E900090915343892B41F0809152439091534359
:100EA000049710F481E001C080E0882341F0809134
:100EB00052439091534380934A4390934B431092F3
:100EC00052431092534326C0809152439091534312
:100ED000019741F480912B4090912C40019711F49F
:100EE00081E001C080E0882339F082E390E08093C4
:100EF000B1439093B2430EC08091524390915343BB
:100F000021E0039708F420E0222321F010925243BD
:100F10001092534380912E4390912F4321E0892BCF
:100F200009F420E0222309F49BC080912E43909184
:100F30002F43892F881F8827881F8F8780912E43F2
:100F400090912F4399231CF49195819591098C835D
:100F50009D832091B3433091B44380912E4390916F
:100F60002F4341E02817390709F040E0442371F18D
:100F70008091B5439091B643892B49F08091B54358
:100F80009091B64301978093B5439093B643809177
:100F9000B5439091B643892B09F04BC084E893E0A8
:100FA000A0E0B0E08093094090930A40A0930B40EA
:100FB000B0930C408C819D8102972CF084E090E0EE
:100FC0008C839D8336C01C821D8233C08C819D81A1
:100FD00004974CF180915D43882351F010922F408B
:100FE0001092424310924343109252431092534343
:100FF0008F85882351F080912C4390912D43019748
:1010000080932C4390932D4309C080912C43909161
:101010002D43019680932C4390932D438C819D8189
:1010200004978C839D838BE490E08093B5439093E9
:10103000B6438F85882331F08C819D819195819570
:10104000910902C08C819D8180932E4390932F4300
:1010500080912E4390912F438093B3439093B44358
:1010600080E09BE023E0FC01268300002F96CDBFAB
:10107000DEBFDF91CF91FF91EF91BF91AF919F9133
:101080008F917F916F915F914F913F912F910F9031
:101090000BBE0F900FBE0F901F9018951F920F92CE
:1010A0000FB60F9211240BB60F922F938F939F932D
:1010B000EF93FF93CF93DF931F92CDB7DEB780E01E
:1010C00090E0FC018381898380E090E02FEFFC01B8
:1010D000238300000F90DF91CF91FF91EF919F91BB
:1010E0008F912F910F900BBE0F900FBE0F901F90FE
:1010F00018951F920F920FB60F9211240BB60F92F4
:101100002F938F939F93AF93BF93EF93FF93CF93BF
:10111000DF9300D01F92CDB7DEB784E190E0FC01F1
:101120008381898380912B43882309F45BC0898163
:10113000882F90E088719927892B09F453C080EAA1
:1011400094E0FC018085882F90E095958795959592
:1011500087959595879583708A838091B743882F6B
:1011600090E0880F991F880F991F982F8A81892BEB
:101170008B838B81882F90E0092E000CAA0BBB0B70
:101180000197A109B1098E309105A105B10538F586
:101190008353974FFC010C943C58DB08E508EF089B
:1011A000E508EF08EF08DB08DB08EF08EF08E508C3
:1011B000EF08E508DB0880912E4390912F430196BC
:1011C00080932E4390932F430AC080912E43909199
:1011D0002F43019780932E4390932F4300008A81E1
:1011E0008093B74380EA94E028E1FC012187000066
:1011F0002396CDBFDEBFDF91CF91FF91EF91BF91DD
:10120000AF919F918F912F910F900BBE0F900FBEBA
:101210000F901F9018950F931F93CF93DF931F92FA
:10122000CDB7DEB719828981893108F051C0898133
:10123000882F90E0092E000CAA0BBB0BBC01CD013E
:101240000E94EC55DC01CB012BED3FE049EC50E472
:10125000BC01CD010E944657DC01CB0120E030E00B
:1012600048EC51E4BC01CD010E944255DC01CB01A8
:10127000BC01CD010E94B357DC01CB0120E030E07E
:1012800040E751E4BC01CD010E944657DC01CB018F
:1012900020E030E040E751E4BC01CD010E94CC5495
:1012A000DC01CB012981022F10E0BC01CD010E949D
:1012B000BB55DC01CB019C01C801880F991F8B58DD
:1012C0009C4BFC012083318389818F5F8983ABCF65
:1012D00000000F90DF91CF911F910F910895CF9350
:1012E000DF9300D0CDB7DEB784E793E40E9481306E
:1012F00060E083E00E94A20160E087E00E94A2011A
:1013000084E690E089839A8389819A81892B79F098
:1013100080912843882331F089819A8101978983BC
:101320009A83F2CF84E690E089839A83EDCF000020
:101330000F900F90DF91CF910895CF93DF9300D05E
:10134000CDB7DEB789839A831092BA431092BB431C
:1013500089819A810A9761F48091B8439091B94349
:10136000880F991F86549C4BFC018081918154C049
:1013700089819A81892B29F41092B8431092B9433C
:1013800040C089819A81099781F48091B8439091F6
:10139000B943892BB1F18091B8439091B94301973A
:1013A0008093B8439093B9432CC08091B8439091F7
:1013B000B943880F991F86549C4BFC018081918111
:1013C00029813A8128173907E1F08091B84390913B
:1013D000B9434397B4F48091B8439091B9430196CF
:1013E0008093B8439093B9438091B8439091B943A7
:1013F000880F991F86549C4B29813A81FC012083D8
:1014000031838091B8439091B943880F991F8654D6
:101410009C4BFC01808191810F900F90DF91CF91C7
:101420000895EF92FF920F931F93CF93DF93CDB761
:10143000DEB7C456D109CDBFDEBF0E940B091982A9
:101440001A821B821C821D821E821F8218861986A8
:101450001A861B861C861D861E861F86188A198A78
:101460008FEF8A8B1B8A1C8A1D8A1E8A1F8A188E00
:1014700081E0898F1B8E0E9498010E9430508078F5
:101480008A8F68EE73E080E090E00E94D851882354
:1014900029F08A8D882311F081E001C080E0882343
:1014A00029F00E94305080788A8FEBCF84E793E454
:1014B0000E94C23884E793E40E949E318091594093
:1014C00090915A40A0915B40B0915C40BC01CD012D
:1014D0000E9479538BA79CA78BA59CA5892B49F0CB
:1014E0008091294390912A4382608093294390936D
:1014F0002A4380915340909154400E94F24660E804
:1015000073E48DE698E30E945D0180E090E00E9424
:101510006901DC01CB018DA79EA7AFA7B8AB60ED39
:1015200077E080E090E00E94D851882389F080E045
:1015300090E00E9469019B01AC018DA59EA5AFA51D
:10154000B8A982179307A407B50711F481E001C079
:1015500080E0882309F0E3CF80E090E00E946901F9
:101560009B01AC0161E08DA59EA5AFA5B8A982172E
:101570009307A407B50709F060E0662359F080914E
:10158000294390912A4381608093294390932A4371
:101590000E944E4662E070E08EE593E40E946A2667
:1015A0008091294390912A4321E0892B09F420E07E
:1015B000222399F141E069E070E089E693E40E941A
:1015C0000D436DE670E48AE693E40E94D624809190
:1015D000294390912A438270992721E0892B09F4AD
:1015E00020E0222331F066E770E48AE693E40E946B
:1015F000D6248091294390912A438170992721E034
:10160000892B09F420E0222309F4CDC06FE770E4B0
:101610008AE693E40E94D624C6C080E096E027E0E4
:10162000FC01208719AA1AAACE01895B9F4FFC01F1
:10163000108211821282138260E081E00E94101DEC
:101640001C8E1D8E8C8D9D8D84369105D4F50E9447
:10165000921B0E94A51B982F81E08927882309F0FF
:10166000F8CF80E096E0FC018089918989AB9AAB44
:1016700089A99AA9CC01A0E0B0E0BC01CD010E94EB
:10168000EA557B018C01CE01895B9F4FFC01808173
:101690009181A281B3819C01AD01C801B7010E9473
:1016A000CC54DC01CB019E01295B3F4FF9018083C3
:1016B0009183A283B3838C8D9D8D01968C8F9D8F9A
:1016C000C1CFCE01895B9F4FFC0180819181A281B6
:1016D000B38120E030E048EC52E4BC01CD010E942F
:1016E0004255DC01CB019E01295B3F4FF90180830C
:1016F0009183A283B38360E070E089E693E40E9463
:10170000F44268E870E48AE693E40E94D62461E932
:1017100070E48AE693E40E94D624CE01895B9F4F51
:10172000BC0181E00E947719292F2F938F938CE9B8
:1017300090E4892F8F938CE990E48F931F928DE032
:101740008F9384EC92E4892F8F9384EC92E48F93AF
:101750000E94B4592DB73EB7285F3F4FCDBFDEBFC3
:1017600064EC72E48AE693E40E94D62486EA90E46C
:10177000892F8F9386EA90E48F938BEA90E4892FE8
:101780008F938BEA90E48F9384EC92E4892F8F936C
:1017900084EC92E48F930E94EB590F900F900F907E
:1017A0000F900F900F9064EC72E48AE693E40E942D
:1017B000D62480E096E022E0FC01208761E080E012
:1017C0000E94101D0E94921B80913543882309F4CA
:1017D000E9C38AE090E00E949D098BAB9CAB898DA8
:1017E000882339F42BA93CA989819A8128173907C4
:1017F00029F1198E8BA99CA989839A838EE593E49C
:101800000E9479271E861F86188A198A8FEF8A8B75
:101810008FEF90E08B8B9C8B8FEF8D831D8A1E8AC0
:101820001F8A188E88E090E08A879B878BA99CA9E5
:10183000892B21F484E793E40E9481308BA99CA931
:10184000843091053CF4813091050CF009C2892B5C
:1018500069F0A8C38530910509F49DC385309105D1
:101860000CF493C1079709F477C39CC38091034498
:1018700090910444892B09F051C080915940909176
:101880005A40A0915B40B0915C4061E02E853F855D
:1018900048895989281739074A075B0709F460E026
:1018A000662309F4C8C08091594090915A40A09194
:1018B0005B40B0915C408E879F87A88BB98B8E85EB
:1018C0009F85A889B9899E01255B3F4FAC01BD0169
:1018D000C9010E944154CE01855B9F4F292F2F9350
:1018E0008F9384EB90E4892F8F9384EB90E48F9314
:1018F00084EC92E4892F8F9384EC92E48F930E947E
:10190000EB590F900F900F900F900F900F9064EC89
:1019100072E48AE693E40E94D6248DC09D818C8176
:10192000981709F488C08C818D83809159409091DB
:101930005A40A0915B40B0915C408E879F87A88BF6
:10194000B98B8C81882F90E080559D4BFC01808164
:101950008823C9F18C81882F90E080559D4BFC0134
:101960008081282F30E0C901880F991F880F991FA7
:10197000880F991F821B930B9C0128513E4B8D8130
:10198000882F90E00196432F4F932F93292F2F9369
:101990008F938DEB90E4892F8F938DEB90E48F9351
:1019A0001F928DE08F9384EC92E4892F8F9384ECC7
:1019B00092E48F930E94B4592DB73EB7265F3F4FF4
:1019C000CDBFDEBF32C08E859F85A889B9899E01B3
:1019D000255B3F4FAC01BD01C9010E9441548D817F
:1019E000882F90E001969E01255B3F4F432F4F9338
:1019F0002F93292F2F938F938DEB90E4892F8F9323
:101A00008DEB90E48F931F928DE08F9384EC92E4A2
:101A1000892F8F9384EC92E48F930E94B4594DB731
:101A20005EB7465F5F4FCDBFDEBF64EC72E48AE60F
:101A300093E40E94D624809108409A89981761F116
:101A4000809108408A8B80910840882F90E02AE09E
:101A500030E0F901E81BF90BCF01292F2F938F9369
:101A600088EC90E4892F8F9388EC90E48F9384EC3A
:101A700092E4892F8F9384EC92E48F930E94EB5928
:101A80000F900F900F900F900F900F9064EC72E4F6
:101A90008AE693E40E94D6248091214090912240CE
:101AA00041E02B893C892817390709F440E0442399
:101AB00031F180912140909122408B8B9C8B8C89BD
:101AC0008F938B898F9382ED90E4892F8F9382ED92
:101AD00090E48F9384EC92E4892F8F9384EC92E4CA
:101AE0008F930E94EB590F900F900F900F900F90D3
:101AF0000F9064EC72E48AE693E40E94D62480910D
:101B00003A4390913B43A0913C43B0913D432D8992
:101B10003E894F89588D281739074A075B0709F412
:101B20003CC280913A4390913B43A0913C43B09199
:101B30003D438D8B9E8BAF8BB88F888D8F938F8914
:101B40008F938E898F938D898F938BED90E4892F5E
:101B50008F938BED90E48F931F9287E08F9384ECAB
:101B600092E4892F8F9384EC92E48F930E94B4596E
:101B70002DB73EB7265F3F4FCDBFDEBF64EC72E4AA
:101B80008AE693E40E94D62408C22A853B858C8588
:101B90009D852817390709F402C28C859D858A879F
:101BA0009B878CE0E2EEF0E4A4ECB2E401900D92AD
:101BB0008A95E1F764EC72E48AE693E40E94D62405
:101BC0008DED91E4892F8F938DED91E48F938EEEBF
:101BD00090E4892F8F938EEE90E48F9384EC92E4BF
:101BE000892F8F9384EC92E48F930E94EB590F908E
:101BF0000F900F900F900F900F9064EC72E48AE6B4
:101C000093E40E94D6242C853D85C901880F991F35
:101C1000880F991F820F931F880F991F89569E4B1B
:101C2000292F2F938F938EEE90E4892F8F938EEE32
:101C300090E48F9384EC92E4892F8F9384EC92E468
:101C40008F930E94EB590F900F900F900F900F9071
:101C50000F9064EC72E48AE693E40E94D6249FC15C
:101C60008C81853108F01C828C81882F90E0880F50
:101C7000991F880F991F8B549B4BFC018081918188
:101C8000A281B3818E8F9F8FA8A3B9A38E8D9F8DC4
:101C9000A8A1B9A181309940AD43B10548F48E8D1A
:101CA0009F8DA8A1B9A1803E9746A543B10590F4A8
:101CB0008C81882F90E0880F991F880F991F8B5473
:101CC0009B4BFC0110821182128213821E8E1F8E8A
:101CD00018A219A29D818C81981771F42E813F81E1
:101CE000488559858E8D9F8DA8A1B9A128173907E0
:101CF0004A075B0709F455C18C818D838E8D9F8DBA
:101D0000A8A1B9A18E839F83A887B9878D81882FC9
:101D100090E00196292F2F938F9383EF90E4892FE2
:101D20008F9383EF90E48F931F928DE08F9384ECD9
:101D300092E4892F8F9384EC92E48F930E94B4599C
:101D40002DB73EB7285F3F4FCDBFDEBF64EC72E4D6
:101D50008AE693E40E94D6248D81882F90E0880F34
:101D6000991F880F991F8B549B4BFC018081918197
:101D7000A281B3818E8F9F8FA8A3B9A38E8D9F8DD3
:101D8000A8A1B9A1892B8A2B8B2B09F4D5C08E8DE4
:101D90009F8DA8A1B9A19E012A5A3F4FAC01BD0158
:101DA000C9010E9441548BA99CA9019709F069C0FF
:101DB000CE018A5A9F4F292F2F938F9381E091E470
:101DC000892F8F9381E091E48F931F928DE08F9301
:101DD00084EC92E4892F8F9384EC92E48F930E9499
:101DE000B4592DB73EB7285F3F4FCDBFDEBF64EC7F
:101DF00072E48AE693E40E94D6248C81882F90E0D6
:101E000080559D4BFC018081882389F18C81882F2E
:101E100090E080559D4BFC018081282F30E0C90166
:101E2000880F991F880F991F880F991F821B930B8A
:101E300088519E4B292F2F938F938AE091E4892F0D
:101E40008F938AE091E48F931F928DE08F9384ECBF
:101E500092E4892F8F9384EC92E48F930E94B4597B
:101E60002DB73EB7285F3F4FCDBFDEBF5EC08DE0D0
:101E7000E1E1F1E4A4ECB2E401900D928A95E1F77E
:101E800054C08BA99CA9029701F5CE018A5A9F4F95
:101E9000292F2F938F938EE191E4892F8F938EE1D9
:101EA00091E48F931F928DE08F9384EC92E4892FBD
:101EB0008F9384EC92E48F930E94B4594DB75EB730
:101EC000485F5F4FCDBFDEBF30C08C81882F90E070
:101ED00080559D4BFC018081282F30E0C901880F7F
:101EE000991F880F991F880F991F821B930B885188
:101EF0009E4B292F2F938F9387E291E4892F8F9305
:101F000087E291E48F931F928DE08F9384EC92E4AB
:101F1000892F8F9384EC92E48F930E94B4592DB74C
:101F20003EB7285F3F4FCDBFDEBF64EC72E48AE668
:101F300093E40E94D62435C08DE0E0E3F1E4A4EC04
:101F4000B2E401900D928A95E1F764EC72E48AE6BE
:101F500093E40E94D62425C089E0EDE3F1E4A4ECEB
:101F6000B2E401900D928A95E1F764EC72E48AE69E
:101F700093E40E94D6248DE0E6E4F1E4A4ECB2E41C
:101F800001900D928A95E1F764EC72E48AE693E49D
:101F90000E94D62407C0000005C0000003C0000056
:101FA00001C000008AE693E40E94B32321E0892B5C
:101FB00009F420E0222309F44BC0CE018F599F4F32
:101FC000AC0164EC72E48AE693E40E943925CE0108
:101FD0008F599F4FFC01808191810397C8F18091B7
:101FE000C4428DAB8091C5428EAB8DA980538FAB1F
:101FF0008EA9805388AF48AD6FA98EE593E40E9407
:102000008B27CE018F599F4FFC01808191819C01CC
:1020100022503109CE018F599F4FFC01208331831B
:10202000CE018F599F4FFC0180819181AC0166ECFC
:1020300072E48EE593E40E942728CE018F599F4FCA
:10204000AC0164EC72E48AE693E40E943925BFCFC8
:102050008091094090910A40A0910B40B0910C40B2
:1020600021E0892B8A2B8B2B09F020E02223F1F031
:102070008AE090E00E949D0921E0079709F420E0A2
:10208000222329F087E090E00E949D090FC08AE694
:1020900093E40E94B32321E0892B09F020E022235E
:1020A00029F00E946F0981E08093364380910640B9
:1020B0009091074021E0892B09F020E0222351F084
:1020C0000E946F0961E083E00E94A20161E087E065
:1020D0000E94A20180914C4390914D4321E0892BB5
:1020E00009F420E0222391F080914C4390914D43DC
:1020F00021E0019709F020E0222321F480914C4354
:1021000090914D4310924C4310924D43809158430F
:102110008823A9F0109258438AE090E00E949D091C
:1021200021E0892B09F020E0222329F084E090E0CF
:102130000E949D0904C080E090E00E949D0980916A
:1021400046439091474321E0892B09F420E0222364
:1021500009F46BC0809146439091474321E0019779
:1021600009F020E0222321F48091464390914743D7
:102170008AE090E00E949D0921E0892B09F420E08B
:10218000222309F44DC01B828C81882F90E0880F98
:10219000991F880F991F8B549B4BFC018081918163
:1021A000A281B381892B8A2B8B2BA9F561E08C81CD
:1021B0000E94CD1A8C838C818F3F29F410920344A6
:1021C0001092044428C080910344909104440197E4
:1021D00011F58C81882F90E0880F991F880F991F27
:1021E0008B549B4BFC0180819181A281B3818093B0
:1021F000594090935A40A0935B40B0935C408091CB
:10220000594090915A40A0915B40B0915C40BC0114
:10221000CD010E94E14A89E090E00E949D0901C041
:102220001B82109246431092474380913E43909107
:102230003F4380915643882309F45BC08AE090E0D5
:102240000E949D0921E0892B09F420E0222309F452
:102250004DC01B828C81882F90E0880F991F880FBA
:10226000991F8B549B4BFC0180819181A281B3818A
:10227000892B8A2B8B2BA9F561E08C810E94CD1ACA
:102280008C838C818F3F29F4109203441092044474
:1022900028C08091034490910444019711F58C81EA
:1022A000882F90E0880F991F880F991F8B549B4BA4
:1022B000FC0180819181A281B381809359409093E8
:1022C0005A40A0935B40B0935C40809159409091FC
:1022D0005A40A0915B40B0915C40BC01CD010E948E
:1022E000E14A80E090E00E949D0901C01B821092AB
:1022F0005643809148439091494321E0892B09F44A
:1023000020E0222309F483C08091484390914943FF
:1023100021E0019709F020E0222341F041E060E054
:1023200070E089E693E40E940D4314C08091484315
:102330009091494321E0029709F020E0222351F0D7
:1023400080915D43882331F09091234081E089277B
:10235000809323408AE090E00E949D0921E0892B30
:1023600009F420E0222309F44DC01B828C81882FC0
:1023700090E0880F991F880F991F8B549B4BFC018D
:1023800080819181A281B381892B8A2B8B2BA9F526
:1023900061E08C810E94CD1A8C838C818F3F29F45F
:1023A000109203441092044428C0809103449091F9
:1023B0000444019711F58C81882F90E0880F991FB4
:1023C000880F991F8B549B4BFC0180819181A281C6
:1023D000B3818093594090935A40A0935B40B0934F
:1023E0005C408091594090915A40A0915B40B091DF
:1023F0005C40BC01CD010E94E14A89E090E00E946E
:102400009D0901C01B82109248431092494380915C
:1024100040439091414380915743882309F45BC026
:102420008AE090E00E949D0921E0892B09F420E0D8
:10243000222309F44DC01B828C81882F90E0880FE5
:10244000991F880F991F8B549B4BFC0180819181B0
:10245000A281B381892B8A2B8B2BA9F561E08C811A
:102460000E94CD1A8C838C818F3F29F410920344F3
:102470001092044428C08091034490910444019731
:1024800011F58C81882F90E0880F991F880F991F74
:102490008B549B4BFC0180819181A281B3818093FD
:1024A000594090935A40A0935B40B0935C40809118
:1024B000594090915A40A0915B40B0915C40BC0162
:1024C000CD010E94E14A80E090E00E949D0901C098
:1024D0001B821092574380914A4390914B4321E0D5
:1024E000892B09F420E0222309F413C180914A4387
:1024F00090914B4321E0019709F020E0222309F459
:1025000041C08091034490910444892B41F461E0DF
:102510008C810E94CD1A8F3F11F081E001C080E0D4
:10252000882349F181E090E0809303449093044430
:102530008C81882F90E0880F991F880F991F8B54EA
:102540009B4BFC0180819181A281B3818093594092
:1025500090935A40A0935B40B0935C408091594067
:1025600090915A40A0915B40B0915C40BC01CD017C
:102570000E94E14A04C0109203441092044481E096
:10258000898FC3C080914A4390914B4321E00297C9
:1025900009F020E0222309F487C08AE090E00E943D
:1025A0009D098230910509F475C0833091052CF4A2
:1025B000009751F00197A9F0A8C08330910509F464
:1025C0006EC0049721F0A1C081E08B839EC08C85F2
:1025D0009D85892B09F096C081E090E00E949D09BD
:1025E00091C082E090E00E949D098C81882F90E04C
:1025F000880F991F880F991F8B549B4BFC0180817A
:102600009181A281B381892B8A2B8B2B09F07CC00D
:102610008091594090915A40A0915B40B0915C40AC
:1026200081309940AD43B10568F480915940909153
:102630005A40A0915B40B0915C40803E9746A543D4
:10264000B10510F481E001C080E0882361F080E3EF
:102650009BE2A6E3B0E08093594090935A40A09348
:102660005B40B0935C408C81282F30E080915940D2
:1026700090915A40A0915B40B0915C40220F331F73
:10268000220F331F2B543B4BF90180839183A2838C
:10269000B3833AC083E090E00E949D0936C089E090
:1026A00090E00E949D0931C080914A4390914B4334
:1026B00021E0039709F020E0222339F18AE090E03D
:1026C0000E949D0921E0029709F020E02223E9F011
:1026D0008C81882F90E0880F991F880F991F8B5449
:1026E0009B4BFC0110821182128213828C81882FF5
:1026F00090E080559D4BFC01108289E090E00E94A3
:102700009D0903C0000001C0000010924A431092CE
:102710004B43809142439091434380915943882396
:1027200011F01092594390915D4381E089278823ED
:1027300009F01B8E80912C4390912D4321E0892B31
:1027400009F420E0222309F47CC38091084089AF7A
:102750008CE390E0809306409093074080915D4326
:102760008B8F80912C4390912D43892F881F882730
:10277000881F882309F4B5C18AE090E00E949D0972
:102780008230910509F421C18330910534F400971A
:1027900061F0019709F4BFC09AC18330910509F433
:1027A00069C1049709F486C192C18B81882309F419
:1027B00074C08091034490910444892B09F040C077
:1027C0008091594090915A40A0915B40B0915C40FB
:1027D00021E081159940AD43B10508F020E02223A6
:1027E00009F449C080915D438823A9F08091594044
:1027F00090915A40A0915B40B0915C4088519C4FB1
:10280000AF4FBF4F8093594090935A40A0935B4085
:10281000B0935C4030C08091594090915A40A09153
:102820005B40B0915C408C599F4FAF4FBF4F80933E
:10283000594090935A40A0935B40B0935C401BC0BA
:1028400061E08C810E94CD1A8C838C81882F90E06E
:10285000880F991F880F991F8B549B4BFC01808117
:102860009181A281B3818093594090935A40A09363
:102870005B40B0935C408091594090915A40A09148
:102880005B40B0915C40BC01CD010E94E14A809167
:10289000A9438F5F8093A9432BC080915A4388231B
:1028A000C9F0809121409091224021E00A9708F0E0
:1028B00020E02223E9F0809121409091224001966E
:1028C00080932140909322408091A9438F5F809311
:1028D000A9430EC089AD882359F089AD815089AFD5
:1028E00089AD0E9431518091A9438F5F8093A943A4
:1028F00080E090E00E946C4DDC01CB018093594058
:1029000090935A40A0935B40B0935C400E94655105
:1029100080930840DCC08C818F5F8C838C818431F4
:1029200008F01C8281E0898F8C81882F90E09E01C5
:10293000225C3F4F880F991F880F991F8B549B4B28
:10294000FC0180819181A281B381F901808391830F
:10295000A283B383CE01CE96FC0180819181A281B6
:10296000B38181159940AD43B10510F5CE01CE96E6
:10297000FC0180819181A281B381813E9746A5436C
:10298000B105B0F08C81882F90E0880F991F880FD7
:10299000991F8B549B4BFC0180819181A281B38153
:1029A0008093594090935A40A0935B40B0935C4011
:1029B0008091594090915A40A0915B40B0915C4009
:1029C000BC01CD010E94E14A82C0809159409091A2
:1029D0005A40A0915B40B0915C4021E08115994044
:1029E000AD43B10508F020E0222369F180915D43F9
:1029F0008823A9F08091594090915A40A0915B4062
:102A0000B0915C4088519C4FAF4FBF4F809359406D
:102A100090935A40A0935B40B0935C4014C0809167
:102A2000594090915A40A0915B40B0915C408C59C4
:102A30009F4FAF4FBF4F8093594090935A40A09300
:102A40005B40B0935C408C81282F30E080915940EE
:102A500090915A40A0915B40B0915C40220F331F8F
:102A6000220F331F2B543B4BF90180839183A283A8
:102A7000B3832DC08C81882F90E080559D4BFC0145
:102A800080818AA38AA18F5F8AA381E09AA198316D
:102A900008F480E0882309F01AA28C81882F90E046
:102AA00080559D4B2AA1FC0120831E821F8218861F
:102AB00019860DC08C85882F90E001968C879D87A4
:102AC0008C859D85079711F41C861D8600008091DA
:102AD0002C4390912D43019680932C4390932D434A
:102AE000B0C18AE090E00E949D098230910509F40E
:102AF00019C18330910534F4009761F0019709F40E
:102B0000BFC096C18330910509F462C1049709F4EE
:102B10007DC18EC18B81882309F474C080910344E8
:102B200090910444892B09F040C0809159409091C4
:102B30005A40A0915B40B0915C4021E0813E9746B5
:102B4000A543B10508F420E0222309F449C080918F
:102B50005D438823A9F08091594090915A40A091FB
:102B60005B40B0915C40885E9340A109B1098093BD
:102B7000594090935A40A0935B40B0935C4030C062
:102B80008091594090915A40A0915B40B0915C4037
:102B900084569109A109B1098093594090935A40F4
:102BA000A0935B40B0935C401BC060E08C810E94AE
:102BB000CD1A8C838C81882F90E0880F991F880F05
:102BC000991F8B549B4BFC0180819181A281B38121
:102BD0008093594090935A40A0935B40B0935C40DF
:102BE0008091594090915A40A0915B40B0915C40D7
:102BF000BC01CD010E94E14A8091A9438F5F80937F
:102C0000A9432BC080915A438823C9F08091214069
:102C10009091224021E0029708F420E02223E9F07D
:102C20008091214090912240019780932140909380
:102C300022408091A9438F5F8093A9430EC089AD44
:102C40008A3058F489AD8F5F89AF89AD0E943151C8
:102C50008091A9438F5F8093A94380E090E00E9418
:102C60006C4DDC01CB018093594090935A40A09366
:102C70005B40B0935C400E94655180930840D8C08F
:102C80008C81882319F483E18C8303C08C8181506B
:102C90008C838C81882F90E0880F991F880F991F53
:102CA0008B549B4BFC0180819181A281B3818AAFBF
:102CB0009BAFACAFBDAF81E0898F8AAD9BADACADB2
:102CC000BDAD81159940AD43B105F8F48AAD9BAD1A
:102CD000ACADBDAD813E9746A543B105B0F08C814A
:102CE000882F90E0880F991F880F991F8B549B4B5A
:102CF000FC0180819181A281B3818093594090939E
:102D00005A40A0935B40B0935C40809159409091B1
:102D10005A40A0915B40B0915C40BC01CD010E9443
:102D2000E14A86C08091594090915A40A0915B4001
:102D3000B0915C4021E0813E9746A543B10508F47F
:102D400020E0222309F473C080915D438823A9F019
:102D50008091594090915A40A0915B40B0915C4065
:102D6000885E9340A109B1098093594090935A40DD
:102D7000A0935B40B0935C4014C080915940909107
:102D80005A40A0915B40B0915C4084569109A109E2
:102D9000B1098093594090935A40A0935B40B093FF
:102DA0005C408C81282F30E08091594090915A40AE
:102DB000A0915B40B0915C40220F331F220F331F64
:102DC0002B543B4BF90180839183A283B3832FC0A3
:102DD0008C81882F90E080559D4BFC0180818BA3D6
:102DE0008BA1882321F08BA181508BA302C087E1A6
:102DF0008BA38C81882F90E080559D4B2BA1FC01EB
:102E000020831E821F821886198612C08C858CA38F
:102E10008CA1882321F08CA181508CA302C086E074
:102E20008CA38CA1882F90E08C879D8701C0000027
:102E300080912C4390912D43019780932C43909344
:102E40002D4386EE93E40E94203E882309F4FDC1C1
:102E5000CE018D599F4FFC011082118280E090E8D5
:102E6000ABE1B4E4AC01BD0186EE93E40E947B3C8F
:102E70008E010E5B1F4FCE018D599F4FBC0186EE18
:102E800093E40E942E3EDC01CB01F8018083918304
:102E9000A283B383CE018D599F4FFC0120813181E4
:102EA000CE018A5B9F4F41E0233331050CF440E0B3
:102EB000FC014083CE018A5B9F4FFC01908181E041
:102EC0008927882309F4C1C180913140882309F4FE
:102ED00053C0809131408150809331408091E243D2
:102EE0009091E343A091E443B091E543BE016E5B52
:102EF0007F4F9C01AD01FB016081718182819381D3
:102F00000E94E956181684F4CE018E5B9F4FFC0197
:102F100080819181A281B3818093E2439093E343C6
:102F2000A093E443B093E5438091324090913340C5
:102F3000A0913440B0913540BE016E5B7F4F9C0143
:102F4000AD01FB0160817181828193810E943855BE
:102F500088230CF07AC1CE018E5B9F4FFC018081EB
:102F60009181A281B3818093324090933340A093AA
:102F70003440B093354069C119A61AA68091E24346
:102F80009091E343A091E443B091E543BE016E5BB1
:102F90007F4F9C01AD01FB01608171818281938132
:102FA0000E94E9561816B4F58091E2439091E343EC
:102FB000A091E443B091E54320E030E040EA50E4E2
:102FC000BC01CD010E944657DC01CB017C018D0183
:102FD000CE018E5B9F4FFC01208131814281538164
:102FE000C801B7010E94CC54DC01CB0120E030E0E5
:102FF00040EC50E4BC01CD010E944255DC01CB0104
:103000008093E2439093E343A093E443B093E5437A
:1030100081E089A78091324090913340A091344063
:10302000B0913540BE016E5B7F4F9C01AD01FB014D
:1030300060817181828193810E9438558823B4F523
:103040008091324090913340A0913440B09135400E
:1030500020E030E040EA50E4BC01CD010E94465738
:10306000DC01CB017C018D01CE018E5B9F4FFC0109
:103070002081318142815381C801B7010E94CC5423
:10308000DC01CB0120E030E040EC50E4BC01CD019C
:103090000E944255DC01CB01809332409093334033
:1030A000A0933440B093354081E08AA799A581E090
:1030B0008927882309F46FC09AA581E0892788238E
:1030C00009F469C08091E2439091E343A091E44305
:1030D000B091E54320E030E048E452E4BC01CD018A
:1030E0000E944657DC01CB017C018D01CE018E5B35
:1030F0009F4FFC012081318142815381C801B7017A
:103100000E94CC54DC01CB0120E030E04CE452E4DE
:10311000BC01CD010E944255DC01CB018093E2430A
:103120009093E343A093E443B093E543809132400E
:1031300090913340A0913440B091354020E030E090
:1031400048E452E4BC01CD010E944657DC01CB01AA
:103150007C018D01CE018E5B9F4FFC01208131816E
:1031600042815381C801B7010E94CC54DC01CB01DC
:1031700020E030E04CE452E4BC01CD010E94425515
:10318000DC01CB018093324090933340A0933440D4
:10319000B093354024C08091E2439091E343A091E5
:1031A000E443B091E5432091324030913340409167
:1031B000344050913540BC01CD010E94CC54DC011B
:1031C000CB0120E030E040E050E4BC01CD010E94A2
:1031D0004255DC01CB018DA39EA3AFA3B8A7CE01BE
:1031E0008E5B9F4F2DA13EA14FA158A5FC01608190
:1031F0007181828193810E94E956181634F580917D
:10320000E2439091E343A091E443B091E543BC01D4
:10321000CD010E94EE56DC01CB0120E030E040E21F
:1032200051E4BC01CD010E944657DC01CB01BC0139
:10323000CD010E94BB55DC01CB0180933A439093B2
:103240003B43A0933C43B0933D4380913643882356
:1032500011F40C94E40B89E693E40E94C6420E94A8
:103260006D5360E083E00E94A2010E94AA2982E0DF
:1032700090E00E94555081E08093374310920D40BA
:1032800010920E4080913643882309F180E590E04A
:10329000FC018081897F282F226080E590E0FC017D
:1032A0002083F89480E590E0FC01208180E590E0A7
:1032B0002160FC0120837894889580E590E0FC01F2
:1032C000208180E590E02E7FFC012083DBCF1092EF
:1032D00037430E94980161E083E00E94A2010E94AE
:1032E000975380910D4090910E400C94E40B0F93F6
:1032F0001F93CF93DF93CDB7DEB72997CDBFDEBF46
:103300008F83688779878AE390E48D839E8388859D
:103310009985892B61F088859985FC01808191814F
:10332000A281B38189839A83AB83BC8318C08091C7
:103330001D4090911E40880F991F885C9C4BFC019A
:1033400080819181CC01A0E0B0E0BC01CD010E9460
:10335000EA55DC01CB0189839A83AB83BC8320E0EF
:1033600030E040E953E469817A818B819C810E943D
:103370004657DC01CB0189839A83AB83BC8320E071
:1033800030E040E855E469817A818B819C810E941C
:103390004255DC01CB0189839A83AB83BC8320E057
:1033A00030E040E050E469817A818B819C810E9409
:1033B000CC54DC01CB0189839A83AB83BC838885A1
:1033C0009985892B69F089819A81AB81BC81809331
:1033D000364090933740A0933840B09339402EC088
:1033E0008091364090913740A0913840B09139405B
:1033F00020E030E040E151E4BC01CD010E9446579D
:10340000DC01CB0129813A814B815C81BC01CD017A
:103410000E94CC54DC01CB0120E030E040E251E4DA
:10342000BC01CD010E944255DC01CB0180933640A6
:1034300090933740A0933840B093394020E030E07B
:10344000A90169817A818B819C810E94E956882338
:103450000CF449C020E030E044E353E469817A8110
:103460008B819C810E9438551816ECF18F8188233E
:1034700029F18091364090913740A0913840B09129
:10348000394020E030E040E251E4BC01CD010E942F
:103490004255DC01CB010AE310E421E045E0BC0128
:1034A000CD010E945F58109240408AE390E40E9450
:1034B0007D1A8D839E838D819E8117C080913640B9
:1034C00090913740A0913840B09139400AE310E420
:1034D00020E044E0BC01CD010E945F5810923F40C3
:1034E0008AE390E402C08AE390E42996CDBFDEBF70
:1034F000DF91CF911F910F910895CF93DF9300D06B
:1035000000D0CDB7DEB78B839C838B819C81FC017F
:103510008081882F90E00E94A259892B31F08B8105
:103520009C8101968B839C83F0CF8B819C81FC01D5
:103530008081882319F48B819C8129C08B819C8197
:103540000E94AB5901972B813C81820F931F898385
:103550009A8329813A818B819C818217930780F419
:1035600089819A81FC018081882F90E00E94A25974
:10357000892B31F089819A81019789839A83E9CFD8
:1035800089819A810196FC0110828B819C8124960D
:10359000CDBFDEBFDF91CF910895CF93DF93CDB73D
:1035A000DEB72597CDBFDEBF8C836D838C818B8387
:1035B00019821A828D81882339F18A81882309F042
:1035C0004AC08981843108F046C089818F5F898330
:1035D0008B818F5F8B838B81843108F01B828B8181
:1035E000882F90E0880F991F880F991F8B549B4B51
:1035F000FC0180819181A281B381892B8A2B8B2B45
:10360000E1F281E08A83D9CF8A81882321F58981FB
:10361000843108F589818F5F89838B81882321F02C
:103620008B8181508B8302C083E18B838B81882FB8
:1036300090E0880F991F880F991F8B549B4BFC01BA
:1036400080819181A281B381892B8A2B8B2BE1F21E
:1036500081E08A83D9CF9A8181E08927882311F07C
:103660008FEF8B838B812596CDBFDEBFDF91CF910E
:103670000895CF93DF9300D000D0CDB7DEB7898314
:103680009A836B837C8389819A810197B1F48B81C2
:103690009C81019691F48EE593E40E94512689E67F
:1036A00093E40E942B4164E670E08AE693E40E9472
:1036B000172384E793E40E94C62989819A81892B84
:1036C00081F48B819C81019661F484E793E40E94EC
:1036D000D3298AE693E40E944B2389E693E40E946F
:1036E000384100002496CDBFDEBFDF91CF91089511
:1036F000CF93DF93CDB7DEB76FEF7FEF81E090E040
:103700000E94391BDF91CF910895CF93DF93CDB7FE
:10371000DEB76FEF7FEF80E090E00E94391BDF9112
:10372000CF910895CF93DF93CDB7DEB78091E74374
:103730009091E843892B29F080E096E021E0FC019C
:1037400022870000DF91CF910895CF93DF93CDB70B
:10375000DEB780E096E0FC018585882F90E08170DF
:10376000992721E0892B09F420E0822FDF91CF9166
:103770000895CF93DF93CDB7DEB780E694E0FC01E8
:10378000208980E694E0287FFC01208B80E694E08D
:10379000FC01208980E694E02460FC01208B80E617
:1037A00094E0FC01218980E694E0287FFC01218BD4
:1037B00080E694E0FC01218980E694E02460FC012D
:1037C000218B80E694E0FC01228980E694E0287F4A
:1037D000FC01228B80E694E0FC01228980E694E0E3
:1037E0002460FC01228B80E694E0FC01238980E6C2
:1037F00094E0287FFC01238B80E694E0FC01238980
:1038000080E694E02460FC01238B80E694E0FC01D8
:10381000248980E694E0287FFC01248B80E694E0F4
:10382000FC01248980E694E02460FC01248B80E67E
:1038300094E0FC01258980E694E0287FFC01258B3B
:1038400080E694E0FC01258980E694E02460FC0198
:10385000258B80E694E0FC01278980E694E0287FB0
:10386000FC01278B80E694E0FC01278980E694E048
:103870002460FC01278B80E694E0FC01208980E62F
:1038800094E0277FFC01208B80E694E0FC012189F5
:1038900080E694E0277FFC01218B80E694E0FC0128
:1038A000228980E694E0277FFC01228B80E694E069
:1038B000FC01238980E694E0277FFC01238B80E6CE
:1038C00094E0FC01248980E694E0277FFC01248BAE
:1038D00080E694E0FC01258980E694E0277FFC01E6
:1038E000258B80E694E0FC01278980E694E0277F21
:1038F000FC01278B0000DF91CF910895CF93DF93D8
:103900001F92CDB7DEB7898389818823D9F080EAF9
:1039100090E021E8FC01208380E096E02CE0FC01AF
:10392000228380E096E023E0FC01208380E096E0A3
:1039300021E0FC01248781E090E08093E7439093AD
:10394000E8431AC080EA90E021E8FC01208380E08F
:1039500096E02CE0FC01228380E096E027E0FC0169
:10396000208380E096E021E0FC01248781E090E064
:103970008093E7439093E84300000F90DF91CF914D
:103980000895CF93DF931F92CDB7DEB789838981E6
:10399000882319F180EA90E021E0FC01208380E097
:1039A00096E021E0FC01228380E096E0FC0120818A
:1039B00080E096E02160FC01208380E096E0FC013D
:1039C000248580E096E02E7FFC01248782E090E051
:1039D0008093E7439093E8431EC080EA90E021E0A3
:1039E000FC01208380E096E021E0FC01228380E05E
:1039F00096E025E0FC01208380E096E0FC01248530
:103A000080E096E02E7FFC01248782E090E08093A6
:103A1000E7439093E84300000F90DF91CF91089522
:103A2000CF93DF9300D0CDB7DEB789836A830E943E
:103A3000B91B8A81882321F089810E947E1C03C0E2
:103A400089810E94C11C00000F900F90DF91CF91DF
:103A500008950F931F93CF93DF9300D000D0CDB77D
:103A6000DEB789839A836B837C8389819A810197EE
:103A700081F48B819C81019661F400E014E029E5DA
:103A800036E440E050E06AEC72E486EE93E40E9493
:103A9000D03B89819A81892B41F48B819C8101964D
:103AA00021F486EE93E40E94683C00002496CDBF8A
:103AB000DEBFDF91CF911F910F910895CF93DF93D8
:103AC000CDB7DEB76FEF7FEF81E090E00E94291D58
:103AD000DF91CF910895CF93DF93CDB7DEB76FEF2E
:103AE0007FEF80E090E00E94291DDF91CF91089543
:103AF000CF93DF93CDB7DEB72597CDBFDEBF8B83E6
:103B00006C837D838B81882F90E0805F9B4F8983BE
:103B10009A838C819D81019759F489819A81FC0156
:103B20008081282F286089819A81FC0120830EC022
:103B30008C819D81892B51F489819A81FC0180813E
:103B4000282F277F89819A81FC01208300002596F8
:103B5000CDBFDEBFDF91CF910895CF93DF9300D02B
:103B60001F92CDB7DEB789836A837B838A819B816D
:103B700081309105E9F08230910581F1892B09F0BE
:103B80003DC080E090E0FC018081482F8981282F92
:103B900030E081E090E002C0880F991F2A95E2F79B
:103BA0008095242F282380E090E0FC01208326C00C
:103BB00080E090E0FC018081482F8981282F30E04F
:103BC00081E090E002C0880F991F2A95E2F7242F28
:103BD000282B80E090E0FC01208310C08981882F91
:103BE00090E0805F9B4FFC0120818981882F90E0CD
:103BF000805F9B4F2860FC0120830000000023961B
:103C0000CDBFDEBFDF91CF910895CF93DF9300D07A
:103C1000CDB7DEB789836A838A818823B1F080E0DB
:103C200090E0FC018181482F8981282F30E081E0DC
:103C300090E002C0880F991F2A95E2F7242F282BC5
:103C400080E090E0FC01218316C080E090E0FC0160
:103C50008181482F8981282F30E081E090E002C0E7
:103C6000880F991F2A95E2F78095242F282380E05A
:103C700090E0FC01218300000F900F90DF91CF9125
:103C80000895CF93DF93CDB7DEB780E090E0FC01DD
:103C90008281DF91CF910895CF93DF9300D01F925F
:103CA000CDB7DEB789836A837B838A819B8181302C
:103CB0009105E9F08230910581F1892B09F03DC031
:103CC00084E090E0FC018081482F8981282F30E03A
:103CD00081E090E002C0880F991F2A95E2F7809555
:103CE000242F282384E090E0FC01208326C084E078
:103CF00090E0FC018081482F8981282F30E081E00D
:103D000090E002C0880F991F2A95E2F7242F282BF4
:103D100084E090E0FC01208310C08981882F90E02E
:103D2000805D9B4FFC0120818981882F90E0805D20
:103D30009B4F2860FC012083000000002396CDBF2C
:103D4000DEBFDF91CF910895CF93DF9300D0CDB741
:103D5000DEB789836A838A818823B1F084E090E0AA
:103D6000FC018181482F8981282F30E081E090E09B
:103D700002C0880F991F2A95E2F7242F282B84E090
:103D800090E0FC01218316C084E090E0FC01818179
:103D9000482F8981282F30E081E090E002C0880F11
:103DA000991F2A95E2F78095242F282384E090E03C
:103DB000FC01218300000F900F90DF91CF910895B7
:103DC000CF93DF93CDB7DEB72597CDBFDEBF8B8313
:103DD0006C837D838B81882F90E0805B9B4F8983F0
:103DE0009A838C819D81019759F489819A81FC0184
:103DF0008081282F286089819A81FC0120830EC050
:103E00008C819D81892B51F489819A81FC0180816B
:103E1000282F277F89819A81FC0120830000259625
:103E2000CDBFDEBFDF91CF910895CF93DF9300D058
:103E30001F92CDB7DEB789836A837B838A819B819A
:103E400081309105E9F08230910581F1892B09F0EB
:103E50003DC088E090E0FC018081482F8981282FB7
:103E600030E081E090E002C0880F991F2A95E2F7C8
:103E70008095242F282388E090E0FC01208326C031
:103E800088E090E0FC018081482F8981282F30E074
:103E900081E090E002C0880F991F2A95E2F7242F55
:103EA000282B88E090E0FC01208310C08981882FB6
:103EB00090E0805B9B4FFC0120818981882F90E0FE
:103EC000805B9B4F2860FC0120830000000023964C
:103ED000CDBFDEBFDF91CF910895CF93DF9300D0A8
:103EE000CDB7DEB789836A838A818823B1F088E001
:103EF00090E0FC018181482F8981282F30E081E00A
:103F000090E002C0880F991F2A95E2F7242F282BF2
:103F100088E090E0FC01218316C088E090E0FC017D
:103F20008181482F8981282F30E081E090E002C014
:103F3000880F991F2A95E2F78095242F282388E07F
:103F400090E0FC01218300000F900F90DF91CF9152
:103F50000895CF93DF9300D01F92CDB7DEB789834A
:103F60006A837B838A819B8181309105E9F082306D
:103F7000910581F1892B09F03DC080E190E0FC01C1
:103F80008081482F8981282F30E081E090E002C0B5
:103F9000880F991F2A95E2F78095242F282380E126
:103FA00090E0FC01208326C080E190E0FC0180814C
:103FB000482F8981282F30E081E090E002C0880FEF
:103FC000991F2A95E2F7242F282B80E190E0FC012D
:103FD000208310C08981882F90E080579B4FFC017F
:103FE00020818981882F90E080579B4F2860FC01B9
:103FF0002083000000002396CDBFDEBFDF91CF916C
:104000000895CF93DF9300D0CDB7DEB789836A835D
:104010008A818823B1F080E190E0FC018181482F02
:104020008981282F30E081E090E002C0880F991F3D
:104030002A95E2F7242F282B80E190E0FC012183D0
:1040400016C080E190E0FC018181482F8981282FF2
:1040500030E081E090E002C0880F991F2A95E2F7D6
:104060008095242F282380E190E0FC01218300002B
:104070000F900F90DF91CF910895CF93DF93CDB73D
:10408000DEB72597CDBFDEBF8B836C837D838B81AD
:10409000882F90E080559B4F89839A838C819D81E6
:1040A000019759F489819A81FC018081282F286029
:1040B00089819A81FC0120830EC08C819D81892B8E
:1040C00051F489819A81FC018081282F277F898181
:1040D0009A81FC01208300002596CDBFDEBFDF91D1
:1040E000CF910895CF93DF9300D01F92CDB7DEB765
:1040F00089836A837B838A819B8181309105E9F082
:104100008230910581F1892B09F03DC084E190E076
:10411000FC018081482F8981282F30E081E090E0E8
:1041200002C0880F991F2A95E2F78095242F282333
:1041300084E190E0FC01208326C084E190E0FC0152
:104140008081482F8981282F30E081E090E002C0F3
:10415000880F991F2A95E2F7242F282B84E190E0FD
:10416000FC01208310C08981882F90E080559B4FEF
:10417000FC0120818981882F90E080559B4F286029
:10418000FC012083000000002396CDBFDEBFDF913D
:10419000CF910895CF93DF9300D0CDB7DEB7898359
:1041A0006A838A818823B1F084E190E0FC018181F7
:1041B000482F8981282F30E081E090E002C0880FED
:1041C000991F2A95E2F7242F282B84E190E0FC0127
:1041D000218316C084E190E0FC018181482F898110
:1041E000282F30E081E090E002C0880F991F2A95C7
:1041F000E2F78095242F282384E190E0FC012183BD
:1042000000000F900F90DF91CF910895CF93DF932F
:10421000CDB7DEB784E190E0FC018281DF91CF91E0
:104220000895CF93DF93CDB7DEB78091ED438093B0
:10423000EE438091EC438093ED438091EA43809379
:10424000EB438091E9438093EA430E94411E8093AF
:10425000E9430E9406218093EC439091E9438091C9
:10426000EF4398272091EA438091EF4382279823D8
:104270002091EB438091EF43822798238091EF4375
:1042800089278093EF439091EC438091F0439827E6
:104290002091ED438091F043822798232091EE43B3
:1042A0008091F043822798238091F043892780935F
:1042B000F0430000DF91CF910895CF93DF93CDB706
:1042C000DEB78091EF43DF91CF910895CF93DF93D5
:1042D000CDB7DEB760E070E080E00E94AD1D61E028
:1042E00070E080E00E94781D60E070E081E00E9454
:1042F000AD1D61E070E081E00E94781D60E070E03B
:1043000082E00E94AD1D61E070E082E00E94781DB5
:1043100061E070E083E00E94AD1D61E083E00E94F7
:10432000051E60E070E084E00E94AD1D61E070E079
:1043300084E00E94781D61E070E085E00E94AD1D80
:1043400060E085E00E94051E61E070E086E00E946A
:10435000AD1D60E086E00E94051E61E070E087E030
:104360000E94AD1D61E087E00E94051E61E070E0E3
:1043700084E00E944C1E61E084E00E94A41E60E084
:1043800070E082E00E94151F61E070E082E00E9410
:10439000E01E60E070E083E00E94151F61E070E0C5
:1043A00083E00E94E01E61E070E084E00E94151F3F
:1043B00060E084E00E946D1F61E070E085E00E9493
:1043C000151F60E085E00E946D1F60E070E080E0F6
:1043D0000E94A91F60E070E081E00E94A91F61E0D7
:1043E00070E082E00E94A91F60E082E00E9401204C
:1043F00060E070E083E00E94A91F62E070E080E06E
:104400000E94722062E070E081E00E94722060E011
:1044100070E082E00E94722061E070E082E00E9421
:104420003D2060E070E083E00E94722060E070E078
:1044300084E00E94722060E070E085E00E947220BB
:1044400061E070E085E00E943D2062E070E086E07F
:104450000E94722080EA94E0FC01238980EA94E0C3
:104460002160FC01238B80EA94E0FC01248980EA2E
:1044700094E02160FC01248B80EA94E028E1FC01B7
:1044800021870000DF91CF910895CF93DF93CDB7BF
:10449000DEB760E070E080E00E94AD1D60E070E09B
:1044A00080E00E94781D60E070E081E00E94AD1D18
:1044B00060E070E081E00E94781D60E070E082E0E2
:1044C0000E94AD1D60E070E082E00E94781D61E016
:1044D00070E083E00E94AD1D60E083E00E94051E55
:1044E00060E070E084E00E94AD1D60E070E084E078
:1044F0000E94781D61E070E085E00E94AD1D60E0E3
:1045000085E00E94051E61E070E086E00E94AD1D1E
:1045100060E086E00E94051E61E070E087E00E9496
:10452000AD1D60E087E00E94051E61E070E084E060
:104530000E944C1E60E084E00E94A41E60E070E0D7
:1045400082E00E94151F61E070E082E00E94E01EA0
:1045500060E070E083E00E94151F61E070E083E09E
:104560000E94E01E61E070E084E00E94151F60E0A0
:1045700084E00E946D1F61E070E085E00E94151FDD
:1045800060E085E00E946D1F60E070E080E00E94C6
:10459000A91F60E070E081E00E94A91F61E070E067
:1045A00082E00E94A91F60E082E00E94012060E09A
:1045B00070E083E00E94A91F62E070E080E00E944A
:1045C000722062E070E081E00E94722061E070E0A1
:1045D00082E00E94722060E082E00E94CA2060E0D7
:1045E00070E083E00E94722060E070E084E00E944E
:1045F000722061E070E085E00E94722060E085E05A
:104600000E94CA2062E070E086E00E9472200000F2
:10461000DF91CF910895CF93DF93CDB7DEB780E8D8
:1046200090E0FC01118680E0DF91CF910895CF9357
:10463000DF9300D000D0CDB7DEB789839A836B8338
:104640007C838B819C810E947D589C0189819A8109
:10465000FC012583368389819A812B813C81FC0171
:104660002783308789819A81FC0110821182898198
:104670009A81FC011282138289819A81FC01148241
:1046800089819A81FC01118600002496CDBFDEBF8E
:10469000DF91CF910895CF93DF9300D0CDB7DEB7F0
:1046A00089839A8389819A81FC01858196810E9400
:1046B000195900000F900F90DF91CF910895CF937B
:1046C000DF9300D0CDB7DEB789839A8389819A8141
:1046D000FC012281338189819A81FC01208331830D
:1046E00089819A81FC01148289819A81FC01118659
:1046F00000000F900F90DF91CF910895CF93DF933B
:1047000000D0CDB7DEB789839A8389819A81FC0175
:10471000948181E08927882379F089819A81FC013D
:104720002081318189819A81FC01828193812817BE
:10473000390711F481E001C080E00F900F90DF9104
:10474000CF910895CF93DF9300D0CDB7DEB78983A3
:104750009A8389819A81FC01878190850F900F90BF
:10476000DF91CF910895CF93DF9300D000D0CDB7E4
:10477000DEB78B839C838B819C81FC018781908534
:1047800089839A838B819C81FC01948181E08927B4
:10479000882399F18B819C81FC01208131818B815F
:1047A0009C81FC0182819381281739078CF08B81D1
:1047B0009C81FC01208131818B819C81FC01828163
:1047C0009381A901481B590BCA0189839A8315C09B
:1047D0008B819C81FC01878190852B813C81F90133
:1047E00020813181820F931F2B813C81F90122812D
:1047F0003381821B930B89839A8389819A812496C2
:10480000CDBFDEBFDF91CF9108950F931F93CF935C
:10481000DF9300D000D0CDB7DEB78B839C831982A5
:104820001A828B819C81FC01948181E089278823F5
:1048300079F08B819C810E94A2238C018B819C81C9
:104840000E94B3239801281B390BC90189839A83DD
:1048500089819A812496CDBFDEBFDF91CF911F91D0
:104860000F910895CF93DF9300D01F92CDB7DEB79D
:1048700089839A836B8389819A81FC0185819681E2
:1048800029813A81F90120813181820F931F2B8187
:10489000FC01208389819A81FC0184818823B1F005
:1048A00089819A81FC01828193810196AC01898181
:1048B0009A81FC0127813085CA01B9010E940658FE
:1048C0009C0189819A81FC012283338389819A81A9
:1048D000FC01808191810196AC0189819A81FC0162
:1048E00027813085CA01B9010E9406589C0189813F
:1048F0009A81FC012083318389819A81FC01208186
:10490000318189819A81FC018281938141E028175C
:10491000390709F040E089819A81FC014483000055
:104920002396CDBFDEBFDF91CF910895CF93DF9364
:1049300000D01F92CDB7DEB78A839B838A819B818B
:104940000E947E23882311F080E02AC08A819B8107
:10495000FC01858196812A813B81F9012281338185
:10496000820F931FFC01808189838A819B81FC01D6
:1049700014828A819B81FC01828193810196AC0122
:104980008A819B81FC0127813085CA01B9010E947F
:1049900006589C018A819B81FC0122833383898193
:1049A0002396CDBFDEBFDF91CF910895CF93DF93E4
:1049B000CDB7DEB72897CDBFDEBF8D839E836F83D3
:1049C000788781E08C838D819E81FC01848188239E
:1049D00011F08C8148C08F8198850E94AB598A83E1
:1049E0009B838D819E810E9405249C0141E08A81E8
:1049F0009B812817390708F040E0442311F08C818F
:104A000032C019828981882F90E02A813B818217E8
:104A10009307C0F48D819E81FC018481882391F4E9
:104A2000898191E0980F9983882F90E02F813885B4
:104A3000820F931FFC0120818D819E81622F0E9435
:104A40003224E0CF8D819E81FC01948181E0892711
:104A5000882329F08D819E8160E00E9432248D811F
:104A60009E81FC0184812896CDBFDEBFDF91CF916E
:104A70000895CF93DF93CDB7DEB72897CDBFDEBFC4
:104A80008B839C836D837E834F8358878B819C812E
:104A90000E947E23882371F08D819E81FC0110820B
:104AA0008F819885892B79F18F819885FC011082FF
:104AB000118229C019828B819C810E9496248A834D
:104AC00081E09A81992309F480E0882371F089813B
:104AD00091E0980F9983882F90E02D813E81820F7D
:104AE000931F2A81FC012083E6CF8F819885892B33
:104AF00061F08981282F30E08F819885FC01208327
:104B00003183000002C0000001C000002896CDBF24
:104B1000DEBFDF91CF910895CF93DF9300D01F9236
:104B2000CDB7DEB789839A836B8389819A814B8164
:104B300068ED0E94A24500002396CDBFDEBFDF9145
:104B4000CF910895CF93DF93CDB7DEB765E88CE7BB
:104B500090E00E948C2565E288E690E00E948C251A
:104B600080E0DF91CF910895CF93DF93CDB7DEB78B
:104B7000789480E0DF91CF910895CF93DF93CDB704
:104B8000DEB780EA90E021E8FC0122830000DF919B
:104B9000CF910895CF93DF93CDB7DEB70E94BD25A7
:104BA00080E694E0FC01268980E694E0287FFC0101
:104BB000268B80E694E0FC01268980E694E0246060
:104BC000FC01268B80E694E0FC01268980E694E0D7
:104BD000277FFC01268B80EA96E021E4FC012083FC
:104BE0000000DF91CF910895CF93DF9300D0CDB730
:104BF000DEB789839A83298180EA96E02295220F85
:104C0000220F207CFC01228389819A819C013695A8
:104C100027953695279580EA96E0FC0123830000CE
:104C20000F900F90DF91CF910895CF93DF9300D035
:104C3000CDB7DEB789836A838A818823B1F084E0A7
:104C400090E0FC018181482F8981282F30E081E0AC
:104C500090E002C0880F991F2A95E2F7242F282B95
:104C600084E090E0FC01218316C084E090E0FC0128
:104C70008181482F8981282F30E081E090E002C0B7
:104C8000880F991F2A95E2F78095242F282384E026
:104C900090E0FC01218300000F900F90DF91CF91F5
:104CA0000895CF93DF9300D0CDB7DEB789839A8381
:104CB00024E932E489819A81FC012083318389814E
:104CC0009A8128E7FC01268300000F900F90DF9166
:104CD000CF910895CF93DF9300D000D0CDB7DEB74A
:104CE00089839A836B837C8389819A812B813C8120
:104CF000FC01228333838B819C818130910581F07B
:104D000082309105C1F0892B09F589819A8124E1CE
:104D1000FC01248389819A8124E0FC01258316C04B
:104D200089819A8120E1FC01248389819A8124E090
:104D3000FC0125830BC089819A812AE0FC01248330
:104D400089819A8124E0FC012583000089819A8170
:104D500020E8FC01218789819A8124E0FC012287D7
:104D60000E940E3F89819A810E94D52689819A816D
:104D70000E94FC2689819A810E94792789819A81E3
:104D800022E0FC01278389819A81FC018781282FF9
:104D9000246089819A81622F0E94E3270000249673
:104DA000CDBFDEBFDF91CF910895CF93DF9300D0C9
:104DB000CDB7DEB789839A8362E370E080E090E04C
:104DC0000E94D85160E084E00E94152664E070E003
:104DD00080E090E00E94D85161E084E00E941526B6
:104DE00064E170E080E090E00E94D85100000F90F4
:104DF0000F90DF91CF910895CF93DF9300D0CDB77F
:104E0000DEB789839A8389819A816AE30E94E327C6
:104E100089819A8169E00E94E32789819A8166E00D
:104E20000E94E32789819A816EE10E94E3278981AC
:104E30009A8169E30E94E32789819A816BE10E944C
:104E4000E32789819A81FC018281938181309105D8
:104E5000A9F08230910511F1892B81F589819A8120
:104E60006EE60E94E32789819A8167E50E94E32725
:104E700089819A8162E70E94E32720C089819A8113
:104E80006CE60E94E32789819A8166E50E94E32708
:104E900089819A816BE60E94E32710C089819A81FB
:104EA0006EE60E94E32789819A8166E50E94E327E6
:104EB00089819A816AE70E94E327000089819A81AB
:104EC00068E30E94E32789819A8124E0FC0120871E
:104ED00089819A81FC018085282F286089819A81A7
:104EE000622F0E94E32700000F900F90DF91CF9177
:104EF0000895CF93DF9300D0CDB7DEB789839A832F
:104F000089819A8161E00E94E32700000F900F9051
:104F1000DF91CF910895CF93DF9300D000D0CDB72C
:104F2000DEB789839A836B834C8389819A81FC01E4
:104F30008185282F8B81982F9295990F907E8C8157
:104F4000890F822B282F89819A81622F0E94E32763
:104F500000002496CDBFDEBFDF91CF910895CF939F
:104F6000DF9300D01F92CDB7DEB789839A836B831E
:104F700089819A816B810E94052881E090E02396C7
:104F8000CDBFDEBFDF91CF910895CF93DF93CDB733
:104F9000DEB72697CDBFDEBF89839A836B837C8380
:104FA0004D835E834D815E812B813C8189819A8115
:104FB000B9010E9427288D819E812696CDBFDEBF34
:104FC000DF91CF910895CF93DF93CDB7DEB72597CB
:104FD000CDBFDEBF8B839C836D838D8189838B8165
:104FE0009C8121E0AE014F5F5F4F60E00E94492845
:104FF000882319F080EE90E002C080E090E02596D2
:10500000CDBFDEBFDF91CF910895CF93DF93CDB7B2
:10501000DEB72597CDBFDEBF8B839C836D838D81EB
:1050200089838B819C8121E0AE014F5F5F4F60E4FB
:105030000E944928882319F080EE90E002C080E0A9
:1050400090E02596CDBFDEBFDF91CF910895CF933D
:10505000DF93CDB7DEB72697CDBFDEBF89839A83B6
:105060006B837C834D835E832D814B815C81898141
:105070009A8160E40E944928882319F080EE90E02C
:1050800002C080E090E02696CDBFDEBFDF91CF91D9
:105090000895CF93DF93CDB7DEB72897CDBFDEBF9E
:1050A0008B839C836D834E835F83288785E0898310
:1050B00089819FEF980F99838823C1F08B819C8110
:1050C000FC0136818E819F812885AC016D81832F03
:1050D0000E94DE3F282F81E09885921709F480E036
:1050E0008A838A81882311F081E001C080E08823CF
:1050F00009F0DECF8A812896CDBFDEBFDF91CF9148
:105100000895CF93DF9300D01F92CDB7DEB7898388
:105110006A837B838A819B8181309105E9F08230AB
:10512000910581F1892B09F03DC088E090E0FC01F8
:105130008081482F8981282F30E081E090E002C0F3
:10514000880F991F2A95E2F78095242F282388E05D
:1051500090E0FC01208326C088E090E0FC01808183
:10516000482F8981282F30E081E090E002C0880F2D
:10517000991F2A95E2F7242F282B88E090E0FC0164
:10518000208310C08981882F90E0805B9B4FFC01B9
:1051900020818981882F90E0805B9B4F2860FC01F3
:1051A0002083000000002396CDBFDEBFDF91CF91AA
:1051B0000895CF93DF9300D0CDB7DEB789836A839C
:1051C0008A818823B1F088E090E0FC018181482F3A
:1051D0008981282F30E081E090E002C0880F991F7C
:1051E0002A95E2F7242F282B88E090E0FC01218308
:1051F00016C088E090E0FC018181482F8981282F2A
:1052000030E081E090E002C0880F991F2A95E2F714
:105210008095242F282388E090E0FC012183000062
:105220000F900F90DF91CF910895CF93DF9300D02F
:10523000CDB7DEB789839A8389819A81BC0185E0E5
:105240000E94812800000F900F90DF91CF91089568
:10525000CF93DF9300D0CDB7DEB789839A8389815E
:105260009A81BC0184E00E94812800000F900F9079
:10527000DF91CF910895CF93DF931F92CDB7DEB723
:105280008983698185E00E94D92800000F90DF9111
:10529000CF910895CF93DF931F92CDB7DEB7898367
:1052A000698184E00E94D92800000F90DF91CF919E
:1052B0000895CF93DF9300D0CDB7DEB719828981EF
:1052C000883098F48981882F90E0805F9B4FFC01A3
:1052D00020818981882F90E0805F9B4F2860FC01AE
:1052E000208389818F5F8983EACF1A828A818830FF
:1052F00098F48A81882F90E0805D9B4FFC0120818B
:105300008A81882F90E0805D9B4F2860FC0120837C
:105310008A818F5F8A83EACF00000F900F90DF9120
:10532000CF910895CF93DF93CDB7DEB70E9459296F
:105330000E94A2250E94FD500E946E510E9466218B
:105340000E94B4250E9449500E940B230000DF9167
:10535000CF910895CF93DF93CDB7DEB70E9459293F
:105360000E9445530E94452281E090E00E94152949
:1053700080E00E943B2981E090E00E94282980E0A3
:105380000E944A290000DF91CF910895CF93DF93C7
:1053900000D0CDB7DEB789839A8300000F900F90BD
:1053A000DF91CF910895CF93DF9300D0CDB7DEB7D3
:1053B00089839A8300000F900F90DF91CF91089519
:1053C000CF93DF9300D01F92CDB7DEB789839A8346
:1053D0006B8380E090E1FC018281882F90E08270F5
:1053E000992721E0892B09F420E0222309F0F1CF4D
:1053F0008DE993E184BF9093001089819A819C5E2E
:105400002B81FC0120838DE990E084BF90930010F4
:1054100000002396CDBFDEBFDF91CF910895CF93DB
:10542000DF9300D000D0CDB7DEB789839A836B833A
:105430007C8380E090E1FC018281882F90E0827083
:10544000992721E0892B09F420E0222309F0F1CFEC
:105450008DE993E184BF9093001089819A819C5ECD
:105460009C018B819C81F901808391838DE990E07F
:1054700084BF9093001000002496CDBFDEBFDF9163
:10548000CF910895CF93DF93CDB7DEB72697CDBFE9
:10549000DEBF89839A834B835C836D837E8380E048
:1054A00090E1FC018281882F90E08270992721E0B1
:1054B000892B09F420E0222309F0F1CF8DE993E153
:1054C00084BF9093001089819A819C5E9C018B819E
:1054D0009C81AD81BE81F90180839183A283B383D6
:1054E0008DE990E084BF9093001000002696CDBF18
:1054F000DEBFDF91CF910895CF93DF93CDB7DEB7B5
:105500002697CDBFDEBF89839A834B835C836D83EF
:105510007E8380E090E1FC018281882F90E08270A0
:10552000992721E0892B09F420E0222309F0F1CF0B
:105530008DE993E184BF9093001089819A819C5EEC
:105540009C018B819C81AD81BE81F9018083918317
:10555000A283B3838DE990E084BF90930010000094
:105560002696CDBFDEBFDF91CF910895CF92DF9217
:10557000EF92FF920F931F93CF93DF93CDB7DEB7D8
:10558000EC97CDBFDEBF8FAB98AF69AF7AAF4BAFB3
:105590005CAF8BAD9CAD892B09F468C589AD9AAD24
:1055A0008D3A910509F434C28E3A91050CF057C03A
:1055B0008837910509F456C2893791053CF5863143
:1055C000910509F42FC18731910564F48630910566
:1055D00009F46BC38E30910509F488C3892B09F453
:1055E0001BC483C58A34910509F4D8C08B34910556
:1055F00024F4C09709F45AC178C58436910509F49A
:1056000099C18237910509F418C26FC58039910597
:1056100009F48DC3813991056CF48438910509F43E
:105620004BC28A38910509F45CC28E37910509F4A2
:105630002EC25BC58D39910509F498C08E3991054C
:105640002CF48539910509F470C04FC5833A910552
:1056500009F4B4C1883A910509F4C5C146C5883E2C
:10566000910509F4E0C2893E91054CF5843C910511
:1056700009F4BAC3853C91056CF4883B910509F4A3
:1056800083C38E3B910509F497C3823B910509F4CE
:1056900063C32BC5803D910509F462C2813D91052C
:1056A0002CF48A3C910509F446C21FC5883D91053A
:1056B00009F477C2803E910509F494C216C58B3077
:1056C00021E0920709F4FCC38C30E1E09E07ACF4C2
:1056D000883F910509F41AC2893F91052CF4803F57
:1056E000910509F4C1C201C58D3F910509F4ACC310
:1056F0008530914009F4CCC3F8C4823121E092078F
:1057000009F40AC48331E1E09E072CF48031914012
:1057100009F4EBC3EAC4823621E0920709F453C4CA
:105720008637914009F48DC4E0C48BAD9CADFC017B
:10573000C080D180E280F38085E990E00E940F5F15
:10574000DC01CB01C816D906EA06FB0609F490C4B1
:105750008BAD9CADFC0180819181A281B381AC01B4
:10576000BD0185E990E00E94422A82C48BAD9CADC8
:10577000FC01008111818DE990E00E94165F0817FD
:10578000190709F477C48BAD9CADFC018081918130
:10579000BC018DE990E00E940F2A6CC419821A8224
:1057A0008BAD9CAD8B839C838B819C819C012F5FF7
:1057B0003F4F2B833C83FC0180818D838AE490E002
:1057C0008E839F838D81882339F189819A814497C3
:1057D0001CF58E819F810E94075F8CAB9D818CA9F7
:1057E000981729F08E819F816D810E94E02989811F
:1057F0009A81019689839A838B819C819C012F5F7A
:105800003F4F2B833C83FC0180818D838E819F8160
:1058100001968E839F83D6CF8E819F8160E00E9408
:10582000E02963C4188619868BAD9CAD8A879B8757
:105830008A859B859C012F5F3F4F2A873B87FC0110
:1058400080818C8786E190E08D879E878C85882378
:1058500039F18885998544971CF58D859E850E9430
:10586000075F8EAB9C858EA9981729F08D859E8544
:105870006C850E94E029888599850196888799879B
:105880008A859B859C012F5F3F4F2A873B87FC01C0
:1058900080818C878D859E8501968D879E87D6CF4A
:1058A0008D859E8560E00E94E0291FC41F86188AAE
:1058B0008BAD9CAD898B9A8B89899A899C012F5FCE
:1058C0003F4F298B3A8BFC0180818B8B80E390E0EA
:1058D0008C8B9D8B8B89882339F18F859889449790
:1058E0001CF58C899D890E94075F8DAB9B898DA9D2
:1058F000981729F08C899D896B890E94E0298F85F2
:10590000988901968F87988B89899A899C012F5F46
:105910003F4F298B3A8BFC0180818B8B8C899D8931
:1059200001968C8B9D8BD6CF8C899D8960E00E94DF
:10593000E029DBC31E8A1F8A8BAD9CAD888F998FAF
:10594000888D998D9C012F5F3F4F288F398FFC01E7
:1059500080818A8F84E690E08B8F9C8F8A8D88234C
:1059600039F18E899F8908971CF58B8D9C8D0E943B
:10597000075F8BAB9A8D8BA9981729F08B8D9C8D27
:105980006A8D0E94E0298E899F8901968E8B9F8B5C
:105990008B8D9C8D01968B8F9C8F888D998D9C0112
:1059A0002F5F3F4F288F398FFC0180818A8FD6CFA0
:1059B0008B8D9C8D60E00E94E02997C38BAD9CADE0
:1059C000FC01108183EA90E00E94075F181709F438
:1059D00053C38BAD9CADFC018081682F83EA90E0BE
:1059E0000E94E02949C38BAD9CADFC01108188EA7F
:1059F00090E00E94075F181709F440C38BAD9CAD7F
:105A0000FC018081682F88EA90E00E94E02936C37B
:105A10008BAD9CADFC0110818DEA90E00E94075F88
:105A2000181709F42DC38BAD9CADFC018081682F44
:105A30008DEA90E00E94E02923C38BAD9CADFC0170
:105A4000108182E790E00E94075F181709F41AC3DB
:105A50008BAD9CADFC018081682F82E790E00E94B5
:105A6000E02910C38BAD9CADFC01108188E790E06C
:105A70000E94075F181709F407C38BAD9CADFC01AA
:105A80008081682F88E790E00E94E029FDC28BADFD
:105A90009CADFC0110818EE790E00E94075F181713
:105AA00009F4F4C28BAD9CADFC018081682F8EE7B8
:105AB00090E00E94E029EAC28BAD9CADFC01108110
:105AC00084E890E00E94075F181709F4E1C28BADEB
:105AD0009CADFC018081682F84E890E00E94E02961
